:100000000C948E030C94042D0C94DD2C0C94B603EC
:100010000C94B6030C94B6030C94B6030C94B6037C
:100020000C94B6030C94B6030C94B6030C94B6036C
:100030000C94B6030C94B6030C94B6030C94B6035C
:100040000C942B2D0C94B6030C94B6030C94B603AD
:100050000C94B6030C94B6030C94B6030C94B6033C
:100060000C94C22B0C94B6032020202020202020AA
:10007000005041555345004B4559424F41524400B1
:1000800053435245454E004A4F59535449434B0040
:10009000535741502046444400545552424F005655
:1000A00053594E4300564944454F0050534720543E
:1000B00059504500505347204D495800434F564F23
:1000C0005800545552424F2046444300524F4D2051
:1000D00042414E4B00557074696D653A00410054C1
:1000E0004441313534330044414320547970653AFA
:1000F000004500445300412D4400504342207265A6
:10010000766973696F6E3A00415652206275696C68
:10011000643A0046504741206275696C643A005366
:10012000797374656D20496E666F3A007777772E24
:100130006B6172616261732E756B002064756D7006
:100140006B696E00207864656D6F78002074616E55
:100150006B2D756B00206B616C616E74616A00536E
:1001600070656369616C207468616E6B7320746F75
:100170003A0020496E7465726E657420736F667400
:100180007761726500206E6968697261736820200A
:100190000020466C617368546F6F6C2026204644C3
:1001A000496D616765002064725F6D617820202071
:1001B000200020465047412C205043420020736FBE
:1001C0006C656773746172200020465047412C2093
:1001D0004156522C205043420020616E64796B617D
:1001E00072706F76004B6172616261732050726F42
:1001F00020646576656C6F70657273206172653A14
:100200000041626F75743A00436F6C6F72207465C1
:1002100073743A00746F206E61766967617465204B
:100220006279206D656E75206974656D730020615B
:100230006E642000746F206368616E67652076616C
:100240006C7565732C200020616E642000506C6515
:1002500061736520757365206172726F777320001A
:10026000444F570059656172004D6F6E74680044C9
:100270006179005365636F6E6473004D696E7574C8
:10028000657300486F757273005254432073657430
:1002900075703A0000000000240027002A000000CA
:1002A0000000250028002B0000000000230026008D
:1002B00029000404040404040404020202020202E9
:1002C000030303030303010204081020408001021A
:1002D0000408102001020408102000000008000299
:1002E000010000030407000000000000000020746B
:1002F0006F2072657475726E0045534300507265CD
:10030000737320001912181415BB161117131A4015
:100310004020200804020277017E02580312065989
:10032000071408110A8410761B661C0D1D5A1E291D
:100330001F7020692172227A236B24732574266C26
:100340002775287D29712A792C7B2D7C2E0F3F451E
:100350003016311E32263325342E3536363D373EA3
:10036000384639523A413B4E3C493D4A3E0E401CCC
:100370004132422143234424452B463447334843EA
:10038000493B4A424B4B4C3A4D314E444F4D501530
:10039000512D521B532C543C552A561D572258356B
:1003A000591A5A4C5B5D5C545D5B5E555F618B0511
:1003B00061066204630C6403650B6683670A680167
:1003C00069096A786B076C086D106E186F207028C9
:1003D000713072387340744875507657775F786D16
:1003E00060519113926A9364946795F296F19763C2
:1003F0009862995FA012BB7C041409110B1F0C2793
:100400000D2F0E7E0F6C1169127D137A146B15740B
:1004100016751772187019711A5A2B4A2F4D7915C3
:100420007A3B7B347C237D327E217F508048812B38
:1004300082408310843A853886308728882089183E
:100440008A378C3F8D5E90300020746F20746F6708
:10045000676C65204F5344004D656E752B455343C3
:10046000005072657373200020746F207265626F94
:100470006F74004374726C2B416C742B44656C0078
:1004800050726573732000626F75740041006E6670
:100490006F20004900657374005400436F6C6F72E5
:1004A0002000657420757020525443005300506F33
:1004B000727420233146004D6F757365005363617C
:1004C0006E636F646500506175736500506175738C
:1004D0006500507274536372004B6579626F61728C
:1004E00064004D656E752B560053637265656E0032
:1004F0004D656E752B4A004A6F79207479706500DE
:100500004D656E752B5461620053776170204644CF
:1005100044004D656E752B46313100547572626F23
:10052000004D656E752B463130005653796E630071
:100530004D656E752B463900566964656F004D65D3
:100540006E752B4638005053472074797065004D06
:10055000656E752B463700505347206D6978004D06
:10056000656E752B463600436F766F78004D656E6D
:10057000752B463500547572626F464443004D65D5
:100580006E752B46312D463400524F4D2042616E20
:100590006B00415652200046504741200045004420
:1005A0005300412D44005265762E004644496D614A
:1005B000676500466C617368657200200050512DBC
:1005C000444F530044656661756C740020004F6EA3
:1005D000004F66660020004F6E004F6666004D6F4C
:1005E0006E6F002000414342002000414243002042
:1005F00000594D3231343946004159332D383931A3
:1006000032005647412033306B487A00524742202F
:1006100031356B487A00353020487A003630204832
:100620007A003F3F3F0020003878002000347800F7
:10063000200032780020004F66660020004F6E00D8
:100640004F6666002000534547410041746172695E
:10065000002000436C61737369630050656E7461C0
:10066000676F6E00537065637472756D0050726FC2
:1006700066692058540020004F6E004F66660030B7
:100680000020003000300020003000200030003A10
:10069000002D2D2E2D2D2E2D2D2D2D002E002E003A
:1006A0002D2D3A2D2D3A2D2D003A003A00300030F4
:1006B00000300030005F5F5F00446563004E6F767E
:1006C000004F63740053657000417567004A756C94
:1006D000004A756E004D617900417072004D617283
:1006E00000466562004A616E003000300030005FF5
:1006F0005F5F0053756E0053617400467269005469
:1007000068750057656400547565004D6F6E002074
:1007100026200073002064617900752D11241FBE0E
:10072000CFEFD8E0DEBFCDBF25E0A2E3B1E001C04E
:100730001D92A135B207E1F711E0A0E0B1E0ECE3D2
:10074000FDE702C005900D92A233B107D9F713E07F
:10075000CEE8D3E004C02197FE010E94963ECD383A
:10076000D107C9F70E942B2E0C949C3E0C940000DC
:10077000882331F01092EE048BE08093EF0408950B
:100780008BE08093EE041092EF04089591E0909333
:10079000DC038093FE031092DD031092FF030895A3
:1007A0009091B0038091AF032FEF3FEF981748F47B
:1007B000E92FF0E0E157FC4F208130E09F5F9093FC
:1007C000B003C90108959091B0038091AF032FEF5A
:1007D0003FEF981748F4E92FF0E0E157FC4F2081F4
:1007E00030E09F5F9093B003C90108958F73E0914B
:1007F0000C04F0910D04805C09948F929F92AF924B
:10080000BF92CF92DF92EF92FF920F931F93CF93FD
:100810000CE214E0C0E0C12CD12C7601C394F801A5
:1008200090E080E060E0219146015701082E04C06D
:10083000880C991CAA1CBB1C0A94D2F72223E1F055
:10084000682901968830910571F7CF5FE091270400
:10085000F09128048C2F0995085F1F4FC930F9F6D5
:10086000CF911F910F91FF90EF90DF90CF90BF90AD
:10087000AF909F908F90089580946821E2CF82304E
:10088000C8F4E82FF0E0EE0FFF1FEF5FFE4F71831B
:100890006083813041F0809169008C7F8260809319
:1008A0006900E89A089580916900837F8860809349
:1008B0006900E99A0895E0910C04F0910D0460E05C
:1008C0008BEF09958091200420911704622F8823D3
:1008D00049F0822F6AE00E948A3E682F660F680FF7
:1008E000660F620F80E00E94F60380912004209141
:1008F0001604622F882349F0822F6AE00E948A3E04
:10090000682F660F680F660F620F82E00E94F60381
:10091000909121048091200420911504992309F4D9
:1009200062C0882349F0822F6AE00E948A3E982F95
:10093000990F890F880F280F622F84E00E94F60319
:100940008091200420911B04622F882349F0822F7C
:100950006AE00E948A3E682F660F680F660F620F7A
:1009600086E00E94F6038091200420911404622FF7
:10097000882349F0822F6AE00E948A3E682F660F22
:10098000680F660F620F87E00E94F60380912004D3
:1009900020911304622F882349F0822F6AE00E947D
:1009A0008A3E682F660F680F660F620F88E00E940C
:1009B000F60320912004809111049091120464E6C2
:1009C00070E00E943A3E682F222351F0282F862F94
:1009D0006AE00E948A3E682F660F680F660F620FFA
:1009E00089E00C94F603882329F02D3008F49BCF7E
:1009F0002CE899CF2D3008F49FCF2CE89DCFE6E26C
:100A0000F4E0A9E8B4E08C9191E089278C9383AB62
:100A10000380F481E02D70E060E08DE00994CF92D6
:100A2000DF92EF92FF920F931F93CF93DF93CDB797
:100A3000DEB764970FB6F894DEBF0FBECDBF20912E
:100A4000AB043091AC04611133C012161306A4F448
:100A5000E7E9F4E050E040E0A191B1918A179B07EB
:100A600009F461E04F5F5F4F42175307A9F7611127
:100A700010C02A30310569F0F901EE0FFF1FE95669
:100A8000FB4F918380832F5F3F4F3093AC042093C3
:100A9000AB0464960FB6F894DEBF0FBECDBFDF91F6
:100AA000CF911F910F91FF90EF90DF90CF9008951D
:100AB000FE01319644E1DF011D924A95E9F71216D5
:100AC000130684F507E914E0780150E040E070E097
:100AD00060E0D701CD90DD907D018C159D0549F03A
:100AE000DA01AA0FBB1FAE0FBF1FCD92DC924F5F82
:100AF0005F4F6F5F7F4F6217730759F741155105BD
:100B000089F090E080E021913191D8012D933D93BF
:100B10008D01019684179507B1F75093AC0440936B
:100B2000AB04B7CF50E040E0F8CF85ED8093BC0038
:100B30001092DB031092DA038091BC0084FF0BC09B
:100B40002091DA033091DB03809105019091060139
:100B50002817390718F01092D90308958091DA0305
:100B60009091DB0301969093DB038093DA03E4CF4B
:100B700020915D02260F3327331F21323105ECF41B
:100B80002091D903FC0190E080E0243069F082E0FC
:100B90000895A0915D022191AC01435C5D4FA40FCB
:100BA000B52FB11D2C930196861798F380915D02A5
:100BB000680F60935D0280E0089581E008950895D4
:100BC000E091B0038091AF03E81730F4F0E0E15713
:100BD000FC4F808190E008958FEF9FEF0895809102
:100BE000AF039091B003891B990B0895CF92DF92C8
:100BF000EF92FF920F931F93CF93DF937C01CB0172
:100C00008A012091DC03222389F0EB016B01C40EE1
:100C1000D51ECC15DD0569F06991D701ED91FC91E8
:100C20000190F081E02DC7010995F3CF642F0E9458
:100C3000B805C801DF91CF911F910F91FF90EF9000
:100C4000DF90CF900895CF93DF931F92CDB7DEB79B
:100C500069832091DC032223F9F02091FF032032E5
:100C600058F021E030E0FC013383228390E080E003
:100C70000F90DF91CF9108958091DD03E82FF0E090
:100C8000E252FC4F998190838F5F8093DD038093C4
:100C9000FF0381E090E0ECCF61E0CE0101960E947D
:100CA000B805F7CF682F80E094E00C9423060895F0
:100CB0000F931F93CF93DF93EC01062F1C811295A6
:100CC000107FE885F9856E8180E10995E885F985D1
:100CD0006F8181E10995E885F985602F82E10995A9
:100CE0006D81610FE885F98583E109959F818E818A
:100CF0008F5F803260F48E83983110F01F821E82E5
:100D000081E090E0DF91CF911F910F9108951E82B5
:100D100081E0890F8F83F0CF0F931F93CF93DF93E1
:100D20008C01D0E0C0E0F801EC0FFD1F6491662358
:100D300041F08AEE94E00E945806892B11F021962A
:100D4000F2CFCE01DF91CF911F910F910895809145
:100D500004058130B1F590910805963009F080E0E6
:100D60000E94B8038AE08093F0048FE08093F1043E
:100D7000E0911B04E1508FEE96E0E73070F4F0E074
:100D8000EC53F94F0C94963EDE06CB06CF06D20606
:100D9000D506D806DB068BE097E00C948C0687E03E
:100DA00097E0FBCF83E097E0F8CF8FEF96E0F5CFA9
:100DB0008BEF96E0F2CF87EF96E0EFCF83EF96E0F0
:100DC000ECCF089580910405813009F04AC09091DC
:100DD0000805943009F080E00E94B8038AE080930F
:100DE000F0048CE08093F104E0911304E15085EB72
:100DF00096E0EC3098F4F0E0E050F94F0C94963E19
:100E00000C0710071307160719071C071F072207EF
:100E1000250728072B072E0785EE96E00C948C06F5
:100E200081EE96E0FBCF8DED96E0F8CF89ED96E070
:100E3000F5CF85ED96E0F2CF81ED96E0EFCF8DEC2A
:100E400096E0ECCF89EC96E0E9CF85EC96E0E6CF32
:100E500081EC96E0E3CF8DEB96E0E0CF89EB96E076
:100E6000DDCF0895E8EEF4E02FE0268317820C949E
:100E70008C06E8EEF4E027E0268317820C948C06BB
:100E8000E8EEF4E025E0268317820E948C068FE8C6
:100E900096E00C948C0680918B04811112C0809195
:100EA0000405811122C081E0909106059C3009F073
:100EB00080E00E94B8038AE08093F00481E180938F
:100EC000F10480915904882369F088E796E00E9434
:100ED0008C068FE08093EE041092EF0486E796E094
:100EE0000C948C068BE796E0FBCF089580918B04E1
:100EF000811112C080910405811119C081E0909187
:100F000006059B3009F080E00E94B8038AE08093D8
:100F1000F00480E18093F10480917404882321F02F
:100F20008DE696E00C948C0684E696E0FBCF08955F
:100F300080918B04811112C080910405811125C01C
:100F400081E0909106059A3009F080E00E94B80394
:100F50008AE08093F0048FE08093F104809177041D
:100F6000882319F0813029F008958BE596E00C94E0
:100F70008C0683E596E00E948C068FE08093EE0459
:100F80001092EF0481E596E0F2CF089580918B04F2
:100F9000811112C080910405811122C081E09091DD
:100FA0000605993009F080E00E94B8038AE080933A
:100FB000F0048EE08093F10480918804882369F026
:100FC00086E496E00E948C068FE08093EE041092F7
:100FD000EF0484E496E00C948C068BE496E0FBCF5F
:100FE000089580918B04811112C0809104058111B4
:100FF00022C081E090910605983009F080E00E94BF
:10100000B8038AE08093F0048DE08093F10480912E
:101010008704882369F08DE396E00E948C068FE0B8
:101020008093EE041092EF048BE396E00C948C0610
:1010300080E496E0FBCF089580918B04811112C06B
:1010400080910405811119C081E0909106059630C8
:1010500009F080E00E94B8038AE08093F0048BE0FE
:101060008093F10480917F04882321F08CE196E045
:101070000C948C0686E196E0FBCF089580918B045A
:10108000811111C080910405811118C081E09091F7
:101090000605953009F080E00E94B8038AE080934D
:1010A000F0048093F10480917E04882321F08CE089
:1010B00096E00C948C0682E096E0FBCF0895809138
:1010C0008B04811112C080910405811122C081E03E
:1010D00090910605943009F080E00E94B8038AE000
:1010E0008093F00489E08093F10480918504882343
:1010F00021F089EF95E00C948C0681EF95E00E9439
:101100008C068FE08093EE041092EF048FEE95E052
:10111000F2CF089580918B04811112C08091040553
:10112000811134C081E090910605933009F080E090
:101130000E94B8038AE08093F00488E08093F10471
:10114000809184049091860491111DC0882379F0C8
:101150008130C9F48BEE95E00E948C068FE080937D
:10116000EE041092EF0489EE95E00C948C0685EE67
:1011700095E00E948C068FE08093EE041092EF04BD
:1011800083EE95E0F2CF8EED95E0EFCF089580915C
:101190008B04811112C080910405811122C081E06D
:1011A00090910605923009F080E00E94B8038AE031
:1011B0008093F00487E08093F10480918304882376
:1011C00069F087ED95E00E948C068FE08093EE0435
:1011D0001092EF0485ED95E00C948C068AED95E075
:1011E000FBCF089580918B04811112C0809104057A
:1011F000811122C081E090910605913009F080E0D4
:101200000E94B8038AE08093F00486E08093F104A2
:1012100080918204882369F08EEC95E00E948C0610
:101220008FE08093EE041092EF048CEC95E00C9428
:101230008C0681ED95E0FBCF089580918B048111A0
:1012400011C08091040581112FC081E090910605A5
:10125000911180E00E94B8038AE08093F00485E059
:101260008093F104809180049091810491118260B7
:101270008230A1F08330A9F0813021F084EC95E038
:101280000C948C068DEB95E00E948C068FE0809389
:10129000EE041092EF048BEB95E0F2CF83EB95E038
:1012A000EFCF8BEA95E0ECCF08951F93CF93DF93B8
:1012B000C82F1092F0048093F1048FE08093EE0425
:1012C0001092EF0460E88AEE94E00E94580661E80C
:1012D0008AEE94E00E94580662E88AEE94E00E944A
:1012E000580663E88AEE94E00E94580664E88AEEA5
:1012F00094E00E94580665E88AEE94E00E94580641
:1013000062E88AEE94E00E94580663E88AEE94E070
:101310000E94580666E88AEE94E00E94580667E844
:101320008AEE94E00E94580662E88AEE94E00E94F9
:10133000580663E88AEE94E00E94580668E88AEE50
:1013400094E00E94580669E88AEE94E00E945806EC
:101350001092F00481E08C0F8093F10460E98AEE32
:1013600094E00E94580661E98AEE94E00E945806D3
:1013700062E98AEE94E00E94580663E98AEE94E0FE
:101380000E94580664E98AEE94E00E94580665E9D6
:101390008AEE94E00E94580662E98AEE94E00E9488
:1013A000580663E98AEE94E00E94580666E98AEEE0
:1013B00094E00E94580667E98AEE94E00E9458067D
:1013C00062E98AEE94E00E94580663E98AEE94E0AE
:1013D0000E94580668E98AEE94E00E94580669E97E
:1013E0008AEE94E00E945806D2E0DC0F18E01093D9
:1013F000F004D093F1046AE88AEE94E00E94580663
:101400006BE88AEE94E00E94580664E88AEE94E065
:101410000E94580665E88AEE94E00E9458066CE83F
:101420008AEE94E00E9458066DE88AEE94E00E94ED
:101430005806CD5F1093F004C093F1046AE98AEE78
:1014400094E00E9458066BE98AEE94E00E945806E8
:1014500064E98AEE94E00E94580665E98AEE94E019
:101460000E9458066CE98AEE94E00E9458066DE9E5
:101470008AEE94E00E94580681E08093F004D093B5
:10148000F10489E08093EE041092EF0466E18AEEA5
:1014900094E00E9458068DE08093EE041092EF04D1
:1014A00066E18AEE94E00E94580685E08093EE049F
:1014B0001092EF0466E18AEE94E00E94580683E001
:1014C0008093EE041092EF0466E18AEE94E00E94AD
:1014D00058068EE08093EE041092EF041092F00410
:1014E000C093F10486EA95E00E948C068091F50491
:1014F000863040F4843098F4823050F0DF91CF9100
:101500001F91089584528230C8F78DE995E002C09A
:1015100082EA95E0DF91CF911F910C948C068FE9C0
:1015200095E0F8CFCF93DF931092F0041092F1047E
:10153000C8E1D0E260E08AEE94E00E945806D15003
:10154000C9F7C150B1F7DF91CF910895CF938FE0E4
:101550008093EE041092EF041092F00486E18093E1
:10156000F104C0E264EC8AEE94E00E945806C15097
:10157000C9F71092F00487E18093F1048DEF92E0B7
:101580000E94320789EF92E00E9439078EEE92E0C6
:10159000CF910C9432071092A9011092A8011092D9
:1015A000A7011092A60110920C0310920B03109247
:1015B000A50110928A02109285021092A40108954A
:1015C0009091A9019F5F903408F090E02091A801CC
:1015D000291751F0E92FF0E0EC59FE4F80839093EA
:1015E000A90181E090E008958CEF9FEF089583308A
:1015F00081F028F4813099F08230A9F00895873085
:10160000A9F08830C9F08430B1F4809180008F7DDA
:1016100003C0809180008F7780938000089584B507
:101620008F7784BD089584B58F7DFBCF8091B00006
:101630008F778093B00008958091B0008F7DF9CFAF
:10164000CF93DF93282F30E0F901E652FD4F8491CC
:10165000F901EA53FD4FD491F901EE54FD4FC491C5
:10166000CC23A1F081110E94F70AEC2FF0E0EE0FDD
:10167000FF1FE855FD4FA591B491EC91ED2381E05A
:1016800090E009F480E0DF91CF91089580E090E050
:10169000FACF1F93CF93DF93282F30E0F901E65262
:1016A000FD4F8491F901EA53FD4FD491F901EE54B5
:1016B000FD4FC491CC23A9F0162F81110E94F70A87
:1016C000EC2FF0E0EE0FFF1FE256FD4FA591B49115
:1016D0008FB7F894EC91111108C0D095DE23DC93FC
:1016E0008FBFDF91CF911F910895DE2BF8CF90919E
:1016F000880461E0911101C0682F8FE00C94490BC0
:10170000CF93DF93CCEBD0E018821092D90381E025
:101710008093D6031092B10361E082E10E94490BED
:1017200061E083E10E94490BE9EBF0E080818E7F6C
:10173000808380818D7F808388E48093B80085E4F6
:101740008883DF91CF9108952091FF0381E02132BA
:1017500070F58091FE031092DB031092DA039091F2
:10176000D903992359F06091DA037091DB0340911A
:101770000501509106016417750700F16091DA03C5
:101780007091DB03409105015091060164177507C4
:1017900000F10E9495050E94800B8091D7039091E3
:1017A000D80301969093D8038093D70385E01092D5
:1017B000DD031092FF031092DC0308954091DA03D9
:1017C0005091DB034F5F5F4F5093DB034093DA038D
:1017D000C6CF92E09093D90391E09093D6039FEF08
:1017E0009093D5031092D4032093D303AEEDB3E0CE
:1017F000E3EBF3E090E029136BC01092B2039091F9
:10180000B203880F892B8093B2038091B10381309A
:1018100009F062C01092B1031092DB031092DA0358
:101820008091B2038093BB008091DA039091DB0337
:1018300001969093DB038093DA038091BC0083FFD1
:101840000BC02091DA033091DB0380910501909168
:1018500006012817390720F32091DA033091DB03C2
:1018600080910501909106012817390708F091CF62
:1018700085EC8093BC001092DB031092DA03809118
:10188000D903823059F42091DA033091DB0380913F
:101890000501909106012817390700F12091DA031C
:1018A0003091DB03809105019091060128173907DB
:1018B00008F06FCF8091D5038F3FD1F08091D50391
:1018C0008032C1F08091D5038033B1F084E06FCFD6
:1018D0003D9131939F5F8FCF85EECBCF8091DA031F
:1018E0009091DB0301969093DB038093DA03C7CFDB
:1018F00080E05DCF82E05BCF83E059CFCF93DF9371
:10190000EC0188E60E94C60386E090E00E94520641
:10191000CE0164E670E00E94263E282F6AE00E9415
:101920008A3E682F660F680F660F620F80E094E0B2
:101930000E942306DF91CF910C94A40BCF93C82F64
:1019400088E60E94C60385E090E00E9452068C2F34
:101950006AE00E948A3E682F660F680F660F6C0F60
:1019600080E094E00E942306CF910C94A40BCF93C7
:10197000C82F88E60E94C60384E090E00E945206C9
:101980008C2F6AE00E948A3E682F660F680F660FF0
:101990006C0F80E094E00E942306CF910C94A40B7E
:1019A000CF93C82F88E60E94C60383E090E00E9490
:1019B00052066C2F80E094E00E942306CF910C9495
:1019C000A40BCF93C82F88E60E94C60381E090E065
:1019D0000E9452068C2F6AE00E948A3E682F660F92
:1019E000680F660F6C0F80E094E00E942306CF9191
:1019F0000C94A40BCF93DF9390E0FC01EA53FD4FCE
:101A000024918E549D4FFC0184918823C9F090E06D
:101A1000880F991FFC01EC56FD4FA591B491FC0174
:101A2000E256FD4FC591D49161110DC09FB7F89456
:101A30008C91209582238C938881282328839FBFB3
:101A4000DF91CF910895623051F49FB7F8943C91A3
:101A5000822F809583238C93E8812E2BEFCF8FB735
:101A6000F894EC912E2B2C938FBFEACFCF93C82FF5
:101A700060E00E94FA0C61E08C2FCF910C94490B2E
:101A8000CF93C82F61E00E94FA0C60E08C2FCF91B9
:101A90000C94490BCF93DF93809363018093620191
:101AA0001092A501109261018091A401806C809335
:101AB000A4018091A70187FD0DC08091A70180FF3F
:101AC00009C08091A601809360018091A40180618A
:101AD0008093A40180915F01823009F443C0833078
:101AE00061F4E99881E090E0880F991FFC01EF5FB5
:101AF000FE4F87E596E091838083D0915E0161E09F
:101B00008D2F0E94490B61E08D2F0E94FA0CC0912D
:101B10005F0161E08C2F0E94490B61E08C2F0E94D5
:101B2000FA0C83E290E00197F1F760E08C2F0E94BD
:101B3000490B8BEE90E00197F1F760E08D2F0E944A
:101B4000490B62E08C2F0E94FA0C80E0C23021F039
:101B50008FEFC33009F481E061E273E1DF91CF914F
:101B60000C943F04E89890E080E0BECF9091A801EB
:101B70008091A901891799F18091A70181608093D3
:101B8000A7018091A70187FD2DC08091A40187FD49
:101B900029C01092A6012FEF3FEF9F5F903408F00D
:101BA00090E0E92FF0E0EC59FE4F2F3F320771F43F
:101BB000208130E09093A8018091A9018913EDCF95
:101BC000822F0E944A0D81E090E0089580818B3B36
:101BD000B9F78091A6018F5F8093A601EBCF8EEFBE
:101BE0009FEF08958AE79FEF08950F931F93CF9378
:101BF000DF9310918E0380918D03181B17FD105CED
:101C000001E01F3364F580910C03A0910B038A1B44
:101C100087FD805C882319F180910C03A817F9F0E7
:101C2000AF5FA03408F0A0E0A0930B03B0E0AA0FD0
:101C3000BB1FA557BD4FCD91DC9111978D919C9104
:101C400092FDBFC02C2FCA3A20F08C2F815F8230CA
:101C500010F494FF0AC0DD27209709F0B4C0812F4B
:101C6000DF91CF911F910F91089580918A0295FF86
:101C700018C0806880938A02D0E0C0E093FF1EC045
:101C8000FE01EB50FC4FE4912E130DC0CA50DC4F07
:101C9000FE01C491D0E02097D1F480918A02D82B24
:101CA000DBCF8F77E7CF2296C235D10549F7D0E059
:101CB000C0E0F3CF2296CE3DD105C9F3FE01E95E27
:101CC000FC4FE4912E13F6CFC85EDC4FE1CF80913C
:101CD0008A02FE01C430D10508F050C0EA57FD4F1A
:101CE00087FF04C01082CBEBD0E02AC090819130F6
:101CF000D1F30083C230D105D9F1C330D10579F1D8
:101D000082E090918502292F2823A1F120918A0257
:101D10008095892380938502206820938A028DEE26
:101D20000E94E00A8BEB0E94E00A809185020E94EB
:101D3000E00A8BEB0E94E00A892B11F00E94B60D9D
:101D400080918A029E012052310921343105B8F177
:101D5000CB38D105A1F1816080938A029ECF84FFA8
:101D600005C08F7E80938A0284E0CBCF8061FACF5A
:101D700081E0C7CF892B80938502D1CF3697E83099
:101D8000F10560F4E15FFC4FE49187FF05C0E09549
:101D9000E823E0938A02D4CFE82BFBCFFE01B09773
:101DA000EB30F10568F69091850291FF02C086FF45
:101DB000C7CFEC5FFC4FE491CE2FD0E0C1CF8E7F38
:101DC000CBCFC6E0D0E0CE0199278B3B910509F43B
:101DD00018CF892B09F415CF80918E038F5F803443
:101DE0000CF080E0E82FEE0FFF0BE35FFC4FD18398
:101DF000C08380938E031F5F04CF8E5080648093D6
:101E00007C0080917A00806480937A0080917A00CF
:101E100086FDFCCF809178009091790008953FB7BE
:101E2000F8948091550190915601A0915701B0917D
:101E3000580126B5A89B05C02F3F19F00196A11D9A
:101E4000B11D3FBFBA2FA92F982F8827BC01CD0104
:101E5000620F711D811D911D42E0660F771F881F63
:101E6000991F4A95D1F708958F929F92AF92BF9292
:101E7000CF92DF92EF92FF924B015C010E940F0F15
:101E80006B017C010E940F0F6C197D098E099F095F
:101E9000683E734081059105A8F321E0821A9108FC
:101EA000A108B10888EEC80E83E0D81EE11CF11C21
:101EB00081149104A104B10429F7FF90EF90DF9001
:101EC000CF90BF90AF909F908F900895CF93DF9366
:101ED000CCE2D4E0FE01119284E0E535F807D9F7B1
:101EE00081E0809355040E94FD0364E670E080E089
:101EF00090E00E94340F199284E0C535D807D9F7D5
:101F000010925504DF91CF910C94FD03CF93DF9392
:101F1000CCE2D4E0FE01119284E0E535F807D9F770
:101F200081E0809357040E94FD0364E670E080E046
:101F300090E00E94340F199284E0C535D807D9F794
:101F400010925704DF91CF910C94FD032FB7F894B2
:101F5000609151017091520180915301909154010F
:101F60002FBF0895CF92DF92EF92FF92CF93DF932E
:101F7000EC010E94A60F6B017C010E94A60F6C1958
:101F80007D098E099F09643671058105910578F4F4
:101F9000809133050E94200B8C179D0771F781E01B
:101FA000DF91CF91FF90EF90DF90CF90089580E088
:101FB000F7CFCF93DF9390E080E00E94B20F809143
:101FC00035050E94200BEC0181E090E00E94B20FE9
:101FD000CE01DF91CF910895CF92DF92EF92FF92E1
:101FE0000F931F93CF9380913305909134050E94F6
:101FF000360D80913505909136050E94360D83ECA3
:1020000090E00197F1F790E080E00E94B20F8FE03E
:1020100090E00197F1F781E090E00E94B20FC0E0FC
:1020200010E000E0C12CD12C7601C3940E94D90F9E
:10203000B701A601002E04C0440F551F661F771F6D
:102040000A94D2F7892BC9F0C42B0F5F1F4F0830B9
:10205000110561F70E94D90F0E94D90F80913305B5
:10206000909134050E94400D8C2FCF911F910F91BC
:10207000FF90EF90DF90CF9008954095C423E5CF77
:102080002091350530913605019759F4C9010E9418
:10209000360D81E090E00E94B20F90E080E00C9459
:1020A000B20FC9010E94400DF4CFBF92CF92DF92D0
:1020B000EF92FF920F931F93CF93DF93C82E8091DF
:1020C0003505909136050E94360D8091330590912B
:1020D00034050E94360DCBEAD4E0CE010197F1F72A
:1020E00080913305909134050E94400D2197F1F7BE
:1020F00080913505909136050E94400D83E290E075
:102100000197F1F780913305909134050E94360DC7
:1021100090E080E00E94B20FB82E882309F43FC0FF
:10212000EE24E394F12CD0E0C0E00C2C000CDD0890
:1021300086010C2E02C0159507950A94E2F70170EE
:102140001127C8010E944010E026F1262196C830D0
:10215000D10571F7C7010E9440108091350590911B
:1021600036050E94360D83EC90E00197F1F790E080
:1021700080E00E94B20F809133050E94200B892BD2
:10218000D1F3809135050E94200B892BA1F380911A
:102190003305909134050E94400D0E94EC0F8B2D69
:1021A000DF91CF911F910F91FF90EF90DF90CF9033
:1021B000BF90089580913305909134050E94360DAB
:1021C00080913505909136050E94360D8FEF90E095
:1021D0000E945510882321F00E94EC0F0E94EC0F02
:1021E00088EE90E00E94551083E090E00E94551028
:1021F00086EE90E00E94551083EF90E00E9455100B
:1022000088E290E00E9455108AEE90E00E945510FE
:1022100084EF90E00E9455108BE891E00197F1F770
:10222000809133059091340582309105A9F0039790
:10223000A9F08FEF60E371E10E943F0480913305C4
:10224000909134050E94360D8091350590913605A8
:102250000E94360D81E0089580E0ECCF81E0EACF66
:10226000CF92DF92EF92FF920F931F93CF938091C3
:102270003C020E94200B8C01C1E0892B09F4C0E0D4
:102280000E94A60FC0903802D0903902E0903A0226
:10229000F0903B029B01AC012C193D094E095F09EE
:1022A00069017A013BE0C316D104E104F10430F086
:1022B0001092370210923602109235026093380263
:1022C0007093390280933A0290933B0280913702D7
:1022D0008F5F809337028A3048F4823010F5813066
:1022E000A1F010923702109236020CC08A3059F1D8
:1022F0008B30B9F7809134028D3F78F1109236021D
:10230000109237021092350204C0109235021092DA
:102310003402CF911F910F91FF90EF90DF90CF90FB
:10232000089580913402C80FC09334028091350221
:1023300090E09595879520E0012B09F020E8822B0D
:1023400080933502E6CF8091340281708C1719F0AA
:1023500080933402DECF8DEFFBCF80913602813047
:10236000A1F130F1823061F68091350290E09093D6
:102370003102809330021092360280912B028F5FDF
:10238000803108F080E090912A02981709F4B8CFC4
:1023900048E0849FD0011124A655BE4F98E0ECE29E
:1023A000F2E001900D929A95E1F780932B02A8CF6D
:1023B0008091350290E090932D0280932C028091C1
:1023C00036028F5F809336029BCF8091350290E07A
:1023D00090932F0280932E02F2CFCF92DF92EF9252
:1023E000FF92CF93DF939091E5049111B7C0D62F60
:1023F000C82F0E94A60FE091E50427E02E9FA001C0
:1024000011244A5D5B4FDA01A757BF4F6D937D934F
:102410008D939C93139714961C9215971C92495771
:102420005F4FDA01CC9341E04E0F249FA0011124AD
:102430004A5D5B4FDA01A757BF4F6B017C01FAEF92
:10244000CF0ED11CE11CF11CCD92DD92ED92FC92DD
:10245000139714961C9215973FE03C9349575F4F92
:10246000DA01CC9342E04E0F249FA00111244A5D73
:102470005B4FDA01A757BF4F6B017C01F4EFCF0E22
:10248000F1E0DF1EE11CF11CCD92DD92ED92FC9299
:1024900013971496F1E0FC9315973C9349575F4FBF
:1024A000DA01CC9343E04E0F249FA00111244A5D32
:1024B0005B4FDA01A757BF4F6B017C013EEEC30EA5
:1024C00032E0D31EE11CF11CCD92DD92ED92FC9224
:1024D000139714961C921597DC9349575F4FDA01B6
:1024E000CC9344E04E0F249FA00111244A5D5B4F22
:1024F000DA01A757BF4F6B017C0138EEC30E33E002
:10250000D31EE11CF11CCD92DD92ED92FC9213974B
:102510001496FC931597DC9349575F4FDA01CC93DF
:1025200035E03E0F239F900111242A5D3B4FD901D6
:10253000A757BF4F6E517B4F8F4F9F4F6D937D932A
:102540008D939C9313971496FC9315971C9229577F
:102550003F4FD901CC93EA5FE093E504DF91CF913F
:10256000FF90EF90DF90CF900895CF92DF92EF929F
:10257000FF920F931F93CF93DF93D82FF62EC42F84
:102580000E94A60FE090E50428E02E1508F450C044
:1025900000E010E09801CC2321F00AE010E020E0F8
:1025A00030E047E0E49EF0011124EA5DFB4FAF010B
:1025B00047575F4F060F171F281F391FDA010D936A
:1025C0001D932D933C9313979F0123573F4FD901A0
:1025D000CC9325503109D9011C92E957FF4FD08384
:1025E00041E04E0D0AE010E020E030E0CC2319F08D
:1025F00000E010E09801B7E04B9FA0011124FA0120
:10260000EA5DFB4FE757FF4FAB01BC01400F511F85
:10261000621F731F40835183628373833496C08328
:102620003597F0823197D08382E08E0D8093E50458
:10263000DF91CF911F910F91FF90EF90DF90CF909E
:102640000895CF92DF92EF92FF920F931F93CF9353
:102650008091A40186FF72C08091A5018F5F809355
:10266000A5018091A5018A3048F4823098F560E098
:10267000813009F448C01092A5019DC08B3009F447
:102680004DC0E8F18C30B9F7809162018E3E69F05F
:10269000809162018E3F49F08091620180935901DF
:1026A0008091A40182608093A4018091A4018F7B1A
:1026B0008093A4018091A70187FF3CC08091A7016E
:1026C0008F778093A7018091A40184FDD4CF0E94CD
:1026D000B60DD1CFC0916301C1706C2F80915E01A6
:1026E0000E94490B80916101C80FC09361018091E4
:1026F000630190E095958795809363015CC060913C
:1027000061016095617080915E01CF911F910F9181
:10271000FF90EF90DF90CF900C94490B62E0809196
:102720005E01CF911F910F91FF90EF90DF90CF90BE
:102730000C94FA0C8091A7018E7FC3CF80915E012B
:102740000E94200BC82F0E94A60F00915A011091E1
:102750005B0120915C0130915D016B017C01C01A2D
:10276000D10AE20AF30A970186010B3F1105210500
:10277000310520F01092A5011092630160935A0177
:1027800070935B0180935C0190935D018091A50142
:102790008F5F8093A5018091A5018A30A0F48230DB
:1027A00020F5813009F067CF109261018091A4017A
:1027B00080688093A401CF911F910F91FF90EF90BB
:1027C000DF90CF9008958A3019F18B3009F053CF04
:1027D000809161018D3F48F18EEF0E944A0D8091FA
:1027E000A70180688093A70146CF809161018C0F7B
:1027F000809361018091630190E095958795809326
:10280000630190E0C11190E880916301892B74CF3E
:102810008091610181708093610180916101C81391
:10282000CACF8DEF80936101C6CF809163018E3F47
:1028300029F09091A4019D7F9093A4019091A4010F
:1028400094FF02C0803F70F09091A40192FD91C06E
:102850008E3E09F477C0E8F48A3A09F47FC020F488
:10286000882359F186E02CC0803E09F47BC0813E6C
:10287000C9F78091A40182FD1AC087E080936001AE
:102880008091A40184608093A4018091A4018F7D34
:102890000CC08C3F09F44EC060F4803F19F781E012
:1028A000809360018091A40180628093A40180E004
:1028B00007C08E3FA9F18F3FA9F60E94CB0A8CE09A
:1028C00081FF05C0909160019150909360019091BB
:1028D0006001191614F482FF1EC090910C039F5FD3
:1028E000903408F090E020910B032917A1F020917B
:1028F0006301E92FF0E030E0EE0FFF1FE557FD4FD9
:10290000318320834091A40120813181342B318394
:10291000208390930C03807171F1809162015DCFEF
:102920008091A40181FFC3CF8091590180936201FE
:1029300080E1C6CF109260011092A4011092A7010D
:102940008EE0BECF9091A40191FF0AC090915901F1
:102950009E3E31F08093620184E1B2CF109260011B
:1029600084E0AECF81E0809360018091A401886013
:102970009CCF82E0A5CF8091600118160CF47BCE2D
:102980008091A401837C8093A401109260018091C6
:10299000A4018F778093A4019ACEAF92BF92CF9279
:1029A000DF92EF92FF920F931F93CF93DF936C010F
:1029B0007B018B01040F151FEB015E01AE18BF08F0
:1029C000C017D10759F06991D601ED91FC910190A2
:1029D000F081E02DC6010995892B79F7C501DF91BA
:1029E000CF911F910F91FF90EF90DF90CF90BF900C
:1029F000AF900895089590E080E008958F929F929F
:102A0000AF92BF920F931F93CF93DF93CDB7DEB7F3
:102A1000A1970FB6F894DEBF0FBECDBF19A242300A
:102A200008F44AE08E010F5D1F4F842E912CB12CCB
:102A3000A12CA50194010E944E3EE62FB901CA01C6
:102A4000EA3044F5E05DD801EE938D01232B242B71
:102A5000252B79F790E080E0109769F0FD01019057
:102A60000020E9F73197AF014A1B5B0BBD018AEEED
:102A700094E00E94CD14A1960FB6F894DEBF0FBE6D
:102A8000CDBFDF91CF911F910F91BF90AF909F90DD
:102A90008F900895E95CD7CF462F682F70E090E0C3
:102AA00080E00C94FE14809104058130D9F490915B
:102AB0000805933009F080E00E94B8038AE0809313
:102AC000F0048BE08093F104809114048A3020F4A8
:102AD00083EB96E00E948C066AE070E0809114041B
:102AE0000C944C150895809104058130D9F490918F
:102AF0000805923009F080E00E94B8038AE08093D4
:102B0000F00489E08093F104809117048A3020F466
:102B100081EB96E00E948C066AE070E080911704D9
:102B20000C944C150895809104058130D9F490914E
:102B30000805913009F080E00E94B8038AE0809394
:102B4000F00488E08093F104809116048A3020F428
:102B50008FEA96E00E948C066AE070E0809116048D
:102B60000C944C150895809104058130D1F4909116
:102B70000805911180E00E94B8038AE08093F00478
:102B800087E08093F104809115048A3020F48DEA67
:102B900096E00E948C066AE070E0809115040C9427
:102BA0004C1508951F93CF93DF93182FD62FC42F62
:102BB00089E08093EE041092EF048AE08093F004A1
:102BC00083E18093F104103120F48DE896E00E94B7
:102BD0008C0660E170E0812F0E944C158BE896E036
:102BE0000E948C06D03120F489E896E00E948C0681
:102BF00060E170E08D2F0E944C1587E896E00E94FE
:102C00008C06C03120F485E896E00E948C0660E1D5
:102C100070E08C2FDF91CF911F910C944C15CF93C6
:102C200080912B04882321F18091F404882301F101
:102C300080918A048823E1F080910405811118C0F5
:102C4000C62F89E08093EE041092EF048AE080930F
:102C5000F00484E18093F104603120F487E494E08F
:102C60000E948C0660E170E08C2FCF910C944C1583
:102C7000CF910895009769F0FC0101900020E9F7D9
:102C80003197AF01481B590BBC018AEE94E00C94BC
:102C9000CD1490E080E00895CF92DF92EF92FF9202
:102CA000CF93DF936C01990FEE08FF08F7FE19C070
:102CB0006DE28AEE94E00E945806EC0166277727C1
:102CC000CB016C197D098E099F094AE00E94FE1410
:102CD0008C0F9D1FDF91CF91FF90EF90DF90CF90F1
:102CE00008954AE0C701B601DF91CF91FF90EF90C0
:102CF000DF90CF900C94FE1480910405813099F5FB
:102D000090910805953009F080E00E94B8038AE0B0
:102D10008093F0048DE08093F104809111049091F0
:102D20001204883E934024F48DEE96E00E948C06B7
:102D300080911104909112048436910524F48BEE55
:102D400096E00E948C0680911104909112040A97DB
:102D500024F489EE96E00E948C06809111049091F3
:102D600012040C944C1608954F925F926F927F92CA
:102D70008F929F92AF92BF92CF92DF92EF92FF928B
:102D8000CF93DF9300D000D0CDB7DEB70E94A60F5F
:102D9000C0900005D0900105E0900205F090030579
:102DA0002B013C014C185D086E087F08C301B2017D
:102DB00028EE33E040E050E00E944E3E29833A8303
:102DC0004B835C83C301B20120E63AEE40E050E061
:102DD0000E944E3E69017A01C301B20120E83EEE35
:102DE00046E350E00E944E3E49015A01C301B20140
:102DF00020E03CE546E255E00E944E3E29013A01C2
:102E0000ACE3B0E0A70196010E94703E29813A81AF
:102E10004B815C81261B370B480B590B29833A8366
:102E20004B835C83A50194010E94703EC61AD70AA9
:102E3000E80AF90AA8E1B0E0A30192010E94703EFD
:102E4000861A970AA80AB90A8EE08093F0048BE0EC
:102E50008093F1048FE08093EE041092EF0441140C
:102E6000510461047104B1F04AE0C301B2010E944F
:102E7000FE1485E197E00E948C064A944528462876
:102E8000472821F083E197E00E948C068FE097E0CD
:102E90000E948C064AE084169104A104B10420F437
:102EA00090E080E00E944C164AE0C501B4010E9407
:102EB000FE1485E291E00E943A165AE0C516D1044C
:102EC000E104F10420F490E080E00E944C164AE016
:102ED000C701B6010E94FE1485E291E00E943A16F5
:102EE00089819A81AB81BC810A97A105B10520F443
:102EF00090E080E00E944C164AE069817A818B81E3
:102F00009C810F900F900F900F90DF91CF91FF90C9
:102F1000EF90DF90CF90BF90AF909F908F907F9079
:102F20006F905F904F900C94FE1487E08093EE04B6
:102F30001092EF0488E18093F0041092F1048091E4
:102F400015048831C8F5909116049C33A8F590912A
:102F500017049C3388F58A3020F487E291E00E94C0
:102F60003A166AE070E0809115040E944C158BEAD5
:102F700096E00E948C06809116048A3020F487E245
:102F800091E00E943A166AE070E0809116040E9477
:102F90004C1589EA96E00E948C06809117048A30CD
:102FA00020F487E291E00E943A166AE070E0809196
:102FB00017040E944C1507C081E08093EF0480EA5B
:102FC00096E00E948C0687E08093EE041092EF0456
:102FD00086E18093F00481E08093F10480911104F4
:102FE000909112048F30974264F4809113048D30D5
:102FF00040F480911404803220F490911B049830A6
:10300000F8F081E08093EF0481E996E00E948C065D
:1030100080910405813071F40E94B3150E949315CC
:103020000E9473150E9453150E94E2060E947C16AE
:103030000E94A70680910405843059F50C94B416BB
:103040008A3020F487E291E00E943A166AE070E04C
:10305000809114040E944C158EE996E00E948C0623
:10306000809113048A3020F487E291E00E943A169E
:103070006AE070E0809113040E944C158CE996E0A0
:103080000E948C0680911104909112040E944C16AB
:10309000BFCF0895CF9380E00E945509CEE0C09342
:1030A000EE041092EF0483E18093F00482E08093B9
:1030B000F10487E995E00E948C066091F6048AEE9F
:1030C00094E00E9458066091F7048AEE94E00E9412
:1030D00058066091F8048AEE94E00E9458066091C8
:1030E000F9048AEE94E00E9458066091FA048AEE90
:1030F00094E00E9458066091FB048AEE94E00E94DE
:1031000058066091FC048AEE94E00E945806609193
:10311000FD048AEE94E00E945806C093EE041092DB
:10312000EF0484E18093F00483E08093F10482E96A
:1031300095E00E948C068091FE049091FF040E940D
:103140003A168FE08093EE041092EF041092F00490
:1031500084E08093F104C0E264EC8AEE94E00E9483
:103160005806C150C9F7CF910C94951780912B0444
:10317000882349F08091F404882329F080918A04FF
:1031800081110C94951708950F931F93CF93DF939C
:10319000EC0189E08093EE041092EF048AE08093C2
:1031A000F00482E18093F1040D2F11270031110505
:1031B00020F483E896E00E948C06B80190E080E05D
:1031C00040E10E94FE1481E896E00E948C06DD2713
:1031D000C031D10520F48FE796E00E948C06BE0135
:1031E00090E080E040E1DF91CF911F910F910C942E
:1031F000FE141092DB031092DA038091D903882326
:1032000059F02091DA033091DB0380910501909110
:10321000060128173907F0F02091DA033091DB031B
:10322000809105019091060128173907E8F00E9466
:1032300095050E94800B8091D7039091D803019649
:103240009093D8038093D70380E01092B0038093CB
:10325000AF0308958091DA039091DB030196909378
:10326000DB038093DA03C9CF81E08093D903809395
:10327000D6039FEF9093D5031092D4031092D303FB
:103280008093B2038091B203806D8093B2038091EA
:10329000B103813009F062C01092B1031092DB03D8
:1032A0001092DA038091B2038093BB008091DA031D
:1032B0009091DB0301969093DB038093DA03809176
:1032C000BC0083FF0BC02091DA033091DB038091B7
:1032D0000501909106012817390720F32091DA03A0
:1032E0003091DB0380910501909106012817390781
:1032F00008F09DCF85EC8093BC001092DB03109208
:10330000DA038091D903813059F42091DA033091A6
:10331000DB0380910501909106012817390700F120
:103320002091DA033091DB03809105019091060131
:103330002817390708F07BCF8091D40381111AC078
:103340008091D403A3EBB3E0EFE8F3E090E09817AB
:1033500009F47BCF2D9121939F5FF9CF85EECBCFE1
:103360008091DA039091DB0301969093DB038093C5
:10337000DA03C7CF81E0E6CF88E60E94C60382E089
:1033800090E00E9452060E94A40B0E94F9180E942D
:10339000E30326E0969587952A95E1F781700895D5
:1033A000CF93DF93C82F0E94BC19D82F88E60E94C4
:1033B000C60382E090E00E9452068C2FD11110C00B
:1033C0006AE00E948A3E682F660F680F660F6C0FD6
:1033D00080E094E00E942306DF91CF910C94A40B2F
:1033E000CD3078F06CE00E948A3E292F892F6AE068
:1033F0000E948A3E682F660F680F660F620F606634
:10340000E7CF6AE00E948A3E682F660F680F660F5A
:103410006C0F6064DDCFCF9388E60E94C60382E024
:1034200090E00E9452060E94A40B0E94F9180E948C
:10343000E303C82F88E60E94C60382E090E00E9462
:1034400052066C2F6F7B80E094E00E942306CF91A0
:103450000C94A40BCF93C82F88E60E94C60390E07B
:1034600080E00E9452060E94A40B0E94F9180E945C
:10347000E3038078C82B88E60E94C60390E080E0D2
:103480000E9452068C2F6AE00E948A3E682F660FC7
:10349000680F660F6C0F80E094E00E942306CF91C6
:1034A0000C94A40B88E60E94C60390E080E00E9482
:1034B00052060E94A40B0E94F9180E94E3038F7722
:1034C000282F30E094E0359527959A95E1F7922FD3
:1034D000990F990F291B220F820F089588E60E94E9
:1034E000C60381E090E00E9452060E94A40B0E9455
:1034F000F9180E94E3039C0194E0359527959A956D
:10350000E1F72F703327922F990F990F291B220F64
:10351000820F0895CF930E94BC19C82F88E60E949D
:10352000C60382E090E00E9452060E94A40B0E9413
:10353000F9180E94E303C11110C0AC0194E0559545
:1035400047959A95E1F74F705527942F990F990F4A
:10355000491B440F840FCF910895482F4F79242F92
:1035600030E084E0359527958A95E1F7822F880F22
:10357000880F922F981B892F880FECCF88E60E9426
:10358000C60383E090E00E9452060E94A40B0E94B2
:10359000F9180E94E303089588E60E94C60384E0B8
:1035A00090E00E9452060E94A40B0E94F9180E940B
:1035B000E3039C0194E0359527959A95E1F72F70E8
:1035C0003327922F990F990F291B220F820F0895ED
:1035D00088E60E94C60385E090E00E9452060E94A1
:1035E000A40B0E94F9180E94E3039C0194E0359516
:1035F00027959A95E1F72F703327922F990F990FFE
:10360000291B220F820F089588E60E94C60386E0D8
:1036100090E00E9452060E94A40B0E94F9180E949A
:10362000E3039C0194E0359527959A95E1F72F7077
:103630003327922F990F990F291B220F820F90E0A9
:103640008053984F0895CF9388E60E94C60390E078
:1036500080E00E9452060E94A40B0E94F9180E946A
:10366000E303C82F88E60E94C60390E080E00E9432
:1036700052066C2F6F7780E094E00E942306CF9172
:103680000C94A40B88E60E94C60390E080E00E94A0
:1036900052060E94A40B0E94F9180E94E303809531
:1036A000881F8827881F08950E940B1A8091140490
:1036B0000E94B70C809113040E949E0C809111040B
:1036C000909112040E947E0C80911B040E94D00CE9
:1036D000809115040E94D019809116040E94E10C7B
:1036E000809117040E942A1A0E94421B811102C075
:1036F0000C94231B08950C94103E0F931F93CF93AB
:10370000DF93D0E0C0E004E610E0CE3008F008C15E
:10371000EC2FF0E0E257F44E0C94963E9C1BB81B45
:10372000CA1BDC1BEE1B0E1C2E1C401C521C641CF6
:103730007B1C831C8A1C8D1C209117048091200403
:10374000882349F0822F6AE00E948A3E982F990FC1
:10375000890F880F280F622F80E00E94F6032196C0
:10376000CF3FD10591F6DF91CF911F910F91089531
:103770002091180480912004882349F0822F6AE068
:103780000E948A3E982F990F890F880F280F622F69
:1037900081E0E3CF2091160480912004882349F032
:1037A000822F6AE00E948A3E982F990F890F880F16
:1037B000280F622F82E0D1CF20911904809120043C
:1037C000882349F0822F6AE00E948A3E982F990F41
:1037D000890F880F280F622F83E0BFCF80912004CC
:1037E0002091150490912104992371F0882349F0C8
:1037F000822F6AE00E948A3E982F990F890F880FC6
:10380000280F622F84E0A9CF882321F02D3080F388
:103810002CE8EECF2D30A8F32CE8F3CF80912004D4
:1038200020911A0490912104992371F0882349F082
:10383000822F6AE00E948A3E982F990F890F880F85
:10384000280F622F85E089CF882321F02D3080F367
:103850002CE8EECF2D30A8F32CE8F3CF20911B04F9
:1038600080912004882349F0822F6AE00E948A3EDA
:10387000982F990F890F880F280F622F86E06DCF40
:103880002091140480912004882349F0822F6AE05B
:103890000E948A3E982F990F890F880F280F622F58
:1038A00087E05BCF2091130480912004882349F0A6
:1038B000822F6AE00E948A3E982F990F890F880F05
:1038C000280F622F88E049CF809111049091120453
:1038D000B8010E943A3E282F90912004992341F08C
:1038E0006AE00E948A3E982F880F890F880F820F06
:1038F000682F89E032CF8AE190E00E947B1B682F1D
:103900006F778AE02ACF8BE190E00E947B1B682FC3
:103910008BE023CF60E08CE020CF60E88DE01DCF0E
:10392000E0910C04F0910D04BE0186E07595679559
:103930008A95E1F78BEF0995CE0140960E947B1B9B
:10394000682F8C2F8F7309CFFF920F931F93CF9304
:10395000DF93EC01F62E08811981C8010E94103E08
:10396000F81621F06F2DC8010E94183ECE01DF919C
:10397000CF911F910F91FF9008950F931F93CF93B5
:10398000DF9300D0CDB7DEB705E714E0F801808300
:103990001A821982682FCE0101960E94A41CF80198
:1039A0008081982F917090935604869581708093B2
:1039B00070040F900F90DF91CF911F910F91089598
:1039C00080918B04811112C080910405811153C034
:1039D00081E090910605973009F080E00E94B803DD
:1039E0008AE08093F0048CE08093F1048091760467
:1039F00090917504891710F40E94BD1C8091750484
:103A00008130A9F038F08230F1F0833041F182E268
:103A100096E00BC087E396E00E948C068FE08093CF
:103A2000EE041092EF0485E396E00C948C0682E39A
:103A300096E00E948C068FE08093EE041092EF04D3
:103A400080E396E0F2CF8DE296E00E948C068FE054
:103A50008093EE041092EF048BE296E0E6CF88E2CA
:103A600096E00E948C068FE08093EE041092EF04A3
:103A700086E296E0DACF08951F93CF93DF931092FA
:103A8000040510928B0410927304DFE0D093EE04CF
:103A90001092EF040E94920A0E944A181092F004B9
:103AA00015E01093F10489E895E00E9440070E9418
:103AB0001D09C4E1C093F0041093F1048EE795E072
:103AC0000E9439071092F00416E01093F10485E784
:103AD00095E00E9440070E94F208C093F004109302
:103AE000F1048DE695E00E9439071092F00417E08A
:103AF0001093F10487E695E00E9440070E94C708F2
:103B0000C093F0041093F1048FE595E00E9439070B
:103B10001092F00418E01093F10487E595E00E94FC
:103B200040070E948A08C093F0041093F1048FE4C8
:103B300095E00E9439071092F00419E01093F10407
:103B400086E495E00E9440070E945F08C093F0045D
:103B50001093F1048EE395E00E9439071092F0046F
:103B60001AE01093F10488E395E00E9440070E9458
:103B70003E08C093F0041093F10480E395E00E94A6
:103B800039071092F0041BE01093F1048AE295E0EB
:103B90000E9440070E941C08C093F0041093F10497
:103BA00081E295E00E9439071092F0041CE0109326
:103BB000F1048BE195E00E9440070E94E01CC09355
:103BC000F0041093F10482E195E00E94390710920D
:103BD000F0041DE01093F10489E095E00E94400795
:103BE0000E94F107C093F0041093F10480E095E087
:103BF0000E9439071092F0041EE01093F10487EF41
:103C000094E00E9440070E94C607C093F0041093FE
:103C1000F10480EF94E00E9439071092F004D093F1
:103C2000F10489EE94E00E9440070E949807C09337
:103C3000F004D093F10482EE94E00E9439071092D0
:103C4000F004D0E1D093F10489ED94E00E944007A4
:103C50000E947607C093F004D093F10482ED94E0C3
:103C60000E9439071092F004D1E1D093F1048CEC5A
:103C700094E00E9440070E944B07C093F004D09349
:103C8000F10486EC94E00E9439071092F00482E17E
:103C90008093F1048DEB94E00E944007809104052D
:103CA000811104C090E080E00E94C4181092F004DA
:103CB00083E18093F10487EB94E00E9440078091B8
:103CC0000405811104C040E060E00E94D21510920A
:103CD000F004C4E1C093F1048EEA94E00E9440072E
:103CE00080910405811113C089E08093EE04109245
:103CF000EF048AE08093F004C093F10487E494E039
:103D00000E948C0660E170E080E00E944C1514E196
:103D10001093F00482E18093F104D7E0D093EE0495
:103D2000C1E0C093EF048CEA94E00E948C0682EA22
:103D300094E00E9432071093F00483E18093F10431
:103D40008BE994E00E943207D093EE04C093EF0415
:103D500089E994E00E948C0685E994E00E9432078C
:103D60001093F0041093F104D093EE04C093EF0489
:103D700083E994E00E948C068EE894E00E9432076A
:103D8000D093EE04C093EF048CE894E00E948C067C
:103D900087E894E00E9432071092F00485E1809356
:103DA000F104C0E264EC8AEE94E00E945806C1502F
:103DB000C9F71092F00486E18093F10480E894E062
:103DC0000E94320783E794E00E94390788E694E076
:103DD0000E9432071092F00487E18093F10481E69B
:103DE00094E00E94320788E594E00E94390789E454
:103DF00094E0DF91CF911F910C9432070F931F93A2
:103E0000CF93DF93C82F8B010E94A60F80914301AF
:103E1000811104C061E080E10E94490B8091F404AB
:103E2000882309F449C180918A04882309F478C061
:103E3000C03108F041C1EC2FF0E0EF5DF04E0C9482
:103E4000963E311F371F421F481F4E1F541F5A1FD7
:103E5000601F661F6C1F721F5C20781F7E1F841FEF
:103E60008A1FDF91CF911F910F910C943C1D80917F
:103E70000405811121C1C801DF91CF911F910F91DC
:103E80000C94C418DF91CF911F910F910C94C60729
:103E9000DF91CF911F910F910C94F107DF91CF919A
:103EA0001F910F910C941D09DF91CF911F910F91DC
:103EB0000C94F208DF91CF911F910F910C94C708D9
:103EC000DF91CF911F910F910C948A08DF91CF91D0
:103ED0001F910F910C945F08DF91CF911F910F916B
:103EE0000C943E08DF91CF911F910F910C941C0808
:103EF000DF91CF911F910F910C947607DF91CF91B5
:103F00001F910F910C944B07DF91CF911F910F914F
:103F10000C94E01CDF91CF911F910F910C949807A6
:103F2000C23008F4C9C0CB3028F084EF8C0F843045
:103F300008F0C2C00E94A60F60933401709335014F
:103F4000809336019093370180918B04811107C0D3
:103F50008FE08093EE041092EF040E94920A81E0B9
:103F600080938B0480937304E0912904F0912A04D8
:103F700070E060E080E10995DFE0D093EE041092FC
:103F8000EF040E94920A80E00E945509D093EE044B
:103F90001092EF041092F00485E08093F104C25077
:103FA000CE30C0F4EC2FF0E0E852F04E0C94963E88
:103FB00022201F20E61F0A200D201020132016208B
:103FC0001920EA1F28202B201C2025208CEC90E0B3
:103FD0000E948C0688E690E00E948C061092F00405
:103FE00086E08093F104CE3008F03AC0EC2FF0E088
:103FF000E450F04E0C94963E50204D202E20382058
:104000003B203E204120442047203020562059208C
:104010004A20532082EC90E0DBCF8CEB90E0D8CFAD
:1040200084EB90E0D5CF8BEA90E0D2CF85EA90E0A8
:10403000CFCF8FE990E0CCCF89E990E0C9CF80E97C
:1040400090E0C6CF87E890E0C3CF80E890E0C0CF93
:1040500087E790E0BDCF81E790E0BACF0E941D09CD
:1040600088E690E0DF91CF911F910F910C948C0620
:104070000E94F208F5CF0E94C708F2CF0E948A087A
:10408000EFCF0E945F08ECCF0E943E08E9CF0E946C
:104090001C08E6CF0E94E01CE3CF0E94F107E0CFAE
:1040A0000E94C607DDCF0E949807DACF0E947607EC
:1040B000D7CF0E944B07D4CFDF91CF911F910F91A3
:1040C0000895CF93DF9300D0CDB7DEB761110CC058
:1040D00064E19A838983CE0101960E94A41C0F900B
:1040E0000F90DF91CF9108956AE0F3CF0F931F9364
:1040F000CF93DF93682F617004E814E0F8016083C8
:10410000C6E8D4E086958170888388E090E00E94BC
:10411000612068818AE090E00E946120F80180813E
:1041200080936A04888180936C04DF91CF911F9102
:104130000F9108958130F9F0C8F08230F9F08330A2
:1041400019F16091800484E090E00E946120609108
:10415000810485E090E00E9461208091800480933A
:104160006504809181048093660408951092800410
:1041700010928104E6CF80938004FACF10928004DD
:1041800081E080938104DDCF81E080938004F9CFCA
:1041900090912B04992309F444C09091F40499233D
:1041A00009F43FC0882319F0813059F108956091D6
:1041B0003A05609379048CE090E00E94612061E010
:1041C00080E10E94490B64E670E080E090E00E948C
:1041D000340F60E080E10E94490B64E670E080E00B
:1041E00090E00E94340F61E080E10E94490B64E698
:1041F00070E080E090E00E94340F60E080E10C9479
:10420000490B80918A04882361F080910405811113
:1042100008C040914E0560914D0580914C050C946D
:10422000D2150895EF92FF921F93CF93DF9300D0A2
:10423000CDB7DEB77C01162F0E947B1B8A3011F0B0
:10424000843169F411E08A3009F010E0812F0F9079
:104250000F90DF91CF911F91FF90EF90089564E14F
:1042600011116AE0FA82E982CE0101960E94A41C33
:10427000EDCF1F93CF93DF9300D0CDB7DEB7109172
:104280007804811708F4182F109377048EE090E0DB
:104290009A838983612FCE0101960E94A41C812FED
:1042A00081708093710416951170109372040F90B1
:1042B0000F90DF91CF911F910895CF92DF92EF92EF
:1042C000FF92CF936A017B01692F661F6627661FE5
:1042D000609384021092830260935804382F331F36
:1042E0003327331F30936304FC01FF27E6FB33279A
:1042F00030F930936204E5FB332730F930936104E1
:10430000E4FB332730F930936004E3FB332730F9C3
:1043100030935F04E2FB332730F930935E04E1FB16
:10432000332730F930935D043E2F317030935C04B5
:1043300091110C949329863011F00C949329CF910C
:10434000FF90EF90DF90CF900C94FF040E94FF0449
:1043500080918302882341F08091AB049091AC045A
:10436000892B11F410922C048091AB049091AC0431
:10437000181619061CF481E080932C0480917C04AB
:104380008823C1F080917D048823A1F0809181026F
:10439000882381F010927C0410927D041092810297
:1043A00010928202109283021092AC041092AB041D
:1043B0000E94660F80917C048823C1F180917D0466
:1043C0008823A1F180918002882381F110927C04DE
:1043D00010927D0410928002109282021092830249
:1043E0001092AC041092AB04ECE2F4E0119224E0E1
:1043F000E535F207D9F7C1E0C09355040E94FD03EB
:10440000C09335040E94FD0364EF71E080E090E00A
:104410000E94340F109255040E94FD0364EF71E076
:1044200080E090E00E94340F10923504CF91FF900D
:10443000EF90DF90CF90089520917404222371F0C3
:104440002FE030E0892F8095881F8827881F2A5DFC
:104450003B4FF9018683809382027ACF30E020E0DF
:10446000F1CF20917404222371F030E020E0892FF5
:104470008095881F8827881F2A5D3B4FF901868316
:1044800080937C0465CF2FE030E0F1CFC92FC09539
:10449000CC1FCC27CC1FC0933B042091740486E032
:1044A00090E0211102C090E080E08A5D9B4FFC010A
:1044B000C683211104C08AE090E00E940F05C093DA
:1044C0007D0446CFC92FC095CC1FCC27CC1FC093ED
:1044D0003B042091740487E090E0211102C090E039
:1044E00080E08A5D9B4FFC01C683211104C08BE0F4
:1044F00090E00E940F05C0937D042ACF2091820294
:10450000211126CF892F8095982F991F9927991FC0
:1045100020917404222351F0909331049093540419
:10452000881F8827881F8093810212CF90933B04B5
:1045300090934404F5CF892F8095881F8827881F82
:1045400080937B0405CF892F8095881F8827881F3B
:1045500080937A04FDCE209182022111F9CE892F19
:104560008095881F8827881F90917404992329F0CB
:104570008093390480935404EBCE80933B04809362
:104580002D04E6CE209182022111E2CE9095991F52
:104590009927991F90939104462F6CE10E94B512C0
:1045A000D7CE209182022111D3CE9095991F9927C1
:1045B000991F90939204462F64E20E94B512C8CED0
:1045C000209182022111C4CE9095991F9927991F9D
:1045D00090939304462F63E20E94B512B9CE2091C6
:1045E00082022111B5CE9095991F9927991F90931A
:1045F0009404462F64E10E94B512AACE20917A0459
:1046000021110CC020917B04211108C020917C0451
:104610002223B9F120917D04222399F1611198CED2
:1046200080918C0490918D04A0918E04B0918F04A0
:10463000A7019601281B390B4A0B5B0BDA01C90154
:10464000893C9105A105B10508F482CE80918A04C8
:1046500091E0892780938A0480936F04882341F036
:10466000E0912904F0912A0470E060E080E009956F
:10467000C0928C04D0928D04E0928E04F0928F044C
:1046800067CE892F8095881F8827881F809396047E
:1046900080932C049091740423E030E0911102C0C7
:1046A00027E030E02A5D3B4FF90186838BE190E003
:1046B0000E940F054DCEC92FC095CC1FCC27CC1F13
:1046C000C0932C04C09330048CE190E00E940F054D
:1046D000C09380023DCE892F8095881F8827881F30
:1046E000809332048093950433CE892F8095881F60
:1046F0008827881F809333042BCE892F8095881FAD
:104700008827881F80932D0423CE892F8095881FAA
:104710008827881F809353041BCE892F8095881F7C
:104720008827881F8093440413CE892F8095881F83
:104730008827881F80933D040BCE892F8095881F82
:104740008827881F80933E0403CE892F8095881F79
:104750008827881F80934504FBCD892F8095881F6B
:104760008827881F80934D04F3CD892F8095881F5B
:104770008827881F80935204EBCD892F8095881F4E
:104780008827881F80934104E3CD20917A0421116A
:104790000CC020917B04211108C020917C042223AD
:1047A000E9F020917D042223C9F06111D1CD6091FF
:1047B000880481E06827609388048DE090E00E947F
:1047C00061208091880480936E04E0912904F09127
:1047D0002A0470E060E082E00995BACD892F8095C7
:1047E000881F8827881F80934A04B2CD892F80951F
:1047F000881F8827881F80934204AACD892F80951F
:10480000881F8827881F80933A04A2CD892F80951E
:10481000881F8827881F809343049ACD892F80950D
:10482000881F8827881F80934B0492CD892F8095FD
:10483000881F8827881F809339048ACD892F809507
:10484000881F8827881F8093310482CD892F809507
:10485000881F8827881F80932E047ACD892F809502
:10486000881F8827881F8093460472CD892F8095E2
:10487000881F8827881F809335046ACD892F8095EB
:10488000881F8827881F80934E0462CD892F8095CA
:10489000881F8827881F809349045ACD20917A0465
:1048A00021110CC020917B04211108C020917C04AF
:1048B0002223F1F020917D042223D1F0611148CD13
:1048C000809177048F5F8093770490917804981794
:1048D00010F410927704809177040E943921E091BE
:1048E0002904F0912A0470E060E08FE0099530CD52
:1048F000892F8095881F8827881F80934C0428CD96
:10490000892F8095881F8827881F8093360420CDA3
:10491000892F8095881F8827881F80933C0418CD95
:10492000892F8095881F8827881F8093510410CD78
:10493000892F8095881F8827881F8093340408CD8D
:10494000892F8095881F8827881F8093300400CD89
:10495000892F8095881F8827881F80932F04F8CC83
:10496000892F8095881F8827881F80933704F0CC73
:10497000892F8095881F8827881F80933F04E8CC63
:10498000892F8095881F8827881F80934704E0CC53
:10499000892F8095881F8827881F80934F04D8CC43
:1049A000892F8095881F8827881F80935004D0CC3A
:1049B000892F8095881F8827881F80934804C8CC3A
:1049C000892F8095881F8827881F80934004C0CC3A
:1049D000892F8095881F8827881F80933804B8CC3A
:1049E000892F8095881F8827881F80933004B0CC3A
:1049F000892F8095881F8827881F80932F04A8CC33
:104A0000892F8095881F8827881F80933704A0CC22
:104A1000892F8095881F8827881F80933F0498CC12
:104A2000892F8095881F8827881F8093470490CC02
:104A3000892F8095881F8827881F80934F0488CCF2
:104A4000892F8095881F8827881F8093500480CCE9
:104A5000892F8095881F8827881F8093480478CCE9
:104A6000892F8095881F8827881F8093400470CCE9
:104A7000892F8095881F8827881F8093380468CCE9
:104A8000292F2095221F2227221F20933B0430919B
:104A9000820285E090E0311102C08CE190E08A5DF5
:104AA0009B4FFC012683662321F010923104109263
:104AB0004804309383024CCC292F2095221F2227B3
:104AC000221F20933B04309182028AE190E0311151
:104AD00002C08FE190E08A5D9B4FFC012683662334
:104AE00021F01092460410924B043093830230CC94
:104AF000292F2095221F2227221F20933B0430912B
:104B0000820282E290E0311102C087E190E08A5D8A
:104B10009B4FFC012683662321F010924E041092D5
:104B200043043093830214CC292F2095221F22277F
:104B3000221F20933B043091820288E090E03111E3
:104B400002C08DE090E08A5D9B4FFC0126836623C6
:104B500021F0109234041092390430938302F8CB80
:104B60002091740421110BC06111F2CB20918202BB
:104B700069E1211101C065E20E94ED11E9CB292F05
:104B80002095221F2227221F20933B04809182021E
:104B9000882371F089E190E08A5D9B4FFC012683B8
:104BA000662309F4D5CB1092450410925104D0CB62
:104BB00085E290E0F1CF2091740421110BC06111C6
:104BC000C7CB2091820261E2211101C06DE10E94F8
:104BD000ED11BECB292F2095221F2227221F2093C3
:104BE0003B0480918202882371F081E290E08A5D2B
:104BF0009B4FFC012683662309F4AACB10924D0437
:104C000010924904A5CB8DE190E0F1CF292F20959A
:104C1000221F2227221F20933B043091820288E129
:104C200090E0311102C080E290E08A5D9B4FFC0170
:104C30002683662321F01092440410924C04309392
:104C4000830286CB2091740421110BC0611180CBAB
:104C50002091820269E0211101C061E10E94ED1101
:104C600077CB292F2095221F2227221F20933B0438
:104C700080918202882371F089E090E08A5D9B4FE9
:104C8000FC012683662309F463CB1092350410924D
:104C90003D045ECB81E190E0F1CF292F2095221FCA
:104CA0002227221F20933B043091820286E190E06C
:104CB000311102C08EE090E08A5D9B4FFC0126839B
:104CC000662321F01092420410923A04309383023A
:104CD0003FCB292F2095221F2227221F20933B0400
:104CE0003091820284E090E0311102C08EE190E0C8
:104CF0008A5D9B4FFC012683662321F010923004CD
:104D000010924A043093830223CBC0918202CC23B9
:104D100009F4FBC2611103C061E00E94ED11C09370
:104D2000830216CB892F8095881F8827881F809340
:104D30003B04809353040CCB892F8095881F8827D0
:104D4000881F80933B0480934A0402CB892F80956F
:104D5000881F8827881F80933B0480934204F8CAE9
:104D600020917A0421110CC020917B04211108C0EC
:104D700020917C042223E9F020917D042223C9F0B4
:104D80006111E6CA6091870481E068276093870417
:104D90008BE090E00E9461208091870480936D04F5
:104DA000E0912904F0912A0470E060E083E0099525
:104DB000CFCA892F8095881F8827881F80932C044D
:104DC000809341048DE190E00E940F05C1CA81E00B
:104DD00080933B0480932C040E94FD0364E670E002
:104DE00080E090E00E94340F10923B0410922C045B
:104DF000AFCA209182022111ABCA892F8095881FEA
:104E00008827881F90917404992329F08093430484
:104E1000809354049DCA80932C0480933F0483E1C3
:104E200090E00E940F0594CA20918202211190CA3D
:104E3000892F8095881F8827881F90917404992353
:104E400029F080934B048093540482CA80932C04ED
:104E50008093470484E190E00E940F0579CA209175
:104E60008202211175CA892F8095881F8827881F83
:104E700080934204809354046BCA209182022111D2
:104E800067CA892F8095881F8827881F80933A04D6
:104E9000809354045DCA20917A0421110CC02091A2
:104EA0007B04211108C020917C04222391F02091E1
:104EB0007D04222371F061114BCA80E00E949A2088
:104EC000E0912904F0912A0470E060E084E0099503
:104ED0003FCA892F8095881F8827881F80932D04BB
:104EE0008093540435CA20917A0421110CC020917A
:104EF0007B04211108C020917C04222391F0209191
:104F00007D04222371F0611123CA81E00E949A205E
:104F1000E0912904F0912A0461E070E084E00995B1
:104F200017CA892F8095881F8827881F809353046C
:104F3000809354040DCA20917A0421110CC0209151
:104F40007B04211108C020917C04222391F0209140
:104F50007D04222371F06111FBC982E00E949A2036
:104F6000E0912904F0912A0462E070E084E0099560
:104F7000EFC9892F8095881F8827881F8093440454
:104F800080935404E5C920917A0421110CC020912A
:104F90007B04211108C020917C04222391F02091F0
:104FA0007D04222371F06111D3C983E00E949A200D
:104FB000E0912904F0912A0463E070E084E009950F
:104FC000C7C9892F8095881F8827881F80933D0433
:104FD00080935404BDC920917A0421110CC0209102
:104FE0007B04211108C020917C042223E9F0209148
:104FF0007D042223C9F06111ABC96091820481E074
:1050000068276093820486E090E00E94612080918E
:10501000820480936704E0912904F0912A0470E0EF
:1050200060E085E0099594C9892F8095881F8827BD
:10503000881F80933E04809354048AC920917A0487
:1050400021110CC020917B04211108C020917C0407
:105050002223E9F020917D042223C9F0611178C94F
:105060006091830481E068276093830487E090E087
:105070000E9461208091830480936904E091290457
:10508000F0912A0470E060E086E0099561C9892FFB
:105090008095881F8827881F809345048093540437
:1050A00057C920917A0421110CC020917B04211151
:1050B00008C020917C042223C1F020917D0422238A
:1050C000A1F0611145C980918404909186048F5F9D
:1050D000911180E00E947620E0912904F0912A0449
:1050E00070E060E087E0099533C9892F8095881FBB
:1050F0008827881F80934D048093540429C92091E8
:105100007A04211108C020917C042223E9F0209127
:105110007D042223C9F061111BC96091850481E0DF
:1051200068276093850489E090E00E946120809167
:10513000850480936B04E0912904F0912A0470E0C7
:1051400060E088E0099504C9892F8095881F882729
:10515000881F8093520480935404FAC820917A04E3
:1051600021110CC020917B04211108C020917C04E6
:105170002223E9F020917D042223C9F06111E8C8BF
:1051800060917E0481E0682760937E0482E090E075
:105190000E94612080917E0480935A04E09129044A
:1051A000F0912A0470E060E089E00995D1C8892F68
:1051B0008095881F8827881F80934104809354041A
:1051C000C7C820917A0421110CC020917B042111C1
:1051D00008C020917C042223E9F020917D04222341
:1051E000C9F06111B5C860917F0481E068276093C0
:1051F0007F0483E090E00E94612080917F0480938F
:105200005B04E0912904F0912A0470E060E08AE0F8
:1052100009959EC8892F8095881F8827881F8093AD
:105220004A048093540494C820917A0421110CC03C
:1052300020917B04211108C020917C042223F9F0E5
:1052400020917D042223D9F0611182C880917504D8
:105250008F5F8093750490917604981710F41092E4
:105260007504809175040E94BD1C6091750470E006
:10527000E0912904F0912A048EE0099569C8892FEC
:105280008095881F8827881F80932E0480933B0475
:105290005FC820917A0421110CC020917B04211158
:1052A00008C020917C04222349F020917D04222310
:1052B00029F061114DC80E94860F4AC8892F809538
:1052C000881F8827881F8093360480933B0440C83A
:1052D0008091820281113CC861113AC860917404C6
:1052E00081E068276093740481E090E00E9461206F
:1052F0008091740480936804E0912904F0912A0459
:1053000070E060E08CE0099523C82091E50421114C
:1053100006CD892F8095881F8827881F80933B049E
:1053200080933C04FCCC3397EA36F10510F00C94E2
:10533000B421E356F64D0C94963EE7266829A62143
:105340001C221C2231223122462262229B229B22D5
:10535000A322B421B4212F273D27F9261427E022C8
:10536000EF22C222D122AB227E22FE225B23B02674
:105370006B237523F024F824002508251025182513
:10538000202528253025382578256B23A6269C2620
:1053900092260626A024A824B024B824C024C82419
:1053A000D024D824E024E82440255C2569267825EB
:1053B0000626B42185267D2385238D2395239D23D1
:1053C000A523AD23B523BD23C523F623FE23062441
:1053D0000E2416241E2426242E2436243E2446245D
:1053E0004E24802488249024982494252226B025B5
:1053F000DB254D26B4214B2773279B27C327EB279B
:105400001E2851287F28AE28E128142949291F93F6
:10541000CF93DF93D82FC62F9091E6048091E704B5
:105420009CBD8DBD60E087E00E94490BDEBD0000A1
:105430000DB407FEFDCFDEB5CEBD00000DB407FEF6
:10544000FDCFCEB561E087E00E94490BDD2309F472
:10545000B3C0DD3F09F059C08091330181111CC0F8
:1054600081E0809333018C2F90E016E0959587952D
:105470001A95E1F71C2F1F73809376042091750411
:10548000821710F40E94BD1C0E94FD030E947D1B28
:105490000E94660F1093F504E0E1ED0FE83008F08C
:1054A00041C0F0E0E851FB4FC687D058D03408F037
:1054B00083C080911C048295880F880F807CD80F50
:1054C00080911D04D81305C080911E04C81709F4EB
:1054D00073C0D0931D04C0931E048D2F90E0DE3066
:1054E00008F04DC18958954DFC010C94963EB02AA8
:1054F000C92AE02AF92A0D2B292B3D2B562B6F2B7D
:10550000882BA62BAF2BDC2ADC2ADC3F09F0C4CF8A
:1055100080911F048111C0CF81E080931F040E94FD
:105520007D1BBACFDE30A1F48C2F817080934201B5
:10553000C1FB882780F980933C01C2FB882780F952
:1055400080934301C3FB882780F980933D01ADCF51
:10555000DB3F09F0AACF8C2F837080931C04A5CF6A
:1055600080912004882369F08C2F90E0B4E0959519
:105570008795BA95E1F7982F990F990F891B880F96
:10558000C80FC09317048C2FDF91CF911F910C94FB
:105590002A1A80912004882369F08C2F90E0A4E0DF
:1055A00095958795AA95E1F7982F990F990F891BE3
:1055B000880FC80FC0931804DF91CF911F910895F1
:1055C00080912004882369F08C2F90E0F4E0959579
:1055D0008795FA95E1F7982F990F990F891B880FF6
:1055E000C80FC09316048C2FDF91CF911F910C949C
:1055F000E10C80912004882369F08C2F90E0E4E096
:1056000095958795EA95E1F7982F990F990F891B42
:10561000880FC80FC0931904CFCF8091200488232E
:1056200069F08C2F90E074E0959587957A95E1F775
:10563000982F990F990F891B880FC80FC0931504D5
:105640000E940B1A80911504DF91CF911F910C9449
:10565000D01980912004882369F08C2F90E064E0B9
:10566000959587956A95E1F7982F990F990F891B62
:10567000880FC80FC0931A049FCF809120048823FD
:1056800069F08C2F90E054E0959587955A95E1F755
:10569000982F990F990F891B880FC80FC0931B046F
:1056A0008C2FDF91CF911F910C94D00C809120040E
:1056B000882369F08C2F90E044E0959587954A9572
:1056C000E1F7982F990F990F891B880FC80FC09386
:1056D00014048C2FDF91CF911F910C94B70C809103
:1056E0002004882369F08C2F90E034E0959587950D
:1056F0003A95E1F7982F990F990F891B880FC80FDA
:10570000C09313048C2FDF91CF911F910C949E0CAA
:1057100080912004882369F08C2F90E024E09595F7
:1057200087952A95E1F7982F990F990F891B880F74
:10573000C80F8C2F90E08053984F90931204809361
:105740001104DF91CF911F910C947E0C6C2F6F7719
:105750008AE190E0DF91CF911F910C94183EC2FB3B
:10576000882780F991E0892780932004C1FB88274E
:1057700080F9809321046C2F8BE190E0EBCF6C2FAC
:105780004096E8CF1F920F920FB60F9211242F93DD
:105790003F934F935F936F937F938F939F93AF93B9
:1057A000BF93EF93FF938091B900887F803609F40F
:1057B0004AC0F0F5883209F4A5C018F5803109F423
:1057C00099C0B8F4882309F4F5C0883009F492C070
:1057D000FF91EF91BF91AF919F918F917F916F91C9
:1057E0005F914F913F912F910F900FBE0F901F909F
:1057F0001895883109F486C0803251F78093D5031B
:1058000014C0803409F49BC040F48033B9F388336A
:10581000F9F68093D50385ECAEC0803509F483C0DA
:10582000883509F494C0883499F60E949505D0CF44
:10583000883909F48AC038F5883729F050F4883659
:1058400011F0803729F683E08093D90310927F020C
:1058500055C0883809F479C0803919F0803809F0CA
:10586000B7CF80917F02803208F06FC0E0917F0255
:1058700081E08E0F80937F028091BB00F0E0E15ABF
:10588000FD4F80833BC0803B39F0D0F4803A09F46F
:1058900077C0883A09F09CCF84E08093D9031092B6
:1058A0005E0210925D02F0E0E0E0099580915D02F9
:1058B00081110FC081E080935D0210923D0209C00A
:1058C000803C09F4A8CF883C09F4A5CF883B09F0B7
:1058D0007FCFE0915E0281E08E0F80935E02F0E068
:1058E000E35CFD4F80818093BB0090915E028091CC
:1058F0005D0229C08091B2038093BB0085EC809348
:10590000BC0066CF9091D4038091D303981758F5CB
:10591000E091D40381E08E0F8093D403F0E0ED5446
:10592000FC4F8081E9CFE091D40381E08E0F80931A
:10593000D4038091BB00F0E0ED54FC4F8083909144
:10594000D4038091D3039817C8F285E8D8CFE091AB
:10595000D40381E08E0F8093D4038091BB00F0E0EC
:10596000ED54FC4F80838091D60381115ECF81E09E
:105970008093B10384EA8093BC001092D90328CFAE
:1059800085EC8093BC001092D90380917F02803215
:1059900030F4E0917F02F0E0E15AFD4F1082609117
:1059A0007F0270E08FE592E0F0E0E0E00995109270
:1059B0007F020ECF1092D50338CF1F920F920FB6F1
:1059C0000F9211242F933F934F935F936F937F9385
:1059D0008F939F93AF93BF93EF93FF93E091030156
:1059E000F09104010995FF91EF91BF91AF919F91C3
:1059F0008F917F916F915F914F913F912F910F9078
:105A00000FBE0F901F9018951F920F920FB60F9216
:105A100011242F933F934F935F936F937F938F93B3
:105A20009F93AF93BF93EF93FF93E0910101F091A8
:105A300002010995FF91EF91BF91AF919F918F91D5
:105A40007F916F915F914F913F912F910F900FBE7A
:105A50000F901F9018951F920F920FB60F9211245E
:105A60002F933F938F939F93AF93BF938091510157
:105A700090915201A0915301B09154013091500185
:105A800023E0230F2D3758F50196A11DB11D20935A
:105A900050018093510190935201A0935301B09310
:105AA00054018091550190915601A0915701B091F8
:105AB00058010196A11DB11D809355019093560187
:105AC000A0935701B0935801BF91AF919F918F91CF
:105AD0003F912F910F900FBE0F901F90189526E8C1
