:100000000C9474010C941A040C94F3030C949C014A
:100010000C949C010C949C010C949C010C949C01EC
:100020000C949C010C949C010C949C010C949C01DC
:100030000C949C010C949C010C949C010C949C01CC
:100040000C9488120C949C010C9467040C94410449
:100050000C949C010C949C010C949C010C949C01AC
:100060000C9449100C949C0139055D056B057E05C7
:100070008C05EA05F8050E062C063F0668066D0697
:1000800085068506450758076B077E079107B50764
:10009000D907EC07FF0712082A08320839083C087C
:1000A0005374617274696E67206D61696E206C6F44
:1000B0006F7000646F6E65005254432073656E6408
:1000C00020616C6C207265676973746572732E2E83
:1000D0002E00646F6E6500525443206973206E6F6A
:1000E000742072756E6E696E672E2053746172692A
:1000F0006E672069742E2E2E0052544320696E695B
:10010000742E2E2E004D6F75736520696E69742EE6
:100110002E2E004B6579626F61726420696E69747E
:100120002E2E2E0057616974696E6720666F7220EB
:100130004650474120696E69742072657175657318
:1001400074005A58204B6579626F617264202F20C9
:100150006D6F757365202F2072746320636F6E74EA
:10016000726F6C6C65722076312E30004D6F757336
:10017000652070726573656E743A20004D6F7573FB
:1001800065206E6F742070726573656E742E2054D6
:100190007279696E6720746F20696E6974206D6F63
:1001A0007573653A2000646F6E650042544E323AB2
:1001B0002052657365742E2E2E00646F6E650042AA
:1001C000544E313A2046756C6C2072657365742EFE
:1001D0002E2E002046323A0020463A0020523A00A5
:1001E000204C3A0020443A0020553A004A6F797377
:1001F0007469D1816B3A005363616E636F64653AD1
:100200002000646F6E650052544320696E6974204B
:10021000726571756573742E2E2E00556E6B6E6F40
:10022000776E005265762E43005265762E41207718
:10023000697468205444413135343341204441438A
:10024000005265762E41207769746820544441310C
:1002500035343320444143004650474120626F61AA
:100260007264207265766973696F6E2069733A20D3
:1002700000646F6E65004650474120696E697420C6
:10028000726571756573742E2E2E000000000024B7
:100290000027002A0000000000250028002B000095
:1002A00000000023002600290004040404040404C0
:1002B0000402020202020203030303030301020415
:1002C00008102040800102040810200102040810D8
:1002D00020000000080002010000030407000000E5
:1002E000000000000000912011241FBECFEFD8E0D5
:1002F000DEBFCDBF24E0A6E3B1E001C01D92A9346A
:10030000B207E1F711E0A0E0B1E0E0E9F2E402C0F9
:1003100005900D92A633B107D9F711E0C4E7D1E0FB
:1003200004C02197FE010E943B21C337D107C9F7C2
:100330000E94D2120C9446210C9400000895CF9292
:10034000DF92EF92FF920F931F93CF93DF936C0195
:100350007A018B01C0E0D0E0CE15DF0581F0D80135
:100360006D918D01D601ED91FC910190F081E02D10
:10037000C6010995892B11F02196EECF7E01C701A8
:10038000DF91CF911F910F91FF90EF90DF90CF9071
:100390000895089580E090E00895FC01538D448D08
:1003A000252F30E0842F90E0821B930B541710F020
:1003B000CF96089501970895FC01918D828D98172D
:1003C00061F0828DDF01A80FB11D5D968C91928D39
:1003D0009F5F9F73928F90E008958FEF9FEF089536
:1003E000FC01918D828D981731F0828DE80FF11DFF
:1003F000858D90E008958FEF9FEF0895FC01918D1A
:10040000228D892F90E0805C9F4F821B91098F7312
:100410009927089586E593E00E94FE0121E0892B4B
:1004200009F420E0822F0895FC01848DDF01A80FDC
:10043000B11DA35ABF4F2C91848D90E001968F730C
:100440009927848FA689B7892C93A089B1898C912B
:10045000837080648C93938D848D981306C002887A
:10046000F389E02D80818F7D80830895EF92FF9244
:100470000F931F93CF93DF93EC0181E0888F9B8DC7
:100480008C8D981305C0E889F989808185FD26C087
:10049000F62E0B8D10E00F5F1F4F0F731127E02E0C
:1004A0008C8DE8120CC00FB607FCFACFE889F989E9
:1004B000808185FFF5CFCE010E941402F1CF8B8D94
:1004C000FE01E80FF11DE35AFF4FF0829FB7F89449
:1004D0000B8FEA89FB89808180620AC09FB7F894FC
:1004E000EE89FF896083E889F9898081837080645F
:1004F00080839FBF81E090E0DF91CF911F910F91AA
:10050000FF90EF900895CF93DF93EC01888D8823BF
:10051000C9F0EA89FB89808185FD05C0A889B98970
:100520008C9186FD0FC00FB607FCF5CF808185FF4B
:10053000F2CFA889B9898C9185FFEDCFCE010E94B9
:100540001402E7CFDF91CF91089580E090E0892BEE
:1005500029F00E940A0281110C94000008958D3048
:1005600008F08CE808950E944121CF92DF92EF922B
:10057000FF920F931F93CF93809137010E947311C5
:100580008C01C1E0892B09F4C0E00E947C12C0906C
:10059000D702D090D802E090D902F090DA029B0105
:1005A000AC012C193D094E095F0969017A013BE054
:1005B000C316D104E104F10430F01092D602109277
:1005C000D5021092D4026093D7027093D802809320
:1005D000D9029093DA028091D6028F5F8093D6027F
:1005E0008A3050F4823068F4813009F06FC0109284
:1005F000D4021092D30270C08A30B1F08B30E9F08F
:1006000065C08091D302C80FC093D3028091D402F9
:1006100090E095958795012B11F420E001C020E82A
:10062000822B8093D40258C08091D30281708C13A6
:1006300001C08DEF8093D3024FC08091D3028D3FD4
:1006400018F01092D5023FC08091D502813061F040
:1006500018F08230B1F037C08091D40290E09093CE
:10066000CC028093CB0207C08091D40290E090939B
:10067000CE028093CD028091D5028F5F8093D50208
:1006800022C08091D40290E09093D0028093CF0258
:100690001092D50280913F028F5F803108F080E098
:1006A00090914002891779F048E0849FD00111248D
:1006B000A154BE4F98E0EBECF2E001900D929A95B8
:1006C000E1F780933F021092D60204C01092D60246
:1006D0001092D5021092D402CF911F910F91FF90EA
:1006E000EF90DF90CF900895CF92DF92EF92FF923C
:1006F0000F931F93CF93809136010E947311C82FDF
:100700000E947C120091C7021091C8022091C90278
:100710003091CA026B017C01C01AD10AE20AF30AC5
:10072000970186010A3111052105310510F010925B
:10073000C6026093C7027093C8028093C902909367
:10074000CA028091C6028F5F8093C6028A3048F445
:10075000823060F48130E9F51092C5021092C40233
:100760003AC08A30B1F08B30E9F033C08091C402D6
:100770008C0F8093C4028091C50290E09595879577
:10078000C11102C020E001C020E8822B8093C50285
:1007900022C08091C4028170C81301C08DEF809384
:1007A000C40219C08091C4028D3F98F480917B01EE
:1007B0008F5F803408F080E090917C01891749F0C8
:1007C000E82FF0E09091C502E55CFE4F90838093A6
:1007D0007B011092C602CF911F910F91FF90EF9075
:1007E000DF90CF9008951F920F920FB60F921124B1
:1007F0002F933F934F935F936F937F938F939F9329
:10080000AF93BF93EF93FF93E0910801F09109013B
:100810000995FF91EF91BF91AF919F918F917F913A
:100820006F915F914F913F912F910F900FBE0F905D
:100830001F9018951F920F920FB60F9211242F93AD
:100840003F934F935F936F937F938F939F93AF9358
:10085000BF93EF93FF93E0910601F0910701099593
:10086000FF91EF91BF91AF919F918F917F916F9188
:100870005F914F913F912F910F900FBE0F901F905E
:1008800018951F920F920FB60F9211242F933F933A
:100890004F935F936F937F938F939F93AF93BF9388
:1008A000EF93FF9386E593E00E941402FF91EF918E
:1008B000BF91AF919F918F917F916F915F914F9178
:1008C0003F912F910F900FBE0F901F9018951F9280
:1008D0000F920FB60F9211242F938F939F93EF9344
:1008E000FF93E0916603F09167038081E0916C03D0
:1008F000F0916D0382FD12C0908180916F038F5F34
:100900008F7320917003821751F0E0916F03F0E034
:10091000EA5AFC4F958F80936F0301C08081FF914D
:10092000EF919F918F912F910F900FBE0F901F907D
:1009300018950C94CF20EFE7F1E09F012F5731403D
:100940002817390714F41192F8CF0895CF93DF9345
:10095000D82FC62F9091F3038091F4039CBD8DBDD9
:1009600060E087E00E949C11DEBD00000DB407FE30
:10097000FDCFDEB5CEBD00000DB407FEFDCFCEB578
:1009800061E087E00E949C11DD2309F4BEC1DD3FD8
:1009900069F580913A018111B8C186E792E00E9421
:1009A000EC0D81E080933A010E9451080E942E07CD
:1009B0000E94D50881E792E00E94070E88E592E048
:1009C0000E94EC0DC13049F028F0C23061F483E29E
:1009D00092E005C081E492E002C089E292E0DF91FA
:1009E000CF910C94070E8BE192E0F9CFDC3F81F4BC
:1009F00080913801811189C187E092E00E94EC0D5D
:100A000081E0809338010E942E0782E092E0E7CFD8
:100A1000DE3099F48C2F817080934302C1FB8827CC
:100A200080F980934102C2FB882780F980934A02B3
:100A3000C3FB882780F980934202D058D03408F055
:100A400064C18091C002D81305C08091BF02C8174D
:100A500009F45BC1D093C002C093BF028D2F90E018
:100A60008E30910508F049C1FC01EC5CFF4F0C94FD
:100A70003B2180913901882339F08C2F82958F702A
:100A800096E0899FC0191124C093440288E60E9411
:100A9000B80C80E090E00E94B30C0E94D90B0E9439
:100AA000C20C8AE493E00E949E0E8078C82B88E6F0
:100AB0000E94B80C80E090E0C3C080913901882387
:100AC00039F08C2F82958F7096E0899FC019112480
:100AD000C093C3021AC180913901882339F08C2F49
:100AE00082958F7096E0899FC0191124C0934502AA
:100AF00088E60E94B80C81E090E0A2C080913901A4
:100B0000882339F08C2F82958F7096E0899FC019C9
:100B10001124C093C202F9C080913901882339F0B1
:100B20008C2F82958F7096E0899FC0191124C093F5
:100B3000460288E60E94B80C82E090E00E94B30C66
:100B40000E94D90B0E94C20C8AE493E00E949E0E80
:100B5000C82F88E60E94B80C82E090E00E94B30C97
:100B60006C2F6F7B8AE493E00E94E70E0E94D90B02
:100B7000C09146020E94830DD82F88E60E94B80CCF
:100B800082E090E00E94B30C8C2FDD2309F45BC05F
:100B9000CD3078F06CE00E942F21292F892F6AE058
:100BA0000E942F21682F660F680F660F620F606624
:100BB00009C06AE00E942F21682F660F680F660F38
:100BC0006C0F60648AE493E00E94E70EDF91CF919E
:100BD0000C94D90B80913901882339F08C2F8295A0
:100BE0008F7096E0899FC0191124C093C1028DC0F7
:100BF00080913901882339F08C2F82958F7096E08F
:100C0000899FC0191124C093020188E60E94B80C84
:100C100083E090E00E94B30C6C2FD4CF8091390117
:100C2000882339F08C2F82958F7096E0899FC019A8
:100C30001124C093030188E60E94B80C84E090E080
:100C40000E94B30C8C2F6AE00E942F21682F660F40
:100C5000680F660F6C0FB6CF80913901882339F089
:100C60008C2F82958F7096E0899FC0191124C093B4
:100C7000470288E60E94B80C85E090E0E1CF8091C1
:100C80003901882339F08C2F82958F7096E0899FE7
:100C9000C0191124D0E0C053D84FD0934902C0935B
:100CA000480288E60E94B80C86E090E00E94B30CEF
:100CB000CE0164E670E00E94E520282F6AE00E94E1
:100CC0002F21682F660F860F880F682F620F7ACF4B
:100CD0006C2F6F778AE190E014C0C2FB992790F9DE
:100CE00081E0892780933901C1FB882780F98093AF
:100CF00000016C2F8BE190E004C08D2F90E06C2FF1
:100D00004096DF91CF910C94D720DF91CF91089539
:100D10008091390120914402882351F0822F6AE0AA
:100D20000E942F21682F660F680F660F620F01C0A7
:100D3000622F80E40E94A60480913901209145022F
:100D4000882351F0822F6AE00E942F21682F660FBE
:100D5000680F660F620F01C0622F82E40E94A60432
:100D60009091000180913901992331F02091460240
:100D7000811109C0822F15C0882379F08091460225
:100D80000E94AF02282F822F6AE00E942F21982F05
:100D9000990F890F880F820F04C0809146020E942C
:100DA000AF02682F84E40E94A6048091390120914B
:100DB0000201882351F0822F6AE00E942F21682FC0
:100DC000660F680F660F620F01C0622F86E40E94F3
:100DD000A6048091390120910301882351F0822FCC
:100DE0006AE00E942F21682F660F680F660F620F5E
:100DF00001C0622F87E40E94A604809139012091EE
:100E00004702882351F0822F6AE00E942F21682F29
:100E1000660F680F660F620F01C0622F88E40E94A0
:100E2000A60420913901809148029091490264E61C
:100E300070E00E94F920222351F0282F6AE00E94DE
:100E40002F21682F660F680F660F620F01C0682F91
:100E500089E40C94A604805C0C94A604FF920F9382
:100E60001F93CF93DF93C0E1D0E004E610E0FC2EA7
:100E700080EFF80E8F2D90E08E30910508F0FFC0C6
:100E8000FC01EE5BFF4F0C943B21809139012091D6
:100E90004402882351F0822F6AE00E942F21682F9C
:100EA000660F680F660F620F01C0622F80E0ECC012
:100EB000809139012091C302882351F0822F6AE08A
:100EC0000E942F21682F660F680F660F620F01C006
:100ED000622F81E0D9C08091390120914502882399
:100EE00051F0822F6AE00E942F21682F660F680F51
:100EF000660F620F01C0622F82E0C6C08091390187
:100F00002091C202882351F0822F6AE00E942F2193
:100F1000682F660F680F660F620F01C0622F83E0B3
:100F2000B3C09091000180913901992331F0209153
:100F30004602811109C0822F15C0882379F0809163
:100F400046020E94AF02282F822F6AE00E942F21C2
:100F5000982F990F890F880F820F04C08091460245
:100F60000E94AF02682F84E08FC0909100018091B1
:100F70003901992331F02091C102811109C0822FDA
:100F800015C0882379F08091C1020E94AF02282FFA
:100F9000822F6AE00E942F21982F990F890F880FC6
:100FA000820F04C08091C1020E94AF02682F85E0C9
:100FB0006BC08091390120910201882351F0822F6A
:100FC0006AE00E942F21682F660F680F660F620F7C
:100FD00001C0622F86E058C0809139012091030141
:100FE000882351F0822F6AE00E942F21682F660F1C
:100FF000680F660F620F01C0622F87E045C08091C5
:10100000390120914702882351F0822F6AE00E9423
:101010002F21682F660F680F660F620F01C0622FC5
:1010200088E032C0209139018091480290914902B4
:10103000B8010E94F920222351F0282F6AE00E9473
:101040002F21682F660F680F660F620F01C0682F8F
:1010500089E01AC08AE190E00E949904682F6F77B6
:101060008AE012C08BE190E00E949904682F8BE027
:101070000BC060E08CE008C060E88DE005C0CE01E8
:101080000E949904682F8F2D0E942B072196C0354E
:10109000D10509F0ECCEDF91CF911F910F91FF9018
:1010A0000895CF92DF92EF92FF920F931F93CF9309
:1010B000DF93D0E0C0E0C12CD12C7601C39480E056
:1010C00090E060E0ED2FE80FF0E0E158FE4F208166
:1010D000222361F097018601082E04C0000F111F22
:1010E000221F331F0A94D2F7602B0CC09701860190
:1010F000082E04C0000F111F221F331F0A94D2F7BD
:1011000000956023019688309105E1F6CF5F8C2F22
:101110000E94A604D85FC83091F6DF91CF911F914D
:101120000F91FF90EF90DF90CF900895CF93DF93D2
:1011300089E290E00E949B04CFE7D1E081E08BA799
:101140000E94510864E670E080E090E00E94421244
:1011500089E290E00E949B041BA6DF91CF910C9442
:1011600051081F93CF93DF9389E290E00E949B0484
:10117000CFE7D1E011E019A70E94510819870E941A
:10118000510864EF71E080E090E00E94421219A6DD
:101190000E94510864EF71E080E090E00E944212EA
:1011A0001986DF91CF911F910895CF93DF9389E244
:1011B00090E00E949B04CFE7D1E081E089A70E94E4
:1011C000510864E670E080E090E00E94421289E2FB
:1011D00090E00E949B0419A6DF91CF910C945108D6
:1011E000FF920F931F93CF93DF93C82F89E290E074
:1011F0000E949B040E94510864E170E080E090E04E
:101200000E9442120FE711E0FF24F394F801F082EC
:101210000E94510864E170E080E090E00E94421278
:10122000F801F7860E94510864E170E080E090E0E8
:101230000E944212F80117860E94510864E170E092
:1012400080E090E00E944212D0E0C158DE4FF88268
:101250000E94510864E170E080E090E00E94421238
:10126000F801108218820E94510864E170E080E069
:1012700090E0DF91CF911F910F91FF900C9442125B
:10128000CF92DF92EF92FF920F931F93CF93DF9352
:10129000CDB7DEB7A8970FB6F894DEBF0FBECDBFAF
:1012A00020917D0130917E01611126C01216130636
:1012B000ACF4E7E9F2E040E050E0A191B1918A1787
:1012C0009B0709F461E04F5F5F4F24173507A9F7CB
:1012D00061114EC0243131050CF04AC0F901EE0F06
:1012E000FF1FE956FD4F918380832F5F3F4F30935F
:1012F0007E0120937D013CC0FE01319648E2DF0172
:101300001D924A95E9F7121613061CF040E050E0D2
:101310002BC007E912E0780140E050E060E070E0A7
:10132000D701CD90DD907D018C159D0549F0DA0146
:10133000AA0FBB1FAE0FBF1FCD92DC924F5F5F4F56
:101340006F5F7F4F2617370759F741155105F1F2A7
:1013500080E090E021913191D8012D933D938D0152
:10136000019684179507B4F350937E0140937D0155
:10137000A8960FB6F894DEBF0FBECDBFDF91CF9118
:101380001F910F91FF90EF90DF90CF900895FF9203
:101390000F931F93CF93DF93EC01F62E08811981F1
:1013A000C8010E94CF20F81621F06F2DC8010E94BD
:1013B000D720CE01DF91CF911F910F91FF9008951B
:1013C000CF93DF9300D0CDB7DEB7611102C064E1E7
:1013D00001C06AE09A838983CE0101960E94C70901
:1013E0000F900F90DF91CF910895EF92FF921F938E
:1013F000CF93DF9300D0CDB7DEB77C01162F0E94CC
:1014000099048A3011F0843129F461E08A3071F056
:1014100060E00CC0111102C064E101C06AE0FA8210
:10142000E982CE0101960E94C709612F862F0F9095
:101430000F90DF91CF911F91FF90EF900895CF9380
:10144000C82F60E00E94EF1161E08C2FCF910C94C7
:101450009C11CF93C82F61E00E94EF1160E08C2FA8
:10146000CF910C949C11CF92DF92EF92FF92CF9389
:10147000DF93EC010E947C126B017C010E947C12C4
:10148000DC01CB018C199D09AE09BF09883E934050
:10149000A105B10548F48091F5030E9473118C17E2
:1014A0009D0761F781E001C080E0DF91CF91FF905F
:1014B000EF90DF90CF9008952091F7033091F803DB
:1014C000019721F4C9010E941F0A03C0C9010E94AB
:1014D000290A81E090E00E94330A80E090E00C94B9
:1014E000330ACF93DF9380E090E00E94330A80912B
:1014F000F7030E947311EC0181E090E00E94330A2F
:10150000CE01DF91CF910895CF92DF92EF92FF92BB
:101510000F931F93CF938091F5039091F6030E9450
:101520001F0A8091F7039091F8030E941F0A83EC31
:1015300090E00197F1F780E090E00E94330A8FE09D
:1015400090E00197F1F781E090E00E94330AC0E05B
:1015500000E010E0C12CD12C7601C3940E94710AE6
:10156000892B61F0D701C601002E04C0880F991F96
:10157000AA1FBB1F0A94D2F7C82B0CC0D701C60103
:10158000002E04C0880F991FAA1FBB1F0A94D2F710
:101590008095C8230F5F1F4F08301105F9F60E9490
:1015A000710A0E94710A8091F5039091F6030E94DE
:1015B000290A8C2FCF911F910F91FF90EF90DF9010
:1015C000CF900895BF92CF92DF92EF92FF920F9348
:1015D0001F93CF93DF93C82E8091F7039091F80368
:1015E0000E941F0A8091F5039091F6030E941F0A42
:1015F000CBEAD4E0CE010197F1F78091F503909109
:10160000F6030E94290A2197F1F78091F703909140
:10161000F8030E94290A83E290E00197F1F7809194
:10162000F5039091F6030E941F0A80E090E00E946B
:10163000330AB82E882309F43FC0EE24E394F12C3A
:10164000C0E0D0E00C2C000CDD0886010C2E02C09E
:10165000159507950A94E2F701701127C8010E94B9
:101660005C0AE026F1262196C830D10571F7C70142
:101670000E945C0A8091F7039091F8030E941F0A70
:1016800083EC90E00197F1F780E090E00E94330A4C
:101690008091F5030E947311892BD1F38091F70398
:1016A0000E947311892BA1F38091F5039091F603A9
:1016B0000E94290A0E94840A8B2DDF91CF911F91ED
:1016C0000F91FF90EF90DF90CF90BF900895823000
:1016D000C8F4E82FF0E0EE0FFF1FEA5FFE4F7183C2
:1016E0006083813041F0809169008C7F82608093BB
:1016F0006900E89A089580916900837F88608093EB
:101700006900E99A08958091F5039091F6030E948B
:101710001F0A8091F7039091F8030E941F0A8FEF30
:1017200090E00E94E20A882321F00E94840A0E942D
:10173000840A88EE90E00E94E20A83E090E00E9432
:10174000E20A86EE90E00E94E20A83EF90E00E94B7
:10175000E20A88E290E00E94E20A8AEE90E00E94AB
:10176000E20A84EF90E00E94E20A8BE891E00197A0
:10177000F1F78091F5039091F6038230910521F005
:10178000039721F08FEF03C080E001C081E065EB9B
:1017900072E00E94670B8091F5039091F6030E941E
:1017A0001F0A8091F7039091F8030E941F0A81E0BD
:1017B000089520914903213208F0C7C08091FC03AD
:1017C0001092260310922503909124039923B1F0DF
:1017D0006091250370912603409104015091050109
:1017E0006417750758F440912503509126034F5F05
:1017F0005F4F5093260340932503E6CF6091250366
:1018000070912603409104015091050164177507FA
:1018100008F07EC092E09093240391E0909323031C
:101820009FEF909322031092210320932003A9E2BB
:10183000B3E0E0E0F3E090E0291721F03D9131932F
:101840009F5FFACF1092FF029091FF02880F892BC1
:101850008093FF028091FE02813079F51092FE02A2
:1018600010922603109225038091FF028093BB0003
:1018700080912503909126030196909326038093EF
:1018800025038091BC0083FF0BC02091250330917C
:10189000260380910401909105012817390720F350
:1018A0002091250330912603809104019091050138
:1018B0002817390768F585EC01C085EE8093BC00D8
:1018C0001092260310922503809124038230A9F4FC
:1018D0002091250330912603809104019091050108
:1018E0002817390750F4809125039091260301961B
:1018F0009093260380932503E7CF20912503309111
:10190000260380910401909105012817390778F08A
:101910000E9426100E94CB118091FA039091FB0344
:1019200001969093FB038093FA0385E015C08091A4
:1019300022038F3F61F080912203803251F0809129
:101940002203803341F084E007C081E005C080E0DD
:1019500003C082E001C083E0109228031092490383
:10196000109227030895682F8AE493E00C94E70E01
:1019700091E0909327038093FC0310922803109228
:1019800049030895109226031092250380912403A1
:101990008823A9F02091250330912603809104012A
:1019A000909105012817390750F4809125039091F3
:1019B000260301969093260380932503E7CF209179
:1019C0002503309126038091040190910501281789
:1019D000390708F071C081E08093240380932303CA
:1019E0009FEF909322031092210310922003809383
:1019F000FF028091FF02806D8093FF028091FE02C2
:101A0000813079F51092FE02109226031092250380
:101A10008091FF028093BB00809125039091260363
:101A2000019690932603809325038091BC0083FF49
:101A30000BC02091250330912603809104019091E1
:101A400005012817390720F320912503309126033B
:101A500080910401909105012817390768F585ECFC
:101A600001C085EE8093BC001092260310922503DE
:101A7000809124038130A9F420912503309126031D
:101A800080910401909105012817390750F4809145
:101A900025039091260301969093260380932503B6
:101AA000E7CF209125033091260380910401909186
:101AB00005012817390778F00E9426100E94CB11E3
:101AC0008091FA039091FB0301969093FB0380931E
:101AD000FA0380E013C080912103811103C090912B
:101AE000210301C091E0A0E0B3E0EEEDF2E080E080
:101AF000891721F02D9121938F5FFACF1092DD028B
:101B00008093DC02089588E60E94B80C82E090E0A1
:101B10000E94B30C0E94D90B0E94C20C8AE493E08D
:101B20000E949E0E26E0969587952A95E1F7817092
:101B30000895009769F0FC0101900020E9F73197C2
:101B4000AF01481B590BBC0186E593E00C949F0143
:101B500080E090E008958F929F92AF92BF920F9392
:101B60001F93CF93DF93CDB7DEB7A1970FB6F8944D
:101B7000DEBF0FBECDBF19A2423008F44AE08E018D
:101B80000F5D1F4F842E912CA12CB12CA501940127
:101B90000E940D21E62FB901CA0101501109EA3056
:101BA00014F4E05D01C0E95CD801EC93232B242BF5
:101BB000252B61F7C8010E94990DA1960FB6F894E4
:101BC000DEBF0FBECDBFDF91CF911F910F91BF90B0
:101BD000AF909F908F9008950F931F93CF93DF93B3
:101BE0008C01C0E0D0E0F801EC0FFD1F649166238A
:101BF00041F086E593E00E943602892B11F0219690
:101C0000F2CFCE01DF91CF911F910F910895CF9325
:101C1000DF930E94EC0DEC0183E391E00E94990DAB
:101C20008C0F9D1FDF91CF910895CF92DF92EF929D
:101C3000FF92CF93DF936115710559F4682F86E504
:101C400093E0DF91CF91FF90EF90DF90CF900C94D5
:101C500036026C01990FEE08FF086A307105E9F44D
:101C6000F7FE19C06DE286E593E00E943602EC01B2
:101C700066277727CB016C197D098E099F094AE0F9
:101C80000E94AB0D8C0F9D1FDF91CF91FF90EF90C5
:101C9000DF90CF9008954AE001C0462FC701B601FA
:101CA000DF91CF91FF90EF90DF90CF900C94AB0D30
:101CB000CF93DF930E94150EEC0183E391E00E9425
:101CC000990D8C0F9D1FDF91CF91089540912504B0
:101CD000262F30E0240F311D21323105DCF4209114
:101CE00024032430C9F4FC0180E090E0861758F406
:101CF000309125042191DC01AB5FBB4FA30FB11DD7
:101D00002C930196F3CF80912504680F60932504EE
:101D100080E0089581E0089582E008950895E091BB
:101D2000DD028091DC02E81730F4F0E0E252FD4F72
:101D3000808190E008958FEF9FEF08959091DD02EC
:101D40008091DC02981750F4E92FF0E0E252FD4F49
:101D5000208130E09F5F9093DD0202C02FEF3FEFC4
:101D6000C90108958091DC0290E02091DD02821B80
:101D700091090895CF92DF92EF92FF920F931F93F4
:101D8000CF93DF937C01CB018A012091270322238B
:101D900089F0EB016B01C40ED51ECC15DD0569F091
:101DA0006991D701ED91FC910190F081E02DC7017F
:101DB0000995F3CF642F0E94660EC801DF91CF9181
:101DC0001F910F91FF90EF90DF90CF900895CF93E8
:101DD000DF931F92CDB7DEB76983209127032223BB
:101DE000D1F020914903203240F021E030E0FC01A5
:101DF0003383228380E090E015C080912803E82F90
:101E0000F0E0E75DFC4F998190838F5F809328031A
:101E10008093490305C061E0CE0101960E94660EE1
:101E200081E090E00F90DF91CF910895833081F0B1
:101E300028F4813099F08230A1F008958730A9F01C
:101E40008830B9F08430D1F4809180008F7D03C058
:101E5000809180008F7780938000089584B58F777C
:101E600002C084B58F7D84BD08958091B0008F77C6
:101E700003C08091B0008F7D8093B00008953FB77C
:101E8000F8948091010490910204A0910304B09110
:101E9000040426B5A89B05C02F3F19F00196A11D8B
:101EA000B11D3FBFBA2FA92F982F8827820F911DF0
:101EB000A11DB11DBC01CD0142E0660F771F881F37
:101EC000991F4A95D1F7089588E60E94B80C80E0E2
:101ED00090E00E94B30C0E94D90B0E94C20C8AE4CD
:101EE00093E00E949E0E8F77982F92959F7026E028
:101EF000929F80191124089588E60E94B80C81E011
:101F000090E00E94B30C0E94D90B0E94C20C8AE49C
:101F100093E00E949E0E9C01332794E0359527950F
:101F20009A95E1F746E0249F801911240895CF93F4
:101F30000E94830DC82F88E60E94B80C82E090E0D2
:101F40000E94B30C0E94D90B0E94C20C8AE493E059
:101F50000E949E0EC1110CC09C01332794E0359560
:101F600027959A95E1F746E0249F8019112408C02F
:101F70008F79982F92959F7026E0929F8019112457
:101F8000CF91089588E60E94B80C83E090E00E940B
:101F9000B30C0E94D90B0E94C20C8AE493E00E9409
:101FA0009E0E089588E60E94B80C84E090E00E949E
:101FB000B30C0E94D90B0E94C20C8AE493E00E94E9
:101FC0009E0E9C01332794E0359527959A95E1F76D
:101FD00046E0249F80191124089588E60E94B80CD9
:101FE00085E090E00E94B30C0E94D90B0E94C20CC5
:101FF0008AE493E00E949E0E9C01332794E035957D
:1020000027959A95E1F746E0249F801911240895B9
:1020100088E60E94B80C86E090E00E94B30C0E9413
:10202000D90B0E94C20C8AE493E00E949E0E9C0190
:10203000332794E0359527959A95E1F746E0249F5C
:102040008019112490E08053984F089585ED809376
:10205000BC0010922603109225038091BC0084FFDF
:1020600015C02091250330912603809104019091A1
:1020700005012817390750F4809125039091260314
:1020800001969093260380932503E7CF10922403B3
:1020900008951F920F920FB60F9211242F933F9322
:1020A0004F935F936F937F938F939F93AF93BF9360
:1020B000EF93FF938091B900887F803609F49CC02C
:1020C00068F5883209F45BC090F4803109F454C09B
:1020D00038F4882309F4F2C0883009F44DC0F2C006
:1020E000883109F44CC0803209F45DC0EBC0803403
:1020F00009F468C048F4803309F455C0883309F006
:10210000E1C080932203D4C0803509F44FC08835E4
:1021100009F45DC0883409F0D5C0D2C0883909F40B
:10212000C3C0A8F4883709F467C038F4883609F4C6
:1021300063C0803709F460C0C5C0883809F4B4C0F2
:10214000803909F45FC0803809F0BCC05BC0803BB7
:1021500009F484C038F4803A09F466C0883A09F476
:102160007DC0B0C0803C09F4A3C0883C09F4A0C085
:10217000883B09F486C0A6C08091FF0210C09091F0
:10218000210380912003981770F5E091210381E0ED
:102190008E0F80932103F0E0E050FD4F808180930B
:1021A000BB0085EC82C0809322038AC0E0912103AA
:1021B00081E08E0F809321038091BB00F0E0E0501E
:1021C000FD4F808390912103809120036AC0E091AC
:1021D000210381E08E0F809321038091BB00F0E00A
:1021E000E050FD4F808380912303811169C081E01D
:1021F0008093FE0284EA5DC083E080932403109202
:102200004704CFCF80914704803208F04DC0E09161
:10221000470481E08E0F809347048091BB00F0E07B
:10222000E95DFB4F8083BDCF85EC8093BC001092AD
:10223000240380914704803230F4E0914704F0E0B9
:10224000E95DFB4F10826091470470E087E294E003
:10225000E0E0F0E009951092470434C084E08093F8
:1022600024031092260410922504E0E0F0E0099582
:1022700080912504811105C081E08093250410928E
:102280000504E091260481E08E0F80932604F0E09F
:10229000EB5FFB4F80818093BB009091260480917F
:1022A0002504981708F47DCF85E88093BC000AC008
:1022B00085EC8093BC001092240304C0109222038A
:1022C0000E942610FF91EF91BF91AF919F918F9146
:1022D0007F916F915F914F913F912F910F900FBE22
:1022E0000F901F901895CF93DF93282F30E0F901BE
:1022F000EF52FD4F8491F901E354FD4FD491F90160
:10230000E755FD4FC491CC2391F081110E94160F27
:10231000EC2FF0E0EE0FFF1FE156FD4FA591B491B9
:10232000EC91ED2381E090E021F480E002C080E0B8
:1023300090E0DF91CF9108951F93CF93DF93282FE3
:1023400030E0F901EF52FD4F8491F901E354FD4F64
:10235000D491F901E755FD4FC491CC23C1F0162F5C
:1023600081110E94160FEC2FF0E0EE0FFF1FEB56CD
:10237000FD4FA591B4919FB7F894111104C08C91B1
:10238000D095D82302C0EC91DE2BDC939FBFDF9168
:10239000CF911F910895CF93DF93CCEBD0E01882BB
:1023A0001092240381E0809323031092FE0261E0E7
:1023B00082E10E949C1161E083E10E949C11E9EBA3
:1023C000F0E080818E7F808380818D7F808388E4B0
:1023D0008093B80085E48883DF91CF910895CF93EF
:1023E000DF9390E0FC01E354FD4F2491FC01E7559D
:1023F000FD4F8491882361F190E0880F991FFC01C3
:10240000E557FD4FC591D491FC01EB56FD4FA591C9
:10241000B491611109C09FB7F894888120958223F7
:102420008883EC912E230BC0623061F49FB7F8943F
:102430008881322F309583238883EC912E2B2C9327
:102440009FBF06C08FB7F894E8812E2B28838FBFDB
:10245000DF91CF9108958E3008F08E5087708064A0
:1024600080937C0080917A00806480937A008091D0
:102470007A0086FDFCCF809178002091790090E071
:10248000922B08958F929F92AF92BF92CF92DF923C
:10249000EF92FF926B017C010E943F0F4B015C01A8
:1024A000C114D104E104F104F1F00E943F0FDC01FA
:1024B000CB0188199909AA09BB09883E9340A10557
:1024C000B10570F321E0C21AD108E108F10888EEE5
:1024D000880E83E0981EA11CB11CC114D104E10434
:1024E000F10419F7DDCFFF90EF90DF90CF90BF9010
:1024F000AF909F908F9008952FB7F8946091FD034F
:102500007091FE038091FF03909100042FBF089506
:102510001F920F920FB60F9211242F933F938F9318
:102520009F93AF93BF938091FD039091FE03A09181
:10253000FF03B09100043091480423E0230F2D37AE
:1025400020F40196A11DB11D05C026E8230F0296B7
:10255000A11DB11D209348048093FD039093FE03B9
:10256000A093FF03B09300048091010490910204B2
:10257000A0910304B09104040196A11DB11D8093A4
:10258000010490930204A0930304B0930404BF9148
:10259000AF919F918F913F912F910F900FBE0F9010
:1025A0001F901895CF93DF93CDB7DEB762970FB624
:1025B000F894DEBF0FBECDBF789484B5826084BD31
:1025C00084B5816084BD85B5826085BD85B5816037
:1025D00085BD80916E00816080936E0010928100B5
:1025E0008091810082608093810080918100816070
:1025F0008093810080918000816080938000809131
:10260000B10084608093B1008091B00081608093BC
:10261000B00080917A00846080937A0080917A0083
:10262000826080937A0080917A00816080937A0042
:1026300080917A00806880937A001092C100E091C6
:102640006603F091670382E08083E0916203F0917A
:1026500063031082E0916403F091650380E180835D
:1026600010926E03E0916A03F0916B0386E0808321
:10267000E0916803F0916903808180618083E0913B
:102680006803F0916903808188608083E09168032A
:10269000F0916903808180688083E0916803F09104
:1026A000690380818F7D808386E593E00E948302A9
:1026B00061E08AE00E94EF1160E08AE00E949C11D4
:1026C0001FB7F89480914B02811127C0E3EBF2E031
:1026D0008491E7ECF2E09491E82FF0E0EE0FFF1F19
:1026E000E557FD4FA591B491EC91E92321F461E008
:1026F0008AE00E949C1161E08AE00E94EF118CB593
:1027000080618CBD8CB580648CBD61E08DE00E94E1
:10271000EF1161E08BE00E94EF1180914B028F5F1F
:1027200080934B021FBF80917A00887F84608093E2
:102730007A0061E087E00E94EF1161E087E00E948B
:102740009C1161E080E10E94EF1161E080E10E9454
:102750009C1161E08FE00E94EF1161E08FE00E9428
:102760009C1162E084E10E94EF1162E085E10E9429
:10277000EF1162E082E00E94EF1162E084E00E94CB
:10278000EF1162E083E00E94EF1162E085E00E94B9
:10279000EF1162E086E00E94EF1162E088E00E94A3
:1027A000EF1162E089E00E94EF1162E08EE00E948A
:1027B000EF1162E081E10E94EF1180E490E00E945D
:1027C0009B0460914E0280E090E00E94F5098093A6
:1027D0004E026091010181E090E00E94F509809332
:1027E00001016091500282E090E00E94F50980931F
:1027F000500260914F0283E090E00E94F5098093BF
:102800004F026091560284E090E00E94F5098093A7
:1028100056026091550285E090E00E94F509809390
:1028200055026091540286E090E00E94F509809381
:1028300054026091530287E090E00E94F509809372
:1028400053026091520288E090E00E94F509809363
:1028500052026091510289E090E00E94F509809354
:10286000510260916E028AE090E00E94F509809327
:102870006E0280914E028093A90180915002809354
:10288000AD0180914F028093AE01809156028093FA
:10289000B801809155028093B901809154028093D0
:1028A000BA01809153028093BC01809152028093BF
:1028B000BD01809151028093BE01809101018093FE
:1028C000BB0182E491E00E94070E84E291E00E9445
:1028D000070E80913A01811105C060E08FEF0E94E0
:1028E000A604F7CF83E191E00E94EC0D84E0809391
:1028F000360162E082E00E94EF1162E084E00E9413
:10290000EF1110927B0110927C0164E773E080E08C
:102910000E94670B8EE291E00E94990D83E391E0A3
:102920000E94990D82E090E090937A028093790260
:1029300085E091E00E94EC0D83E090E09093F60337
:102940008093F50385E090E09093F8038093F7037C
:10295000809337011092F9030E94830B80937802D1
:102960008EE291E00E94990D83E391E00E94990D1F
:1029700089EF90E00E94EC0D1092DD021092DC02D3
:1029800010922803109249030E94CB1188E60E94FE
:10299000B80C0E94D90B88E60E94B80C80E090E049
:1029A0000E94B30C0E94D90B0E94C20C8AE493E0EF
:1029B0000E949E0E87FF23C087ED90E00E94070EC5
:1029C00088E60E94B80C80E090E00E94B30C0E9460
:1029D000D90B0E94C20C8AE493E00E949E0E182F2D
:1029E00088E60E94B80C80E090E00E94B30C612F52
:1029F0006F778AE493E00E94E70E0E94D90B0E9451
:102A0000081090934902809348020E94ED0F809332
:102A100047020E94D20F809303010E94C20F80934D
:102A200002010E94970F809346020E947C0F8093C0
:102A300045020E94640F809344028BE190E00E9463
:102A4000990482FB222720F991E092279093390183
:102A500086958170809300010E94880682ED90E047
:102A60000E94070E8091380181110AC088EB90E026
:102A70000E94EC0D0E942E0783EB90E00E94070E4F
:102A800080EA90E00E94070E60E080E10E949C11C5
:102A900077247394812C912C540183940E947C128E
:102AA0006B017C0180917B0190917C01891B87FDEA
:102AB000805C882311F40C944E1D80917B019091D1
:102AC0007C01891B87FD805C811102C00FEF12C061
:102AD000E0917C0180917B01E817C1F3EF5FE03466
:102AE00008F0E0E0E0937C01F0E0E55CFE4F00815F
:102AF000002361F310E080914A02811104C061E07B
:102B000080E10E949C11003E110519F470925E0252
:102B1000BCC7013E110529F470925E0270925D02FD
:102B2000B4C760915C02003F110529F4611103C034
:102B300070925C02AAC780915E02811104C08091EC
:102B40005D02882319F080E091E002C080E090E00F
:102B5000800F911F10925B026093AB01292F2170AF
:102B60002093B70187FB222720F92093B60186FB2B
:102B7000222720F92093B50185FB222720F92093F5
:102B8000B40184FB222720F92093B30183FB222781
:102B900020F92093B20182FB222720F92093B10172
:102BA00081FB222720F92093B001282F2170209348
:102BB000AF018634910509F44BC30CF0F8C08332A1
:102BC000910509F4EDC20CF078C08E30910509F43E
:102BD00094C4CCF58730910509F4ABC6ACF48430CD
:102BE000910509F458C544F48130910509F43BC6B8
:102BF000039709F4B0C5D9C68530910509F4EBC433
:102C0000069709F418C5D1C68B30910509F4C5C5DE
:102C100044F48930910509F448C60A9709F401C6BD
:102C2000C4C68C30910509F466C50D9709F0BDC680
:102C3000862F872580937F01809394018DE090E01B
:102C40000E944009B2C68A31910509F4E9C2C4F470
:102C50008431910509F4BEC144F48131910509F430
:102C6000CAC1429709F4A5C1A0C68531910509F4EE
:102C7000BFC2469709F099C667256093820195C641
:102C80008D31910509F4C0C25CF48B31910509F4D2
:102C9000B3C24C9709F089C667256093800185C649
:102CA0008132910509F478C20CF0B2C24E9709F056
:102CB0007CC6672560938A0178C68433910509F440
:102CC0007BC2ECF58B32910509F472C2DCF48632DA
:102CD000910509F4ADC25CF48432910509F464C233
:102CE000859709F062C6672560939A015EC68932AE
:102CF000910509F449C28A9709F057C66725609380
:102D00009F0153C68E32910509F496C25CF48C3251
:102D1000910509F475C28D9709F047C66725609340
:102D2000990143C68233910509F432C20CF048C2BE
:102D3000C19709F03AC6672560939E0136C68D3368
:102D4000910509F47DC2DCF48A33910509F448C287
:102D50005CF48533910509F45FC2C69709F025C676
:102D600067256093A30121C68B33910509F42CC21A
:102D7000CC9709F01AC6672560939C0116C6823469
:102D8000910509F425C24CF48E33910509F45CC217
:102D90008134910509F49AC208C68434910509F476
:102DA00023C20CF041C2672560939401FEC58637AB
:102DB000910509F4C0C10CF072C08A35910509F47F
:102DC000DFC1B4F58E34910509F47DC3D4F48B349E
:102DD000910509F401C24CF48934910509F490C2BB
:102DE0008A34910509F412C3E0C58C34910509F4C5
:102DF000A1C28D34910509F0D8C56725609384017F
:102E0000D4C58535910509F444C34CF48235910548
:102E100009F442C28435910509F4A6C2C6C58835B5
:102E2000910509F487C38935910509F4C2C0BDC570
:102E30008C36910509F424C2D4F48636910509F440
:102E400092C14CF48B35910509F4B7C28D359105CB
:102E500009F4F6C2AAC58936910509F401C28B3678
:102E6000910509F0A2C5672560939A019EC5823736
:102E7000910509F4F9C14CF48037910509F4ECC1CE
:102E80008137910509F43CC290C58437910509F456
:102E9000F3C10CF0F9C167256093A20186C58A359C
:102EA00021E0920709F46CC10CF044C08D37910504
:102EB00009F4EEC10CF58A37910509F4D9C174F40F
:102EC0008837910509F413C58937910509F06DC557
:102ED000672560938E016093950167C58B379105D7
:102EE00009F422C38C37910509F05FC5672560930B
:102EF0008E016093A60159C5823141E0940709F41F
:102F00002FC54CF48338910509F469C4813191408F
:102F100009F48BC04AC58F32F1E09F0709F4B8C0AD
:102F20008A3421E0920709F471C28431914009F09A
:102F30003CC550C0823741E0940709F4CFC0D4F4B7
:102F40008C36E1E09E0709F432C354F4893621E05F
:102F5000920709F436C38B36914009F4CEC025C5DB
:102F6000803741E0940709F497C08137914009F414
:102F700076C01BC58737E1E09E0709F40DC554F400
:102F8000843721E0920709F4C7C08537914009F4DE
:102F900096C00BC58C3741E0940709F4E5C48D3722
:102FA00051E0950709F4D1C28A37914009F0FDC478
:102FB000E5C280910101882319F08FE090E002C002
:102FC00080E090E06725FC01E158FE4F608360934C
:102FD0005A02EBC480910101882319F080E090E04F
:102FE00002C08FE090E06725FC01E158FE4F60834E
:102FF00060936802DAC4662E672460928E01209185
:103000000101222319F086E090E002C080E090E008
:10301000FC01E158FE4F6082211104C081E190E083
:103020000E94400960926702C0C4662E67246092C5
:103030008E0120910101222319F087E090E002C067
:1030400080E090E0FC01E158FE4F6082211104C055
:1030500081E191E00E94400960926702A6C48091DC
:103060005A028111A2C480910101882339F0862F70
:103070008725809384018093A70106C0862F87252A
:1030800080938E01809397016725609359028DC4C8
:1030900067256093690289C480915A02811185C4B1
:1030A000809101016725882329F060938C0160934A
:1030B000A7017BC460938E016093800176C48091E8
:1030C0005A02811172C4862F872580937F018093D5
:1030D0009B0185E791E00E94400967C480915A02F4
:1030E000811163C4862F872580937F018093A3017C
:1030F00082E791E00E94400958C480915A028111F0
:1031000054C4862F872580937F018093A2018BE68C
:1031100091E00E94400949C480915A02811145C43E
:10312000862F872580937F018093930184E791E028
:103130000E9440093AC4662E672460927F01809104
:103140000101882319F083E090E002C087E090E05D
:10315000FC01E158FE4F608286E790E00E94400942
:103160006092580222C4662E672460927F016092AA
:10317000830186E690E00E9440096092570215C4E0
:1031800067256093850111C46725609386010DC48E
:1031900067256093A60109C467256093970105C45C
:1031A00067256093900101C4672560939101FDC379
:1031B000672560939801F9C367256093A001F5C363
:1031C00067256093A501F1C3672560939D01EDC359
:1031D000672560939501E9C3672560938D01E5C379
:1031E000672560939601E1C3672560938C01DDC379
:1031F000672560938101D9C3672560938801D5C392
:1032000067256093A101D1C3672560938901CDC370
:10321000672560938F01C9C367256093A401C5C367
:10322000672560938701C1C3672560938301BDC390
:10323000672560939201B9C367256093A201B5C366
:10324000672560939B01B1C3672560939301ADC36C
:10325000672560938B01A9C3672560938301A5C38C
:10326000672560938201A1C3672560938A019DC38E
:1032700067256093920199C367256093A30195C365
:10328000672560939B0191C36725609393018DC36C
:10329000672560938B0189C3362F372530938E01C4
:1032A00020915A02222319F085E090E002C08CE1BF
:1032B00090E0FC01E158FE4F3083662321F010922C
:1032C000840110929B0120935B026FC3362F372538
:1032D00030938E0120915A02222319F08AE190E066
:1032E00002C08FE190E0FC01E158FE4F308366237D
:1032F00021F01092990110929E0120935B0255C318
:10330000362F372530938E0120915A02222319F04F
:1033100082E290E002C087E190E0FC01E158FE4FBC
:103320003083662321F01092A10110929601209320
:103330005B023BC3362F372530938E0120915A0212
:10334000222319F088E090E002C08DE090E0FC01BB
:10335000E158FE4F3083662321F0109287011092CE
:103360008C0120935B0221C38091010181110CC06B
:1033700061111BC380915A02882311F089E101C0B9
:1033800085E20E94F00811C3262F272520938E0185
:1033900080915A02882319F089E190E002C085E209
:1033A00090E0FC01E158FE4F2083662309F4FDC242
:1033B000109298011092A401F8C28091010181112C
:1033C0000CC06111F2C280915A02882311F081E28F
:1033D00001C08DE10E94F008E8C2262F2725209326
:1033E0008E0180915A02882319F081E290E002C098
:1033F0008DE190E0FC01E158FE4F2083662309F443
:10340000D4C21092A00110929C01CFC2362F372552
:1034100030938E0120915A02222319F088E190E026
:1034200002C080E290E0FC01E158FE4F3083662349
:1034300021F01092970110929F0120935B02B5C278
:103440008091010181110CC06111AFC280915A02BB
:10345000882311F089E001C081E10E94F008A5C233
:10346000262F272520938E0180915A02882319F058
:1034700089E090E002C081E190E0FC01E158FE4F5C
:103480002083662309F491C2109288011092900162
:103490008CC2362F372530938E0120915A02222379
:1034A00019F086E190E002C08EE090E0FC01E15866
:1034B000FE4F3083662321F01092950110928D010A
:1034C00020935B0272C2362F372530938E012091F4
:1034D0005A02222319F084E090E002C08EE190E0CD
:1034E000FC01E158FE4F3083662321F010928301E6
:1034F00010929D0120935B0258C280915A0288234A
:1035000029F0611103C081E00E94F00890915A02F5
:10351000911107C080915C02872580938E01809372
:103520008F0190935B0241C2672560938E01609387
:103530009D013BC2862F872580938E0180937F015A
:1035400088E590E00E94400930C280915A028111C2
:103550002CC280910101882331F067256093960188
:103560006093A70122C2862F872580937F018093D5
:1035700092018DE791E00E94400917C280915A02A2
:10358000811113C280910101882331F06725609376
:103590009E016093A70109C2862F872580937F0132
:1035A00080939A018AE791E00E944009FEC18091D0
:1035B0005A028111FAC16725609395016093A701B2
:1035C000F4C180915A028111F0C1672560938D0189
:1035D0006093A701EAC180916902811108C08091BE
:1035E0006802882311F1809167028823F1F061114C
:1035F000DCC1109256021092550284E090E09A8B42
:10360000898B64E1CE0141960E94C7096091550201
:1036100085E090E00E94E009809156028093B80115
:10362000809155028093B901C0C1672560938001E4
:103630006093A701BAC180916902811108C080918D
:103640006802882311F1809167028823F1F06111EB
:10365000ACC1709256021092550284E090E09A8BB1
:10366000898B6AE0CE0141960E94C709609155029C
:1036700085E090E00E94E009809156028093B801B5
:10368000809155028093B90190C167256093A6018E
:103690006093A7018AC180916902811108C080915D
:1036A0006802882311F1809167028823F1F061118B
:1036B0007CC1109256027092550284E090E09A8B81
:1036C000898B64E1CE0141960E94C7096091550241
:1036D00085E090E00E94E009809156028093B80155
:1036E000809155028093B90160C16725609397016D
:1036F0006093A7015AC180916902811108C080912D
:103700006802882311F1809167028823F1F061112A
:103710004CC1709256027092550284E090E09A8BF0
:10372000898B6AE0CE0141960E94C70960915502DB
:1037300085E090E00E94E009809156028093B801F4
:10374000809155028093B90130C167256093900143
:103750006093A7012AC180916902811108C08091FC
:1037600068028823A1F080916702882381F06111AB
:103770001CC16091540267256093540286E090E07A
:103780000E94E009809154028093BA010EC167251E
:10379000609391016093A70108C180916902811132
:1037A00008C0809168028823A1F080916702882375
:1037B00081F06111FAC06091530267256093530252
:1037C00087E090E00E94E009809153028093BC0161
:1037D000ECC06725609398016093A701E6C08091D3
:1037E0006902811108C0809168028823A1F080914C
:1037F0006702882381F06111D8C060915202672569
:103800006093520288E090E00E94E00980915202A9
:103810008093BD01CAC067256093A0016093A70192
:10382000C4C080916902811108C080916802882318
:10383000A1F080916702882381F06111B6C0609188
:10384000510267256093510289E090E00E94E009EF
:10385000809151028093BE01A8C067256093A501A5
:103860006093A701A2C080916902811108C0809174
:1038700068028823A1F080916702882381F061119A
:1038800094C06091500267256093500282E090E0FE
:103890000E94E009809150028093AD0186C06725A7
:1038A000609394016093A70180C0809169028111A7
:1038B00008C0809168028823A1F080916702882364
:1038C00081F0611172C060914F02672560934F02D1
:1038D00083E090E00E94E00980914F028093AE0166
:1038E00064C0672560939D016093A7015EC08091CD
:1038F0006902811108C0809168028823A1F080913B
:103900006702882381F0611150C060914E026725E3
:1039100060934E0280E090E00E94E00980914E02A8
:103920008093A90142C067256093810160938E0155
:103930003CC080916902811108C08091680288238F
:1039400049F080916702882329F061112EC00E94FE
:1039500096082BC067256093890160938E0125C06E
:10396000672560934D0221C080915A0281111DC0CC
:1039700080914D028823C9F0611117C06091010147
:1039800067256093010181E090E00E94E009809149
:1039900001018093BB0109C0662339F080914C027C
:1039A000872580934C028093AC0120915B0280912B
:1039B0007D0190917E01222321F0009711F4109255
:1039C0007F011816190614F470927F018091680225
:1039D0008823C1F0809167028823A1F08091590269
:1039E000882381F0109268021092670210925902A7
:1039F00010925A0210925B0210927E0110927D0189
:103A00000E94D508809168028823C1F080916702E6
:103A10008823A1F080915802882381F010926802D7
:103A2000109267021092580210925A0210925B0292
:103A300010927E0110927D010E949608809168028A
:103A40008823C1F0809167028823A1F080915702FA
:103A5000882381F010926802109267021092570238
:103A600010925A0210925B0210927E0110927D0118
:103A70000E94B10810925C0280915D02882319F0C7
:103A800010925D0202C010925E0287EF91E00E94E8
:103A9000EC0D60E170E0C8010E94580E0E945108D0
:103AA0008CB58F7B8CBD62E08AE00E94EF1186E0CE
:103AB0000E94731121E0892B09F020E020939302EA
:103AC00088E00E94731121E0892B09F020E0209307
:103AD000940289E00E94731121E0892B09F020E013
:103AE000209395028AE00E94731121E0892B09F04E
:103AF00020E0209396028EE00E94731121E0892B32
:103B000009F020E02093910281E10E94731121E0ED
:103B1000892B09F020E02093920261E08AE00E9464
:103B2000EF1160E08AE00E949C118CB580618CBD31
:103B30008CB580648CBD4091910250918B02309184
:103B4000920210919302209194029091950280919B
:103B50009602451315C050918C02351311C0509137
:103B60008D0215130DC050918E02251309C050917E
:103B70008F02951305C050919002851709F451C02A
:103B800040938B0230938C0210938D0220938E020F
:103B900090938F02809390028CEE91E00E94EC0D46
:103BA00088EE91E00E94EC0D6AE070E0812F90E0D9
:103BB0000E94150E84EE91E00E94EC0D809194021B
:103BC0006AE070E090E00E94150E80EE91E00E94A5
:103BD000EC0D809195026AE070E090E00E94150E75
:103BE0008CED91E00E94EC0D809196026AE070E00D
:103BF00090E00E94150E88ED91E00E94EC0D8091FE
:103C000091026AE070E090E00E94150E83ED91E071
:103C10000E94EC0D809192026AE070E090E00E94B8
:103C2000580EE1E9F2E080E090E060E031911401AB
:103C30002501082E04C0220C331C441C551C0A9478
:103C4000D2F7332311F0622904C09201810100955B
:103C5000602301968630910549F78DE00E94A60405
:103C60008091870290918802A0918902B0918A0286
:103C7000A7019601281B390B4A0B5B0B2436310533
:103C800041055105F0F184E10E942B120397B4F431
:103C90008091830290918402A0918502B091860266
:103CA00016012701281A390A4A0A5B0A24EF22164C
:103CB00021E032064104510408F0FDC185E10E9473
:103CC0002B120397B4F480917F0290918002A0910F
:103CD0008102B091820216012701281A390A4A0A84
:103CE0005B0A24EF221621E032064104510408F059
:103CF000FDC1C0928702D0928802E0928902F092C0
:103D00008A0280917B0290917C02A0917D02B09109
:103D10007E0216012701281A390A4A0A5B0A24EF93
:103D2000221621E032064104510440F10E9408109D
:103D300090934902809348020E94ED0F80934702BE
:103D40000E94D20F809303010E94C20F8093020150
:103D50000E94970F809346020E947C0F8093450239
:103D60000E94640F809344020E948806C0927B02E6
:103D7000D0927C02E0927D02F0927E020091790264
:103D800010917A02101611060CF03FC08091780253
:103D900081113BC08091740290917502A0917602CE
:103DA000B091770216012701281A390A4A0A5B0ADC
:103DB000D201C10185369105A105B10530F101504F
:103DC000110910937A02009379028CE791E00E9426
:103DD000EC0D6AE070E0C8010E94580E0E94830B4F
:103DE000182F809378028CE691E00E94EC0D6AE037
:103DF00070E0812F90E00E94580EC0927402D09221
:103E00007502E0927602F092770280913F029091E3
:103E10004002891B87FD805F18160CF08EC08091D0
:103E20003F0290914002891B87FD805F882311F13A
:103E30008091400290913F028917E1F08F5F8031BD
:103E400008F080E08093400228E0829FC0011124A6
:103E500081549E4F28E0FC01DE01119601900D92E5
:103E60002A95E1F7FC0140815181628123813481EF
:103E7000858106C030E080E060E020E040E050E076
:103E80005A8349836B832C833D838E8388E0FE01B4
:103E90003196DE01199601900D928A95E1F72F81F6
:103EA000709173027725709373026093720230935E
:103EB0007102E42FE170E0936F02CA019695879535
:103EC000382F3170CA018470992740916E024423C3
:103ED00011F0532F01C05E2F552311F0206101C056
:103EE0002F7E2093700241113E2F209170023323C8
:103EF00011F0206201C02F7D20937002209170028A
:103F0000892B11F0206401C02F7B209370028091D7
:103F10007002772311F0806801C08F778093700260
:103F20008AE00E94A604609171028BE00E94A604C0
:103F3000609170028CE00E94A60480917802882330
:103F400009F459C080916A0290916B02A0916C02B1
:103F5000B0916D0216012701281A390A4A0A5B0A34
:103F600029EE221623E032064104510408F443C02E
:103F700080916902811108C080916802882399F1BB
:103F800080916702882379F180916F02882359F12B
:103F900060916E02672560936E028AE090E00E9455
:103FA000E00961E080E10E949C1164E670E080E03D
:103FB00090E00E94421260E080E10E949C1164E661
:103FC00070E080E090E00E94421261E080E10E9497
:103FD0009C1164E670E080E090E00E94421260E094
:103FE00080E10E949C11C0926A02D0926B02E09222
:103FF0006C02F0926D0280914A02882359F110916F
:104000004302112321F061E080E10E949C11809124
:10401000630290916402A0916502B091660216015C
:104020002701281A390A4A0A5B0AD201C1018436DB
:104030009105A105B10570F0C0926302D0926402AF
:10404000E0926502F0926602111104C060E080E126
:104050000E949C1180914202882349F110914102F3
:10406000112321F061E08FE00E949C1180915F029A
:1040700090916002A0916102B0916202A701960145
:10408000281B390B4A0B5B0B2436310541055105C2
:1040900070F0C0925F02D0926002E0926102F092F2
:1040A0006202111104C060E08FE00E949C110E9426
:1040B000A5020C944E15C0928302D0928402E09225
:1040C0008502F092860261E08FE00E949C118FEBE6
:1040D00091E00E94EC0D0E94B1088AEB91E00E94F1
:1040E000070E60E08FE00E949C11E8CDC0927F0235
:1040F000D0928002E0928102F092820261E080E13F
:104100000E949C118BEA91E00E94EC0D0E94D50860
:1041100086EA91E00E94070E60E080E10E949C1117
:10412000E8CDEAE4F3E01382128288EE93E0A0E0A7
:10413000B0E084839583A683B7832EE031E031839A
:104140002083E6E5F3E01382128284839583A683BD
:10415000B78380E291E09183808385EC90E095873E
:10416000848784EC90E09787868780EC90E0918B41
:10417000808B81EC90E0938B828B82EC90E0958B2E
:10418000848B86EC90E0978B868B118E128E138E2B
:10419000148EE3EFF3E081E5808311820895F999AD
:1041A000FECF92BD81BDF89A992780B50895262F3C
:1041B000F999FECF1FBA92BD81BD20BD0FB6F8940C
:1041C000FA9AF99A0FBE01960895AA1BBB1B51E1FA
:1041D00007C0AA1FBB1FA617B70710F0A61BB70B77
:1041E000881F991F5A95A9F780959095BC01CD011C
:1041F000089597FB072E16F4009407D077FD09D099
:104200000E94E52007FC05D03EF4909581959F4FD4
:104210000895709561957F4F0895A1E21A2EAA1B0B
:10422000BB1BFD010DC0AA1FBB1FEE1FFF1FA21766
:10423000B307E407F50720F0A21BB30BE40BF50B63
:10424000661F771F881F991F1A9469F760957095EC
:10425000809590959B01AC01BD01CF010895991BFC
:1042600079E004C0991F961708F0961B881F7A956D
:10427000C9F780950895EE0FFF1F0590F491E02D8A
:10428000099481E090E0F8940C944621F894FFCFD3
:1042900001010101DC059E019E0100000000E70E06
:1042A000BA0ECA018E0EB20E9E0E8F0E00000000D6
:1042B00036029F01CD018302FE01DC01F001646F33
:0642C0006E65000D0A000E
:00000001FF
