:100000000C94FC000C943B0F0C94140F0C942401E2
:100010000C9424010C9424010C9424010C942401CC
:100020000C9424010C9424010C9424010C942401BC
:100030000C9424010C9424010C9424010C942401AC
:100040000C94620F0C9424010C94E20E0C94BC0EE0
:100050000C9424010C9424010C9424010C9424018C
:100060000C949D0D0C942401646F6E6500525443F2
:1000700020696E697420726571756573742E2E2EF9
:1000800000556E6B6E6F776E005265762E43005290
:1000900065762E41207769746820544441313534A7
:1000A000334120444143005265762E4120776974E4
:1000B0006820544441313534332044414300465094
:1000C000474120626F617264207265766973696F5F
:1000D0006E2069733A2000646F6E65004650474198
:1000E00020696E697420726571756573742E2E2E89
:1000F0000000000000250028002B00000000002365
:10010000002600290000000008000201000003048E
:10011000070000000000000000000000002400278D
:10012000002A000102040810204080010204081087
:10013000200102040810200404040404040404023E
:100140000202020202030303030303537461727485
:10015000696E67206D61696E206C6F6F7000646FEF
:100160006E65005254432073656E6420616C6C2090
:100170007265676973746572732E2E2E00646F6EDC
:10018000650052544320696E69742E2E2E004D6F07
:1001900075736520696E69742E2E2E004B65796229
:1001A0006F61726420696E69742E2E2E005761692A
:1001B00074696E6720666F72204650474120696EF1
:1001C00069742072657175657374005A58204B65A7
:1001D00079626F617264202F206D6F757365202FB7
:1001E0002072746320636F6E74726F6C6C65722022
:1001F00076312E300000AC0F11241FBECFEFD8E0B7
:10020000DEBFCDBF23E0A6E3B1E001C01D92AF3653
:10021000B207E1F711E0A0E0B1E0ECE0F8E302C0E2
:1002200005900D92A633B107D9F710E0CCEFD0E0DE
:1002300004C02197FE010E94FE1BCB3FD107C9F7E6
:100240000E94F60F0C94B11B0C9400002091BA028E
:1002500081E0213208F044C0809196028111FCCFE8
:100260008091B90292E09093960291E0909395026A
:100270009FEF909394021092930220939202A9E927
:10028000B2E0E2E7F2E090E0291331C0109271028F
:1002900090917102880F892B809371028091700276
:1002A000813049F510927002809171028093BB00F9
:1002B0008091BC0083FDF8CF85EC8093BC008091D9
:1002C00096028230E1F3809194028F3FB1F08091E9
:1002D00094028032A1F080919402803391F084E006
:1002E000109298021092BA021092970208953D91CE
:1002F00031939F5FC9CF85EEE0CF80E0F1CF82E000
:10030000EFCF83E0EDCF91E0909397028093B90215
:10031000109298021092BA02089590916F02809103
:100320006E022FEF3FEF981748F4E92FF0E0E25B01
:10033000FD4F208130E09F5F90936F02C9010895C7
:1003400090916F0280916E022FEF3FEF981748F463
:10035000E92FF0E0E25BFD4F208130E09F5F90935A
:100360006F02C901089585ED8093BC008091BC00A7
:1003700084FDFCCF10929602089520912902260F49
:100380003327331F21323105ECF420919602FC0112
:1003900090E080E0243069F082E00895A091290285
:1003A0002191AC01495F5D4FA40FB52FB11D2C9376
:1003B0000196861798F380912902680F60932902AD
:1003C00080E0089581E00895089508950895E091EA
:1003D0006F0280916E02E81730F4F0E0E25BFD4FAF
:1003E000808190E008958FEF9FEF089580916E02D5
:1003F00090916F02891B990B0895CF92DF92EF9233
:10040000FF920F931F93CF93DF937C01CB018A015F
:1004100020919702222389F0EB016B01C40ED51EB7
:10042000CC15DD0569F06991D701ED91FC91019042
:10043000F081E02DC7010995F3CF642F0E94BD0123
:10044000C801DF91CF911F910F91FF90EF90DF9046
:10045000CF900895CF93DF931F92CDB7DEB7698316
:10046000209197022223F9F02091BA02203258F00D
:1004700021E030E0FC013383228390E080E00F90A4
:10048000DF91CF91089580919802E82FF0E0E75630
:10049000FD4F998190838F5F809398028093BA0279
:1004A00081E090E0ECCF61E0CE0101960E94BD01B9
:1004B000F7CF682F8FEB92E00C942A02FC01538D4A
:1004C000448D252F30E0842F90E0821B930B54172E
:1004D00010F0CF96089501970895FC01918D828DBB
:1004E000981761F0A28DAE0FBF2FB11D5D968C9154
:1004F000928D9F5F9F73928F90E008958FEF9FEF93
:100500000895FC01918D828D981731F0828DE80F4E
:10051000F11D858D90E008958FEF9FEF0895FC0108
:10052000918D228D892F90E0805C9F4F821B9109D5
:100530008F7399270895FC01A48DA80FB92FB11DC1
:10054000A35ABF4F2C91848D90E001968F73992709
:10055000848FA689B7892C93A089B1898C918370E7
:1005600080648C93938D848D981306C00288F389E0
:10057000E02D80818F7D80830895EF92FF920F930D
:100580001F93CF93DF93EC0181E0888F9B8D8C8D3F
:1005900098131AC0E889F989808185FF15C09FB733
:1005A000F894EE89FF896083E889F98980818370F6
:1005B000806480839FBF81E090E0DF91CF911F91A5
:1005C0000F91FF90EF900895F62E0B8D10E00F5FC6
:1005D0001F4F0F731127E02E8C8D8E110CC00FB69C
:1005E00007FCFACFE889F989808185FFF5CFCE0134
:1005F0000E949B02F1CFEB8DEC0FFD2FF11DE35A12
:10060000FF4FF0829FB7F8940B8FEA89FB898081B6
:100610008062CFCF0F931F93CF93DF938C01D0E0F5
:10062000C0E0F801EC0FFD1F6491662341F08BECF4
:1006300092E00E94BD02892B11F02196F2CFCE01EB
:10064000DF91CF911F910F910895CF93DF93EC012C
:10065000888D8823B9F0AA89BB89E889F9898C91AA
:1006600085FD03C0808186FD0DC00FB607FCF7CF66
:100670008C9185FFF2CF808185FFEDCFCE010E9466
:100680009B02E9CFDF91CF9108958BEC92E00E941D
:100690008F0221E0892B09F420E0822F089580E069
:1006A00090E0892B29F00E94450381110C940000F1
:1006B0000895AF92BF92CF92DF92EF92FF920F9385
:1006C0001F93CF93DF936C017B018B01040F151FE8
:1006D000EB015E01AE18BF08C017D10759F0699150
:1006E000D601ED91FC910190F081E02DC6010995B4
:1006F000892B79F7C501DF91CF911F910F91FF9061
:10070000EF90DF90CF90BF90AF90089590E080E0A1
:1007100008950895833081F028F4813099F0823073
:10072000A9F008958730A9F08830C9F08430B1F479
:10073000809180008F7D03C0809180008F778093AF
:100740008000089584B58F7784BD089584B58F7D2A
:10075000FBCF8091B0008F778093B0000895809197
:10076000B0008F7DF9CFCF93DF93282F30E0F901D0
:10077000EB5FFE4F8491F901ED5DFE4FD491F901DD
:10078000E95CFE4FC491CC23A1F081110E948A0341
:10079000EC2FF0E0EE0FFF1FE550FF4FA591B49155
:1007A000EC91ED2381E090E009F480E0DF91CF91BE
:1007B000089580E090E0FACFCF92DF92EF92FF921F
:1007C000CF93DF93EC018FB7F894C090BB02D09029
:1007D000BC02E090BD02F090BE028FBF2FB7F8942C
:1007E0008091BB029091BC02A091BD02B091BE026B
:1007F0002FBF8C199D09AE09BF09883E9340A10502
:10080000B10578F480916A030E94B3038C179D07A9
:1008100029F781E0DF91CF91FF90EF90DF90CF90AB
:10082000089580E0F7CFCF93DF9390E080E00E94BF
:10083000DC0380916C030E94B303EC0181E090E043
:100840000E94DC03CE01DF91CF9108951F93CF93D7
:10085000DF93282F30E0F901EB5FFE4F8491F9011F
:10086000ED5DFE4FD491F901E95CFE4FC491CC23BC
:10087000A9F0162F81110E948A03EC2FF0E0EE0FF1
:10088000FF1FEF50FF4FA591B4918FB7F894EC91F3
:10089000111108C0D095DE23DC938FBFDF91CF917B
:1008A0001F910895DE2BF8CFCF93DF9390E0FC01EA
:1008B000ED5DFE4F2491895C9E4FFC01849188235D
:1008C000C9F090E0880F991FFC01E75EFE4FA591EB
:1008D000B491FC01EF50FF4FC591D49161110DC04F
:1008E0009FB7F8948C91209582238C93888128233C
:1008F00028839FBFDF91CF910895623051F49FB755
:10090000F8943C91822F809583238C93E8812E2B41
:10091000EFCF8FB7F894EC912E2B2C938FBFEACFAB
:10092000CF93C82F60E00E94540461E08C2FCF91D8
:100930000C942604CF93C82F61E00E94540460E019
:100940008C2FCF910C94260420916C0330916D0371
:10095000019759F4C9010E94900481E090E00E943F
:10096000DC0390E080E00C94DC03C9010E949A044F
:10097000F4CFCF92DF92EF92FF920F931F93CF931A
:1009800080916A0390916B030E94900480916C03A4
:1009900090916D030E94900483EC90E00197F1F731
:1009A00090E080E00E94DC038FE090E00197F1F797
:1009B00081E090E00E94DC03C0E010E000E0C12C88
:1009C000D12C7601C3940E941304B701A601002E16
:1009D00004C0440F551F661F771F0A94D2F7892B56
:1009E000C9F0C42B0F5F1F4F0830110561F70E943B
:1009F00013040E94130480916A0390916B030E9478
:100A00009A048C2FCF911F910F91FF90EF90DF9060
:100A1000CF9008954095C423E5CFBF92CF92DF9247
:100A2000EF92FF920F931F93CF93DF93C82E809185
:100A30006C0390916D030E94900480916A039091E1
:100A40006B030E949004CBEAD4E0CE010197F1F74A
:100A500080916A0390916B030E949A042197F1F7A9
:100A600080916C0390916D030E949A0483E290E060
:100A70000197F1F780916A0390916B030E949004B3
:100A800090E080E00E94DC03B82E882309F43FC088
:100A9000EE24E394F12CD0E0C0E00C2C000CDD0837
:100AA00086010C2E02C0159507950A94E2F7017095
:100AB0001127C8010E94A404E026F1262196C8301F
:100AC000D10571F7C7010E94A40480916C03909135
:100AD0006D030E94900483EC90E00197F1F790E0A1
:100AE00080E00E94DC0380916A030E94B303892B9B
:100AF000D1F380916C030E94B303892BA1F3809101
:100B00006A0390916B030E949A040E94B9048B2D92
:100B1000DF91CF911F910F91FF90EF90DF90CF90D9
:100B2000BF900895CF93DF93EC0183EF90E00E9494
:100B30000D05CE01DF91CF910C940D05CF938091DF
:100B40006A0390916B030E94900480916C039091D2
:100B50006D030E9490048FEF90E00E940D05C82F56
:100B60008823A1F10E94B9040E94B90488EC90E0A6
:100B70000E94920584E690E00E94920580E590E054
:100B80000E94920582EF90E00E940D050E94B90438
:100B900091E0833009F090E090936E0388EE90E04E
:100BA0000E940D0583E090E00E940D0586EE90E026
:100BB0000E940D0588E290E00E94920580EF90E08F
:100BC0000E940D058BE891E00197F1F78C2FCF91F2
:100BD00008953FB7F89480916B0190916C01A091BA
:100BE0006D01B0916E0126B5A89B05C02F3F19F08D
:100BF0000196A11DB11D3FBFBA2FA92F982F88279D
:100C0000BC01CD01620F711D811D911D42E0660F77
:100C1000771F881F991F4A95D1F708958F929F9249
:100C2000AF92BF92CF92DF92EF92FF924B015C01A5
:100C30000E94E9056B017C010E94E9056C197D09A0
:100C40008E099F09683E734081059105A8F321E054
:100C5000821A9108A108B10888EEC80E83E0D81E58
:100C6000E11CF11C81149104A104B10429F7FF9047
:100C7000EF90DF90CF90BF90AF909F908F900895AE
:100C8000E6E9F1E011929F01265931402817390712
:100C9000CCF30895CF92DF92EF92FF920F931F93C0
:100CA000CF93DF93CDB7DEB7A8970FB6F894DEBF2A
:100CB0000FBECDBF2091860130918701611133C0F5
:100CC00012161306A4F4EDE3F1E050E040E0A19128
:100CD000B1918A179B0709F461E04F5F5F4F42179C
:100CE0005307A9F7611110C02431310569F0F901EA
:100CF000EE0FFF1FE35CFE4F918380832F5F3F4F1A
:100D00003093870120938601A8960FB6F894DEBF32
:100D10000FBECDBFDF91CF911F910F91FF90EF904C
:100D2000DF90CF900895FE01319648E2DF011D92D9
:100D30004A95E9F71216130684F50DE311E07801E0
:100D400050E040E070E060E0D701CD90DD907D01A3
:100D50008C159D0549F0DA01AA0FBB1FAE0FBF1F0E
:100D6000CD92DC924F5F5F4F6F5F7F4F62177307CB
:100D700059F74115510589F090E080E021913191BA
:100D8000D8012D933D938D01019684179507B1F7F6
:100D90005093870140938601B7CF50E040E0F8CFF1
:100DA000CF92DF92EF92FF920F931F938091700189
:100DB0000E94B3039FB7F8944091BB025091BC02CC
:100DC0006091BD027091BE029FBF009139011091E8
:100DD0003A0120913B0130913C016A017B01C01A2C
:100DE000D10AE20AF30A970186010B3F110521059A
:100DF000310510F0109238014093390150933A01B7
:100E000060933B0170933C01909138019F5F9093F8
:100E100038019A3038F4923060F59130F9F0109240
:100E2000380120C09A30A9F19B30C9F78091360172
:100E30008D3FA8F7809184018F5F803108F080E0BA
:100E400090918501981759F3E82FF0E090913701C0
:100E5000EC58FE4F908380938401E1CF10923701CC
:100E6000109236011F910F91FF90EF90DF90CF907D
:100E7000089590913601980F909336012091370193
:100E800030E035952795811180E8282B2093370194
:100E9000E9CF909136019170981719F0909336012F
:100EA000E1CF8DEF80933601DDCF809196028111E5
:100EB000FCCF81E080939602809395029FEF909300
:100EC0009402109293021092920280937102809188
:100ED0007102806D8093710280917002813021F5E2
:100EE00010927002809171028093BB008091BC00CF
:100EF00083FDF8CF85EC8093BC0080919602813011
:100F0000E1F38091930291E0811102C090919302EC
:100F1000A2E7B2E0EEE4F2E080E0891307C01092AD
:100F20006F0280936E02089585EEE5CF2D91219397
:100F30008F5FF3CF88E60E94830182E090E00E94F9
:100F400059020E9426010E9455070E94A00126E036
:100F5000969587952A95E1F78170089588E60E9415
:100F6000830190E080E00E9459020E9426010E94C5
:100F700055070E94A0018F77282F30E094E0359527
:100F800027959A95E1F7922F990F990F291B220F18
:100F9000820F089588E60E94830181E090E00E941C
:100FA00059020E9426010E9455070E94A0019C013F
:100FB00094E0359527959A95E1F72F703327922F76
:100FC000990F990F291B220F820F0895CF930E942A
:100FD0009A07C82F88E60E94830182E090E00E9471
:100FE00059020E9426010E9455070E94A001C111CA
:100FF00010C0AC0194E0559547959A95E1F74F7074
:101000005527942F990F990F491B440F840FCF91A7
:101010000895482F4F79242F30E084E035952795A7
:101020008A95E1F7822F880F880F922F981B892FBE
:10103000880FECCF88E60E94830183E090E00E9455
:1010400059020E9426010E9455070E94A00108959E
:1010500088E60E94830184E090E00E9459020E9489
:1010600026010E9455070E94A0019C0194E035953D
:1010700027959A95E1F72F703327922F990F990FA3
:10108000291B220F820F089588E60E94830185E0C4
:1010900090E00E9459020E9426010E9455070E947A
:1010A000A0019C0194E0359527959A95E1F72F7062
:1010B0003327922F990F990F291B220F820F089522
:1010C00088E60E94830186E090E00E9459020E9417
:1010D00026010E9455070E94A0019C0194E03595CD
:1010E00027959A95E1F72F703327922F990F990F33
:1010F000291B220F820F90E08053984F089542E001
:1011000050E06EE271E08BEC92E00C945903CF93C7
:10111000DF930E940A03EC010E947F088C0F9D1F41
:10112000DF91CF910895CF93DF9344E050E061E3E6
:1011300071E08BEC92E00E945903EC010E947F0861
:101140008C0F9D1FDF91CF9108950C94DC1BCF93E2
:10115000DF93D82FC62F90916803809169039CBDBF
:101160008DBD60E087E00E942604DEBD00000DB466
:1011700007FEFDCFDEB5CEBD00000DB407FEFDCFEE
:10118000CEB561E087E00E942604DD2309F4BEC0ED
:10119000DD3F59F5809173018111B8C08CED90E06D
:1011A0000E940A0381E0809373010E94830C0E94D5
:1011B000690B0E94DD0C87ED90E00E9487088EEBA2
:1011C00090E00E940A038FE890E0C13051F087EA76
:1011D00090E0C13030F089E890E0C23011F081E851
:1011E00090E0DF91CF910C948708DC3F09F03AC082
:1011F0008091710181118AC08DE690E00E940A03FE
:1012000081E0809371010E94690B88E690E00E9462
:101210008708D058D03408F079C080916601D8137F
:1012200005C080916501C81709F470C0D0936601AC
:10123000C09365018D2F90E0DE3008F0A7C18C5D72
:10124000964FFC010C94FE1B480973098909A209F9
:10125000B6091E0A320A4E0A670A800AAE0AB60AA0
:1012600086098609DE30A9F68C2F81708093E4010F
:10127000C1FB882780F98093DE01C2FB882780F9B3
:1012800080930202C3FB882780F98093DF01C1CFDE
:1012900080917201882369F08C2F90E0B4E09595DD
:1012A0008795BA95E1F7982F990F990F891B880FA9
:1012B000C80FC093F20188E60E94830190E080E0AD
:1012C0000E9459020E9426010E9455070E94A00117
:1012D0008078C82B88E60E94830190E080E00E941D
:1012E00059028C2F80C080917201882369F08C2F65
:1012F00090E0A4E095958795AA95E1F7982F990F2E
:10130000990F891B880FC80FC0936901DF91CF9196
:10131000089580917201882369F08C2F90E0F4E0A9
:1013200095958795FA95E1F7982F990F990F891B55
:10133000880FC80FC093F30188E60E94830181E003
:1013400090E0CDCF80917201882369F08C2F90E0DE
:10135000E4E095958795EA95E1F7982F990F990F15
:10136000891B880FC80FC0936801D0CF809172018C
:10137000882369F08C2F90E074E0959587957A9595
:10138000E1F7982F990F990F891B880FC80FC09309
:10139000F40188E60E94830182E090E00E945902F5
:1013A0000E9426010E9455070E94A001D82F88E6BE
:1013B0000E94830182E090E00E9459026D2F6F7BB2
:1013C0008FEB92E00E942A020E9426010E949A0757
:1013D000D82F88E60E94830182E090E00E945902A3
:1013E0008C2FD11109C06AE00E94F21B682F660F92
:1013F000680F660F6C0F10C0CD30B0F06CE00E942B
:10140000F21B292F892F6AE00E94F21B682F660FBA
:10141000680F660F620F60668FEB92E00E942A02EF
:10142000DF91CF910C9426016AE00E94F21B682F95
:10143000660F680F660F6C0F6064EECF80917201CB
:10144000882369F08C2F90E064E0959587956A95E4
:10145000E1F7982F990F990F891B880FC80FC09338
:10146000670154CF80917201882369F08C2F90E03E
:1014700054E0959587955A95E1F7982F990F990F14
:10148000891B880FC80FC093080188E60E9483015A
:1014900083E090E00E9459026C2FBECF80917201D0
:1014A000882369F08C2F90E044E0959587954A95C4
:1014B000E1F7982F990F990F891B880FC80FC093D8
:1014C000090188E60E94830184E090E008CF8091C2
:1014D0007201882369F08C2F90E034E09595879510
:1014E0003A95E1F7982F990F990F891B880FC80F2C
:1014F000C093F50188E60E94830185E090E0EFCE7D
:1015000080917201882369F08C2F90E024E09595FA
:1015100087952A95E1F7982F990F990F891B880FC6
:10152000C80FD0E0C053D84FD093F701C093F60155
:1015300088E60E94830186E090E00E945902CE0175
:1015400064E670E00E94B41B282F6AE00E94F21B40
:10155000682F660F680F660F620F5ECF6C2F6F7774
:101560008AE190E0DF91CF910C94E41BC2FB8827C5
:1015700080F991E0892780937201C1FB882780F967
:10158000809304016C2F8BE190E0ECCF6C2F4096A0
:10159000E9CF2091F20180917201882349F0822FD6
:1015A0006AE00E94F21B982F990F890F880F280F6D
:1015B000622F80E40E94A708809172012091F301BC
:1015C000622F882349F0822F6AE00E94F21B682F65
:1015D000660F680F660F620F82E40E94A708909161
:1015E0000401809172012091F401992309F462C0F1
:1015F000882349F0822F6AE00E94F21B982F990FEE
:10160000890F880F280F622F84E40E94A708809119
:10161000720120910801622F882349F0822F6AE02D
:101620000E94F21B682F660F680F660F620F86E438
:101630000E94A7088091720120910901622F8823DE
:1016400049F0822F6AE00E94F21B682F660F680F34
:10165000660F620F87E40E94A708809172012091B3
:10166000F501622F882349F0822F6AE00E94F21B65
:10167000682F660F680F660F620F88E40E94A70844
:10168000209172018091F6019091F70164E670E07B
:101690000E94C81B682F222351F0282F862F6AE052
:1016A0000E94F21B682F660F680F660F620F89E4B5
:1016B0000C94A708882329F02D3008F49BCF2CE840
:1016C00099CF2D3008F49FCF2CE89DCF805C0C94EF
:1016D000A7080F931F93CF93DF93D0E0C0E004E6F9
:1016E00010E0CE3008F008C1EC2FF0E0E658F44FDF
:1016F0000C94FE1B880BA40BB60BC80BDA0BFA0B71
:101700001A0C2C0C3E0C500C670C6F0C760C790CE0
:101710002091F20180917201882349F0822F6AE0C2
:101720000E94F21B982F990F890F880F280F622FA4
:1017300080E00E94660B2196C034D10591F6DF91BE
:10174000CF911F910F9108952091690180917201AD
:10175000882349F0822F6AE00E94F21B982F990F8C
:10176000890F880F280F622F81E0E3CF2091F301CA
:1017700080917201882349F0822F6AE00E94F21B57
:10178000982F990F890F880F280F622F82E0D1CFF1
:101790002091680180917201882349F0822F6AE0CC
:1017A0000E94F21B982F990F890F880F280F622F24
:1017B00083E0BFCF809172012091F40190910401E8
:1017C000992371F0882349F0822F6AE00E94F21B6E
:1017D000982F990F890F880F280F622F84E0A9CFC7
:1017E000882321F02D3080F32CE8EECF2D30A8F3A4
:1017F0002CE8F3CF80917201209167019091040150
:10180000992371F0882349F0822F6AE00E94F21B2D
:10181000982F990F890F880F280F622F85E089CFA5
:10182000882321F02D3080F32CE8EECF2D30A8F363
:101830002CE8F3CF2091080180917201882349F0B0
:10184000822F6AE00E94F21B982F990F890F880F50
:10185000280F622F86E06DCF2091090180917201DF
:10186000882349F0822F6AE00E94F21B982F990F7B
:10187000890F880F280F622F87E05BCF2091F50139
:1018800080917201882349F0822F6AE00E94F21B46
:10189000982F990F890F880F280F622F88E049CF62
:1018A0008091F6019091F701B8010E94C81B282F82
:1018B00090917201992341F06AE00E94F21B982FE7
:1018C000880F890F880F820F682F89E032CF8AE155
:1018D00090E00E94A508682F6F778AE02ACF8BE1FD
:1018E00090E00E94A508682F8BE023CF60E08CE099
:1018F00020CF60E88DE01DCFCE0140960E94A50864
:10190000682F8C2F16CF8F929F92AF92BF92CF925B
:10191000DF92EF92FF920F931F93CF9306E911E0AE
:10192000C0E0C12CD12C7601C394F80190E080E096
:1019300060E0219146015701082E04C0880C991CD3
:10194000AA1CBB1C0A94D2F72223C9F0682901966D
:101950008830910571F7CF5F8C2F0E94A708085F30
:101960001F4FC83011F7CF911F910F91FF90EF904B
:10197000DF90CF90BF90AF909F908F90089580940C
:101980006821E5CFCF93DF9389E290E00E94400683
:10199000C6E9D1E081E08BA70E94830C64E670E089
:1019A00080E090E00E940E0689E290E00E944006EE
:1019B0001BA6DF91CF910C94830CCF93DF9389E228
:1019C00090E00E944006C6E9D1E081E089A70E942C
:1019D000830C64E670E080E090E00E940E0689E2ED
:1019E00090E00E94400619A6DF91CF910C94830CE1
:1019F000FF920F931F93CF93DF93C82F89E290E05C
:101A00000E9440060E94830C64E170E080E090E058
:101A10000E940E0606E911E0FF24F394F801F0821B
:101A20000E94830C64E170E080E090E00E940E066A
:101A3000F801F7860E94830C64E170E080E090E09A
:101A40000E940E06F80117860E94830C64E170E084
:101A500080E090E00E940E06D0E0CA56DE4FF88289
:101A60000E94830C64E170E080E090E00E940E062A
:101A7000F801108218820E94830C64E170E080E01B
:101A800090E0DF91CF911F910F91FF900C940E0683
:101A9000FF920F931F93CF93DF93EC01F62E0881F3
:101AA0001981C8010E94DC1BF81621F06F2DC801B6
:101AB0000E94E41BCE01DF91CF911F910F91FF9007
:101AC0000895CF93DF9300D0CDB7DEB761110CC07E
:101AD00064E19A838983CE0101960E94480D0F909C
:101AE0000F90DF91CF9108956AE0F3CFEF92FF92CC
:101AF0001F93CF93DF9300D0CDB7DEB77C01162FB5
:101B00000E94A5088A3011F0843169F411E08A300E
:101B100009F010E0812F0F900F90DF91CF911F916E
:101B2000FF90EF90089564E111116AE0FA82E98272
:101B3000CE0101960E94480DEDCF1F920F920FB675
:101B40000F9211242F933F934F935F936F937F9343
:101B50008F939F93AF93BF93EF93FF938091B900BF
:101B6000887F803609F44AC0F0F5883209F4A7C0AE
:101B700018F5803109F49BC0B8F4882309F4F9C042
:101B8000883009F494C0FF91EF91BF91AF919F917C
:101B90008F917F916F915F914F913F912F910F9016
:101BA0000FBE0F901F901895883109F488C08032BD
:101BB00051F78093940214C0803409F49DC040F41E
:101BC0008033B9F38833F9F68093940285ECB0C082
:101BD000803509F485C0883509F496C0883499F6B3
:101BE0000E94B301D0CF883909F48CC038F588370A
:101BF00029F050F4883611F0803729F683E080937D
:101C0000960210924D0257C0883809F47BC0803983
:101C100019F0803809F0B7CF80914D02803208F07A
:101C200071C0E0914D0281E08E0F80934D02809152
:101C3000BB00F0E0E35DFD4F80833DC0803B39F0A9
:101C4000E0F4803A09F479C0883A09F09CCF84E046
:101C50008093960210922A0210922902E0912702A4
:101C6000F091280209958091290281110FC081E02D
:101C7000809329021092070209C0803C09F4A6CF84
:101C8000883C09F4A3CF883B09F07DCFE0912A027C
:101C900081E08E0F80932A02F0E0E95FFD4F8081A2
:101CA0008093BB0090912A028091290229C08091E3
:101CB00071028093BB0085EC8093BC0064CF90914F
:101CC000930280919202981758F5E091930281E077
:101CD0008E0F80939302F0E0EE58FD4F8081E9CFA4
:101CE000E091930281E08E0F809393028091BB007C
:101CF000F0E0EE58FD4F8083909193028091920224
:101D00009817C8F285E8D8CFE091930281E08E0F52
:101D1000809393028091BB00F0E0EE58FD4F8083EA
:101D20008091950281115CCF81E08093700284EAFA
:101D30008093BC001092960226CF85EC8093BC0065
:101D40001092960280914D02803230F4E0914D0263
:101D5000F0E0E35DFD4F108260914D0270E0E09194
:101D60002B02F0912C028DE292E0099510924D0227
:101D70000ACF1092940234CF1F920F920FB60F9297
:101D800011242F933F934F935F936F937F938F9380
:101D90009F93AF93BF93EF93FF938BEC92E00E94DE
:101DA0009B02FF91EF91BF91AF919F918F917F9196
:101DB0006F915F914F913F912F910F900FBE0F90B8
:101DC0001F9018951F920F920FB60F9211242F9308
:101DD0008F939F93EF93FF93E091DB02F091DC02EE
:101DE0008081E091E102F091E20282FD1BC09081CE
:101DF0008091E4028F5F8F732091E502821741F09A
:101E0000E091E402F0E0E553FD4F958F8093E4020A
:101E1000FF91EF919F918F912F910F900FBE0F9097
:101E20001F9018958081F4CF1F920F920FB60F92DA
:101E300011242F933F934F935F936F937F938F93CF
:101E40009F93AF93BF93EF93FF93E0910201F091C3
:101E500003010995FF91EF91BF91AF919F918F91F0
:101E60007F916F915F914F913F912F910F900FBE96
:101E70000F901F9018951F920F920FB60F9211247A
:101E80002F933F934F935F936F937F938F939F9382
:101E9000AF93BF93EF93FF93E0910001F0910101A5
:101EA0000995FF91EF91BF91AF919F918F917F9194
:101EB0006F915F914F913F912F910F900FBE0F90B7
:101EC0001F9018951F920F920FB60F9211242F9307
:101ED0003F938F939F93AF93BF938091BB02909159
:101EE000BC02A091BD02B091BE0230916A0123E014
:101EF000230F2D3758F50196A11DB11D20936A01BE
:101F00008093BB029093BC02A093BD02B093BE022B
:101F100080916B0190916C01A0916D01B0916E0167
:101F20000196A11DB11D80936B0190936C01A0934C
:101F30006D01B0936E01BF91AF919F918F913F91D1
:101F40002F910F900FBE0F901F90189526E8230F2A
:101F50000296A11DB11DD2CFEFEBF2E013821282E7
:101F600088EE93E0A0E0B0E084839583A683B783F6
:101F70002EE031E031832083EBECF2E01382128219
:101F800084839583A683B78380E291E091838083E5
:101F900085EC90E09587848784EC90E0978786872E
:101FA00080EC90E0918B808B81EC90E0938B828B26
:101FB00082EC90E0958B848B86EC90E0978B868BFF
:101FC000118E128E138E148EEAE6F3E083E090E019
:101FD0009183808385E090E0938382831482E8E696
:101FE000F3E080E5808381E081830895CF93DF93E0
:101FF00000D000D0CDB7DEB7789484B5826084BDC0
:1020000084B5816084BD85B5826085BD85B58160FC
:1020100085BD80916E00816080936E00109281007A
:102020008091810082608093810080918100816035
:1020300080938100809180008160809380008091F6
:10204000B10084608093B1008091B0008160809382
:10205000B00080917A00846080937A0080917A0049
:10206000826080937A0080917A00816080937A0008
:1020700080917A00806880937A001092C100E0918C
:10208000DB02F091DC0282E08083E091D702F091E4
:10209000D8021082E091D902F091DA0280E18083C7
:1020A0001092E302E091DF02F091E00286E080838B
:1020B000E091DD02F091DE02808180618083E09119
:1020C000DD02F091DE02808188608083E091DD0294
:1020D000F091DE02808180688083E091DD02F091E2
:1020E000DE0280818F7D80838BEC92E00E9425034D
:1020F00010926F0210926E02109298021092BA0221
:102100001092960281E0809395021092700261E035
:1021100082E10E94260461E083E10E94260480910E
:10212000B9008E7F8093B9008091B9008D7F809334
:10213000B90088E48093B80085E48093BC0084EE05
:1021400091E0909328028093270285EE91E090938E
:102150002C0280932B0288E60E9483010E942601B4
:102160001FB7F89480916F01811127C0E1E4F1E07D
:102170008491EDE2F1E09491E82FF0E0EE0FFF1F83
:10218000E75EFE4FA591B491EC91E92321F461E063
:102190008AE00E94260461E08AE00E9454048CB523
:1021A00080618CBD8CB580648CBD61E08DE00E9447
:1021B000540461E08BE00E94540480916F018F5FB2
:1021C00080936F011FBF80917A00887F8460809325
:1021D0007A0061E087E00E94540461E087E00E9499
:1021E000260461E080E10E94540461E080E10E94E5
:1021F000260461E08FE00E94540461E08FE00E94B9
:10220000260462E084E10E94540462E085E10E94B9
:10221000540462E082E00E94540462E084E00E9480
:10222000540462E083E00E94540462E085E00E946E
:10223000540462E086E00E94540462E088E00E9458
:10224000540462E089E00E94540462E08AE00E9443
:10225000540462E08EE00E94540462E081E10E9436
:10226000540480E490E00E9440066091890190E06F
:1022700080E00E94760D809389016091050181E0E4
:1022800090E00E94760D8093050160918B0182E0C1
:1022900090E00E94760D80938B0160918A0183E02B
:1022A00090E00E94760D80938A0160918E0184E017
:1022B00090E00E94760D80938E0160918D0185E003
:1022C00090E00E94760D80938D0160918C0186E0F4
:1022D00090E00E94760D80938C01909189019093FB
:1022E000C00190918B019093C40190918A019093C9
:1022F000C50190918E019093CF0190918D019093A3
:10230000D0018093D101809105018093D2018BECA3
:1023100091E00E9487088DEA91E00E9487088091F1
:102320007301811105C060E08FEF0E94A708F7CF0D
:102330008CE991E00E940A0384E08093700162E0DE
:1023400082E00E94540462E084E00E9454041092EF
:1023500084011092850180ED96E0909301018093B5
:102360000001809169008C7F826080936900E89A07
:102370000E9493088EE891E00E940A030E949E0545
:102380008093F1010E94930882E891E00E940A0381
:102390000E9460089093F7018093F6010E94440820
:1023A0008093F5010E942808809309010E941A0871
:1023B000809308010E94E6078093F4010E94CA07F7
:1023C0008093F3010E94AE078093F2018BE190E0CD
:1023D0000E94A50882FB992790F921E0922790930B
:1023E000720186958170809304010E94C90A8DE76D
:1023F00091E00E9487088091710181110AC083E6F3
:1024000091E00E940A030E94690B8EE591E00E9410
:1024100087088BE491E00E94870860E080E10E94D9
:10242000260433243394222423948FB7F8944090C5
:10243000BB025090BC026090BD027090BE028FBF84
:102440009091850180918401981709F442C0809190
:10245000850190918401891B87FD805F8823C9F1E4
:1024600090918501809184019817D9F08091850120
:1024700090918401891B87FD805F882391F0E09112
:10248000850180918401E81761F0EF5FE03108F089
:10249000E0E0E0938501F0E0EC58FE4F008101118F
:1024A00001C00FEF10E040920302509204026092CC
:1024B00005027092060280910202811104C061E05F
:1024C00080E10E942604003E110509F0EAC1209235
:1024D000D9010E94830C86E00E94B3036C0181E065
:1024E000C114D10409F080E08093FE0188E00E94CD
:1024F000B3037C0181E0E114F10409F080E08093F2
:10250000FF0189E00E94B3038C0181E001151105F0
:1025100009F080E0809300028AE00E94B3034C013E
:1025200081E08114910409F080E0809301028EE043
:102530000E94B3035C0181E0A114B10409F080E0C2
:102540008093FC0181E10E94B30321E0009709F030
:1025500020E02093FD01AB2851F0892B41F0CD28DC
:1025600031F0EF2821F0012B11F0892881F48091BE
:102570000202811104C061E080E10E9426044092C1
:102580000302509204026092050270920602ECEF80
:10259000F1E090E080E060E0419101E010E020E0B7
:1025A00030E0082E04C0000F111F221F331F0A94B1
:1025B000D2F7442311F40C94A41B602B01968630AF
:1025C000910551F78DE00E94A70880910302909138
:1025D0000402A0910502B091060293018201081B3A
:1025E000190B2A0B3B0BD901C801883C9105A105A9
:1025F000B10540F080910202811104C060E080E1E9
:102600000E9426048091F8019091F901A091FA01AD
:10261000B091FB01A3019201281B390B4A0B5B0B04
:10262000DA01C901843F9140A105B10540F10E9442
:1026300060089093F7018093F6010E94440880930C
:10264000F5010E942808809309010E941A088093CE
:1026500008010E94E6078093F4010E94CA07809354
:10266000F3010E94AE078093F2010E94C90A4092D2
:10267000F8015092F9016092FA017092FB01809189
:102680000601909107011816190654F52091F101E1
:10269000211126C04091ED015091EE016091EF01B2
:1026A0007091F00193018201041B150B260B370B6F
:1026B000B901A801493E53406105710588F00197B1
:1026C00090930701809306010E949E058093F1017B
:1026D0004092ED015092EE016092EF017092F00194
:1026E0008091F101882309F471C08091E9019091F2
:1026F000EA01A091EB01B091EC01A3019201281B2A
:10270000390B4A0B5B0BDA01C90185369105A1052E
:10271000B10508F45BC08BEE90E00E940D050E94AD
:10272000B904082F0E94B904182F0E94B904F82E8A
:1027300080916E03882339F00E94B904482F880FD6
:10274000550B5C834B839091E80193259093E801AE
:102750001093E701F092E601302F3270202F2470A1
:102760008B8100FD02C00C94A81B80618093E50161
:102770008091E501332309F4EEC780628093E5017F
:102780008091E501222309F4E8C780648093E50184
:102790008091E501992309F4E2C780688093E501FF
:1027A000612F8AE00E94A7086091E6018BE00E94F9
:1027B000A7086091E5018CE00E94A7084092E9011A
:1027C0005092EA016092EB017092EC01809102025A
:1027D000882359F11091E401112321F061E080E197
:1027E0000E9426048091E0019091E101A091E20114
:1027F000B091E301A3019201281B390B4A0B5B0B3B
:10280000DA01C90184369105A105B10570F0409245
:10281000E0015092E1016092E2017092E301111136
:1028200004C060E080E10E9426048091DF018823DB
:1028300059F11091DE01112321F061E08FE00E9437
:1028400026048091DA019091DB01A091DC01B09126
:10285000DD01A3019201281B390B4A0B5B0BDA0146
:10286000C90184369105A105B10570F04092DA01E5
:102870005092DB016092DC017092DD01111104C005
:1028800060E08FE00E94260480E090E0892B09F44C
:10289000CCCD0E944503882309F4C7CD0E940000D7
:1028A000C0CD013E110529F42092D9012092D80112
:1028B00010CE6091D701003F110529F4611103C0CA
:1028C0002092D70106CE8091D901811105C0809157
:1028D000D801882309F4E1C080E091E0080F191FB6
:1028E0001092D6016093C201812F81708093CE0136
:1028F00007FB882780F98093CD0106FB882780F9A4
:102900008093CC0105FB882780F98093CB0104FBE1
:10291000882780F98093CA0103FB882780F9809378
:10292000C90102FB882780F98093C80101FB882731
:1029300080F98093C701802F81708093C601053490
:10294000110509F46AC40CF0D3C10332110509F46E
:102950001CC40CF04BC10E30110509F463C50CF01A
:10296000F9C00730110509F4BCC60CF0CDC0043025
:10297000110509F4DEC50CF093C00130110509F40E
:1029800066C60330110509F434C680918601909122
:1029900087012091D601222309F4CBC6009709F0C4
:1029A000C8C610929601809194018823C1F080914D
:1029B00093018823A1F080919201882381F01092E5
:1029C000940110929301109292011092950110922D
:1029D000D60110928701109286010E94DD0C809131
:1029E00094018823C1F0809193018823A1F0809104
:1029F0009001882381F0109294011092930110921B
:102A00009001109295011092D601109287011092B8
:102A100086010E94C20C809194018823A1F18091CB
:102A20009301882381F180918F01882361F11092B5
:102A300094011092930110928F01109295011092BF
:102A4000D601109287011092860189E290E00E94DF
:102A500040062092BF010E94830C20929F010E9499
:102A6000830C64EF71E080E090E00E940E0610920B
:102A7000BF010E94830C64EF71E080E090E00E944F
:102A80000E0610929F011092D7018091D8018823E1
:102A900009F456C61092D8011CCD90E080E01ECFFC
:102AA0000530110509F40FC50630110509F06DCF89
:102AB0008091910181110AC080919401882309F4C9
:102AC00032C580919301882309F42DC561115DCF32
:102AD00020928E0110928D0184E090E09A83898388
:102AE0006AE0CE0101960E94480D60918D0185E05B
:102AF00090E00E94610D80918E018093CF018091C2
:102B00008D018093D00141CF0B30110509F493C59D
:102B100074F40930110509F4BCC50A30110509F037
:102B200034CF63256093BC016093BE012ECF0C307F
:102B3000110509F42EC50D30110509F026CF862F99
:102B40008325809396018093AB018DE090E00E94F5
:102B50004A061BCF0A31110509F45BC344F5043161
:102B6000110509F481C2BCF40131110509F48DC2CB
:102B70000231110509F009CF80910501882309F47C
:102B800070C28FE090E063258A569E4FFC016083FF
:102B900060939501FACE0531110509F422C306317F
:102BA000110509F0F2CE632560939901EECE0D3147
:102BB000110509F426C364F40B31110509F415C39A
:102BC0000C31110509F0E1CE632560939701DDCE4C
:102BD0000132110509F4D5C20CF017C30E311105ED
:102BE00009F0D3CE63256093A101CFCE0333110545
:102BF00009F4DBC20CF03FC00B32110509F4CDC261
:102C0000ECF40632110509F40CC364F40432110526
:102C100009F4BFC20532110509F0B7CE63256093F0
:102C2000B101B3CE0932110509F4A7C20A32110568
:102C300009F0ABCE63256093B601A7CE0E32110525
:102C400009F4F3C264F40C32110509F4D2C20D3256
:102C5000110509F09ACE63256093B00196CE013339
:102C6000110509F4B6C20233110509F08ECE6325B1
:102C70006093BD018ACE0C33110509F4BEC2ECF499
:102C80000633110509F4D5C264F40433110509F4BF
:102C900088C20533110509F078CE63256093BB0126
:102CA00074CE0A33110509F490C20B33110509F0F3
:102CB0006CCE63256093B40168CE0134110509F42C
:102CC000E0C264F40D33110509F4B7C20E331105E7
:102CD00009F05BCE63256093AA0157CE033411053A
:102CE00009F467C20CF469C263256093A3014DCE59
:102CF0000537110509F4BDC20CF0D4C00935110522
:102D000009F43ACF0CF086C00D34110509F465C200
:102D10000CF047C00A34110509F410C30CF5063451
:102D2000110509F48EC20934110509F02ECE362F93
:102D300033253093A5012091950182E290E0211185
:102D400002C087E190E08A569E4FFC0130836623E3
:102D500021F01092B8011092AD012093D60115CE4A
:102D60000B34110509F42DC20C34110509F00DCEF8
:102D7000362F33253093A5012091950188E090E00E
:102D8000211102C08DE090E08A569E4FFC013083F5
:102D9000662321F010929E011092A3012093D60188
:102DA000F4CD0435110509F485C20CF50E34110576
:102DB00009F41FC30235110509F0E7CD362F33257D
:102DC0003093A5012091950185E090E0211102C08A
:102DD0008CE190E08A569E4FFC013083662321F0FF
:102DE00010929B011092B2012093D601CECD0535F1
:102DF000110509F4E5C20835110509F0C6CD862F85
:102E000083258093A5018093960188E590E00E9438
:102E10004A06BBCD0B36110509F41FC244F50D352A
:102E2000110509F4A4C2BCF40A35110509F4D3C094
:102E30000B35110509F0A9CD80910501811165C2FD
:102E40006111A3CD80919501882309F45CC281E2D0
:102E50000E94F80C9ACD0636110509F481C1093695
:102E6000110509F092CD6325609399018ECD01374C
:102E7000110509F45CCF64F40C36110509F4F5C1B1
:102E80000037110509F081CD632560939A017DCD4E
:102E90000337110509F4E5C10CF4D7C1632560932C
:102EA000BA0173CD0F3221E0120709F418C10CF0FA
:102EB0007DC00C37110509F4CCC2CCF509371105DA
:102EC00009F4CDC234F50637110509F431C10837CC
:102ED000110509F05ACD8091910181110AC08091AC
:102EE0009401882309F4F7C380919301882309F49E
:102EF000F2C361114ACD6091890163256093890114
:102F000090E080E00E94610D809189018093C00172
:102F10003CCD0A37110509F49CC10B37110509F0A6
:102F200034CD63256093A5016093B4012ECD0338A1
:102F3000110509F486C39CF40D37110509F49DC1F0
:102F40000E37110509F021CD662309F41ECD8091BD
:102F500088018325809388018093C30116CD0231B7
:102F600041E0140709F4D4C3043151E0150709F412
:102F70007BC00131114009F008CD162F13251093A5
:102F8000A5012091050187E090E0211102C090E0A9
:102F900080E08A569E4FFC011083211104C081E11C
:102FA00091E00E944A0610939301EFCC0037E1E0D4
:102FB0001E0709F498C014F5093621E0120709F438
:102FC0007CC26CF40A3441E0140709F4B7C10A3535
:102FD000114009F0DACC632560939C01D6CC0B3606
:102FE00081E0180709F48EC00C36114009F0CDCCF1
:102FF00063256093AC016093BE01C7CC0437F1E058
:103000001F0709F48AC0A4F4013731E0130709F45B
:1030100055C00237114009F0B8CC862F8325809324
:1030200096018093BA0182E791E00E944A06ADCCF6
:103030000A3751E0150709F42CC20D3781E0180753
:1030400009F413C20537114009F09FCC862F832560
:10305000809396018093B20185E791E00E944A0631
:1030600094CC90E080E08FCD80910501882351F0D1
:1030700090E080E063258A569E4FFC016083609358
:10308000940183CC8FE090E0F5CF162F1325109399
:10309000A5012091050186E090E0211102C090E099
:1030A00080E08A569E4FFC011083211104C081E10B
:1030B00090E00E944A061093930167CC63258091AB
:1030C0000501882339F060939B016093BE016093F2
:1030D00092015BCC6093A5016093AE01F8CF6325AC
:1030E0006093910152CC632580910501882329F0DA
:1030F0006093A3016093BE0148CC6093A5016093E7
:10310000970143CC862F8325809396018093B90144
:103110008BE691E00E944A0638CC862F8325809367
:1031200096018093AA0184E791E00E944A062DCC83
:10313000162F13251093960180910501882369F0BD
:1031400083E090E08A569E4FFC01108386E790E072
:103150000E944A061093900118CC87E090E0F2CFCD
:10316000162F13251093960110939A0186E690E08E
:103170000E944A0610938F0108CC632560939D013D
:1031800004CC63256093AE0100CC63256093A70156
:10319000FCCB63256093A801F8CB63256093AF0156
:1031A000F4CB63256093B701F0CB63256093BC013A
:1031B000ECCB63256093AB01E8CB63256093AC0156
:1031C000E4CB63256093A401E0CB63256093AD015C
:1031D000DCCB63256093B501D8CB632560939B015D
:1031E000D4CB632560939801D0CB632560939F0176
:1031F000CCCB63256093B801C8CB63256093B30142
:10320000C4CB63256093A001C0CB63256093A60166
:10321000BCCB632560939E01B8CB632560939A0174
:10322000B4CB63256093A901B0CB63256093B9014A
:10323000ACCB63256093BA01A8CB63256093B20140
:10324000A4CB63256093A201A0CB63256093A10169
:103250009CCB63256093A90198CB63256093B10152
:1032600094CB63256093B90190CB63256093B20141
:103270008CCB63256093AA0188CB63256093A20160
:1032800084CB362F33253093A501209195018AE117
:1032900090E0211102C08FE190E08A569E4FFC0120
:1032A0003083662321F01092B0011092B501209373
:1032B000D6016BCB8091050181110CC0611165CBEA
:1032C00080919501882321F089E10E94F80C5DCB63
:1032D00085E2FBCF262F23252093A5018091950120
:1032E000882371F089E190E08A569E4FFC0120838B
:1032F000662309F44ACB1092AF011092BB0145CB73
:1033000085E290E0F1CF8DE1A3CD262F23252093F8
:10331000A50180919501882371F081E290E08A56A1
:103320009E4FFC012083662309F42FCB1092B70136
:103330001092B3012ACB8DE190E0F1CF362F3325E7
:103340003093A5012091950188E190E0211102C000
:1033500080E290E08A569E4FFC013083662321F084
:103360001092AE011092B6012093D6010ECB80913F
:10337000050181110CC0611108CB80919501882352
:1033800021F089E00E94F80C00CB81E1FBCF262FD1
:1033900023252093A50180919501882371F089E070
:1033A00090E08A569E4FFC012083662309F4EDCA03
:1033B00010929F011092A701E8CA81E190E0F1CF3D
:1033C000362F33253093A5012091950186E190E0B9
:1033D000211102C08EE090E08A569E4FFC0130839E
:1033E000662321F01092AC011092A4012093D60123
:1033F000CCCA362F33253093A5012091950184E066
:1034000090E0211102C08EE190E08A569E4FFC01AF
:103410003083662321F010929A011092B401209318
:10342000D601B3CA80919501882329F0611103C0A8
:1034300081E00E94F80C90919501911107C0809154
:10344000D70183258093A5018093A6019093D6018F
:103450009CCA63256093A5016093BD0196CA63254C
:103460006093A5016093AC0190CA862F832590914B
:103470000501992329F08093AD018093BE0185CA8F
:10348000809396018093A9018DE791E00E944A06FE
:103490007CCA862F832590910501992329F080937A
:1034A000B5018093BE0171CA809396018093B101EA
:1034B0008AE791E00E944A0668CA63256093A401E6
:1034C0006093BE0162CA80919101811108C0809110
:1034D0009401882311F1809193018823F1F0611107
:1034E00054CA10928E0110928D0184E090E09A836C
:1034F000898364E1CE0101960E94480D60918D019F
:1035000085E090E00E94610D80918E018093CF0153
:1035100080918D018093D00138CA63256093970113
:103520006093BE0132CA63256093BD016093BE0102
:103530002CCA80919101811108C080919401882347
:1035400011F1809193018823F1F061111ECA10924C
:103550008E0120928D0184E090E09A83898364E15A
:10356000CE0101960E94480D60918D0185E090E0AA
:103570000E94610D80918E018093CF0180918D0119
:103580008093D00102CA63256093AE016093BE01AF
:10359000FCC980919101811108C080919401882318
:1035A00011F1809193018823F1F06111EEC920920D
:1035B0008E0120928D0184E090E09A8389836AE0F5
:1035C000CE0101960E94480D60918D0185E090E04A
:1035D0000E94610D80918E018093CF0180918D01B9
:1035E0008093D001D2C963256093A7016093BE0187
:1035F000CCC980919101811108C0809194018823E8
:10360000A1F080919301882381F06111BEC960917E
:103610008C01632560938C0186E090E00E94610D2F
:1036200080918C018093D101B0C963256093A8017A
:103630006093BE01AAC963256093AF016093BE0188
:10364000A4C963256093B7016093BE019EC98091B0
:103650009101811108C0809194018823A1F080918B
:103660009301882381F0611190C960918B016325DA
:1036700060938B0182E090E00E94610D80918B014C
:103680008093C40182C963256093AB016093BE013E
:103690007CC980919101811108C080919401882397
:1036A000A1F080919301882381F061116EC960912E
:1036B0008A01632560938A0183E090E00E94610D96
:1036C00080918A018093C50160C963256093B4012C
:1036D0006093BE015AC96325609398016093A50168
:1036E00054C980919101811108C08091940188236F
:1036F00049F080919301882329F0611146C90E9405
:10370000C20C43C963256093A0016093A5013DC924
:10371000662309F43AC960910501632560930501A8
:1037200081E090E00E94610D809105018093D201BB
:103730002CC9181619060CF036C92092960133C907
:103740001092D9010C946912009560230C94DE123A
:103750008F7E0C94B6138F7D11C88F7B17C88F771F
:103760001DC8F8940C94041CAA1BBB1B51E107C094
:10377000AA1FBB1FA617B70710F0A61BB70B881F01
:10378000991F5A95A9F780959095BC01CD01089590
:1037900097FB072E16F4009407D077FD09D00E94FE
:1037A000B41B07FC05D03EF4909581959F4F08957A
:1037B000709561957F4F0895F999FECF92BD81BDB7
:1037C000F89A992780B50895262FF999FECF1FBA48
:1037D00092BD81BD20BD0FB6F894FA9AF99A0FBE3A
:1037E00001960895991B79E004C0991F961708F077
:1037F000961B881F7A95C9F780950895EE0FFF1FD5
:0C3800000590F491E02D0994F894FFCF9E
:10380C0089038903010102000101000000002A0262
:10381C00FD018603E601F6018D01E70100000000C1
:10382C00BD0259035E0225038F026D0281020D0A4F
:06383C0000646F6E6500E0
:00000001FF
