:100000000C9412010C94870F0C94600F0C943A011D
:100010000C943A010C943A010C943A010C943A0174
:100020000C943A010C943A010C943A010C943A0164
:100030000C943A010C943A010C943A010C943A0154
:100040000C94AE0F0C943A010C942E0F0C94080FE4
:100050000C943A010C943A010C943A010C943A0134
:100060000C94E90D0C943A01646F6E650052544390
:1000700020696E697420726571756573742E2E2EF9
:1000800000556E6B6E6F776E005265762E43005290
:1000900065762E41207769746820544441313534A7
:1000A000334120444143005265762E4120776974E4
:1000B0006820544441313534332044414300465094
:1000C000474120626F617264207265766973696F5F
:1000D0006E2069733A2000646F6E65004650474198
:1000E00020696E697420726571756573742E2E2E89
:1000F0000000000000250028002B00000000002365
:10010000002600290000000008000201000003048E
:10011000070000000000000000000000002400278D
:10012000002A000102040810204080010204081087
:10013000200102040810200404040404040404023E
:100140000202020202030303030303537461727485
:10015000696E67206D61696E206C6F6F7000646FEF
:100160006E65005254432073656E6420616C6C2090
:100170007265676973746572732E2E2E00646F6EDC
:10018000650052544320696E69742E2E2E004D6F07
:1001900075736520696E69742E2E2E004B65796229
:1001A0006F61726420696E69742E2E2E005761692A
:1001B00074696E6720666F72204650474120696EF1
:1001C00069742072657175657374005A58204B65A7
:1001D00079626F617264202F206D6F757365202FB7
:1001E0002072746320636F6E74726F6C6C65722022
:1001F00076312E3000646F6E650042544E323A20E4
:1002000052657365742E2E2E00646F6E6500425425
:100210004E313A2046756C6C2072657365742E2ED3
:100220002E00F80F11241FBECFEFD8E0DEBFCDBFE8
:1002300023E0A6E3B1E001C01D92AB37B207E1F7BE
:1002400011E0A0E0B1E0E2E7F9E302C005900D9211
:10025000A633B107D9F711E0C2E1D1E004C021977C
:10026000FE010E94B11CC131D107C9F70E944210A2
:100270000C94641C0C9400002091C60281E0213291
:1002800008F044C08091A2028111FCCF8091C50288
:1002900092E09093A20291E09093A1029FEF90933D
:1002A000A00210929F0220939E02A5EAB2E0EEE720
:1002B000F2E090E0291331C010927D0290917D020E
:1002C000880F892B80937D0280917C02813049F5D3
:1002D00010927C0280917D028093BB008091BC00D3
:1002E00083FDF8CF85EC8093BC008091A202823020
:1002F000E1F38091A0028F3FB1F08091A0028032A3
:10030000A1F08091A002803391F084E01092A402C9
:100310001092C6021092A30208953D9131939F5FFF
:10032000C9CF85EEE0CF80E0F1CF82E0EFCF83E070
:10033000EDCF91E09093A3028093C5021092A402A6
:100340001092C602089590917B0280917A022FEF5D
:100350003FEF981748F4E92FF0E0E65AFD4F20816F
:1003600030E09F5F90937B02C901089590917B02DA
:1003700080917A022FEF3FEF981748F4E92FF0E0D1
:10038000E65AFD4F208130E09F5F90937B02C901C8
:10039000089585ED8093BC008091BC0084FDFCCF66
:1003A0001092A202089520913502260F3327331FA1
:1003B00021323105ECF42091A202FC0190E080E0B2
:1003C000243069F082E00895A09135022191AC01BA
:1003D0004D5E5D4FA40FB52FB11D2C93019686176E
:1003E00098F380913502680F6093350280E008959C
:1003F00081E00895089508950895E0917B02809129
:100400007A02E81730F4F0E0E65AFD4F808190E080
:1004100008958FEF9FEF089580917A0290917B026B
:10042000891B990B0895CF92DF92EF92FF920F9361
:100430001F93CF93DF937C01CB018A012091A3020C
:10044000222389F0EB016B01C40ED51ECC15DD050E
:1004500069F06991D701ED91FC910190F081E02D57
:10046000C7010995F3CF642F0E94D301C801DF9122
:10047000CF911F910F91FF90EF90DF90CF90089553
:10048000CF93DF931F92CDB7DEB769832091A3028C
:100490002223F9F02091C602203258F021E030E00A
:1004A000FC013383228390E080E00F90DF91CF91B5
:1004B00008958091A402E82FF0E0EB55FD4F99815B
:1004C00090838F5F8093A4028093C60281E090E0C6
:1004D000ECCF61E0CE0101960E94D301F7CF682FE7
:1004E0008BEC92E00C944002FC01538D448D252F3F
:1004F00030E0842F90E0821B930B541710F0CF96BE
:10050000089501970895FC01918D828D981761F0EF
:10051000A28DAE0FBF2FB11D5D968C91928D9F5F06
:100520009F73928F90E008958FEF9FEF0895FC01E5
:10053000918D828D981731F0828DE80FF11D858D98
:1005400090E008958FEF9FEF0895FC01918D228D2B
:10055000892F90E0805C9F4F821B91098F739927B0
:100560000895FC01A48DA80FB92FB11DA35ABF4F48
:100570002C91848D90E001968F739927848FA689A2
:10058000B7892C93A089B1898C91837080648C93F6
:10059000938D848D981306C00288F389E02D8081A5
:1005A0008F7D80830895EF92FF920F931F93CF93D7
:1005B000DF93EC0181E0888F9B8D8C8D98131AC09E
:1005C000E889F989808185FF15C09FB7F894EE8985
:1005D000FF896083E889F9898081837080648083E2
:1005E0009FBF81E090E0DF91CF911F910F91FF902D
:1005F000EF900895F62E0B8D10E00F5F1F4F0F73D5
:100600001127E02E8C8D8E110CC00FB607FCFACF8F
:10061000E889F989808185FFF5CFCE010E94B1027A
:10062000F1CFEB8DEC0FFD2FF11DE35AFF4FF08260
:100630009FB7F8940B8FEA89FB8980818062CFCFC6
:100640000F931F93CF93DF938C01D0E0C0E0F801AC
:10065000EC0FFD1F6491662341F087ED92E00E944C
:10066000D302892B11F02196F2CFCE01DF91CF91E9
:100670001F910F910895CF93DF93EC01888D88230C
:10068000B9F0AA89BB89E889F9898C9185FD03C0F5
:10069000808186FD0DC00FB607FCF7CF8C9185FFDA
:1006A000F2CF808185FFEDCFCE010E94B102E9CF6C
:1006B000DF91CF91089587ED92E00E94A50221E09D
:1006C000892B09F420E0822F089580E090E0892BA7
:1006D00029F00E945B0381110C9400000895AF92F1
:1006E000BF92CF92DF92EF92FF920F931F93CF931F
:1006F000DF936C017B018B01040F151FEB015E0181
:10070000AE18BF08C017D10759F06991D601ED9115
:10071000FC910190F081E02DC6010995892B79F7B4
:10072000C501DF91CF911F910F91FF90EF90DF9066
:10073000CF90BF90AF90089590E080E008958E50E4
:10074000806480937C0080917A00806480937A003A
:1007500080917A0086FDFCCF80917800909179009D
:1007600008950895833081F028F4813099F0823023
:10077000A9F008958730A9F08830C9F08430B1F429
:10078000809180008F7D03C0809180008F7780935F
:100790008000089584B58F7784BD089584B58F7DDA
:1007A000FBCF8091B0008F778093B0000895809147
:1007B000B0008F7DF9CFCF93DF93282F30E0F90180
:1007C000EB5FFE4F8491F901ED5DFE4FD491F9018D
:1007D000E95CFE4FC491CC23A1F081110E94B203C9
:1007E000EC2FF0E0EE0FFF1FE550FF4FA591B49105
:1007F000EC91ED2381E090E009F480E0DF91CF916E
:10080000089580E090E0FACFCF92DF92EF92FF92CE
:10081000CF93DF93EC018FB7F894C090C702D090CC
:10082000C802E090C902F090CA028FBF2FB7F894B7
:100830008091C7029091C802A091C902B091CA02EA
:100840002FBF8C199D09AE09BF09883E9340A105B1
:10085000B10578F4809176030E94DB038C179D0725
:1008600029F781E0DF91CF91FF90EF90DF90CF905B
:10087000089580E0F7CFCF93DF9390E080E00E946F
:100880000404809178030E94DB03EC0181E090E096
:100890000E940404CE01DF91CF9108951F93CF935E
:1008A000DF93282F30E0F901EB5FFE4F8491F901CF
:1008B000ED5DFE4FD491F901E95CFE4FC491CC236C
:1008C000A9F0162F81110E94B203EC2FF0E0EE0F79
:1008D000FF1FEF50FF4FA591B4918FB7F894EC91A3
:1008E000111108C0D095DE23DC938FBFDF91CF912B
:1008F0001F910895DE2BF8CFCF93DF9390E0FC019A
:10090000ED5DFE4F2491895C9E4FFC01849188230C
:10091000C9F090E0880F991FFC01E75EFE4FA5919A
:10092000B491FC01EF50FF4FC591D49161110DC0FE
:100930009FB7F8948C91209582238C9388812823EB
:1009400028839FBFDF91CF910895623051F49FB704
:10095000F8943C91822F809583238C93E8812E2BF1
:10096000EFCF8FB7F894EC912E2B2C938FBFEACF5B
:10097000CF93C82F60E00E947C0461E08C2FCF9160
:100980000C944E04CF93C82F61E00E947C0460E079
:100990008C2FCF910C944E042091780330917903E1
:1009A000019759F4C9010E94B80481E090E00E94C7
:1009B000040490E080E00C940404C9010E94C20485
:1009C000F4CFCF92DF92EF92FF920F931F93CF93CA
:1009D00080917603909177030E94B8048091780308
:1009E000909179030E94B80483EC90E00197F1F7AD
:1009F00090E080E00E9404048FE090E00197F1F71E
:100A000081E090E00E940404C0E010E000E0C12C0E
:100A1000D12C7601C3940E943B04B701A601002E9D
:100A200004C0440F551F661F771F0A94D2F7892B05
:100A3000C9F0C42B0F5F1F4F0830110561F70E94EA
:100A40003B040E943B0480917603909177030E94BF
:100A5000C2048C2FCF911F910F91FF90EF90DF90E8
:100A6000CF9008954095C423E5CFBF92CF92DF92F7
:100A7000EF92FF920F931F93CF93DF93C82E809135
:100A80007803909179030E94B80480917603909145
:100A900077030E94B804CBEAD4E0CE010197F1F7C6
:100AA00080917603909177030E94C2042197F1F719
:100AB00080917803909179030E94C20483E290E0D0
:100AC0000197F1F780917603909177030E94B80423
:100AD00090E080E00E940404B82E882309F43FC00F
:100AE000EE24E394F12CD0E0C0E00C2C000CDD08E7
:100AF00086010C2E02C0159507950A94E2F7017045
:100B00001127C8010E94CC04E026F1262196C830A6
:100B1000D10571F7C7010E94CC04809178039091B0
:100B200079030E94B80483EC90E00197F1F790E01C
:100B300080E00E940404809176030E94DB03892BED
:100B4000D1F3809178030E94DB03892BA1F380917C
:100B50007603909177030E94C2040E94E1048B2DDA
:100B6000DF91CF911F910F91FF90EF90DF90CF9089
:100B7000BF900895CF93DF93EC0183EF90E00E9444
:100B80003505CE01DF91CF910C943505CF9380913F
:100B90007603909177030E94B80480917803909136
:100BA00079030E94B8048FEF90E00E943505C82FAA
:100BB0008823A1F10E94E1040E94E10488EC90E006
:100BC0000E94BA0584E690E00E94BA0580E590E0B4
:100BD0000E94BA0582EF90E00E9435050E94E10470
:100BE00091E0833009F090E090937A0388EE90E0F2
:100BF0000E94350583E090E00E94350586EE90E086
:100C00000E94350588E290E00E94BA0580EF90E0EE
:100C10000E9435058BE891E00197F1F78C2FCF9179
:100C200008953FB7F89480916B0190916C01A09169
:100C30006D01B0916E0126B5A89B05C02F3F19F03C
:100C40000196A11DB11D3FBFBA2FA92F982F88274C
:100C5000BC01CD01620F711D811D911D42E0660F27
:100C6000771F881F991F4A95D1F708958F929F92F9
:100C7000AF92BF92CF92DF92EF92FF924B015C0155
:100C80000E9411066B017C010E9411066C197D09FE
:100C90008E099F09683E734081059105A8F321E004
:100CA000821A9108A108B10888EEC80E83E0D81E08
:100CB000E11CF11C81149104A104B10429F7FF90F7
:100CC000EF90DF90CF90BF90AF909F908F9008955E
:100CD000E6E9F1E011929F012659314028173907C2
:100CE000CCF30895CF92DF92EF92FF920F931F9370
:100CF000CF93DF93CDB7DEB7A8970FB6F894DEBFDA
:100D00000FBECDBF2091860130918701611133C0A4
:100D100012161306A4F4EDE3F1E050E040E0A191D7
:100D2000B1918A179B0709F461E04F5F5F4F42174B
:100D30005307A9F7611110C02431310569F0F90199
:100D4000EE0FFF1FE35CFE4F918380832F5F3F4FC9
:100D50003093870120938601A8960FB6F894DEBFE2
:100D60000FBECDBFDF91CF911F910F91FF90EF90FC
:100D7000DF90CF900895FE01319648E2DF011D9289
:100D80004A95E9F71216130684F50DE311E0780190
:100D900050E040E070E060E0D701CD90DD907D0153
:100DA0008C159D0549F0DA01AA0FBB1FAE0FBF1FBE
:100DB000CD92DC924F5F5F4F6F5F7F4F621773077B
:100DC00059F74115510589F090E080E0219131916A
:100DD000D8012D933D938D01019684179507B1F7A6
:100DE0005093870140938601B7CF50E040E0F8CFA1
:100DF000CF92DF92EF92FF920F931F938091700139
:100E00000E94DB039FB7F8944091C7025091C8023B
:100E10006091C9027091CA029FBF0091390110917F
:100E20003A0120913B0130913C016A017B01C01ADB
:100E3000D10AE20AF30A970186010B3F1105210549
:100E4000310510F0109238014093390150933A0166
:100E500060933B0170933C01909138019F5F9093A8
:100E600038019A3038F4923060F59130F9F01092F0
:100E7000380120C09A30A9F19B30C9F78091360122
:100E80008D3FA8F7809184018F5F803108F080E06A
:100E900090918501981759F3E82FF0E09091370170
:100EA000EC58FE4F908380938401E1CF109237017C
:100EB000109236011F910F91FF90EF90DF90CF902D
:100EC000089590913601980F909336012091370143
:100ED00030E035952795811180E8282B2093370144
:100EE000E9CF909136019170981719F090933601DF
:100EF000E1CF8DEF80933601DDCF8091A202811189
:100F0000FCCF81E08093A2028093A1029FEF909397
:100F1000A00210929F0210929E0280937D02809107
:100F20007D02806D80937D0280917C02813021F56D
:100F300010927C0280917D028093BB008091BC0066
:100F400083FDF8CF85EC8093BC008091A2028130B4
:100F5000E1F380919F0291E0811102C090919F0284
:100F6000AEE7B2E0EAE5F2E080E0891307C0109254
:100F70007B0280937A02089585EEE5CF2D9121932F
:100F80008F5FF3CF88E60E94990182E090E00E9493
:100F90006F020E943C010E947D070E94B60126E07C
:100FA000969587952A95E1F78170089588E60E94C5
:100FB000990190E080E00E946F020E943C010E9433
:100FC0007D070E94B6018F77282F30E094E0359599
:100FD00027959A95E1F7922F990F990F291B220FC8
:100FE000820F089588E60E94990181E090E00E94B6
:100FF0006F020E943C010E947D070E94B6019C0185
:1010000094E0359527959A95E1F72F703327922F25
:10101000990F990F291B220F820F0895CF930E94D9
:10102000C207C82F88E60E94990182E090E00E94E2
:101030006F020E943C010E947D070E94B601C1110F
:1010400010C0AC0194E0559547959A95E1F74F7023
:101050005527942F990F990F491B440F840FCF9157
:101060000895482F4F79242F30E084E03595279557
:101070008A95E1F7822F880F880F922F981B892F6E
:10108000880FECCF88E60E94990183E090E00E94EF
:101090006F020E943C010E947D070E94B6010895E4
:1010A00088E60E94990184E090E00E946F020E940D
:1010B0003C010E947D070E94B6019C0194E0359599
:1010C00027959A95E1F72F703327922F990F990F53
:1010D000291B220F820F089588E60E94990185E05E
:1010E00090E00E946F020E943C010E947D070E94D6
:1010F000B6019C0194E0359527959A95E1F72F70FC
:101100003327922F990F990F291B220F820F0895D1
:1011100088E60E94990186E090E00E946F020E949A
:101120003C010E947D070E94B6019C0194E0359528
:1011300027959A95E1F72F703327922F990F990FE2
:10114000291B220F820F90E08053984F089542E0B0
:1011500050E06EE271E087ED92E00C946F03CF9364
:10116000DF930E942003EC010E94A7088C0F9D1FB3
:10117000DF91CF910895CF93DF9344E050E061E396
:1011800071E087ED92E00E946F03EC010E94A708D6
:101190008C0F9D1FDF91CF9108950C948F1CCF93DE
:1011A000DF93D82FC62F90917403809175039CBD57
:1011B0008DBD60E087E00E944E04DEBD00000DB4EE
:1011C00007FEFDCFDEB5CEBD00000DB407FEFDCF9E
:1011D000CEB561E087E00E944E04DD2309F4BEC075
:1011E000DD3F59F5809173018111B8C08CED90E01D
:1011F0000E94200381E0809373010E94AB0C0E9447
:10120000910B0E94290D87ED90E00E94AF088EEBB4
:1012100090E00E9420038FE890E0C13051F087EA0F
:1012200090E0C13030F089E890E0C23011F081E800
:1012300090E0DF91CF910C94AF08DC3F09F03AC009
:101240008091710181118AC08DE690E00E94200397
:1012500081E0809371010E94910B88E690E00E94EA
:10126000AF08D058D03408F079C080916601D81307
:1012700005C080916501C81709F470C0D09366015C
:10128000C09365018D2F90E0DE3008F0A7C1845B2C
:10129000964FFC010C94B11C70099B09B109CA0955
:1012A000DE09460A5A0A760A8F0AA80AD60ADE0A10
:1012B000AE09AE09DE30A9F68C2F81708093E4016F
:1012C000C1FB882780F98093DE01C2FB882780F963
:1012D00080930E02C3FB882780F98093DF01C1CF82
:1012E00080917201882369F08C2F90E0B4E095958D
:1012F0008795BA95E1F7982F990F990F891B880F59
:10130000C80FC093F20188E60E94990190E080E046
:101310000E946F020E943C010E947D070E94B6015C
:101320008078C82B88E60E94990190E080E00E94B6
:101330006F028C2F80C080917201882369F08C2FFE
:1013400090E0A4E095958795AA95E1F7982F990FDD
:10135000990F891B880FC80FC0936901DF91CF9146
:10136000089580917201882369F08C2F90E0F4E059
:1013700095958795FA95E1F7982F990F990F891B05
:10138000880FC80FC093F30188E60E94990181E09D
:1013900090E0CDCF80917201882369F08C2F90E08E
:1013A000E4E095958795EA95E1F7982F990F990FC5
:1013B000891B880FC80FC0936801D0CF809172013C
:1013C000882369F08C2F90E074E0959587957A9545
:1013D000E1F7982F990F990F891B880FC80FC093B9
:1013E000F40188E60E94990182E090E00E946F0279
:1013F0000E943C010E947D070E94B601D82F88E61A
:101400000E94990182E090E00E946F026D2F6F7B35
:101410008BEC92E00E9440020E943C010E94C207B5
:10142000D82F88E60E94990182E090E00E946F0226
:101430008C2FD11109C06AE00E94A51C682F660F8D
:10144000680F660F6C0F10C0CD30B0F06CE00E94DA
:10145000A51C292F892F6AE00E94A51C682F660F02
:10146000680F660F620F60668BEC92E00E9440028C
:10147000DF91CF910C943C016AE00E94A51C682F7B
:10148000660F680F660F6C0F6064EECF809172017B
:10149000882369F08C2F90E064E0959587956A9594
:1014A000E1F7982F990F990F891B880FC80FC093E8
:1014B000670154CF80917201882369F08C2F90E0EE
:1014C00054E0959587955A95E1F7982F990F990FC4
:1014D000891B880FC80FC093080188E60E949901F4
:1014E00083E090E00E946F026C2FBECF809172016A
:1014F000882369F08C2F90E044E0959587954A9574
:10150000E1F7982F990F990F891B880FC80FC09387
:10151000090188E60E94990184E090E008CF80915B
:101520007201882369F08C2F90E034E095958795BF
:101530003A95E1F7982F990F990F891B880FC80FDB
:10154000C093F50188E60E94990185E090E0EFCE16
:1015500080917201882369F08C2F90E024E09595AA
:1015600087952A95E1F7982F990F990F891B880F76
:10157000C80FD0E0C053D84FD093F701C093F60105
:1015800088E60E94990186E090E00E946F02CE01F9
:1015900064E670E00E94671C282F6AE00E94A51C88
:1015A000682F660F680F660F620F5ECF6C2F6F7724
:1015B0008AE190E0DF91CF910C94971CC2FB8827C1
:1015C00080F991E0892780937201C1FB882780F917
:1015D000809304016C2F8BE190E0ECCF6C2F409650
:1015E000E9CF2091F20180917201882349F0822F86
:1015F0006AE00E94A51C982F990F890F880F280F69
:10160000622F80E40E94CF08809172012091F30143
:10161000622F882349F0822F6AE00E94A51C682F60
:10162000660F680F660F620F82E40E94CF089091E8
:101630000401809172012091F401992309F462C0A0
:10164000882349F0822F6AE00E94A51C982F990FE9
:10165000890F880F280F622F84E40E94CF088091A1
:10166000720120910801622F882349F0822F6AE0DD
:101670000E94A51C682F660F680F660F620F86E434
:101680000E94CF088091720120910901622F882366
:1016900049F0822F6AE00E94A51C682F660F680F30
:1016A000660F620F87E40E94CF088091720120913B
:1016B000F501622F882349F0822F6AE00E94A51C61
:1016C000682F660F680F660F620F88E40E94CF08CC
:1016D000209172018091F6019091F70164E670E02B
:1016E0000E947B1C682F222351F0282F862F6AE04E
:1016F0000E94A51C682F660F680F660F620F89E4B1
:101700000C94CF08882329F02D3008F49BCF2CE8C7
:1017100099CF2D3008F49FCF2CE89DCF805C0C949E
:10172000CF080F931F93CF93DF93D0E0C0E004E680
:1017300010E0CE3008F008C1EC2FF0E0EE55F44F89
:101740000C94B11CB00BCC0BDE0BF00B020C220C7A
:10175000420C540C660C780C8F0C970C9E0CA10C50
:101760002091F20180917201882349F0822F6AE072
:101770000E94A51C982F990F890F880F280F622FA0
:1017800080E00E948E0B2196C034D10591F6DF9146
:10179000CF911F910F91089520916901809172015D
:1017A000882349F0822F6AE00E94A51C982F990F88
:1017B000890F880F280F622F81E0E3CF2091F3017A
:1017C00080917201882349F0822F6AE00E94A51C53
:1017D000982F990F890F880F280F622F82E0D1CFA1
:1017E0002091680180917201882349F0822F6AE07C
:1017F0000E94A51C982F990F890F880F280F622F20
:1018000083E0BFCF809172012091F4019091040197
:10181000992371F0882349F0822F6AE00E94A51C69
:10182000982F990F890F880F280F622F84E0A9CF76
:10183000882321F02D3080F32CE8EECF2D30A8F353
:101840002CE8F3CF809172012091670190910401FF
:10185000992371F0882349F0822F6AE00E94A51C29
:10186000982F990F890F880F280F622F85E089CF55
:10187000882321F02D3080F32CE8EECF2D30A8F313
:101880002CE8F3CF2091080180917201882349F060
:10189000822F6AE00E94A51C982F990F890F880F4C
:1018A000280F622F86E06DCF20910901809172018F
:1018B000882349F0822F6AE00E94A51C982F990F77
:1018C000890F880F280F622F87E05BCF2091F501E9
:1018D00080917201882349F0822F6AE00E94A51C42
:1018E000982F990F890F880F280F622F88E049CF12
:1018F0008091F6019091F701B8010E947B1C282F7E
:1019000090917201992341F06AE00E94A51C982FE2
:10191000880F890F880F820F682F89E032CF8AE104
:1019200090E00E94CD08682F6F778AE02ACF8BE184
:1019300090E00E94CD08682F8BE023CF60E08CE020
:1019400020CF60E88DE01DCFCE0140960E94CD08EB
:10195000682F8C2F16CF8F929F92AF92BF92CF920B
:10196000DF92EF92FF920F931F93CF9306E911E05E
:10197000C0E0C12CD12C7601C394F80190E080E046
:1019800060E0219146015701082E04C0880C991C83
:10199000AA1CBB1C0A94D2F72223C9F0682901961D
:1019A0008830910571F7CF5F8C2F0E94CF08085FB8
:1019B0001F4FC83011F7CF911F910F91FF90EF90FB
:1019C000DF90CF90BF90AF909F908F9008958094BC
:1019D0006821E5CFCF93DF9389E290E00E9468060B
:1019E000C6E9D1E081E08BA70E94AB0C64E670E011
:1019F00080E090E00E94360689E290E00E9468064E
:101A00001BA6DF91CF910C94AB0C1F93CF93DF9368
:101A100089E290E00E946806C6E9D1E011E019A7CA
:101A20000E94AB0C19870E94AB0C64EF71E080E060
:101A300090E00E94360619A60E94AB0C64EF71E09C
:101A400080E090E00E9436061986DF91CF911F91C9
:101A50000895CF93DF9389E290E00E946806C6E97B
:101A6000D1E081E089A70E94AB0C64E670E080E0E1
:101A700090E00E94360689E290E00E94680619A66E
:101A8000DF91CF910C94AB0CFF920F931F93CF93E8
:101A9000DF93C82F89E290E00E9468060E94AB0C99
:101AA00064E170E080E090E00E94360606E911E013
:101AB000FF24F394F801F0820E94AB0C64E170E023
:101AC00080E090E00E943606F801F7860E94AB0C99
:101AD00064E170E080E090E00E943606F80117862D
:101AE0000E94AB0C64E170E080E090E00E9436065A
:101AF000D0E0CA56DE4FF8820E94AB0C64E170E081
:101B000080E090E00E943606F801108218820E9460
:101B1000AB0C64E170E080E090E0DF91CF911F9129
:101B20000F91FF900C943606FF920F931F93CF9363
:101B3000DF93EC01F62E08811981C8010E948F1CE9
:101B4000F81621F06F2DC8010E94971CCE01DF917D
:101B5000CF911F910F91FF900895CF93DF9300D005
:101B6000CDB7DEB761110CC064E19A838983CE01E1
:101B700001960E94940D0F900F90DF91CF910895E0
:101B80006AE0F3CFEF92FF921F93CF93DF9300D0E1
:101B9000CDB7DEB77C01162F0E94CD088A3011F038
:101BA000843169F411E08A3009F010E0812F0F9040
:101BB0000F90DF91CF911F91FF90EF90089564E116
:101BC00011116AE0FA82E982CE0101960E94940D19
:101BD000EDCF1F920F920FB60F9211242F933F93C8
:101BE0004F935F936F937F938F939F93AF93BF9325
:101BF000EF93FF938091B900887F803609F44AC043
:101C0000F0F5883209F4A7C018F5803109F49BC0BB
:101C1000B8F4882309F4F9C0883009F494C0FF911E
:101C2000EF91BF91AF919F918F917F916F915F9154
:101C30004F913F912F910F900FBE0F901F901895CD
:101C4000883109F488C0803251F78093A00214C013
:101C5000803409F49DC040F48033B9F38833F9F639
:101C60008093A00285ECB0C0803509F485C088352A
:101C700009F496C0883499F60E94C901D0CF8839FA
:101C800009F48CC038F5883729F050F4883611F003
:101C9000803729F683E08093A2021092590257C040
:101CA000883809F47BC0803919F0803809F0B7CF43
:101CB00080915902803208F071C0E091590281E0B0
:101CC0008E0F809359028091BB00F0E0E75CFD4FDE
:101CD00080833DC0803B39F0E0F4803A09F479C05C
:101CE000883A09F09CCF84E08093A20210923602D9
:101CF00010923502E0913302F091340209958091FF
:101D0000350281110FC081E08093350210921302D9
:101D100009C0803C09F4A6CF883C09F4A3CF883BD6
:101D200009F07DCFE091360281E08E0F809336027C
:101D3000F0E0ED5EFD4F80818093BB009091360214
:101D40008091350229C080917D028093BB0085EC93
:101D50008093BC0064CF90919F0280919E0298175F
:101D600058F5E0919F0281E08E0F80939F02F0E092
:101D7000E258FD4F8081E9CFE0919F0281E08E0F14
:101D800080939F028091BB00F0E0E258FD4F80837A
:101D900090919F0280919E029817C8F285E8D8CF53
:101DA000E0919F0281E08E0F80939F028091BB00A3
:101DB000F0E0E258FD4F80838091A10281115CCF59
:101DC00081E080937C0284EA8093BC001092A2029E
:101DD00026CF85EC8093BC001092A202809159021C
:101DE000803230F4E0915902F0E0E75CFD4F108260
:101DF0006091590270E0E0913702F091380289E376
:101E000092E00995109259020ACF1092A00234CFA5
:101E10001F920F920FB60F9211242F933F934F935F
:101E20005F936F937F938F939F93AF93BF93EF9342
:101E3000FF9387ED92E00E94B102FF91EF91BF9175
:101E4000AF919F918F917F916F915F914F913F9152
:101E50002F910F900FBE0F901F9018951F920F9209
:101E60000FB60F9211242F938F939F93EF93FF93AD
:101E7000E091E702F091E8028081E091ED02F091BB
:101E8000EE0282FD1BC090818091F0028F5F8F7304
:101E90002091F102821741F0E091F002F0E0E95266
:101EA000FD4F958F8093F002FF91EF919F918F915D
:101EB0002F910F900FBE0F901F9018958081F4CF37
:101EC0001F920F920FB60F9211242F933F934F93AF
:101ED0005F936F937F938F939F93AF93BF93EF9392
:101EE000FF93E0910201F09103010995FF91EF91B9
:101EF000BF91AF919F918F917F916F915F914F9122
:101F00003F912F910F900FBE0F901F9018951F9229
:101F10000F920FB60F9211242F933F934F935F931D
:101F20006F937F938F939F93AF93BF93EF93FF93A1
:101F3000E0910001F09101010995FF91EF91BF91AE
:101F4000AF919F918F917F916F915F914F913F9151
:101F50002F910F900FBE0F901F9018951F920F9208
:101F60000FB60F9211242F933F938F939F93AF93AC
:101F7000BF938091C7029091C802A091C902B0910D
:101F8000CA0230916A0123E0230F2D3758F50196DC
:101F9000A11DB11D20936A018093C7029093C802CE
:101FA000A093C902B093CA0280916B0190916C0119
:101FB000A0916D01B0916E010196A11DB11D80939C
:101FC0006B0190936C01A0936D01B0936E01BF9172
:101FD000AF919F918F913F912F910F900FBE0F90D6
:101FE0001F90189526E8230F0296A11DB11DD2CF90
:101FF000EBECF2E01382128288EE93E0A0E0B0E016
:1020000084839583A683B7832EE031E031832083D8
:10201000E7EDF2E01382128284839583A683B7836F
:1020200080E291E09183808385EC90E095878487BE
:1020300084EC90E09787868780EC90E0918B808B92
:1020400081EC90E0938B828B82EC90E0958B848B7B
:1020500086EC90E0978B868B118E128E138E148EE9
:10206000E6E7F3E083E090E09183808385E090E011
:10207000938382831482E4E7F3E080E5808381E048
:1020800081830895CF93DF9300D000D0CDB7DEB722
:10209000789484B5826084BD84B5816084BD85B543
:1020A000826085BD85B5816085BD80916E0081604F
:1020B00080936E00109281008091810082608093F5
:1020C00081008091810081608093810080918000F7
:1020D0008160809380008091B10084608093B10022
:1020E0008091B00081608093B00080917A0084601C
:1020F00080937A0080917A00826080937A00809148
:102100007A00816080937A0080917A008068809361
:102110007A001092C100E091E702F091E80282E0BB
:102120008083E091E302F091E4021082E091E50205
:10213000F091E60280E180831092EF02E091EB02E1
:10214000F091EC0286E08083E091E902F091EA02EE
:10215000808180618083E091E902F091EA028081D0
:1021600088608083E091E902F091EA0280818068D2
:102170008083E091E902F091EA0280818F7D808383
:1021800087ED92E00E943B0310927B0210927A024C
:102190001092A4021092C6021092A20281E08093D3
:1021A000A10210927C0261E082E10E944E0461E093
:1021B00083E10E944E048091B9008E7F8093B90024
:1021C0008091B9008D7F8093B90088E48093B80036
:1021D00085E48093BC008AEF91E090933402809371
:1021E00033028BEF91E0909338028093370288E6B8
:1021F0000E9499010E943C011FB7F89480916F01E1
:10220000811127C0E1E4F1E08491EDE2F1E09491E5
:10221000E82FF0E0EE0FFF1FE75EFE4FA591B491AF
:10222000EC91E92321F461E08AE00E944E0461E030
:102230008AE00E947C048CB580618CBD8CB5806482
:102240008CBD61E08DE00E947C0461E08BE00E9427
:102250007C0480916F018F5F80936F011FBF80911D
:102260007A00887F846080937A0061E087E00E9432
:102270007C0461E087E00E944E0461E080E10E94FE
:102280007C0461E080E10E944E0461E08FE00E94E6
:102290007C0461E08FE00E944E0462E084E10E94D1
:1022A0007C0462E085E10E947C0462E082E00E949E
:1022B0007C0462E084E00E947C0462E083E00E948F
:1022C0007C0462E085E00E947C0462E086E00E947B
:1022D0007C0462E088E00E947C0462E089E00E9465
:1022E0007C0462E08AE00E947C0462E08EE00E944E
:1022F0007C0462E081E10E947C0480E490E00E9422
:1023000068066091890190E080E00E94C20D809390
:1023100089016091050181E090E00E94C20D8093E7
:10232000050160918B0182E090E00E94C20D8093D4
:102330008B0160918A0183E090E00E94C20D80933E
:102340008A0160918E0184E090E00E94C20D80932A
:102350008E0160918D0185E090E00E94C20D809316
:102360008D0160918C0186E090E00E94C20D809307
:102370008C01909189019093C00190918B01909371
:10238000C40190918A019093C50190918E01909320
:10239000CF0190918D019093D0018093D1018091D4
:1023A00005018093D2018BEC91E00E94AF088DEA89
:1023B00091E00E94AF0880917301811105C060E037
:1023C0008FEF0E94CF08F7CF8CE991E00E942003A5
:1023D00084E08093700162E082E00E947C0462E00D
:1023E00084E00E947C04109284011092850188EFA1
:1023F00096E09093010180930001809169008C7FA9
:10240000826080936900E89A0E94BB088EE891E0A0
:102410000E9420030E94C6058093F1010E94BB0820
:1024200082E891E00E9420030E9488089093F701BF
:102430008093F6010E946C088093F5010E94500879
:10244000809309010E944208809308010E940E08AF
:102450008093F4010E94F2078093F3010E94D60753
:102460008093F2018BE190E00E94CD0882FB9927D6
:1024700090F921E092279093720186958170809364
:1024800004010E94F10A8DE791E00E94AF0880915B
:10249000710181110AC083E691E00E9420030E942D
:1024A000910B8EE591E00E94AF088BE491E00E94D1
:1024B000AF0860E080E10E944E043324339422246C
:1024C00023948FB7F8944090C7025090C802609050
:1024D000C9027090CA028FBF9091850180918401DA
:1024E000981709F442C08091850190918401891B5D
:1024F00087FD805F8823C9F19091850180918401D7
:102500009817D9F08091850190918401891B87FDEE
:10251000805F882391F0E091850180918401E81724
:1025200061F0EF5FE03108F0E0E0E0938501F0E07A
:10253000EC58FE4F0081011101C00FEF10E04092F6
:102540000F0250921002609211027092120280915A
:102550000E02811104C061E080E10E944E04003E41
:10256000110509F06EC22092D9010E94AB0C809136
:102570000A0290910B02A0910C02B0910D029301FE
:102580008201081B190B2A0B3B0BD901C8018436A9
:102590009105A105B10508F470C084E10E949F0374
:1025A00003977CF58091060290910702A0910802A2
:1025B000B0910902A3019201281B390B4A0B5B0B56
:1025C000DA01C901843F9140A105B105D0F04092E4
:1025D000060250920702609208027092090261E0BE
:1025E0008FE00E944E048EE092E00E9420030E9441
:1025F000050D89E092E00E94AF0860E08FE00E9444
:102600004E0485E10E949F0303977CF580910202AE
:1026100090910302A0910402B091050293018201FE
:10262000081B190B2A0B3B0BD901C801843F9140B1
:10263000A105B105D0F040920202509203026092CF
:1026400004027092050261E080E10E944E048AEF6C
:1026500091E00E9420030E94290D85EF91E00E94E5
:10266000AF0860E080E10E944E0440920A0250925E
:102670000B0260920C0270920D0286E00E94DB0356
:102680006C0181E0C114D10409F080E08093FE0167
:1026900088E00E94DB037C0181E0E114F10409F091
:1026A00080E08093FF0189E00E94DB038C0181E0E0
:1026B0000115110509F080E0809300028AE00E9474
:1026C000DB034C0181E08114910409F080E08093E8
:1026D00001028EE00E94DB035C0181E0A114B104E1
:1026E00009F080E08093FC0181E10E94DB0321E09E
:1026F000009709F020E02093FD01AB2851F0892BD1
:1027000041F0CD2831F0EF2821F0012B11F089287C
:1027100081F480910E02811104C061E080E10E9489
:102720004E0440920F025092100260921102709279
:102730001202ECEFF1E090E080E060E0419101E016
:1027400010E020E030E0082E04C0000F111F221F0F
:10275000331F0A94D2F7442311F40C94581C602BB5
:1027600001968630910551F78DE00E94CF08809147
:102770000F0290911002A0911102B0911202A301D8
:102780009201281B390B4A0B5B0BDA01C901883C0B
:102790009105A105B10540F080910E02811104C0A0
:1027A00060E080E10E944E048091F8019091F9016F
:1027B000A091FA01B091FB0193018201081B190B52
:1027C0002A0B3B0BD901C801843F9140A105B105FB
:1027D00040F10E9488089093F7018093F6010E94CF
:1027E0006C088093F5010E945008809309010E94B3
:1027F0004208809308010E940E088093F4010E9411
:10280000F2078093F3010E94D6078093F2010E94A1
:10281000F10A4092F8015092F9016092FA01709227
:10282000FB0180910601909107011816190654F5D5
:102830002091F101211126C04091ED015091EE014E
:102840006091EF017091F00193018201041B150B5F
:10285000260B370BB901A801493E534061057105AC
:1028600088F0019790930701809306010E94C605A6
:102870008093F1014092ED015092EE016092EF01E0
:102880007092F0018091F101882309F46FC080916A
:10289000E9019091EA01A091EB01B091EC01A30153
:1028A0009201281B390B4A0B5B0BDA01C9018536F3
:1028B0009105A105B10508F459C08BEE90E00E9486
:1028C00035050E94E104082F0E94E104182F0E94A0
:1028D000E104F82E80917A03882339F00E94E10404
:1028E000482F880F550B5C834B839091E80193250B
:1028F0009093E8011093E701F092E601302F3270D7
:10290000202F24708B8100FFD7C780618093E50161
:102910008091E501332309F4D1C780628093E501FA
:102920008091E501222309F4CBC780648093E501FF
:102930008091E501992309F4C5C780688093E5017A
:10294000612F8AE00E94CF086091E6018BE00E942F
:10295000CF086091E5018CE00E94CF084092E90128
:102960005092EA016092EB017092EC0180910E02AC
:10297000882359F11091E401112321F061E080E1F5
:102980000E944E048091E0019091E101A091E2014A
:10299000B091E301A3019201281B390B4A0B5B0B99
:1029A000DA01C90184369105A105B10570F04092A4
:1029B000E0015092E1016092E2017092E301111195
:1029C00004C060E080E10E944E048091DF01882312
:1029D00059F11091DE01112321F061E08FE00E9496
:1029E0004E048091DA019091DB01A091DC01B0915D
:1029F000DD01A3019201281B390B4A0B5B0BDA01A5
:102A0000C90184369105A105B10570F04092DA0143
:102A10005092DB016092DC017092DD01111104C063
:102A200060E08FE00E944E0480E090E0892B09F482
:102A300048CD0E945B03882309F443CD0E94000027
:102A40003CCD013E110529F42092D9012092D801F4
:102A50008CCD6091D701003F110529F4611103C0AD
:102A60002092D70182CD8091D901811105C080913A
:102A7000D801882309F4C5C080E091E0080F191F30
:102A80001092D6016093C201812F81708093CE0194
:102A900007FB882780F98093CD0106FB882780F902
:102AA0008093CC0105FB882780F98093CB0104FB40
:102AB000882780F98093CA0103FB882780F98093D7
:102AC000C90102FB882780F98093C80101FB882790
:102AD00080F98093C701802F81708093C6010534EF
:102AE000110509F44EC40CF0B7C10332110509F405
:102AF00000C40CF02FC10E30110509F447C50CF0CD
:102B0000DDC00730110509F4A0C60CF0B1C00430D7
:102B1000110509F4C2C50CF077C00130110509F4A4
:102B20004AC60330110509F418C6809186019091B8
:102B300087012091D601222309F4AFC6009709F03E
:102B4000ACC610929601809194018823C1F08091C7
:102B500093018823A1F080919201882381F0109243
:102B6000940110929301109292011092950110928B
:102B7000D60110928701109286010E94290D809142
:102B800094018823C1F0809193018823A1F0809162
:102B90009001882381F01092940110929301109279
:102BA0009001109295011092D60110928701109217
:102BB00086010E94EA0C809194018823C1F08091E3
:102BC00093018823A1F080918F01882381F01092D6
:102BD00094011092930110928F011092950110921E
:102BE000D60110928701109286010E94050D109265
:102BF000D7018091D801882309F456C61092D801D4
:102C0000B4CC90E080E03ACF0530110509F40FC54F
:102C10000630110509F089CF8091910181110AC018
:102C200080919401882309F432C58091930188230F
:102C300009F42DC5611179CF20928E0110928D017A
:102C400084E090E09A8389836AE0CE0101960E9435
:102C5000940D60918D0185E090E00E94AD0D809112
:102C60008E018093CF0180918D018093D0015DCF43
:102C70000B30110509F493C574F40930110509F4FA
:102C8000BCC50A30110509F050CF63256093BC0123
:102C90006093BE014ACF0C30110509F42EC50D30EA
:102CA000110509F042CF862F8325809396018093EA
:102CB000AB018DE090E00E94720637CF0A3111051A
:102CC00009F45BC344F50431110509F481C2BCF475
:102CD0000131110509F48DC20231110509F025CF2A
:102CE00080910501882309F470C28FE090E063258C
:102CF0008A569E4FFC0160836093950116CF053183
:102D0000110509F422C30631110509F00ECF632520
:102D1000609399010ACF0D31110509F426C364F4BB
:102D20000B31110509F415C30C31110509F0FDCE65
:102D3000632560939701F9CE0132110509F4D5C2DC
:102D40000CF017C30E31110509F0EFCE6325609327
:102D5000A101EBCE0333110509F4DBC20CF03FC037
:102D60000B32110509F4CDC2ECF40632110509F459
:102D70000CC364F40432110509F4BFC20532110515
:102D800009F0D3CE63256093B101CFCE093211058E
:102D900009F4A7C20A32110509F0C7CE6325609372
:102DA000B601C3CE0E32110509F4F3C264F40C323D
:102DB000110509F4D2C20D32110509F0B6CE632512
:102DC0006093B001B2CE0133110509F4B6C20233EB
:102DD000110509F0AACE63256093BD01A6CE0C3380
:102DE000110509F4BEC2ECF40633110509F4D5C28D
:102DF00064F40433110509F488C20533110509F0A0
:102E000094CE63256093BB0190CE0A33110509F47B
:102E100090C20B33110509F088CE63256093B4018D
:102E200084CE0134110509F4E0C264F40D331105B8
:102E300009F4B7C20E33110509F077CE632560930C
:102E4000AA0173CE0334110509F467C20CF469C2F8
:102E500063256093A30169CE0537110509F4BDC24E
:102E60000CF0D4C00935110509F43ACF0CF086C036
:102E70000D34110509F465C20CF047C00A34110580
:102E800009F410C30CF50634110509F48EC2093497
:102E9000110509F04ACE362F33253093A501209134
:102EA000950182E290E0211102C087E190E08A560C
:102EB0009E4FFC013083662321F01092B8011092DE
:102EC000AD012093D60131CE0B34110509F42DC28A
:102ED0000C34110509F029CE362F33253093A50186
:102EE0002091950188E090E0211102C08DE090E0F2
:102EF0008A569E4FFC013083662321F010929E017A
:102F00001092A3012093D60110CE0435110509F4C7
:102F100085C20CF50E34110509F41FC302351105E5
:102F200009F003CE362F33253093A501209195016A
:102F300085E090E0211102C08CE190E08A569E4F1E
:102F4000FC013083662321F010929B011092B201A4
:102F50002093D601EACD0535110509F4E5C20835FF
:102F6000110509F0E2CD862F83258093A50180937A
:102F7000960188E590E00E947206D7CD0B361105C8
:102F800009F41FC244F50D35110509F4A4C2BCF4BF
:102F90000A35110509F4D3C00B35110509F0C5CD6B
:102FA00080910501811165C26111BFCD80919501AC
:102FB000882309F45CC281E20E94440DB6CD063636
:102FC000110509F481C10936110509F0AECD63255B
:102FD00060939901AACD0137110509F45CCF64F41F
:102FE0000C36110509F4F5C10037110509F09DCD26
:102FF000632560939A0199CD0337110509F4E5C162
:103000000CF4D7C163256093BA018FCD0F3221E054
:10301000120709F418C10CF07DC00C37110509F432
:10302000CCC2CCF50937110509F4CDC234F5063709
:10303000110509F431C10837110509F076CD8091E9
:10304000910181110AC080919401882309F4F7C38A
:1030500080919301882309F4F2C3611166CD6091D8
:10306000890163256093890190E080E00E94AD0DA5
:10307000809189018093C00158CD0A37110509F468
:103080009CC10B37110509F050CD63256093A50154
:103090006093B4014ACD0338110509F486C39CF44A
:1030A0000D37110509F49DC10E37110509F03DCD0D
:1030B000662309F43ACD80918801832580938801A5
:1030C0008093C30132CD023141E0140709F4D4C327
:1030D000043151E0150709F47BC00131114009F0BA
:1030E00024CD162F13251093A5012091050187E00B
:1030F00090E0211102C090E080E08A569E4FFC01D2
:103100001083211104C081E191E00E9472061093A6
:1031100093010BCD0037E1E01E0709F498C014F5C8
:10312000093621E0120709F47CC26CF40A3441E04C
:10313000140709F4B7C10A35114009F0F6CC63252C
:1031400060939C01F2CC0B3681E0180709F48EC025
:103150000C36114009F0E9CC63256093AC01609313
:10316000BE01E3CC0437F1E01F0709F48AC0A4F4E0
:10317000013731E0130709F455C00237114009F057
:10318000D4CC862F8325809396018093BA0182E761
:1031900091E00E947206C9CC0A3751E0150709F484
:1031A0002CC20D3781E0180709F413C2053711400E
:1031B00009F0BBCC862F8325809396018093B201C2
:1031C00085E791E00E947206B0CC90E080E08FCD60
:1031D00080910501882351F090E080E063258A56B4
:1031E0009E4FFC016083609394019FCC8FE090E040
:1031F000F5CF162F13251093A5012091050186E028
:1032000090E0211102C090E080E08A569E4FFC01C0
:103210001083211104C081E190E00E947206109396
:10322000930183CC632580910501882339F0609355
:103230009B016093BE016093920177CC6093A501DE
:103240006093AE01F8CF6325609391016ECC632546
:1032500080910501882329F06093A3016093BE014A
:1032600064CC6093A501609397015FCC862F832582
:10327000809396018093B9018BE691E00E947206DB
:1032800054CC862F8325809396018093AA0184E7EE
:1032900091E00E94720649CC162F132510939601D7
:1032A00080910501882369F083E090E08A569E4F63
:1032B000FC01108386E790E00E9472061093900153
:1032C00034CC87E090E0F2CF162F132510939601AF
:1032D00010939A0186E690E00E94720610938F0187
:1032E00024CC632560939D0120CC63256093AE01BF
:1032F0001CCC63256093A70118CC63256093A801BB
:1033000014CC63256093AF0110CC63256093B701A3
:103310000CCC63256093BC0108CC63256093AB01A2
:1033200004CC63256093AC0100CC63256093A401B9
:10333000FCCB63256093AD01F8CB63256093B501A9
:10334000F4CB632560939B01F0CB632560939801D8
:10335000ECCB632560939F01E8CB63256093B801B4
:10336000E4CB63256093B301E0CB63256093A001B8
:10337000DCCB63256093A601D8CB632560939E01C7
:10338000D4CB632560939A01D0CB63256093A901C8
:10339000CCCB63256093B901C8CB63256093BA0198
:1033A000C4CB63256093B201C0CB63256093A201B7
:1033B000BCCB63256093A101B8CB63256093A901C1
:1033C000B4CB63256093B101B0CB63256093B901A1
:1033D000ACCB63256093B201A8CB63256093AA01AF
:1033E000A4CB63256093A201A0CB362F3325309365
:1033F000A501209195018AE190E0211102C08FE1A1
:1034000090E08A569E4FFC013083662321F0109293
:10341000B0011092B5012093D60187CB80910501B0
:1034200081110CC0611181CB80919501882321F01D
:1034300089E10E94440D79CB85E2FBCF262F23251D
:103440002093A50180919501882371F089E190E096
:103450008A569E4FFC012083662309F466CB1092A6
:10346000AF011092BB0161CB85E290E0F1CF8DE11D
:10347000A3CD262F23252093A50180919501882394
:1034800071F081E290E08A569E4FFC012083662312
:1034900009F44BCB1092B7011092B30146CB8DE1EA
:1034A00090E0F1CF362F33253093A501209195017F
:1034B00088E190E0211102C080E290E08A569E4FA0
:1034C000FC013083662321F01092AE011092B60108
:1034D0002093D6012ACB8091050181110CC0611186
:1034E00024CB80919501882321F089E00E94440D2E
:1034F0001CCB81E1FBCF262F23252093A5018091B2
:103500009501882371F089E090E08A569E4FFC0176
:103510002083662309F409CB10929F011092A70122
:1035200004CB81E190E0F1CF362F33253093A50114
:103530002091950186E190E0211102C08EE090E09B
:103540008A569E4FFC013083662321F01092AC0115
:103550001092A4012093D601E8CA362F3325309368
:10356000A5012091950184E090E0211102C08EE137
:1035700090E08A569E4FFC013083662321F0109222
:103580009A011092B4012093D601CFCA809195017F
:10359000882329F0611103C081E00E94440D9091BD
:1035A0009501911107C08091D70183258093A501D2
:1035B0008093A6019093D601B8CA63256093A501B4
:1035C0006093BD01B2CA63256093A5016093AC010D
:1035D000ACCA862F832590910501992329F0809309
:1035E000AD018093BE01A1CA809396018093A90189
:1035F0008DE791E00E94720698CA862F83259091EC
:103600000501992329F08093B5018093BE018DCAED
:10361000809396018093B1018AE791E00E9472063F
:1036200084CA63256093A4016093BE017ECA809121
:103630009101811108C080919401882311F180913A
:1036400093018823F1F0611170CA10928E011092DB
:103650008D0184E090E09A83898364E1CE01019634
:103660000E94940D60918D0185E090E00E94AD0D67
:1036700080918E018093CF0180918D018093D00144
:1036800054CA6325609397016093BE014ECA6325B7
:103690006093BD016093BE0148CA80919101811180
:1036A00008C080919401882311F1809193018823AF
:1036B000F1F061113ACA10928E0120928D0184E0DE
:1036C00090E09A83898364E1CE0101960E94940D73
:1036D00060918D0185E090E00E94AD0D80918E019A
:1036E0008093CF0180918D018093D0011ECA632504
:1036F0006093AE016093BE0118CA8091910181115F
:1037000008C080919401882311F18091930188234E
:10371000F1F061110ACA20928E0120928D0184E09D
:1037200090E09A8389836AE0CE0101960E94940D0D
:1037300060918D0185E090E00E94AD0D80918E0139
:103740008093CF0180918D018093D001EEC96325D4
:103750006093A7016093BE01E8C980919101811136
:1037600008C0809194018823A1F08091930188235F
:1037700081F06111DAC960918C01632560938C013D
:1037800086E090E00E94AD0D80918C018093D10184
:10379000CCC963256093A8016093BE01C6C96325A7
:1037A0006093AF016093BE01C0C963256093B70108
:1037B0006093BE01BAC980919101811108C08091C6
:1037C00094018823A1F080919301882381F06111F5
:1037D000ACC960918B01632560938B0182E090E01E
:1037E0000E94AD0D80918B018093C4019EC9632519
:1037F0006093AB016093BE0198C9809191018111E2
:1038000008C0809194018823A1F0809193018823BE
:1038100081F061118AC960918A01632560938A01F0
:1038200083E090E00E94AD0D80918A018093C501F4
:103830007CC963256093B4016093BE0176C963259A
:10384000609398016093A50170C9809191018111E5
:1038500008C080919401882349F0809193018823C6
:1038600029F0611162C90E94EA0C5FC96325609367
:10387000A0016093A50159C9662309F456C9609156
:10388000050163256093050181E090E00E94AD0D84
:10389000809105018093D20148C9181619060CF0D1
:1038A00052C9209296014FC91092D9010C94B512B9
:1038B000009560230C94B0138F7E28C88F7D2EC88E
:1038C0008F7B34C88F773AC8F8940C94B71CAA1B26
:1038D000BB1B51E107C0AA1FBB1FA617B70710F0FB
:1038E000A61BB70B881F991F5A95A9F7809590952D
:1038F000BC01CD01089597FB072E16F4009407D064
:1039000077FD09D00E94671C07FC05D03EF4909516
:1039100081959F4F0895709561957F4F0895F9990E
:10392000FECF92BD81BDF89A992780B50895262FC4
:10393000F999FECF1FBA92BD81BD20BD0FB6F89494
:10394000FA9AF99A0FBE01960895991B79E004C07E
:10395000991F961708F0961B881F7A95C9F78095CE
:103960000895EE0FFF1F0590F491E02D0994F8944F
:02397000FFCF87
:10397200B103B10301010200010100000000400295
:1039820013029C03FC010C02A301FD0100000000D4
:10399200D3026F0374023B03A502830297020D0A4E
:0639A20000646F6E650079
:00000001FF
