:100000000C945D010C9403040C94DC030C948501A6
:100010000C9485010C9485010C9485010C94850148
:100020000C9485010C9485010C9485010C94850138
:100030000C9485010C9485010C9485010C94850128
:100040000C9436120C9485010C9450040C942A04E0
:100050000C9485010C9485010C9485010C94850108
:100060000C940E100C948501220546055405670575
:100070007505D305E105F705150628065106560650
:100080006E066E062E074107540767077A079E071C
:10009000C207D507E807FB0713081B082208250835
:1000A0005374617274696E67206D61696E206C6F44
:1000B0006F7000646F6E65005254432073656E6408
:1000C00020616C6C207265676973746572732E2E83
:1000D0002E00646F6E6500525443206973206E6F6A
:1000E000742072756E6E696E672E2053746172692A
:1000F0006E672069742E2E2E0052544320696E695B
:10010000742E2E2E004D6F75736520696E69742EE6
:100110002E2E004B6579626F61726420696E69747E
:100120002E2E2E0057616974696E6720666F7220EB
:100130004650474120696E69742072657175657318
:1001400074005A58204B6579626F617264202F20C9
:100150006D6F757365202F2072746320636F6E74EA
:10016000726F6C6C65722076312E30004D6F757336
:10017000652070726573656E743A20004D6F7573FB
:1001800065206E6F742070726573656E742E2054D6
:100190007279696E6720746F20696E6974206D6F63
:1001A0007573653A20002046323A0020463A002016
:1001B000523A00204C3A0020443A0020553A004A76
:1001C0006F79737469D1816B3A005363616E636FA9
:1001D00064653A2000646F6E650052544320696E76
:1001E000697420726571756573742E2E2E00556EBC
:1001F0006B6E6F776E005265762E43005265762ED9
:1002000041207769746820544441313534334120AA
:10021000444143005265762E41207769746820542A
:100220004441313534332044414300465047412056
:10023000626F617264207265766973696F6E20699E
:10024000733A2000646F6E65004650474120696E26
:10025000697420726571756573742E2E2E0000000E
:100260000000240027002A000000000025002800CC
:100270002B000000000023002600290004040404D1
:100280000404040402020202020203030303030340
:10029000010204081020408001020408102001021D
:1002A00004081020000000080002010000030407F9
:1002B0000000000000000000D41F11241FBECFEF7B
:1002C000D8E0DEBFCDBF24E0A6E3B1E001C01D92BF
:1002D000AD33B207E1F711E0A0E0B1E0E6E1F1E40F
:1002E00002C005900D92A633B107D9F711E0CDE514
:1002F000D1E004C02197FE010E947E20CC35D107B9
:10030000C9F70E9480120C9489200C940000089573
:10031000CF92DF92EF92FF920F931F93CF93DF93D1
:100320006C017A018B01C0E0D0E0CE15DF0581F0D1
:10033000D8016D918D01D601ED91FC910190F08174
:10034000E02DC6010995892B11F02196EECF7E0193
:10035000C701DF91CF911F910F91FF90EF90DF9038
:10036000CF900895089580E090E00895FC01538DAA
:10037000448D252F30E0842F90E0821B930B54177F
:1003800010F0CF96089501970895FC01918D828D0C
:10039000981761F0828DDF01A80FB11D5D968C91D9
:1003A000928D9F5F9F73928F90E008958FEF9FEFE4
:1003B0000895FC01918D828D981731F0828DE80FA0
:1003C000F11D858D90E008958FEF9FEF0895FC015A
:1003D000918D228D892F90E0805C9F4F821B910927
:1003E0008F73992708958AE493E00E94E70121E042
:1003F000892B09F420E0822F0895FC01848DDF0110
:10040000A80FB11DA35ABF4F2C91848D90E0019687
:100410008F739927848FA689B7892C93A089B18976
:100420008C91837080648C93938D848D981306C017
:100430000288F389E02D80818F7D80830895EF927B
:10044000FF920F931F93CF93DF93EC0181E0888F8E
:100450009B8D8C8D981305C0E889F989808185FD75
:1004600026C0F62E0B8D10E00F5F1F4F0F73112764
:10047000E02E8C8DE8120CC00FB607FCFACFE8898D
:10048000F989808185FFF5CFCE010E94FD01F1CF72
:100490008B8DFE01E80FF11DE35AFF4FF0829FB7ED
:1004A000F8940B8FEA89FB89808180620AC09FB72C
:1004B000F894EE89FF896083E889F98980818370E7
:1004C000806480839FBF81E090E0DF91CF911F9196
:1004D0000F91FF90EF900895CF93DF93EC01888DFB
:1004E0008823C9F0EA89FB89808185FD05C0A88938
:1004F000B9898C9186FD0FC00FB607FCF5CF8081BE
:1005000085FFF2CFA889B9898C9185FFEDCFCE0107
:100510000E94FD01E7CFDF91CF91089580E090E048
:10052000892B29F00E94F30181110C940000089599
:100530008D3008F08CE808950E948420CF92DF92DD
:10054000EF92FF920F931F93CF93809137010E94F8
:1005500038118C01C1E0892B09F4C0E00E942A12F5
:10056000C090CB02D090CC02E090CD02F090CE02B1
:100570009B01AC012C193D094E095F0969017A0103
:100580003BE0C316D104E104F10430F01092CA023A
:100590001092C9021092C8026093CB027093CC02F1
:1005A0008093CD029093CE028091CA028F5F809398
:1005B000CA028A3050F4823068F4813009F06FC08A
:1005C0001092C8021092C70270C08A30B1F08B300E
:1005D000E9F065C08091C702C80FC093C70280913F
:1005E000C80290E095958795012B11F420E001C099
:1005F00020E8822B8093C80258C08091C702817086
:100600008C1301C08DEF8093C7024FC08091C70249
:100610008D3F18F01092C9023FC08091C90281300D
:1006200061F018F08230B1F037C08091C80290E0DC
:100630009093C0028093BF0207C08091C80290E0EF
:100640009093C2028093C1028091C9028F5F809310
:10065000C90222C08091C80290E09093C4028093A6
:10066000C3021092C90280913F028F5F803108F06F
:1006700080E090914002891779F048E0849FD00192
:100680001124A154BE4F98E0EFEBF2E001900D92DF
:100690009A95E1F780933F021092CA0204C010922B
:1006A000CA021092C9021092C802CF911F910F91F5
:1006B000FF90EF90DF90CF900895CF92DF92EF926E
:1006C000FF920F931F93CF93809136010E943811B0
:1006D000C82F0E942A120091BB021091BC022091E7
:1006E000BD023091BE026B017C01C01AD10AE20A40
:1006F000F30A970186010A3111052105310510F031
:100700001092BA026093BB027093BC028093BD0248
:100710009093BE028091BA028F5F8093BA028A30B2
:1007200048F4823060F48130E9F51092B9021092F9
:10073000B8023AC08A30B1F08B30E9F033C0809112
:10074000B8028C0F8093B8028091B90290E0959521
:100750008795C11102C020E001C020E8822B809360
:10076000B90222C08091B8028170C81301C08DEF18
:100770008093B80219C08091B8028D3F98F480919F
:100780007B018F5F803408F080E090917C018917B5
:1007900049F0E82FF0E09091B902E55CFE4F9083BC
:1007A00080937B011092BA02CF911F910F91FF901D
:1007B000EF90DF90CF9008951F920F920FB60F9297
:1007C00011242F933F934F935F936F937F938F9356
:1007D0009F93AF93BF93EF93FF93E0910801F09144
:1007E00009010995FF91EF91BF91AF919F918F9171
:1007F0007F916F915F914F913F912F910F900FBE1D
:100800000F901F9018951F920F920FB60F92112400
:100810002F933F934F935F936F937F938F939F9308
:10082000AF93BF93EF93FF93E0910601F09107011F
:100830000995FF91EF91BF91AF919F918F917F911A
:100840006F915F914F913F912F910F900FBE0F903D
:100850001F9018951F920F920FB60F9211242F938D
:100860003F934F935F936F937F938F939F93AF9338
:10087000BF93EF93FF938AE493E00E94FD01FF9101
:10088000EF91BF91AF919F918F917F916F915F9108
:100890004F913F912F910F900FBE0F901F90189581
:1008A0001F920F920FB60F9211242F938F939F9345
:1008B000EF93FF93E0915A03F0915B038081E09105
:1008C0006003F091610382FD12C090818091630307
:1008D0008F5F8F7320916403821751F0E09163035F
:1008E000F0E0E65BFC4F958F8093630301C080814D
:1008F000FF91EF919F918F912F910F900FBE0F90CD
:100900001F9018950C941220EFE7F1E09F012F57EC
:1009100031402817390714F41192F8CF0895CF9376
:10092000DF93D82FC62F9091E7038091E8039CBDF9
:100930008DBD60E087E00E946111DEBD00000DB456
:1009400007FEFDCFDEB5CEBD00000DB407FEFDCF26
:10095000CEB561E087E00E946111DD2309F4BEC1DC
:10096000DD3F69F580913A018111B8C189E492E0D7
:100970000E94B10D81E080933A010E943A080E94E2
:1009800017070E949A0884E492E00E94CC0D8BE243
:1009900092E00E94B10DC13049F028F0C23061F4FC
:1009A00086EF91E005C084E192E002C08CEF91E017
:1009B000DF91CF910C94CC0D8EEE91E0F9CFDC3F1E
:1009C00081F480913801811189C18AED91E00E9402
:1009D000B10D81E0809338010E94170785ED91E009
:1009E000E7CFDE3099F48C2F817080934302C1FBF6
:1009F000882780F980934102C2FB882780F9809381
:100A00004A02C3FB882780F980934202D058D03431
:100A100008F064C18091B402D81305C08091B3027C
:100A2000C81709F45BC1D093B402C093B3028D2FF1
:100A300090E08E30910508F049C1FC01EC5CFF4F5D
:100A40000C947E2080913901882339F08C2F829577
:100A50008F7096E0899FC0191124C093440288E6E4
:100A60000E947D0C80E090E00E94780C0E949E0B1A
:100A70000E94870C8EE393E00E94630E8078C82B5F
:100A800088E60E947D0C80E090E0C3C0809139012F
:100A9000882339F08C2F82958F7096E0899FC0193A
:100AA0001124C093B7021AC180913901882339F00B
:100AB0008C2F82958F7096E0899FC0191124C09366
:100AC000450288E60E947D0C81E090E0A2C0809102
:100AD0003901882339F08C2F82958F7096E0899F99
:100AE000C0191124C093B602F9C08091390188233E
:100AF00039F08C2F82958F7096E0899FC019112450
:100B0000C093460288E60E947D0C82E090E00E943D
:100B1000780C0E949E0B0E94870C8EE393E00E944B
:100B2000630EC82F88E60E947D0C82E090E00E9450
:100B3000780C6C2F6F7B8EE393E00E94AC0E0E94CA
:100B40009E0BC09146020E94480DD82F88E60E9455
:100B50007D0C82E090E00E94780C8C2FDD2309F45C
:100B60005BC0CD3078F06CE00E947220292F892F75
:100B70006AE00E947220682F660F680F660F620F8E
:100B8000606609C06AE00E947220682F660F680FD5
:100B9000660F6C0F60648EE393E00E94AC0EDF91F1
:100BA000CF910C949E0B80913901882339F08C2FC2
:100BB00082958F7096E0899FC0191124C093B50269
:100BC0008DC080913901882339F08C2F82958F70E8
:100BD00096E0899FC0191124C093020188E60E9403
:100BE0007D0C83E090E00E94780C6C2FD4CF809134
:100BF0003901882339F08C2F82958F7096E0899F78
:100C0000C0191124C093030188E60E947D0C84E082
:100C100090E00E94780C8C2F6AE00E947220682F6E
:100C2000660F680F660F6C0FB6CF8091390188236D
:100C300039F08C2F82958F7096E0899FC01911240E
:100C4000C093470288E60E947D0C85E090E0E1CFEA
:100C500080913901882339F08C2F82958F7096E02E
:100C6000899FC0191124D0E0C053D84FD0934902B6
:100C7000C093480288E60E947D0C86E090E00E94C6
:100C8000780CCE0164E670E00E942820282F6AE0EC
:100C90000E947220682F660F860F880F682F620FE0
:100CA0007ACF6C2F6F778AE190E014C0C2FB99274E
:100CB00090F981E0892780933901C1FB882780F969
:100CC000809300016C2F8BE190E004C08D2F90E0A9
:100CD0006C2F4096DF91CF910C941A20DF91CF9129
:100CE00008958091390120914402882351F0822F88
:100CF0006AE00E947220682F660F680F660F620F0D
:100D000001C0622F80E40E948F04809139012091FC
:100D10004502882351F0822F6AE00E947220682FDA
:100D2000660F680F660F620F01C0622F82E40E9497
:100D30008F049091000180913901992331F0209125
:100D40004602811109C0822F15C0882379F0809155
:100D500046020E949802282F822F6AE00E94722089
:100D6000982F990F890F880F820F04C08091460237
:100D70000E949802682F84E40E948F0480913901B8
:100D800020910201882351F0822F6AE00E94722094
:100D9000682F660F680F660F620F01C0622F86E42E
:100DA0000E948F048091390120910301882351F022
:100DB000822F6AE00E947220682F660F680F660F0C
:100DC000620F01C0622F87E40E948F048091390175
:100DD00020914702882351F0822F6AE00E947220FE
:100DE000682F660F680F660F620F01C0622F88E4DC
:100DF0000E948F042091390180914802909149020C
:100E000064E670E00E943C20222351F0282F6AE023
:100E10000E947220682F660F680F660F620F01C074
:100E2000682F89E40C948F04805C0C948F04FF92EB
:100E30000F931F93CF93DF93C0E1D0E004E610E05F
:100E4000FC2E80EFF80E8F2D90E08E30910508F08B
:100E5000FFC0FC01EE5BFF4F0C947E2080913901B6
:100E600020914402882351F0822F6AE00E94722070
:100E7000682F660F680F660F620F01C0622F80E057
:100E8000ECC0809139012091B702882351F0822F64
:100E90006AE00E947220682F660F680F660F620F6B
:100EA00001C0622F81E0D9C08091390120914502B3
:100EB000882351F0822F6AE00E947220682F660F0B
:100EC000680F660F620F01C0622F82E0C6C080917A
:100ED00039012091B602882351F0822F6AE00E94E6
:100EE0007220682F660F680F660F620F01C0622FB5
:100EF00083E0B3C09091000180913901992331F0D2
:100F000020914602811109C0822F15C0882379F0F3
:100F1000809146020E949802282F822F6AE00E9448
:100F20007220982F990F890F880F820F04C080912B
:100F300046020E949802682F84E08FC090910001C1
:100F400080913901992331F02091B502811109C0B6
:100F5000822F15C0882379F08091B5020E949802F3
:100F6000282F822F6AE00E947220982F990F890FF4
:100F7000880F820F04C08091B5020E949802682FEA
:100F800085E06BC08091390120910201882351F0E6
:100F9000822F6AE00E947220682F660F680F660F2A
:100FA000620F01C0622F86E058C080913901209104
:100FB0000301882351F0822F6AE00E947220682F7B
:100FC000660F680F660F620F01C0622F87E045C091
:100FD0008091390120914702882351F0822F6AE0E5
:100FE0000E947220682F660F680F660F620F01C0A3
:100FF000622F88E032C0209139018091480290919F
:101000004902B8010E943C20222351F0282F6AE0B7
:101010000E947220682F660F680F660F620F01C072
:10102000682F89E01AC08AE190E00E948204682F4C
:101030006F778AE012C08BE190E00E948204682FF3
:101040008BE00BC060E08CE008C060E88DE005C07C
:10105000CE010E948204682F8F2D0E9414072196D2
:10106000C035D10509F0ECCEDF91CF911F910F91E2
:10107000FF900895CF92DF92EF92FF920F931F930C
:10108000CF93DF93D0E0C0E0C12CD12C7601C39484
:1010900080E090E060E0ED2FE80FF0E0E158FE4FD7
:1010A0002081222361F097018601082E04C0000FE1
:1010B000111F221F331F0A94D2F7602B0CC0970117
:1010C0008601082E04C0000F111F221F331F0A942F
:1010D000D2F700956023019688309105E1F6CF5F45
:1010E0008C2F0E948F04D85FC83091F6DF91CF918A
:1010F0001F910F91FF90EF90DF90CF900895CF93C5
:10110000DF9389E290E00E948404CFE7D1E081E0A0
:101110008BA70E943A0864E670E080E090E00E94AD
:10112000F01189E290E00E9484041BA6DF91CF9128
:101130000C943A08CF93DF9389E290E00E948404F4
:10114000CFE7D1E081E089A70E943A0864E670E029
:1011500080E090E00E94F01189E290E00E94840417
:1011600019A6DF91CF910C943A08FF920F931F9329
:10117000CF93DF93C82F89E290E00E9484040E94FD
:101180003A0864E170E080E090E00E94F0110FE71F
:1011900011E0FF24F394F801F0820E943A0864E120
:1011A00070E080E090E00E94F011F801F7860E9464
:1011B0003A0864E170E080E090E00E94F011F801EC
:1011C00017860E943A0864E170E080E090E00E9497
:1011D000F011D0E0C158DE4FF8820E943A0864E175
:1011E00070E080E090E00E94F011F8011082188217
:1011F0000E943A0864E170E080E090E0DF91CF91D6
:101200001F910F91FF900C94F011CF92DF92EF920B
:10121000FF920F931F93CF93DF93CDB7DEB7A897BD
:101220000FB6F894DEBF0FBECDBF20917D01309187
:101230007E01611126C012161306ACF4EBE8F2E051
:1012400040E050E0A191B1918A179B0709F461E059
:101250004F5F5F4F24173507A9F761114EC0243146
:1012600031050CF04AC0F901EE0FFF1FE557FD4FA5
:10127000918380832F5F3F4F30937E0120937D01C8
:101280003CC0FE01319648E2DF011D924A95E9F724
:10129000121613061CF040E050E02BC00BE812E0E1
:1012A000780140E050E060E070E0D701CD90DD9043
:1012B0007D018C159D0549F0DA01AA0FBB1FAE0F09
:1012C000BF1FCD92DC924F5F5F4F6F5F7F4F26173E
:1012D000370759F741155105F1F280E090E021916F
:1012E0003191D8012D933D938D0101968417950777
:1012F000B4F350937E0140937D01A8960FB6F89405
:10130000DEBF0FBECDBFDF91CF911F910F91FF9038
:10131000EF90DF90CF900895FF920F931F93CF939C
:10132000DF93EC01F62E08811981C8010E9412207A
:10133000F81621F06F2DC8010E941A20CE01DF910E
:10134000CF911F910F91FF900895CF93DF9300D01D
:10135000CDB7DEB7611102C064E101C06AE09A83D3
:101360008983CE0101960E948C090F900F90DF9126
:10137000CF910895EF92FF921F93CF93DF9300D008
:10138000CDB7DEB77C01162F0E9482048A3011F09F
:10139000843129F461E08A3071F060E00CC01111F1
:1013A00002C064E101C06AE0FA82E982CE010196DE
:1013B0000E948C09612F862F0F900F90DF91CF91A3
:1013C0001F91FF90EF900895CF93C82F60E00E9487
:1013D000B41161E08C2FCF910C946111CF93C82F81
:1013E00061E00E94B41160E08C2FCF910C946111E8
:1013F000CF92DF92EF92FF92CF93DF93EC010E94A6
:101400002A126B017C010E942A12DC01CB018C198B
:101410009D09AE09BF09883E9340A105B10548F476
:101420008091E9030E9438118C179D0761F781E0D4
:1014300001C080E0DF91CF91FF90EF90DF90CF90DF
:1014400008952091EB033091EC03019721F4C90139
:101450000E94E40903C0C9010E94EE0981E090E006
:101460000E94F80980E090E00C94F809CF93DF9394
:1014700080E090E00E94F8098091EB030E9438110F
:10148000EC0181E090E00E94F809CE01DF91CF915C
:101490000895CF92DF92EF92FF920F931F93CF9315
:1014A0008091E9039091EA030E94E4098091EB03A3
:1014B0009091EC030E94E40983EC90E00197F1F72E
:1014C00080E090E00E94F8098FE090E00197F1F74A
:1014D00081E090E00E94F809C0E000E010E0C12C3B
:1014E000D12C7601C3940E94360A892B61F0D70172
:1014F000C601002E04C0880F991FAA1FBB1F0A94A3
:10150000D2F7C82B0CC0D701C601002E04C0880F2B
:10151000991FAA1FBB1F0A94D2F78095C8230F5F9B
:101520001F4F08301105F9F60E94360A0E94360A4C
:101530008091E9039091EA030E94EE098C2FCF91EC
:101540001F910F91FF90EF90DF90CF900895BF9281
:10155000CF92DF92EF92FF920F931F93CF93DF937F
:10156000C82E8091EB039091EC030E94E4098091D6
:10157000E9039091EA030E94E409CBEAD4E0CE01AA
:101580000197F1F78091E9039091EA030E94EE0937
:101590002197F1F78091EB039091EC030E94EE0903
:1015A00083E290E00197F1F78091E9039091EA03DB
:1015B0000E94E40980E090E00E94F809B82E882398
:1015C00009F43FC0EE24E394F12CC0E0D0E00C2CF1
:1015D000000CDD0886010C2E02C0159507950A94B3
:1015E000E2F701701127C8010E94210AE026F126C6
:1015F0002196C830D10571F7C7010E94210A809158
:10160000EB039091EC030E94E40983EC90E00197D6
:10161000F1F780E090E00E94F8098091E9030E94D0
:101620003811892BD1F38091EB030E943811892B5B
:10163000A1F38091E9039091EA030E94EE090E94D0
:10164000490A8B2DDF91CF911F910F91FF90EF9061
:10165000DF90CF90BF9008958230C8F4E82FF0E07B
:10166000EE0FFF1FEA5FFE4F71836083813041F010
:10167000809169008C7F826080936900E89A089568
:1016800080916900837F886080936900E99A08955A
:101690008091E9039091EA030E94E4098091EB03B1
:1016A0009091EC030E94E4098FEF90E00E94A70A5A
:1016B000882321F00E94490A0E94490A88EE90E09E
:1016C0000E94A70A83E090E00E94A70A86EE90E0BD
:1016D0000E94A70A83EF90E00E94A70A88E290E0A8
:1016E0000E94A70A8AEE90E00E94A70A84EF90E089
:1016F0000E94A70A8BE891E00197F1F78091E90336
:101700009091EA038230910521F0039721F08FEF49
:1017100003C080E001C081E06EE972E00E942C0B02
:101720008091E9039091EA030E94E4098091EB0320
:101730009091EC030E94E40981E0089520913D031B
:10174000213208F0C7C08091F00310921A03109262
:101750001903909118039923B1F0609119037091C6
:101760001A0340910401509105016417750758F45C
:101770004091190350911A034F5F5F4F50931A0322
:1017800040931903E6CF6091190370911A034091B9
:101790000401509105016417750708F07EC092E0BE
:1017A0009093180391E0909317039FEF9093160383
:1017B0001092150320931403ADE1B3E0E4EFF2E0DF
:1017C00090E0291721F03D9131939F5FFACF10925D
:1017D000F3029091F302880F892B8093F30280919A
:1017E000F202813079F51092F20210921A031092EF
:1017F00019038091F3028093BB00809119039091AB
:101800001A03019690931A03809319038091BC00E8
:1018100083FF0BC02091190330911A0380910401BA
:10182000909105012817390720F320911903309171
:101830001A0380910401909105012817390768F572
:1018400085EC01C085EE8093BC0010921A031092C3
:101850001903809118038230A9F420911903309163
:101860001A0380910401909105012817390750F45B
:101870008091190390911A03019690931A03809313
:101880001903E7CF2091190330911A0380910401C5
:10189000909105012817390778F00E94EB0F0E94FC
:1018A00090118091EE039091EF0301969093EF03D6
:1018B0008093EE0385E015C0809116038F3F61F0A1
:1018C00080911603803251F080911603803341F0ED
:1018D00084E007C081E005C080E003C082E001C071
:1018E00083E010921C0310923D0310921B03089595
:1018F000682F8EE393E00C94AC0E91E090931B0361
:101900008093F00310921C0310923D0308951092EF
:101910001A0310921903809118038823A9F02091CB
:10192000190330911A038091040190910501281741
:10193000390750F48091190390911A0301969093FE
:101940001A0380931903E7CF2091190330911A03EA
:1019500080910401909105012817390708F071C0A2
:1019600081E080931803809317039FEF90931603F1
:1019700010921503109214038093F3028091F302E6
:10198000806D8093F3028091F202813079F510929C
:10199000F20210921A03109219038091F3028093BD
:1019A000BB008091190390911A03019690931A033A
:1019B000809319038091BC0083FF0BC02091190311
:1019C00030911A038091040190910501281739077D
:1019D00020F32091190330911A0380910401909112
:1019E00005012817390768F585EC01C085EE80935D
:1019F000BC0010921A0310921903809118038130D1
:101A0000A9F42091190330911A0380910401909157
:101A100005012817390750F48091190390911A0392
:101A2000019690931A0380931903E7CF209119032D
:101A300030911A038091040190910501281739070C
:101A400078F00E94EB0F0E9490118091EE0390912C
:101A5000EF0301969093EF038093EE0380E013C0B1
:101A600080911503811103C09091150301C091E08D
:101A7000A4EFB2E0E2EDF2E080E0891721F02D91D1
:101A800021938F5FFACF1092D1028093D0020895F4
:101A900088E60E947D0C82E090E00E94780C0E9413
:101AA0009E0B0E94870C8EE393E00E94630E26E05B
:101AB000969587952A95E1F781700895009769F0CA
:101AC000FC0101900020E9F73197AF01481B590B49
:101AD000BC018AE493E00C94880180E090E00895D2
:101AE0008F929F92AF92BF920F931F93CF93DF93EA
:101AF000CDB7DEB7A1970FB6F894DEBF0FBECDBF4E
:101B000019A2423008F44AE08E010F5D1F4F842E67
:101B1000912CA12CB12CA50194010E945020E62FFC
:101B2000B901CA0101501109EA3014F4E05D01C0A5
:101B3000E95CD801EC93232B242B252B61F7C801FA
:101B40000E945E0DA1960FB6F894DEBF0FBECDBF0A
:101B5000DF91CF911F910F91BF90AF909F908F9089
:101B600008950F931F93CF93DF938C01C0E0D0E0D3
:101B7000F801EC0FFD1F6491662341F08AE493E0C5
:101B80000E941F02892B11F02196F2CFCE01DF9126
:101B9000CF911F910F910895CF93DF930E94B10DC4
:101BA000EC0183E391E00E945E0D8C0F9D1FDF919D
:101BB000CF910895CF92DF92EF92FF92CF93DF9370
:101BC0006115710559F4682F8AE493E0DF91CF9194
:101BD000FF90EF90DF90CF900C941F026C01990F53
:101BE000EE08FF086A307105E9F4F7FE19C06DE2EE
:101BF0008AE493E00E941F02EC0166277727CB015D
:101C00006C197D098E099F094AE00E94700D8C0FA6
:101C10009D1FDF91CF91FF90EF90DF90CF900895BF
:101C20004AE001C0462FC701B601DF91CF91FF9076
:101C3000EF90DF90CF900C94700DCF93DF930E94C4
:101C4000DA0DEC0183E391E00E945E0D8C0F9D1F85
:101C5000DF91CF91089540911A04262F30E0240F90
:101C6000311D21323105DCF4209118032430C9F4F0
:101C7000FC0180E090E0861758F430911A0421911D
:101C8000DC01A650BC4FA30FB11D2C930196F3CFDE
:101C900080911A04680F60931A0480E0089581E02F
:101CA000089582E008950895E091D1028091D002D4
:101CB000E81730F4F0E0EE52FD4F808190E0089597
:101CC0008FEF9FEF08959091D1028091D0029817E5
:101CD00050F4E92FF0E0EE52FD4F208130E09F5F9D
:101CE0009093D10202C02FEF3FEFC9010895809178
:101CF000D00290E02091D102821B91090895CF92E9
:101D0000DF92EF92FF920F931F93CF93DF937C01AB
:101D1000CB018A0120911B03222389F0EB016B0187
:101D2000C40ED51ECC15DD0569F06991D701ED9182
:101D3000FC910190F081E02DC7010995F3CF642F4C
:101D40000E942B0EC801DF91CF911F910F91FF9040
:101D5000EF90DF90CF900895CF93DF931F92CDB790
:101D6000DEB7698320911B032223D1F020913D032C
:101D7000203240F021E030E0FC013383228380E018
:101D800090E015C080911C03E82FF0E0E35EFC4F6B
:101D9000998190838F5F80931C0380933D0305C0DE
:101DA00061E0CE0101960E942B0E81E090E00F9041
:101DB000DF91CF910895833081F028F4813099F03C
:101DC0008230A1F008958730A9F08830B9F08430CE
:101DD000D1F4809180008F7D03C0809180008F7747
:101DE00080938000089584B58F7702C084B58F7D7D
:101DF00084BD08958091B0008F7703C08091B000BA
:101E00008F7D8093B00008953FB7F8948091F603DA
:101E10009091F703A091F803B091F90326B5A89B20
:101E200005C02F3F19F00196A11DB11D3FBFBA2F6C
:101E3000A92F982F8827820F911DA11DB11DBC01CC
:101E4000CD0142E0660F771F881F991F4A95D1F791
:101E5000089588E60E947D0C80E090E00E94780C56
:101E60000E949E0B0E94870C8EE393E00E94630EFB
:101E70008F77982F92959F7026E0929F801911245A
:101E8000089588E60E947D0C81E090E00E94780C25
:101E90000E949E0B0E94870C8EE393E00E94630ECB
:101EA0009C01332794E0359527959A95E1F746E014
:101EB000249F801911240895CF930E94480DC82FA4
:101EC00088E60E947D0C82E090E00E94780C0E94DF
:101ED0009E0B0E94870C8EE393E00E94630EC1115B
:101EE0000CC09C01332794E0359527959A95E1F72E
:101EF00046E0249F8019112408C08F79982F92956D
:101F00009F7026E0929F80191124CF91089588E652
:101F10000E947D0C83E090E00E94780C0E949E0B52
:101F20000E94870C8EE393E00E94630E089588E67A
:101F30000E947D0C84E090E00E94780C0E949E0B31
:101F40000E94870C8EE393E00E94630E9C0133276E
:101F500094E0359527959A95E1F746E0249F8019FE
:101F60001124089588E60E947D0C85E090E00E948F
:101F7000780C0E949E0B0E94870C8EE393E00E94D7
:101F8000630E9C01332794E0359527959A95E1F7E8
:101F900046E0249F80191124089588E60E947D0C54
:101FA00086E090E00E94780C0E949E0B0E94870CB5
:101FB0008EE393E00E94630E9C01332794E03595F5
:101FC00027959A95E1F746E0249F8019112490E027
:101FD0008053984F089585ED8093BC0010921A03AA
:101FE000109219038091BC0084FF15C02091190341
:101FF00030911A0380910401909105012817390747
:1020000050F48091190390911A03019690931A034A
:1020100080931903E7CF1092180308951F920F922F
:102020000FB60F9211242F933F934F935F936F93AB
:102030007F938F939F93AF93BF93EF93FF93809181
:10204000B900887F803609F49CC068F5883209F4AD
:102050005BC090F4803109F454C038F4882309F44B
:10206000F2C0883009F44DC0F2C0883109F44CC088
:10207000803209F45DC0EBC0803409F468C048F4D4
:10208000803309F455C0883309F0E1C0809316030A
:10209000D4C0803509F44FC0883509F45DC0883458
:1020A00009F0D5C0D2C0883909F4C3C0A8F4883774
:1020B00009F467C038F4883609F463C0803709F43E
:1020C00060C0C5C0883809F4B4C0803909F45FC065
:1020D000803809F0BCC05BC0803B09F484C038F490
:1020E000803A09F466C0883A09F47DC0B0C0803CEB
:1020F00009F4A3C0883C09F4A0C0883B09F486C059
:10210000A6C08091F30210C0909115038091140332
:10211000981770F5E091150381E08E0F80931503F9
:10212000F0E0EC50FD4F80818093BB0085EC82C0D5
:10213000809316038AC0E091150381E08E0F80938F
:1021400015038091BB00F0E0EC50FD4F808390912F
:102150001503809114036AC0E091150381E08E0F8E
:10216000809315038091BB00F0E0EC50FD4F80831D
:1021700080911703811169C081E08093F20284EAA3
:102180005DC083E08093180310923C04CFCF809110
:102190003C04803208F04DC0E0913C0481E08E0F99
:1021A00080933C048091BB00F0E0E45EFB4F8083B1
:1021B000BDCF85EC8093BC001092180380913C0445
:1021C000803230F4E0913C04F0E0E45EFB4F10829A
:1021D00060913C0470E08CE194E0E0E0F0E009956F
:1021E00010923C0434C084E08093180310921B04C6
:1021F00010921A04E0E0F0E0099580911A04811130
:1022000005C081E080931A041092FA03E0911B0448
:1022100081E08E0F80931B04F0E0E650FC4F80813C
:102220008093BB0090911B0480911A04981708F4C6
:102230007DCF85E88093BC000AC085EC8093BC000C
:102240001092180304C0109216030E94EB0FFF9126
:10225000EF91BF91AF919F918F917F916F915F911E
:102260004F913F912F910F900FBE0F901F90189597
:10227000CF93DF93282F30E0F901EC55FD4F849187
:10228000F901E057FD4FD491F901E458FD4FC49195
:10229000CC2391F081110E94DB0EEC2FF0E0EE0FC9
:1022A000FF1FEE58FD4FA591B491EC91ED2381E015
:1022B00090E021F480E002C080E090E0DF91CF91D7
:1022C00008951F93CF93DF93282F30E0F901EC5549
:1022D000FD4F8491F901E057FD4FD491F901E45885
:1022E000FD4FC491CC23C1F0162F81110E94DB0E4B
:1022F000EC2FF0E0EE0FFF1FE859FD4FA591B491D0
:102300009FB7F894111104C08C91D095D82302C0C6
:10231000EC91DE2BDC939FBFDF91CF911F9108954D
:10232000CF93DF93CCEBD0E018821092180381E0BA
:10233000809317031092F20261E082E10E94611122
:1023400061E083E10E946111E9EBF0E080818E7F22
:10235000808380818D7F808388E48093B80085E4CA
:102360008883DF91CF910895CF93DF9390E0FC01B4
:10237000E057FD4F2491FC01E458FD4F84918823E0
:1023800061F190E0880F991FFC01E25AFD4FC59161
:10239000D491FC01E859FD4FA591B491611109C098
:1023A0009FB7F8948881209582238883EC912E230F
:1023B0000BC0623061F49FB7F8948881322F30955A
:1023C00083238883EC912E2B2C939FBF06C08FB75D
:1023D000F894E8812E2B28838FBFDF91CF91089549
:1023E0008F929F92AF92BF92CF92DF92EF92FF9225
:1023F0006B017C010E94040F4B015C01C114D104EC
:10240000E104F104F1F00E94040FDC01CB01881912
:102410009909AA09BB09883E9340A105B10570F34B
:1024200021E0C21AD108E108F10888EE880E83E0A5
:10243000981EA11CB11CC114D104E104F10419F7C8
:10244000DDCFFF90EF90DF90CF90BF90AF909F9047
:102450008F9008952FB7F8946091F2037091F30371
:102460008091F4039091F5032FBF08951F920F926E
:102470000FB60F9211242F933F938F939F93AF9397
:10248000BF938091F2039091F303A091F403B09174
:10249000F5033091F10323E0230F2D3720F401964B
:1024A000A11DB11D05C026E8230F0296A11DB11D77
:1024B0002093F1038093F2039093F303A093F4032A
:1024C000B093F5038091F6039091F703A091F80380
:1024D000B091F9030196A11DB11D8093F60390936D
:1024E000F703A093F803B093F903BF91AF919F91C5
:1024F0008F913F912F910F900FBE0F901F901895C5
:10250000CF93DF93CDB7DEB762970FB6F894DEBFF7
:102510000FBECDBF789484B5826084BD84B58160E0
:1025200084BD85B5826085BD85B5816085BD80919E
:102530006E00816080936E00109281008091810016
:10254000826080938100809181008160809381000E
:10255000809180008160809380008091B1008460D0
:102560008093B1008091B00081608093B000809131
:102570007A00846080937A0080917A0082608093F0
:102580007A0080917A00816080937A0080917A004D
:10259000806880937A001092C100E0915A03F09114
:1025A0005B0382E08083E0915603F0915703108231
:1025B000E0915803F091590380E180831092620307
:1025C000E0915E03F0915F0386E08083E0915C031D
:1025D000F0915D03808180618083E0915C03F091E4
:1025E0005D03808188608083E0915C03F0915D03EE
:1025F000808180688083E0915C03F0915D0380813D
:102600008F7D80838AE493E00E946C0261E08AE01F
:102610000E94B41160E08AE00E9461111FB7F89433
:1026200080914B02811127C0E6E8F2E08491EAE94B
:10263000F2E09491E82FF0E0EE0FFF1FE25AFD4F19
:10264000A591B491EC91E92321F461E08AE00E9424
:10265000611161E08AE00E94B4118CB580618CBD8B
:102660008CB580648CBD61E08DE00E94B41161E0A6
:102670008BE00E94B41180914B028F5F80934B02DC
:102680001FBF80917A00887F846080937A0061E028
:1026900087E00E94B41161E087E00E94611161E06F
:1026A00080E10E94B41161E080E10E94611161E06B
:1026B0008FE00E94B41161E08FE00E94611162E03E
:1026C00084E10E94B41162E085E10E94B41162E0ED
:1026D00082E00E94B41162E084E00E94B41162E0E2
:1026E00083E00E94B41162E085E00E94B41162E0D0
:1026F00086E00E94B41162E088E00E94B41162E0BA
:1027000089E00E94B41162E08EE00E94B41162E0A0
:1027100081E10E94B41180E490E00E948404609101
:102720004E0280E090E00E94BA0980934E026091D0
:10273000010181E090E00E94BA098093010160915B
:10274000500282E090E00E94BA09809350026091AA
:102750004F0283E090E00E94BA0980934F0260919B
:10276000560284E090E00E94BA098093560260917C
:10277000550285E090E00E94BA098093550260916D
:10278000540286E090E00E94BA098093540260915E
:10279000530287E090E00E94BA098093530260914F
:1027A000520288E090E00E94BA0980935202609140
:1027B000510289E090E00E94BA0980935102609131
:1027C0006E028AE090E00E94BA0980936E028091C6
:1027D0004E028093A901809150028093AD018091B7
:1027E0004F028093AE01809156028093B801809190
:1027F00055028093B901809154028093BA0180916F
:1028000053028093BC01809152028093BD0180915C
:1028100051028093BE01809101018093BB0182E44B
:1028200091E00E94CC0D84E291E00E94CC0D809159
:102830003A01811105C060E08FEF0E948F04F7CF4D
:1028400083E191E00E94B10D84E08093360162E063
:1028500082E00E94B41162E084E00E94B411109200
:102860007B0110927C016DE573E080E00E942C0BEF
:102870008EE291E00E945E0D83E391E00E945E0D86
:1028800082E090E090937A028093790285E091E073
:102890000E94B10D83E090E09093EA038093E903F6
:1028A00085E090E09093EC038093EB0380933701F5
:1028B0001092ED030E94480B809378028EE291E023
:1028C0000E945E0D83E391E00E945E0D89EF90E02F
:1028D0000E94B10D1092D1021092D00210921C03EE
:1028E00010923D030E94901188E60E947D0C0E9488
:1028F0009E0B88E60E947D0C80E090E00E94780CA0
:102900000E949E0B0E94870C8EE393E00E94630E50
:1029100087FF23C087ED90E00E94CC0D88E60E94DF
:102920007D0C80E090E00E94780C0E949E0B0E943B
:10293000870C8EE393E00E94630E182F88E60E94B6
:102940007D0C80E090E00E94780C612F6F778EE321
:1029500093E00E94AC0E0E949E0B0E94CD0F9093BC
:102960004902809348020E94B20F809347020E945E
:10297000970F809303010E94870F809302010E94AA
:102980005C0F809346020E94410F809345020E9493
:10299000290F809344028BE190E00E94820482FB25
:1029A000222720F991E09227909339018695817032
:1029B000809300010E94710682ED90E00E94CC0D90
:1029C0008091380181110AC088EB90E00E94B10D1E
:1029D0000E94170783EB90E00E94CC0D80EA90E004
:1029E0000E94CC0D60E080E10E9461117724739415
:1029F000812C912C540183940E942A126B017C013A
:102A000080917B0190917C01891B87FD805C8823EC
:102A100011F40C94181D80917B0190917C01891B0D
:102A200087FD805C811102C00FEF12C0E0917C0134
:102A300080917B01E817C1F3EF5FE03408F0E0E03C
:102A4000E0937C01F0E0E55CFE4F0081002361F340
:102A500010E080914A02811104C061E080E10E948F
:102A60006111003E110519F470925E02D8C7013E53
:102A7000110529F470925E0270925D02D0C76091D8
:102A80005C02003F110529F4611103C070925C02E1
:102A9000C6C780915E02811104C080915D028823C7
:102AA00019F080E091E002C080E090E0800F911F7B
:102AB00010925B026093AB01292F21702093B70124
:102AC00087FB222720F92093B60186FB222720F9D5
:102AD0002093B50185FB222720F92093B40184FBC4
:102AE000222720F92093B30183FB222720F920938A
:102AF000B20182FB222720F92093B10181FB22271A
:102B000020F92093B001282F21702093AF01863443
:102B1000910509F44BC30CF0F8C08332910509F418
:102B2000EDC20CF078C08E30910509F494C4CCF558
:102B30008730910509F4ABC6ACF48430910509F4F3
:102B400058C544F48130910509F43BC6039709F454
:102B5000B0C5D9C68530910509F4EBC4069709F4D0
:102B600018C5D1C68B30910509F4C5C544F4893028
:102B7000910509F448C60A9709F401C6C4C68C3009
:102B8000910509F466C50D9709F0BDC6862F872506
:102B900080937F01809394018DE090E00E9405096D
:102BA000B2C68A31910509F4E9C2C4F484319105B1
:102BB00009F4BEC144F48131910509F4CAC14297B8
:102BC00009F4A5C1A0C68531910509F4BFC2469795
:102BD00009F099C667256093820195C68D319105EC
:102BE00009F4C0C25CF48B31910509F4B3C24C976F
:102BF00009F089C667256093800185C681329105F9
:102C000009F478C20CF0B2C24E9709F07CC6672571
:102C100060938A0178C68433910509F47BC2ECF590
:102C20008B32910509F472C2DCF48632910509F405
:102C3000ADC25CF48432910509F464C2859709F051
:102C400062C6672560939A015EC68932910509F4D0
:102C500049C28A9709F057C6672560939F0153C6FA
:102C60008E32910509F496C25CF48C32910509F418
:102C700075C28D9709F047C667256093990143C6D1
:102C80008233910509F432C20CF048C2C19709F0B1
:102C90003AC6672560939E0136C68D33910509F4C7
:102CA0007DC2DCF48A33910509F448C25CF48533B3
:102CB000910509F45FC2C69709F025C667256093A0
:102CC000A30121C68B33910509F42CC2CC9709F0DE
:102CD0001AC6672560939C0116C68234910509F4D3
:102CE00025C24CF48E33910509F45CC28134910500
:102CF00009F49AC208C68434910509F423C20CF081
:102D000041C2672560939401FEC58637910509F499
:102D1000C0C10CF072C08A35910509F4DFC1B4F569
:102D20008E34910509F47DC3D4F48B34910509F4F4
:102D300001C24CF48934910509F490C28A3491059A
:102D400009F412C3E0C58C34910509F4A1C28D3495
:102D5000910509F0D8C5672560938401D4C58535F0
:102D6000910509F444C34CF48235910509F442C23B
:102D70008435910509F4A6C2C6C58835910509F4C4
:102D800087C38935910509F4C2C0BDC58C3691054C
:102D900009F424C2D4F48636910509F492C14CF4A6
:102DA0008B35910509F4B7C28D35910509F4F6C24A
:102DB000AAC58936910509F401C28B36910509F03F
:102DC000A2C5672560939A019EC58237910509F4D3
:102DD000F9C14CF48037910509F4ECC181379105B4
:102DE00009F43CC290C58437910509F4F3C10CF095
:102DF000F9C167256093A20186C58A3521E0920753
:102E000009F46CC10CF044C08D37910509F4EEC192
:102E10000CF58A37910509F4D9C174F48837910506
:102E200009F413C58937910509F06DC567256093CD
:102E30008E016093950167C58B37910509F422C314
:102E40008C37910509F05FC5672560938E0160930B
:102E5000A60159C5823141E0940709F42FC54CF40D
:102E60008338910509F469C48131914009F48BC01C
:102E70004AC58F32F1E09F0709F4B8C08A3421E0D7
:102E8000920709F471C28431914009F03CC550C0E9
:102E9000823741E0940709F4CFC0D4F48C36E1E0E6
:102EA0009E0709F432C354F4893621E0920709F4ED
:102EB00036C38B36914009F4CEC025C5803741E03A
:102EC000940709F497C08137914009F476C01BC577
:102ED0008737E1E09E0709F40DC554F4843721E0FB
:102EE000920709F4C7C08537914009F496C00BC515
:102EF0008C3741E0940709F4E5C48D3751E095071C
:102F000009F4D1C28A37914009F0FDC4E5C280912D
:102F10000101882319F08FE090E002C080E090E08A
:102F20006725FC01E158FE4F608360935A02EBC4B1
:102F300080910101882319F080E090E002C08FE0C9
:102F400090E06725FC01E158FE4F608360936802C2
:102F5000DAC4662E672460928E012091010122233B
:102F600019F086E090E002C080E090E0FC01E158BA
:102F7000FE4F6082211104C081E190E00E940509AA
:102F800060926702C0C4662E672460928E01209111
:102F90000101222319F087E090E002C080E090E078
:102FA000FC01E158FE4F6082211104C081E191E0F3
:102FB0000E94050960926702A6C480915A0281119D
:102FC000A2C480910101882339F0862F8725809340
:102FD00084018093A70106C0862F872580938E01E8
:102FE000809397016725609359028DC4672560938C
:102FF000690289C480915A02811185C480910101BE
:103000006725882329F060938C016093A7017BC416
:1030100060938E016093800176C480915A02811181
:1030200072C4862F872580937F0180939B0185E75B
:1030300091E00E94050967C480915A02811163C41E
:10304000862F872580937F018093A30182E791E0FB
:103050000E94050958C480915A02811154C4862FD8
:10306000872580937F018093A2018BE691E00E94E7
:10307000050949C480915A02811145C4862F8725CC
:1030800080937F018093930184E791E00E9405097A
:103090003AC4662E672460927F01809101018823E3
:1030A00019F083E090E002C087E090E0FC01E15875
:1030B000FE4F608286E790E00E9405096092580208
:1030C00022C4662E672460927F016092830186E6A7
:1030D00090E00E9405096092570215C4672560932D
:1030E000850111C46725609386010DC4672560932F
:1030F000A60109C467256093970105C467256093FD
:10310000900101C4672560939101FDC36725609319
:103110009801F9C367256093A001F5C36725609303
:10312000A501F1C3672560939D01EDC367256093F9
:103130009501E9C3672560938D01E5C36725609319
:103140009601E1C3672560938C01DDC36725609319
:103150008101D9C3672560938801D5C36725609332
:10316000A101D1C3672560938901CDC36725609311
:103170008F01C9C367256093A401C5C36725609308
:103180008701C1C3672560938301BDC36725609331
:103190009201B9C367256093A201B5C36725609307
:1031A0009B01B1C3672560939301ADC3672560930D
:1031B0008B01A9C3672560938301A5C3672560932D
:1031C0008201A1C3672560938A019DC3672560932F
:1031D000920199C367256093A30195C36725609306
:1031E0009B0191C36725609393018DC3672560930D
:1031F0008B0189C3362F372530938E0120915A02D7
:10320000222319F085E090E002C08CE190E0FC01FF
:10321000E158FE4F3083662321F010928401109212
:103220009B0120935B026FC3362F372530938E01AD
:1032300020915A02222319F08AE190E002C08FE126
:1032400090E0FC01E158FE4F3083662321F010929C
:10325000990110929E0120935B0255C3362F3725AA
:1032600030938E0120915A02222319F082E290E0DD
:1032700002C087E190E0FC01E158FE4F30836623F5
:1032800021F01092A1011092960120935B023BC3A2
:10329000362F372530938E0120915A02222319F0C0
:1032A00088E090E002C08DE090E0FC01E158FE4F24
:1032B0003083662321F01092870110928C012093B5
:1032C0005B0221C38091010181110CC061111BC3FC
:1032D00080915A02882311F089E101C085E20E94A1
:1032E000B50811C3262F272520938E0180915A02FD
:1032F000882319F089E190E002C085E290E0FC01AA
:10330000E158FE4F2083662309F4FDC21092980114
:103310001092A401F8C28091010181110CC06111C9
:10332000F2C280915A02882311F081E201C08DE13E
:103330000E94B508E8C2262F272520938E01809190
:103340005A02882319F081E290E002C08DE190E0FA
:10335000FC01E158FE4F2083662309F4D4C2109289
:10336000A00110929C01CFC2362F372530938E01D9
:1033700020915A02222319F088E190E002C080E2F5
:1033800090E0FC01E158FE4F3083662321F010925B
:10339000970110929F0120935B02B5C280910101B9
:1033A00081110CC06111AFC280915A02882311F0C3
:1033B00089E001C081E10E94B508A5C2262F27251A
:1033C00020938E0180915A02882319F089E090E0C1
:1033D00002C081E190E0FC01E158FE4F20836623AA
:1033E00009F491C210928801109290018CC2362F7C
:1033F000372530938E0120915A02222319F086E15D
:1034000090E002C08EE090E0FC01E158FE4F308376
:10341000662321F01092950110928D0120935B029A
:1034200072C2362F372530938E0120915A02222303
:1034300019F084E090E002C08EE190E0FC01E158D8
:10344000FE4F3083662321F01092830110929D017C
:1034500020935B0258C280915A02882329F061119F
:1034600003C081E00E94B50890915A02911107C0F3
:1034700080915C02872580938E0180938F019093C9
:103480005B0241C2672560938E0160939D013BC240
:10349000862F872580938E0180937F0188E590E0B9
:1034A0000E94050930C280915A0281112CC280917C
:1034B0000101882331F06725609396016093A7018D
:1034C00022C2862F872580937F01809392018DE70A
:1034D00091E00E94050917C280915A02811113C21E
:1034E00080910101882331F0672560939E016093EC
:1034F000A70109C2862F872580937F0180939A01B7
:103500008AE791E00E940509FEC180915A0281116B
:10351000FAC16725609395016093A701F4C180917A
:103520005A028111F0C1672560938D016093A70154
:10353000EAC180916902811108C0809168028823E4
:1035400011F1809167028823F1F06111DCC11092C2
:1035500056021092550284E090E09A8B898B64E1C8
:10356000CE0141960E948C096091550285E090E061
:103570000E94A509809156028093B801809155025E
:103580008093B901C0C16725609380016093A70152
:10359000BAC180916902811108C0809168028823B4
:1035A00011F1809167028823F1F06111ACC1709232
:1035B00056021092550284E090E09A8B898B6AE063
:1035C000CE0141960E948C096091550285E090E001
:1035D0000E94A509809156028093B80180915502FE
:1035E0008093B90190C167256093A6016093A701FC
:1035F0008AC180916902811108C080916802882384
:1036000011F1809167028823F1F061117CC1109261
:1036100056027092550284E090E09A8B898B64E1A7
:10362000CE0141960E948C096091550285E090E0A0
:103630000E94A509809156028093B801809155029D
:103640008093B90160C16725609397016093A701DA
:103650005AC180916902811108C080916802882353
:1036600011F1809167028823F1F061114CC17092D1
:1036700056027092550284E090E09A8B898B6AE042
:10368000CE0141960E948C096091550285E090E040
:103690000E94A509809156028093B801809155023D
:1036A0008093B90130C16725609390016093A701B1
:1036B0002AC180916902811108C080916802882323
:1036C000A1F080916702882381F061111CC1609193
:1036D000540267256093540286E090E00E94A50999
:1036E000809154028093BA010EC1672560939101C5
:1036F0006093A70108C180916902811108C080917F
:1037000068028823A1F080916702882381F061110B
:10371000FAC06091530267256093530287E090E0FE
:103720000E94A509809153028093BC01ECC06725DB
:10373000609398016093A701E6C0809169028111AE
:1037400008C0809168028823A1F0809167028823D5
:1037500081F06111D8C060915202672560935202D6
:1037600088E090E00E94A509809152028093BD01FB
:10377000CAC067256093A0016093A701C4C080916F
:103780006902811108C0809168028823A1F08091AC
:103790006702882381F06111B6C0609151026725EC
:1037A0006093510289E090E00E94A5098091510246
:1037B0008093BE01A8C067256093A5016093A7010F
:1037C000A2C080916902811108C08091680288239B
:1037D000A1F080916702882381F0611194C060910B
:1037E000500267256093500282E090E00E94A50994
:1037F000809150028093AD0186C06725609394014B
:103800006093A70180C080916902811108C08091F6
:1038100068028823A1F080916702882381F06111FA
:1038200072C060914F02672560934F0283E090E081
:103830000E94A50980914F028093AE0164C0672564
:1038400060939D016093A7015EC080916902811120
:1038500008C0809168028823A1F0809167028823C4
:1038600081F0611150C060914E02672560934E0255
:1038700080E090E00E94A50980914E028093A9010A
:1038800042C067256093810160938E013CC08091A6
:103890006902811108C080916802882349F08091F3
:1038A0006702882329F061112EC00E947F082BC077
:1038B00067256093890160938E0125C06725609319
:1038C0004D0221C080915A0281111DC080914D028C
:1038D0008823C9F0611117C06091010167256093C9
:1038E000010181E090E00E94A5098091010180938F
:1038F000BB0109C0662339F080914C028725809373
:103900004C028093AC0120915B0280917D019091EB
:103910007E01222321F0009711F410927F011816E6
:10392000190614F470927F01809168028823C1F017
:10393000809167028823A1F080915902882381F049
:1039400010926802109267021092590210925A0265
:1039500010925B0210927E0110927D010E949A08E3
:10396000809168028823C1F0809167028823A1F0CA
:1039700080915802882381F01092680210926702A9
:103980001092580210925A0210925B0210927E011D
:1039900010927D010E947F08809168028823A1F126
:1039A00080916702882381F180915702882361F119
:1039B00010926802109267021092570210925A02F7
:1039C00010925B0210927E0110927D0189E290E0DC
:1039D0000E9484047092A8010E943A0870928801A3
:1039E0000E943A0864EF71E080E090E00E94F011DC
:1039F0001092A8010E943A0864EF71E080E090E024
:103A00000E94F0111092880110925C0280915D0278
:103A1000882319F010925D0202C010925E028AECB7
:103A200091E00E94B10D60E170E0C8010E941D0E9E
:103A30000E943A088CB58F7B8CBD62E08AE00E94C0
:103A4000B41186E00E94381121E0892B09F020E0B2
:103A50002093870288E00E94381121E0892B09F029
:103A600020E02093880289E00E94381121E0892B10
:103A700009F020E0209389028AE00E94381121E0B9
:103A8000892B09F020E020938A028EE00E943811F1
:103A900021E0892B09F020E02093850281E10E943A
:103AA000381121E0892B09F020E02093860261E0A3
:103AB0008AE00E94B41160E08AE00E9461118CB536
:103AC00080618CBD8CB580648CBD40918502509125
:103AD0007F02309186021091870220918802909196
:103AE000890280918A02451315C0509180023513D6
:103AF00011C05091810215130DC0509182022513FF
:103B000009C050918302951305C050918402851716
:103B100009F451C040937F023093800210938102D8
:103B20002093820290938302809384028FEB91E032
:103B30000E94B10D8BEB91E00E94B10D6AE070E044
:103B4000812F90E00E94DA0D87EB91E00E94B10D89
:103B5000809188026AE070E090E00E94DA0D83EBC9
:103B600091E00E94B10D809189026AE070E090E0DE
:103B70000E94DA0D8FEA91E00E94B10D80918A02D5
:103B80006AE070E090E00E94DA0D8BEA91E00E941A
:103B9000B10D809185026AE070E090E00E94DA0D3C
:103BA00086EA91E00E94B10D809186026AE070E0A1
:103BB00090E00E941D0EE5E8F2E080E090E060E019
:103BC000319114012501082E04C0220C331C441C21
:103BD000551C0A94D2F7332311F0622904C09201D4
:103BE00081010095602301968630910549F78DE0AB
:103BF0000E948F0480917B0290917C02A0917D02B3
:103C0000B0917E02A7019601281B390B4A0B5B0B72
:103C1000DA01C901843F9140A105B10540F10E943C
:103C2000CD0F90934902809348020E94B20F809377
:103C300047020E94970F809303010E94870F809391
:103C400002010E945C0F809346020E94410F809304
:103C500045020E94290F809344020E947106C0927F
:103C60007B02D0927C02E0927D02F0927E02009173
:103C7000790210917A02101611060CF03FC0809163
:103C8000780281113BC08091740290917502A091DD
:103C90007602B091770216012701281A390A4A0ADA
:103CA0005B0AD201C10185369105A105B10530F14C
:103CB0000150110910937A02009379028CE791E088
:103CC0000E94B10D6AE070E0C8010E941D0E0E94C2
:103CD000480B182F809378028CE691E00E94B10D7A
:103CE0006AE070E0812F90E00E941D0EC092740285
:103CF000D0927502E0927602F092770280913F02B4
:103D000090914002891B87FD805F18160CF08EC0D1
:103D100080913F0290914002891B87FD805F88233C
:103D200011F18091400290913F028917E1F08F5F7D
:103D3000803108F080E08093400228E0829FC0013B
:103D4000112481549E4F28E0FC01DE011196019060
:103D50000D922A95E1F7FC01408151816281238116
:103D60003481858106C030E080E060E020E040E002
:103D700050E05A8349836B832C833D838E8388E094
:103D8000FE013196DE01199601900D928A95E1F7B8
:103D90002F81709173027725709373026093720282
:103DA00030937102E42FE170E0936F02CA0196959F
:103DB0008795382F3170CA018470992740916E021F
:103DC000442311F0532F01C05E2F552311F02061C1
:103DD00001C02F7E2093700241113E2F209170026E
:103DE000332311F0206201C02F7D209370022091B7
:103DF0007002892B11F0206401C02F7B2093700288
:103E000080917002772311F0806801C08F778093D2
:103E100070028AE00E948F04609171028BE00E9420
:103E20008F04609170028CE00E948F048091780270
:103E3000882309F459C080916A0290916B02A09185
:103E40006C02B0916D0216012701281A390A4A0A3C
:103E50005B0A29EE221623E032064104510408F4DD
:103E600043C080916902811108C080916802882353
:103E700099F180916702882379F180916F028823FC
:103E800059F160916E02672560936E028AE090E0BE
:103E90000E94A50961E080E10E94611164E670E082
:103EA00080E090E00E94F01160E080E10E946111EA
:103EB00064E670E080E090E00E94F01161E080E153
:103EC0000E94611164E670E080E090E00E94F011D1
:103ED00060E080E10E946111C0926A02D0926B02A0
:103EE000E0926C02F0926D0280914A02882359F1AF
:103EF00010914302112321F061E080E10E946111E1
:103F00008091630290916402A0916502B091660273
:103F100016012701281A390A4A0A5B0AD201C1018F
:103F200084369105A105B10570F0C0926302D0926C
:103F30006402E0926502F0926602111104C060E032
:103F400080E10E94611180914202882349F1109121
:103F50004102112321F061E08FE00E946111809104
:103F60005F0290916002A0916102B0916202A7018C
:103F70009601281B390B4A0B5B0B24363105410592
:103F8000510570F0C0925F02D0926002E09261022F
:103F9000F0926202111104C060E08FE00E94611192
:103FA0000E948E020C94FC14EEE3F3E01382128262
:103FB00088EE93E0A0E0B0E084839583A683B78386
:103FC0002EE031E031832083EAE4F3E013821282B1
:103FD00084839583A683B78380E291E09183808375
:103FE00085EC90E09587848784EC90E097878687BE
:103FF00080EC90E0918B808B81EC90E0938B828BB6
:1040000082EC90E0958B848B86EC90E0978B868B8E
:10401000118E128E138E148EE7EEF3E081E580830D
:1040200011820895F999FECF92BD81BDF89A992722
:1040300080B50895262FF999FECF1FBA92BD81BD94
:1040400020BD0FB6F894FA9AF99A0FBE019608951A
:10405000AA1BBB1B51E107C0AA1FBB1FA617B707AE
:1040600010F0A61BB70B881F991F5A95A9F78095CA
:104070009095BC01CD01089597FB072E16F400948E
:1040800007D077FD09D00E94282007FC05D03EF418
:10409000909581959F4F0895709561957F4F0895F4
:1040A000A1E21A2EAA1BBB1BFD010DC0AA1FBB1F3C
:1040B000EE1FFF1FA217B307E407F50720F0A21BAE
:1040C000B30BE40BF50B661F771F881F991F1A941B
:1040D00069F760957095809590959B01AC01BD0145
:1040E000CF010895991B79E004C0991F961708F035
:1040F000961B881F7A95C9F780950895EE0FFF1FCC
:104100000590F491E02D099481E090E0F8940C94EE
:064110008920F894FFCFA6
:1041160001010101DC058701870100000000AC0EEA
:104126007F0EB301530E770E630E540E000000008F
:104136001F028801B6016C02E701C501D901646F4F
:064146006E65000D0A0089
:00000001FF
