:100000000C9474010C941A040C94F3030C949C014A
:100010000C949C010C949C010C949C010C949C01EC
:100020000C949C010C949C010C949C010C949C01DC
:100030000C949C010C949C010C949C010C949C01CC
:100040000C9488120C949C010C9467040C94410449
:100050000C949C010C949C010C949C010C949C01AC
:100060000C9449100C949C0139055D056B057E05C7
:100070008C05EA05F8050E062C063F0668066D0697
:1000800085068506450758076B077E079107B50764
:10009000D907EC07FF0712082A08320839083C087C
:1000A0005374617274696E67206D61696E206C6F44
:1000B0006F7000646F6E65005254432073656E6408
:1000C00020616C6C207265676973746572732E2E83
:1000D0002E00646F6E6500525443206973206E6F6A
:1000E000742072756E6E696E672E2053746172692A
:1000F0006E672069742E2E2E0052544320696E695B
:10010000742E2E2E004D6F75736520696E69742EE6
:100110002E2E004B6579626F61726420696E69747E
:100120002E2E2E0057616974696E6720666F7220EB
:100130004650474120696E69742072657175657318
:1001400074005A58204B6579626F617264202F20C9
:100150006D6F757365202F2072746320636F6E74EA
:10016000726F6C6C65722076312E30004D6F757336
:10017000652070726573656E743A20004D6F7573FB
:1001800065206E6F742070726573656E742E2054D6
:100190007279696E6720746F20696E6974206D6F63
:1001A0007573653A2000646F6E650042544E323AB2
:1001B0002052657365742E2E2E00646F6E650042AA
:1001C000544E313A2046756C6C2072657365742EFE
:1001D0002E2E002046323A0020463A0020523A00A5
:1001E000204C3A0020443A0020553A004A6F797377
:1001F0007469D1816B3A005363616E636F64653AD1
:100200002000646F6E650052544320696E6974204B
:10021000726571756573742E2E2E00556E6B6E6F40
:10022000776E005265762E43005265762E41207718
:10023000697468205444413135343341204441438A
:10024000005265762E41207769746820544441310C
:1002500035343320444143004650474120626F61AA
:100260007264207265766973696F6E2069733A20D3
:1002700000646F6E65004650474120696E697420C6
:10028000726571756573742E2E2E000000000024B7
:100290000027002A0000000000250028002B000095
:1002A00000000023002600290004040404040404C0
:1002B0000402020202020203030303030301020415
:1002C00008102040800102040810200102040810D8
:1002D00020000000080002010000030407000000E5
:1002E000000000000000C42011241FBECFEFD8E0A2
:1002F000DEBFCDBF24E0A6E3B1E001C01D92A3356F
:10030000B207E1F711E0A0E0B1E0E6EFF2E402C0ED
:1003100005900D92A633B107D9F711E0C4E7D1E0FB
:1003200004C02197FE010E946E21C337D107C9F78F
:100330000E94D2120C9479210C9400000895CF925F
:10034000DF92EF92FF920F931F93CF93DF936C0195
:100350007A018B01C0E0D0E0CE15DF0581F0D80135
:100360006D918D01D601ED91FC910190F081E02D10
:10037000C6010995892B11F02196EECF7E01C701A8
:10038000DF91CF911F910F91FF90EF90DF90CF9071
:100390000895089580E090E00895FC01538D448D08
:1003A000252F30E0842F90E0821B930B541710F020
:1003B000CF96089501970895FC01918D828D98172D
:1003C00061F0828DDF01A80FB11D5D968C91928D39
:1003D0009F5F9F73928F90E008958FEF9FEF089536
:1003E000FC01918D828D981731F0828DE80FF11DFF
:1003F000858D90E008958FEF9FEF0895FC01918D1A
:10040000228D892F90E0805C9F4F821B91098F7312
:100410009927089580E693E00E94FE0121E0892B50
:1004200009F420E0822F0895FC01848DDF01A80FDC
:10043000B11DA35ABF4F2C91848D90E001968F730C
:100440009927848FA689B7892C93A089B1898C912B
:10045000837080648C93938D848D981306C002887A
:10046000F389E02D80818F7D80830895EF92FF9244
:100470000F931F93CF93DF93EC0181E0888F9B8DC7
:100480008C8D981305C0E889F989808185FD26C087
:10049000F62E0B8D10E00F5F1F4F0F731127E02E0C
:1004A0008C8DE8120CC00FB607FCFACFE889F989E9
:1004B000808185FFF5CFCE010E941402F1CF8B8D94
:1004C000FE01E80FF11DE35AFF4FF0829FB7F89449
:1004D0000B8FEA89FB89808180620AC09FB7F894FC
:1004E000EE89FF896083E889F9898081837080645F
:1004F00080839FBF81E090E0DF91CF911F910F91AA
:10050000FF90EF900895CF93DF93EC01888D8823BF
:10051000C9F0EA89FB89808185FD05C0A889B98970
:100520008C9186FD0FC00FB607FCF5CF808185FF4B
:10053000F2CFA889B9898C9185FFEDCFCE010E94B9
:100540001402E7CFDF91CF91089580E090E0892BEE
:1005500029F00E940A0281110C94000008958D3048
:1005600008F08CE808950E947421CF92DF92EF92F8
:10057000FF920F931F93CF93809137010E947311C5
:100580008C01C1E0892B09F4C0E00E947C12C0906C
:10059000E102D090E202E090E302F090E4029B01DD
:1005A000AC012C193D094E095F0969017A013BE054
:1005B000C316D104E104F10430F01092E00210926D
:1005C000DF021092DE026093E1027093E2028093F8
:1005D000E3029093E4028091E0028F5F8093E00257
:1005E0008A3050F4823068F4813009F06FC0109284
:1005F000DE021092DD0270C08A30B1F08B30E9F07B
:1006000065C08091DD02C80FC093DD028091DE02DB
:1006100090E095958795012B11F420E001C020E82A
:10062000822B8093DE0258C08091DD0281708C1392
:1006300001C08DEF8093DD024FC08091DD028D3FC0
:1006400018F01092DF023FC08091DF02813061F02C
:1006500018F08230B1F037C08091DE0290E09093C4
:10066000D6028093D50207C08091DE0290E090937D
:10067000D8028093D7028091DF028F5F8093DF02E0
:1006800022C08091DE0290E09093DA028093D9023A
:100690001092DF02809147028F5F803108F080E086
:1006A00090914802891779F048E0849FD001112485
:1006B000A953BE4F98E0E5EDF2E001900D929A95B6
:1006C000E1F7809347021092E00204C01092E0022A
:1006D0001092DF021092DE02CF911F910F91FF90D6
:1006E000EF90DF90CF900895CF92DF92EF92FF923C
:1006F0000F931F93CF93809136010E947311C82FDF
:100700000E947C120091D1021091D2022091D3025A
:100710003091D4026B017C01C01AD10AE20AF30ABB
:10072000970186010A3111052105310510F010925B
:10073000D0026093D1027093D2028093D30290933F
:10074000D4028091D0028F5F8093D0028A3048F427
:10075000823060F48130E9F51092CF021092CE021F
:100760003AC08A30B1F08B30E9F033C08091CE02CC
:100770008C0F8093CE028091CF0290E09595879563
:10078000C11102C020E001C020E8822B8093CF027B
:1007900022C08091CE028170C81301C08DEF80937A
:1007A000CE0219C08091CE028D3F98F480917B01DA
:1007B0008F5F803408F080E090917C01891749F0C8
:1007C000E82FF0E09091CF02E55CFE4F908380939C
:1007D0007B011092D002CF911F910F91FF90EF906B
:1007E000DF90CF9008951F920F920FB60F921124B1
:1007F0002F933F934F935F936F937F938F939F9329
:10080000AF93BF93EF93FF93E0910801F09109013B
:100810000995FF91EF91BF91AF919F918F917F913A
:100820006F915F914F913F912F910F900FBE0F905D
:100830001F9018951F920F920FB60F9211242F93AD
:100840003F934F935F936F937F938F939F93AF9358
:10085000BF93EF93FF93E0910601F0910701099593
:10086000FF91EF91BF91AF919F918F917F916F9188
:100870005F914F913F912F910F900FBE0F901F905E
:1008800018951F920F920FB60F9211242F933F933A
:100890004F935F936F937F938F939F93AF93BF9388
:1008A000EF93FF9380E693E00E941402FF91EF9193
:1008B000BF91AF919F918F917F916F915F914F9178
:1008C0003F912F910F900FBE0F901F9018951F9280
:1008D0000F920FB60F9211242F938F939F93EF9344
:1008E000FF93E0917003F09171038081E0917603B2
:1008F000F091770382FD12C09081809179038F5F20
:100900008F7320917A03821751F0E0917903F0E020
:10091000E05AFC4F958F8093790301C08081FF914D
:10092000EF919F918F912F910F900FBE0F901F907D
:1009300018950C940221EFE7F1E09F012F57314009
:100940002817390714F41192F8CF0895CF93DF9345
:10095000D82FC62F9091FD038091FE039CBD8DBDC5
:1009600060E087E00E949C11DEBD00000DB407FE30
:10097000FDCFDEB5CEBD00000DB407FEFDCFCEB578
:1009800061E087E00E949C11DD2309F4BEC1DD3FD8
:1009900069F580913A018111B8C186E792E00E9421
:1009A000EC0D81E080933A010E9451080E942E07CD
:1009B0000E94D50881E792E00E94070E88E592E048
:1009C0000E94EC0DC13049F028F0C23061F483E29E
:1009D00092E005C081E492E002C089E292E0DF91FA
:1009E000CF910C94070E8BE192E0F9CFDC3F81F4BC
:1009F00080913801811189C187E092E00E94EC0D5D
:100A000081E0809338010E942E0782E092E0E7CFD8
:100A1000DE3099F48C2F817080934B02C1FB8827C4
:100A200080F980934902C2FB882780F980935202A3
:100A3000C3FB882780F980934A02D058D03408F04D
:100A400064C18091CA02D81305C08091C902C81739
:100A500009F45BC1D093CA02C093C9028D2F90E004
:100A60008E30910508F049C1FC01EC5CFF4F0C94FD
:100A70006E2180913901882339F08C2F82958F70F7
:100A800096E0899FC0191124C0934C0288E60E9409
:100A9000B80C80E090E00E94B30C0E94D90B0E9439
:100AA000C20C84E593E00E949E0E8078C82B88E6F5
:100AB0000E94B80C80E090E0C3C080913901882387
:100AC00039F08C2F82958F7096E0899FC019112480
:100AD000C093CD021AC180913901882339F08C2F3F
:100AE00082958F7096E0899FC0191124C0934D02A2
:100AF00088E60E94B80C81E090E0A2C080913901A4
:100B0000882339F08C2F82958F7096E0899FC019C9
:100B10001124C093CC02F9C080913901882339F0A7
:100B20008C2F82958F7096E0899FC0191124C093F5
:100B30004E0288E60E94B80C82E090E00E94B30C5E
:100B40000E94D90B0E94C20C84E593E00E949E0E85
:100B5000C82F88E60E94B80C82E090E00E94B30C97
:100B60006C2F6F7B84E593E00E94E70E0E94D90B07
:100B7000C0914E020E94830DD82F88E60E94B80CC7
:100B800082E090E00E94B30C8C2FDD2309F45BC05F
:100B9000CD3078F06CE00E946221292F892F6AE025
:100BA0000E946221682F660F680F660F620F6066F1
:100BB00009C06AE00E946221682F660F680F660F05
:100BC0006C0F606484E593E00E94E70EDF91CF91A3
:100BD0000C94D90B80913901882339F08C2F8295A0
:100BE0008F7096E0899FC0191124C093CB028DC0ED
:100BF00080913901882339F08C2F82958F7096E08F
:100C0000899FC0191124C093020188E60E94B80C84
:100C100083E090E00E94B30C6C2FD4CF8091390117
:100C2000882339F08C2F82958F7096E0899FC019A8
:100C30001124C093030188E60E94B80C84E090E080
:100C40000E94B30C8C2F6AE00E946221682F660F0D
:100C5000680F660F6C0FB6CF80913901882339F089
:100C60008C2F82958F7096E0899FC0191124C093B4
:100C70004F0288E60E94B80C85E090E0E1CF8091B9
:100C80003901882339F08C2F82958F7096E0899FE7
:100C9000C0191124D0E0C053D84FD0935102C09353
:100CA000500288E60E94B80C86E090E00E94B30CE7
:100CB000CE0164E670E00E941821282F6AE00E94AD
:100CC0006221682F660F860F880F682F620F7ACF18
:100CD0006C2F6F778AE190E014C0C2FB992790F9DE
:100CE00081E0892780933901C1FB882780F98093AF
:100CF00000016C2F8BE190E004C08D2F90E06C2FF1
:100D00004096DF91CF910C940A21DF91CF91089505
:100D10008091390120914C02882351F0822F6AE0A2
:100D20000E946221682F660F680F660F620F01C074
:100D3000622F80E40E94A6048091390120914D0227
:100D4000882351F0822F6AE00E946221682F660F8B
:100D5000680F660F620F01C0622F82E40E94A60432
:100D60009091000180913901992331F020914E0238
:100D7000811109C0822F15C0882379F080914E021D
:100D80000E94AF02282F822F6AE00E946221982FD2
:100D9000990F890F880F820F04C080914E020E9424
:100DA000AF02682F84E40E94A6048091390120914B
:100DB0000201882351F0822F6AE00E946221682F8D
:100DC000660F680F660F620F01C0622F86E40E94F3
:100DD000A6048091390120910301882351F0822FCC
:100DE0006AE00E946221682F660F680F660F620F2B
:100DF00001C0622F87E40E94A604809139012091EE
:100E00004F02882351F0822F6AE00E946221682FEE
:100E1000660F680F660F620F01C0622F88E40E94A0
:100E2000A60420913901809150029091510264E60C
:100E300070E00E942C21222351F0282F6AE00E94AA
:100E40006221682F660F680F660F620F01C0682F5E
:100E500089E40C94A604805C0C94A604FF920F9382
:100E60001F93CF93DF93C0E1D0E004E610E0FC2EA7
:100E700080EFF80E8F2D90E08E30910508F0FFC0C6
:100E8000FC01EE5BFF4F0C946E21809139012091A3
:100E90004C02882351F0822F6AE00E946221682F61
:100EA000660F680F660F620F01C0622F80E0ECC012
:100EB000809139012091CD02882351F0822F6AE080
:100EC0000E946221682F660F680F660F620F01C0D3
:100ED000622F81E0D9C08091390120914D02882391
:100EE00051F0822F6AE00E946221682F660F680F1E
:100EF000660F620F01C0622F82E0C6C08091390187
:100F00002091CC02882351F0822F6AE00E94622156
:100F1000682F660F680F660F620F01C0622F83E0B3
:100F2000B3C09091000180913901992331F0209153
:100F30004E02811109C0822F15C0882379F080915B
:100F40004E020E94AF02282F822F6AE00E94622187
:100F5000982F990F890F880F820F04C080914E023D
:100F60000E94AF02682F84E08FC0909100018091B1
:100F70003901992331F02091CB02811109C0822FD0
:100F800015C0882379F08091CB020E94AF02282FF0
:100F9000822F6AE00E946221982F990F890F880F93
:100FA000820F04C08091CB020E94AF02682F85E0BF
:100FB0006BC08091390120910201882351F0822F6A
:100FC0006AE00E946221682F660F680F660F620F49
:100FD00001C0622F86E058C0809139012091030141
:100FE000882351F0822F6AE00E946221682F660FE9
:100FF000680F660F620F01C0622F87E045C08091C5
:10100000390120914F02882351F0822F6AE00E941B
:101010006221682F660F680F660F620F01C0622F92
:1010200088E032C0209139018091500290915102A4
:10103000B8010E942C21222351F0282F6AE00E943F
:101040006221682F660F680F660F620F01C0682F5C
:1010500089E01AC08AE190E00E949904682F6F77B6
:101060008AE012C08BE190E00E949904682F8BE027
:101070000BC060E08CE008C060E88DE005C0CE01E8
:101080000E949904682F8F2D0E942B072196C0354E
:10109000D10509F0ECCEDF91CF911F910F91FF9018
:1010A0000895CF92DF92EF92FF920F931F93CF9309
:1010B000DF93D0E0C0E0C12CD12C7601C39480E056
:1010C00090E060E0ED2FE80FF0E0E158FE4F208166
:1010D000222361F097018601082E04C0000F111F22
:1010E000221F331F0A94D2F7602B0CC09701860190
:1010F000082E04C0000F111F221F331F0A94D2F7BD
:1011000000956023019688309105E1F6CF5F8C2F22
:101110000E94A604D85FC93091F6DF91CF911F914C
:101120000F91FF90EF90DF90CF900895CF93DF93D2
:1011300089E290E00E949B04CFE7D1E081E08BA799
:101140000E94510864E670E080E090E00E94421244
:1011500089E290E00E949B041BA6DF91CF910C9442
:1011600051081F93CF93DF9389E290E00E949B0484
:10117000CFE7D1E011E019A70E94510819870E941A
:10118000510864EF71E080E090E00E94421219A6DD
:101190000E94510864EF71E080E090E00E944212EA
:1011A0001986DF91CF911F910895CF93DF9389E244
:1011B00090E00E949B04CFE7D1E081E089A70E94E4
:1011C000510864E670E080E090E00E94421289E2FB
:1011D00090E00E949B0419A6DF91CF910C945108D6
:1011E000FF920F931F93CF93DF93C82F89E290E074
:1011F0000E949B040E94510864E170E080E090E04E
:101200000E9442120FE711E0FF24F394F801F082EC
:101210000E94510864E170E080E090E00E94421278
:10122000F801F7860E94510864E170E080E090E0E8
:101230000E944212F80117860E94510864E170E092
:1012400080E090E00E944212D0E0C158DE4FF88268
:101250000E94510864E170E080E090E00E94421238
:10126000F801108218820E94510864E170E080E069
:1012700090E0DF91CF911F910F91FF900C9442125B
:10128000CF92DF92EF92FF920F931F93CF93DF9352
:10129000CDB7DEB7A8970FB6F894DEBF0FBECDBFAF
:1012A00020917D0130917E01611126C01216130636
:1012B000ACF4E1EAF2E040E050E0A191B1918A178C
:1012C0009B0709F461E04F5F5F4F24173507A9F7CB
:1012D00061114EC0243131050CF04AC0F901EE0F06
:1012E000FF1FEF55FD4F918380832F5F3F4F30935A
:1012F0007E0120937D013CC0FE01319648E2DF0172
:101300001D924A95E9F7121613061CF040E050E0D2
:101310002BC001EA12E0780140E050E060E070E0AC
:10132000D701CD90DD907D018C159D0549F0DA0146
:10133000AA0FBB1FAE0FBF1FCD92DC924F5F5F4F56
:101340006F5F7F4F2617370759F741155105F1F2A7
:1013500080E090E021913191D8012D933D938D0152
:10136000019684179507B4F350937E0140937D0155
:10137000A8960FB6F894DEBF0FBECDBFDF91CF9118
:101380001F910F91FF90EF90DF90CF900895FF9203
:101390000F931F93CF93DF93EC01F62E08811981F1
:1013A000C8010E940221F81621F06F2DC8010E9489
:1013B0000A21CE01DF91CF911F910F91FF900895E7
:1013C000CF93DF9300D0CDB7DEB7611102C064E1E7
:1013D00001C06AE09A838983CE0101960E94C70901
:1013E0000F900F90DF91CF910895EF92FF921F938E
:1013F000CF93DF9300D0CDB7DEB77C01162F0E94CC
:1014000099048A3011F0843129F461E08A3071F056
:1014100060E00CC0111102C064E101C06AE0FA8210
:10142000E982CE0101960E94C709612F862F0F9095
:101430000F90DF91CF911F91FF90EF900895CF9380
:10144000C82F60E00E94EF1161E08C2FCF910C94C7
:101450009C11CF93C82F61E00E94EF1160E08C2FA8
:10146000CF910C949C11CF92DF92EF92FF92CF9389
:10147000DF93EC010E947C126B017C010E947C12C4
:10148000DC01CB018C199D09AE09BF09883E934050
:10149000A105B10548F48091FF030E9473118C17D8
:1014A0009D0761F781E001C080E0DF91CF91FF905F
:1014B000EF90DF90CF9008952091010430910204C5
:1014C000019721F4C9010E941F0A03C0C9010E94AB
:1014D000290A81E090E00E94330A80E090E00C94B9
:1014E000330ACF93DF9380E090E00E94330A80912B
:1014F00001040E947311EC0181E090E00E94330A24
:10150000CE01DF91CF910895CF92DF92EF92FF92BB
:101510000F931F93CF938091FF03909100040E943B
:101520001F0A80910104909102040E941F0A83EC1B
:1015300090E00197F1F780E090E00E94330A8FE09D
:1015400090E00197F1F781E090E00E94330AC0E05B
:1015500000E010E0C12CD12C7601C3940E94710AE6
:10156000892B61F0D701C601002E04C0880F991F96
:10157000AA1FBB1F0A94D2F7C82B0CC0D701C60103
:10158000002E04C0880F991FAA1FBB1F0A94D2F710
:101590008095C8230F5F1F4F08301105F9F60E9490
:1015A000710A0E94710A8091FF03909100040E94C9
:1015B000290A8C2FCF911F910F91FF90EF90DF9010
:1015C000CF900895BF92CF92DF92EF92FF920F9348
:1015D0001F93CF93DF93C82E809101049091020452
:1015E0000E941F0A8091FF03909100040E941F0A2D
:1015F000CBEAD4E0CE010197F1F78091FF039091FF
:1016000000040E94290A2197F1F78091010490912A
:1016100002040E94290A83E290E00197F1F7809189
:10162000FF03909100040E941F0A80E090E00E9456
:10163000330AB82E882309F43FC0EE24E394F12C3A
:10164000C0E0D0E00C2C000CDD0886010C2E02C09E
:10165000159507950A94E2F701701127C8010E94B9
:101660005C0AE026F1262196C830D10571F7C70142
:101670000E945C0A80910104909102040E941F0A5A
:1016800083EC90E00197F1F780E090E00E94330A4C
:101690008091FF030E947311892BD1F38091010483
:1016A0000E947311892BA1F38091FF039091000494
:1016B0000E94290A0E94840A8B2DDF91CF911F91ED
:1016C0000F91FF90EF90DF90CF90BF900895823000
:1016D000C8F4E82FF0E0EE0FFF1FEA5FFE4F7183C2
:1016E0006083813041F0809169008C7F82608093BB
:1016F0006900E89A089580916900837F88608093EB
:101700006900E99A08958091FF03909100040E9476
:101710001F0A80910104909102040E941F0A8FEF1A
:1017200090E00E94E20A882321F00E94840A0E942D
:10173000840A88EE90E00E94E20A83E090E00E9432
:10174000E20A86EE90E00E94E20A83EF90E00E94B7
:10175000E20A88E290E00E94E20A8AEE90E00E94AB
:10176000E20A84EF90E00E94E20A8BE891E00197A0
:10177000F1F78091FF03909100048230910521F0F0
:10178000039721F08FEF03C080E001C081E065EB9B
:1017900072E00E94670B8091FF03909100040E9409
:1017A0001F0A80910104909102040E941F0A81E0A7
:1017B000089520915303213208F0C7C08091060498
:1017C0001092300310922F0390912E039923B1F0C1
:1017D00060912F03709130034091040150910501F5
:1017E0006417750758F440912F03509130034F5FF1
:1017F0005F4F5093300340932F03E6CF60912F0348
:1018000070913003409104015091050164177507F0
:1018100008F07EC092E090932E0391E090932D0308
:101820009FEF90932C0310922B0320932A03A3E3A2
:10183000B3E0EAE0F3E090E0291721F03D91319325
:101840009F5FFACF1092090390910903880F892BAB
:101850008093090380910803813079F51092080381
:101860001092300310922F03809109038093BB00E4
:1018700080912F03909130030196909330038093D1
:101880002F038091BC0083FF0BC020912F03309168
:10189000300380910401909105012817390720F346
:1018A00020912F0330913003809104019091050124
:1018B0002817390768F585EC01C085EE8093BC00D8
:1018C0001092300310922F0380912E038230A9F4DE
:1018D00020912F03309130038091040190910501F4
:1018E0002817390750F480912F0390913003019607
:1018F0009093300380932F03E7CF20912F033091F3
:10190000300380910401909105012817390778F080
:101910000E9426100E94CB1180910404909105042E
:101920000196909305048093040485E015C080918E
:101930002C038F3F61F080912C03803251F0809115
:101940002C03803341F084E007C081E005C080E0D3
:1019500003C082E001C083E010923203109253036F
:10196000109231030895682F84E593E00C94E70EFC
:1019700091E0909331038093060410923203109209
:10198000530308951092300310922F0380912E0379
:101990008823A9F020912F03309130038091040116
:1019A000909105012817390750F480912F039091E9
:1019B000300301969093300380932F03E7CF20915B
:1019C0002F03309130038091040190910501281775
:1019D000390708F071C081E080932E0380932D03B6
:1019E0009FEF90932C0310922B0310922A03809365
:1019F000090380910903806D809309038091080396
:101A0000813079F5109208031092300310922F0361
:101A1000809109038093BB0080912F039091300344
:101A200001969093300380932F038091BC0083FF35
:101A30000BC020912F0330913003809104019091CD
:101A400005012817390720F320912F033091300327
:101A500080910401909105012817390768F585ECFC
:101A600001C085EE8093BC001092300310922F03CA
:101A700080912E038130A9F420912F0330913003FF
:101A800080910401909105012817390750F4809145
:101A90002F039091300301969093300380932F038E
:101AA000E7CF20912F033091300380910401909172
:101AB00005012817390778F00E9426100E94CB11E3
:101AC00080910404909105040196909305048093FD
:101AD000040480E013C080912B03811103C0909116
:101AE0002B0301C091E0AAE0B3E0E8EEF2E080E071
:101AF000891721F02D9121938F5FFACF1092E70281
:101B00008093E602089588E60E94B80C82E090E097
:101B10000E94B30C0E94D90B0E94C20C84E593E092
:101B20000E949E0E26E0969587952A95E1F7817092
:101B30000895009769F0FC0101900020E9F73197C2
:101B4000AF01481B590BBC0180E693E00C949F0148
:101B500080E090E008958F929F92AF92BF920F9392
:101B60001F93CF93DF93CDB7DEB7A1970FB6F8944D
:101B7000DEBF0FBECDBF19A2423008F44AE08E018D
:101B80000F5D1F4F842E912CA12CB12CA501940127
:101B90000E944021E62FB901CA0101501109EA3023
:101BA00014F4E05D01C0E95CD801EC93232B242BF5
:101BB000252B61F7C8010E94990DA1960FB6F894E4
:101BC000DEBF0FBECDBFDF91CF911F910F91BF90B0
:101BD000AF909F908F9008950F931F93CF93DF93B3
:101BE0008C01C0E0D0E0F801EC0FFD1F649166238A
:101BF00041F080E693E00E943602892B11F0219695
:101C0000F2CFCE01DF91CF911F910F910895CF9325
:101C1000DF930E94EC0DEC0183E391E00E94990DAB
:101C20008C0F9D1FDF91CF910895CF92DF92EF929D
:101C3000FF92CF93DF936115710559F4682F80E609
:101C400093E0DF91CF91FF90EF90DF90CF900C94D5
:101C500036026C01990FEE08FF086A307105E9F44D
:101C6000F7FE19C06DE280E693E00E943602EC01B7
:101C700066277727CB016C197D098E099F094AE0F9
:101C80000E94AB0D8C0F9D1FDF91CF91FF90EF90C5
:101C9000DF90CF9008954AE001C0462FC701B601FA
:101CA000DF91CF91FF90EF90DF90CF900C94AB0D30
:101CB000CF93DF930E94150EEC0183E391E00E9425
:101CC000990D8C0F9D1FDF91CF91089540912F04A6
:101CD000262F30E0240F311D21323105DCF4209114
:101CE0002E032430C9F4FC0180E090E0861758F4FC
:101CF00030912F042191DC01A15FBB4FA30FB11DD7
:101D00002C930196F3CF80912F04680F60932F04DA
:101D100080E0089581E0089582E008950895E091BB
:101D2000E7028091E602E81730F4F0E0E851FD4F59
:101D3000808190E008958FEF9FEF08959091E702E2
:101D40008091E602981750F4E92FF0E0E851FD4F3A
:101D5000208130E09F5F9093E70202C02FEF3FEFBA
:101D6000C90108958091E60290E02091E702821B6C
:101D700091090895CF92DF92EF92FF920F931F93F4
:101D8000CF93DF937C01CB018A0120913103222381
:101D900089F0EB016B01C40ED51ECC15DD0569F091
:101DA0006991D701ED91FC910190F081E02DC7017F
:101DB0000995F3CF642F0E94660EC801DF91CF9181
:101DC0001F910F91FF90EF90DF90CF900895CF93E8
:101DD000DF931F92CDB7DEB76983209131032223B1
:101DE000D1F020915303203240F021E030E0FC019B
:101DF0003383228380E090E015C080913203E82F86
:101E0000F0E0ED5CFC4F998190838F5F809332030B
:101E10008093530305C061E0CE0101960E94660ED7
:101E200081E090E00F90DF91CF910895833081F0B1
:101E300028F4813099F08230A1F008958730A9F01C
:101E40008830B9F08430D1F4809180008F7D03C058
:101E5000809180008F7780938000089584B58F777C
:101E600002C084B58F7D84BD08958091B0008F77C6
:101E700003C08091B0008F7D8093B00008953FB77C
:101E8000F89480910B0490910C04A0910D04B091F2
:101E90000E0426B5A89B05C02F3F19F00196A11D81
:101EA000B11D3FBFBA2FA92F982F8827820F911DF0
:101EB000A11DB11DBC01CD0142E0660F771F881F37
:101EC000991F4A95D1F7089588E60E94B80C80E0E2
:101ED00090E00E94B30C0E94D90B0E94C20C84E5D2
:101EE00093E00E949E0E8F77982F92959F7026E028
:101EF000929F80191124089588E60E94B80C81E011
:101F000090E00E94B30C0E94D90B0E94C20C84E5A1
:101F100093E00E949E0E9C01332794E0359527950F
:101F20009A95E1F746E0249F801911240895CF93F4
:101F30000E94830DC82F88E60E94B80C82E090E0D2
:101F40000E94B30C0E94D90B0E94C20C84E593E05E
:101F50000E949E0EC1110CC09C01332794E0359560
:101F600027959A95E1F746E0249F8019112408C02F
:101F70008F79982F92959F7026E0929F8019112457
:101F8000CF91089588E60E94B80C83E090E00E940B
:101F9000B30C0E94D90B0E94C20C84E593E00E940E
:101FA0009E0E089588E60E94B80C84E090E00E949E
:101FB000B30C0E94D90B0E94C20C84E593E00E94EE
:101FC0009E0E9C01332794E0359527959A95E1F76D
:101FD00046E0249F80191124089588E60E94B80CD9
:101FE00085E090E00E94B30C0E94D90B0E94C20CC5
:101FF00084E593E00E949E0E9C01332794E0359582
:1020000027959A95E1F746E0249F801911240895B9
:1020100088E60E94B80C86E090E00E94B30C0E9413
:10202000D90B0E94C20C84E593E00E949E0E9C0195
:10203000332794E0359527959A95E1F746E0249F5C
:102040008019112490E08053984F089585ED809376
:10205000BC001092300310922F038091BC0084FFCB
:1020600015C020912F03309130038091040190918D
:1020700005012817390750F480912F039091300300
:1020800001969093300380932F03E7CF10922E0395
:1020900008951F920F920FB60F9211242F933F9322
:1020A0004F935F936F937F938F939F93AF93BF9360
:1020B000EF93FF938091B900887F803609F49CC02C
:1020C00068F5883209F45BC090F4803109F454C09B
:1020D00038F4882309F4F2C0883009F44DC0F2C006
:1020E000883109F44CC0803209F45DC0EBC0803403
:1020F00009F468C048F4803309F455C0883309F006
:10210000E1C080932C03D4C0803509F44FC08835DA
:1021100009F45DC0883409F0D5C0D2C0883909F40B
:10212000C3C0A8F4883709F467C038F4883609F4C6
:1021300063C0803709F460C0C5C0883809F4B4C0F2
:10214000803909F45FC0803809F0BCC05BC0803BB7
:1021500009F484C038F4803A09F466C0883A09F476
:102160007DC0B0C0803C09F4A3C0883C09F4A0C085
:10217000883B09F486C0A6C08091090310C09091E5
:102180002B0380912A03981770F5E0912B0381E0CF
:102190008E0F80932B03F0E0E65FFC4F80818093ED
:1021A000BB0085EC82C080932C038AC0E0912B0396
:1021B00081E08E0F80932B038091BB00F0E0E65FFF
:1021C000FC4F808390912B0380912A036AC0E09199
:1021D0002B0381E08E0F80932B038091BB00F0E0F6
:1021E000E65FFC4F808380912D03811169C081E0FF
:1021F0008093080384EA5DC083E080932E031092ED
:102200005104CFCF80915104803208F04DC0E0914D
:10221000510481E08E0F809351048091BB00F0E067
:10222000EF5CFB4F8083BDCF85EC8093BC001092A8
:102230002E0380915104803230F4E0915104F0E09B
:10224000EF5CFB4F10826091510470E081E394E0F9
:10225000E0E0F0E009951092510434C084E08093EE
:102260002E031092300410922F04E0E0F0E0099564
:1022700080912F04811105C081E080932F0410927A
:102280000F04E091300481E08E0F80933004F0E081
:10229000E15FFB4F80818093BB009091300480917F
:1022A0002F04981708F47DCF85E88093BC000AC0FE
:1022B00085EC8093BC0010922E0304C010922C0376
:1022C0000E942610FF91EF91BF91AF919F918F9146
:1022D0007F916F915F914F913F912F910F900FBE22
:1022E0000F901F901895CF93DF93282F30E0F901BE
:1022F000EF52FD4F8491F901E354FD4FD491F90160
:10230000E755FD4FC491CC2391F081110E94160F27
:10231000EC2FF0E0EE0FFF1FE156FD4FA591B491B9
:10232000EC91ED2381E090E021F480E002C080E0B8
:1023300090E0DF91CF9108951F93CF93DF93282FE3
:1023400030E0F901EF52FD4F8491F901E354FD4F64
:10235000D491F901E755FD4FC491CC23C1F0162F5C
:1023600081110E94160FEC2FF0E0EE0FFF1FEB56CD
:10237000FD4FA591B4919FB7F894111104C08C91B1
:10238000D095D82302C0EC91DE2BDC939FBFDF9168
:10239000CF911F910895CF93DF93CCEBD0E01882BB
:1023A00010922E0381E080932D031092080361E0C8
:1023B00082E10E949C1161E083E10E949C11E9EBA3
:1023C000F0E080818E7F808380818D7F808388E4B0
:1023D0008093B80085E48883DF91CF910895CF93EF
:1023E000DF9390E0FC01E354FD4F2491FC01E7559D
:1023F000FD4F8491882361F190E0880F991FFC01C3
:10240000E557FD4FC591D491FC01EB56FD4FA591C9
:10241000B491611109C09FB7F894888120958223F7
:102420008883EC912E230BC0623061F49FB7F8943F
:102430008881322F309583238883EC912E2B2C9327
:102440009FBF06C08FB7F894E8812E2B28838FBFDB
:10245000DF91CF9108958E3008F08E5087708064A0
:1024600080937C0080917A00806480937A008091D0
:102470007A0086FDFCCF809178002091790090E071
:10248000922B08958F929F92AF92BF92CF92DF923C
:10249000EF92FF926B017C010E943F0F4B015C01A8
:1024A000C114D104E104F104F1F00E943F0FDC01FA
:1024B000CB0188199909AA09BB09883E9340A10557
:1024C000B10570F321E0C21AD108E108F10888EEE5
:1024D000880E83E0981EA11CB11CC114D104E10434
:1024E000F10419F7DDCFFF90EF90DF90CF90BF9010
:1024F000AF909F908F9008952FB7F8946091070444
:10250000709108048091090490910A042FBF0895E6
:102510001F920F920FB60F9211242F933F938F9318
:102520009F93AF93BF938091070490910804A0916B
:102530000904B0910A043091520423E0230F2D378F
:1025400020F40196A11DB11D05C026E8230F0296B7
:10255000A11DB11D20935204809307049093080499
:10256000A0930904B0930A0480910B0490910C0489
:10257000A0910D04B0910E040196A11DB11D809390
:102580000B0490930C04A0930D04B0930E04BF9120
:10259000AF919F918F913F912F910F900FBE0F9010
:1025A0001F901895CF93DF93CDB7DEB762970FB624
:1025B000F894DEBF0FBECDBF789484B5826084BD31
:1025C00084B5816084BD85B5826085BD85B5816037
:1025D00085BD80916E00816080936E0010928100B5
:1025E0008091810082608093810080918100816070
:1025F0008093810080918000816080938000809131
:10260000B10084608093B1008091B00081608093BC
:10261000B00080917A00846080937A0080917A0083
:10262000826080937A0080917A00816080937A0042
:1026300080917A00806880937A001092C100E091C6
:102640007003F091710382E08083E0916C03F0915C
:102650006D031082E0916E03F0916F0380E180833F
:1026600010927803E0917403F091750386E0808303
:10267000E0917203F0917303808180618083E09127
:102680007203F0917303808188608083E09172030C
:10269000F0917303808180688083E0917203F091F0
:1026A000730380818F7D808380E693E00E948302A4
:1026B00061E08AE00E94EF1160E08AE00E949C11D4
:1026C0001FB7F89480915302811127C0E3EBF2E029
:1026D0008491E7ECF2E09491E82FF0E0EE0FFF1F19
:1026E000E557FD4FA591B491EC91E92321F461E008
:1026F0008AE00E949C1161E08AE00E94EF118CB593
:1027000080618CBD8CB580648CBD61E08DE00E94E1
:10271000EF1161E08BE00E94EF11809153028F5F17
:10272000809353021FBF80917A00887F84608093DA
:102730007A0061E087E00E94EF1161E087E00E948B
:102740009C1161E080E10E94EF1161E080E10E9454
:102750009C1161E08FE00E94EF1161E08FE00E9428
:102760009C1162E084E10E94EF1162E085E10E9429
:10277000EF1162E082E00E94EF1162E084E00E94CB
:10278000EF1162E083E00E94EF1162E085E00E94B9
:10279000EF1162E086E00E94EF1162E088E00E94A3
:1027A000EF1162E089E00E94EF1162E08EE00E948A
:1027B000EF1162E081E10E94EF1188E490E00E9455
:1027C0009B046091570280E090E00E94F50980939D
:1027D00057026091010181E090E00E94F509809329
:1027E00001016091590282E090E00E94F509809316
:1027F00059026091580283E090E00E94F5098093AD
:1028000058026091600284E090E00E94F509809394
:10281000600260915F0285E090E00E94F50980937C
:102820005F0260915E0286E090E00E94F50980936D
:102830005E0260915D0287E090E00E94F50980935E
:102840005D0260915B0288E090E00E94F509809350
:102850005B0260915A0289E090E00E94F509809342
:102860005A0260915C028AE090E00E94F509809330
:102870005C02609154028BE090E00E94F509809325
:102880005402609178028CE090E00E94F5098093F8
:102890007802809157028093A90180915902809318
:1028A000AD01809158028093AE01809160028093C7
:1028B000B80180915F028093B90180915E0280939C
:1028C000BA0180915D028093BC0180915B0280938C
:1028D000BD0180915A028093BE0180915C02809379
:1028E000BF01809154028093C001809101018093C7
:1028F000BB0182E491E00E94070E84E291E00E9415
:10290000070E80913A01811105C060E08FEF0E94AF
:10291000A604F7CF83E191E00E94EC0D84E0809360
:10292000360162E082E00E94EF1162E084E00E94E2
:10293000EF1110927B0110927C0164E773E080E05C
:102940000E94670B8EE291E00E94990D83E391E073
:102950000E94990D82E090E090938402809383021C
:1029600085E091E00E94EC0D83E090E090930004FC
:102970008093FF0385E090E090930204809301042C
:1029800080933701109203040E94830B809382028C
:102990008EE291E00E94990D83E391E00E94990DEF
:1029A00089EF90E00E94EC0D1092E7021092E6028F
:1029B00010923203109253030E94CB1188E60E94BA
:1029C000B80C0E94D90B88E60E94B80C80E090E019
:1029D0000E94B30C0E94D90B0E94C20C84E593E0C4
:1029E0000E949E0E87FF23C087ED90E00E94070E95
:1029F00088E60E94B80C80E090E00E94B30C0E9430
:102A0000D90B0E94C20C84E593E00E949E0E182F01
:102A100088E60E94B80C80E090E00E94B30C612F21
:102A20006F7784E593E00E94E70E0E94D90B0E9425
:102A3000081090935102809350020E94ED0F8093F2
:102A40004F020E94D20F809303010E94C20F809315
:102A500002010E94970F80934E020E947C0F809388
:102A60004D020E94640F80934C028BE190E00E9423
:102A7000990482FB222720F991E092279093390153
:102A800086958170809300010E94880682ED90E017
:102A90000E94070E8091380181110AC088EB90E0F6
:102AA0000E94EC0D0E942E0783EB90E00E94070E1F
:102AB00080EA90E00E94070E60E080E10E949C1195
:102AC00077247394812C912C540183940E947C125E
:102AD0006B017C0180917B0190917C01891B87FDBA
:102AE000805C882311F40C94811D80917B0190916E
:102AF0007C01891B87FD805C811102C00FEF12C031
:102B0000E0917C0180917B01E817C1F3EF5FE03435
:102B100008F0E0E0E0937C01F0E0E55CFE4F00812E
:102B2000002361F310E080915202811104C061E042
:102B300080E10E949C11003E110519F47092680218
:102B4000D7C7013E110529F470926802709267029E
:102B5000CFC760916602003F110529F4611103C0DF
:102B600070926602C5C780916802811104C080918D
:102B70006702882319F080E091E002C080E090E0D5
:102B8000800F911F109265026093AB01292F217075
:102B90002093B70187FB222720F92093B60186FBFB
:102BA000222720F92093B50185FB222720F92093C5
:102BB000B40184FB222720F92093B30183FB222751
:102BC00020F92093B20182FB222720F92093B10142
:102BD00081FB222720F92093B001282F2170209318
:102BE000AF018634910509F44BC30CF0F8C0833271
:102BF000910509F4EDC20CF078C08E30910509F40E
:102C000094C4CCF58730910509F4C6C6ACF4843081
:102C1000910509F458C544F48130910509F456C66C
:102C2000039709F4B0C5F4C68530910509F4EBC4E7
:102C3000069709F418C5ECC68B30910509F4C5C593
:102C400044F48930910509F463C60A9709F41CC657
:102C5000DFC68C30910509F466C50D9709F0D8C61A
:102C6000862F872580937F01809394018DE090E0EB
:102C70000E944009CDC68A31910509F4E9C2C4F425
:102C80008431910509F4BEC144F48131910509F400
:102C9000CAC1429709F4A5C1BBC68531910509F4A3
:102CA000BFC2469709F0B4C6672560938201B0C6DB
:102CB0008D31910509F4C0C25CF48B31910509F4A2
:102CC000B3C24C9709F0A4C6672560938001A0C6E3
:102CD0008132910509F478C20CF0B2C24E9709F026
:102CE00097C6672560938A0193C68433910509F4DA
:102CF0007BC2ECF58B32910509F472C2DCF48632AA
:102D0000910509F4ADC25CF48432910509F464C202
:102D1000859709F07DC6672560939A0179C6893247
:102D2000910509F449C28A9709F072C66725609334
:102D30009F016EC68E32910509F496C25CF48C3206
:102D4000910509F475C28D9709F062C667256093F5
:102D500099015EC68233910509F432C20CF048C273
:102D6000C19709F055C6672560939E0151C68D3302
:102D7000910509F47DC2DCF48A33910509F448C257
:102D80005CF48533910509F45FC2C69709F040C62B
:102D900067256093A3013CC68B33910509F42CC2CF
:102DA000CC9709F035C6672560939C0131C6823403
:102DB000910509F425C24CF48E33910509F45CC2E7
:102DC0008134910509F49AC223C68434910509F42B
:102DD00023C20CF041C267256093940119C686375F
:102DE000910509F4C0C10CF072C08A35910509F44F
:102DF000DFC1B4F58E34910509F47DC3D4F48B346E
:102E0000910509F401C24CF48934910509F490C28A
:102E10008A34910509F412C3FBC58C34910509F479
:102E2000A1C28D34910509F0F3C567256093840133
:102E3000EFC58535910509F444C34CF482359105FD
:102E400009F442C28435910509F4A6C2E1C588356A
:102E5000910509F487C38935910509F4C2C0D8C525
:102E60008C36910509F424C2D4F48636910509F410
:102E700092C14CF48B35910509F4B7C28D3591059B
:102E800009F4F6C2C5C58936910509F401C28B362D
:102E9000910509F0BDC5672560939A01B9C58237D0
:102EA000910509F4F9C14CF48037910509F4ECC19E
:102EB0008137910509F43CC2ABC58437910509F40B
:102EC000F3C10CF0F9C167256093A201A1C58A3551
:102ED00021E0920709F46CC10CF044C08D379105D4
:102EE00009F4EEC10CF58A37910509F4D9C174F4DF
:102EF0008837910509F42EC58937910509F088C5F1
:102F0000672560938E016093950182C58B3791058B
:102F100009F422C38C37910509F07AC567256093BF
:102F20008E016093A60174C5823141E0940709F4D3
:102F30004AC54CF48338910509F469C48131914044
:102F400009F48BC065C58F32F1E09F0709F4B8C062
:102F50008A3421E0920709F471C28431914009F06A
:102F600057C550C0823741E0940709F4CFC0D4F46C
:102F70008C36E1E09E0709F432C354F4893621E02F
:102F8000920709F436C38B36914009F4CEC040C590
:102F9000803741E0940709F497C08137914009F4E4
:102FA00076C036C58737E1E09E0709F428C554F49A
:102FB000843721E0920709F4C7C08537914009F4AE
:102FC00096C026C58C3741E0940709F400C58D37BB
:102FD00051E0950709F4D1C28A37914009F018C52C
:102FE000E5C280910101882319F08FE090E002C0D2
:102FF00080E090E06725FC01E158FE4F608360931C
:10300000640206C580910101882319F080E090E0F8
:1030100002C08FE090E06725FC01E158FE4F60831D
:1030200060937202F5C4662E672460928E0120912F
:103030000101222319F086E090E002C080E090E0D8
:10304000FC01E158FE4F6082211104C081E190E053
:103050000E94400960927102DBC4662E6724609270
:103060008E0120910101222319F087E090E002C037
:1030700080E090E0FC01E158FE4F6082211104C025
:1030800081E191E00E94400960927102C1C4809187
:1030900064028111BDC480910101882339F0862F1B
:1030A0008725809384018093A70106C0862F8725FA
:1030B00080938E0180939701672560936302A8C473
:1030C000672560937302A4C4809164028111A0C437
:1030D000809101016725882329F060938C0160931A
:1030E000A70196C460938E016093800191C4809182
:1030F000640281118DC4862F872580937F01809380
:103100009B0185E791E00E94400982C4809164029E
:1031100081117EC4862F872580937F018093A30130
:1031200082E791E00E94400973C48091640281119A
:103130006FC4862F872580937F018093A2018BE641
:1031400091E00E94400964C480916402811160C4CE
:10315000862F872580937F018093930184E791E0F8
:103160000E94400955C4662E672460927F018091B9
:103170000101882319F083E090E002C087E090E02D
:10318000FC01E158FE4F608286E790E00E94400912
:10319000609262023DC4662E672460927F01609255
:1031A000830186E690E00E9440096092610230C48B
:1031B0006725609385012CC467256093860128C428
:1031C00067256093A60124C467256093970120C4F6
:1031D0006725609390011CC467256093910118C412
:1031E00067256093980114C467256093A00110C4FB
:1031F00067256093A5010CC4672560939D0108C4F1
:1032000067256093950104C4672560938D0100C410
:10321000672560939601FCC3672560938C01F8C312
:10322000672560938101F4C3672560938801F0C32B
:1032300067256093A101ECC3672560938901E8C30A
:10324000672560938F01E4C367256093A401E0C301
:10325000672560938701DCC3672560938301D8C32A
:10326000672560939201D4C367256093A201D0C300
:10327000672560939B01CCC3672560939301C8C306
:10328000672560938B01C4C3672560938301C0C326
:10329000672560938201BCC3672560938A01B8C328
:1032A000672560939201B4C367256093A301B0C3FF
:1032B000672560939B01ACC3672560939301A8C306
:1032C000672560938B01A4C3362F372530938E0179
:1032D00020916402222319F085E090E002C08CE185
:1032E00090E0FC01E158FE4F3083662321F01092FC
:1032F000840110929B01209365028AC3362F3725E3
:1033000030938E0120916402222319F08AE190E02B
:1033100002C08FE190E0FC01E158FE4F308366234C
:1033200021F01092990110929E012093650270C3C2
:10333000362F372530938E0120916402222319F015
:1033400082E290E002C087E190E0FC01E158FE4F8C
:103350003083662321F01092A101109296012093F0
:10336000650256C3362F372530938E0120916402B3
:10337000222319F088E090E002C08DE090E0FC018B
:10338000E158FE4F3083662321F01092870110929E
:103390008C01209365023CC38091010181110CC016
:1033A000611136C380916402882311F089E101C064
:1033B00085E20E94F0082CC3262F272520938E013A
:1033C00080916402882319F089E190E002C085E2CF
:1033D00090E0FC01E158FE4F2083662309F418C3F6
:1033E000109298011092A40113C3809101018111E0
:1033F0000CC061110DC380916402882311F081E239
:1034000001C08DE10E94F00803C3262F27252093D9
:103410008E0180916402882319F081E290E002C05D
:103420008DE190E0FC01E158FE4F2083662309F412
:10343000EFC21092A00110929C01EAC2362F3725EC
:1034400030938E0120916402222319F088E190E0EC
:1034500002C080E290E0FC01E158FE4F3083662319
:1034600021F01092970110929F0120936502D0C223
:103470008091010181110CC06111CAC28091640266
:10348000882311F089E001C081E10E94F008C0C2E8
:10349000262F272520938E0180916402882319F01E
:1034A00089E090E002C081E190E0FC01E158FE4F2C
:1034B0002083662309F4ACC2109288011092900117
:1034C000A7C2362F372530938E0120916402222324
:1034D00019F086E190E002C08EE090E0FC01E15836
:1034E000FE4F3083662321F01092950110928D01DA
:1034F000209365028DC2362F372530938E0120919F
:103500006402222319F084E090E002C08EE190E092
:10351000FC01E158FE4F3083662321F010928301B5
:1035200010929D012093650273C2809164028823EA
:1035300029F0611103C081E00E94F00890916402BB
:10354000911107C080916602872580938E01809338
:103550008F01909365025CC2672560938E01609332
:103560009D0156C2862F872580938E0180937F010F
:1035700088E590E00E9440094BC28091640281116D
:1035800047C280910101882331F06725609396013D
:103590006093A7013DC2862F872580937F0180938A
:1035A00092018DE791E00E94400932C2809164024D
:1035B00081112EC280910101882331F0672560932B
:1035C0009E016093A70124C2862F872580937F01E7
:1035D00080939A018AE791E00E94400919C2809184
:1035E0006402811115C26725609395016093A7015C
:1035F0000FC28091640281110BC2672560938D0117
:103600006093A70105C280917302811108C0809167
:103610007202882311F1809171028823F1F0611107
:10362000F7C11092600210925F0284E090E09A8BE2
:10363000898B64E1CE0141960E94C70960915F02C7
:1036400085E090E00E94E009809160028093B801DB
:1036500080915F028093B901DBC16725609380018F
:103660006093A701D5C180917302811108C0809138
:103670007202882311F1809171028823F1F06111A7
:10368000C7C17092600210925F0284E090E09A8B52
:10369000898B6AE0CE0141960E94C70960915F0262
:1036A00085E090E00E94E009809160028093B8017B
:1036B00080915F028093B901ABC167256093A60139
:1036C0006093A701A5C180917302811108C0809108
:1036D0007202882311F1809171028823F1F0611147
:1036E00097C11092600270925F0284E090E09A8B22
:1036F000898B64E1CE0141960E94C70960915F0207
:1037000085E090E00E94E009809160028093B8011A
:1037100080915F028093B9017BC167256093970117
:103720006093A70175C180917302811108C08091D7
:103730007202882311F1809171028823F1F06111E6
:1037400067C17092600270925F0284E090E09A8B91
:10375000898B6AE0CE0141960E94C70960915F02A1
:1037600085E090E00E94E009809160028093B801BA
:1037700080915F028093B9014BC1672560939001EE
:103780006093A70145C180917302811108C08091A7
:1037900072028823A1F080917102882381F0611167
:1037A00037C160915E02672560935E0286E090E01B
:1037B0000E94E00980915E028093BA0129C16725C9
:1037C000609391016093A70123C1809173028111DD
:1037D00008C0809172028823A1F080917102882331
:1037E00081F0611115C160915D02672560935D02F2
:1037F00087E090E00E94E00980915D028093BC0127
:1038000007C16725609398016093A70101C180916A
:103810007302811108C080917202882379F180912E
:103820007102882359F16111F3C080915C0281110A
:103830000CC080915B02811103C070925B0207C0D3
:1038400010925B0270925C0204C010925B021092B4
:103850005C0260915B0288E090E00E94E009609168
:103860005C028AE090E00E94E00980915B02809314
:10387000BD0180915C028093BF01CAC0672560933F
:10388000A0016093A701C4C080917302811108C098
:10389000809172028823A1F080917102882381F0C7
:1038A0006111B6C060915A02672560935A0289E09F
:1038B00090E00E94E00980915A028093BE01A8C066
:1038C00067256093A5016093A701A2C08091730250
:1038D000811108C0809172028823A1F08091710249
:1038E000882381F0611194C060915902672560932B
:1038F000590282E090E00E94E00980915902809391
:10390000AD0186C06725609394016093A70180C0D4
:1039100080917302811108C0809172028823A1F006
:1039200080917102882381F0611172C06091580208
:1039300067256093580283E090E00E94E00980913F
:1039400058028093AE0164C0672560939D01609327
:10395000A7015EC080917302811108C0809172023C
:103960008823A1F080917102882381F0611150C0F9
:103970006091570267256093570280E090E00E94B3
:10398000E009809157028093A90142C067256093A6
:10399000810160938E013CC080917302811108C047
:1039A00080917202882349F080917102882329F066
:1039B00061112EC00E9496082BC067256093890173
:1039C00060938E0125C067256093560221C08091C7
:1039D000640281111DC0809156028823C9F06111D3
:1039E00017C06091010167256093010181E090E0BB
:1039F0000E94E009809101018093BB0109C0662308
:103A000039F0809155028725809355028093AC014F
:103A10002091650280917D0190917E01222321F009
:103A2000009711F410927F011816190614F4709281
:103A30007F01809172028823C1F0809171028823F6
:103A4000A1F080916302882381F01092720210929B
:103A50007102109263021092640210926502109239
:103A60007E0110927D010E94D50880917202882308
:103A7000C1F0809171028823A1F0809162028823B5
:103A800081F01092720210927102109262021092F2
:103A900064021092650210927E0110927D010E94D4
:103AA0009608809172028823C1F080917102882368
:103AB000A1F080916102882381F01092720210922D
:103AC00071021092610210926402109265021092CB
:103AD0007E0110927D010E94B108109266028091D1
:103AE0006702882319F01092670202C010926802E0
:103AF00087EF91E00E94EC0D60E170E0C8010E9448
:103B0000580E0E9451088CB58F7B8CBD62E08AE014
:103B10000E94EF1186E00E94731121E0892B09F0C9
:103B200020E020939D0288E00E94731121E0892B00
:103B300009F020E020939E0289E00E94731121E0A9
:103B4000892B09F020E020939F028AE00E947311E4
:103B500021E0892B09F020E02093A0028EE00E9452
:103B6000731121E0892B09F020E020939B0281E171
:103B70000E94731121E0892B09F020E020939C0220
:103B800061E08AE00E94EF1160E08AE00E949C11EF
:103B90008CB580618CBD8CB580648CBD40919B02DE
:103BA0005091950230919C0210919D0220919E02AD
:103BB00090919F028091A002451315C050919602EA
:103BC000351311C05091970215130DC050919802F2
:103BD000251309C050919902951305C050919A027E
:103BE000851709F451C040939502309396021093C3
:103BF0009702209398029093990280939A028CEEF8
:103C000091E00E94EC0D88EE91E00E94EC0D6AE0DC
:103C100070E0812F90E00E94150E84EE91E00E94EA
:103C2000EC0D80919E026AE070E090E00E94150E1B
:103C300080EE91E00E94EC0D80919F026AE070E0BE
:103C400090E00E94150E8CED91E00E94EC0D8091A9
:103C5000A0026AE070E090E00E94150E88ED91E00D
:103C60000E94EC0D80919B026AE070E090E00E945F
:103C7000150E83ED91E00E94EC0D80919C026AE0AC
:103C800070E090E00E94580EEBE9F2E080E090E0F6
:103C900060E0319114012501082E04C0220C331C70
:103CA000441C551C0A94D2F7332311F0622904C036
:103CB000920181010095602301968630910549F7B4
:103CC0008DE00E94A6048091910290919202A091B1
:103CD0009302B0919402A7019601281B390B4A0B5D
:103CE0005B0B2436310541055105F0F184E10E945A
:103CF0002B120397B4F480918D0290918E02A091C3
:103D00008F02B091900216012701281A390A4A0A37
:103D10005B0A24EF221621E032064104510408F028
:103D2000FDC185E10E942B120397B4F480918902B2
:103D300090918A02A0918B02B0918C02160127010A
:103D4000281A390A4A0A5B0A24EF221621E03206B1
:103D50004104510408F0FDC1C0929102D092920238
:103D6000E0929302F09294028091850290918602F3
:103D7000A0918702B091880216012701281A390AFA
:103D80004A0A5B0A24EF221621E03206410451045C
:103D900040F10E94081090935102809350020E94BB
:103DA000ED0F80934F020E94D20F809303010E9477
:103DB000C20F809302010E94970F80934E020E94CF
:103DC0007C0F80934D020E94640F80934C020E94EE
:103DD0008806C0928502D0928602E0928702F09215
:103DE00088020091830210918402101611060CF0D3
:103DF0003FC08091820281113BC080917E029091F0
:103E00007F02A0918002B091810216012701281A39
:103E1000390A4A0A5B0AD201C10185369105A1051A
:103E2000B10530F10150110910938402009383020F
:103E30008CE791E00E94EC0D6AE070E0C8010E94FE
:103E4000580E0E94830B182F809382028CE691E01B
:103E50000E94EC0D6AE070E0812F90E00E94580E05
:103E6000C0927E02D0927F02E0928002F0928102A4
:103E70008091470290914802891B87FD805F181648
:103E80000CF08EC08091470290914802891B87FDFB
:103E9000805F882311F18091480290914702891731
:103EA000E1F08F5F803108F080E08093480228E0E5
:103EB000829FC001112489539E4F28E0FC01DE013E
:103EC000119601900D922A95E1F7FC0140815181F4
:103ED000628123813481858106C030E080E060E02A
:103EE00020E040E050E05A8349836B832C833D837C
:103EF0008E8388E0FE013196DE01199601900D92C5
:103F00008A95E1F72F8170917D02772570937D026C
:103F100060937C0230937B02E42FE170E09379029E
:103F2000CA0196958795382F3170CA0184709927F8
:103F300040917802442311F0532F01C05E2F552386
:103F400011F0206101C02F7E20937A0241113E2F93
:103F500020917A02332311F0206201C02F7D20933B
:103F60007A0220917A02892B11F0206401C02F7B04
:103F700020937A0280917A02772311F0806801C041
:103F80008F7780937A028AE00E94A60460917B0278
:103F90008BE00E94A60460917A028CE00E94A60445
:103FA00080918202882309F459C080917402909113
:103FB0007502A0917602B091770216012701281AA6
:103FC000390A4A0A5B0A29EE221623E03206410426
:103FD000510408F443C080917302811108C080919C
:103FE0007202882399F180917102882379F180917E
:103FF0007902882359F160917802672560937802ED
:104000008CE090E00E94E00961E080E10E949C1158
:1040100064E670E080E090E00E94421260E080E19F
:104020000E949C1164E670E080E090E00E944212E1
:1040300061E080E10E949C1164E670E080E090E025
:104040000E94421260E080E10E949C11C0927402C2
:10405000D0927502E0927602F0927702809152023D
:10406000882359F110914B02112321F061E080E186
:104070000E949C1180916D0290916E02A0916F023E
:10408000B091700216012701281A390A4A0A5B0A00
:10409000D201C10184369105A105B10570F0C0922D
:1040A0006D02D0926E02E0926F02F09270021111D6
:1040B00004C060E080E10E949C1180914A02882344
:1040C00049F110914902112321F061E08FE00E9433
:1040D0009C118091690290916A02A0916B02B0914B
:1040E0006C02A7019601281B390B4A0B5B0B243687
:1040F00031054105510570F0C0926902D0926A0203
:10410000E0926B02F0926C02111104C060E08FE04B
:104110000E949C110E94A5020C946615C0928D020B
:10412000D0928E02E0928F02F092900261E08FE0D6
:104130000E949C118FEB91E00E94EC0D0E94B1084F
:104140008AEB91E00E94070E60E08FE00E949C11D4
:10415000E8CDC0928902D0928A02E0928B02F0925E
:104160008C0261E080E10E949C118BEA91E00E9448
:10417000EC0D0E94D50886EA91E00E94070E60E0EF
:1041800080E10E949C11E8CDE4E5F3E01382128205
:1041900088EE93E0A0E0B0E084839583A683B783A4
:1041A0002EE031E031832083E0E6F3E013821282D7
:1041B00084839583A683B78380E291E09183808393
:1041C00085EC90E09587848784EC90E097878687DC
:1041D00080EC90E0918B808B81EC90E0938B828BD4
:1041E00082EC90E0958B848B86EC90E0978B868BAD
:1041F000118E128E138E148EEDEFF3E081E5808325
:1042000011820895F999FECF92BD81BDF89A992740
:1042100080B50895262FF999FECF1FBA92BD81BDB2
:1042200020BD0FB6F894FA9AF99A0FBE0196089538
:10423000AA1BBB1B51E107C0AA1FBB1FA617B707CC
:1042400010F0A61BB70B881F991F5A95A9F78095E8
:104250009095BC01CD01089597FB072E16F40094AC
:1042600007D077FD09D00E94182107FC05D03EF445
:10427000909581959F4F0895709561957F4F089512
:10428000A1E21A2EAA1BBB1BFD010DC0AA1FBB1F5A
:10429000EE1FFF1FA217B307E407F50720F0A21BCC
:1042A000B30BE40BF50B661F771F881F991F1A9439
:1042B00069F760957095809590959B01AC01BD0163
:1042C000CF010895991B79E004C0991F961708F053
:1042D000961B881F7A95C9F780950895EE0FFF1FEA
:1042E0000590F491E02D099481E090E0F8940C940D
:0642F0007921F894FFCFD4
:1042F60001010101DC059E019E0100000000E70EA0
:10430600BA0ECA018E0EB20E9E0E8F0E000000006F
:1043160036029F01CD018302FE01DC01F001646FCC
:064326006E65000D0A00A7
:00000001FF
