:100000000C9474010C941A040C94F3030C949C014A
:100010000C949C010C949C010C949C010C949C01EC
:100020000C949C010C949C010C949C010C949C01DC
:100030000C949C010C949C010C949C010C949C01CC
:100040000C9474120C949C010C9467040C9441045D
:100050000C949C010C949C010C949C010C949C01AC
:100060000C9435100C949C0126054A0558056B0527
:100070007905D705E505FB0519062C0655065A0630
:10008000710671063107440757076A077D07A10704
:10009000C507D807EB07FE0716081E08250828081D
:1000A0005374617274696E67206D61696E206C6F44
:1000B0006F7000646F6E65005254432073656E6408
:1000C00020616C6C207265676973746572732E2E83
:1000D0002E00646F6E6500525443206973206E6F6A
:1000E000742072756E6E696E672E2053746172692A
:1000F0006E672069742E2E2E0052544320696E695B
:10010000742E2E2E004D6F75736520696E69742EE6
:100110002E2E004B6579626F61726420696E69747E
:100120002E2E2E0057616974696E6720666F7220EB
:100130004650474120696E69742072657175657318
:1001400074005A58204B6579626F617264202F20C9
:100150006D6F757365202F2072746320636F6E74EA
:10016000726F6C6C65722076312E30004D6F757336
:10017000652070726573656E743A20004D6F7573FB
:1001800065206E6F742070726573656E742E2054D6
:100190007279696E6720746F20696E6974206D6F63
:1001A0007573653A2000646F6E650042544E323AB2
:1001B0002052657365742E2E2E00646F6E650042AA
:1001C000544E313A2046756C6C2072657365742EFE
:1001D0002E2E002046323A0020463A0020523A00A5
:1001E000204C3A0020443A0020553A004A6F797377
:1001F0007469D1816B3A005363616E636F64653AD1
:100200002000646F6E650052544320696E6974204B
:10021000726571756573742E2E2E00556E6B6E6F40
:10022000776E005265762E43005265762E41207718
:10023000697468205444413135343341204441438A
:10024000005265762E41207769746820544441310C
:1002500035343320444143004650474120626F61AA
:100260007264207265766973696F6E2069733A20D3
:1002700000646F6E65004650474120696E697420C6
:10028000726571756573742E2E2E000000000024B7
:100290000027002A0000000000250028002B000095
:1002A00000000023002600290004040404040404C0
:1002B0000402020202020203030303030301020415
:1002C00008102040800102040810200102040810D8
:1002D00020000000080002010000030407000000E5
:1002E000000000000000FC2011241FBECFEFD8E06A
:1002F000DEBFCDBF24E0A6E3B1E001C01D92AB3468
:10030000B207E1F711E0A0E0B1E0E6E6F3E402C0F5
:1003100005900D92A633B107D9F711E0C4E7D1E0FB
:1003200004C02197FE010E94A621C337D107C9F757
:100330000E94BE120C94B1210C9400000895CF923B
:10034000DF92EF92FF920F931F93CF93DF936C0195
:100350007A018B01C0E0D0E0CE15DF0581F0D80135
:100360006D918D01D601ED91FC910190F081E02D10
:10037000C6010995892B11F02196EECF7E01C701A8
:10038000DF91CF911F910F91FF90EF90DF90CF9071
:100390000895089580E090E00895FC01538D448D08
:1003A000252F30E0842F90E0821B930B541710F020
:1003B000CF96089501970895FC01918D828D98172D
:1003C00061F0828DDF01A80FB11D5D968C91928D39
:1003D0009F5F9F73928F90E008958FEF9FEF089536
:1003E000FC01918D828D981731F0828DE80FF11DFF
:1003F000858D90E008958FEF9FEF0895FC01918D1A
:10040000228D892F90E0805C9F4F821B91098F7312
:100410009927089588E593E00E94FE0121E0892B49
:1004200009F420E0822F0895FC01848DDF01A80FDC
:10043000B11DA35ABF4F2C91848D90E001968F730C
:100440009927848FA689B7892C93A089B1898C912B
:10045000837080648C93938D848D981306C002887A
:10046000F389E02D80818F7D80830895EF92FF9244
:100470000F931F93CF93DF93EC0181E0888F9B8DC7
:100480008C8D981305C0E889F989808185FD26C087
:10049000F62E0B8D10E00F5F1F4F0F731127E02E0C
:1004A0008C8DE8120CC00FB607FCFACFE889F989E9
:1004B000808185FFF5CFCE010E941402F1CF8B8D94
:1004C000FE01E80FF11DE35AFF4FF0829FB7F89449
:1004D0000B8FEA89FB89808180620AC09FB7F894FC
:1004E000EE89FF896083E889F9898081837080645F
:1004F00080839FBF81E090E0DF91CF911F910F91AA
:10050000FF90EF900895CF93DF93EC01888D8823BF
:10051000C9F0EA89FB89808185FD05C0A889B98970
:100520008C9186FD0FC00FB607FCF5CF808185FF4B
:10053000F2CFA889B9898C9185FFEDCFCE010E94B9
:100540001402E7CFDF91CF91089580E090E0892BEE
:1005500029F00E940A0281110C94000008958D3048
:1005600008F08CE808950E94AC21CF92DF92EF92C0
:10057000FF920F931F93CF93809137010E945F11D9
:100580008C01C1E0892B09F4C0E00E946812C09080
:10059000D902D090DA02E090DB02F090DC029B01FD
:1005A000AC012C193D094E095F0969017A013BE054
:1005B000C316D104E104F10430F01092D802109275
:1005C000D7021092D6026093D9027093DA02809318
:1005D000DB029093DC028091D8028F5F8093D80277
:1005E0008A3050F4823068F4813009F06FC0109284
:1005F000D6021092D50270C08A30B1F08B30E9F08B
:1006000065C08091D502C80FC093D5028091D602F3
:1006100090E095958795012B11F420E001C020E82A
:10062000822B8093D60258C08091D50281708C13A2
:1006300001C08DEF8093D5024FC08091D5028D3FD0
:1006400018F01092D7023FC08091D702813061F03C
:1006500018F08230B1F037C08091D60290E09093CC
:10066000CE028093CD0207C08091D60290E0909395
:10067000D0028093CF028091D7028F5F8093D70200
:1006800022C08091D60290E09093D2028093D10252
:100690001092D702809147028F5F803108F080E08E
:1006A00090914802891779F048E0849FD001112485
:1006B000A953BE4F98E0EDECF2E001900D929A95AF
:1006C000E1F7809347021092D80204C01092D8023A
:1006D0001092D7021092D602CF911F910F91FF90E6
:1006E000EF90DF90CF900895CF92DF92EF92FF923C
:1006F0000F931F93CF93809136010E945F11C82FF3
:100700000E9468120091C9021091CA022091CB0286
:100710003091CC026B017C01C01AD10AE20AF30AC3
:10072000970186010A3111052105310510F010925B
:10073000C8026093C9027093CA028093CB0290935F
:10074000CC028091C8028F5F8093C8028A3048F43F
:10075000823060F48130E9F51092C7021092C6022F
:100760003AC08A30B1F08B30E9F033C08091C602D4
:100770008C0F8093C6028091C70290E09595879573
:10078000C11102C020E001C020E8822B8093C70283
:1007900022C08091C6028170C81301C08DEF809382
:1007A000C60219C08091C6028D3F98F480917B01EA
:1007B0008F5F803408F080E090917C01891749F0C8
:1007C000E82FF0E09091C702E55CFE4F90838093A4
:1007D0007B011092C802CF911F910F91FF90EF9073
:1007E000DF90CF9008951F920F920FB60F921124B1
:1007F0002F933F934F935F936F937F938F939F9329
:10080000AF93BF93EF93FF93E0910801F09109013B
:100810000995FF91EF91BF91AF919F918F917F913A
:100820006F915F914F913F912F910F900FBE0F905D
:100830001F9018951F920F920FB60F9211242F93AD
:100840003F934F935F936F937F938F939F93AF9358
:10085000BF93EF93FF93E0910601F0910701099593
:10086000FF91EF91BF91AF919F918F917F916F9188
:100870005F914F913F912F910F900FBE0F901F905E
:1008800018951F920F920FB60F9211242F933F933A
:100890004F935F936F937F938F939F93AF93BF9388
:1008A000EF93FF9388E593E00E941402FF91EF918C
:1008B000BF91AF919F918F917F916F915F914F9178
:1008C0003F912F910F900FBE0F901F9018951F9280
:1008D0000F920FB60F9211242F938F939F93EF9344
:1008E000FF93E0916803F09169038081E0916E03CA
:1008F000F0916F0382FD12C09081809171038F5F30
:100900008F7320917203821751F0E0917103F0E030
:10091000E85AFC4F958F8093710301C08081FF914D
:10092000EF919F918F912F910F900FBE0F901F907D
:1009300018950C943A21EFE7F1E09F012F573140D1
:100940002817390714F41192F8CF0895CF93DF9345
:10095000D82FC62F9091F5038091F6039CBD8DBDD5
:1009600060E087E00E948811DEBD00000DB407FE44
:10097000FDCFDEB5CEBD00000DB407FEFDCFCEB578
:1009800061E087E00E948811DD2309F4AAC1DD3F00
:1009900069F580913A018111A4C186E792E00E9435
:1009A000D80D81E080933A010E943D080E941A0709
:1009B0000E94C10881E792E00E94F30D88E592E071
:1009C0000E94D80DC13049F028F0C23061F483E2B2
:1009D00092E005C081E492E002C089E292E0DF91FA
:1009E000CF910C94F30D8BE192E0F9CFDC3F89F4C9
:1009F00080913801811175C187E092E00E94D80D85
:100A000081E0809338010E941A0782E092E00E9400
:100A1000F30D80E88D0F803408F063C19091C2021D
:100A2000891305C09091C102C91709F45AC1809376
:100A3000C202C093C102482F50E04E30510508F069
:100A400049C1FA01EC5CFF4F0C94A6218091390159
:100A5000882339F08C2F82958F7096E0899FC0197A
:100A60001124C093490288E60E94A40C80E090E023
:100A70000E949F0C0E94C50B0E94AE0C8CE493E078
:100A80000E948A0E8078C82B88E60E94A40C80E021
:100A900090E0C3C080913901882339F08C2F829572
:100AA0008F7096E0899FC0191124C093C50219C1A7
:100AB00080913901882339F08C2F82958F7096E0D0
:100AC000899FC0191124C0934A0288E60E94A40C91
:100AD00081E090E0A2C080913901882339F08C2F09
:100AE00082958F7096E0899FC0191124C093C4022B
:100AF000F8C080913901882339F08C2F82958F704E
:100B000096E0899FC0191124C0934B0288E60E9489
:100B1000A40C82E090E00E949F0C0E94C50B0E94F2
:100B2000AE0C8CE493E00E948A0EC82F88E60E94E7
:100B3000A40C82E090E00E949F0C6C2F6F7B8CE4F1
:100B400093E00E94D30E0E94C50BC0914B020E94FD
:100B50006F0DD82F88E60E94A40C82E090E00E94DE
:100B60009F0C8C2FDD2309F45BC0CD3078F06CE056
:100B70000E949A21292F892F6AE00E949A21682FCA
:100B8000660F680F660F620F606609C06AE00E9418
:100B90009A21682F660F680F660F6C0F60648CE4F3
:100BA00093E00E94D30EDF91CF910C94C50B8091FE
:100BB0003901882339F08C2F82958F7096E0899FB8
:100BC000C0191124C093C3028CC0809139018823BD
:100BD00039F08C2F82958F7096E0899FC01911246F
:100BE000C093020188E60E94A40C83E090E00E947A
:100BF0009F0C6C2FD4CF80913901882339F08C2F32
:100C000082958F7096E0899FC0191124C0930301CB
:100C100088E60E94A40C84E090E00E949F0C8C2F38
:100C20006AE00E949A21682F660F680F660F6C0FAA
:100C3000B6CF80913901882339F08C2F82958F703F
:100C400096E0899FC0191124C0934C0288E60E9447
:100C5000A40C85E090E0E1CF80913901882339F040
:100C60008C2F82958F7096E0899FC0191124D0E057
:100C7000C053D84FD0934E02C0934D0288E60E94D5
:100C8000A40C86E090E00E949F0CCE0164E670E028
:100C90000E945021282F6AE00E949A21682F660F37
:100CA000860F880F682F620F7ACF6C2F6F778AE1DB
:100CB00090E013C0C2FB992790F981E089278093C7
:100CC0003901C1FB882780F9809300016C2F8BE1EB
:100CD00090E003C090E06C2F4096DF91CF910C9490
:100CE0004221DF91CF9108958091390120914902ED
:100CF000882351F0822F6AE00E949A21682F660FA4
:100D0000680F660F620F01C0622F80E40E94A60484
:100D10008091390120914A02882351F0822F6AE0A4
:100D20000E949A21682F660F680F660F620F01C03C
:100D3000622F82E40E94A604909100018091390103
:100D4000992331F020914B02811109C0822F15C0E7
:100D5000882379F080914B020E94AF02282F822FC6
:100D60006AE00E949A21982F990F890F880F820FAD
:100D700004C080914B020E94AF02682F84E40E945D
:100D8000A6048091390120910201882351F0822F1D
:100D90006AE00E949A21682F660F680F660F620F43
:100DA00001C0622F86E40E94A6048091390120913F
:100DB0000301882351F0822F6AE00E949A21682F54
:100DC000660F680F660F620F01C0622F87E40E94F2
:100DD000A6048091390120914C02882351F0822F82
:100DE0006AE00E949A21682F660F680F660F620FF3
:100DF00001C0622F88E40E94A604209139018091ED
:100E00004D0290914E0264E670E00E94642122231C
:100E100051F0282F6AE00E949A21682F660F680F10
:100E2000660F620F01C0682F89E40C94A604805CF1
:100E30000C94A604FF920F931F93CF93DF93C0E10E
:100E4000D0E004E610E0FC2E80EFF80E8F2D90E04D
:100E50008E30910508F0FFC0FC01EE5BFF4F0C9453
:100E6000A6218091390120914902882351F0822FD7
:100E70006AE00E949A21682F660F680F660F620F62
:100E800001C0622F80E0ECC0809139012091C50241
:100E9000882351F0822F6AE00E949A21682F660F02
:100EA000680F660F620F01C0622F81E0D9C0809188
:100EB000390120914A02882351F0822F6AE00E9472
:100EC0009A21682F660F680F660F620F01C0622FAC
:100ED00082E0C6C0809139012091C402882351F07C
:100EE000822F6AE00E949A21682F660F680F660FB2
:100EF000620F01C0622F83E0B3C090910001809126
:100F00003901992331F020914B02811109C0822FC0
:100F100015C0882379F080914B020E94AF02282FE0
:100F2000822F6AE00E949A21982F990F890F880FCB
:100F3000820F04C080914B020E94AF02682F84E0B0
:100F40008FC09091000180913901992331F0209157
:100F5000C302811109C0822F15C0882379F08091C6
:100F6000C3020E94AF02282F822F6AE00E949A21BA
:100F7000982F990F890F880F820F04C08091C302A8
:100F80000E94AF02682F85E06BC0809139012091EB
:100F90000201882351F0822F6AE00E949A21682F73
:100FA000660F680F660F620F01C0622F86E058C09F
:100FB0008091390120910301882351F0822F6AE04A
:100FC0000E949A21682F660F680F660F620F01C09A
:100FD000622F87E045C08091390120914C0288231F
:100FE00051F0822F6AE00E949A21682F660F680FE5
:100FF000660F620F01C0622F88E032C02091390174
:1010000080914D0290914E02B8010E9464212223EA
:1010100051F0282F6AE00E949A21682F660F680F0E
:10102000660F620F01C0682F89E01AC08AE190E064
:101030000E949904682F6F778AE012C08BE190E0DC
:101040000E949904682F8BE00BC060E08CE008C020
:1010500060E88DE005C0CE010E949904682F8F2DB5
:101060000E9417072196C035D10509F0ECCEDF911B
:10107000CF911F910F91FF900895CF92DF92EF9241
:10108000FF920F931F93CF93DF93D0E0C0E0C12C6A
:10109000D12C7601C39480E090E060E0ED2FE80F62
:1010A000F0E0E158FE4F2081222361F09701860194
:1010B000082E04C0000F111F221F331F0A94D2F7FD
:1010C000602B0CC097018601082E04C0000F111F71
:1010D000221F331F0A94D2F70095602301968830AF
:1010E0009105E1F6CF5F8C2F0E94A604D85FC9302E
:1010F00091F6DF91CF911F910F91FF90EF90DF90CC
:10110000CF900895CF93DF9389E290E00E949B04F3
:10111000CFE7D1E081E08BA70E943D0864E670E054
:1011200080E090E00E942E1289E290E00E949B04F1
:101130001BA6DF91CF910C943D081F93CF93DF93B3
:1011400089E290E00E949B04CFE7D1E011E019A76B
:101150000E943D0819870E943D0864EF71E080E01D
:1011600090E00E942E1219A60E943D0864EF71E0E3
:1011700080E090E00E942E121986DF91CF911F919E
:101180000895CF93DF9389E290E00E949B04CFE71C
:10119000D1E081E089A70E943D0864E670E080E02C
:1011A00090E00E942E1289E290E00E949B0419A612
:1011B000DF91CF910C943D08FF920F931F93CF9333
:1011C000DF93C82F89E290E00E949B040E943D08B3
:1011D00064E170E080E090E00E942E120FE711E0E1
:1011E000FF24F394F801F0820E943D0864E170E06E
:1011F00080E090E00E942E12F801F7860E943D08E0
:1012000064E170E080E090E00E942E12F801178601
:101210000E943D0864E170E080E090E00E942E12A0
:10122000D0E0C158DE4FF8820E943D0864E170E0D2
:1012300080E090E00E942E12F801108218820E9435
:101240003D0864E170E080E090E0DF91CF911F9174
:101250000F91FF900C942E12CF92DF92EF92FF929B
:101260000F931F93CF93DF93CDB7DEB7A8970FB639
:10127000F894DEBF0FBECDBF20917D0130917E017D
:10128000611126C012161306ACF4E9E9F2E040E061
:1012900050E0A191B1918A179B0709F461E04F5F7B
:1012A0005F4F24173507A9F761114EC0243131056E
:1012B0000CF04AC0F901EE0FFF1FE756FD4F918376
:1012C00080832F5F3F4F30937E0120937D013CC090
:1012D000FE01319648E2DF011D924A95E9F71216A8
:1012E00013061CF040E050E02BC009E912E0780141
:1012F00040E050E060E070E0D701CD90DD907D01EE
:101300008C159D0549F0DA01AA0FBB1FAE0FBF1F58
:10131000CD92DC924F5F5F4F6F5F7F4F261737078D
:1013200059F741155105F1F280E090E0219131919A
:10133000D8012D933D938D01019684179507B4F341
:1013400050937E0140937D01A8960FB6F894DEBFBE
:101350000FBECDBFDF91CF911F910F91FF90EF9006
:10136000DF90CF900895FF920F931F93CF93DF9359
:10137000EC01F62E08811981C8010E943A21F81665
:1013800021F06F2DC8010E944221CE01DF91CF9143
:101390001F910F91FF900895CF93DF9300D0CDB7A9
:1013A000DEB7611102C064E101C06AE09A838983FB
:1013B000CE0101960E94B3090F900F90DF91CF915B
:1013C0000895EF92FF921F93CF93DF9300D0CDB794
:1013D000DEB77C01162F0E9499048A3011F0843107
:1013E00029F461E08A3071F060E00CC0111102C094
:1013F00064E101C06AE0FA82E982CE0101960E94AE
:10140000B309612F862F0F900F90DF91CF911F911D
:10141000FF90EF900895CF93C82F60E00E94DB11FA
:1014200061E08C2FCF910C948811CF93C82F61E08D
:101430000E94DB1160E08C2FCF910C948811CF9229
:10144000DF92EF92FF92CF93DF93EC010E9468123C
:101450006B017C010E946812DC01CB018C199D0993
:10146000AE09BF09883E9340A105B10548F48091BB
:10147000F7030E945F118C179D0761F781E001C09F
:1014800080E0DF91CF91FF90EF90DF90CF900895B3
:101490002091F9033091FA03019721F4C9010E94C8
:1014A0000B0A03C0C9010E94150A81E090E00E9466
:1014B0001F0A80E090E00C941F0ACF93DF9380E036
:1014C00090E00E941F0A8091F9030E945F11EC01D5
:1014D00081E090E00E941F0ACE01DF91CF91089534
:1014E000CF92DF92EF92FF920F931F93CF93809151
:1014F000F7039091F8030E940B0A8091F9039091F1
:10150000FA030E940B0A83EC90E00197F1F780E068
:1015100090E00E941F0A8FE090E00197F1F781E0D0
:1015200090E00E941F0AC0E000E010E0C12CD12C26
:101530007601C3940E945D0A892B61F0D701C60130
:10154000002E04C0880F991FAA1FBB1F0A94D2F750
:10155000C82B0CC0D701C601002E04C0880F991FEC
:10156000AA1FBB1F0A94D2F78095C8230F5F1F4F95
:1015700008301105F9F60E945D0A0E945D0A80910B
:10158000F7039091F8030E94150A8C2FCF911F91B9
:101590000F91FF90EF90DF90CF900895BF92CF9280
:1015A000DF92EF92FF920F931F93CF93DF93C82E9A
:1015B0008091F9039091FA030E940B0A8091F7033E
:1015C0009091F8030E940B0ACBEAD4E0CE01019778
:1015D000F1F78091F7039091F8030E94150A219783
:1015E000F1F78091F9039091FA030E94150A83E2C2
:1015F00090E00197F1F78091F7039091F8030E9432
:101600000B0A80E090E00E941F0AB82E882309F49C
:101610003FC0EE24E394F12CC0E0D0E00C2C000C91
:10162000DD0886010C2E02C0159507950A94E2F795
:1016300001701127C8010E94480AE026F126219670
:10164000C830D10571F7C7010E94480A8091F9039B
:101650009091FA030E940B0A83EC90E00197F1F756
:1016600080E090E00E941F0A8091F7030E945F11C2
:10167000892BD1F38091F9030E945F11892BA1F38B
:101680008091F7039091F8030E94150A0E94700A56
:101690008B2DDF91CF911F910F91FF90EF90DF90F5
:1016A000CF90BF9008958230C8F4E82FF0E0EE0F9D
:1016B000FF1FEA5FFE4F71836083813041F08091AC
:1016C00069008C7F826080936900E89A0895809118
:1016D0006900837F886080936900E99A089580910A
:1016E000F7039091F8030E940B0A8091F9039091FF
:1016F000FA030E940B0A8FEF90E00E94CE0A882323
:1017000021F00E94700A0E94700A88EE90E00E9408
:10171000CE0A83E090E00E94CE0A86EE90E00E941E
:10172000CE0A83EF90E00E94CE0A88E290E00E9409
:10173000CE0A8AEE90E00E94CE0A84EF90E00E94EA
:10174000CE0A8BE891E00197F1F78091F703909131
:10175000F8038230910521F0039721F08FEF03C049
:1017600080E001C081E065EB72E00E94530B809144
:10177000F7039091F8030E940B0A8091F90390916E
:10178000FA030E940B0A81E0089520914B03213255
:1017900008F0C7C08091FE0310922803109227031F
:1017A000909126039923B1F060912703709128034B
:1017B00040910401509105016417750758F4409158
:1017C0002703509128034F5F5F4F509328034093A6
:1017D0002703E6CF6091270370912803409104010D
:1017E000509105016417750708F07EC092E0909350
:1017F000260391E0909325039FEF9093240310928A
:10180000230320932203ABE2B3E0E2E0F3E090E0B5
:10181000291721F03D9131939F5FFACF1092010378
:1018200090910103880F892B80930103809100031D
:10183000813079F51092000310922803109227034B
:10184000809101038093BB0080912703909128032E
:10185000019690932803809327038091BC0083FF17
:101860000BC02091270330912803809104019091AF
:1018700005012817390720F3209127033091280309
:1018800080910401909105012817390768F585ECCE
:1018900001C085EE8093BC001092280310922703AC
:1018A000809126038230A9F42091270330912803E8
:1018B00080910401909105012817390750F4809117
:1018C0002703909128030196909328038093270380
:1018D000E7CF209127033091280380910401909154
:1018E00005012817390778F00E9412100E94B711DD
:1018F0008091FC039091FD0301969093FD038093EA
:10190000FC0385E015C0809124038F3F61F0809136
:101910002403803251F080912403803341F084E02D
:1019200007C081E005C080E003C082E001C083E021
:1019300010922A0310924B03109229030895682FE6
:101940008CE493E00C94D30E91E090932903809360
:10195000FE0310922A0310924B030895109228035D
:1019600010922703809126038823A9F02091270352
:1019700030912803809104019091050128173907BF
:1019800050F48091270390912803019690932803A7
:1019900080932703E7CF209127033091280380917C
:1019A0000401909105012817390708F071C081E002
:1019B00080932603809325039FEF90932403109236
:1019C0002303109222038093010380910103806D11
:1019D0008093010380910003813079F51092000318
:1019E0001092280310922703809101038093BB007B
:1019F0008091270390912803019690932803809368
:101A000027038091BC0083FF0BC0209127033091F6
:101A1000280380910401909105012817390720F3CC
:101A200020912703309128038091040190910501B2
:101A30002817390768F585EC01C085EE8093BC0056
:101A40001092280310922703809126038130A9F475
:101A50002091270330912803809104019091050182
:101A60002817390750F48091270390912803019695
:101A70009093280380932703E7CF20912703309189
:101A8000280380910401909105012817390778F007
:101A90000E9412100E94B7118091FC039091FD03E7
:101AA00001969093FD038093FC0380E013C0809126
:101AB0002303811103C09091230301C091E0A2E0B0
:101AC000B3E0E0EEF2E080E0891721F02D91219360
:101AD0008F5FFACF1092DF028093DE02089588E6CE
:101AE0000E94A40C82E090E00E949F0C0E94C50B13
:101AF0000E94AE0C8CE493E00E948A0E26E096953C
:101B000087952A95E1F781700895009769F0FC01A7
:101B100001900020E9F73197AF01481B590BBC0138
:101B200088E593E00C949F0180E090E008958F9207
:101B30009F92AF92BF920F931F93CF93DF93CDB736
:101B4000DEB7A1970FB6F894DEBF0FBECDBF19A2C6
:101B5000423008F44AE08E010F5D1F4F842E912C15
:101B6000A12CB12CA50194010E947821E62FB90186
:101B7000CA0101501109EA3014F4E05D01C0E95CCA
:101B8000D801EC93232B242B252B61F7C8010E944D
:101B9000850DA1960FB6F894DEBF0FBECDBFDF91C5
:101BA000CF911F910F91BF90AF909F908F9008950C
:101BB0000F931F93CF93DF938C01C0E0D0E0F80127
:101BC000EC0FFD1F6491662341F088E593E00E94CD
:101BD0003602892B11F02196F2CFCE01DF91CF9101
:101BE0001F910F910895CF93DF930E94D80DEC01C0
:101BF00083E391E00E94850D8C0F9D1FDF91CF91B3
:101C00000895CF92DF92EF92FF92CF93DF93611509
:101C1000710559F4682F88E593E0DF91CF91FF902B
:101C2000EF90DF90CF900C9436026C01990FEE0884
:101C3000FF086A307105E9F4F7FE19C06DE288E526
:101C400093E00E943602EC0166277727CB016C19DE
:101C50007D098E099F094AE00E94970D8C0F9D1FF8
:101C6000DF91CF91FF90EF90DF90CF9008954AE001
:101C700001C0462FC701B601DF91CF91FF90EF90D1
:101C8000DF90CF900C94970DCF93DF930E94010EBD
:101C9000EC0183E391E00E94850D8C0F9D1FDF9185
:101CA000CF91089540912704262F30E0240F311D55
:101CB00021323105DCF4209126032430C9F4FC01E3
:101CC00080E090E0861758F4309127042191DC01E0
:101CD000A95FBB4FA30FB11D2C930196F3CF809149
:101CE0002704680F6093270480E0089581E0089539
:101CF00082E008950895E091DF028091DE02E81706
:101D000030F4F0E0E052FD4F808190E008958FEFD5
:101D10009FEF08959091DF028091DE02981750F4B2
:101D2000E92FF0E0E052FD4F208130E09F5F90937B
:101D3000DF0202C02FEF3FEFC90108958091DE025C
:101D400090E02091DF02821B91090895CF92DF92EB
:101D5000EF92FF920F931F93CF93DF937C01CB0100
:101D60008A0120912903222389F0EB016B01C40E23
:101D7000D51ECC15DD0569F06991D701ED91FC9177
:101D80000190F081E02DC7010995F3CF642F0E94E7
:101D9000520EC801DF91CF911F910F91FF90EF90EC
:101DA000DF90CF900895CF93DF931F92CDB7DEB72A
:101DB0006983209129032223D1F020914B03203203
:101DC00040F021E030E0FC013383228380E090E0AA
:101DD00015C080912A03E82FF0E0E55DFC4F998162
:101DE00090838F5F80932A0380934B0305C061E04B
:101DF000CE0101960E94520E81E090E00F90DF919B
:101E0000CF910895833081F028F4813099F08230A9
:101E1000A1F008958730A9F08830B9F08430D1F46A
:101E2000809180008F7D03C0809180008F778093A8
:101E30008000089584B58F7702C084B58F7D84BDFE
:101E400008958091B0008F7703C08091B0008F7D9E
:101E50008093B00008953FB7F89480910304909167
:101E60000404A0910504B091060426B5A89B05C002
:101E70002F3F19F00196A11DB11D3FBFBA2FA92F09
:101E8000982F8827820F911DA11DB11DBC01CD0186
:101E900042E0660F771F881F991F4A95D1F7089572
:101EA00088E60E94A40C80E090E00E949F0C0E94B3
:101EB000C50B0E94AE0C8CE493E00E948A0E8F77D3
:101EC000982F92959F7026E0929F80191124089573
:101ED00088E60E94A40C81E090E00E949F0C0E9482
:101EE000C50B0E94AE0C8CE493E00E948A0E9C010C
:101EF000332794E0359527959A95E1F746E0249F9E
:101F0000801911240895CF930E946F0DC82F88E681
:101F10000E94A40C82E090E00E949F0C0E94C50BDE
:101F20000E94AE0C8CE493E00E948A0EC1110CC09A
:101F30009C01332794E0359527959A95E1F746E083
:101F4000249F8019112408C08F79982F92959F7033
:101F500026E0929F80191124CF91089588E60E946F
:101F6000A40C83E090E00E949F0C0E94C50B0E948D
:101F7000AE0C8CE493E00E948A0E089588E60E94DD
:101F8000A40C84E090E00E949F0C0E94C50B0E946C
:101F9000AE0C8CE493E00E948A0E9C01332794E0FF
:101FA000359527959A95E1F746E0249F80191124ED
:101FB000089588E60E94A40C85E090E00E949F0CA2
:101FC0000E94C50B0E94AE0C8CE493E00E948A0E26
:101FD0009C01332794E0359527959A95E1F746E0E3
:101FE000249F80191124089588E60E94A40C86E09D
:101FF00090E00E949F0C0E94C50B0E94AE0C8CE4E6
:1020000093E00E948A0E9C01332794E03595279532
:102010009A95E1F746E0249F8019112490E08053BF
:10202000984F089585ED8093BC001092280310927C
:1020300027038091BC0084FF15C0209127033091B5
:10204000280380910401909105012817390750F465
:102050008091270390912803019690932803809301
:102060002703E7CF1092260308951F920F920FB611
:102070000F9211242F933F934F935F936F937F930E
:102080008F939F93AF93BF93EF93FF938091B9008A
:10209000887F803609F49CC068F5883209F45BC0FB
:1020A00090F4803109F454C038F4882309F4F2C064
:1020B000883009F44DC0F2C0883109F44CC0803238
:1020C00009F45DC0EBC0803409F468C048F4803383
:1020D00009F455C0883309F0E1C080932403D4C0CB
:1020E000803509F44FC0883509F45DC0883409F0A3
:1020F000D5C0D2C0883909F4C3C0A8F4883709F420
:1021000067C038F4883609F463C0803709F460C0CA
:10211000C5C0883809F4B4C0803909F45FC080387C
:1021200009F0BCC05BC0803B09F484C038F4803A3D
:1021300009F466C0883A09F47DC0B0C0803C09F457
:10214000A3C0883C09F4A0C0883B09F486C0A6C09F
:102150008091010310C0909123038091220398176E
:1021600070F5E091230381E08E0F80932303F0E06C
:10217000EE5FFC4F80818093BB0085EC82C0809332
:1021800024038AC0E091230381E08E0F8093230310
:102190008091BB00F0E0EE5FFC4F808390912303C1
:1021A000809122036AC0E091230381E08E0F809327
:1021B00023038091BB00F0E0EE5FFC4F80838091B1
:1021C0002503811169C081E08093000384EA5DC02A
:1021D00083E08093260310924904CFCF8091490475
:1021E000803208F04DC0E091490481E08E0F809369
:1021F00049048091BB00F0E0E75DFB4F8083BDCFD9
:1022000085EC8093BC0010922603809149048032B3
:1022100030F4E0914904F0E0E75DFB4F10826091FB
:10222000490470E089E294E0E0E0F0E00995109262
:10223000490434C084E0809326031092280410924D
:102240002704E0E0F0E0099580912704811105C0A2
:1022500081E08093270410920704E091280481E034
:102260008E0F80932804F0E0E95FFB4F808180931C
:10227000BB009091280480912704981708F47DCF23
:1022800085E88093BC000AC085EC8093BC00109266
:10229000260304C0109224030E941210FF91EF91B4
:1022A000BF91AF919F918F917F916F915F914F916E
:1022B0003F912F910F900FBE0F901F901895CF93C5
:1022C000DF93282F30E0F901EF52FD4F8491F9019F
:1022D000E354FD4FD491F901E755FD4FC491CC2350
:1022E00091F081110E94020FEC2FF0E0EE0FFF1F22
:1022F000E156FD4FA591B491EC91ED2381E090E082
:1023000021F480E002C080E090E0DF91CF91089559
:102310001F93CF93DF93282F30E0F901EF52FD4F49
:102320008491F901E354FD4FD491F901E755FD4F34
:10233000C491CC23C1F0162F81110E94020FEC2F03
:10234000F0E0EE0FFF1FEB56FD4FA591B4919FB744
:10235000F894111104C08C91D095D82302C0EC914F
:10236000DE2BDC939FBFDF91CF911F910895CF9318
:10237000DF93CCEBD0E018821092260381E08093AB
:1023800025031092000361E082E10E94881161E060
:1023900083E10E948811E9EBF0E080818E7F8083E9
:1023A00080818D7F808388E48093B80085E4888372
:1023B000DF91CF910895CF93DF9390E0FC01E35438
:1023C000FD4F2491FC01E755FD4F8491882361F175
:1023D00090E0880F991FFC01E557FD4FC591D491FE
:1023E000FC01EB56FD4FA591B491611109C09FB757
:1023F000F8948881209582238883EC912E230BC04A
:10240000623061F49FB7F8948881322F309583232E
:102410008883EC912E2B2C939FBF06C08FB7F89426
:10242000E8812E2B28838FBFDF91CF9108958E30C6
:1024300008F08E508770806480937C0080917A00D1
:10244000806480937A0080917A0086FDFCCF809131
:1024500078002091790090E0922B08958F929F92BE
:10246000AF92BF92CF92DF92EF92FF926B017C010D
:102470000E942B0F4B015C01C114D104E104F10453
:10248000F1F00E942B0FDC01CB0188199909AA09F0
:10249000BB09883E9340A105B10570F321E0C21A43
:1024A000D108E108F10888EE880E83E0981EA11C8F
:1024B000B11CC114D104E104F10419F7DDCFFF9080
:1024C000EF90DF90CF90BF90AF909F908F90089546
:1024D0002FB7F8946091FF0370910004809101047C
:1024E000909102042FBF08951F920F920FB60F9282
:1024F00011242F933F938F939F93AF93BF9380911A
:10250000FF0390910004A0910104B0910204309166
:102510004A0423E0230F2D3720F40196A11DB11D9D
:1025200005C026E8230F0296A11DB11D20934A0481
:102530008093FF0390930004A0930104B0930204DE
:102540008091030490910404A0910504B0910604C5
:102550000196A11DB11D8093030490930404A093E0
:102560000504B0930604BF91AF919F918F913F9165
:102570002F910F900FBE0F901F901895CF93DF9360
:10258000CDB7DEB762970FB6F894DEBF0FBECDBFF2
:10259000789484B5826084BD84B5816084BD85B53E
:1025A000826085BD85B5816085BD80916E0081604A
:1025B00080936E00109281008091810082608093F0
:1025C00081008091810081608093810080918000F2
:1025D0008160809380008091B10084608093B1001D
:1025E0008091B00081608093B00080917A00846017
:1025F00080937A0080917A00826080937A00809143
:102600007A00816080937A0080917A00806880935C
:102610007A001092C100E0916803F091690382E0B2
:102620008083E0916403F09165031082E09166037A
:10263000F091670380E1808310927003E0916C0356
:10264000F0916D0386E08083E0916A03F0916B0363
:10265000808180618083E0916A03F0916B038081C7
:1026600088608083E0916A03F0916B0380818068C9
:102670008083E0916A03F0916B0380818F7D80837A
:1026800088E593E00E94830261E08AE00E94DB110A
:1026900060E08AE00E9488111FB7F89480914F0291
:1026A000811127C0E3EBF2E08491E7ECF2E0949132
:1026B000E82FF0E0EE0FFF1FE557FD4FA591B49115
:1026C000EC91E92321F461E08AE00E94881161E045
:1026D0008AE00E94DB118CB580618CBD8CB5806472
:1026E0008CBD61E08DE00E94DB1161E08BE00E9417
:1026F000DB1180914F028F5F80934F021FBF80914B
:102700007A00887F846080937A0061E087E00E948D
:10271000DB1161E087E00E94881161E080E10E94A6
:10272000DB1161E080E10E94881161E08FE00E948E
:10273000DB1161E08FE00E94881162E084E10E9479
:10274000DB1162E085E10E94DB1162E082E00E9421
:10275000DB1162E084E00E94DB1162E083E00E9412
:10276000DB1162E085E00E94DB1162E086E00E94FE
:10277000DB1162E088E00E94DB1162E089E00E94E8
:10278000DB1162E08EE00E94DB1162E081E10E94D9
:10279000DB1188E490E00E949B046091510280E08C
:1027A00090E00E94E109809351026091010181E073
:1027B00090E00E94E109809301016091530282E060
:1027C00090E00E94E109809353026091520283E0FD
:1027D00090E00E94E1098093520260915A0284E0E5
:1027E00090E00E94E10980935A026091590285E0CD
:1027F00090E00E94E109809359026091580286E0BE
:1028000090E00E94E109809358026091570287E0AE
:1028100090E00E94E109809357026091550288E0A0
:1028200090E00E94E109809355026091540289E092
:1028300090E00E94E10980935402609156028AE080
:1028400090E00E94E1098093560260915B028BE068
:1028500090E00E94E10980935B02609170028CE03D
:1028600090E00E94E1098093700280915102809370
:10287000A901809153028093AD018091520280930F
:10288000AE0180915A028093B801809159028093E1
:10289000B901809158028093BA01809157028093C8
:1028A000BC01809155028093BD01809154028093B8
:1028B000BE01809156028093BF0180915B0280939C
:1028C000C001809101018093BB0182E491E00E94EC
:1028D000F30D84E291E00E94F30D80913A018111A1
:1028E00005C060E08FEF0E94A604F7CF83E191E07E
:1028F0000E94D80D84E08093360162E082E00E945D
:10290000DB1162E084E00E94DB1110927B011092E7
:102910007C0164E773E080E00E94530B8EE291E05B
:102920000E94850D83E391E00E94850D82E090E096
:1029300090937C0280937B0285E091E00E94D80D09
:1029400083E090E09093F8038093F70385E090E0B4
:102950009093FA038093F903809337011092FB035D
:102960000E946F0B80937A028EE291E00E94850DA7
:1029700083E391E00E94850D89EF90E00E94D80DDD
:102980001092DF021092DE0210922A0310924B0383
:102990000E94B71188E60E94A40C0E94C50B88E62D
:1029A0000E94A40C80E090E00E949F0C0E94C50B46
:1029B0000E94AE0C8CE493E00E948A0E87FF23C035
:1029C00087ED90E00E94F30D88E60E94A40C80E061
:1029D00090E00E949F0C0E94C50B0E94AE0C8CE4FC
:1029E00093E00E948A0E182F88E60E94A40C80E0D3
:1029F00090E00E949F0C612F6F778CE493E00E941F
:102A0000D30E0E94C50B0E94F40F90934E02809348
:102A10004D020E94D90F80934C020E94BE0F8093FA
:102A200003010E94AE0F809302010E94830F8093E6
:102A30004B020E94680F80934A020E94500F8093BD
:102A400049028BE190E00E94990482FB222720F941
:102A500091E09227909339018695817080930001CF
:102A60000E94740682ED90E00E94F30D809138017F
:102A700081110AC088EB90E00E94D80D0E941A07CD
:102A800083EB90E00E94F30D80EA90E00E94F30D4A
:102A900060E080E10E948811812C912C5401839484
:102AA0000E9468126B017C0180917B0190917C01F6
:102AB000891B87FD805C882311F40C94EA1D8091AA
:102AC0007B0190917C01891B87FD805C811102C094
:102AD0000FEF12C0E0917C0180917B01E817C1F3F8
:102AE000EF5FE03408F0E0E0E0937C01F0E0E55CCB
:102AF000FE4F0081002361F310E061E080E10E945D
:102B00008811003E110529F481E0809363020C9442
:102B1000E11D013E110539F481E080936302809349
:102B200062020C94E11D60916102003F110539F4CD
:102B3000611105C081E0809361020C94E11D8091D8
:102B40006302811104C080916202882319F080E041
:102B500091E002C080E090E0800F911F109260022F
:102B60006093AB01292F21702093B70187FB2227A7
:102B700020F92093B60186FB222720F92093B50186
:102B800085FB222720F92093B40184FB222720F91A
:102B90002093B30183FB222720F92093B20182FB0B
:102BA000222720F92093B10181FB222720F92093CD
:102BB000B001282F21702093AF018634910509F4CC
:102BC00076C30CF0F9C08332910509F402C30CF00E
:102BD00071C08E30910509F4C8C47CF58730910529
:102BE00009F43EC7ACF48430910509F4BDC544F442
:102BF0008130910509F4C8C6039709F419C670C756
:102C00008530910509F44DC5069709F47BC568C761
:102C10008B30910509F430C644F48930910509F4EC
:102C2000D7C60A9709F48CC65BC78C30910509F4A6
:102C3000CDC50D9709F4B8C453C78A31910509F47D
:102C400018C3CCF48431910509F4CFC144F4813127
:102C5000910509F4DCC1429709F4B5C141C785313A
:102C6000910509F4E8C2469709F03AC781E0682760
:102C70006093820135C78D31910509F4EBC264F48C
:102C80008B31910509F4DCC24C9709F029C781E02A
:102C900068276093800124C78132910509F494C2AA
:102CA0000CF0DDC24E9709F01BC781E068276093E6
:102CB0008A0116C78433910509F49AC20CF041C009
:102CC0008B32910509F48FC2ECF48632910509F438
:102CD000DAC264F48432910509F480C2859709F060
:102CE000FFC681E0682760939A01FAC68932910590
:102CF00009F460C28A9709F0F3C681E068276093FF
:102D00009F01EEC68E32910509F4C2C264F48C3282
:102D1000910509F49AC28D9709F0E2C681E068270F
:102D200060939901DDC68233910509F448C20CF025
:102D300064C2C19709F0D4C681E0682760939E0100
:102D4000CFC68D33910509F4A8C2ECF48A339105FE
:102D500009F467C264F48533910509F485C2C69706
:102D600009F0BEC681E068276093A301B9C68B3322
:102D7000910509F447C2CC9709F0B2C681E06827F3
:102D800060939C01ADC68234910509F440C24CF4B5
:102D90008E33910509F486C28134910509F4CEC2BF
:102DA0009FC68434910509F441C20CF067C281E0EA
:102DB00068276093940194C68637910509F4CEC1C3
:102DC0000CF075C08A35910509F4EFC1BCF58E345D
:102DD000910509F4B0C3DCF48B34910509F41CC2ED
:102DE0004CF48934910509F4C3C28A34910509F47D
:102DF00045C376C68C34910509F4D4C28D3491054F
:102E000009F06EC681E068276093840169C6853544
:102E1000910509F476C34CF48235910509F474C226
:102E20008435910509F4D8C25BC68835910509F44B
:102E3000E3C38935910509F4C6C052C68C369105A5
:102E400009F453C2DCF48636910509F4A0C14CF4B0
:102E50008B35910509F4E9C28D35910509F428C334
:102E60003FC68936910509F42CC28B36910509F0CD
:102E700037C681E0682760939A0132C68237910590
:102E800009F424C24CF48037910509F415C2813746
:102E9000910509F46DC224C68437910509F420C256
:102EA0000CF028C281E068276093A20119C68A3518
:102EB00021E0920709F479C10CF046C08D379105E5
:102EC00009F41DC21CF58A37910509F404C27CF48B
:102ED0008837910509F4A0C58937910509F000C626
:102EE00081E0682760938E0160939501F9C58B3767
:102EF000910509F452C38C37910509F0F1C581E0C1
:102F0000682760938E016093A601EAC5823141E093
:102F1000940709F4BDC54CF48338910509F4D0C475
:102F20008131914009F48EC0DBC58F32F1E09F07FB
:102F300009F4BDC08A3421E0920709F49FC28431AC
:102F4000914009F0CDC551C0823741E0940709F4A2
:102F5000D8C0D4F48C36E1E09E0709F48CC354F455
:102F6000893621E0920709F491C38B36914009F428
:102F7000D7C0B6C5803741E0940709F49DC08137BA
:102F8000914009F47AC0ACC58737E1E09E0709F4A7
:102F90009DC554F4843721E0920709F4D0C08537E9
:102FA000914009F49FC09CC58C3741E0940709F417
:102FB00074C58D3751E0950709F429C38A379140CC
:102FC00009F08EC53EC380910101882319F02FE0DE
:102FD00030E002C020E030E081E06827F901E158EC
:102FE000FE4F608360935F027BC58091010188235F
:102FF00019F020E030E002C02FE030E081E06827E7
:10300000F901E158FE4F608360936A0269C581E06F
:10301000762E782670928E0120910101222319F0DC
:1030200086E090E002C080E090E0FC01E158FE4FB5
:103030007082211104C081E190E00E942C097092FD
:1030400069024EC581E0762E782670928E0120911D
:103050000101222319F087E090E002C080E090E0B7
:10306000FC01E158FE4F7082211104C081E191E022
:103070000E942C097092690233C580915F02811110
:103080002FC580910101882339F081E08627809344
:1030900084018093A70106C081E0862780938E017A
:1030A0008093970181E0682760935E0219C581E0F3
:1030B000682760936B0214C580915F02811110C56F
:1030C00080910101882339F081E0682760938C01A9
:1030D0006093A70105C581E0682760938E01609326
:1030E0008001FEC480915F028111FAC481E08627CD
:1030F00080937F0180939B0185E791E00E942C09DA
:10310000EFC480915F028111EBC481E08627809338
:103110007F018093A30182E791E00E942C09E0C423
:1031200080915F028111DCC481E0862780937F015A
:103130008093A2018BE691E00E942C09D1C480917A
:103140005F028111CDC481E0862780937F01809347
:10315000930184E791E00E942C09C2C481E0762E9D
:10316000782670927F0180910101882319F083E015
:1031700090E002C087E090E0FC01E158FE4F7082D1
:1031800086E790E00E942C0970925D02A9C481E05C
:10319000762E782670927F017092830186E690E009
:1031A0000E942C0970925C029BC481E068276093A6
:1031B000850196C481E068276093860191C481E00F
:1031C00068276093A6018CC481E06827609397010B
:1031D00087C481E068276093900182C481E06827FA
:1031E000609391017DC481E068276093980178C461
:1031F00081E068276093A00173C481E06827609331
:10320000A5016EC481E0682760939D0169C481E0D7
:1032100068276093950164C481E0682760938D01FD
:103220005FC481E06827609396015AC481E06827F3
:1032300060938C0155C481E068276093810150C47C
:1032400081E06827609388014BC481E06827609320
:10325000A10146C481E068276093890141C481E0EF
:10326000682760938F013CC481E068276093A401C4
:1032700037C481E068276093870132C481E0682702
:10328000609383012DC481E068276093920128C474
:1032900081E068276093A20123C481E068276093DE
:1032A0009B011EC481E068276093930119C481E0EB
:1032B000682760938B0114C481E0682760938301C1
:1032C0000FC481E06827609382010AC481E0682707
:1032D00060938A0105C481E068276093920100C46D
:1032E00081E068276093A301FBC381E068276093B6
:1032F0009B01F6C381E0682760939301F1C381E0ED
:10330000682760938B01ECC321E0262720938E0170
:1033100030915F02332319F085E090E002C08CE128
:1033200090E0FC01E158FE4F2083662321F01092CB
:10333000840110929B0130936002D2C321E02627C2
:1033400020938E0130915F02332319F08AE190E0DF
:1033500002C08FE190E0FC01E158FE4F208366231C
:1033600021F01092990110929E0130936002B8C32F
:1033700021E0262720938E0130915F02332319F03C
:1033800082E290E002C087E190E0FC01E158FE4F4C
:103390002083662321F01092A101109296013093B0
:1033A00060029EC321E0262720938E0130915F02A8
:1033B000332319F088E090E002C08DE090E0FC013A
:1033C000E158FE4F2083662321F01092870110926E
:1033D0008C013093600284C38091010181110CC083
:1033E00061117EC380915F02882311F089E101C0E1
:1033F00085E20E94DC0874C321E0262720938E0119
:1034000080915F02882319F089E190E002C085E293
:1034100090E0FC01E158FE4F2083662309F460C36D
:10342000109298011092A4015BC380910101811157
:103430000CC0611155C380915F02882311F081E2B5
:1034400001C08DE10E94DC084BC321E026272093B8
:103450008E0180915F02882319F081E290E002C022
:103460008DE190E0FC01E158FE4F2083662309F4D2
:1034700037C31092A00110929C0132C321E026278D
:1034800020938E0130915F02332319F088E190E0A0
:1034900002C080E290E0FC01E158FE4F20836623E9
:1034A00021F01092970110929F013093600218C38F
:1034B0008091010181110CC0611112C380915F02E2
:1034C000882311F089E001C081E10E94DC0808C373
:1034D00021E0262720938E0180915F02882319F036
:1034E00089E090E002C081E190E0FC01E158FE4FEC
:1034F0002083662309F4F4C210928801109290018F
:10350000EFC221E0262720938E0130915F02332302
:1035100019F086E190E002C08EE090E0FC01E158F5
:10352000FE4F2083662321F01092950110928D01A9
:1035300030936002D5C221E0262720938E0130917E
:103540005F02332319F084E090E002C08EE190E046
:10355000FC01E158FE4F2083662321F01092830185
:1035600010929D0130936002BBC280915F0288235C
:1035700029F0611103C081E00E94DC0890915F0294
:10358000911108C02091610281E0822780938E0111
:1035900080938F0190936002A3C281E068276093BB
:1035A0008E0160939D019CC280916B02811108C0C5
:1035B00080916A028823A9F080916902882389F0AA
:1035C00061118EC260915B0281E0682760935B02AB
:1035D0008BE090E00E94CC0980915B028093C00157
:1035E0007FC281E0862780937F01809394018DE0E4
:1035F00090E00E942C0974C281E0862780938E019E
:1036000080937F0188E590E00E942C0969C2809137
:103610005F02811165C280910101882339F081E048
:103620006827609396016093A7015AC281E08627BC
:1036300080937F01809392018DE791E00E942C0995
:103640004FC280915F0281114BC28091010188239A
:1036500039F081E0682760939E016093A70140C222
:1036600081E0862780937F0180939A018AE791E029
:103670000E942C0935C280915F02811131C281E024
:103680006827609395016093A7012AC280915F0229
:10369000811126C281E0682760938D016093A701A4
:1036A0001FC280916B02811108C080916A02882339
:1036B00011F1809169028823F1F0611111C2109219
:1036C0005A021092590284E090E09A8B898B64E14F
:1036D000CE0141960E94B3096091590285E090E0C5
:1036E0000E94CC0980915A028093B80180915902BE
:1036F0008093B901F5C181E06827609380016093F0
:10370000A701EEC180916B02811108C080916A020D
:10371000882319F1809169028823F9F06111E0C1D1
:1037200081E080935A021092590284E090E09A8BD3
:10373000898B6AE0CE0141960E94B30960915902DB
:1037400085E090E00E94CC0980915A028093B801F4
:10375000809159028093B901C3C181E068276093C9
:10376000A6016093A701BCC180916B02811108C0C2
:1037700080916A02882319F1809169028823F9F007
:103780006111AEC110925A0281E08093590284E027
:1037900090E09A8B898B64E1CE0141960E94B30937
:1037A0006091590285E090E00E94CC0980915A0214
:1037B0008093B801809159028093B90191C181E051
:1037C0006827609397016093A7018AC180916B027B
:1037D000811108C080916A02882319F180916902E1
:1037E0008823F9F061117CC181E080935A028093B3
:1037F000590284E090E09A8B898B6AE0CE01419671
:103800000E94B3096091590285E090E00E94CC09C2
:1038100080915A028093B801809159028093B90136
:103820005FC181E06827609390016093A70158C150
:1038300080916B02811108C080916A028823A9F0EF
:1038400080916902882389F061114AC16091580210
:1038500081E068276093580286E090E00E94CC09DE
:10386000809158028093BA013BC181E06827609340
:1038700091016093A70134C180916B02811108C04E
:1038800080916A028823A9F080916902882389F0D7
:10389000611126C16091570281E068276093570249
:1038A00087E090E00E94CC09809157028093BC0190
:1038B00017C181E06827609398016093A70110C148
:1038C00080916B02811108C080916A02882389F17E
:1038D00080916902882369F1611102C180915602C9
:1038E00081110EC080915502811104C081E0809346
:1038F000550208C01092550281E08093560204C020
:1039000010925502109256026091550288E090E0A4
:103910000E94CC09609156028AE090E00E94CC0996
:10392000809155028093BD01809156028093BF0122
:10393000D7C081E068276093A0016093A701D0C041
:1039400080916B02811108C080916A028823A9F0DE
:1039500080916902882389F06111C2C0609154028C
:1039600081E068276093540289E090E00E94CC09CE
:10397000809154028093BE01B3C081E068276093B8
:10398000A5016093A701ACC080916B02811108C0B2
:1039900080916A028823A9F080916902882389F0C6
:1039A00061119EC06091530281E0682760935302C9
:1039B00082E090E00E94CC09809153028093AD0197
:1039C0008FC081E06827609394016093A70188C04D
:1039D00080916B02811108C080916A028823A9F04E
:1039E00080916902882389F061117AC06091520246
:1039F00081E068276093520283E090E00E94CC0946
:103A0000809152028093AE016BC081E06827609381
:103A10009D016093A70164C080916B02811108C071
:103A200080916A028823A9F080916902882389F035
:103A3000611156C06091510281E068276093510284
:103A400080E090E00E94CC09809151028093A9010E
:103A500047C081E068276093810160938E0140C078
:103A600080916B02811108C080916A02882349F01D
:103A700080916902882329F0611132C00E94820876
:103A80002FC081E068276093890160938E0128C070
:103A900081E068276093500223C080915F0281110A
:103AA0001FC0809150028823D9F0611119C0609124
:103AB000010181E068276093010181E090E00E94AC
:103AC000CC09809101018093BB010AC0662341F0BB
:103AD0009091680281E08927809368028093AC010D
:103AE0002091600280917D0190917E01222321F03E
:103AF000009711F410927F01181619061CF481E04A
:103B000080937F0180916A028823C1F080916902CD
:103B10008823A1F080915E02882381F010926A02CE
:103B20001092690210925E0210925F02109260027F
:103B300010927E0110927D010E94C10880916A025C
:103B40008823C1F0809169028823A1F080915D02F1
:103B5000882381F010926A021092690210925D022D
:103B600010925F021092600210927E0110927D010D
:103B70000E94820880916A028823C1F080916902C4
:103B80008823A1F080915C02882381F010926A0260
:103B90001092690210925C0210925F021092600211
:103BA00010927E0110927D010E949D081092610288
:103BB00080916202882319F01092620202C0109272
:103BC000630287EF91E00E94D80D60E170E0C801C8
:103BD0000E94440E0E943D088CB58F7B8CBD62E034
:103BE0008AE00E94DB1186E00E945F1121E0892BB0
:103BF00009F020E02093950288E00E945F1121E007
:103C0000892B09F020E02093960289E00E945F1141
:103C100021E0892B09F020E0209397028AE00E949E
:103C20005F1121E0892B09F020E0209398028EE0BB
:103C30000E945F1121E0892B09F020E0209393027C
:103C400081E10E945F1121E0892B09F020E020939F
:103C5000940261E08AE00E94DB1160E08AE00E9449
:103C600088118CB580618CBD8CB580648CBD409111
:103C7000930250918D0230919402109195022091FF
:103C800096029091970280919802451315C0509129
:103C90008E02351311C050918F0215130DC0509133
:103CA0009002251309C050919102951305C05091BF
:103CB0009202851709F451C040938D0230938E0211
:103CC00010938F022093900290939102809392021E
:103CD0008CEE91E00E94D80D88EE91E00E94D80D04
:103CE0006AE070E0812F90E00E94010E84EE91E086
:103CF0000E94D80D809196026AE070E090E00E94E8
:103D0000010E80EE91E00E94D80D809197026AE04A
:103D100070E090E00E94010E8CED91E00E94D80DC1
:103D2000809198026AE070E090E00E94010E88EDB8
:103D300091E00E94D80D809193026AE070E090E0DB
:103D40000E94010E83ED91E00E94D80D80919402B3
:103D50006AE070E090E00E94440EE3E9F2E080E067
:103D600090E060E0319124013501082E04C0440C3C
:103D7000551C661C771C0A94D2F7332311F0642972
:103D800004C093018201009560230196863091055D
:103D900049F78DE00E94A6048091890290918A02E1
:103DA000A0918B02B0918C02A7019601281B390BC0
:103DB0004A0B5B0B2436310541055105F0F184E1D6
:103DC0000E9417120397B4F48091850290918602A5
:103DD000A0918702B091880226013701481A590A3A
:103DE0006A0A7B0A24EF421621E05206610471043C
:103DF00008F0CCC185E10E9417120397B4F48091BA
:103E0000810290918202A0918302B09184022601E6
:103E10003701481A590A6A0A7B0A24EF421621E040
:103E200052066104710408F0CCC1C0928902D0929C
:103E30008A02E0928B02F0928C0280917D02909136
:103E40007E02A0917F02B091800226013701481ABC
:103E5000590A6A0A7B0A24EF421621E052066104DD
:103E6000710440F10E94F40F90934E0280934D0232
:103E70000E94D90F80934C020E94BE0F80930301D1
:103E80000E94AE0F809302010E94830F80934B0229
:103E90000E94680F80934A020E94500F809349024B
:103EA0000E947406C0927D02D0927E02E0927F0250
:103EB000F092800200917B0210917C021016110694
:103EC0000CF03FC080917A0281113BC08091760254
:103ED00090917702A0917802B09179022601370182
:103EE000481A590A6A0A7B0AD301C201853691052C
:103EF000A105B10530F10150110910937C02009326
:103F00007B028CE791E00E94D80D6AE070E0C80166
:103F10000E94440E0E946F0B182F80937A028CE649
:103F200091E00E94D80D6AE070E0812F90E00E943D
:103F3000440EC0927602D0927702E0927802F0921C
:103F400079028091470290914802891B87FD805F2A
:103F500018160CF08EC08091470290914802891B80
:103F600087FD805F882319F1E09148028091470224
:103F7000E817E9F0EF5FE03108F0E0E0E093480295
:103F800028E0E29FF00111248F0109531E4F88E0C1
:103F9000F801DE01119601900D928A95E1F7F80182
:103FA00080819181628133814481258106C040E016
:103FB00020E060E030E080E090E09A8389836B83CA
:103FC0003C834D832E8328E0FE013196DE01199655
:103FD00001900D922A95E1F72F815091750231E001
:103FE0003527309375026093740240937302782FE3
:103FF000717070937102AC01569547954170847051
:10400000992750917002552311F0E42F01C0E72F3A
:10401000EE2311F0206101C02F7E20937202511116
:10402000472F20917202442311F0206201C02F7D9E
:104030002093720220917202892B11F0206401C03A
:104040002F7B2093720280917202332311F08068DB
:1040500001C08F77809372028AE00E94A60460916B
:1040600073028BE00E94A604609172028CE00E94B1
:10407000A60480917A02882309F45AC080916C02C8
:1040800090916D02A0916E02B0916F0226013701EE
:10409000481A590A6A0A7B0A29EE421623E0520698
:1040A0006104710408F444C080916B02811108C05E
:1040B00080916A028823A1F180916902882381F1AD
:1040C00080917102882361F16091700281E068271C
:1040D000609370028CE090E00E94CC0961E080E186
:1040E0000E94881164E670E080E090E00E942E1249
:1040F00060E080E10E94881164E670E080E090E07A
:104100000E942E1261E080E10E94881164E670E056
:1041100080E090E00E942E1260E080E10E94881111
:10412000C0926C02D0926D02E0926E02F0926F0229
:1041300080916802882311F160E08FE00E9488116D
:104140008091640290916502A0916602B09167022D
:1041500026013701481A590A6A0A7B0A24EF4216D7
:1041600021E052066104710468F0C0926402D092AA
:104170006502E0926602F092670204C061E08FE09F
:104180000E9488110E94A5020C945015C0928502CD
:10419000D0928602E0928702F092880261E08FE07E
:1041A0000E9488118FEB91E00E94D80D0E949D081B
:1041B0008AEB91E00E94F30D60E08FE00E9488118D
:1041C00019CEC0928102D0928202E0928302F092D4
:1041D000840261E080E10E9488118BEA91E00E94F4
:1041E000D80D0E94C10886EA91E00E94F30D60E0BC
:1041F00080E10E94881119CEECE4F3E01382128270
:1042000088EE93E0A0E0B0E084839583A683B78333
:104210002EE031E031832083E8E5F3E0138212825F
:1042200084839583A683B78380E291E09183808322
:1042300085EC90E09587848784EC90E0978786876B
:1042400080EC90E0918B808B81EC90E0938B828B63
:1042500082EC90E0958B848B86EC90E0978B868B3C
:10426000118E128E138E148EE5EFF3E081E58083BC
:1042700011820895F999FECF92BD81BDF89A9927D0
:1042800080B50895262FF999FECF1FBA92BD81BD42
:1042900020BD0FB6F894FA9AF99A0FBE01960895C8
:1042A000AA1BBB1B51E107C0AA1FBB1FA617B7075C
:1042B00010F0A61BB70B881F991F5A95A9F7809578
:1042C0009095BC01CD01089597FB072E16F400943C
:1042D00007D077FD09D00E94502107FC05D03EF49D
:1042E000909581959F4F0895709561957F4F0895A2
:1042F000A1E21A2EAA1BBB1BFD010DC0AA1FBB1FEA
:10430000EE1FFF1FA217B307E407F50720F0A21B5B
:10431000B30BE40BF50B661F771F881F991F1A94C8
:1043200069F760957095809590959B01AC01BD01F2
:10433000CF010895991B79E004C0991F961708F0E2
:10434000961B881F7A95C9F780950895EE0FFF1F79
:104350000590F491E02D099481E090E0F8940C949C
:06436000B121F894FFCF2B
:1043660001010101DC059E019E0100000000D30E43
:10437600A60ECA017A0E9E0E8A0E7B0E0000000063
:1043860036029F01CD018302FE01DC01F001646F5C
:064396006E65000D0A0037
:00000001FF
