:100000000C9440010C9413120C94EC110C946801A4
:100010000C9468010C9468010C9468010C946801BC
:100020000C9468010C9468010C9468010C946801AC
:100030000C9468010C9468010C9468010C9468019C
:100040000C943A120C9468010C94BA110C9494110B
:100050000C9468010C9468010C9468010C9468017C
:100060000C9475100C946801646F6E6500525443D3
:1000700020696E697420726571756573742E2E2EF9
:1000800000556E6B6E6F776E005265762E43005290
:1000900065762E41207769746820544441313534A7
:1000A000334120444143005265762E4120776974E4
:1000B0006820544441313534332044414300465094
:1000C000474120626F617264207265766973696F5F
:1000D0006E2069733A2000646F6E65004650474198
:1000E00020696E697420726571756573742E2E2E89
:1000F0000000000000240027002A00000000002566
:100100000028002B00000000002300260029000426
:1001100004040404040404020202020202030303AE
:1001200003030301020408102040800102040810A8
:100130002001020408102000000008000201000055
:100140000304070000000000000000537461727493
:10015000696E67206D61696E206C6F6F7000646FEF
:100160006E65005254432073656E6420616C6C2090
:100170007265676973746572732E2E2E00646F6EDC
:10018000650052544320696E69742E2E2E004D6F07
:1001900075736520696E69742E2E2E004B65796229
:1001A0006F61726420696E69742E2E2E005761692A
:1001B00074696E6720666F72204650474120696EF1
:1001C00069742072657175657374005A58204B65A7
:1001D00079626F617264202F206D6F757365202FB7
:1001E0002072746320636F6E74726F6C6C65722022
:1001F00076312E30004D6F757365207072657365B2
:100200006E743A20004D6F757365206E6F742070A8
:10021000726573656E742E20547279696E672074EE
:100220006F20696E6974206D6F7573653A20005296
:100230005443206973206E6F742072756E6E696E00
:10024000672E2053746172696E672069742E2E2E9A
:10025000002046323A0020463A0020523A00204C14
:100260003A0020443A0020553A004A6F7973746985
:100270006B3A005363616E636F64653A00008412E9
:1002800011241FBECFEFD8E0DEBFCDBF23E0A6E331
:10029000B1E001C01D92A737B207E1F711E0A0E07D
:1002A000B1E0E0E0FFE302C005900D92A633B10794
:1002B000D9F711E0C0E4D1E004C02197FE010E940B
:1002C000781FCF33D107C9F70E94C8120C94091FB9
:1002D0000C94000091E09093A1028093C3021092CD
:1002E000A2021092C4020895909174028091730248
:1002F0002FEF3FEF981748F4E92FF0E0ED5AFD4F4C
:10030000208130E09F5F90937402C901089590911D
:100310007402809173022FEF3FEF981748F4E92F92
:10032000F0E0ED5AFD4F208130E09F5F9093740222
:10033000C901089520912E02260F3327331F213241
:100340003105ECF420919B02FC0190E080E0243028
:1003500069F082E00895A0912E022191AC01445FE2
:100360005D4FA40FB52FB11D2C930196861798F3FE
:1003700080912E02680F60932E0280E0089581E044
:100380000895089508950895E0917402809173028C
:10039000E81730F4F0E0ED5AFD4F808190E00895C9
:1003A0008FEF9FEF08958091730290917402891BE3
:1003B000990B0895CF92DF92EF92FF920F931F93C4
:1003C000CF93DF937C01CB018A012091A1022223EC
:1003D00089F0EB016B01C40ED51ECC15DD0569F06B
:1003E0006991D701ED91FC910190F081E02DC70159
:1003F0000995F3CF642F0E949A01C801DF91CF9134
:100400001F910F91FF90EF90DF90CF900895CF93C1
:10041000DF931F92CDB7DEB769832091A10222231B
:10042000F9F02091C402203258F021E030E0FC01C4
:100430003383228390E080E00F90DF91CF91089585
:100440008091A202E82FF0E0ED55FD4F9981908355
:100450008F5F8093A2028093C40281E090E0ECCF92
:1004600061E0CE0101960E949A01F7CF682F89ECD6
:1004700092E00C940702FC01538D448D252F30E04F
:10048000842F90E0821B930B541710F0CF960895A1
:1004900001970895FC01918D828D981761F0A28DCE
:1004A000AE0FBF2FB11D5D968C91928D9F5F9F7394
:1004B000928F90E008958FEF9FEF0895FC01918D4A
:1004C000828D981731F0828DE80FF11D858D90E0B7
:1004D00008958FEF9FEF0895FC01918D228D892F54
:1004E00090E0805C9F4F821B91098F73992708953C
:1004F000FC01A48DA80FB92FB11DA35ABF4F2C9199
:10050000848D90E001968F739927848FA689B7898F
:100510002C93A089B1898C91837080648C93938D86
:10052000848D981306C00288F389E02D80818F7D29
:1005300080830895EF92FF920F931F93CF93DF93E1
:10054000EC0181E0888F9B8D8C8D98131AC0E8890F
:10055000F989808185FF15C09FB7F894EE89FF89DE
:100560006083E889F98980818370806480839FBF7C
:1005700081E090E0DF91CF911F910F91FF90EF907C
:100580000895F62E0B8D10E00F5F1F4F0F7311278C
:10059000E02E8C8D8E110CC00FB607FCFACFE889C7
:1005A000F989808185FFF5CFCE010E947802F1CFD5
:1005B000EB8DEC0FFD2FF11DE35AFF4FF0829FB73B
:1005C000F8940B8FEA89FB8980818062CFCF0F93EB
:1005D0001F93CF93DF938C01D0E0C0E0F801EC0FC4
:1005E000FD1F6491662341F085ED92E00E949A021E
:1005F000892B11F02196F2CFCE01DF91CF911F917F
:100600000F910895CF93DF93EC01888D8823B9F083
:10061000AA89BB89E889F9898C9185FD03C080810D
:1006200086FD0DC00FB607FCF7CF8C9185FFF2CF8A
:10063000808185FFEDCFCE010E947802E9CFDF9166
:10064000CF91089585ED92E00E946C0221E0892B04
:1006500009F420E0822F089580E090E0892B29F0B2
:100660000E94220381110C9400000895AF92BF9262
:10067000CF92DF92EF92FF920F931F93CF93DF936E
:100680006C017B018B01040F151FEB015E01AE189D
:10069000BF08C017D10759F06991D601ED91FC91BF
:1006A0000190F081E02DC6010995892B79F7C501EC
:1006B000DF91CF911F910F91FF90EF90DF90CF903E
:1006C000BF90AF90089590E080E008950895833042
:1006D00081F028F4813099F08230A9F008958730B4
:1006E000A9F08830C9F08430B1F4809180008F7D0A
:1006F00003C0809180008F7780938000089584B537
:100700008F7784BD089584B58F7DFBCF8091B00035
:100710008F778093B00008958091B0008F7DF9CFDE
:10072000CF93DF93282F30E0F901E95CFE4F8491ED
:10073000F901ED5DFE4FD491F901E15FFE4FC491E7
:10074000CC23A1F081110E946703EC2FF0E0EE0FA3
:10075000FF1FEB5FFE4FA591B491EC91ED2381E07B
:1007600090E009F480E0DF91CF91089580E090E07F
:10077000FACFCF92DF92EF92FF92CF93DF93EC010B
:100780008FB7F894C090C502D090C602E090C7021F
:10079000F090C8028FBF2FB7F8948091C502909156
:1007A000C602A091C702B091C8022FBF8C199D0943
:1007B000AE09BF09883E9340A105B10578F4809148
:1007C00072030E9490038C179D0729F781E0DF9147
:1007D000CF91FF90EF90DF90CF90089580E0F7CF1A
:1007E000CF93DF9390E080E00E94B903809174037F
:1007F0000E949003EC0181E090E00E94B903CE01D9
:10080000DF91CF9108951F93CF93DF93282F30E08E
:10081000F901E95CFE4F8491F901ED5DFE4FD49141
:10082000F901E15FFE4FC491CC23A9F0162F81118D
:100830000E946703EC2FF0E0EE0FFF1FE550FF4F23
:10084000A591B4918FB7F894EC91111108C0D0958F
:10085000DE23DC938FBFDF91CF911F910895DE2BB4
:10086000F8CF10929B0281E080939A021092750259
:1008700061E082E10E94030461E083E10E940304DD
:10088000E9EBF0E080818E7F808380818D7F8083A3
:1008900088E48093B80085E48093BC000895CF93EA
:1008A000DF9391E090930B028823B9F0C091B800D8
:1008B000D091BA008091BC008A7B8093BC0060E03C
:1008C00082E10E94030460E083E10E9403040E942D
:1008D0003104D093BA00C093B800DF91CF9108954E
:1008E000CF93DF9390E0FC01ED5DFE4F2491815F9B
:1008F0009E4FFC0184918823C9F090E0880F991FD6
:10090000FC01EF50FF4FA591B491FC01E550FF4F62
:10091000C591D49161110DC09FB7F8948C91209529
:1009200082238C938881282328839FBFDF91CF91D6
:100930000895623051F49FB7F8943C91822F8095CE
:1009400083238C93E8812E2BEFCF8FB7F894EC9113
:100950002E2B2C938FBFEACFCF93C82F60E00E943D
:10096000700461E08C2FCF910C940304CF93C82FB7
:1009700061E00E94700460E08C2FCF910C9403041E
:100980002091740330917503019759F4C9010E94B5
:10099000AC0481E090E00E94B90390E080E00C9408
:1009A000B903C9010E94B604F4CFCF92DF92EF924F
:1009B000FF920F931F93CF938091720390917303D3
:1009C0000E94AC0480917403909175030E94AC0462
:1009D00083EC90E00197F1F790E080E00E94B9038A
:1009E0008FE090E00197F1F781E090E00E94B90379
:1009F000C0E010E000E0C12CD12C7601C3940E942D
:100A0000F003B701A601002E04C0440F551F661F56
:100A1000771F0A94D2F7892BC9F0C42B0F5F1F4FA1
:100A20000830110561F70E94F0030E94F0038091E5
:100A30007203909173030E94B6048C2FCF911F9183
:100A40000F91FF90EF90DF90CF9008954095C423D1
:100A5000E5CFBF92CF92DF92EF92FF920F931F9359
:100A6000CF93DF93C82E80917403909175030E94F9
:100A7000AC0480917203909173030E94AC04CBEAA2
:100A8000D4E0CE010197F1F7809172039091730346
:100A90000E94B6042197F1F7809174039091750339
:100AA0000E94B60483E290E00197F1F7809172030F
:100AB000909173030E94AC0490E080E00E94B9031F
:100AC000B82E882309F43FC0EE24E394F12CD0E043
:100AD000C0E00C2C000CDD0886010C2E02C0159520
:100AE00007950A94E2F701701127C8010E94C0041B
:100AF000E026F1262196C830D10571F7C7010E9482
:100B0000C00480917403909175030E94AC0483EC3F
:100B100090E00197F1F790E080E00E94B9038091A6
:100B200072030E949003892BD1F3809174030E9479
:100B30009003892BA1F380917203909173030E941B
:100B4000B6040E94D5048B2DDF91CF911F910F9198
:100B5000FF90EF90DF90CF90BF900895CF93DF93F9
:100B6000EC0183EF90E00E942905CE01DF91CF9147
:100B70000C942905CF9380917203909173030E9486
:100B8000AC0480917403909175030E94AC048FEFC4
:100B900090E00E942905C82F8823A1F10E94D50466
:100BA0000E94D50488EC90E00E94AE0584E690E0B7
:100BB0000E94AE0580E590E00E94AE0582EF90E0D5
:100BC0000E9429050E94D50491E0833009F090E04D
:100BD0009093760388EE90E00E94290583E090E0F0
:100BE0000E94290586EE90E00E94290588E290E0A7
:100BF0000E94AE0580EF90E00E9429058BE891E00D
:100C00000197F1F78C2FCF9108953FB7F894809119
:100C10006B0190916C01A0916D01B0916E0126B5B0
:100C2000A89B05C02F3F19F00196A11DB11D3FBF24
:100C3000BA2FA92F982F8827BC01CD01620F711DF3
:100C4000811D911D42E0660F771F881F991F4A95ED
:100C5000D1F70895CF92DF92EF92FF920F931F93F7
:100C6000CF93DF93D091C40281E0D13208F09CC0D1
:100C7000C091C3020E9405066B017C0180919B021A
:100C800081116CC082E080939B0281E080939A0284
:100C90008FEF8093990210929802D0939702A3EA63
:100CA000B2E0E7E7F2E080E0D8138DC01092760260
:100CB00080917602CC0FC82BC0937602809175028A
:100CC000813009F084C0109275020E9405066B0104
:100CD0007C01809176028093BB0080919D0290916F
:100CE0009E02A0919F02B091A002892B8A2B8B2B90
:100CF000A1F00E94050600919D0210919E02209194
:100D00009F023091A0026C197D098E099F09061778
:100D100017072807390708F442C08091BC0083FDFB
:100D2000D8CF85EC8093BC000E9405066B017C0146
:100D300080919B02823009F44CC0809199028F3FD0
:100D400009F469C080919902803209F466C08091EB
:100D50009902803309F463C084E026C080919D022B
:100D600090919E02A0919F02B091A002892B8A2BA4
:100D70008B2B09F483CF0E94050600919D021091F0
:100D80009E0220919F023091A0026C197D098E096C
:100D90009F09061717072807390708F06FCF8091BA
:100DA0009C020E944F0485E01092A2021092C4029D
:100DB0001092A102DF91CF911F910F91FF90EF90C0
:100DC000DF90CF9008959D9191938F5F6DCF85EEC9
:100DD000A9CF80919D0290919E02A0919F02B09117
:100DE000A002892B8A2B8B2B09F4A2CF0E94050627
:100DF00000919D0210919E0220919F023091A002CD
:100E00006C197D098E099F090617170728073907EE
:100E100008F08ECFC4CF80E0C7CF82E0C5CF83E09B
:100E2000C3CF8F929F92AF92BF92CF92DF92EF92F9
:100E3000FF924B015C010E9405066B017C010E9440
:100E400005066C197D098E099F09683E734081056E
:100E50009105A8F321E0821A9108A108B10888EE53
:100E6000C80E83E0D81EE11CF11C81149104A1047A
:100E7000B10429F7FF90EF90DF90CF90BF90AF9033
:100E80009F908F900895E8E9F1E011929F01285911
:100E9000314028173907CCF30895CF92DF92EF92B3
:100EA000FF920F931F93CF93DF93CDB7DEB7A89731
:100EB0000FB6F894DEBF0FBECDBF209185013091F3
:100EC0008601611133C012161306A4F4EDE3F1E0BC
:100ED00050E040E0A191B1918A179B0709F461E0CD
:100EE0004F5F5F4F42175307A9F7611110C02431BC
:100EF000310569F0F901EE0FFF1FE35CFE4F9183AE
:100F000080832F5F3F4F3093860120938501A89601
:100F10000FB6F894DEBF0FBECDBFDF91CF911F910A
:100F20000F91FF90EF90DF90CF900895FE013196E2
:100F300048E2DF011D924A95E9F71216130684F57F
:100F40000DE311E0780150E040E070E060E0D7018F
:100F5000CD90DD907D018C159D0549F0DA01AA0F39
:100F6000BB1FAE0FBF1FCD92DC924F5F5F4F6F5F15
:100F70007F4F6217730759F74115510589F090E0CB
:100F800080E021913191D8012D933D938D010196FF
:100F900084179507B1F75093860140938501B7CF29
:100FA00050E040E0F8CFCF92DF92EF92FF920F93A4
:100FB0001F9380916F010E9490039FB7F894409116
:100FC000C5025091C6026091C7027091C8029FBFCE
:100FD0000091390110913A0120913B0130913C017F
:100FE0006A017B01C01AD10AE20AF30A970186015D
:100FF0000B3F11052105310510F010923801409387
:10100000390150933A0160933B0170933C019091F8
:1010100038019F5F909338019A3038F4923060F530
:101020009130F9F01092380120C09A30A9F19B302C
:10103000C9F7809136018D3FA8F7809183018F5FBA
:10104000803108F080E090918401981759F3E82FDF
:10105000F0E090913701ED58FE4F9083809383012B
:10106000E1CF10923701109236011F910F91FF903E
:10107000EF90DF90CF90089590913601980F909364
:1010800036012091370130E035952795811180E8B0
:10109000282B20933701E9CF909136019170981752
:1010A00019F090933601E1CF8DEF80933601DDCFBB
:1010B000CF92DF92EF92FF920F931F930E9405064B
:1010C0006B017C0180919B02811163C081E0809360
:1010D0009B0280939A029FEF90939902109298023C
:1010E000109297028093760280917602806D8093B1
:1010F000760280917502813009F07CC010927502F1
:101100000E9405066B017C01809176028093BB00F2
:1011100080919D0290919E02A0919F02B091A002A9
:10112000892B8A2B8B2BA1F00E94050600919D0232
:1011300010919E0220919F023091A0026C197D09AE
:101140008E099F09061717072807390708F442C0B8
:101150008091BC0083FDD8CF85EC8093BC000E94B9
:1011600005066B017C0180919B02813009F444C02B
:1011700080919802811162C080919802A7E7B2E045
:10118000E3E5F2E090E0981751F12D9121939F5FF4
:10119000FACF80919D0290919E02A0919F02B09102
:1011A000A002892B8A2B8B2B09F48CCF0E94050679
:1011B00000919D0210919E0220919F023091A00209
:1011C0006C197D098E099F0906171707280739072B
:1011D00008F078CF80919C020E944F0480E010922A
:1011E0007402809373021F910F91FF90EF90DF9034
:1011F000CF90089585EEB1CF80919D0290919E028F
:10120000A0919F02B091A002892B8A2B8B2B09F40D
:10121000AACF0E94050600919D0210919E02209186
:101220009F023091A0026C197D098E099F09061753
:1012300017072807390708F096CFCCCF81E09ECF5B
:1012400088E60E946A0182E090E00E9436020E94D5
:101250002A060E9458080E94870126E096958795E5
:101260002A95E1F78170089588E60E946A0190E06E
:1012700080E00E9436020E942A060E9458080E94BE
:1012800087018F77282F30E094E0359527959A9540
:10129000E1F7922F990F990F291B220F820F0895C2
:1012A00088E60E946A0181E090E00E9436020E9476
:1012B0002A060E9458080E9487019C0194E03595F7
:1012C00027959A95E1F72F703327922F990F990F51
:1012D000291B220F820F0895CF930E942009C82F47
:1012E00088E60E946A0182E090E00E9436020E9435
:1012F0002A060E9458080E948701C11110C0AC0143
:1013000094E0559547959A95E1F74F705527942F9E
:10131000990F990F491B440F840FCF910895482FBF
:101320004F79242F30E084E0359527958A95E1F7B1
:10133000822F880F880F922F981B892F880FECCF50
:1013400088E60E946A0183E090E00E9436020E94D3
:101350002A060E9458080E948701089588E60E9484
:101360006A0184E090E00E9436020E942A060E94F0
:1013700058080E9487019C0194E0359527959A951D
:10138000E1F72F703327922F990F990F291B220F06
:10139000820F089588E60E946A0185E090E00E942D
:1013A00036020E942A060E9458080E9487019C016A
:1013B00094E0359527959A95E1F72F703327922F72
:1013C000990F990F291B220F820F089588E60E941A
:1013D0006A0186E090E00E9436020E942A060E947E
:1013E00058080E9487019C0194E0359527959A95AD
:1013F000E1F72F703327922F990F990F291B220F96
:10140000820F90E08053984F0895FC0101900020D6
:10141000E9F73197AF01481B590BBC0185ED92E00C
:101420000C943603CF93DF930E94E702EC018EE227
:1014300091E00E94050A8C0F9D1FDF91CF910895C6
:101440008F929F92AF92BF92CF92DF92EF92FF92D4
:101450000F931F93CF93DF93CDB7DEB7A1970FB64E
:10146000F894DEBF0FBECDBF6C01990FEE08FF08E8
:10147000F7FE41C06DE285ED92E00E949A028C0178
:1014800022273327A9012C193D094E095F0919A20A
:10149000CE0181967C019AE0892E912CA12CB12C51
:1014A000CA01B901A50194010E94341F605DF701D2
:1014B00062937F01211531054105510589F790E0BF
:1014C00080E0309719F0CF010E94050A800F911F2C
:1014D000A1960FB6F894DEBF0FBECDBFDF91CF91BE
:1014E0001F910F91FF90EF90DF90CF90BF90AF9042
:1014F0009F908F900895A701960119A28E010F5D0C
:101500001F4F8AE0C82ED12CE12CF12CCA01B90161
:10151000A70196010E94341F605DF80162938F015C
:10152000211531054105510589F790E080E030979C
:1015300079F2CF010E94050ACBCFCF93DF930E94AF
:10154000200AEC018EE291E00E94050A8C0F9D1F9B
:10155000DF91CF91089585ED8093BC0080919D022D
:1015600090919E02A0919F02B091A0020796A11DAA
:10157000B11D23E0B695A795979587952A95D1F744
:101580002091BC0024FD03C010929B02089540915D
:101590009D0250919E0260919F027091A002452B86
:1015A000462B472B69F30097A105B10541F025E3D0
:1015B0002A95F1F700000197A109B109E1CF8091C7
:1015C0009C020C944F040C94561F1F93CF93DF93EF
:1015D000C82F162F60E087E00E9403048C2F90E054
:1015E0009C01220F232F221F330B232B09F4AEC0A3
:1015F0002B9A2D9A1C99ACC0D0E02D9886FFAAC0DA
:101600002B9A2D9A1C99D0642D9885FFA5C02B9AF2
:101610002D9A1C99D0622D9884FFA0C02B9A2D9AE8
:101620001C99D0612D9883FF9BC02B9A2D9A1C99F1
:10163000D8602D9882FF96C02B9A2D9A1C99D46061
:101640002D9881FF91C02B9A2D9A1C99D2602D98CC
:10165000C0FF8CC02B9A2D9A1C99D1602D98812F98
:1016600090E09C01220F232F221F330B232B09F420
:101670007FC02B9A2D9A1C997DC0C0E02D9886FFC3
:101680007BC02B9A2D9A1C99C0642D9885FF76C03B
:101690002B9A2D9A1C99C0622D9884FF71C02B9AA9
:1016A0002D9A1C99C0612D9883FF6CC02B9A2D9A9E
:1016B0001C99C8602D9882FF67C02B9A2D9A1C999F
:1016C000C4602D9881FF62C02B9A2D9A1C99C2602C
:1016D0002D9810FF5DC02B9A2D9A1C99C1602D98F2
:1016E00061E087E00E940304DD2309F4E4C0DD3FEC
:1016F00009F050C0809172018111DDC08CED90E045
:101700000E94E70281E0809372010E945B0F0E94B9
:10171000410E0E94B50F87ED90E00E94120A8EEBF9
:1017200090E00E94E7028FE890E0C13051F087EA34
:1017300090E0C13030F089E890E0C23011F081E8EB
:1017400090E0DF91CF911F910C94120A2B9851CF0A
:10175000D0E853CF2B9855CF2B985ACF2B985FCFEB
:101760002B9864CF2B9869CF2B986ECF2B9873CF83
:101770002B9880CFC0E882CF2B9884CF2B9889CF2D
:101780002B988ECF2B9893CF2B9898CF2B989DCFBB
:101790002B98A2CFDC3F09F03AC0809170018111F3
:1017A0008AC08DE690E00E94E70281E0809370019C
:1017B0000E94410E88E690E00E94120AD058D03470
:1017C00008F079C080916601D81305C08091650149
:1017D000C81709F470C0D0936601C09365018D2FBE
:1017E00090E0DE3008F0AAC18750944FFC010C94C1
:1017F000781F1D0C480C5F0C780C8C0CF50C090D37
:10180000250D3E0D570D850D8E0D5B0C5B0CDE30EE
:10181000A9F68C2F81708093E601C1FB882780F99F
:101820008093E001C2FB882780F980930A02C3FB02
:10183000882780F98093E101C1CF809171018823CD
:1018400069F08C2F90E0B4E095958795BA95E1F713
:10185000982F990F990F891B880FC80FC093F40117
:1018600088E60E946A0190E080E00E9436020E94B1
:101870002A060E9458080E9487018078C82B88E6B3
:101880000E946A0190E080E00E9436028C2F81C0A5
:1018900080917101882369F08C2F90E0A4E09595E8
:1018A0008795AA95E1F7982F990F990F891B880FB3
:1018B000C80FC0936901DF91CF911F910895809166
:1018C0007101882369F08C2F90E0F4E0959587955D
:1018D000FA95E1F7982F990F990F891B880FC80F78
:1018E000C093F50188E60E946A0181E090E0CCCFC8
:1018F00080917101882369F08C2F90E0E4E0959548
:101900008795EA95E1F7982F990F990F891B880F12
:10191000C80FC0936801CFCF80917101882369F00F
:101920008C2F90E074E0959587957A95E1F7982F44
:10193000990F990F891B880FC80FC093F60188E68D
:101940000E946A0182E090E00E9436020E942A060C
:101950000E9458080E948701D82F88E60E946A01D9
:1019600082E090E00E9436026D2F6F7B89EC92E05E
:101970000E9407020E942A060E942009D82F88E6AA
:101980000E946A0182E090E00E9436028C2FD11101
:1019900009C06AE00E946C1F682F660F680F660F0F
:1019A0006C0F10C0CD30B8F06CE00E946C1F292F76
:1019B000892F6AE00E946C1F682F660F680F660F00
:1019C000620F606689EC92E00E940702DF91CF917E
:1019D0001F910C942A066AE00E946C1F682F660F04
:1019E000680F660F6C0F6064EDCF809171018823E2
:1019F00069F08C2F90E064E0959587956A95E1F702
:101A0000982F990F990F891B880FC80FC0936701F2
:101A100052CF80917101882369F08C2F90E054E0BF
:101A2000959587955A95E1F7982F990F990F891BEE
:101A3000880FC80FC093080188E60E946A0183E0FE
:101A400090E00E9436026C2FBDCF809171018823F7
:101A500069F08C2F90E044E0959587954A95E1F7E1
:101A6000982F990F990F891B880FC80FC0930901F0
:101A700088E60E946A0184E090E006CF80917101BF
:101A8000882369F08C2F90E034E0959587953A95FE
:101A9000E1F7982F990F990F891B880FC80FC093F2
:101AA000F70188E60E946A0185E090E0EDCE809122
:101AB0007101882369F08C2F90E024E0959587953B
:101AC0002A95E1F7982F990F990F891B880FC80F56
:101AD000D0E0C053D84FD093F901C093F80188E605
:101AE0000E946A0186E090E00E943602CE0164E620
:101AF00070E00E940C1F282F6AE00E946C1F682F64
:101B0000660F680F660F620F5DCF6C2F6F778AE1EB
:101B100090E0DF91CF911F910C945E1FC2FB88274C
:101B200080F991E0892780937101C1FB882780F9B2
:101B3000809304016C2F8BE190E0EBCF6C2F4096EB
:101B4000E8CF2091F40180917101882349F0822F20
:101B50006AE00E946C1F982F990F890F880F280F39
:101B6000622F80E40E94E50A809171012091F501C5
:101B7000622F882349F0822F6AE00E946C1F682F31
:101B8000660F680F660F620F82E40E94E50A90916B
:101B90000401809171012091F601992309F462C03A
:101BA000882349F0822F6AE00E946C1F982F990FBA
:101BB000890F880F280F622F84E40E94E50A809124
:101BC000710120910801622F882349F0822F6AE079
:101BD0000E946C1F682F660F680F660F620F86E405
:101BE0000E94E50A8091710120910901622F8823EA
:101BF00049F0822F6AE00E946C1F682F660F680F01
:101C0000660F620F87E40E94E50A809171012091BE
:101C1000F701622F882349F0822F6AE00E946C1F2F
:101C2000682F660F680F660F620F88E40E94E50A4E
:101C3000209171018091F8019091F90164E670E0C2
:101C40000E94201F682F222351F0282F862F6AE040
:101C50000E946C1F682F660F680F660F620F89E481
:101C60000C94E50A882329F02D3008F49BCF2CE84A
:101C700099CF2D3008F49FCF2CE89DCF805C0C9439
:101C8000E50A0F931F93CF93DF93D0E0C0E004E603
:101C900010E0CE3008F008C1EC2FF0E0EE5AF14F22
:101CA0000C94781F600E7C0E8E0EA00EB20ED20E1B
:101CB000F20E040F160F280F3F0F470F4E0F510F54
:101CC0002091F40180917101882349F0822F6AE00C
:101CD0000E946C1F982F990F890F880F280F622F71
:101CE00080E00E943E0E2196C034D10591F6DF912E
:101CF000CF911F910F9108952091690180917101F9
:101D0000882349F0822F6AE00E946C1F982F990F58
:101D1000890F880F280F622F81E0E3CF2091F50112
:101D200080917101882349F0822F6AE00E946C1F24
:101D3000982F990F890F880F280F622F82E0D1CF3B
:101D40002091680180917101882349F0822F6AE017
:101D50000E946C1F982F990F890F880F280F622FF0
:101D600083E0BFCF809171012091F6019091040131
:101D7000992371F0882349F0822F6AE00E946C1F3A
:101D8000982F990F890F880F280F622F84E0A9CF11
:101D9000882321F02D3080F32CE8EECF2D30A8F3EE
:101DA0002CE8F3CF8091710120916701909104019B
:101DB000992371F0882349F0822F6AE00E946C1FFA
:101DC000982F990F890F880F280F622F85E089CFF0
:101DD000882321F02D3080F32CE8EECF2D30A8F3AE
:101DE0002CE8F3CF2091080180917101882349F0FC
:101DF000822F6AE00E946C1F982F990F890F880F1D
:101E0000280F622F86E06DCF20910901809171012A
:101E1000882349F0822F6AE00E946C1F982F990F47
:101E2000890F880F280F622F87E05BCF2091F70181
:101E300080917101882349F0822F6AE00E946C1F13
:101E4000982F990F890F880F280F622F88E049CFAC
:101E50008091F8019091F901B8010E94201F282F6C
:101E600090917101992341F06AE00E946C1F982FB4
:101E7000880F890F880F820F682F89E032CF8AE19F
:101E800090E00E94E30A682F6F778AE02ACF8BE107
:101E900090E00E94E30A682F8BE023CF60E08CE0A3
:101EA00020CF60E88DE01DCFCE0140960E94E30A6E
:101EB000682F8C2F16CF8F929F92AF92BF92CF92A6
:101EC000DF92EF92FF920F931F93CF9308E911E0F7
:101ED000C0E0C12CD12C7601C394F80190E080E0E1
:101EE00060E0219146015701082E04C0880C991C1E
:101EF000AA1CBB1C0A94D2F72223C9F068290196B8
:101F00008830910571F7CF5F8C2F0E94E50A085F3A
:101F10001F4FC83011F7CF911F910F91FF90EF9095
:101F2000DF90CF90BF90AF909F908F900895809456
:101F30006821E5CFCF93DF9389E290E00E944307C9
:101F4000C8E9D1E081E08BA70E945B0F64E670E0F6
:101F500080E090E00E94110789E290E00E94430730
:101F60001BA6DF91CF910C945B0FCF93DF9389E297
:101F700090E00E944307C8E9D1E081E089A70E9470
:101F80005B0F64E670E080E090E00E94110789E258
:101F900090E00E94430719A6DF91CF910C945B0F4C
:101FA000FF920F931F93CF93DF93C82F89E290E0A6
:101FB0000E9443070E945B0F64E170E080E090E0C4
:101FC0000E94110708E911E0FF24F394F801F08260
:101FD0000E945B0F64E170E080E090E00E941107D6
:101FE000F801F7860E945B0F64E170E080E090E00A
:101FF0000E941107F80117860E945B0F64E170E0F0
:1020000080E090E00E941107D0E0C856DE4FF882D1
:102010000E945B0F64E170E080E090E00E94110795
:10202000F801108218820E945B0F64E170E080E08A
:1020300090E0DF91CF911F910F91FF900C941107C9
:10204000FF920F931F93CF93DF93EC01F62E08813D
:102050001981C8010E94561FF81621F06F2DC80182
:102060000E945E1FCE01DF91CF911F910F91FF90D3
:102070000895CF93DF9300D0CDB7DEB761110CC0C8
:1020800064E19A838983CE0101960E9420100F900B
:102090000F90DF91CF9108956AE0F3CFEF92FF9216
:1020A0001F93CF93DF9300D0CDB7DEB77C01162FFF
:1020B0000E94E30A8A3011F0843169F411E08A3019
:1020C00009F010E0812F0F900F90DF91CF911F91B9
:1020D000FF90EF90089564E111116AE0FA82E982BD
:1020E000CE0101960E942010EDCF1F920F920FB6E5
:1020F0000F9211242F933F934F935F936F937F938E
:102100008F939F93AF93BF93EF93FF938091B90009
:10211000887F803609F44AC0F0F5883209F4A7C0F8
:1021200018F5803109F49BC0B8F4882309F4F9C08C
:10213000883009F494C0FF91EF91BF91AF919F91C6
:102140008F917F916F915F914F913F912F910F9060
:102150000FBE0F901F901895883109F488C0803207
:1021600051F78093990214C0803409F49DC040F463
:102170008033B9F38833F9F68093990285ECB0C0C7
:10218000803509F485C0883509F496C0883499F6FD
:102190000E94AB0AD0CF883909F48CC038F5883753
:1021A00029F050F4883611F0803729F683E08093C7
:1021B0009B021092520257C0883809F47BC08039C4
:1021C00019F0803809F0B7CF80915202803208F0C0
:1021D00071C0E091520281E08E0F80935202809193
:1021E000BB00F0E0EE5CFD4F80833DC0803B39F0EA
:1021F000E0F4803A09F479C0883A09F09CCF84E091
:1022000080939B0210922F0210922E02E0912C02DA
:10221000F0912D02099580912E0281110FC081E06D
:1022200080932E0210920C0209C0803C09F4A6CFC4
:10223000883C09F4A3CF883B09F07DCFE0912F02C1
:1022400081E08E0F80932F02F0E0E45FFD4F8081EC
:102250008093BB0090912F0280912E0229C0809123
:1022600076028093BB0085EC8093BC0064CF909194
:10227000980280919702981758F5E091980281E0B2
:102280008E0F80939802F0E0E958FD4F8081E9CFEE
:10229000E091980281E08E0F809398028091BB00BC
:1022A000F0E0E958FD4F8083909198028091970269
:1022B0009817C8F285E8D8CFE091980281E08E0F98
:1022C000809398028091BB00F0E0E958FD4F808335
:1022D00080919A0281115CCF81E08093750284EA3B
:1022E0008093BC0010929B0226CF85EC8093BC00AB
:1022F00010929B0280915202803230F4E09152029F
:10230000F0E0EE5CFD4F10826091520270E0E091CF
:102310003002F091310282E392E00995109252026C
:102320000ACF1092990234CF1F920F920FB60F92DC
:1023300011242F933F934F935F936F937F938F93CA
:102340009F93AF93BF93EF93FF9385ED92E00E942D
:102350007802FF91EF91BF91AF919F918F917F9103
:102360006F915F914F913F912F910F900FBE0F9002
:102370001F9018951F920F920FB60F9211242F9352
:102380008F939F93EF93FF93E091E502F091E60224
:102390008081E091EB02F091EC0282FD1BC0908104
:1023A0008091EE028F5F8F732091EF02821741F0D0
:1023B000E091EE02F0E0EB52FD4F958F8093EE023C
:1023C000FF91EF919F918F912F910F900FBE0F90E2
:1023D0001F9018958081F4CF1F920F920FB60F9225
:1023E00011242F933F934F935F936F937F938F931A
:1023F0009F93AF93BF93EF93FF93E0910201F0910E
:1024000003010995FF91EF91BF91AF919F918F913A
:102410007F916F915F914F913F912F910F900FBEE0
:102420000F901F9018951F920F920FB60F921124C4
:102430002F933F934F935F936F937F938F939F93CC
:10244000AF93BF93EF93FF93E0910001F0910101EF
:102450000995FF91EF91BF91AF919F918F917F91DE
:102460006F915F914F913F912F910F900FBE0F9001
:102470001F9018951F920F920FB60F9211242F9351
:102480003F938F939F93AF93BF938091C502909199
:10249000C602A091C702B091C80230916A0123E040
:1024A000230F2D3758F50196A11DB11D20936A0108
:1024B0008093C5029093C602A093C702B093C8024E
:1024C00080916B0190916C01A0916D01B0916E01B2
:1024D0000196A11DB11D80936B0190936C01A09397
:1024E0006D01B0936E01BF91AF919F918F913F911C
:1024F0002F910F900FBE0F901F90189526E8230F75
:102500000296A11DB11DD2CFE9ECF2E01382128236
:1025100088EE93E0A0E0B0E084839583A683B78340
:102520002EE031E031832083E5EDF2E01382128268
:1025300084839583A683B78380E291E0918380832F
:1025400085EC90E09587848784EC90E09787868778
:1025500080EC90E0918B808B81EC90E0938B828B70
:1025600082EC90E0958B848B86EC90E0978B868B49
:10257000118E128E138E148EE2E7F3E083E090E06A
:102580009183808385E090E0938382831482089511
:10259000CF93DF9300D000D0CDB7DEB7789484B569
:1025A000826084BD84B5816084BD85B5826085BD4F
:1025B00085B5816085BD80916E00816080936E00DD
:1025C00010928100809181008260809381008091CF
:1025D0008100816080938100809180008160809380
:1025E00080008091B10084608093B1008091B00040
:1025F00081608093B00080917A00846080937A003B
:1026000080917A00826080937A0080917A00816064
:1026100080937A0080917A00806880937A0010928B
:10262000C100E091E502F091E60282E08083E09152
:10263000E102F091E2021082E091E302F091E40203
:1026400080E180831092ED02E091E902F091EA02CC
:1026500086E08083E091E702F091E802808180616A
:102660008083E091E702F091E802808188608083B6
:10267000E091E702F091E802808180688083E09138
:10268000E702F091E80280818F7D808385ED92E002
:102690000E94020310927402109273021092A2021E
:1026A0001092C4020E94310481EC91E090932D02BB
:1026B00080932C0282EC91E090933102809330025F
:1026C00088E60E946A010E942A0624982C982C9879
:1026D000239A2B9A259A2D9861E087E00E94700436
:1026E00061E087E00E94030461E080E10E947004E1
:1026F00061E080E10E94030461E08FE00E947004C9
:1027000061E08FE00E94030462E084E10E947004B3
:1027100062E085E10E94700462E082E00E94700441
:1027200062E084E00E94700462E083E00E94700432
:1027300062E085E00E94700462E086E00E9470041E
:1027400062E088E00E94700462E089E00E94700408
:1027500062E08AE00E94700462E08EE00E947004F1
:1027600062E081E10E94700480E490E00E944307EF
:102770006091880190E080E00E944E108093880173
:102780006091050181E090E00E944E108093050168
:1027900060918A0182E090E00E944E1080938A014D
:1027A0006091890183E090E00E944E10809389013E
:1027B0006091900184E090E00E944E10809390011F
:1027C00060918F0185E090E00E944E1080938F0110
:1027D00060918E0186E090E00E944E1080938E0101
:1027E00060918D0187E090E00E944E1080938D01F2
:1027F00060918C0188E090E00E944E1080938C01E3
:1028000060918B0189E090E00E944E1080938B01D3
:10281000909188019093C20190918A019093C60192
:10282000909189019093C701909190019093D1016B
:1028300090918F019093D20190918E019093D3014A
:1028400090918D019093D50190918C019093D60138
:102850008093D701809105018093D4018BEC91E0A6
:102860000E94120A8DEA91E00E94120A8091720180
:10287000811105C060E08FEF0E94E50AF7CF8CE977
:1028800091E00E94E70284E080936F0162E082E0C1
:102890000E94700462E084E00E9470041092830140
:1028A0001092840183ED97E09093010180930001E1
:1028B000809169008C7F826080936900E89A81E34F
:1028C00091E00E94050A8EE291E00E94050A8EE8DE
:1028D00091E00E94E7020E94BA058093F30181E330
:1028E00091E00E94050A8EE291E00E94050A82E8CA
:1028F00091E00E94E7020E94E6099093F90180931B
:10290000F8010E94CA098093F7010E94AE098093E2
:1029100009010E94A009809308010E946C0980931C
:10292000F6010E9450098093F5010E9434098093BA
:10293000F4018BE190E00E94E30A82FB992790F971
:1029400021E0922790937101869581708093040114
:102950000E94A10D8DE791E00E94120A8091700102
:1029600081110AC083E691E00E94E7020E94410EB5
:102970008EE591E00E94120A8BE491E00E94120A17
:1029800060E080E10E940304412C512C3201439409
:1029900011E001E08FB7F894C090C502D090C60254
:1029A000E090C702F090C8028FBF809183019091A0
:1029B0008401891B87FD805F8823A1F180918301B9
:1029C00090918401891B87FD805F882391F0E091BD
:1029D000840180918301E81761F0EF5FE03108F036
:1029E000E0E0E0938401F0E0ED58FE4F808181113A
:1029F00001C08FEFA82EB12C80910A02811104C072
:102A000061E080E10E94030420EEA216B10409F007
:102A100055C20093DB0183E792E00E94E702C50103
:102A20000E949D0A0E945B0F86E00E949003BB24D7
:102A3000B394892B09F0B12CB092060288E00E9471
:102A4000900388248394892B09F0812C80920702BB
:102A500089E00E94900399249394892B09F0912C8A
:102A6000909208028AE00E949003AA24A394892BE2
:102A700009F0A12CA09209028EE00E949003332459
:102A80003394892B09F0312C3092040281E10E94A9
:102A9000900321E0892B09F020E02093050280912A
:102AA000FE01381215C08091FF01281311C08091DA
:102AB0000002B8120DC080910102881209C08091F5
:102AC0000202981205C080910302A81609F445C0BD
:102AD0003092FE012093FF01B09200028092010229
:102AE00090920202A09203028AE692E00E94E7021C
:102AF00086E692E00E94E7028B2D90E00E94200A79
:102B000082E692E00E94E7028091070290E00E9434
:102B1000200A8EE592E00E94E7028091080290E090
:102B20000E94200A8AE592E00E94E7028091090251
:102B300090E00E94200A86E592E00E94E7028091E0
:102B4000040290E00E94200A81E592E00E94E702E0
:102B50008091050290E00E949D0AE4E0F2E090E09E
:102B600080E060E0219153014201082E04C0880CEE
:102B7000991CAA1CBB1C0A94D2F7222311F40C94B2
:102B8000F91E682901968630910561F78DE00E9453
:102B9000E50A8091FA019091FB01A091FC01B091AE
:102BA000FD01A7019601281B390B4A0B5B0BDA01CB
:102BB000C901843F9140A105B10508F458C088E6D9
:102BC0000E946A0190E080E00E9436020E942A067C
:102BD0000E9458080E94870187FF21C08FE292E07F
:102BE0000E94120A88E60E946A0190E080E00E943A
:102BF00036020E942A060E9458080E948701B82EB9
:102C000088E60E946A0190E080E00E9436026B2D07
:102C10006F7789EC92E00E9407020E942A060E94C8
:102C2000E6099093F9018093F8010E94CA09809304
:102C3000F7010E94AE09809309010E94A0098093C8
:102C400008010E946C098093F6010E94500980934C
:102C5000F5010E9434098093F4010E94A10DC092F5
:102C6000FA01D092FB01E092FC01F092FD01A090EC
:102C70000601B09007011A141B04E4F58091F301DA
:102C8000811138C08091EF019091F001A091F10184
:102C9000B091F201A7019601281B390B4A0B5B0B7F
:102CA000DA01C901893E9340A105B10518F141E05F
:102CB000A41AB108B0920701A092060185E092E043
:102CC0000E94E702C5010E949D0A0E94BA05B82E23
:102CD0008093F30185EF91E00E94E7028B2D90E055
:102CE0000E949D0AC092EF01D092F001E092F101A2
:102CF000F092F2018091F301882309F474C080916D
:102D0000EB019091EC01A091ED01B091EE01A701D2
:102D10009601281B390B4A0B5B0BDA01C90185367A
:102D20009105A105B10508F45EC08BEE90E00E940C
:102D300029050E94D504A82E0E94D504B82E0E9411
:102D4000D504982E80917603882339F00E94D5040B
:102D5000482F880F550B5C834B839091EA01912794
:102D60009093EA01B092E9019092E8013A2D327015
:102D70002A2D24708B81A0FC02C00C94FD1E806162
:102D80008093E7018091E701332311F40C94001F35
:102D900080628093E7018091E701222311F40C9473
:102DA000031F80648093E7018091E701992311F468
:102DB0000C94061F80688093E7016B2D8AE00E94C7
:102DC000E50A6091E8018BE00E94E50A6091E70165
:102DD0008CE00E94E50AC092EB01D092EC01E092F7
:102DE000ED01F092EE0180910A02882359F1B09032
:102DF000E601BB2021F061E080E10E9403048091A4
:102E0000E2019091E301A091E401B091E501A701F5
:102E10009601281B390B4A0B5B0BDA01C90184367A
:102E20009105A105B10570F0C092E201D092E301D5
:102E3000E092E401F092E501B11004C060E080E1AD
:102E40000E9403048091E101882359F1B090E001D0
:102E5000BB2021F061E08FE00E9403048091DC013F
:102E60009091DD01A091DE01B091DF01A7019601F3
:102E7000281B390B4A0B5B0BDA01C901843691051B
:102E8000A105B10570F0C092DC01D092DD01E092A5
:102E9000DE01F092DF01B11004C060E08FE00E941B
:102EA000030480E090E0892B09F474CD0E94220392
:102EB000882309F46FCD0E9400006ACD31EEA3167D
:102EC000B10429F40093DB010093DA01A4CD6091F1
:102ED000D90140EFA416B10429F4611103C0009395
:102EE000D90199CD8091DB01811105C08091DA0172
:102EF000882309F4E0C080E091E08A0D9B1D1092C8
:102F0000D8016093C401292F21702093D00187FB41
:102F1000222720F92093CF0186FB222720F9209336
:102F2000CE0185FB222720F92093CD0184FB2227A7
:102F300020F92093CC0183FB222720F92093CB0199
:102F400082FB222720F92093CA0181FB222720F946
:102F50002093C901282F21702093C8018534910541
:102F600009F472C40CF0DBC18332910509F424C466
:102F70000CF05BC18E30910509F46BC50CF00DC1EE
:102F80008730910509F402C70CF0CBC0843091055D
:102F900009F4E6C50CF092C08130910509F4ACC685
:102FA000039709F43DC68091850190918601209197
:102FB000D801222309F412C7009709F00FC7109215
:102FC0009801809196018823C1F080919501882312
:102FD000A1F080919401882381F0109296011092C3
:102FE000950110929401109297011092D8011092BD
:102FF0008601109285010E94B50F80919601882369
:10300000C1F0809195018823A1F0809192018823DD
:1030100081F01092960110929501109292011092F7
:1030200097011092D80110928601109285010E949A
:103030009A0F809196018823A1F1809195018823B0
:1030400081F180919101882361F110929601109293
:10305000950110929101109297011092D80110924F
:1030600086011092850189E290E00E944307009357
:10307000C1010E945B0F0093A1010E945B0F64EFEE
:1030800071E080E090E00E9411071092C1010E945F
:103090005B0F64EF71E080E090E00E9411071092F6
:1030A000A1011092D9018091DA01882309F49DC60B
:1030B0001092DA01B0CC90E080E01FCF853091050E
:1030C00009F418C5069709F06ECF8091930181111C
:1030D0000AC080919601882309F43CC5809195012E
:1030E000882309F437C561115ECF009390011092D7
:1030F0008F0184E090E09A8389836AE0CE01019693
:103100000E94201060918F0185E090E00E943910AC
:10311000809190018093D10180918F018093D201A1
:1031200042CF8B30910509F49DC52CF5893091056E
:1031300009F404C60A9709F036CF809193018111F2
:103140000AC080919601882309F4D0C58091950129
:10315000882309F4CBC5611126CF60918B016127CB
:1031600060938B0189E090E00E94391080918B017F
:103170008093D70118CF8C30910509F421C50D97A4
:1031800009F011CF862F8127809398018093AD019C
:103190008DE090E00E944D0706CF8A31910509F439
:1031A0004FC334F58431910509F475C2B4F481310B
:1031B000910509F481C2429709F0F5CE809105018D
:1031C000882309F465C28FE090E0612788569E4FFE
:1031D000FC01608360939701E6CE8531910509F487
:1031E00017C3469709F0DFCE612760939B01DBCEC2
:1031F0008D31910509F41CC35CF48B31910509F400
:103200000BC34C9709F0CFCE612760939901CBCEC9
:103210008132910509F4CCC20CF00EC34E9709F02F
:10322000C2CE61276093A301BECE8333910509F41A
:10323000D3C2DCF58B32910509F4C6C2DCF48632C8
:10324000910509F405C35CF48432910509F4B8C210
:10325000859709F0A8CE61276093B301A4CE893287
:10326000910509F4A1C28A9709F09DCE6127609368
:10327000B80199CE8E32910509F4EEC25CF48C321D
:10328000910509F4CDC28D9709F08DCE6127609329
:10329000B20189CE8133910509F4B2C2C29709F017
:1032A00082CE61276093BF017ECE8C33910509F4F5
:1032B000BBC2DCF48633910509F4D2C25CF48433DA
:1032C000910509F485C2C59709F06DCE6127609319
:1032D000BD0169CE8A33910509F48EC2CB9709F0FE
:1032E00062CE61276093B6015ECE8134910509F408
:1032F000DFC25CF48D33910509F4B6C2CE9709F0B4
:1033000052CE61276093AC014ECE8334910509F40F
:1033100067C20CF469C261276093A50144CE85376A
:10332000910509F4BDC20CF0D4C08935910509F4AA
:1033300045CF0CF086C08D34910509F465C20CF0C0
:1033400047C08A34910509F410C30CF58634910501
:1033500009F48EC28934910509F025CE362F312724
:103360003093A7012091970182E290E0211102C0E1
:1033700087E190E088569E4FFC013083662321F060
:103380001092BA011092AF012093D8010CCE8B3469
:10339000910509F42DC28C34910509F004CE362F25
:1033A00031273093A7012091970188E090E0211107
:1033B00002C08DE090E088569E4FFC01308366236A
:1033C00021F01092A0011092A5012093D801EBCD1D
:1033D0008435910509F485C20CF58E34910509F404
:1033E0001FC38235910509F0DECD362F312730938A
:1033F000A7012091970185E090E0211102C08CE1A6
:1034000090E088569E4FFC013083662321F0109295
:103410009D011092B4012093D801C5CD8535910549
:1034200009F4E5C28835910509F0BDCD862F8127C5
:103430008093A7018093980188E590E00E944D0752
:10344000B2CD8B36910509F41FC244F58D35910537
:1034500009F4A4C2BCF48A35910509F4D3C08B35B4
:10346000910509F0A0CD80910501811165C261111E
:103470009ACD80919701882309F45CC281E20E9471
:10348000D00F91CD8636910509F481C18936910519
:1034900009F089CD612760939B0185CD8137910526
:1034A00009F45CCF64F48C36910509F4F5C18037DA
:1034B000910509F078CD612760939C0174CD833725
:1034C000910509F4E5C10CF4D7C161276093BC01F3
:1034D0006ACD8F3251E0950709F418C10CF07DC018
:1034E0008C37910509F4CCC2CCF58937910509F4E4
:1034F000CDC234F58637910509F431C1883791057D
:1035000009F051CD8091930181110AC080919601FB
:10351000882309F435C480919501882309F430C4C7
:10352000611141CD6091880161276093880190E02D
:1035300080E00E943910809188018093C20133CDD0
:103540008A37910509F49CC18B37910509F02BCD81
:1035500061276093A7016093B60125CD833891055B
:1035600009F4A2C39CF48D37910509F49DC18E37EF
:10357000910509F018CD662309F415CD80918701D6
:103580008127809387018093C5010DCD8231F1E0C1
:103590009F0709F412C4843121E0920709F47BC02B
:1035A0008131914009F0FFCC962E91269092A7018F
:1035B0002091050187E090E0211102C090E080E0B9
:1035C00088569E4FFC019082211104C081E191E058
:1035D0000E944D0790929501E6CC803741E0940718
:1035E00009F498C014F58936E1E09E0709F47CC21D
:1035F0006CF48A3421E0920709F4B7C18A3591400E
:1036000009F0D1CC612760939E01CDCC8B3641E08F
:10361000940709F48EC08C36914009F0C4CC612720
:103620006093AE016093C001BECC8437E1E09E0799
:1036300009F48AC0A4F4813721E0920709F455C047
:103640008237914009F0AFCC862F81278093980173
:103650008093BC0182E791E00E944D07A4CC8A3799
:1036600041E0940709F42CC28D3751E0950709F425
:1036700013C28537914009F096CC862F812780931D
:1036800098018093B40185E791E00E944D078BCCAF
:1036900090E080E09ACD80910501882351F090E080
:1036A00080E0612788569E4FFC01608360939601FD
:1036B0007ACC8FE090E0F5CF962E91269092A701DC
:1036C0002091050186E090E0211102C090E080E0A9
:1036D00088569E4FFC019082211104C081E190E048
:1036E0000E944D07909295015ECC61278091050163
:1036F000882339F060939D016093C0016093940129
:1037000052CC6093A7016093B001F8CF612760931A
:10371000930149CC612780910501882329F06093AA
:10372000A5016093C0013FCC6093A701609399010C
:103730003ACC862F8127809398018093BB018BE63A
:1037400091E00E944D072FCC862F8127809398010E
:103750008093AC0184E791E00E944D0724CC962E23
:1037600091269092980180910501882369F083E069
:1037700090E088569E4FFC01908286E790E00E9480
:103780004D07909292010FCC87E090E0F2CF962EF9
:1037900091269092980190929C0186E690E00E947A
:1037A0004D0790929101FFCB612760939F01FBCB66
:1037B00061276093B001F7CB61276093A901F3CB38
:1037C00061276093AA01EFCB61276093B101EBCB36
:1037D00061276093B901E7CB61276093BE01E3CB1A
:1037E00061276093AD01DFCB61276093AE01DBCB36
:1037F00061276093A601D7CB61276093AF01D3CB3C
:1038000061276093B701CFCB612760939D01CBCB3C
:10381000612760939A01C7CB61276093A101C3CB55
:1038200061276093BA01BFCB61276093B501BBCB21
:1038300061276093A201B7CB61276093A801B3CB46
:1038400061276093A001AFCB612760939C01ABCB54
:1038500061276093AB01A7CB61276093BB01A3CB2A
:1038600061276093BC019FCB61276093B4019BCB20
:1038700061276093A40197CB61276093A30193CB49
:1038800061276093AB018FCB61276093B3018BCB32
:1038900061276093BB0187CB61276093B40183CB21
:1038A00061276093AC017FCB61276093A4017BCB40
:1038B000362F31273093A701209197018AE190E0BC
:1038C000211102C08FE190E088569E4FFC013083A9
:1038D000662321F01092B2011092B7012093D80113
:1038E00062CB8091050181110CC061115CCB80918C
:1038F0009701882321F089E10E94D00F54CB85E203
:10390000FBCF262F21272093A701809197018823A1
:1039100071F089E190E088569E4FFC012083662378
:1039200009F441CB1092B1011092BD013CCB85E26C
:1039300090E0F1CF8DE1A3CD262F21272093A70181
:1039400080919701882371F081E290E088569E4F24
:10395000FC012083662309F426CB1092B901109252
:10396000B50121CB8DE190E0F1CF362F3127309397
:10397000A7012091970188E190E0211102C080E227
:1039800090E088569E4FFC013083662321F0109210
:10399000B0011092B8012093D80105CB80910501A8
:1039A00081110CC06111FFCA80919701882321F019
:1039B00089E00E94D00FF7CA81E1FBCF262F212793
:1039C0002093A70180919701882371F089E090E00E
:1039D00088569E4FFC012083662309F4E4CA1092A6
:1039E000A1011092A901DFCA81E190E0F1CF362F49
:1039F00031273093A7012091970186E190E02111B2
:103A000002C08EE090E088569E4FFC013083662312
:103A100021F01092AE011092A6012093D801C3CAE2
:103A2000362F31273093A7012091970184E090E051
:103A3000211102C08EE190E088569E4FFC01308338
:103A4000662321F010929C011092B6012093D801B8
:103A5000AACA80919701882329F0611103C081E0EF
:103A60000E94D00F90919701911107C08091D901C8
:103A700081278093A7018093A8019093D80193CACE
:103A800061276093A7016093BF018DCA612760938E
:103A9000A7016093AE0187CA862F81279091050107
:103AA000992329F08093AF018093C0017CCA809351
:103AB00098018093AB018DE791E00E944D0773CA96
:103AC000862F812790910501992329F08093B701D2
:103AD0008093C00168CA809398018093B3018AE7FC
:103AE00091E00E944D075FCA61276093A601609331
:103AF000C00159CA80919301811108C0809196013B
:103B0000882311F1809195018823F1F061114BCA4E
:103B10001092900110928F0184E090E09A83898343
:103B200064E1CE0101960E94201060918F0185E032
:103B300090E00E943910809190018093D101809192
:103B40008F018093D2012FCA6127609399016093FE
:103B5000C00129CA61276093BF016093C00123CAD5
:103B600080919301811108C080919601882311F101
:103B7000809195018823F1F0611115CA109290018E
:103B800000938F0184E090E09A83898364E1CE0101
:103B900001960E94201060918F0185E090E00E94C4
:103BA0003910809190018093D10180918F01809391
:103BB000D201F9C961276093B0016093C001F3C9D4
:103BC00080919301811108C080919601882311F1A1
:103BD000809195018823F1F06111E5C9009390016E
:103BE00000938F0184E090E09A8389836AE0CE019C
:103BF00001960E94201060918F0185E090E00E9464
:103C00003910809190018093D10180918F01809330
:103C1000D201C9C961276093A9016093C001C3C9DA
:103C200080919301811108C0809196018823A1F0B1
:103C300080919501882381F06111B5C960918E0151
:103C4000612760938E0186E090E00E943910809198
:103C50008E018093D301A7C961276093AA01609365
:103C6000C001A1C980919301811108C08091960182
:103C70008823A1F080919501882381F0611193C977
:103C800060918D01612760938D0187E090E00E9433
:103C9000391080918D018093D50185C9612760938A
:103CA000B1016093C0017FC980919301811108C067
:103CB000809196018823A1F080919501882381F05D
:103CC000611171C960918C01612760938C0188E05A
:103CD00090E00E94391080918C018093D60163C9D5
:103CE00061276093B9016093C0015DC9612760934A
:103CF000BE016093C00157C980919301811108C032
:103D0000809196018823A1F080919501882381F00C
:103D1000611149C960918A01612760938A0182E03B
:103D200090E00E94391080918A018093C6013BC9BE
:103D300061276093AD016093C00135C98091930103
:103D4000811108C0809196018823A1F0809195018E
:103D5000882381F0611127C96091890161276093EF
:103D6000890183E090E00E9439108091890180935D
:103D7000C70119C961276093B6016093C00113C9D7
:103D8000612760939A016093A7010DC98091930107
:103D9000811108C080919601882349F08091950196
:103DA000882329F06111FFC80E949A0FFCC861277F
:103DB0006093A2016093A701F6C8662309F4F3C8D3
:103DC0006091050161276093050181E090E00E9408
:103DD0003910809105018093D401E5C818161906A1
:103DE0000CF0EFC800939801ECC81092DB010C9422
:103DF0000B15809468210C94C2158F7E0C94C0160C
:103E00008F7D0C94C9168F7B0C94D2168F770C94EF
:103E1000DB16F8940C947E1FAA1BBB1B51E107C054
:103E2000AA1FBB1FA617B70710F0A61BB70B881F4A
:103E3000991F5A95A9F780959095BC01CD010895D9
:103E400097FB072E16F4009407D077FD09D00E9447
:103E50000C1F07FC05D03EF4909581959F4F089567
:103E6000709561957F4F0895A1E21A2EAA1BBB1B86
:103E7000FD010DC0AA1FBB1FEE1FFF1FA217B30736
:103E8000E407F50720F0A21BB30BE40BF50B661F4C
:103E9000771F881F991F1A9469F760957095809510
:103EA00090959B01AC01BD01CF010895F999FECF1A
:103EB00092BD81BDF89A992780B50895262FF9996A
:103EC000FECF1FBA92BD81BD20BD0FB6F894FA9AFD
:103ED000F99A0FBE01960895991B79E004C0991FC5
:103EE000961708F0961B881F7A95C9F78095089554
:103EF000EE0FFF1F0590F491E02D0994F894FFCF89
:103F000066036603010102000101000000000702D0
:103F1000DA016303C301D3017401C401000000008E
:103F20009A0236033B0202036C024A025E020D0A49
:063F300000646F6E6500E5
:00000001FF
