:100000000C94FC000C94660E0C943F0E0C9424018E
:100010000C9424010C9424010C9424010C942401CC
:100020000C9424010C9424010C9424010C942401BC
:100030000C9424010C9424010C9424010C942401AC
:100040000C94F50D0C9424010C94C30D0C949D0D8F
:100050000C9424010C9424010C9424010C9424018C
:100060000C948D0E0C942401646F6E650052544301
:1000700020696E697420726571756573742E2E2EF9
:1000800000556E6B6E6F776E005265762E43005290
:1000900065762E41207769746820544441313534A7
:1000A000334120444143005265762E4120776974E4
:1000B0006820544441313534332044414300465094
:1000C000474120626F617264207265766973696F5F
:1000D0006E2069733A2000646F6E65004650474198
:1000E00020696E697420726571756573742E2E2E89
:1000F0000000000000250028002B00000000002365
:10010000002600290000000008000201000003048E
:10011000070000000000000000000000002400278D
:10012000002A000102040810204080010204081087
:10013000200102040810200404040404040404023E
:100140000202020202030303030303537461727485
:10015000696E67206D61696E206C6F6F7000646FEF
:100160006E65005254432073656E6420616C6C2090
:100170007265676973746572732E2E2E00646F6EDC
:10018000650052544320696E69742E2E2E004D6F07
:1001900075736520696E69742E2E2E004B65796229
:1001A0006F61726420696E69742E2E2E005761692A
:1001B00074696E6720666F72204650474120696EF1
:1001C00069742072657175657374005A58204B65A7
:1001D00079626F617264202F206D6F757365202FB7
:1001E0002072746320636F6E74726F6C6C65722022
:1001F00076312E300000AC0F11241FBECFEFD8E0B7
:10020000DEBFCDBF23E0A6E3B1E001C01D92AF3653
:10021000B207E1F711E0A0E0B1E0E6E0F8E302C0E8
:1002200005900D92A633B107D9F710E0CCEFD0E0DE
:1002300004C02197FE010E94FB1BCB3FD107C9F7E9
:100240000E94F60F0C94011C0C9400002091BA023D
:1002500081E0213208F044C0809196028111FCCFE8
:100260008091B90292E09093960291E0909395026A
:100270009FEF909394021092930220939202A9E927
:10028000B2E0E2E7F2E090E0291331C0109271028F
:1002900090917102880F892B809371028091700276
:1002A000813049F510927002809171028093BB00F9
:1002B0008091BC0083FDF8CF85EC8093BC008091D9
:1002C00096028230E1F3809194028F3FB1F08091E9
:1002D00094028032A1F080919402803391F084E006
:1002E000109298021092BA021092970208953D91CE
:1002F00031939F5FC9CF85EEE0CF80E0F1CF82E000
:10030000EFCF83E0EDCF91E0909397028093B90215
:10031000109298021092BA02089590916F02809103
:100320006E022FEF3FEF981748F4E92FF0E0E25B01
:10033000FD4F208130E09F5F90936F02C9010895C7
:1003400090916F0280916E022FEF3FEF981748F463
:10035000E92FF0E0E25BFD4F208130E09F5F90935A
:100360006F02C901089508950895AF92BF92CF9288
:10037000DF92EF92FF920F931F93CF93DF936C0165
:100380007B018B01040F151FEB015E01AE18BF0846
:10039000C017D10759F06991D601ED91FC910190F8
:1003A000F081E02DC6010995892B79F7C501DF9110
:1003B000CF911F910F91FF90EF90DF90CF90BF9062
:1003C000AF900895FC01538D448D252F30E0842F8C
:1003D00090E0821B930B541710F0CF96089501976D
:1003E0000895FC01918D828D981761F0A28DAE0F5A
:1003F000BF2FB11D5D968C91928D9F5F9F73928FE1
:1004000090E008958FEF9FEF0895FC01918D828D0C
:10041000981731F0828DE80FF11D858D90E00895D9
:100420008FEF9FEF0895FC01918D228D892F90E031
:10043000805C9F4F821B91098F73992708958FEBE2
:1004400092E00E94130221E0892B09F420E0822F20
:10045000089580E090E0892B29F00E941F0281110D
:100460000C9400000895FC01A48DA80FB92FB11DB4
:10047000A35ABF4F2C91848D90E001968F739927DA
:10048000848FA689B7892C93A089B1898C918370B8
:1004900080648C93938D848D981306C00288F389B1
:1004A000E02D80818F7D80830895EF92FF920F93DE
:1004B0001F93CF93DF93EC0181E0888F9B8D8C8D10
:1004C00098131AC0E889F989808185FF15C09FB704
:1004D000F894EE89FF896083E889F98980818370C7
:1004E000806480839FBF81E090E0DF91CF911F9176
:1004F0000F91FF90EF900895F62E0B8D10E00F5F97
:100500001F4F0F731127E02E8C8D8E110CC00FB66C
:1005100007FCFACFE889F989808185FFF5CFCE0104
:100520000E943302F1CFEB8DEC0FFD2FF11DE35A4A
:10053000FF4FF0829FB7F8940B8FEA89FB89808187
:100540008062CFCF0F931F93CF93DF938C01D0E0C6
:10055000C0E0F801EC0FFD1F6491662341F08FEBC2
:1005600092E00E945502892B11F02196F2CFCE0124
:10057000DF91CF911F910F910895CF93DF93EC01FD
:10058000888D8823B9F0AA89BB89E889F9898C917B
:1005900085FD03C0808186FD0DC00FB607FCF7CF37
:1005A0008C9185FFF2CF808185FFEDCFCE010E9437
:1005B0003302E9CFDF91CF910895833081F028F4A1
:1005C000813099F08230A9F008958730A9F0883001
:1005D000C9F08430B1F4809180008F7D03C0809198
:1005E00080008F7780938000089584B58F7784BDD5
:1005F000089584B58F7DFBCF8091B0008F77809375
:10060000B00008958091B0008F7DF9CFCF93DF9334
:10061000282F30E0F901EB5FFE4F8491F901ED5D89
:10062000FE4FD491F901E95CFE4FC491CC23A1F0B7
:1006300081110E94DD02EC2FF0E0EE0FFF1FE5506C
:10064000FF4FA591B491EC91ED2381E090E009F486
:1006500080E0DF91CF91089580E090E0FACFCF92D3
:10066000DF92EF92FF92CF93DF93EC018FB7F89474
:10067000C090BB02D090BC02E090BD02F090BE02E0
:100680008FBF2FB7F8948091BB029091BC02A091CC
:10069000BD02B091BE022FBF8C199D09AE09BF09E2
:1006A000883E9340A105B10578F480916A030E94C9
:1006B00006038C179D0729F781E0DF91CF91FF900A
:1006C000EF90DF90CF90089580E0F7CFCF93DF9346
:1006D00090E080E00E942F0380916C030E9406034B
:1006E000EC0181E090E00E942F03CE01DF91CF91D9
:1006F00008951F93CF93DF93282F30E0F901EB5F2C
:10070000FE4F8491F901ED5DFE4FD491F901E95C52
:10071000FE4FC491CC23A9F0162F81110E94DD0257
:10072000EC2FF0E0EE0FFF1FEF50FF4FA591B491BB
:100730008FB7F894EC91111108C0D095DE23DC93AB
:100740008FBFDF91CF911F910895DE2BF8CFCF930C
:10075000DF9390E0FC01ED5DFE4F2491895C9E4F9C
:10076000FC0184918823C9F090E0880F991FFC0157
:10077000E75EFE4FA591B491FC01EF50FF4FC5918C
:10078000D49161110DC09FB7F8948C91209582236C
:100790008C938881282328839FBFDF91CF91089570
:1007A000623051F49FB7F8943C91822F8095832357
:1007B0008C93E8812E2BEFCF8FB7F894EC912E2BF2
:1007C0002C938FBFEACFCF93C82F61E00E94A7037D
:1007D00060E08C2FCF910C947903CF93C82F60E009
:1007E0000E94A70361E08C2FCF910C947903CF92E4
:1007F000DF92EF92FF920F931F93CF9380916A0342
:1008000090916B030E94ED0380916C0390916D03B6
:100810000E94ED0383EC90E00197F1F790E080E017
:100820000E942F038FE090E00197F1F781E090E0C4
:100830000E942F03C0E010E000E0C12CD12C760113
:10084000C3940E946603B701A601002E04C0440FA2
:10085000551F661F771F0A94D2F7892BC9F0C42B46
:100860000F5F1F4F0830110561F70E9466030E9459
:10087000660380916A0390916B030E94E3038C2FBF
:10088000CF911F910F91FF90EF90DF90CF9008953F
:100890004095C423E5CF20916C0330916D030197FF
:1008A00059F4C9010E94ED0381E090E00E942F03FA
:1008B00090E080E00C942F03C9010E94E303F4CF81
:1008C000BF92CF92DF92EF92FF920F931F93CF933D
:1008D000DF93C82E80916C0390916D030E94ED030D
:1008E00080916A0390916B030E94ED03CBEAD4E000
:1008F000CE010197F1F780916A0390916B030E94FA
:10090000E3032197F1F780916C0390916D030E94AE
:10091000E30383E290E00197F1F780916A039091FD
:100920006B030E94ED0390E080E00E942F03B82E3D
:10093000882309F43FC0EE24E394F12CD0E0C0E01A
:100940000C2C000CDD0886010C2E02C015950795B5
:100950000A94E2F701701127C8010E944B04E026B7
:10096000F1262196C830D10571F7C7010E944B04CA
:1009700080916C0390916D030E94ED0383EC90E0F5
:100980000197F1F790E080E00E942F0380916A03C5
:100990000E940603892BD1F380916C030E94060309
:1009A000892BA1F380916A0390916B030E94E3036A
:1009B0000E94F7038B2DDF91CF911F910F91FF9034
:1009C000EF90DF90CF90BF900895CF93DF93EC012D
:1009D00083EF90E00E946004CE01DF91CF910C94F0
:1009E0006004CF9380916A0390916B030E94ED03A2
:1009F00080916C0390916D030E94ED038FEF90E066
:100A00000E946004C82F8823A1F10E94F7030E946E
:100A1000F70388EC90E00E94E50484E690E00E94F1
:100A2000E50480E590E00E94E50482EF90E00E94FA
:100A300060040E94F70391E0833009F090E0909306
:100A40006E0388EE90E00E94600483E090E00E94D4
:100A5000600486EE90E00E94600488E290E00E94CC
:100A6000E50480EF90E00E9460048BE891E001973C
:100A7000F1F78C2FCF9108953FB7F8948091AE0194
:100A80009091AF01A091B001B091B10126B5A89BA2
:100A900005C02F3F19F00196A11DB11D3FBFBA2F10
:100AA000A92F982F8827BC01CD01620F711D811DD0
:100AB000911D42E0660F771F881F991F4A95D1F755
:100AC00008958F929F92AF92BF92CF92DF92EF9252
:100AD000FF924B015C010E943C056B017C010E946E
:100AE0003C056C197D098E099F09683E734081059C
:100AF0009105A8F321E0821A9108A108B10888EEB7
:100B0000C80E83E0D81EE11CF11C81149104A104DD
:100B1000B10429F7FF90EF90DF90CF90BF90AF9096
:100B20009F908F900895089585ED8093BC008091EB
:100B3000BC0084FDFCCF10929602089520918A019A
:100B4000260F3327331F21323105ECF42091960212
:100B5000FC0190E080E0243069F082E00895A091EB
:100B60008A012191AC0146595E4FA40FB52FB11DEA
:100B70002C930196861798F380918A01680F6093F1
:100B80008A0180E0089581E008950895E0916F0260
:100B900080916E02E81730F4F0E0E25BFD4F808157
:100BA00090E008958FEF9FEF089580916E029091ED
:100BB0006F02891B990B0895CF92DF92EF92FF92FB
:100BC0000F931F93CF93DF937C01CB018A01209178
:100BD0009702222389F0EB016B01C40ED51ECC15C0
:100BE000DD0569F06991D701ED91FC910190F081EB
:100BF000E02DC7010995F3CF642F0E949E05C8011F
:100C0000DF91CF911F910F91FF90EF90DF90CF90E8
:100C10000895CF93DF931F92CDB7DEB769832091FC
:100C200097022223F9F02091BA02203258F021E0F5
:100C300030E0FC013383228390E080E00F90DF916D
:100C4000CF91089580919802E82FF0E0E756FD4F8C
:100C5000998190838F5F809398028093BA0281E09C
:100C600090E0ECCF61E0CE0101960E949E05F7CFA7
:100C7000682F8CE593E00C94090690E080E00895DD
:100C8000CF92DF92EF92FF920F931F938091B70163
:100C90000E9406039FB7F8944091BB025091BC029A
:100CA0006091BD027091BE029FBF009166011091DC
:100CB000670120916801309169016A017B01C01AC6
:100CC000D10AE20AF30A970186010B3F11052105BB
:100CD000310510F010926501409366015093670151
:100CE0006093680170936901909165019F5F909393
:100CF00065019A3038F4923060F59130F9F0109235
:100D0000650120C09A30A9F19B30C9F78091630139
:100D10008D3FA8F78091CB018F5F803108F080E094
:100D20009091CC01981759F3E82FF0E0909164016D
:100D3000E554FE4F90838093CB01E1CF1092640184
:100D4000109263011F910F91FF90EF90DF90CF9071
:100D5000089590916301980F90936301209164012D
:100D600030E035952795811180E8282B2093640188
:100D7000E9CF909163019170981719F090936301F6
:100D8000E1CF8DEF80936301DDCFEDEDF1E01192C6
:100D90009F012D5D314028173907CCF30895CF927C
:100DA000DF92EF92FF920F931F93CF93DF93CDB714
:100DB000DEB7A8970FB6F894DEBF0FBECDBF209167
:100DC000CD013091CE01611133C012161306A4F487
:100DD000E6E3F1E050E040E0A191B1918A179B0772
:100DE00009F461E04F5F5F4F42175307A9F76111A4
:100DF00010C02431310569F0F901EE0FFF1FEA5CE4
:100E0000FE4F918380832F5F3F4F3093CE0120931D
:100E1000CD01A8960FB6F894DEBF0FBECDBFDF910F
:100E2000CF911F910F91FF90EF90DF90CF90089599
:100E3000FE01319648E2DF011D924A95E9F712164C
:100E4000130684F506E311E0780150E040E070E01D
:100E500060E0D701CD90DD907D018C159D0549F0B6
:100E6000DA01AA0FBB1FAE0FBF1FCD92DC924F5FFE
:100E70005F4F6F5F7F4F6217730759F74115510539
:100E800089F090E080E021913191D8012D933D933C
:100E90008D01019684179507B1F75093CE014093C9
:100EA000CD01B7CF50E040E0F8CF8091960281119C
:100EB000FCCF81E080939602809395029FEF909300
:100EC0009402109293021092920280937102809188
:100ED0007102806D8093710280917002813021F5E2
:100EE00010927002809171028093BB008091BC00CF
:100EF00083FDF8CF85EC8093BC0080919602813011
:100F0000E1F38091930291E0811102C090919302EC
:100F1000A2E7B2E0EEE4F2E080E0891307C01092AD
:100F20006F0280936E02089585EEE5CF2D91219397
:100F30008F5FF3CF88E60E94830182E090E00E94F9
:100F400038060E9426010E9455070E94A00126E053
:100F5000969587952A95E1F78170089588E60E9415
:100F6000830190E080E00E9438060E9426010E94E2
:100F700055070E94A0018F77282F30E094E0359527
:100F800027959A95E1F7922F990F990F291B220F18
:100F9000820F089588E60E94830181E090E00E941C
:100FA00038060E9426010E9455070E94A0019C015C
:100FB00094E0359527959A95E1F72F703327922F76
:100FC000990F990F291B220F820F0895CF930E942A
:100FD0009A07C82F88E60E94830182E090E00E9471
:100FE00038060E9426010E9455070E94A001C111E7
:100FF00010C0AC0194E0559547959A95E1F74F7074
:101000005527942F990F990F491B440F840FCF91A7
:101010000895482F4F79242F30E084E035952795A7
:101020008A95E1F7822F880F880F922F981B892FBE
:10103000880FECCF88E60E94830183E090E00E9455
:1010400038060E9426010E9455070E94A0010895BB
:1010500088E60E94830184E090E00E9438060E94A6
:1010600026010E9455070E94A0019C0194E035953D
:1010700027959A95E1F72F703327922F990F990FA3
:10108000291B220F820F089588E60E94830185E0C4
:1010900090E00E9438060E9426010E9455070E9497
:1010A000A0019C0194E0359527959A95E1F72F7062
:1010B0003327922F990F990F291B220F820F089522
:1010C00088E60E94830186E090E00E9438060E9434
:1010D00026010E9455070E94A0019C0194E03595CD
:1010E00027959A95E1F72F703327922F990F990F33
:1010F000291B220F820F90E08053984F089542E001
:1011000050E06EE271E08FEB92E00C94B501CF936A
:10111000DF930E94A202EC010E947F088C0F9D1FAA
:10112000DF91CF910895CF93DF9344E050E061E3E6
:1011300071E08FEB92E00E94B501EC010E947F0804
:101140008C0F9D1FDF91CF9108950C94B11BCF930D
:10115000DF93D82FC62F90916803809169039CBDBF
:101160008DBD60E087E00E947903DEBD00000DB414
:1011700007FEFDCFDEB5CEBD00000DB407FEFDCFEE
:10118000CEB561E087E00E947903DD2309F4BEC09B
:10119000DD3F59F58091BA018111B8C08CED90E026
:1011A0000E94A20281E08093BA010E94830C0E94F7
:1011B000690B0E94DD0C87ED90E00E9487088EEBA2
:1011C00090E00E94A2028FE890E0C13051F087EADF
:1011D00090E0C13030F089E890E0C23011F081E851
:1011E00090E0DF91CF910C948708DC3F09F03AC082
:1011F0008091B80181118AC08DE690E00E94A20220
:1012000081E08093B8010E94690B88E690E00E941B
:101210008708D058D03408F079C080915F01D81386
:1012200005C080915E01C81709F470C0D0935F01BA
:10123000C0935E018D2F90E0DE3008F0A7C18C5D79
:10124000964FFC010C94FB1B480973098909A209FC
:10125000B6091E0A320A4E0A670A800AAE0AB60AA0
:1012600086098609DE30A9F68C2F817080932B02C7
:10127000C1FB882780F980932502C2FB882780F96B
:1012800080934902C3FB882780F980932602C1CF4F
:101290008091B901882369F08C2F90E0B4E0959596
:1012A0008795BA95E1F7982F990F990F891B880FA9
:1012B000C80FC093390288E60E94830190E080E065
:1012C0000E9438060E9426010E9455070E94A00134
:1012D0008078C82B88E60E94830190E080E00E941D
:1012E00038068C2F80C08091B901882369F08C2F3B
:1012F00090E0A4E095958795AA95E1F7982F990F2E
:10130000990F891B880FC80FC0936201DF91CF919D
:1013100008958091B901882369F08C2F90E0F4E062
:1013200095958795FA95E1F7982F990F990F891B55
:10133000880FC80FC0933A0288E60E94830181E0BB
:1013400090E0CDCF8091B901882369F08C2F90E097
:10135000E4E095958795EA95E1F7982F990F990F15
:10136000891B880FC80FC0936101D0CF8091B9014C
:10137000882369F08C2F90E074E0959587957A9595
:10138000E1F7982F990F990F891B880FC80FC09309
:101390003B0288E60E94830182E090E00E943806CA
:1013A0000E9426010E9455070E94A001D82F88E6BE
:1013B0000E94830182E090E00E9438066D2F6F7BCF
:1013C0008CE593E00E9409060E9426010E949A077C
:1013D000D82F88E60E94830182E090E00E943806C0
:1013E0008C2FD11109C06AE00E94EF1B682F660F95
:1013F000680F660F6C0F10C0CD30B0F06CE00E942B
:10140000EF1B292F892F6AE00E94EF1B682F660FC0
:10141000680F660F620F60668CE593E00E94090614
:10142000DF91CF910C9426016AE00E94EF1B682F98
:10143000660F680F660F6C0F6064EECF8091B90184
:10144000882369F08C2F90E064E0959587956A95E4
:10145000E1F7982F990F990F891B880FC80FC09338
:10146000600154CF8091B901882369F08C2F90E0FE
:1014700054E0959587955A95E1F7982F990F990F14
:10148000891B880FC80FC093080188E60E9483015A
:1014900083E090E00E9438066C2FBECF8091B901A6
:1014A000882369F08C2F90E044E0959587954A95C4
:1014B000E1F7982F990F990F891B880FC80FC093D8
:1014C000090188E60E94830184E090E008CF8091C2
:1014D000B901882369F08C2F90E034E095958795C9
:1014E0003A95E1F7982F990F990F891B880FC80F2C
:1014F000C0933C0288E60E94830185E090E0EFCE35
:101500008091B901882369F08C2F90E024E09595B3
:1015100087952A95E1F7982F990F990F891B880FC6
:10152000C80FD0E0C053D84FD0933E02C0933D02C5
:1015300088E60E94830186E090E00E943806CE0192
:1015400064E670E00E94C71B282F6AE00E94EF1B30
:10155000682F660F680F660F620F5ECF6C2F6F7774
:101560008AE190E0DF91CF910C94B91BC2FB8827F0
:1015700080F991E089278093B901C1FB882780F920
:10158000809304016C2F8BE190E0ECCF6C2F4096A0
:10159000E9CF209139028091B901882349F0822F47
:1015A0006AE00E94EF1B982F990F890F880F280F70
:1015B000622F80E40E94A7088091B90120913A022D
:1015C000622F882349F0822F6AE00E94EF1B682F68
:1015D000660F680F660F620F82E40E94A708909161
:1015E00004018091B90120913B02992309F462C062
:1015F000882349F0822F6AE00E94EF1B982F990FF1
:10160000890F880F280F622F84E40E94A708809119
:10161000B90120910801622F882349F0822F6AE0E6
:101620000E94EF1B682F660F680F660F620F86E43B
:101630000E94A7088091B90120910901622F882397
:1016400049F0822F6AE00E94EF1B682F660F680F37
:10165000660F620F87E40E94A7088091B90120916C
:101660003C02622F882349F0822F6AE00E94EF1B20
:10167000682F660F680F660F620F88E40E94A70844
:101680002091B90180913D0290913E0264E670E0A4
:101690000E94DB1B682F222351F0282F862F6AE03F
:1016A0000E94EF1B682F660F680F660F620F89E4B8
:1016B0000C94A708882329F02D3008F49BCF2CE840
:1016C00099CF2D3008F49FCF2CE89DCF805C0C94EF
:1016D000A7080F931F93CF93DF93D0E0C0E004E6F9
:1016E00010E0CE3008F008C1EC2FF0E0E658F44FDF
:1016F0000C94FB1B880BA40BB60BC80BDA0BFA0B74
:101700001A0C2C0C3E0C500C670C6F0C760C790CE0
:10171000209139028091B901882349F0822F6AE033
:101720000E94EF1B982F990F890F880F280F622FA7
:1017300080E00E94660B2196C034D10591F6DF91BE
:10174000CF911F910F910895209162018091B9016D
:10175000882349F0822F6AE00E94EF1B982F990F8F
:10176000890F880F280F622F81E0E3CF20913A0282
:101770008091B901882349F0822F6AE00E94EF1B13
:10178000982F990F890F880F280F622F82E0D1CFF1
:10179000209161018091B901882349F0822F6AE08C
:1017A0000E94EF1B982F990F890F880F280F622F27
:1017B00083E0BFCF8091B90120913B029091040159
:1017C000992371F0882349F0822F6AE00E94EF1B71
:1017D000982F990F890F880F280F622F84E0A9CFC7
:1017E000882321F02D3080F32CE8EECF2D30A8F3A4
:1017F0002CE8F3CF8091B901209160019091040110
:10180000992371F0882349F0822F6AE00E94EF1B30
:10181000982F990F890F880F280F622F85E089CFA5
:10182000882321F02D3080F32CE8EECF2D30A8F363
:101830002CE8F3CF209108018091B901882349F069
:10184000822F6AE00E94EF1B982F990F890F880F53
:10185000280F622F86E06DCF209109018091B90198
:10186000882349F0822F6AE00E94EF1B982F990F7E
:10187000890F880F280F622F87E05BCF20913C02F1
:101880008091B901882349F0822F6AE00E94EF1B02
:10189000982F990F890F880F280F622F88E049CF62
:1018A00080913D0290913E02B8010E94DB1B282FDF
:1018B0009091B901992341F06AE00E94EF1B982FA3
:1018C000880F890F880F820F682F89E032CF8AE155
:1018D00090E00E94A508682F6F778AE02ACF8BE1FD
:1018E00090E00E94A508682F8BE023CF60E08CE099
:1018F00020CF60E88DE01DCFCE0140960E94A50864
:10190000682F8C2F16CF8F929F92AF92BF92CF925B
:10191000DF92EF92FF920F931F93CF930DED11E0A3
:10192000C0E0C12CD12C7601C394F80190E080E096
:1019300060E0219146015701082E04C0880C991CD3
:10194000AA1CBB1C0A94D2F72223C9F0682901966D
:101950008830910571F7CF5F8C2F0E94A708085F30
:101960001F4FC83011F7CF911F910F91FF90EF904B
:10197000DF90CF90BF90AF909F908F90089580940C
:101980006821E5CFCF93DF9389E290E00E94C506FE
:10199000CDEDD1E081E08BA70E94830C64E670E07E
:1019A00080E090E00E94610589E290E00E94C50617
:1019B0001BA6DF91CF910C94830CCF93DF9389E228
:1019C00090E00E94C506CDEDD1E081E089A70E949C
:1019D000830C64E670E080E090E00E94610589E29B
:1019E00090E00E94C50619A6DF91CF910C94830C5C
:1019F000FF920F931F93CF93DF93C82F89E290E05C
:101A00000E94C5060E94830C64E170E080E090E0D3
:101A10000E9461050DED11E0FF24F394F801F082BE
:101A20000E94830C64E170E080E090E00E94610518
:101A3000F801F7860E94830C64E170E080E090E09A
:101A40000E946105F80117860E94830C64E170E032
:101A500080E090E00E946105D0E0C352DE4FF88242
:101A60000E94830C64E170E080E090E00E946105D8
:101A7000F801108218820E94830C64E170E080E01B
:101A800090E0DF91CF911F910F91FF900C94610531
:101A9000FF920F931F93CF93DF93EC01F62E0881F3
:101AA0001981C8010E94B11BF81621F06F2DC801E1
:101AB0000E94B91BCE01DF91CF911F910F91FF9032
:101AC0000895CF93DF9300D0CDB7DEB761110CC07E
:101AD00064E19A838983CE0101960E94480D0F909C
:101AE0000F90DF91CF9108956AE0F3CFEF92FF92CC
:101AF0001F93CF93DF9300D0CDB7DEB77C01162FB5
:101B00000E94A5088A3011F0843169F411E08A300E
:101B100009F010E0812F0F900F90DF91CF911F916E
:101B2000FF90EF90089564E111116AE0FA82E98272
:101B3000CE0101960E94480DEDCF1F920F920FB675
:101B40000F9211242F933F934F935F936F937F9343
:101B50008F939F93AF93BF93EF93FF938FEB92E09D
:101B60000E943302FF91EF91BF91AF919F918F91AE
:101B70007F916F915F914F913F912F910F900FBE89
:101B80000F901F9018951F920F920FB60F9211246D
:101B90002F938F939F93EF93FF93E091CF02F09158
:101BA000D0028081E091D502F091D60282FD1BC067
:101BB00090818091D8028F5F8F732091D902821714
:101BC00041F0E091D802F0E0E154FD4F958F809311
:101BD000D802FF91EF919F918F912F910F900FBE9F
:101BE0000F901F9018958081F4CF1F920F920FB61F
:101BF0000F9211242F933F938F939F93AF93BF9393
:101C00008091BB029091BC02A091BD02B091BE0236
:101C10003091AD0123E0230F2D3758F50196A11D1A
:101C2000B11D2093AD018093BB029093BC02A093A1
:101C3000BD02B093BE028091AE019091AF01A09120
:101C4000B001B091B1010196A11DB11D8093AE010B
:101C50009093AF01A093B001B093B101BF91AF9148
:101C60009F918F913F912F910F900FBE0F901F90DA
:101C7000189526E8230F0296A11DB11DD2CF1F9201
:101C80000F920FB60F9211242F933F934F935F93B0
:101C90006F937F938F939F93AF93BF93EF93FF9334
:101CA000E0910201F09103010995FF91EF91BF913D
:101CB000AF919F918F917F916F915F914F913F91E4
:101CC0002F910F900FBE0F901F9018951F920F929B
:101CD0000FB60F9211242F933F934F935F936F93FF
:101CE0007F938F939F93AF93BF93EF93FF93E09175
:101CF0000001F09101010995FF91EF91BF91AF9122
:101D00009F918F917F916F915F914F913F912F9113
:101D10000F900FBE0F901F9018951F920F920FB645
:101D20000F9211242F933F934F935F936F937F9361
:101D30008F939F93AF93BF93EF93FF938091B900DD
:101D4000887F803609F44AC0F0F5883209F4A7C0CC
:101D500018F5803109F49BC0B8F4882309F4F9C060
:101D6000883009F494C0FF91EF91BF91AF919F919A
:101D70008F917F916F915F914F913F912F910F9034
:101D80000FBE0F901F901895883109F488C08032DB
:101D900051F78093940214C0803409F49DC040F43C
:101DA0008033B9F38833F9F68093940285ECB0C0A0
:101DB000803509F485C0883509F496C0883499F6D1
:101DC0000E949405D0CF883909F48CC038F5883743
:101DD00029F050F4883611F0803729F683E080939B
:101DE00096021092AC0157C0883809F47BC0803944
:101DF00019F0803809F0B7CF8091AC01803208F03B
:101E000071C0E091AC0181E08E0F8093AC018091B4
:101E1000BB00F0E0E457FE4F80833DC0803B39F0CB
:101E2000E0F4803A09F479C0883A09F09CCF84E064
:101E30008093960210928B0110928A01E091B40176
:101E4000F091B501099580918A0181110FC081E05F
:101E500080938A0110926A0109C0803C09F4A6CFE0
:101E6000883C09F4A3CF883B09F07DCFE0918B013A
:101E700081E08E0F80938B01F0E0E659FE4F808168
:101E80008093BB0090918B0180918A0129C0809141
:101E900071028093BB0085EC8093BC0064CF90916D
:101EA000930280919202981758F5E091930281E095
:101EB0008E0F80939302F0E0EE58FD4F8081E9CFC2
:101EC000E091930281E08E0F809393028091BB009A
:101ED000F0E0EE58FD4F8083909193028091920242
:101EE0009817C8F285E8D8CFE091930281E08E0F71
:101EF000809393028091BB00F0E0EE58FD4F808309
:101F00008091950281115CCF81E08093700284EA18
:101F10008093BC001092960226CF85EC8093BC0083
:101F2000109296028091AC01803230F4E091AC01C5
:101F3000F0E0E457FE4F10826091AC0170E0E09158
:101F4000B201F091B3018CE891E009951092AC01D7
:101F50000ACF1092940234CFEFEBF2E01382128298
:101F600088EE93E0A0E0B0E084839583A683B783F6
:101F70002EE031E03183208325EC30E03587248763
:101F800024EC30E03787268720EC30E0318B208B43
:101F900021EC30E0338B228B22EC30E0358B248B2C
:101FA00026EC30E0378B268B118E128E138E148E1A
:101FB000ECE5F3E01382128284839583A683B783D2
:101FC00080E291E091838083EAE6F3E083E090E0B1
:101FD0009183808385E090E0938382831482E8E696
:101FE000F3E080E5808381E081830895CF93DF93E0
:101FF00000D000D0CDB7DEB7789484B5826084BDC0
:1020000084B5816084BD85B5826085BD85B58160FC
:1020100085BD80916E00816080936E00109281007A
:102020008091810082608093810080918100816035
:1020300080938100809180008160809380008091F6
:10204000B10084608093B1008091B0008160809382
:10205000B00080917A00846080937A0080917A0049
:10206000826080937A0080917A00816080937A0008
:1020700080917A00806880937A001092C100E0918C
:10208000CF02F091D00282E08083E091CB02F09108
:10209000CC021082E091CD02F091CE0280E18083EB
:1020A0001092D702E091D302F091D40286E08083AF
:1020B000E091D102F091D202808180618083E09131
:1020C000D102F091D202808188608083E091D102B8
:1020D000F091D202808180688083E091D102F091FA
:1020E000D20280818F7D80838FEB92E00E94BD02BF
:1020F00010926F0210926E02109298021092BA0221
:102100001092960281E0809395021092700261E035
:1021100082E10E94790361E083E10E94790380916A
:10212000B9008E7F8093B9008091B9008D7F809334
:10213000B90088E48093B80085E48093BC0083EB09
:1021400091E09093B5018093B40184EB91E090937A
:10215000B3018093B20188E60E9483010E942601A8
:102160001FB7F8948091B601811127C0E1E4F1E036
:102170008491EDE2F1E09491E82FF0E0EE0FFF1F83
:10218000E75EFE4FA591B491EC91E92321F461E063
:102190008AE00E94790361E08AE00E94A7038CB57F
:1021A00080618CBD8CB580648CBD61E08DE00E9447
:1021B000A70361E08BE00E94A7038091B6018F5FC7
:1021C0008093B6011FBF80917A00887F84608093DE
:1021D0007A0061E087E00E94A70361E087E00E9447
:1021E000790361E080E10E94A70361E080E10E9441
:1021F000790361E08FE00E94A70361E08FE00E9415
:10220000790362E084E10E94A70362E085E10E9415
:10221000A70362E082E00E94A70362E084E00E94DC
:10222000A70362E083E00E94A70362E085E00E94CA
:10223000A70362E086E00E94A70362E088E00E94B4
:10224000A70362E089E00E94A70362E08AE00E949F
:10225000A70362E08EE00E94A70362E081E10E9492
:10226000A70380E490E00E94C5066091D00190E051
:1022700080E00E94760D8093D0016091050181E09D
:1022800090E00E94760D809305016091D20182E07A
:1022900090E00E94760D8093D2016091D10183E09D
:1022A00090E00E94760D8093D1016091D50184E089
:1022B00090E00E94760D8093D5016091D40185E075
:1022C00090E00E94760D8093D4016091D30186E066
:1022D00090E00E94760D8093D3019091D00190936D
:1022E00007029091D20190930B029091D1019093AB
:1022F0000C029091D501909316029091D401909385
:1023000017028093180280910501809319028BECCB
:1023100091E00E9487088DEA91E00E9487088091F1
:10232000BA01811105C060E08FEF0E94A708F7CFC6
:102330008CE991E00E94A20284E08093B70162E000
:1023400082E00E94A70362E084E00E94A70310924B
:10235000CB011092CC0180E496E090930101809330
:102360000001809169008C7F826080936900E89A07
:102370000E9493088EE891E00E94A2020E94F1045C
:10238000809338020E94930882E891E00E94A202A2
:102390000E94600890933E0280933D020E94440890
:1023A00080933C020E942808809309010E941A0829
:1023B000809308010E94E60780933B020E94CA07AF
:1023C00080933A020E94AE07809339028BE190E03D
:1023D0000E94A50882FB992790F921E0922790930B
:1023E000B90186958170809304010E94C90A8DE726
:1023F00091E00E9487088091B80181110AC083E6AC
:1024000091E00E94A2020E94690B8EE591E00E9479
:1024100087088BE491E00E94870860E080E10E94D9
:10242000790333243394222423948FB7F894409073
:10243000BB025090BC026090BD027090BE028FBF84
:102440009091CC018091CB01981709F442C0809102
:10245000CC019091CB01891B87FD805F8823C9F156
:102460009091CC018091CB019817D9F08091CC014B
:102470009091CB01891B87FD805F882391F0E091CB
:10248000CC018091CB01E81761F0EF5FE03108F0FB
:10249000E0E0E093CC01F0E0E554FE4F0081011153
:1024A00001C00FEF10E040924A0250924B0260923E
:1024B0004C0270924D0280914902811104C061E08A
:1024C00080E10E947903003E110509F0EAC12092E3
:1024D00020020E94830C86E00E9406036C0181E0CA
:1024E000C114D10409F080E08093450288E00E9485
:1024F00006037C0181E0E114F10409F080E080939F
:10250000460289E00E9406038C0181E00115110555
:1025100009F080E0809347028AE00E9406034C01A4
:1025200081E08114910409F080E0809348028EE0FC
:102530000E9406035C0181E0A114B10409F080E06F
:102540008093430281E10E94060321E0009709F095
:1025500020E020934402AB2851F0892B41F0CD2894
:1025600031F0EF2821F0012B11F0892881F48091BE
:102570004902811104C061E080E10E947903409228
:102580004A0250924B0260924C0270924D02E3E478
:10259000F2E090E080E060E0419101E010E020E0B6
:1025A00030E0082E04C0000F111F221F331F0A94B1
:1025B000D2F7442311F40C94A41B602B01968630AF
:1025C000910551F78DE00E94A70880914A029091F1
:1025D0004B02A0914C02B0914D0293018201081B65
:1025E000190B2A0B3B0BD901C801883C9105A105A9
:1025F000B10540F080914902811104C060E080E1A2
:102600000E94790380913F0290914002A091410283
:10261000B0914202A3019201281B390B4A0B5B0BBC
:10262000DA01C901843F9140A105B10540F10E9442
:10263000600890933E0280933D020E94440880937C
:102640003C020E942808809309010E941A08809386
:1026500008010E94E60780933B020E94CA0780930C
:102660003A020E94AE07809339020E94C90A409242
:102670003F02509240026092410270924202809169
:102680000601909107011816190654F52091380299
:10269000211126C0409134025091350260913602DA
:1026A0007091370293018201041B150B260B370B27
:1026B000B901A801493E53406105710588F00197B1
:1026C00090930701809306010E94F10480933802E1
:1026D0004092340250923502609236027092370274
:1026E00080913802882309F471C080913002909162
:1026F0003102A0913202B0913302A3019201281B52
:10270000390B4A0B5B0BDA01C90185369105A1052E
:10271000B10508F45BC08BEE90E00E9460040E945B
:10272000F703082F0E94F703182F0E94F703F82ED3
:1027300080916E03882339F00E94F703482F880F99
:10274000550B5C834B8390912F02932590932F021E
:1027500010932E02F0922D02302F3270202F247011
:102760008B8100FD02C00C94A81B806180932C0219
:1027700080912C02332309F4EEC7806280932C02EF
:1027800080912C02222309F4E8C7806480932C02F4
:1027900080912C02992309F4E2C7806880932C026F
:1027A000612F8AE00E94A70860912D028BE00E94B1
:1027B000A70860912C028CE00E94A708409230028A
:1027C000509231026092320270923302809149023B
:1027D000882359F110912B02112321F061E080E14F
:1027E0000E9479038091270290912802A0912902EA
:1027F000B0912A02A3019201281B390B4A0B5B0BF3
:10280000DA01C90184369105A105B10570F0409245
:102810002702509228026092290270922A02111116
:1028200004C060E080E10E94790380912602882341
:1028300059F110912502112321F061E08FE00E94EF
:1028400079038091210290912202A0912302B091FC
:102850002402A3019201281B390B4A0B5B0BDA01FE
:10286000C90184369105A105B10570F0409221029D
:10287000509222026092230270922402111104C02D
:1028800060E08FE00E94790380E090E0892B09F4FA
:10289000CCCD0E941F02882309F4C7CD0E940000FE
:1028A000C0CD013E110529F42092200220921F0282
:1028B00010CE60911E02003F110529F4611103C082
:1028C00020921E0206CE80912002811105C08091C7
:1028D0001F02882309F4E1C080E091E0080F191F6E
:1028E00010921D0260930902812F8170809315025E
:1028F00007FB882780F98093140206FB882780F95C
:102900008093130205FB882780F98093120204FB51
:10291000882780F98093110203FB882780F9809330
:10292000100202FB882780F980930F0201FB8827A1
:1029300080F980930E02802F817080930D02053400
:10294000110509F46AC40CF0D3C10332110509F46E
:102950001CC40CF04BC10E30110509F463C50CF01A
:10296000F9C00730110509F4BCC60CF0CDC0043025
:10297000110509F4DEC50CF093C00130110509F40E
:1029800066C60330110509F434C68091CD019091DB
:10299000CE0120911D02222309F4CBC6009709F035
:1029A000C8C61092DD018091DB018823C1F08091BF
:1029B000DA018823A1F08091D901882381F0109257
:1029C000DB011092DA011092D9011092DC01109211
:1029D0001D021092CE011092CD010E94DD0C80915B
:1029E000DB018823C1F08091DA018823A1F0809176
:1029F000D701882381F01092DB011092DA01109246
:102A0000D7011092DC0110921D021092CE0110929B
:102A1000CD010E94C20C8091DB018823A1F180913D
:102A2000DA01882381F18091D601882361F1109227
:102A3000DB011092DA011092D6011092DC011092A3
:102A40001D021092CE011092CD0189E290E00E9409
:102A5000C506209206020E94830C2092E6010E9485
:102A6000830C64EF71E080E090E00E9461051092B9
:102A700006020E94830C64EF71E080E090E00E9407
:102A800061051092E60110921E0280911F028823B8
:102A900009F456C610921F021CCD90E080E01ECFB4
:102AA0000530110509F40FC50630110509F06DCF89
:102AB0008091D80181110AC08091DB01882309F43B
:102AC00032C58091DA01882309F42DC561115DCFEB
:102AD0002092D5011092D40184E090E09A838983FA
:102AE0006AE0CE0101960E94480D6091D40185E014
:102AF00090E00E94610D8091D50180931602809133
:102B0000D4018093170241CF0B30110509F493C50E
:102B100074F40930110509F4BCC50A30110509F037
:102B200034CF632560930302609305022ECF0C30EF
:102B3000110509F42EC50D30110509F026CF862F99
:102B400083258093DD018093F2018DE090E00E9467
:102B5000CF061BCF0A31110509F45BC344F50431DC
:102B6000110509F481C2BCF40131110509F48DC2CB
:102B70000231110509F009CF80910501882309F47C
:102B800070C28FE090E0632583529E4FFC0160830A
:102B90006093DC01FACE0531110509F422C3063138
:102BA000110509F0F2CE63256093E001EECE0D3100
:102BB000110509F426C364F40B31110509F415C39A
:102BC0000C31110509F0E1CE63256093DE01DDCE05
:102BD0000132110509F4D5C20CF017C30E311105ED
:102BE00009F0D3CE63256093E801CFCE03331105FE
:102BF00009F4DBC20CF03FC00B32110509F4CDC261
:102C0000ECF40632110509F40CC364F40432110526
:102C100009F4BFC20532110509F0B7CE63256093F0
:102C2000F801B3CE0932110509F4A7C20A32110521
:102C300009F0ABCE63256093FD01A7CE0E321105DE
:102C400009F4F3C264F40C32110509F4D2C20D3256
:102C5000110509F09ACE63256093F70196CE0133F2
:102C6000110509F4B6C20233110509F08ECE6325B1
:102C7000609304028ACE0C33110509F4BEC2ECF451
:102C80000633110509F4D5C264F40433110509F4BF
:102C900088C20533110509F078CE632560930202DE
:102CA00074CE0A33110509F490C20B33110509F0F3
:102CB0006CCE63256093FB0168CE0134110509F4E5
:102CC000E0C264F40D33110509F4B7C20E331105E7
:102CD00009F05BCE63256093F10157CE03341105F3
:102CE00009F467C20CF469C263256093EA014DCE12
:102CF0000537110509F4BDC20CF0D4C00935110522
:102D000009F43ACF0CF086C00D34110509F465C200
:102D10000CF047C00A34110509F410C30CF5063451
:102D2000110509F48EC20934110509F02ECE362F93
:102D300033253093EC012091DC0182E290E02111F7
:102D400002C087E190E083529E4FFC0130836623EE
:102D500021F01092FF011092F40120931D0215CE74
:102D60000B34110509F42DC20C34110509F00DCEF8
:102D7000362F33253093EC012091DC0188E090E080
:102D8000211102C08DE090E083529E4FFC01308300
:102D9000662321F01092E5011092EA0120931D02B2
:102DA000F4CD0435110509F485C20CF50E34110576
:102DB00009F41FC30235110509F0E7CD362F33257D
:102DC0003093EC012091DC0185E090E0211102C0FC
:102DD0008CE190E083529E4FFC013083662321F00A
:102DE0001092E2011092F90120931D02CECD05351B
:102DF000110509F4E5C20835110509F0C6CD862F85
:102E000083258093EC018093DD0188E590E00E94AA
:102E1000CF06BBCD0B36110509F41FC244F50D35A5
:102E2000110509F4A4C2BCF40A35110509F4D3C094
:102E30000B35110509F0A9CD80910501811165C2FD
:102E40006111A3CD8091DC01882309F45CC281E289
:102E50000E94F80C9ACD0636110509F481C1093695
:102E6000110509F092CD63256093E0018ECD013705
:102E7000110509F45CCF64F40C36110509F4F5C1B1
:102E80000037110509F081CD63256093E1017DCD07
:102E90000337110509F4E5C10CF4D7C1632560932C
:102EA000010273CD0F3221E0120709F418C10CF0B2
:102EB0007DC00C37110509F4CCC2CCF509371105DA
:102EC00009F4CDC234F50637110509F431C10837CC
:102ED000110509F05ACD8091D80181110AC0809165
:102EE000DB01882309F4F7C38091DA01882309F410
:102EF000F2C361114ACD6091D00163256093D00186
:102F000090E080E00E94610D8091D00180930702E3
:102F10003CCD0A37110509F49CC10B37110509F0A6
:102F200034CD63256093EC016093FB012ECD033813
:102F3000110509F486C39CF40D37110509F49DC1F0
:102F40000E37110509F021CD662309F41ECD8091BD
:102F5000CF0183258093CF0180930A0216CD0231E1
:102F600041E0140709F4D4C3043151E0150709F412
:102F70007BC00131114009F008CD162F13251093A5
:102F8000EC012091050187E090E0211102C090E062
:102F900080E083529E4FFC011083211104C081E127
:102FA00091E00E94CF061093DA01EFCC0037E1E008
:102FB0001E0709F498C014F5093621E0120709F438
:102FC0007CC26CF40A3441E0140709F4B7C10A3535
:102FD000114009F0DACC63256093E301D6CC0B36BF
:102FE00081E0180709F48EC00C36114009F0CDCCF1
:102FF00063256093F30160930502C7CC0437F1E0C9
:103000001F0709F48AC0A4F4013731E0130709F45B
:1030100055C00237114009F0B8CC862F8325809324
:10302000DD018093010282E791E00E94CF06ADCCE2
:103030000A3751E0150709F42CC20D3781E0180753
:1030400009F413C20537114009F09FCC862F832560
:103050008093DD018093F90185E791E00E94CF061E
:1030600094CC90E080E08FCD80910501882351F0D1
:1030700090E080E0632583529E4FFC016083609363
:10308000DB0183CC8FE090E0F5CF162F1325109352
:10309000EC012091050186E090E0211102C090E052
:1030A00080E083529E4FFC011083211104C081E116
:1030B00090E00E94CF061093DA0167CC63258091DF
:1030C0000501882339F06093E20160930502609363
:1030D000D9015BCC6093EC016093F501F8CF6325D7
:1030E0006093D80152CC632580910501882329F093
:1030F0006093EA016093050248CC6093EC01609311
:10310000DE0143CC862F83258093DD01809300026E
:103110008BE691E00E94CF0638CC862F83258093E2
:10312000DD018093F10184E791E00E94CF062DCC70
:10313000162F13251093DD0180910501882369F076
:1031400083E090E083529E4FFC01108386E790E07D
:103150000E94CF061093D70118CC87E090E0F2CF01
:10316000162F13251093DD011093E10186E690E000
:103170000E94CF061093D60108CC63256093E4012A
:1031800004CC63256093F50100CC63256093EE01C8
:10319000FCCB63256093EF01F8CB63256093F601C8
:1031A000F4CB63256093FE01F0CB632560930302AB
:1031B000ECCB63256093F201E8CB63256093F301C8
:1031C000E4CB63256093EB01E0CB63256093F401CE
:1031D000DCCB63256093FC01D8CB63256093E201CF
:1031E000D4CB63256093DF01D0CB63256093E601E8
:1031F000CCCB63256093FF01C8CB63256093FA01B4
:10320000C4CB63256093E701C0CB63256093ED01D8
:10321000BCCB63256093E501B8CB63256093E101E6
:10322000B4CB63256093F001B0CB632560930002BB
:10323000ACCB632560930102A8CB63256093F901B1
:10324000A4CB63256093E901A0CB63256093E801DB
:103250009CCB63256093F00198CB63256093F801C4
:1032600094CB63256093000290CB63256093F901B2
:103270008CCB63256093F10188CB63256093E901D2
:1032800084CB362F33253093EC012091DC018AE189
:1032900090E0211102C08FE190E083529E4FFC012B
:1032A0003083662321F01092F7011092FC012093E5
:1032B0001D026BCB8091050181110CC0611165CBA2
:1032C0008091DC01882321F089E10E94F80C5DCB1C
:1032D00085E2FBCF262F23252093EC018091DC0192
:1032E000882371F089E190E083529E4FFC01208396
:1032F000662309F44ACB1092F6011092020245CBE4
:1033000085E290E0F1CF8DE1A3CD262F23252093F8
:10331000EC018091DC01882371F081E290E083521E
:103320009E4FFC012083662309F42FCB1092FE01EF
:103330001092FA012ACB8DE190E0F1CF362F3325A0
:103340003093EC012091DC0188E190E0211102C072
:1033500080E290E083529E4FFC013083662321F08F
:103360001092F5011092FD0120931D020ECB809169
:10337000050181110CC0611108CB8091DC0188230B
:1033800021F089E00E94F80C00CB81E1FBCF262FD1
:1033900023252093EC018091DC01882371F089E0E2
:1033A00090E083529E4FFC012083662309F4EDCA0E
:1033B0001092E6011092EE01E8CA81E190E0F1CFAF
:1033C000362F33253093EC012091DC0186E190E02B
:1033D000211102C08EE090E083529E4FFC013083A9
:1033E000662321F01092F3011092EB0120931D024D
:1033F000CCCA362F33253093EC012091DC0184E0D8
:1034000090E0211102C08EE190E083529E4FFC01BA
:103410003083662321F01092E1011092FB0120938A
:103420001D02B3CA8091DC01882329F0611103C019
:1034300081E00E94F80C9091DC01911107C080910D
:103440001E0283258093EC018093ED0190931D0271
:103450009CCA63256093EC016093040296CA6325BD
:103460006093EC016093F30190CA862F83259091BD
:103470000501992329F08093F4018093050285CA00
:103480008093DD018093F0018DE791E00E94CF06EB
:103490007CCA862F832590910501992329F080937A
:1034A000FC018093050271CA8093DD018093F801CD
:1034B0008AE791E00E94CF0668CA63256093EB011A
:1034C0006093050262CA8091D801811108C0809181
:1034D000DB01882311F18091DA018823F1F0611179
:1034E00054CA1092D5011092D40184E090E09A83DE
:1034F000898364E1CE0101960E94480D6091D40158
:1035000085E090E00E94610D8091D50180931602C4
:103510008091D4018093170238CA63256093DE013D
:103520006093050232CA632560930402609305022A
:103530002CCA8091D801811108C08091DB018823B9
:1035400011F18091DA018823F1F061111ECA109205
:10355000D5012092D40184E090E09A83898364E1CC
:10356000CE0101960E94480D6091D40185E090E063
:103570000E94610D8091D501809316028091D40143
:103580008093170202CA63256093F50160930502D8
:10359000FCC98091D801811108C08091DB0188238A
:1035A00011F18091DA018823F1F06111EEC92092C6
:1035B000D5012092D40184E090E09A8389836AE067
:1035C000CE0101960E94480D6091D40185E090E003
:1035D0000E94610D8091D501809316028091D401E3
:1035E00080931702D2C963256093EE0160930502B0
:1035F000CCC98091D801811108C08091DB0188235A
:10360000A1F08091DA01882381F06111BEC9609137
:10361000D30163256093D30186E090E00E94610DA1
:103620008091D30180931802B0C963256093EF01A4
:1036300060930502AAC963256093F60160930502B1
:10364000A4C963256093FE01609305029EC9809121
:10365000D801811108C08091DB018823A1F08091FD
:10366000DA01882381F0611190C96091D20163254C
:103670006093D20182E090E00E94610D8091D201BE
:1036800080930B0282C963256093F2016093050267
:103690007CC98091D801811108C08091DB01882309
:1036A000A1F08091DA01882381F061116EC96091E7
:1036B000D10163256093D10183E090E00E94610D08
:1036C0008091D10180930C0260C963256093FB0156
:1036D000609305025AC963256093DF016093EC0192
:1036E00054C98091D801811108C08091DB018823E1
:1036F00049F08091DA01882329F0611146C90E94BE
:10370000C20C43C963256093E7016093EC013DC996
:10371000662309F43AC960910501632560930501A8
:1037200081E090E00E94610D809105018093190273
:103730002CC9181619060CF036C92092DD0133C9C0
:10374000109220020C946912009560230C94DE12F2
:103750008F7E0C94B6138F7D11C88F7B17C88F771F
:103760001DC8F999FECF92BD81BDF89A992780B501
:103770000895262FF999FECF1FBA92BD81BD20BDB5
:103780000FB6F894FA9AF99A0FBE01960895AA1BFB
:10379000BB1B51E107C0AA1FBB1FA617B70710F03C
:1037A000A61BB70B881F991F5A95A9F7809590956E
:1037B000BC01CD01089597FB072E16F4009407D0A5
:1037C00077FD09D00E94C71B07FC05D03EF49095F9
:1037D00081959F4F0895709561957F4F0895991B2E
:1037E00079E004C0991F961708F0961B881F7A95F8
:1037F000C9F780950895EE0FFF1F0590F491E02D15
:063800000994F894FFCFCB
:103806009305930501010200010100000000550225
:10381600B501E201BD021302F1010502000000003C
:103826000906DC053D06C505D5058D01C6050D0A4B
:0638360000646F6E6500E6
:00000001FF
