:100000000C9409030C94B62D0C948F2D0C94310391
:100010000C9431030C9431030C9431030C94310390
:100020000C9431030C9431030C9431030C94310380
:100030000C9431030C9431030C9431030C94310370
:100040000C94DD2D0C9431030C9431030C9431038A
:100050000C9431030C9431030C9431030C94310350
:100060000C94742C0C943103506F7274202331461D
:10007000004D6F757365005363616E636F64650057
:10008000446562756720696E666F00557074696DAE
:100090006500544441313534330044414320747980
:1000A000706500504342207265766973696F6E0017
:1000B000415652206275696C640046504741206287
:1000C00075696C640053797374656D20696E666F31
:1000D000007777772E6B6172616261732E756B00AA
:1000E000206B6173706572002064756D706B696E52
:1000F00000207864656D6F78002074616E6B2D75DB
:100100006B00206B616C616E74616A005370656393
:1001100069616C207468616E6B7320746F000020DD
:100120006E69686972617368202000002064725FE4
:100130006D617820202020000020736F6C6567734C
:1001400074617220000020616E64796B6172706F5F
:1001500076004B6172616261732050726F2064653A
:1001600076656C6F70657273206172650041626FB5
:10017000757400002C2000506C65617365207573E8
:1001800065206172726F77732000444F5700596584
:100190006172004D6F6E746800446179005365634D
:1001A0006F6E6473004D696E7574657300486F758A
:1001B0007273005254432053657475700000000040
:1001C00000240027002A0000000000250028002B42
:1001D0000000000000230026002900040404040499
:1001E00004040402020202020203030303030301E4
:1001F00002040810204080010204081020010204BB
:10020000081020000000080002010000030407009D
:100210000000000000000020746F20726574757289
:100220006E00455343001912181415BB161117130D
:100230001A404020200804020277017E025803126F
:100240000659071408110A8410761B661C0D1D5AE6
:100250001E291F7020692172227A236B2473257452
:10026000266C2775287D29712A792C7B2D7C2E0FF1
:100270003F453016311E32263325342E3536363D75
:10028000373E384639523A413B4E3C493D4A3E0E94
:10029000401C4132422143234424452B46344733FA
:1002A0004843493B4A424B4B4C3A4D314E444F4DEB
:1002B0005015512D521B532C543C552A561D572274
:1002C0005835591A5A4C5B5D5C545D5B5E555F61F5
:1002D0008B0561066204630C6403650B6683670A21
:1002E000680169096A786B076C086D106E186F20D9
:1002F0007028713072387340744875507657775F44
:10030000786D60519113926A9364946795F296F1B7
:1003100097639862995FA012BB7C041409110B1FAC
:100320000C270D2F0E7E0F6C1169127D137A146B42
:10033000157416751772187019711A5A2B4A2F4DA9
:1003400079157A3B7B347C237D327E217F50804837
:10035000812B82408310843A853886308728882014
:1003600089188A378C3F8D5E9020746F20746F6778
:10037000676C65204F5344004D656E752B455343A4
:100380000020746F207265626F6F74004374726C2A
:100390002B416C742B44656C0050726573732000A4
:1003A000626F75740041006E666F200049006574CD
:1003B00075702052544300530050617573650050AE
:1003C0007274537263004B6579626F617264004DA1
:1003D000656E752B4E004E656D6F20494445004D8E
:1003E000656E752B44004469764D4D43004D656E36
:1003F000752B560053637265656E004D656E752BE7
:100400004D004A6F79204D6F6465004D656E752B08
:100410004A004A6F792054797065004D656E752BDE
:10042000546162005377617020464444004D656E0C
:10043000752B46313100547572626F004D656E75D3
:100440002B463130005653796E63004D656E752B27
:10045000463900566964656F004D656E752B4638E8
:10046000005053472074797065004D656E752B46BA
:100470003700505347206D6978004D656E752B46E7
:100480003600434F564F58004D656E752B4635006C
:10049000547572626F20464443004D656E752B465D
:1004A000312D463400524F4D2042616E6B00415653
:1004B0005220004650474120005265762E00CE0063
:1004C0004500445300412D44004644496D61676531
:1004D00000466C61736865720050512D444F5300A3
:1004E00044656661756C74004D6F6E6F00414342E8
:1004F0000041424300594D323134394600415933AD
:100500002D38393132005647412033306B487A005C
:100510005247422031356B487A00353020487A0006
:10052000363020487A00387800347800327800532A
:1005300045474100417461726900512D412D4F2D95
:10054000502D4D00437572736F720053696E636C6A
:10055000616972320053696E636C61697231004B7C
:10056000656D7073746F6E00436C617373696300C3
:1005700050656E7461676F6E005370656374727559
:100580006D0050726F6669205854004F6666004FC8
:100590006E002D2D2E2D2D2E2D2D2D2D002E002DCE
:1005A0002D3A2D2D3A2D2D00446563004E6F7600B7
:1005B0004F63740053657000417567004A756C00A5
:1005C0004A756E004D617900417072004D61720094
:1005D000466562004A616E003F3F3F0053756E0002
:1005E0005361740046726900546875005765640071
:1005F000547565004D6F6E0020003A003000206198
:100600006E642000206461790020646179730000C9
:10061000272E11241FBECFEFD8E0DEBFCDBF25E0CF
:10062000A0E3B1E001C01D92AE34B207E1F711E0E2
:10063000A0E0B1E0E8EAFEE702C005900D92A03329
:10064000B107D9F713E0C9E0D3E004C02197FE0158
:100650000E944C3FC830D107C9F70E94E32E0C948A
:10066000523F0C940000882339F08FE08093EB0414
:1006700082E08093EC04089583E08093EB04109271
:10068000EC04089591E09093CE038093F0031092D0
:10069000CF031092F10308959091A2038091A103DA
:1006A0002FEF3FEF981748F4E92FF0E0EF57FC4F9A
:1006B000208130E09F5F9093A203C901089590913B
:1006C000A2038091A1032FEF3FEF981748F4E92F81
:1006D000F0E0EF57FC4F208130E09F5F9093A20342
:1006E000C9010895462FE091FE03F091FF03682FA2
:1006F0008AEF0994CF92DF92EF92FF92982F990F91
:10070000990F990F30E020E080E0C12CD12C7601C8
:10071000C394A92FB0E0492F420F403598F4B70198
:10072000A601022E04C0440F551F661F771F0A94AE
:10073000D2F7FD01E20FF31FE85EFB4FE681EE23E7
:1007400059F0842B2F5F3F4F2830310521F7FF9060
:10075000EF90DF90CF90089540958423F3CFCF930F
:10076000C0E08C2F0E947A03CF5FE0911904F091D2
:100770001A04482F6C2F81E00995CA3091F7CF9168
:1007800008952091090480911204882349F0822F52
:100790006AE00E94403F982F990F890F880F280F19
:1007A000622F80E00E94720380911204209108045D
:1007B000622F882349F0822F6AE00E94403F682F11
:1007C000660F680F660F620F82E00E9472039091BD
:1007D00013048091120420910704992309F462C044
:1007E000882349F0822F6AE00E94403F982F990F9A
:1007F000890F880F280F622F84E00E947203809176
:10080000120420910D04622F882349F0822F6AE0A0
:100810000E94403F682F660F680F660F620F86E0E8
:100820000E9472038091120420910604622F882393
:1008300049F0822F6AE00E94403F682F660F680FE0
:10084000660F620F87E00E9472038091120420916C
:100850000504622F882349F0822F6AE00E94403FFE
:10086000682F660F680F660F620F88E00E947203A0
:1008700020911204809103049091040464E670E0D6
:100880000E94F03E682F222351F0282F862F6AE025
:100890000E94403F682F660F680F660F620F89E065
:1008A0000C947203882329F02D3008F49BCF2CE898
:1008B00099CF2D3008F49FCF2CE89DCF8230C8F41B
:1008C000E82FF0E0EE0FFF1FEF5FFE4F71836083B4
:1008D000813041F0809169008C7F82608093690053
:1008E000E89A089580916900837F88608093690009
:1008F000E99A0895E8E1F4E0A6E8B4E08C9191E08B
:1009000089278C9383AB0380F481E02D70E060E055
:100910008DE00994CF92DF92EF92FF920F931F9395
:10092000CF93DF93CDB7DEB764970FB6F894DEBFF1
:100930000FBECDBF2091A8043091A904611133C02E
:1009400012161306A4F4E4E9F4E050E040E0A191AB
:10095000B1918A179B0709F461E04F5F5F4F42171F
:100960005307A9F7611110C02A30310569F0F90168
:10097000EE0FFF1FEC56FB4F918380832F5F3F4F9D
:100980003093A9042093A80464960FB6F894DEBFB0
:100990000FBECDBFDF91CF911F910F91FF90EF90D0
:1009A000DF90CF900895FE01319644E1DF011D9262
:1009B0004A95E9F71216130684F504E914E0780164
:1009C00050E040E070E060E0D701CD90DD907D0127
:1009D0008C159D0549F0DA01AA0FBB1FAE0FBF1F92
:1009E000CD92DC924F5F5F4F6F5F7F4F621773074F
:1009F00059F74115510589F090E080E0219131913E
:100A0000D8012D933D938D01019684179507B1F779
:100A10005093A9044093A804B7CF50E040E0F8CF2A
:100A200085ED8093BC001092CD031092CC03809191
:100A3000BC0084FF0BC02091CC033091CD0380918A
:100A40000501909106012817390718F01092CB0381
:100A500008958091CC039091CD0301969093CD039E
:100A60008093CC03E4CF20914F02260F3327331F0E
:100A700021323105ECF42091CB03FC0190E080E0C1
:100A8000243069F082E00895A0914F022191AC01D9
:100A9000415D5D4FA40FB52FB11D2C9301968617B4
:100AA00098F380914F02680F60934F0280E00895A1
:100AB00081E008950895E091A2038091A103E817D1
:100AC00030F4F0E0EF57FC4F808190E008958FEF15
:100AD0009FEF08958091A1039091A203891B990B28
:100AE0000895CF92DF92EF92FF920F931F93CF93CF
:100AF000DF937C01CB018A012091CE03222389F070
:100B0000EB016B01C40ED51ECC15DD0569F06991B2
:100B1000D701ED91FC910190F081E02DC70109957D
:100B2000F3CF642F0E943305C801DF91CF911F914D
:100B30000F91FF90EF90DF90CF900895CF93DF93C8
:100B40001F92CDB7DEB769832091CE032223F9F03F
:100B50002091F103203258F021E030E0FC01338392
:100B6000228390E080E00F90DF91CF9108958091F3
:100B7000CF03E82FF0E0E053FC4F998190838F5F23
:100B80008093CF038093F10381E090E0ECCF61E0AC
:100B9000CE0101960E943305F7CF682F82EF93E0D4
:100BA0000C949E0508950F931F93CF93DF93EC0150
:100BB000062F1C811295107FE885F9854E8160E132
:100BC00080E20995E885F9854F8161E180E2099528
:100BD000E885F985402F62E180E209954D81410F5A
:100BE000E885F98563E180E209959F818E818F5FB9
:100BF000803260F48E839A3110F01F821E8281E071
:100C000090E0DF91CF911F910F9108951E8281E0B6
:100C1000890F8F83F0CF0F931F93CF93DF938C01B6
:100C2000D0E0C0E0F801EC0FFD1F6491662341F0B5
:100C300087EE94E00E94D305892B11F02196F2CF24
:100C4000CE01DF91CF911F910F910895CF93C8E00E
:100C500088EF95E00E940B06C150D1F7CF9108951F
:100C600080910105813009F03DC0909105059630D5
:100C700009F080E00E9433038AE08093ED048FE066
:100C80008093EE04E0910D04E15088ED95E0E730AB
:100C900070F4F0E0E25BF94F0C944C3F6F065506A0
:100CA00060066306660669066C0684EF95E00E949E
:100CB0000B068FE08093EB041092EC040C94260654
:100CC00080EF95E0F4CF8CEE95E0F1CF88EE95E0E3
:100CD000EECF84EE95E0EBCF80EE95E0E8CF8CEDA3
:100CE00095E0E5CF089580910105813009F051C06C
:100CF00090910505943009F080E00E9433038AE06A
:100D00008093ED048CE08093EE04E0910504E150C3
:100D100088ED95E0EC3098F4F0E0EF56F94F0C9444
:100D20004C3F9D06A806AB06AE06B106B406B70654
:100D3000BA06BD06C006C306C60684ED95E00E944D
:100D40000B068FE08093EB041092EC040C942606C3
:100D500080ED95E0F4CF8CEC95E0F1CF88EC95E058
:100D6000EECF84EC95E0EBCF80EC95E0E8CF8CEB18
:100D700095E0E5CF88EB95E0E2CF84EB95E0DFCF1F
:100D800080EB95E0DCCF8CEA95E0D9CF88EA95E05E
:100D9000D6CF0895E5EEF4E02FE0268317820C9479
:100DA0000B06E5EEF4E027E0268317820C940B0691
:100DB00080918804811112C080910105811122C0A7
:100DC00081E0909103059F3009F080E00E94330399
:100DD0008AE08093ED0484E18093EE0480914B04DB
:100DE000882369F08FE895E00E940B068FE08093DE
:100DF000EB041092EC0488EF95E00C940B068BE862
:100E000095E0F2CF0895E5EEF4E02FE02683178217
:100E10000E940B0688EF95E00C940B0680918804E5
:100E2000811112C080910105811119C081E090915A
:100E300003059E3009F080E00E9433038AE080932E
:100E4000ED0483E18093EE0480916E04882321F009
:100E500082E895E00C940B0689E795E0FBCF0895B6
:100E600080918804811112C080910105811122C0F6
:100E700081E0909103059D3009F080E00E943303EA
:100E80008AE08093ED0482E18093EE0480918504F2
:100E9000882369F08FE895E00E940B068FE080932D
:100EA000EB041092EC0488EF95E00C940B068BE8B1
:100EB00095E0F2CF089580918804811112C080914D
:100EC0000105811122C081E0909103059C3009F059
:100ED00080E00E9433038AE08093ED0481E18093F7
:100EE000EE0480918404882369F08FE895E00E94E5
:100EF0000B068FE08093EB041092EC0488EF95E0F2
:100F00000C940B068BE895E0F2CF0895809188044D
:100F1000811112C080910105811125C081E090915D
:100F200003059B3009F080E00E9433038AE0809340
:100F3000ED0480E18093EE0480917104882319F020
:100F4000813029F0089580E795E00C940B0688E63F
:100F500095E00E940B068FE08093EB041092EC0466
:100F600088EF95E0F2CF089580918804811112C036
:100F700080910105811133C081E0909103059A3081
:100F800009F080E00E9433038AE08093ED048FE053
:100F90008093EE0480918304823011F128F4882339
:100FA00041F0813099F008958330E9F0843069F19F
:100FB00008958FE595E00E940B068FE08093EB0487
:100FC0001092EC0488EF95E00C940B0685E595E013
:100FD0000E940B068FE08093EB041092EC040895BE
:100FE0008BE495E0F5CF84E495E00E940B068FE05A
:100FF0008093EB041092EC0488EF95E00E940B06BE
:1010000088EF95E00E940B06DDCF8AE395E0E0CF04
:1010100080918804811112C080910105811122C044
:1010200081E090910305993009F080E00E9433033C
:101030008AE08093ED048EE08093EE048091820438
:10104000882369F08FE295E00E940B068FE0809381
:10105000EB041092EC0488EF95E00C940B0684E30B
:1010600095E0FBCF089580918804811112C0809192
:101070000105811122C081E090910305983009F0AB
:1010800080E00E9433038AE08093ED048DE080933A
:10109000EE0480918104882369F08FE895E00E9436
:1010A0000B068FE08093EB041092EC0488EF95E040
:1010B0000C940B068BE895E0F2CF0895809188049C
:1010C000811112C080910105811119C081E09091B8
:1010D0000305963009F080E00E9433038AE0809394
:1010E000ED048BE08093EE0480917904882321F055
:1010F00080E295E00C940B068AE195E0FBCF089521
:1011000080918804811111C080910105811118C05E
:1011100081E090910305953009F080E00E9433034F
:101120008AE08093ED048093EE0480917804882314
:1011300021F080E195E00C940B0686E095E0FBCF72
:10114000089580918804811112C080910105811158
:1011500022C081E090910305943009F080E00E9464
:1011600033038AE08093ED0489E08093EE0480915C
:101170007F04882321F08DEF94E00C940B0685EF1B
:1011800094E00E940B068FE08093EB041092EC0435
:1011900088EF95E0F2CF089580918804811112C004
:1011A0008091010581112BC081E09091030593305E
:1011B00009F080E00E9433038AE08093ED0488E028
:1011C0008093EE0480917E0490918004911114C06C
:1011D000882379F0813081F481EF94E00E940B063E
:1011E0008FE08093EB041092EC0488EF95E00C9470
:1011F0000B068DEE94E0F2CF88EE94E0F8CF0895E0
:1012000080918804811112C080910105811122C052
:1012100081E090910305923009F080E00E94330351
:101220008AE08093ED0487E08093EE0480917D0452
:10123000882369F08FE895E00E940B068FE0809389
:10124000EB041092EC0488EF95E00C940B068BE80D
:1012500095E0F2CF089580918804811112C08091A9
:101260000105811122C081E090910305913009F0C0
:1012700080E00E9433038AE08093ED0486E080934F
:10128000EE0480917C04882369F08FE895E00E9449
:101290000B068FE08093EB041092EC0488EF95E04E
:1012A0000C940B068BE895E0F2CF089580918804AA
:1012B000811111C08091010581112FC081E09091B1
:1012C0000305911180E00E9433038AE08093ED04CE
:1012D00085E08093EE0480917A0490917B049111D3
:1012E00082608230A1F08330A9F0813069F080EE15
:1012F00094E00E940B068FE08093EB041092EC04C4
:1013000088EF95E00C940B0689ED94E0F2CF81ED27
:1013100094E0EFCF89EC94E0ECCF08958091F20453
:1013200090E095958795959587958F70813051F0D0
:1013300028F0893051F08D3059F0089585EC94E013
:101340000C940B0682EC94E0FBCF80EC94E0F8CF99
:101350008EEB94E0F5CFFF920F931F93CF93DF9323
:10136000182FC5EED4E0188689878FE08E831F8200
:1013700060EB87EE94E00E94D30561EB87EE94E08A
:101380000E94D30562EB87EE94E00E94D30563EBE5
:1013900087EE94E00E94D30564EB87EE94E00E9410
:1013A000D30565EB87EE94E00E94D30562EB87EEF0
:1013B00094E00E94D30563EB87EE94E00E94D3058E
:1013C00066EB87EE94E00E94D30567EB87EE94E02E
:1013D0000E94D30562EB87EE94E00E94D30563EB95
:1013E00087EE94E00E94D30568EB87EE94E00E94BC
:1013F000D30569EB87EE94E00E94D305188681E05F
:10140000810F898760EC87EE94E00E94D30561EC40
:1014100087EE94E00E94D30562EC87EE94E00E9490
:10142000D30563EC87EE94E00E94D30564EC87EE6D
:1014300094E00E94D30565EC87EE94E00E94D3050A
:1014400062EC87EE94E00E94D30563EC87EE94E0B3
:101450000E94D30566EC87EE94E00E94D30567EC0A
:1014600087EE94E00E94D30562EC87EE94E00E9440
:10147000D30563EC87EE94E00E94D30568EC87EE19
:1014800094E00E94D30569EC87EE94E00E94D305B6
:1014900002E0010F88E0F82EF88609876AEB87EEF4
:1014A00094E00E94D3056BEB87EE94E00E94D30595
:1014B00064EB87EE94E00E94D30565EB87EE94E041
:1014C0000E94D3056CEB87EE94E00E94D3056DEB90
:1014D00087EE94E00E94D3051D5FF88619876AECB9
:1014E00087EE94E00E94D3056BEC87EE94E00E94B7
:1014F000D30564EC87EE94E00E94D30565EC87EE9B
:1015000094E00E94D3056CEC87EE94E00E94D30532
:101510006DEC87EE94E00E94D30581E0888709870F
:1015200089E08E831F8266E187EE94E00E94D305F6
:101530008DE08E831F8266E187EE94E00E94D305E2
:1015400085E08E831F8266E187EE94E00E94D305DA
:1015500083E08E831F8266E187EE94E00E94D305CC
:101560008EE08E831F821886198789EB94E00E9493
:101570000B06DF91CF911F910F91FF900C948E0974
:10158000CF93DF931092ED041092EE04CAE1D0E203
:1015900060E087EE94E00E94D305D150C9F7C150B6
:1015A000B1F7DF91CF910895CF938FE08093EB0453
:1015B0001092EC041092ED0486E18093EE04C0E2F8
:1015C0006FE587EE94E00E94D305C150C9F71092F1
:1015D000ED0487E18093EE0489E993E00E94CA0656
:1015E00082E292E00E94D10687E192E0CF910C94D2
:1015F000CA0610929B0110929A01109299011092C2
:1016000098011092FE021092FD0210929701109222
:101610007C021092770210929601089590919B019E
:101620009F5F903408F090E020919A01291751F0C3
:10163000E92FF0E0EA5AFE4F808390939B0181E00E
:1016400090E008958CEF9FEF0895833081F028F4A7
:10165000813099F08230A9F008958730A9F0883060
:10166000C9F08430B1F4809180008F7D03C08091F7
:1016700080008F7780938000089584B58F7784BD34
:10168000089584B58F7DFBCF8091B0008F778093D4
:10169000B00008958091B0008F7DF9CFCF93DF9394
:1016A000282F30E0F901ED5FFD4F8491F901E15100
:1016B000FE4FD491F901E552FE4FC491CC23A1F025
:1016C00081110E94250BEC2FF0E0EE0FFF1FEF526F
:1016D000FE4FA591B491EC91ED2381E090E009F4E7
:1016E00080E0DF91CF91089580E090E0FACF1F93E2
:1016F000CF93DF93282F30E0F901ED5FFD4F849108
:10170000F901E151FE4FD491F901E552FE4FC49128
:10171000CC23A9F0162F81110E94250BEC2FF0E0AD
:10172000EE0FFF1FE953FE4FA591B4918FB7F894C8
:10173000EC91111108C0D095DE23DC938FBFDF91AF
:10174000CF911F910895DE2BF8CFCF93DF93CCEB91
:10175000D0E018821092CB0381E08093C8031092EE
:10176000A30361E082E10E94770B61E083E10E94C4
:10177000770BE9EBF0E080818E7F808380818D7F25
:10178000808388E48093B80085E48883DF91CF91DB
:1017900008952091F10381E0213270F58091F003EA
:1017A0001092CD031092CC039091CB03992359F062
:1017B0006091CC037091CD034091050150910601D9
:1017C0006417750700F16091CC037091CD034091CF
:1017D0000501509106016417750700F10E9410057C
:1017E0000E94A50B8091C9039091CA030196909322
:1017F000CA038093C90385E01092CF031092F103CE
:101800001092CE0308954091CC035091CD034F5FC9
:101810005F4F5093CD034093CC03C6CF92E090939B
:10182000CB0391E09093C8039FEF9093C70310926E
:10183000C6032093C503A0EDB3E0E5EAF3E090E032
:1018400029136BC01092A4039091A403880F892BD5
:101850008093A4038091A303813009F062C01092A9
:10186000A3031092CD031092CC038091A403809324
:10187000BB008091CC039091CD0301969093CD0352
:101880008093CC038091BC0083FF0BC02091CC03DC
:101890003091CD03809105019091060128173907F9
:1018A00020F32091CC033091CD03809105019091DC
:1018B00006012817390708F091CF85EC8093BC000A
:1018C0001092CD031092CC038091CB03823059F457
:1018D0002091CC033091CD038091050190910601B8
:1018E0002817390700F12091CC033091CD03809166
:1018F0000501909106012817390708F06FCF8091F4
:10190000C7038F3FD1F08091C7038032C1F080912F
:10191000C7038033B1F084E06FCF3D9131939F5F77
:101920008FCF85EECBCF8091CC039091CD030196E4
:101930009093CD038093CC03C7CF80E05DCF82E04E
:101940005BCF83E059CFCF93DF93EC0188E60E9411
:10195000420386E090E00E94CD05CE0164E670E08F
:101960000E94DC3E282F6AE00E94403F682F660FED
:10197000680F660F620F82EF93E00E949E05DF9171
:10198000CF910C94C90BCF93C82F88E60E944203D5
:1019900085E090E00E94CD058C2F6AE00E94403FD8
:1019A000682F660F680F660F6C0F82EF93E00E943E
:1019B0009E05CF910C94C90BCF93C82F88E60E9447
:1019C000420384E090E00E94CD058C2F6AE00E94E3
:1019D000403F682F660F680F660F6C0F82EF93E031
:1019E0000E949E05CF910C94C90BCF93C82F88E617
:1019F0000E94420383E090E00E94CD056C2F82EFAD
:101A000093E00E949E05CF910C94C90BCF93C82FF1
:101A100088E60E94420381E090E00E94CD058C2F71
:101A20006AE00E94403F682F660F680F660F6C0FD8
:101A300082EF93E00E949E05CF910C94C90BCF9347
:101A4000DF9390E0FC01E151FE4F249185529E4FBF
:101A5000FC0184918823C9F090E0880F991FFC0154
:101A6000E354FE4FA591B491FC01E953FE4FC5919B
:101A7000D49161110DC09FB7F8948C912095822369
:101A80008C938881282328839FBFDF91CF9108956D
:101A9000623051F49FB7F8943C91822F8095832354
:101AA0008C93E8812E2BEFCF8FB7F894EC912E2BEF
:101AB0002C938FBFEACFCF93C82F61E00E941F0DF8
:101AC00060E08C2FCF910C94770BCF93C82F60E000
:101AD0000E941F0D61E08C2FCF910C94770BCF9358
:101AE000DF938093550180935401109297011092D7
:101AF000530180919601806C8093960180919901A9
:101B000087FD0DC08091990180FF09C080919801E7
:101B1000809352018091960180618093960180911B
:101B20005101823009F443C0833061F4E99881E0C7
:101B300090E0880F991FFC01EF5FFE4F82ED95E06A
:101B400091838083D091500161E08D2F0E94770BAB
:101B500061E08D2F0E941F0DC091510161E08C2F1B
:101B60000E94770B61E08C2F0E941F0D83E290E0B2
:101B70000197F1F760E08C2F0E94770B8BEE90E0DD
:101B80000197F1F760E08D2F0E94770B62E08C2FB8
:101B90000E941F0D80E0C23021F08FEFC33009F4A6
:101BA00081E061EC72E1DF91CF910C945E04E898E2
:101BB00090E080E0BECF90919A0180919B018917BF
:101BC00099F18091990181608093990180919901A7
:101BD00087FD2DC08091960187FD29C01092980144
:101BE0002FEF3FEF9F5F903408F090E0E92FF0E097
:101BF000EA5AFE4F2F3F320771F4208130E0909374
:101C00009A0180919B018913EDCF822F0E946F0D65
:101C100081E090E0089580818B3BB9F78091980135
:101C20008F5F80939801EBCF8EEF9FEF08958AE747
:101C30009FEF08950F931F93CF93DF93109180032D
:101C400080917F03181B17FD105C01E01F3364F5C2
:101C50008091FE02A091FD028A1B87FD805C882393
:101C600019F18091FE02A817F9F0AF5FA03408F0D7
:101C7000A0E0A093FD02B0E0AA0FBB1FA358BD4F88
:101C8000CD91DC9111978D919C9192FDB0C02C2F3C
:101C9000CA3A20F08C2F815F823010F494FF0AC082
:101CA000DD27209709F0A5C0812FDF91CF911F91EB
:101CB0000F91089580917C0295FF18C080688093F1
:101CC0007C02D0E0C0E093FF1EC0FE01E95EFC4F45
:101CD000E4912E130DC0C85EDC4FFE01C491D0E02C
:101CE0002097D1F480917C02D82BDBCF8F77E7CF80
:101CF0002296C235D10549F7D0E0C0E0F3CF229655
:101D0000CE3DD105C9F3FE01E75CFD4FE4912E13F2
:101D1000F6CFC65CDD4FE1CF80917C02FE01C3307F
:101D2000D10508F041C0E858FD4F87FF04C010827C
:101D3000CBEBD0E026C090819130D1F3008392E0CC
:101D4000C230D10509F491E020917702322F392376
:101D500039F19095922390937702806880937C026A
:101D60008DEE0E940E0B8BEB0E940E0B8091770282
:101D70000E940E0B8BEB0E940E0B892B11F00E9420
:101D8000DB0D80917C029E01205231092134310506
:101D900060F1CB38D10549F1816080937C02A2CFFC
:101DA000922B90937702DCCF3697E830F10560F400
:101DB000EF5CFD4FE49187FF05C0E095E823E093D9
:101DC0007C02DFCFE82BFBCFFE01B097EB30F105B3
:101DD000C0F69091770291FF02C086FFD2CFEA5DF4
:101DE000FD4FE491CE2FD0E0CCCF8E7FD6CFC6E092
:101DF000D0E0CE0199278B3B910509F427CF892BA1
:101E000009F424CF809180038F5F80340CF080E050
:101E1000E82FEE0FFF0BE150FD4FD183C08380937D
:101E200080031F5F13CF3FB7F894809147019091D3
:101E30004801A0914901B0914A0126B5A89B05C06F
:101E40002F3F19F00196A11DB11D3FBFBA2FA92F39
:101E5000982F8827BC01CD01620F711D811D911D36
:101E600042E0660F771F881F991F4A95D1F70895A2
:101E70008F929F92AF92BF92CF92DF92EF92FF929A
:101E80004B015C010E94130F6B017C010E94130F38
:101E90006C197D098E099F09683E73408105910583
:101EA000A8F321E0821A9108A108B10888EEC80EB3
:101EB00083E0D81EE11CF11C81149104A104B1043B
:101EC00029F7FF90EF90DF90CF90BF90AF909F9059
:101ED0008F900895CF93DF93CEE1D4E0FE0111926D
:101EE00084E0E734F807D9F781E0809347040E9443
:101EF000AF0364E670E080E090E00E94380F199232
:101F000084E0C734D807D9F710924704DF91CF9106
:101F10000C94AF030F931F93CF93DF9380E00E9445
:101F20007A03082F85E00E947A03182FC8E1D4E0D5
:101F3000E981FA81402F61E081E00995E981FA8128
:101F4000412F66E081E0099564E170E080E090E077
:101F5000DF91CF911F910F910C94380F2FB7F89408
:101F60006091430170914401809145019091460137
:101F70002FBF0895CF92DF92EF92FF92CF93DF931E
:101F8000EC010E94AE0F6B017C010E94AE0F6C1938
:101F90007D098E099F09643671058105910578F4E4
:101FA000809130050E944E0B8C179D0771F781E0E0
:101FB000DF91CF91FF90EF90DF90CF90089580E078
:101FC000F7CFCF93DF9390E080E00E94BA0F80912B
:101FD00032050E944E0BEC0181E090E00E94BA0FA6
:101FE000CE01DF91CF910895CF92DF92EF92FF92D1
:101FF0000F931F93CF9380913005909131050E94EC
:10200000650D80913205909133050E94650D83EC3A
:1020100090E00197F1F790E080E00E94BA0F8FE026
:1020200090E00197F1F781E090E00E94BA0FC0E0E4
:1020300010E000E0C12CD12C7601C3940E94E10F86
:10204000B701A601002E04C0440F551F661F771F5D
:102050000A94D2F7892BC9F0C42B0F5F1F4F0830A9
:10206000110561F70E94E10F0E94E10F8091300598
:10207000909131050E945B0D8C2FCF911F910F9194
:10208000FF90EF90DF90CF9008954095C423E5CF67
:102090002091320530913305019759F4C9010E940E
:1020A000650D81E090E00E94BA0F90E080E00C9412
:1020B000BA0FC9010E945B0DF4CFBF92CF92DF929D
:1020C000EF92FF920F931F93CF93DF93C82E8091CF
:1020D0003205909133050E94650D809130059091F5
:1020E00031050E94650DCBEAD4E0CE010197F1F7EE
:1020F00080913005909131050E945B0D2197F1F799
:1021000080913205909133050E945B0D83E290E04F
:102110000197F1F780913005909131050E94650D8E
:1021200090E080E00E94BA0FB82E882309F43FC0E7
:10213000EE24E394F12CD0E0C0E00C2C000CDD0880
:1021400086010C2E02C0159507950A94E2F70170DE
:102150001127C8010E944810E026F1262196C830B8
:10216000D10571F7C7010E94481080913205909106
:1021700033050E94650D83EC90E00197F1F790E044
:1021800080E00E94BA0F809130050E944E0B892B8F
:10219000D1F3809132050E944E0B892BA1F38091DF
:1021A0003005909131050E945B0D0E94F40F8B2D3C
:1021B000DF91CF911F910F91FF90EF90DF90CF9023
:1021C000BF900895CF9380913005909131050E9482
:1021D000650D80913205909133050E94650D8FEF5A
:1021E00090E00E945D10C82F882309F43EC00E9431
:1021F000F40F0E94F40F88EE90E00E945D1083E0DF
:1022000090E00E945D1086EE90E00E945D1083EFEA
:1022100090E00E945D1088E290E00E945D108AEEDE
:1022200090E00E945D1084EF90E00E945D108BE8CA
:1022300091E00197F1F7809130059091310582305E
:102240009105B1F00397B1F08FEF6CE371E10E945B
:102250005E0480913005909131050E94650D80915A
:102260003205909133050E94650D8C2FCF91089512
:1022700080E0EBCF81E0E9CFCF92DF92EF92FF9247
:102280000F931F93CF9380912E020E944E0B8C01CF
:10229000C1E0892B09F4C0E00E94AE0FC0902A0271
:1022A000D0902B02E0902C02F0902D029B01AC010B
:1022B0002C193D094E095F0969017A013BE0C316FB
:1022C000D104E104F10430F01092290210922802A6
:1022D0001092270260932A0270932B0280932C02A3
:1022E00090932D02809129028F5F809329028A307A
:1022F00048F4823010F58130A1F01092290210923A
:1023000028020CC08A3059F18B30B9F7809126022F
:102310008D3F78F110922802109229021092270224
:1023200004C01092270210922602CF911F910F91A4
:10233000FF90EF90DF90CF90089580912602C80F14
:10234000C09326028091270290E09595879520E022
:10235000012B09F020E8822B80932702E6CF8091A1
:10236000260281708C1719F080932602DECF8DEF44
:10237000FBCF809128028130A1F130F1823061F6EB
:102380008091270290E09093230280932202109282
:10239000280280911D028F5F803108F080E09091CB
:1023A0001C02981709F4B8CF48E0849FD00111248B
:1023B000A456BE4F98E0EEE1F2E001900D929A959E
:1023C000E1F780931D02A8CF8091270290E09093BF
:1023D0001F0280931E02809128028F5F8093280243
:1023E0009BCF8091270290E090932102809320025E
:1023F000F2CFCF92DF92EF92FF92CF93DF93909143
:10240000E2049111B7C0D62FC82F0E94AE0FE09101
:10241000E20427E02E9FA0011124485E5B4FDA0101
:10242000AC56BF4F6D937D938D939C9313971496E9
:102430001C9215971C924E565F4FDA01CC9341E0E7
:102440004E0F249FA0011124485E5B4FDA01AC5669
:10245000BF4F6B017C01FAEFCF0ED11CE11CF11CC8
:10246000CD92DD92ED92FC92139714961C921597E3
:102470003FE03C934E565F4FDA01CC9342E04E0F63
:10248000249FA0011124485E5B4FDA01AC56BF4F78
:102490006B017C01F4EFCF0EF1E0DF1EE11CF11CBB
:1024A000CD92DD92ED92FC9213971496F1E0FC939D
:1024B00015973C934E565F4FDA01CC9343E04E0F95
:1024C000249FA0011124485E5B4FDA01AC56BF4F38
:1024D0006B017C013EEEC30E32E0D31EE11CF11C09
:1024E000CD92DD92ED92FC92139714961C92159763
:1024F000DC934E565F4FDA01CC9344E04E0F249F9D
:10250000A0011124485E5B4FDA01AC56BF4F6B014E
:102510007C0138EEC30E33E0D31EE11CF11CCD92DA
:10252000DD92ED92FC9213971496FC931597DC9331
:102530004E565F4FDA01CC9335E03E0F239F90015A
:102540001124285E3B4FD901AC56BF4F6E517B4FD3
:102550008F4F9F4F6D937D938D939C9313971496FC
:10256000FC9315971C922E563F4FD901CC93EA5FEE
:10257000E093E204DF91CF91FF90EF90DF90CF9056
:102580000895CF92DF92EF92FF920F931F93CF9314
:102590008091960186FF72C0809197018F5F809332
:1025A0009701809197018A3048F4823098F560E075
:1025B000813009F448C0109297019DC08B3009F416
:1025C0004DC0E8F18C30B9F7809154018E3E69F02E
:1025D000809154018E3F49F08091540180934B01CA
:1025E00080919601826080939601809196018F7B05
:1025F000809396018091990187FF3CC08091990159
:102600008F77809399018091960184FDD4CF0E94A9
:10261000DB0DD1CFC0915501C1706C2F809150015D
:102620000E94770B80915301C80FC0935301809192
:10263000550190E095958795809355015CC0609118
:1026400053016095617080915001CF911F910F915E
:10265000FF90EF90DF90CF900C94770B62E0809129
:102660005001CF911F910F91FF90EF90DF90CF908D
:102670000C941F0D809199018E7FC3CF80915001E2
:102680000E944E0BC82F0E94AE0F00914C0110917A
:102690004D0120914E0130914F016B017C01C01A18
:1026A000D10AE20AF30A970186010B3F11052105C1
:1026B000310520F0109297011092550160934C0162
:1026C00070934D0180934E0190934F01809197013B
:1026D0008F5F80939701809197018A30A0F48230B8
:1026E00020F5813009F067CF109253018091960157
:1026F000806880939601CF911F910F91FF90EF908A
:10270000DF90CF9008958A3019F18B3009F053CFC4
:10271000809153018D3F48F18EEF0E946F0D8091A3
:10272000990180688093990146CF809153018C0F65
:10273000809353018091550190E095958795809302
:10274000550190E0C11190E880915501892B74CF1B
:102750008091530181708093530180915301C8137C
:10276000CACF8DEF80935301C6CF809155018E3F24
:1027700029F0909196019D7F9093960190919601FA
:1027800094FF02C0803F70F09091960192FD91C03D
:102790008E3E09F477C0E8F48A3A09F47FC020F449
:1027A000882359F186E02CC0803E09F47BC0813E2D
:1027B000C9F78091960182FD1AC087E0809352018B
:1027C00080919601846080939601809196018F7D1F
:1027D0000CC08C3F09F44EC060F4803F19F781E0D3
:1027E000809352018091960180628093960180E0EF
:1027F00007C08E3FA9F18F3FA9F60E94F90A8CE02D
:1028000081FF05C090915201915090935201909197
:102810005201191614F482FF1EC09091FE029F5FB0
:10282000903408F090E02091FD022917A1F020914A
:102830005501E92FF0E030E0EE0FFF1FE358FD4FA8
:10284000318320834091960120813181342B318363
:1028500020839093FE02807171F1809154015DCFCD
:102860008091960181FFC3CF80914B0180935401E9
:1028700080E1C6CF109252011092960110929901F8
:102880008EE0BECF9091960191FF0AC090914B01CE
:102890009E3E31F08093540184E1B2CF10925201F8
:1028A00084E0AECF81E080935201809196018860F0
:1028B0009CCF82E0A5CF8091520118160CF47BCEFC
:1028C00080919601837C80939601109252018091B1
:1028D00096018F77809396019ACEAF92BF92CF9256
:1028E000DF92EF92FF920F931F93CF93DF936C01D0
:1028F0007B018B01040F151FEB015E01AE18BF08B1
:10290000C017D10759F06991D601ED91FC91019062
:10291000F081E02DC6010995892B79F7C501DF917A
:10292000CF911F910F91FF90EF90DF90CF90BF90CC
:10293000AF900895089590E080E008958F929F925F
:10294000AF92BF920F931F93CF93DF93CDB7DEB7B4
:10295000A1970FB6F894DEBF0FBECDBF19A24230CB
:1029600008F44AE08E010F5D1F4F842E912CB12C8C
:10297000A12CA50194010E94043FE62FB901CA01D0
:10298000EA3044F5E05DD801EE938D01232B242B32
:10299000252B79F790E080E0109769F0FD01019018
:1029A0000020E9F73197AF014A1B5B0BBD0187EEB1
:1029B00094E00E946D14A1960FB6F894DEBF0FBE8E
:1029C000CDBFDF91CF911F910F91BF90AF909F909E
:1029D0008F900895E95CD7CF462F682F70E090E084
:1029E00080E00C949E14809101058130D9F490917F
:1029F0000505933009F080E00E9433038AE080935C
:102A0000ED048BE08093EE04809106048A3020F47C
:102A10008CEF95E00E940B066AE070E0809106045E
:102A20000C94EC140895809101058130D9F49091B3
:102A30000505923009F080E00E9433038AE080931C
:102A4000ED0489E08093EE04809109048A3020F43B
:102A50008CEF95E00E940B066AE070E0809109041B
:102A60000C94EC140895809101058130D9F4909173
:102A70000505913009F080E00E9433038AE08093DD
:102A8000ED0488E08093EE04809108048A3020F4FD
:102A90008CEF95E00E940B066AE070E080910804DC
:102AA0000C94EC140895809101058130D1F490913B
:102AB0000505911180E00E9433038AE08093ED04C4
:102AC00087E08093EE04809107048A3020F48CEF35
:102AD00095E00E940B066AE070E0809107040C9478
:102AE000EC1408951F93CF93DF93182FD62FC42F84
:102AF00089E08093EB041092EC048EE08093ED0467
:102B000080E18093EE04103120F48CEF95E00E9478
:102B10000B0660E170E0812F0E94EC1488EF95E0D5
:102B20000E940B06D03120F48CEF95E00E940B063A
:102B300060E170E08D2F0E94EC1488EF95E00E9418
:102B40000B06C03120F48CEF95E00E940B0660E18B
:102B500070E08C2FDF91CF911F910C94EC14CF93E8
:102B600080911D04882351F18091F104882331F173
:102B7000C62F809187048823D1F08091010583308E
:102B8000B1F489E08093EB041092EC048EE0809322
:102B9000ED0481E18093EE04603120F48CEF95E048
:102BA0000E940B0660E170E08C2F0E94EC14809173
:102BB00083048230D1F120F48130F9F0CF9108956F
:102BC000833009F44AC08430C9F7C3FB882780F9F1
:102BD00080932004C2FB882780F980931F04C1FBE7
:102BE000882780F980932B048C2F81708093230495
:102BF000C295C170C0933504E1CFC1FB882780F92D
:102C0000809321048C2F817080932904C2FB882734
:102C100080F980933104C3FB882780F980933904BD
:102C2000C295C170C0934104C9CFC1FB882780F908
:102C3000809342048C2F817080933A04C2FB8827D2
:102C400080F980933204C3FB882780F980932A049B
:102C5000C295C170C0932204B1CFC1FB882780F90F
:102C600080934104C2FB882780F980934204C3FB10
:102C7000882780F980933A048C2F817080933204E6
:102C8000E7CF009769F0FC0101900020E9F7319748
:102C9000AF01481B590BBC0187EE94E00C946D14F6
:102CA00090E080E008954F925F926F927F928F92B2
:102CB0009F92AF92BF92CF92DF92EF92FF92CF930B
:102CC000DF9300D000D0CDB7DEB70E94AE0FC0902A
:102CD000FD04D090FE04E090FF04F09000052B016D
:102CE0003C014C185D086E087F08C301B20128EE54
:102CF00033E040E050E00E94043F29833A834B8355
:102D00005C83C301B20120E63AEE40E050E00E944D
:102D1000043F69017A01C301B20120E83EEE46E3B7
:102D200050E00E94043F49015A01C301B20120E072
:102D30003CE546E255E00E94043F29013A01ACE33C
:102D4000B0E0A70196010E94263F29813A814B817C
:102D50005C81261B370B480B590B29833A834B8325
:102D60005C83A50194010E94263FC61AD70AE80A8F
:102D7000F90AA8E1B0E0A30192010E94263F861A59
:102D8000970AA80AB90A8EE08093ED048BE080933D
:102D9000EE048FE08093EB041092EC044114510494
:102DA00061047104A1F04AE0C301B2010E949E14C3
:102DB00089E096E04A9445284628472811F484E0A3
:102DC00096E00E940B068EEF95E00E940B064AE00B
:102DD00084169104A104B10420F48CEF95E00E94C4
:102DE0000B064AE0C501B4010E949E148AEF95E0EB
:102DF0000E940B065AE0C516D104E104F10420F448
:102E00008CEF95E00E940B064AE0C701B6010E94D4
:102E10009E148AEF95E00E940B0689819A81AB810E
:102E2000BC810A97A105B10520F48CEF95E00E94C2
:102E30000B064AE069817A818B819C810F900F900B
:102E40000F900F90DF91CF91FF90EF90DF90CF9098
:102E5000BF90AF909F908F907F906F905F904F90BA
:102E60000C949E14CF92DF92EF92FF92CF93DF9358
:102E70006C01990FEE08FF08F7FE19C06DE287EEAE
:102E800094E00E94D305EC0166277727CB016C19EB
:102E90007D098E099F094AE00E949E148C0F9D1F98
:102EA000DF91CF91FF90EF90DF90CF9008954AE0AF
:102EB000C701B601DF91CF91FF90EF90DF90CF90E7
:102EC0000C949E1480910105813099F5909105052F
:102ED000953009F080E00E9433038AE08093ED048E
:102EE0008DE08093EE048091030490910404883E69
:102EF000934024F48CEF95E00E940B06809103042C
:102F0000909104048436910524F48CEF95E00E949E
:102F10000B0680910304909104040A9724F48CEF2B
:102F200095E00E940B0680910304909104040C9498
:102F3000321708958FE08093EB041092EC0488E13F
:102F40008093ED041092EE04809107048831C8F557
:102F5000909108049C33A8F5909109049C3388F55E
:102F60008A3020F48CEF95E00E940B066AE070E056
:102F7000809107040E94EC148AEF95E00E940B06F2
:102F8000809108048A3020F48CEF95E00E940B06B3
:102F90006AE070E0809108040E94EC148AEF95E0EA
:102FA0000E940B06809109048A3020F48CEF95E092
:102FB0000E940B066AE070E0809109040E94EC1404
:102FC00007C081E08093EC048FE995E00E940B0636
:102FD0008FE08093EB041092EC0486E18093ED0483
:102FE00081E08093EE0480910304909104048F307B
:102FF000974264F4809105048D3040F4809106047A
:10300000803220F490910D049830F8F081E08093A4
:10301000EC0482E995E00E940B0680910105813065
:1030200071F40E9453150E9433150E9413150E94DB
:10303000F3140E9473060E9462170E94300680916A
:103040000105833059F50C9453168A3020F48CEF27
:1030500095E00E940B066AE070E0809106040E94F1
:10306000EC148DE995E00E940B06809105048A30EE
:1030700020F485E291E00E9441166AE070E08091C0
:1030800005040E94EC148DE995E00E940B068091E6
:103090000304909104040E943217BFCF0895CF9388
:1030A00080E00E94AB09CEE0C093EB041092EC04E8
:1030B00083E18093ED0482E08093EE0483EB94E05F
:1030C0000E940B066091F30487EE94E00E94D30502
:1030D0006091F40487EE94E00E94D3056091F504BA
:1030E00087EE94E00E94D3056091F60487EE94E0A9
:1030F0000E94D3056091F70487EE94E00E94D30507
:103100006091F80487EE94E00E94D3056091F90481
:1031100087EE94E00E94D3056091FA0487EE94E074
:103120000E94D305C093EB041092EC0484E18093D9
:10313000ED0483E08093EE048EEA94E00E940B0697
:103140008091FB049091FC040E9441168FE08093D3
:10315000EB041092EC041092ED0484E08093EE04F2
:10316000C0E26FE587EE94E00E94D305C150C9F735
:10317000CF910C949A1780911D04882349F0809177
:10318000F104882329F08091870481110C949A1707
:1031900008950F931F93CF93DF93EC0189E0809301
:1031A000EB041092EC048EE08093ED048FE08093AA
:1031B000EE040D2F11270031110520F48CEF95E05E
:1031C0000E940B06B80190E080E040E10E949E144E
:1031D00088EF95E00E940B06DD27C031D10520F471
:1031E0008CEF95E00E940B06BE0190E080E040E18C
:1031F000DF91CF911F910F910C949E141092CD03EB
:103200001092CC038091CB03882359F02091CC03FA
:103210003091CD038091050190910601281739075F
:10322000F0F02091CC033091CD0380910501909175
:10323000060128173907E8F00E9410050E94A50B27
:103240008091C9039091CA0301969093CA03809319
:10325000C90380E01092A2038093A1030895809196
:10326000CC039091CD0301969093CD038093CC0332
:10327000C9CF81E08093CB038093C8039FEF9093E5
:10328000C7031092C6031092C5038093A4038091D4
:10329000A403806D8093A4038091A303813009F07F
:1032A00062C01092A3031092CD031092CC038091C0
:1032B000A4038093BB008091CC039091CD03019631
:1032C0009093CD038093CC038091BC0083FF0BC00F
:1032D0002091CC033091CD0380910501909106019E
:1032E0002817390720F32091CC033091CD0380912A
:1032F0000501909106012817390708F09DCF85EC4C
:103300008093BC001092CD031092CC038091CB032C
:10331000813059F42091CC033091CD038091050187
:10332000909106012817390700F12091CC033091C4
:10333000CD0380910501909106012817390708F007
:103340007BCF8091C60381111AC08091C603A5EA84
:10335000B3E0E1E8F3E090E0981709F47BCF2D911A
:1033600021939F5FF9CF85EECBCF8091CC039091D5
:10337000CD0301969093CD038093CC03C7CF81E01A
:10338000E6CF88E60E94420382E090E00E94CD05ED
:103390000E94C90B0E94FE180E945F0326E09695CA
:1033A00087952A95E1F781700895CF93DF93C82F11
:1033B0000E94C119D82F88E60E94420382E090E063
:1033C0000E94CD058C2FD11110C06AE00E94403FB1
:1033D000682F660F680F660F6C0F82EF93E00E94F4
:1033E0009E05DF91CF910C94C90BCD3078F06CE045
:1033F0000E94403F292F892F6AE00E94403F682F9A
:10340000660F680F660F620F6066E7CF6AE00E9482
:10341000403F682F660F680F660F6C0F6064DDCF4A
:10342000CF9388E60E94420382E090E00E94CD059F
:103430000E94C90B0E94FE180E945F03C82F88E6F5
:103440000E94420382E090E00E94CD056C2F6F7BCA
:1034500082EF93E00E949E05CF910C94C90BCF930D
:10346000C82F88E60E94420390E080E00E94CD05CC
:103470000E94C90B0E94FE180E945F038078C82B2F
:1034800088E60E94420390E080E00E94CD058C2FE8
:103490006AE00E94403F682F660F680F660F6C0F4E
:1034A00082EF93E00E949E05CF910C94C90B88E6B1
:1034B0000E94420390E080E00E94CD050E94C90B6B
:1034C0000E94FE180E945F038F77282F30E094E05F
:1034D000359527959A95E1F7922F990F990F291B0A
:1034E000220F820F089588E60E94420381E090E057
:1034F0000E94CD050E94C90B0E94FE180E945F0326
:103500009C0194E0359527959A95E1F72F70332724
:10351000922F990F990F291B220F820F0895CF9395
:103520000E94C119C82F88E60E94420382E090E001
:103530000E94CD050E94C90B0E94FE180E945F03E5
:10354000C11110C0AC0194E0559547959A95E1F7EB
:103550004F705527942F990F990F491B440F840FD3
:10356000CF910895482F4F79242F30E084E035958E
:1035700027958A95E1F7822F880F880F922F981B45
:10358000892F880FECCF88E60E94420383E090E009
:103590000E94CD050E94C90B0E94FE180E945F0385
:1035A000089588E60E94420384E090E00E94CD05E1
:1035B0000E94C90B0E94FE180E945F039C0194E0C8
:1035C000359527959A95E1F72F703327922F990F0C
:1035D000990F291B220F820F089588E60E9442034B
:1035E00085E090E00E94CD050E94C90B0E94FE1864
:1035F0000E945F039C0194E0359527959A95E1F729
:103600002F703327922F990F990F291B220F820FAA
:10361000089588E60E94420386E090E00E94CD056E
:103620000E94C90B0E94FE180E945F039C0194E057
:10363000359527959A95E1F72F703327922F990F9B
:10364000990F291B220F820F90E08053984F089505
:10365000CF9388E60E94420390E080E00E94CD056F
:103660000E94C90B0E94FE180E945F03C82F88E6C3
:103670000E94420390E080E00E94CD056C2F6F779E
:1036800082EF93E00E949E05CF910C94C90B88E6CF
:103690000E94420390E080E00E94CD050E94C90B89
:1036A0000E94FE180E945F038095881F8827881F4C
:1036B00008950E94101A809106040E94DC0C8091EB
:1036C00005040E94C30C80910304909104040E949D
:1036D000A30C80910D040E94F50C809107040E94B8
:1036E000D519809108040E94060D809109040E945A
:1036F0002F1A0E94471B811102C00C94281B0895A9
:103700001F93CF93DF93EC01162F0E94C63E18172C
:1037100039F0612FCE01DF91CF911F910C94CE3EF5
:10372000DF91CF911F910895CF93DF93CFE6D4E03F
:103730008883682F90E080E00E94801B8881982F0A
:103740009170909348048695817080936204DF9114
:10375000CF91089580918804811112C08091010554
:1037600081113CC081E090910305973009F080E021
:103770000E9433038AE08093ED048CE08093EE0492
:103780008091700490916F04891710F40E94941B2B
:1037900080916F048130C9F038F08230C9F08330F5
:1037A000D1F088ED95E002C08BE895E00E940B0611
:1037B0008FE08093EB041092EC0488EF95E00E9478
:1037C0000B0688EF95E00C940B068CE295E0EECFAB
:1037D00089E295E0EBCF86E295E0E8CF08950F937C
:1037E0001F93CF93DF9310920105109288041092DB
:1037F00065041FE01093EB041092EC040E94C00AD1
:103800000E944F181092ED04D5E0D093EE0485EAA3
:1038100094E00E9403070E945609C4E1C093ED049E
:10382000D093EE048AE994E00E94D1061092ED0450
:10383000D6E0D093EE0480E994E00E9403070E9452
:103840002B09C093ED04D093EE0488E894E00E9425
:10385000D1061092ED04D7E0D093EE0482E894E014
:103860000E9403070E940009C093ED04D093EE0468
:103870008AE794E00E94D1061092ED0408E00093DC
:10388000EE0482E794E00E9403070E94CC08C093F4
:10389000ED040093EE048AE694E00E94D1061092B3
:1038A000ED0409E00093EE0481E694E00E94030732
:1038B0000E94A108C093ED040093EE0489E594E012
:1038C0000E94D1061092ED040AE00093EE0483E515
:1038D00094E00E9403070E948008C093ED040093C7
:1038E000EE048BE494E00E94D1061092ED040BE00C
:1038F0000093EE0485E494E00E9403070E945E08B2
:10390000C093ED040093EE048CE394E00E94D10692
:103910001092ED040CE00093EE0486E394E00E9424
:1039200003070E94AA1BC093ED040093EE048DE2EE
:1039300094E00E94D1061092ED040DE00093EE0495
:1039400084E294E00E9403070E943308C093ED04D0
:103950000093EE048BE194E00E94D1061092ED04F6
:103960000EE00093EE0482E194E00E9403070E94BF
:103970000808C093ED040093EE048BE094E00E94ED
:10398000D1061092ED041093EE0482E094E00E94C0
:1039900003070E94B407C093ED041093EE048BEF6D
:1039A00093E00E94D1061092ED0410E11093EE0412
:1039B00084EF93E00E9403070E948607C093ED0402
:1039C0001093EE048DEE93E00E94D1061092ED0468
:1039D00011E11093EE0486EE93E00E9403070E942B
:1039E0005B07C093ED041093EE048FED93E00E940B
:1039F000D1061092ED0412E11093EE0486ED93E0EF
:103A00000E9403070E943007C093ED041093EE0458
:103A10008FEC93E00E94D1061092ED0413E1109315
:103A2000EE0486EC93E00E9403070E940E07C09309
:103A3000ED041093EE048FEB93E00E94D1061092F8
:103A4000ED04C093EE0489EB93E00E9403070E940B
:103A5000D806C093ED04C093EE0489EB93E00E9476
:103A6000D1061092ED0486E18093EE04D093EB042E
:103A7000C1E0C093EC0487EB93E00E940B068EEA52
:103A800093E00E94CA0688EF95E00E94CA06D09390
:103A9000EB04C093EC048CEA93E00E940B0687EAE7
:103AA00093E00E94CA06D093EB04C093EC0485EA2D
:103AB00093E00E940B0680EA93E00E94CA061092EF
:103AC000ED0487E18093EE04C0E26FE587EE94E0B9
:103AD0000E94D305C150C9F71092ED0488E180938C
:103AE000EE0489E993E00E94CA068CE893E00E9404
:103AF000D10681E893E00E94CA061092ED0489E1A4
:103B00008093EE0489E993E00E94CA0688E793E077
:103B10000E94D10689E693E0DF91CF911F910F912A
:103B20000C94CA060F931F93CF93C82F8B010E944A
:103B3000AE0F80914101811104C061E080E10E94DB
:103B4000770B8091F104882309F4E7C08091870402
:103B5000882309F47DC0C43108F0DFC0EC2FF0E009
:103B6000EC54F24E0C944C3FC81DCD1DD81DE21DE7
:103B7000E71DEC1DF11DF61DFB1D001E051E8D1E13
:103B80000A1E0F1E141E191E8D1EDD1D1E1E231E55
:103B9000CF911F910F910C94EF1B80910105833001
:103BA00009F0BBC0C801CF911F910F910C94C918A7
:103BB000CF911F910F910C940808CF911F910F91F5
:103BC0000C94B407CF911F910F910C943308CF91AF
:103BD0001F910F910C945609CF911F910F910C9446
:103BE0002B09CF911F910F910C940009CF911F9138
:103BF0000F910C94CC08CF911F910F910C94A108B8
:103C0000CF911F910F910C948008CF911F910F912C
:103C10000C945E08CF911F910F910C940E07CF91D9
:103C20001F910F910C94D806CF911F910F910C9476
:103C3000AA1BCF911F910F910C948607CF911F91D2
:103C40000F910C945B07CF911F910F910C9430074B
:103C5000C03108F05DC0CC3028F48EEF8C0F893075
:103C600008F05BC00E94AE0F609332017093330185
:103C7000809334019093350180918804811107C0AD
:103C80008FE08093EB041092EC040E94C00A81E064
:103C90008093880480936504E0911B04F0911C04D8
:103CA00070E060E080E109958FE08093EB04109272
:103CB000EC040E94C00A80E0C03109F485E00E9453
:103CC000AB09C03151F18FE08093EB041092EC040A
:103CD0001092ED0485E08093EE04C250C23128F5C5
:103CE000EC2FF0E0EA58F14E0C944C3FCF1ECC1E66
:103CF000911EB71EBA1EBD1EC01EC31EC61E951E37
:103D0000DE1EE11EC91ED51E951ED21ED81EDB1E4C
:103D10008FEE8C0F833008F4A5CFCF911F910F91B8
:103D2000089585EA94E00E940B060E9426061092F0
:103D3000ED0486E08093EE04C23108F047C0EC2F1A
:103D4000F0E0EB55F14E0C944C3F031F001FE41EB6
:103D5000EB1EEE1EF11EF41EF71EFA1EE61E121FCB
:103D6000151FFD1E091FE61E061F0C1F0F1F80E9F1
:103D700094E0D9CF82E894E0D6CF82E794E0D3CF25
:103D800081E694E0D0CF83E594E0CDCF85E494E064
:103D9000CACF86E394E0C7CF84E294E0C4CF82E147
:103DA00094E0C1CF82E094E0BECF84EF93E0BBCF3C
:103DB00086EE93E0B8CF86ED93E0B5CF86EC93E046
:103DC000B2CF89EB93E0AFCF0E945609CF911F91FC
:103DD0000F910C9426060E942B09F8CF0E9400092F
:103DE000F5CF0E94CC08F2CF0E94A108EFCF0E942D
:103DF0008008ECCF0E945E08E9CF0E94AA1BE6CFA4
:103E00000E943308E3CF0E940808E0CF0E94B40765
:103E1000DDCF0E948607DACF0E945B07D7CF0E94D2
:103E20003007D4CF0E940E07D1CF0E94D806CECF44
:103E3000611103C064E10C94801B6AE0FCCF0F9316
:103E40001F93CF93DF93682F61700EE714E0F801A2
:103E50006083C0E8D4E086958170888388E090E034
:103E60000E94181F68818AE090E00E94181FF801E4
:103E7000808180935C04888180935E04DF91CF9180
:103E80001F910F9108958130F9F0C8F08230F9F058
:103E9000833019F160917A0484E090E00E94181F49
:103EA00060917B0485E090E00E94181F80917A0465
:103EB0008093570480917B04809358040895109256
:103EC0007A0410927B04E6CF80937A04FACF1092A2
:103ED0007A0481E080937B04DDCF81E080937A04D3
:103EE000F9CF90911D04992309F444C09091F104F5
:103EF000992309F43FC0882319F0813059F10895BE
:103F000060913705609373048CE090E00E94181F65
:103F100061E080E10E94770B64E670E080E090E071
:103F20000E94380F60E080E10E94770B64E670E049
:103F300080E090E00E94380F61E080E10E94770B02
:103F400064E670E080E090E00E94380F60E080E17D
:103F50000C94770B80918704882361F08091010590
:103F6000833041F440914B0560914A0580914905A9
:103F70000C9472150895CF93C09172048C1708F4B5
:103F8000C82FC09371046C2F8EE090E00E94801BBC
:103F90008C2F817080936304C695C170C0936404B4
:103FA000CF910895CF93C82F853008F0C4E0C09317
:103FB00083046C2F8FE090E00E94801B8C2F817017
:103FC00080936604C1FB882780F980936704C2FB55
:103FD000CC27C0F9C0936804CF910895CF92DF92A7
:103FE000EF92FF92CF93DF936A017B01692F661FE7
:103FF0006627661F609376021092750260934A04EA
:10400000382F331F3327331F30935504FC01FF270C
:10401000E6FB332730F930935404E5FB332730F9BE
:1040200030935304E4FB332730F930935204E3FB1D
:10403000332730F930935104E2FB332730F93093C2
:104040005004E1FB332730F930934F043E2F317099
:1040500030934E0491110C940E29863011F00C947B
:104060000E29DF91CF91FF90EF90DF90CF900C94CD
:104070007A040E947A0480917502882341F080912D
:10408000A8049091A904892B11F410921E04809128
:10409000A8049091A904181619061CF481E08093D5
:1040A0001E04809176048823C1F0809177048823D0
:1040B000A1F080917302882381F01092760410920F
:1040C000770410927302109274021092750210928B
:1040D000A9041092A8040E946A0F80917604882394
:1040E000C1F1809177048823A1F180917202882325
:1040F00081F110927604109277041092720210925D
:104100007402109275021092A9041092A804EEE1B4
:10411000F4E0119244E0E734F407D9F7C1E0C0932A
:1041200047040E94AF03C09325040E94AF0364EFCD
:1041300071E080E090E00E94380F109247040E94E6
:10414000AF0364EF71E080E090E00E94380F1092BE
:104150002504DF91CF91FF90EF90DF90CF900895ED
:1041600020916E04222371F02FE030E0892F80959A
:10417000881F8827881F285E3B4FF901868380931C
:10418000740279CF30E020E0F1CF20916E04222339
:1041900071F030E020E0892F8095881F8827881FE4
:1041A000285E3B4FF90186838093760464CF2FE02D
:1041B00030E0F1CF80917604C92FC095882311F0AB
:1041C0006623C1F03C2F331F3327331F30932D0458
:1041D00020916E0486E090E0211102C090E080E022
:1041E000885E9B4FFC013683211104C08AE090E079
:1041F0000E948A04CC1FCC27CC1FC09377043BCFEE
:1042000080917604C92FC095882311F06623C1F0F0
:104210003C2F331F3327331F30932D0420916E041E
:1042200087E090E0211102C090E080E0885E9B4F23
:10423000FC013683211104C08BE090E00E948A04C7
:10424000CC1FCC27CC1FC093770415CF20917402CC
:10425000211111CF892F8095982F991F9927991F88
:1042600020916E04222351F09093230490934604EE
:10427000881F8827881F80937302FDCE90932D049A
:1042800090933604F5CF892F8095881F8827881F43
:1042900080937504F0CE892F8095881F8827881F0A
:1042A00080937404E8CE209174022111E4CE892F0A
:1042B0008095881F8827881F90916E04992329F084
:1042C00080932B0480934604D6CE80932D04809354
:1042D0001F04D1CE209174022111CDCE892F80955B
:1042E000881F8827881F80938E0480931E04611185
:1042F00002C00E948A0F6091760281E08627809337
:104300003A0487E190E00E948A04B5CE20917402BD
:104310002111B1CE892F8095881F8827881F80930F
:104320008F0480931E04611102C00E948A0F609165
:10433000760281E086278093420488E190E00E9423
:104340008A0499CE20917402211195CE892F8095EF
:10435000881F8827881F8093900480931E04611112
:1043600002C00E948A0F6091760281E086278093C6
:10437000410485E190E00E948A047DCE2091740280
:10438000211179CE892F8095881F8827881F8093D7
:10439000910480931E04611102C00E948A0F6091F3
:1043A000760281E086278093320486E190E00E94C5
:1043B0008A0461CE2091740421110CC020917504EF
:1043C000211108C0209176042223B9F120917704AD
:1043D000222399F161114FCE8091890490918A0432
:1043E000A0918B04B0918C04A7019601281B390B76
:1043F0004A0B5B0BDA01C901893C9105A105B105A6
:1044000008F439CE8091870491E08927809387044E
:1044100080936104882341F0E0911B04F0911C0417
:1044200070E060E080E00995C0928904D0928A042F
:10443000E0928B04F0928C041ECE892F8095881F09
:104440008827881F8093930480931E0490916E04A4
:1044500023E030E0911102C027E030E0285E3B4FBE
:10446000F90186838BE190E00E948A0404CEC92F73
:10447000C095CC1FCC27CC1FC0931E04C093220430
:104480008CE190E00E948A04C0937202F4CD892FDF
:104490008095881F8827881F809324048093920426
:1044A000EACD892F8095881F8827881F809325044F
:1044B000E2CD892F8095881F8827881F80931F044D
:1044C000DACD892F8095881F8827881F809345041F
:1044D000D2CD892F8095881F8827881F8093360426
:1044E000CACD2091740421110CC0209175042111B2
:1044F00008C0209176042223E9F02091770422233A
:10450000C9F06111B8CD6091840481E0682760939F
:10451000840480E190E00E94181F809184048093BD
:104520006904E0911B04F0911C0470E060E082E1FA
:104530000995A1CD892F8095881F8827881F809392
:104540002F0499CD892F8095881F8827881F8093F5
:10455000300491CD892F8095881F8827881F8093EC
:10456000370489CD892F8095881F8827881F8093DD
:104570003F0481CD892F8095881F8827881F8093CD
:10458000440479CD892F8095881F8827881F8093C0
:10459000330471CD2091740421110CC02091750455
:1045A000211108C0209176042223E9F0209177049C
:1045B0002223C9F061115FCD6091820481E06827F8
:1045C000609382048DE090E00E94181F8091820425
:1045D00080936004E0911B04F0911C0470E060E0A3
:1045E00082E0099548CD892F8095881F8827881FEC
:1045F00080933C0440CD892F8095881F8827881F91
:104600008093340438CD892F8095881F8827881F90
:1046100080932C0430CD2091740421110CC0209182
:104620007504211108C0209176042223E9F020911D
:1046300077042223C9F061111ECD809183048F5F1E
:10464000853078F480938304809183040E94D21F84
:10465000E0911B04F0911C0470E060E081E1099599
:104660000ACD10928304F0CF892F8095881F882768
:10467000881F80933504FFCC2091740421110CC055
:1046800020917504211108C0209176042223E9F0BD
:10469000209177042223C9F06111EDCC609185044B
:1046A00081E068276093850481E190E00E94181FF3
:1046B0008091850480936A04E0911B04F0911C04AE
:1046C00070E060E083E10995D6CC892F8095881F42
:1046D0008827881F80933D04CECC892F8095881F22
:1046E0008827881F80932B04C6CC892F8095881F2C
:1046F0008827881F80932304BECC892F8095881F2C
:104700008827881F80932004B6CC892F8095881F26
:104710008827881F80933804AECC892F8095881F06
:104720008827881F80932704A6CC892F8095881F0F
:104730008827881F809340049ECC892F8095881FEE
:104740008827881F80933B0496CC20917404211104
:104750000CC020917504211108C0209176042223F9
:10476000F1F0209177042223D1F0611184CC809163
:1047700071048F5F8093710490917204981710F404
:1047800010927104809171040E94BB1FE0911B0480
:10479000F0911C0470E060E08FE009956CCC892FEB
:1047A0008095881F8827881F80933E0464CC892FBA
:1047B0008095881F8827881F809328045CCC892FC8
:1047C0008095881F8827881F80932E0454CC892FBA
:1047D0008095881F8827881F809343044CCC892F9D
:1047E0008095881F8827881F8093260444CC892FB2
:1047F0008095881F8827881F809322043CCC892FAE
:104800008095881F8827881F8093210434CC892FA6
:104810008095881F8827881F809329042CCC892F96
:104820008095881F8827881F8093310424CC892F86
:104830008095881F8827881F809339041CCC892F76
:104840008095881F8827881F8093410414CC892F66
:104850008095881F8827881F809342040CCC892F5D
:104860008095881F8827881F80933A0404CC892F5D
:104870008095881F8827881F80933204FCCB892F5E
:104880008095881F8827881F80932A04F4CB892F5E
:104890008095881F8827881F80932204ECCB892F5E
:1048A0008095881F8827881F80932104E4CB892F57
:1048B0008095881F8827881F80932904DCCB892F47
:1048C0008095881F8827881F80933104D4CB892F37
:1048D0008095881F8827881F80933904CCCB892F27
:1048E0008095881F8827881F80934104C4CB892F17
:1048F0008095881F8827881F80934204BCCB892F0E
:104900008095881F8827881F80933A04B4CB892F0D
:104910008095881F8827881F80933204ACCB892F0D
:104920008095881F8827881F80932A04A4CB292F6D
:104930002095221F2227221F20932D0430917402DC
:1049400085E090E0311102C08CE190E0885E9B4FE1
:10495000FC012683662321F01092230410923A046E
:104960003093750288CB292F2095221F2227221FE2
:1049700020932D04309174028AE190E0311102C03D
:104980008FE190E0885E9B4FFC012683662321F037
:104990001092380410923D04309375026CCB292F8D
:1049A0002095221F2227221F20932D04309174026C
:1049B00082E290E0311102C087E190E0885E9B4F77
:1049C000FC012683662321F01092400410923504E6
:1049D0003093750250CB292F2095221F2227221FAA
:1049E00020932D043091740288E090E0311102C0D0
:1049F0008DE090E0885E9B4FFC012683662321F0CA
:104A00001092260410922B043093750234CB20911F
:104A10006E0421110BC061112ECB2091740269E14B
:104A2000211101C065E20E94F91125CB292F2095A3
:104A3000221F2227221F20932D0480917402882395
:104A400071F089E190E0885E9B4FFC01268366232C
:104A500009F411CB10923704109243040CCB85E279
:104A600090E0F1CF20916E0421110BC0611103CBB6
:104A70002091740261E2211101C06DE10E94F911DF
:104A8000FACA292F2095221F2227221F20932D04A6
:104A900080917402882371F081E290E0885E9B4FE0
:104AA000FC012683662309F4E6CA10923F041092A3
:104AB0003B04E1CA8DE190E0F1CF292F2095221F20
:104AC0002227221F20932D043091740288E190E068
:104AD000311102C080E290E0885E9B4FFC0126838A
:104AE000662321F01092360410923E043093750232
:104AF000C2CA20916E0421110BC06111BCCA209161
:104B0000740269E0211101C061E10E94F911B3CA88
:104B1000292F2095221F2227221F20932D048091C8
:104B20007402882371F089E090E0885E9B4FFC015D
:104B30002683662309F49FCA1092270410922F043B
:104B40009ACA81E190E0F1CF292F2095221F2227D8
:104B5000221F20932D043091740286E190E03111E0
:104B600002C08EE090E0885E9B4FFC0126836623A6
:104B700021F01092340410922C04309375027BCAF9
:104B8000292F2095221F2227221F20932D043091A8
:104B9000740284E090E0311102C08EE190E0885E02
:104BA0009B4FFC012683662321F010922204109271
:104BB0003C04309375025FCAC0917402CC2309F49F
:104BC0001FC3611103C061E00E94F911C093750217
:104BD00052CA892F8095881F8827881F80932D04AB
:104BE0008093450448CA892F8095881F8827881F8D
:104BF00080932D0480933C043ECA892F8095881FA2
:104C00008827881F80932D048093340434CA209110
:104C1000740421110CC020917504211108C0209149
:104C200076042223E9F0209177042223C9F0611150
:104C300022CA6091810481E06827609381048BE03F
:104C400090E00E94181F8091810480935F04E0919E
:104C50001B04F0911C0470E060E083E009950BCA2E
:104C6000892F8095881F8827881F80931E04809332
:104C700033048DE190E00E948A04FDC9892F80955C
:104C8000881F8827881F80931E0480932D0483E04B
:104C900090E00E948A04EFC9209174022111EBC9AF
:104CA000892F8095881F8827881F90916E049923EB
:104CB00029F08093350480934604DDC980931E0457
:104CC0008093310483E190E00E948A04D4C920914A
:104CD00074022111D0C9892F8095881F8827881FC9
:104CE00090916E04992329F080933D0480934604AB
:104CF000C2C980931E048093390484E190E00E942D
:104D00008A04B9C9209174022111B5C9892F8095EF
:104D1000881F8827881F8093340480934604ABC97A
:104D2000209174022111A7C9892F8095881F882797
:104D3000881F80932C04809346049DC9209174049D
:104D400021110CC020917504211108C02091760416
:104D5000222391F020917704222371F061118BC9F5
:104D600080E00E94431FE0911B04F0911C0470E05E
:104D700060E084E009957FC9892F8095881F882786
:104D8000881F80931F048093460475C92091740482
:104D900021110CC020917504211108C020917604C6
:104DA000222391F020917704222371F0611163C9CD
:104DB00081E00E94431FE0911B04F0911C0461E01C
:104DC00070E084E0099557C9892F8095881F88274E
:104DD000881F80934504809346044DC92091740434
:104DE00021110CC020917504211108C02091760476
:104DF000222391F020917704222371F061113BC9A5
:104E000082E00E94431FE0911B04F0911C0462E0C9
:104E100070E084E009952FC9892F8095881F882725
:104E2000881F809336048093460425C9209174041A
:104E300021110CC020917504211108C02091760425
:104E4000222391F020917704222371F0611113C97C
:104E500083E00E94431FE0911B04F0911C0463E077
:104E600070E084E0099507C9892F8095881F8827FD
:104E7000881F80932F0480934604FDC820917404FA
:104E800021110CC020917504211108C020917604D5
:104E90002223E9F0209177042223C9F06111EBC8A5
:104EA00060917C0481E0682760937C0486E090E058
:104EB0000E94181F80917C0480935904E0911B0488
:104EC000F0911C0470E060E085E00995D4C8892F5A
:104ED0008095881F8827881F80933004809346041C
:104EE000CAC82091740421110CC0209175042111AD
:104EF00008C0209176042223E9F020917704222330
:104F0000C9F06111B8C860917D0481E068276093A1
:104F10007D0487E090E00E94181F80917D048093BB
:104F20005B04E0911B04F0911C0470E060E086E0FB
:104F30000995A1C8892F8095881F8827881F80938D
:104F400037048093460497C82091740421110CC043
:104F500020917504211108C0209176042223C1F00C
:104F6000209177042223A1F0611185C880917E04ED
:104F7000909180048F5F911180E00E941F1FE0914B
:104F80001B04F0911C0470E060E087E0099573C891
:104F9000892F8095881F8827881F80933F048093DE
:104FA000460469C820917404211108C02091760438
:104FB0002223E9F0209177042223C9F061115BC814
:104FC00060917F0481E0682760937F0489E090E02E
:104FD0000E94181F80917F0480935D04E0911B0460
:104FE000F0911C0470E060E088E0099544C8892FC6
:104FF0008095881F8827881F8093440480934604E7
:105000003AC82091740421110CC02091750421111B
:1050100008C0209176042223F1F020917704222306
:10502000D1F0611128C86091780481E0682760930D
:10503000780482E090E00E94181F809178048093A9
:105040004C04E0911B04F0911C0470E060E089E0E6
:1050500009950C943B20892F8095881F8827881FED
:1050600080933304809346040C943B202091740475
:1050700021110CC020917504211108C020917604E3
:105080002223F9F0209177042223D9F061110C94A6
:105090003B206091790481E068276093790483E084
:1050A00090E00E94181F8091790480934D04E09154
:1050B0001B04F0911C0470E060E08AE009950C94F8
:1050C0003B20892F8095881F8827881F80933C0468
:1050D000809346040C943B202091740421110CC051
:1050E00020917504211108C020917604222309F132
:1050F000209177042223E9F061110C943B208091E8
:105100006F048F5F80936F0490917004981710F470
:1051100010926F0480916F040E94941B60916F0441
:1051200070E0E0911B04F0911C048EE009950C9452
:105130003B20892F8095881F8827881F8093200413
:1051400080932D040C943B202091740421110CC0F9
:1051500020917504211108C020917604222329F1A1
:1051600020917704222309F161110C943B20CEE1B8
:10517000D4E0FE01119224E0E734F207D9F781E090
:10518000809349040E94AF0364E670E080E090E001
:105190000E94380F199234E0C734D307D9F7109220
:1051A00049040E94AF030C943B20892F8095881FEF
:1051B0008827881F8093280480932D040C943B201B
:1051C0008091740281110C943B2061110C943B205E
:1051D00060916E0481E0682760936E0481E090E046
:1051E0000E94181F80916E0480935A04E0911B0462
:1051F000F0911C0470E060E08CE009950C943B2079
:105200002091E2042111E2CC892F8095881F882704
:10521000881F80932D0480932E04D8CC3397EA36D0
:10522000F10510F00C944720E85EF64D0C944C3FCD
:105230003E26E0283920B020B020C520C520DA2045
:105240000021432143214B214720472082269026DD
:105250004C266726A221BE216A21862153212621C0
:10526000DA21372207264722512247244F24572488
:105270005F2467246F2477247F2487248F24CF24FE
:105280004722FD25F325E9255D25F723FF23072484
:105290000F2417241F2427242F2437243F24972446
:1052A000B324C025CF245D254720DC255922612267
:1052B00069227122A222AA22B222BA22C222CA22C0
:1052C000FB2203230B233C236D2375237D2385239E
:1052D0008D2395239D23A523D723DF23E723EF23C6
:1052E000EB24792507253225A42547209E26C626AE
:1052F000EE2616273E277127A427D2270128362815
:105300006C28A4280C94C63E0F931F93CF93DF9371
:10531000D0E0C0E004E610E0CE30D10508F008C1CE
:10532000FE01EB56F64D0C944C3FA329C029D2291F
:10533000E429F629162A362A482A5A2A6C2A832A68
:105340008B2A922A952A209109048091120488239D
:1053500049F0822F6AE00E94403F982F990F890FF1
:10536000880F280F622F80E00E9472032196C115DA
:1053700081E0D80789F6DF91CF911F910F910895B1
:1053800020910A0480911204882349F0822F6AE058
:105390000E94403F982F990F890F880F280F622F86
:1053A00081E0E2CF2091080480911204882349F023
:1053B000822F6AE00E94403F982F990F890F880F33
:1053C000280F622F82E0D0CF20910B04809112042D
:1053D000882349F0822F6AE00E94403F982F990F5E
:1053E000890F880F280F622F83E0BECF80911204AF
:1053F0002091070490911304992371F0882349F0B8
:10540000822F6AE00E94403F982F990F890F880FE2
:10541000280F622F84E0A8CF882321F02D3080F35D
:105420002CE8EECF2D30A8F32CE8F3CF80911204B6
:1054300020910C0490911304992371F0882349F072
:10544000822F6AE00E94403F982F990F890F880FA2
:10545000280F622F85E088CF882321F02D3080F33C
:105460002CE8EECF2D30A8F32CE8F3CF20910D04DB
:1054700080911204882349F0822F6AE00E94403F05
:10548000982F990F890F880F280F622F86E06CCF15
:105490002091060480911204882349F0822F6AE04B
:1054A0000E94403F982F990F890F880F280F622F75
:1054B00087E05ACF2091050480911204882349F097
:1054C000822F6AE00E94403F982F990F890F880F22
:1054D000280F622F88E048CF809103049091040444
:1054E000B8010E94F03E282F90911204992341F0B8
:1054F0006AE00E94403F982F880F890F880F820F23
:10550000682F89E031CF8AE290E00E948229682FDB
:105510006F778AE029CF8BE290E00E948229682F82
:105520008BE022CF60E08CE01FCF60E88DE01CCFE5
:10553000CE0180960E948229682F8C2F15CF1F9351
:10554000CF93DF93182FD62FC42F9091E30480912F
:10555000E4049CBD8DBD60E087E00E94770B1EBD1A
:1055600000000DB407FEFDCF1EB5DEBD00000DB47A
:1055700007FEFDCFDEB5CEBD00000DB407FEFDCFAA
:10558000CEB561E087E00E94770B112319F11D3F32
:1055900029F58091310181111DC081E08093310195
:1055A0008C2F90E0D6E095958795DA95E1F7CF734B
:1055B0008093700420916F04821710F40E94941B52
:1055C0000E94AF030E9484290E9484290E946A0FCE
:1055D000C093F204DF91CF911F9108951C3F61F4B5
:1055E000809111048111F6CF81E080931104DF9145
:1055F000CF911F910C948429103F09F029C1ED2F00
:10560000F0E0EB51FB4FC687E5CF8C2F8170809384
:105610004001C1FB882780F980933A01C2FB8827AB
:1056200080F980934101C3FBCC27C0F9C0933B01B3
:10563000D1CF80911204882369F08C2F90E0B4E0E0
:1056400095958795BA95E1F7982F990F990F891B32
:10565000880FC80FC09309048C2FDF91CF911F9141
:105660000C942F1A80911204882369F08C2F90E0FB
:10567000A4E095958795AA95E1F7982F990F990F32
:10568000891B880FC80FC0930A04A4CF809112040D
:10569000882369F08C2F90E0F4E095958795FA9532
:1056A000E1F7982F990F990F891B880FC80FC093A6
:1056B00008048C2FDF91CF911F910C94060D8091DF
:1056C0001204882369F08C2F90E0E4E0959587958B
:1056D000EA95E1F7982F990F990F891B880FC80F4A
:1056E000C0930B0477CF80911204882369F08C2F2C
:1056F00090E074E0959587957A95E1F7982F990F4A
:10570000990F891B880FC80FC09307040E94101AB5
:1057100080910704DF91CF911F910C94D51980914E
:105720001204882369F08C2F90E064E095958795AA
:105730006A95E1F7982F990F990F891B880FC80F69
:10574000C0930C0447CF80911204882369F08C2FFA
:1057500090E054E0959587955A95E1F7982F990F29
:10576000990F891B880FC80FC0930D048C2FDF91F0
:10577000CF911F910C94F50C80911204882369F04D
:105780008C2F90E044E0959587954A95E1F7982F06
:10579000990F990F891B880FC80FC09306048C2F8F
:1057A000DF91CF911F910C94DC0C8091120488231F
:1057B00069F08C2F90E034E0959587953A95E1F764
:1057C000982F990F990F891B880FC80FC093050454
:1057D0008C2FDF91CF911F910C94C30C80911204F8
:1057E000882369F08C2F90E024E0959587952A9581
:1057F000E1F7982F990F990F891B880FC80F8C2FED
:1058000090E08053984F9093040480930304DF91B9
:10581000CF911F910C94A30C6C2F6F778AE290E0CC
:10582000DF91CF911F910C94801BC2FB882780F9D8
:1058300091E0892780931204C1FB882780F9809327
:1058400013046C2F8BE290E0EBCF6C2F8096E8CFA7
:105850001E3009F4DACE1A3F09F0BCCE20910E04B6
:1058600030910F048D2F90E02817390739F42091DB
:105870001004C21303C0DE3008F4ACCE90930F04C2
:1058800080930E04C0931004DE30F8F6855B934DD0
:10589000FC010C944C3F192B322B462B5F2B732BA6
:1058A0008F2BA32BBC2BD52BEE2B0C2C152CEA2AE3
:1058B000EA2A0F931F93CF938C01C62F0E9482294F
:1058C0008A3011F0843149F4C1E08A3009F0C0E037
:1058D0008C2FCF911F910F91089564E1C1116AE05F
:1058E000C8010E94801BF4CF1F920F920FB60F9237
:1058F00011242F933F934F935F936F937F938F93D5
:105900009F93AF93BF93EF93FF938091B900887FEC
:10591000803609F44AC0F0F5883209F4A5C018F5BC
:10592000803109F499C0B8F4882309F4F5C08830AF
:1059300009F492C0FF91EF91BF91AF919F918F9128
:105940007F916F915F914F913F912F910F900FBE7B
:105950000F901F901895883109F486C0803251F756
:105960008093C70314C0803409F49BC040F4803393
:10597000B9F38833F9F68093C70385ECAEC0803560
:1059800009F483C0883509F494C0883499F60E94DC
:105990001005D0CF883909F48AC038F5883729F046
:1059A00050F4883611F0803729F683E08093CB03DA
:1059B0001092710255C0883809F479C0803919F005
:1059C000803809F0B7CF80917102803208F06FC043
:1059D000E091710281E08E0F809371028091BB0093
:1059E000F0E0EF5AFD4F80833BC0803B39F0D0F4AC
:1059F000803A09F477C0883A09F09CCF84E080931C
:105A0000CB031092500210924F02F0E0E0E00995B3
:105A100080914F0281110FC081E080934F0210925C
:105A20002F0209C0803C09F4A8CF883C09F4A5CF17
:105A3000883B09F07FCFE091500281E08E0F809388
:105A40005002F0E0E15DFD4F80818093BB009091BA
:105A5000500280914F0229C08091A4038093BB0023
:105A600085EC8093BC0066CF9091C6038091C503FE
:105A7000981758F5E091C60381E08E0F8093C60316
:105A8000F0E0EB55FC4F8081E9CFE091C60381E067
:105A90008E0F8093C6038091BB00F0E0EB55FC4F66
:105AA00080839091C6038091C5039817C8F285E85A
:105AB000D8CFE091C60381E08E0F8093C60380911A
:105AC000BB00F0E0EB55FC4F80838091C80381114F
:105AD0005ECF81E08093A30384EA8093BC001092A0
