:100000000C948F030C94F6240C94CF240C94B70317
:100010000C94B7030C94B7030C94B7030C94B70378
:100020000C94B7030C94B7030C94B7030C94B70368
:100030000C94B7030C94B7030C94B7030C94B70358
:100040000C9485240C94B7030C9443250C941D2523
:100050000C94B7030C94B7030C94B7030C94B70338
:100060000C946A230C94B70320746F20746F676735
:100070006C65204F5344004D656E752B455343000E
:100080005072657373200020746F207265626F6F09
:1000900074004374726C2B416C742B44656C00507B
:1000A0007265737320004A6F793A004D6F757365FE
:1000B0003A005363616E636F64653A005061757313
:1000C000650050617573653A005072745363720035
:1000D0004B6579626F6172643A004D656E752B4AAB
:1000E000004A6F79737469636B3A004D656E752BC6
:1000F0005461620053776170204644443A004D6574
:100100006E752B46313100547572626F3A004D6541
:100110006E752B463130005653796E633A004D654B
:100120006E752B463900566964656F3A004D656EF1
:10013000752B46380053534720747970653A004D4B
:10014000656E752B46370053746572656F3A004DC6
:10015000656E752B463600436F766F783A004D65B5
:100160006E752B463500547572626F4644433A00F3
:100170004D656E752B46312D463400524F4D204251
:10018000616E6B3A00646F6E650052544320696E75
:10019000697420726571756573742E2E2E00556E0C
:1001A0006B6E6F776E005265762E445320776974BC
:1001B0006820544441313534334120444143005296
:1001C00065762E4453207769746820544441313554
:1001D000343320444143005265762E412F422F4351
:1001E0002F442077697468205444413135343341B9
:1001F00020444143005265762E412F422F432F4425
:1002000020776974682054444131353433204441A7
:1002100043004650474120626F61726420726576E8
:100220006973696F6E2069733A2000646F6E6500B0
:100230004650474120696E69742072657175657317
:10024000742E2E2E005265762E4453202F205444B7
:10025000413135343341005265762E4453202F20EE
:100260005444413135343320005265762E41202FDD
:10027000205444413135343341005265762E4120BB
:100280002F205444413135343320005F5F5F5F5F7E
:100290005F5F5F5F5F5F5F5F5F5F5F5F5F5F5F5F6E
:1002A0005F5F5F5F5F5F5F5F5F5F5F004B617261BA
:1002B0006261732D50726F0044656661756C7420C5
:1002C000004644496D6167652000466C617368654E
:1002D00072200050512D444F532020004F6E2000BB
:1002E0004F6666004F6E20004F6666004D6F6E6F62
:1002F00000414342200041424320004159332D3800
:1003000039313200594D323134394620005247429A
:100310002031356B487A005647412033306B487A9C
:1003200000363020487A00353020487A004F6E2061
:10033000004F6666004F6E20004F666600534547CB
:1003400041200041746172690050726F66692058E3
:100350005400537065637472756D004F6E20004FCA
:1003600066660030002000300030002000300020A1
:10037000003000506C656173652077616974004CD2
:100380006F6164696E672E2E2E00537461727469FA
:100390006E67206D61696E206C6F6F7000646F6EA8
:1003A00065004F534420696E69742E2E2E00646FD1
:1003B0006E65005254432073656E6420616C6C203E
:1003C0007265676973746572732E2E2E00646F6E8A
:1003D0006500525443206973206E6F742072756EED
:1003E0006E696E672E2053746172696E672069743E
:1003F0002E2E2E0052544320696E69742E2E2E002C
:100400004D6F75736520696E69742E2E2E00696EAE
:1004100076616C696420636F6465207265636569E9
:10042000766564206F6620006E6F7420666F756E4F
:100430006400646F6E65004B6579626F6172642061
:10044000696E69742E2E2E0057616974696E67207B
:10045000666F72204650474120696E69742072654C
:100460007175657374005A58204B6579626F6172BB
:1004700064202F206D6F757365202F2072746320A8
:10048000636F6E74726F6C6C65722076312E300003
:100490002E002E003A003A004D6F75736520707281
:1004A0006573656E743A20004D6F757365206E6FCD
:1004B000742070726573656E742E20547279696E43
:1004C0006720746F20696E6974206D6F7573653A6B
:1004D0002000646F6E650042544E323A20526573BC
:1004E00065742E2E2E00646F6E650042544E313AB4
:1004F000204D616769632E2E2E0020503A00204A5D
:100500003A002046323A002046313A0020523A0062
:10051000204C3A0020443A0020553A004B656D705B
:1005200073746F6E204A6F79737469636B3A20003D
:1005300028332062746E29200028362062746E29C8
:100540002000284F4646292000284F4E29200053DE
:10055000454741204A6F79737469636B3A200020E4
:10056000436F64653A200020537461747573206290
:100570006974733A200056616C75653A200000007A
:100580000000240027002A000000000025002800A9
:100590002B000000000023002600290004040404AE
:1005A000040404040202020202020303030303031D
:1005B00001020408102040800102040810200102FA
:1005C00004081020000000080002010000030407D6
:1005D00000000000000000001912181415BB1611CD
:1005E00017131A404020200804020277017E0258A7
:1005F00003120659071408110A8410761B661C0D95
:100600001D5A1E291F7020692172227A236B2473C0
:100610002574266C2775287D29712A792C7B2D7CE1
:100620002E0F3F453016311E32263325342E3536F7
:10063000363D373E384639523A413B4E3C493D4AB9
:100640003E0E401C4132422143234424452B463474
:1006500047334843493B4A424B4B4C3A4D314E4459
:100660004F4D5015512D521B532C543C552A561D9D
:1006700057225835591A5A4C5B5D5C545D5B5E5588
:100680005F618B0561066204630C6403650B66831E
:10069000670A680169096A786B076C086D106E1843
:1006A0006F207028713072387340744875507657D7
:1006B000775F786D60519113926A9364946795F2B5
:1006C00096F197639862995FA012BB7C041409119C
:1006D0000B1F0C270D2F0E7E0F6C1169127D137AE4
:1006E000146B157416751772187019711A5A2B4AF3
:1006F0002F4D79157A3B7B347C237D327E217F50D0
:100700008048812B82408310843A85388630872840
:10071000882089188A378C3F8D5E900075251124BA
:100720001FBECFEFD8E0DEBFCDBF25E0A4E4B1E02F
:1007300001C01D92A339B207E1F711E0A0E0B1E0DA
:10074000E4EBFFE502C005900D92A434B107D9F7A0
:1007500013E0CFE8D3E004C02197FE010E94D22F1E
:10076000CE38D107C9F70E94BD250C94D82F0C9420
:1007700000008230C8F4E82FF0E0EE0FFF1FEA5FC0
:10078000FE4F71836083813041F0809169008C7FDE
:10079000826080936900E89A089580916900837F60
:1007A000886080936900E99A089591E09093A70486
:1007B0008093C9041092A8041092CA0408959091DD
:1007C0007B0480917A042FEF3FEF981748F4E92FCC
:1007D000F0E0E65AFB4F208130E09F5F90937B046E
:1007E000C901089590917B0480917A042FEF3FEF27
:1007F000981748F4E92FF0E0E65AFB4F208130E0EB
:100800009F5F90937B04C901089585ED8093BC00A0
:100810001092A6041092A5048091BC0084FF0BC026
:100820002091A5043091A6048091040190910501C6
:100830002817390718F01092A40408958091A50490
:100840009091A60401969093A6048093A504E4CF0A
:1008500020912C03260F3327331F21323105ECF46E
:100860002091A404FC0190E080E0243069F082E053
:100870000895A0912C032191AC01445F5C4FA40F1B
:10088000B52FB11D2C930196861798F380912C03F8
:10089000680F60932C0380E0089581E00895089527
:1008A000E0917B0480917A04E81730F4F0E0E65A96
:1008B000FB4F808190E008958FEF9FEF0895809126
:1008C0007A0490917B04891B990B0895CF92DF9253
:1008D000EF92FF920F931F93CF93DF937C01CB0195
:1008E0008A012091A704222389F0EB016B01C40E39
:1008F000D51ECC15DD0569F06991D701ED91FC910C
:100900000190F081E02DC7010995F3CF642F0E947B
:100910002804C801DF91CF911F910F91FF90EF90B4
:10092000DF90CF900895CF93DF931F92CDB7DEB7BE
:1009300069832091A7042223F9F02091CA04203270
:1009400058F021E030E0FC013383228390E080E026
:100950000F90DF91CF9108958091A804E82FF0E0E7
:10096000E755FB4F998190838F5F8093A804809314
:10097000CA0481E090E0ECCF61E0CE0101960E94D4
:100980002804F7CF682F8BEC94E00C949304833009
:1009900081F028F4813099F08230A9F008958730F1
:1009A000A9F08830C9F08430B1F4809180008F7D47
:1009B00003C0809180008F7780938000089584B574
:1009C0008F7784BD089584B58F7DFBCF8091B00073
:1009D0008F778093B00008958091B0008F7DF9CF1C
:1009E000CF93DF93282F30E0F901EC53FA4F849135
:1009F000F901E055FA4FD491F901E456FA4FC49148
:100A0000CC23A1F081110E94C704EC2FF0E0EE0F7F
:100A1000FF1FEE56FA4FA591B491EC91ED2381E0C2
:100A200090E009F480E0DF91CF91089580E090E0BC
:100A3000FACF1F93CF93DF93282F30E0F901EC53C7
:100A4000FA4F8491F901E055FA4FD491F901E45637
:100A5000FA4FC491CC23A9F0162F81110E94C7042C
:100A6000EC2FF0E0EE0FFF1FE857FA4FA591B4917D
:100A70008FB7F894EC91111108C0D095DE23DC9368
:100A80008FBFDF91CF911F910895DE2BF8CF90910A
:100A9000590461E0911101C0682F8FE00C94190591
:100AA000CF93DF93CCEBD0E018821092A40481E0C6
:100AB0008093A10410927C0461E082E10E941905F8
:100AC00061E083E10E941905E9EBF0E080818E7F0F
:100AD000808380818D7F808388E48093B80085E463
:100AE0008883DF91CF9108952091CA0481E021325B
:100AF00070F58091C9041092A6041092A5049091FB
:100B0000A404992359F06091A5047091A604409122
:100B10000401509105016417750700F16091A50467
:100B20007091A60440910401509105016417750766
:100B300000F10E9405040E9450058091A20490914A
:100B4000A30401969093A3048093A20485E01092DD
:100B5000A8041092CA041092A70408954091A50415
:100B60005091A6044F5F5F4F5093A6044093A50495
:100B7000C6CF92E09093A40491E09093A1049FEFDC
:100B80009093A00410929F0420939E04A9EAB4E0DD
:100B9000EEE7F4E090E029136BC010927D04909191
:100BA0007D04880F892B80937D0480917C048130A3
:100BB00009F062C010927C041092A6041092A50461
:100BC00080917D048093BB008091A5049091A60440
:100BD00001969093A6048093A5048091BC0083FFA6
:100BE0000BC02091A5043091A6048091040190913E
:100BF00005012817390720F32091A5043091A60498
:100C000080910401909105012817390708F091CFD0
:100C100085EC8093BC001092A6041092A5048091EC
:100C2000A404823059F42091A5043091A604809147
:100C30000401909105012817390700F12091A504BE
:100C40003091A6048091040190910501281739077D
:100C500008F06FCF8091A0048F3FD1F08091A00465
:100C60008032C1F08091A0048033B1F084E06FCF76
:100C70003D9131939F5F8FCF85EECBCF8091A504BF
:100C80009091A60401969093A6048093A504C7CFE3
:100C900080E05DCF82E05BCF83E059CFCF93DF93DD
:100CA00090E0FC01E055FA4F249184569A4FFC01E4
:100CB00084918823C9F090E0880F991FFC01E258C5
:100CC000FA4FA591B491FC01E857FA4FC591D49120
:100CD00061110DC09FB7F8948C91209582238C935D
:100CE0008881282328839FBFDF91CF9108956230A8
:100CF00051F49FB7F8943C91822F809583238C9375
:100D0000E8812E2BEFCF8FB7F894EC912E2B2C93FC
:100D10008FBFEACFCF93C82F60E00E944E0661E0FC
:100D20008C2FCF910C941905CF93C82F61E00E94AE
:100D30004E0660E08C2FCF910C9419058E50806484
:100D400080937C0080917A00806480937A00809107
:100D50007A0086FDFCCF809178009091790008950B
:100D60003FB7F8948091080390910903A0910A037A
:100D7000B0910B0326B5A89B05C02F3F19F0019633
:100D8000A11DB11D3FBFBA2FA92F982F8827BC01E5
:100D9000CD01620F711D811D911D42E0660F771F0D
:100DA000881F991F4A95D1F708958F929F92AF920D
:100DB000BF92CF92DF92EF92FF924B015C010E94B3
:100DC000B0066B017C010E94B0066C197D098E098A
:100DD0009F09683E734081059105A8F321E0821ABE
:100DE0009108A108B10888EEC80E83E0D81EE11C66
:100DF000F11C81149104A104B10429F7FF90EF9034
:100E0000DF90CF90BF90AF909F908F9008952FB7B5
:100E1000F89460910403709105038091060390910A
:100E200007032FBF0895CF92DF92EF92FF92CF93E7
:100E3000DF93EC010E9407076B017C010E9407070A
:100E40006C197D098E099F0964367105810591052C
:100E500078F480918E050E94F0048C179D0771F73D
:100E600081E0DF91CF91FF90EF90DF90CF900895D8
:100E700080E0F7CFCF93DF9390E080E00E941307EC
:100E8000809190050E94F004EC0181E090E00E94C6
:100E90001307CE01DF91CF910895CF92DF92EF92A9
:100EA000FF920F931F93CF9380918E0590918F05A2
:100EB0000E948A0680919005909191050E948A0671
:100EC00083EC90E00197F1F790E080E00E94130737
:100ED0008FE090E00197F1F781E090E00E94130726
:100EE000C0E010E000E0C12CD12C7601C3940E9438
:100EF0003A07B701A601002E04C0440F551F661F14
:100F0000771F0A94D2F7892BC9F0C42B0F5F1F4FAC
:100F10000830110561F70E943A070E943A07809154
:100F20008E0590918F050E9494068C2FCF911F9172
:100F30000F91FF90EF90DF90CF9008954095C423DC
:100F4000E5CF2091900530919105019759F4C901A1
:100F50000E948A0681E090E00E94130790E080E002
:100F60000C941307C9010E949406F4CFBF92CF924C
:100F7000DF92EF92FF920F931F93CF93DF93C82ED0
:100F800080919005909191050E948A0680918E052E
:100F900090918F050E948A06CBEAD4E0CE0101979A
:100FA000F1F780918E0590918F050E94940621970C
:100FB000F1F780919005909191050E94940683E24B
:100FC00090E00197F1F780918E0590918F050E9436
:100FD0008A0690E080E00E941307B82E882309F467
:100FE0003FC0EE24E394F12CD0E0C0E00C2C000CC8
:100FF000DD0886010C2E02C0159507950A94E2F7CC
:1010000001701127C8010E94A107E026F126219650
:10101000C830D10571F7C7010E94A10780919005E2
:10102000909191050E948A0683EC90E00197F1F778
:1010300090E080E00E94130780918E050E94F004EA
:10104000892BD1F3809190050E94F004892BA1F3A4
:1010500080918E0590918F050E9494060E944D0705
:101060008B2DDF91CF911F910F91FF90EF90DF902B
:10107000CF90BF90089580918E0590918F050E942A
:101080008A0680919005909191050E948A068FEFC3
:1010900090E00E94B607882321F00E944D070E942D
:1010A0004D0788EE90E00E94B60783E090E00E9432
:1010B000B60786EE90E00E94B60783EF90E00E94AC
:1010C000B60788E290E00E94B6078AEE90E00E94A0
:1010D000B60784EF90E00E94B6078BE891E0019795
:1010E000F1F780918E0590918F0582309105A9F0DE
:1010F0000397A9F08FEF61E978E00E94B90380912E
:101100008E0590918F050E948A068091900590919E
:1011100091050E948A0681E0089580E0ECCF81E08D
:10112000EACFCF92DF92EF92FF920F931F93CF936C
:101130008091EA010E94F0048C01C1E0892B09F43E
:10114000C0E00E940707C090D801D090D901E0907C
:10115000DA01F090DB019B01AC012C193D094E092D
:101160005F0969017A013BE0C316D104E104F1048F
:1011700030F01092D7011092D6011092D5016093F1
:10118000D8017093D9018093DA019093DB018091AB
:10119000D7018F5F8093D7018A3048F4823010F5F1
:1011A0008130A1F01092D7011092D6010CC08A3084
:1011B00059F18B30B9F78091D4018D3F78F11092BD
:1011C000D6011092D7011092D50104C01092D5011A
:1011D0001092D401CF911F910F91FF90EF90DF906B
:1011E000CF9008958091D401C80FC093D40180910D
:1011F000D50190E09595879520E0012B09F020E836
:10120000822B8093D501E6CF8091D40181708C1719
:1012100019F08093D401DECF8DEFFBCF8091D60102
:101220008130A1F130F1823061F68091D50190E0FA
:101230009093D1018093D0011092D60180916E02DB
:101240008F5F803108F080E090916F02981709F469
:10125000B8CF48E0849FD0011124A251BE4F98E03E
:10126000ECECF1E001900D929A95E1F780936E021B
:10127000A8CF8091D50190E09093CD018093CC01CF
:101280008091D6018F5F8093D6019BCF8091D5014D
:1012900090E09093CF018093CE01F2CF0895EF922A
:1012A000FF920F931F93CF93DF938C017B01D0E0CC
:1012B000C0E0F701EC0FFD1F6491662361F0D801D7
:1012C000ED91FC910190F081E02DC8010995892BE9
:1012D00011F02196EECFCE01DF91CF911F910F91AA
:1012E000FF90EF900895AF92BF92CF92DF92EF926E
:1012F000FF920F931F93CF93DF936C017B018B01C0
:10130000040F151FEB015E01AE18BF08C017D1070F
:1013100059F06991D601ED91FC910190F081E02D99
:10132000C6010995892B79F7C501DF91CF911F91EE
:101330000F91FF90EF90DF90CF90BF90AF90089506
:10134000FC01538D448D252F30E0842F90E0821BCB
:10135000930B541710F0CF96089501970895FC0150
:10136000918D828D981761F0A28DAE0FBF2FB11DA8
:101370005D968C91928D9F5F9F73928F90E0089500
:101380008FEF9FEF0895FC01918D828D981731F0BA
:10139000828DE80FF11D858D90E008958FEF9FEF0E
:1013A0000895FC01918D228D892F90E0805C9F4FE4
:1013B000821B91098F739927089587ED94E00E940D
:1013C000D10921E0892B09F420E0822F089580E0E3
:1013D00090E0892B29F00E94DD0981110C94000016
:1013E0000895FC01A48DA80FB92FB11DA35ABF4FBA
:1013F0002C91848D90E001968F739927848FA68914
:10140000B7892C93A089B1898C91837080648C9367
:10141000938D848D981306C00288F389E02D808116
:101420008F7D80830895EF92FF920F931F93CF9348
:10143000DF93EC0181E0888F9B8D8C8D98131AC00F
:10144000E889F989808185FF15C09FB7F894EE89F6
:10145000FF896083E889F989808183708064808353
:101460009FBF81E090E0DF91CF911F910F91FF909E
:10147000EF900895F62E0B8D10E00F5F1F4F0F7346
:101480001127E02E8C8D8E110CC00FB607FCFACF01
:10149000E889F989808185FFF5CFCE010E94F109A5
:1014A000F1CFEB8DEC0FFD2FF11DE35AFF4FF082D2
:1014B0009FB7F8940B8FEA89FB8980818062CFCF38
:1014C000CF93DF93EC01888D8823B9F0AA89BB897B
:1014D000E889F9898C9185FD03C0808186FD0DC066
:1014E0000FB607FCF7CF8C9185FFF2CF808185FF87
:1014F000EDCFCE010E94F109E9CFDF91CF910895A0
:101500001092CB011092CA011092C9011092C80129
:101510001092D6031092D5031092C7011092540373
:1015200010924F031092C60108959091CB019F5FD6
:10153000903408F090E02091CA01291751F0E92F6A
:10154000F0E0EA57FE4F80839093CB0181E090E07A
:1015500008958CEF9FEF0895CF93DF9380938501DB
:10156000809384011092C701109283018091C6017B
:10157000806C8093C6018091C90187FD0DC0809168
:10158000C90180FF09C08091C801809382018091C8
:10159000C60180618093C6018091E801823009F420
:1015A00043C0833061F4E99881E090E0880F991F8F
:1015B000FC01EA5FFE4F8EE499E091838083D09135
:1015C000E90161E08D2F0E94190561E08D2F0E94D5
:1015D0004E06C091E80161E08C2F0E94190561E080
:1015E0008C2F0E944E0683E290E00197F1F760E0B5
:1015F0008C2F0E9419058BEE90E00197F1F760E0C7
:101600008D2F0E94190562E08C2F0E944E0680E00B
:10161000C23021F08FEFC33009F481E069E77CE04C
:10162000DF91CF910C94B903E89890E080E0BECFB1
:101630009091CA018091CB01891799F18091C901DC
:1016400081608093C9018091C90187FD2DC080917F
:10165000C60187FD29C01092C8012FEF3FEF9F5FA1
:10166000903408F090E0E92FF0E0EA57FE4F2F3F6A
:10167000320771F4208130E09093CA018091CB0150
:101680008913EDCF822F0E94AC0A81E090E008958B
:1016900080818B3BB9F78091C8018F5F8093C8012F
:1016A000EBCF8EEF9FEF08958AE79FEF08958DEEC1
:1016B0000E94950A8BEB0E94950A80914F030E942D
:1016C000950A8BEB0E94950A892B11F00C94180B4C
:1016D00008950F931F93CF93DF9310915804809137
:1016E0005704181B17FD105C01E01F3364F580914F
:1016F000D603A091D5038A1B87FD805C882319F14E
:101700008091D603A817F9F0AF5FA03408F0A0E0ED
:10171000A093D503B0E0AA0FBB1FAB5ABC4FCD912D
:10172000DC9111978D919C9192FDB0C02C2FCA3AFB
:1017300020F08C2F815F823010F494FF0AC0DD27E7
:10174000209709F0A5C0812FDF91CF911F910F91B4
:1017500008958091540395FF18C0806880935403C6
:10176000D0E0C0E093FF1EC0FE01E753F94FE491C3
:101770002E130DC0C653D94FFE01C491D0E020975F
:10178000D1F480915403D82BDBCF8F77E7CF22960B
:10179000C235D10549F7D0E0C0E0F3CF2296CE3D67
:1017A000D105C9F3FE01E551FA4FE4912E13F6CFAE
:1017B000C451DA4FE1CF80915403FE01C430D1050A
:1017C00008F041C0E05BFC4F87FF04C01082CBEB08
:1017D000D0E01BC090819130D1F30083C230D1059D
:1017E00061F1C330D10501F182E090914F03292FBF
:1017F000282329F1209154038095892380934F0356
:101800002068209354030E94570B809154039E013B
:101810002052310921343105B8F1CB38D105A1F17D
:10182000816080935403ADCF84FF05C08F7E809389
:10183000540384E0DACF8061FACF81E0D6CF892BE0
:1018400080934F03E0CF3697E830F10560F4ED5117
:10185000FA4FE49187FF05C0E095E823E093540335
:10186000D4CFE82BFBCFFE01B097EB30F10568F643
:1018700090914F0391FF02C086FFC7CFE852FA4F05
:10188000E491CE2FD0E0C1CF8E7FCBCFC6E0D0E0A9
:10189000CE0199278B3B910509F427CF892B09F4B9
:1018A00024CF809158048F5F80340CF080E0E82FC3
:1018B000EE0FFF0BE952FC4FD183C0838093580495
:1018C0001F5F13CF0E94690B882381F0E0915704BA
:1018D000EF5FE03408F0E0E0E0935704F0E0EE0F53
:1018E000FF1FE952FC4F80819181089590E080E0D4
:1018F0000895CF92DF92EF92FF920F931F93CF93B1
:101900008091C60186FF72C08091C7018F5F80936E
:10191000C7018091C7018A3048F4823098F560E0B1
:10192000813009F448C01092C7019DC08B3009F482
:101930004DC0E8F18C30B9F7809184018E3E69F09A
:10194000809184018E3F49F08091840180937D01D4
:101950008091C60182608093C6018091C6018F7B11
:101960008093C6018091C90187FF3CC08091C90165
:101970008F778093C9018091C60184FDD4CF0E94E6
:10198000180BD1CFC0918501C1706C2F8091E901F6
:101990000E94190580918301C80FC0938301809133
:1019A000850190E095958795809385015CC0609155
:1019B0008301609561708091E901CF911F910F9132
:1019C000FF90EF90DF90CF900C94190562E080912A
:1019D000E901CF911F910F91FF90EF90DF90CF9091
:1019E0000C944E068091C9018E7FC3CF8091E9018E
:1019F0000E94F004C82F0E94070700917E011091F9
:101A00007F0120918001309181016B017C01C01A1E
:101A1000D10AE20AF30A970186010B3F110521055D
:101A2000310520F01092C7011092850160937E016C
:101A300070937F0180938001909381018091C70111
:101A40008F5F8093C7018091C7018A30A0F48230F4
:101A500020F5813009F067CF109283018091C60193
:101A600080688093C601CF911F910F91FF90EF90F6
:101A7000DF90CF9008958A3019F18B3009F053CF61
:101A8000809183018D3F48F18EEF0E94AC0A8091D6
:101A9000C90180688093C90146CF809183018C0F72
:101AA000809383018091850190E09595879580933F
:101AB000850190E0C11190E880918501892B74CF58
:101AC0008091830181708093830180918301C81389
:101AD000CACF8DEF80938301C6CF809185018E3F61
:101AE00029F09091C6019D7F9093C6019091C60107
:101AF00094FF02C0803F70F09091C60192FD91C0AA
:101B00008E3E09F477C0E8F48A3A09F47FC020F4E5
:101B1000882359F186E02CC0803E09F47BC0813EC9
:101B2000C9F78091C60182FD1AC087E080938201C7
:101B30008091C60184608093C6018091C6018F7D2B
:101B40000CC08C3F09F44EC060F4803F19F781E06F
:101B5000809382018091C60180628093C60180E0FB
:101B600007C08E3FA9F18F3FA9F60E94800A8CE042
:101B700081FF05C0909182019150909382019091D4
:101B80008201191614F482FF1EC09091D6039F5F44
:101B9000903408F090E02091D5032917A1F020910E
:101BA0008501E92FF0E030E0EE0FFF1FEB5AFC4F0C
:101BB000318320834091C60120813181342B3183D0
:101BC00020839093D603807171F1809184015DCF61
:101BD0008091C60181FFC3CF80917D0180938401F4
:101BE00080E1C6CF109282011092C6011092C90105
:101BF0008EE0BECF9091C60191FF0AC090917D0109
:101C00009E3E31F08093840184E1B2CF1092820134
:101C100084E0AECF81E0809382018091C60188602C
:101C20009CCF82E0A5CF8091820118160CF47BCE68
:101C30008091C601837C8093C601109282018091BD
:101C4000C6018F778093C6019ACE0F931F93CF93CF
:101C5000DF93EC01062F1C811295107FE885F98532
:101C60006E8180E10995E885F9856F8181E10995AB
:101C7000E885F985602F82E109956D81610FE8851E
:101C8000F98583E109959F818E818F5F803260F4B1
:101C90008E83983110F01F821E8281E090E0DF91E8
:101CA000CF911F910F9108951E8281E0890F8F833C
:101CB000F0CFCF93DF9310927C0510927D05C8E1A1
:101CC000D0E260E086E795E00E94250ED150C9F78A
:101CD000C150B1F7DF91CF910895089590E080E071
:101CE00008958BE080937A0510927B058AE08093BB
:101CF0007C0580E180937D05809175026BE573E042
:101D0000811102C06FE573E086E795E00C944F09FE
:101D10008BE080937A0510927B058AE080937C05A6
:101D20008FE080937D058091000169E473E081116B
:101D300002C062E573E086E795E00C944F098BE002
:101D400080937A0510927B058AE080937C058EE073
:101D500080937D05809159046DE373E0811102C089
:101D600063E473E086E795E00C944F098BE0809381
:101D70007A0510927B058AE080937C058DE0809344
:101D80007D058091DD0165E373E0811102C069E3A7
:101D900073E086E795E00C944F098BE080937A0519
:101DA00010927B058AE080937C058CE080937D0512
:101DB0008091E7016DE273E0811102C061E373E09D
:101DC00086E795E00C944F098BE080937A0510929A
:101DD0007B059AE090937C0580937D058091E501D9
:101DE00061E273E0811102C067E273E086E795E08B
:101DF0000C944F098BE080937A0510927B058AE062
:101E000080937C0580937D058091E6016DE073E011
:101E1000811102C067E173E086E795E00C944F09F9
:101E20008BE080937A0510927B058AE080937C0595
:101E300089E080937D058091DF016BEF72E0811175
:101E400002C064E073E086E795E00C944F098BE0F4
:101E500080937A0510927B058AE080937C0588E068
:101E600080937D058091E0019091DE01911108C081
:101E700061EF72E0882331F066EF72E0813011F09B
:101E80006CEE72E086E795E00C944F098BE080934E
:101E90007A0510927B058AE080937C0587E0809329
:101EA0007D058091E10164EE72E0811102C068EE6F
:101EB00072E086E795E00C944F098BE080937A05F9
:101EC00010927B058AE080937C0586E080937D05F7
:101ED0008091E2016CED72E0811102C060EE72E06F
:101EE00086E795E00C944F098BE080937A05109279
:101EF0007B058AE080937C0585E080937D05809159
:101F0000E4019091E301911182606AEC72E0823009
:101F100051F061EC72E0833031F068EB72E08130B7
:101F200011F463ED72E086E795E00C944F0910928E
:101F30007C0510927D058FE080937A0510927B05D9
:101F40006CEA72E086E795E00E944F0910927C05EA
:101F500081E080937D056BE872E086E795E00E9462
:101F60004F0910927C0582E080937D0580917C0171
:101F7000813061F028F0843061F0853069F0089597
:101F80006AE772E086E795E00C944F0969E672E033
:101F9000F9CF67E572E0F6CF65E472E0F3CFE7EBE7
:101FA000F2E011929F01275B324028173907CCF3EA
:101FB0000895CF92DF92EF92FF920F931F93CF93EA
:101FC000DF93CDB7DEB7A8970FB6F894DEBF0FBE8C
:101FD000CDBF20916C0130916D01611133C012169B
:101FE0001306A4F4E4E4F1E050E040E0A191B191E3
:101FF0008A179B0709F461E04F5F5F4F4217530751
:10200000A9F7611110C02431310569F0F901EE0F13
:10201000FF1FEC5BFE4F918380832F5F3F4F309318
:102020006D0120936C01A8960FB6F894DEBF0FBE29
:10203000CDBFDF91CF911F910F91FF90EF90DF9077
:10204000CF900895FE01319648E2DF011D924A9536
:10205000E9F71216130684F504E411E0780150E064
:1020600040E070E060E0D701CD90DD907D018C15FF
:102070009D0549F0DA01AA0FBB1FAE0FBF1FCD921D
:10208000DC924F5F5F4F6F5F7F4F6217730759F7A7
:102090004115510589F090E080E021913191D801FE
:1020A0002D933D938D01019684179507B1F75093B9
:1020B0006D0140936C01B7CF50E040E0F8CF109233
:1020C000A6041092A5048091A404882359F02091BD
:1020D000A5043091A6048091040190910501281770
:1020E0003907F0F02091A5043091A60480910401F5
:1020F0009091050128173907E8F00E9405040E9415
:1021000050058091A2049091A30401969093A3049A
:102110008093A20480E010927B0480937A04089557
:102120008091A5049091A60401969093A6048093B3
:10213000A504C9CF81E08093A4048093A1049FEFFC
:102140009093A00410929F0410929E0480937D04AB
:1021500080917D04806D80937D0480917C0481302A
:1021600009F062C010927C041092A6041092A5049B
:1021700080917D048093BB008091A5049091A6047A
:1021800001969093A6048093A5048091BC0083FFE0
:102190000BC02091A5043091A60480910401909178
:1021A00005012817390720F32091A5043091A604D2
:1021B00080910401909105012817390708F09DCFFF
:1021C00085EC8093BC001092A6041092A504809127
:1021D000A404813059F42091A5043091A604809183
:1021E0000401909105012817390700F12091A504F9
:1021F0003091A604809104019091050128173907B8
:1022000008F07BCF80919F0481111AC080919F04B8
:10221000AEE7B4E0EAE5F4E090E0981709F47BCF8C
:102220002D9121939F5FF9CF85EECBCF8091A504AF
:102230009091A60401969093A6048093A504C7CF1D
:1022400081E0E6CF88E60E94D50382E090E00E941C
:10225000C2040E9474050E945F100E94F20326E0EF
:10226000969587952A95E1F78170089588E60E94F2
:10227000D50390E080E00E94C2040E9474050E9491
:102280005F100E94F2038F77282F30E094E035959D
:1022900027959A95E1F7922F990F990F291B220FF5
:1022A000820F089588E60E94D50381E090E00E94A5
:1022B000C2040E9474050E945F100E94F2039C01F8
:1022C00094E0359527959A95E1F72F703327922F53
:1022D000990F990F291B220F820F0895CF930E9407
:1022E0002211C82F88E60E94D50382E090E00E9468
:1022F000C2040E9474050E945F100E94F203C11183
:1023000010C0AC0194E0559547959A95E1F74F7050
:102310005527942F990F990F491B440F840FCF9184
:102320000895482F4F79242F30E084E03595279584
:102330008A95E1F7822F880F880F922F981B892F9B
:10234000880FECCF88E60E94D50383E090E00E94DE
:10235000C2040E9474050E945F100E94F203089557
:1023600088E60E94D50384E090E00E94C2040E94A7
:1023700074050E945F100E94F2039C0194E0359561
:1023800027959A95E1F72F703327922F990F990F80
:10239000291B220F820F089588E60E94D50385E04D
:1023A00090E00E94C2040E9474050E945F100E9487
:1023B000F2039C0194E0359527959A95E1F72F70EB
:1023C0003327922F990F990F291B220F820F0895FF
:1023D00088E60E94D50386E090E00E94C2040E9435
:1023E00074050E945F100E94F2039C0194E03595F1
:1023F00027959A95E1F72F703327922F990F990F10
:10240000291B220F820F90E08053984F0895FB0103
:1024100001900020E9F73197AF01461B570BDC0113
:10242000ED91FC910280F381E02D0994CF93DF932D
:10243000BC0187ED94E00E944F09EC016AE371E072
:1024400087ED94E00E9407128C0F9D1FDF91CF91C2
:1024500008958F929F92AF92BF92EF92FF920F9347
:102460001F93CF93DF93CDB7DEB7A1970FB6F89444
:10247000DEBF0FBECDBF7C01FA01CB0119A2223015
:1024800008F42AE08E010F5D1F4F822E912CB12C93
:10249000A12CBF01A50194010E94A42FF901CA013A
:1024A0006A300CF5605DD8016E938D01232B242BCF
:1024B000252B79F790E080E0109721F0BD01C7014E
:1024C0000E940712A1960FB6F894DEBF0FBECDBFD3
:1024D000DF91CF911F910F91FF90EF90BF90AF9040
:1024E0009F908F900895695CDECFCF92DF92EF923C
:1024F000FF920F931F93CF93DF936B01770FEE083B
:10250000FF08F7FE1FC0EC01E881F9810190F0811E
:10251000E02D6DE209958C0144275527BA014C192D
:102520005D096E097F092AE0CE010E942912800F01
:10253000911FDF91CF911F910F91FF90EF90DF904E
:10254000CF9008952AE0B701A601DF91CF911F91A6
:102550000F91FF90EF90DF90CF900C942912CF93C2
:10256000DF93BC0187ED94E00E947512EC016AE3F1
:1025700071E087ED94E00E9407128C0F9D1FDF91A0
:10258000CF910895CF93DF93E6E7F5E089E0848368
:1025900015828AE0868384E18783C9EAD2E06A8172
:1025A00070E0CF010E9475126B8170E086E795E0C4
:1025B0000E9475126C8170E086E795E00E947512AA
:1025C0006D8170E086E795E00E947512688170E089
:1025D00086E795E00E947512698170E086E795E0D4
:1025E0000E9475126E8170E086E795E00E94751278
:1025F0006F8170E086E795E0DF91CF910C947512C2
:1026000089E080937A0510927B058AE080937C05AF
:1026100083E180937D0580918202803130F461E70F
:1026200073E086E795E00E944F094091820250E0F6
:1026300070E060E020E186E795E00E9429126FE6F5
:1026400073E086E795E00E944F0980918102803116
:1026500030F46DE673E086E795E00E944F09409103
:10266000810250E070E060E020E186E795E00E94A2
:1026700029126BE673E086E795E00E944F0980918E
:102680008002803130F469E673E086E795E00E94CD
:102690004F094091800250E070E060E020E186E761
:1026A00095E00C9429120F931F93CF93DF93EC01C5
:1026B00089E080937A0510927B058AE080937C05FF
:1026C00082E180937D050D2F11270031110530F433
:1026D00067E673E086E795E00E944F09A80170E085
:1026E00060E020E186E795E00E94291265E673E04C
:1026F00086E795E00E944F09DD27C031D10530F40F
:1027000063E673E086E795E00E944F09AE0170E052
:1027100060E020E186E795E0DF91CF911F910F9176
:102720000C9429120C94662FCF93DF93D82FC62FC9
:1027300090917405809175059CBD8DBD60E087E02A
:102740000E941905DEBD00000DB407FEFDCFDEB509
:10275000CEBD00000DB407FEFDCFCEB561E087E031
:102760000E941905DD2309F4BFC0DD3F09F05BC0FD
:102770008091ED0181112FC060E372E087ED94E05C
:102780000E944F0981E08093ED010E9463170E942F
:1027900049160E94BD178BE292E00E941612C09368
:1027A0007C0162E172E087ED94E00E944F0987EDC1
:1027B00091E0C13071F085EF91E0C13050F08FEBC6
:1027C00091E0C43031F086EA91E0C53011F08EE935
:1027D00091E00E941612D058D03408F085C0809144
:1027E0007801D81305C080917701C81709F47CC01F
:1027F000D0937801C0937701ED2FF0E0DE3008F040
:10280000A4C1EB5FFB4E0C94D22F271461147714F4
:102810009014A414FD1411152D1546155F158D1572
:10282000951574147414DC3FB1F68091EB0181119D
:10283000D2CF6AE871E087ED94E00E944F0981E011
:102840008093EB010E94491685E891E0C2CF809108
:10285000EC01882369F08C2F90E0B4E09595879582
:10286000BA95E1F7982F990F990F891B880FC80F18
:10287000C0938B0288E60E94D50390E080E00E941E
:10288000C2040E9474050E945F100E94F2038078C7
:10289000C82B88E60E94D50390E080E00E94C20425
:1028A0008C2F6AE00E94C62F682F660F680F660F94
:1028B0006C0F8BEC94E00E949304DF91CF910C9409
:1028C00074058091EC01882369F08C2F90E0A4E0DE
:1028D00095958795AA95E1F7982F990F990F891BE0
:1028E000880FC80FC0937B01DF91CF91089580912D
:1028F000EC01882369F08C2F90E0F4E095958795A2
:10290000FA95E1F7982F990F990F891B880FC80F37
:10291000C0938C0288E60E94D50381E090E0BECF90
:102920008091EC01882369F08C2F90E0E4E095958C
:102930008795EA95E1F7982F990F990F891B880FD2
:10294000C80FC0937A01D0CF8091EC01882369F041
:102950008C2F90E074E0959587957A95E1F7982F04
:10296000990F990F891B880FC80FC0938D0288E6B5
:102970000E94D50382E090E00E94C2040E94740588
:102980000E945F100E94F203D82F88E60E94D503B0
:1029900082E090E00E94C2046D2F6F7B8BEC94E08C
:1029A0000E9493040E9474050E942211D82F88E689
:1029B0000E94D50382E090E00E94C2048C2FDD23A8
:1029C00009F46FCFCD3078F06CE00E94C62F292F2C
:1029D000892F6AE00E94C62F682F660F680F660F66
:1029E000620F606666CF6AE00E94C62F682F660F8E
:1029F000680F660F6C0F60645CCF8091EC018823D8
:102A000069F08C2F90E064E0959587956A95E1F7E1
:102A1000982F990F990F891B880FC80FC0937901C0
:102A200063CF8091EC01882369F08C2F90E054E013
:102A3000959587955A95E1F7982F990F990F891BCE
:102A4000880FC80FC093020188E60E94D50383E077
:102A500090E00E94C2046C2F2CCF8091EC0188235F
:102A600069F08C2F90E044E0959587954A95E1F7C1
:102A7000982F990F990F891B880FC80FC0930301D6
:102A800088E60E94D50384E090E008CF8091EC01B5
:102A9000882369F08C2F90E034E0959587953A95DE
:102AA000E1F7982F990F990F891B880FC80FC093D2
:102AB0008E0288E60E94D50385E090E0EFCE8091FB
:102AC000EC01882369F08C2F90E024E095958795A0
:102AD0002A95E1F7982F990F990F891B880FC80F36
:102AE000D0E0C053D84FD0939002C0938F0288E6B5
:102AF0000E94D50386E090E00E94C204CE0164E605
:102B000070E00E947C2F282F6AE00E94C62F682F59
:102B1000660F680F660F620FCCCE6C2F6F778AE15D
:102B200090E0DF91CF910C946E2FC2FB882780F943
:102B300091E089278093EC01C1FB882780F980937D
:102B400001016C2F8BE190E0ECCF6C2FCF01409610
:102B5000E8CF20918B028091EC01882349F0822FED
:102B60006AE00E94C62F982F990F890F880F280FAF
:102B7000622F80E40E9494138091EC0120918C02DA
:102B8000622F882349F0822F6AE00E94C62F682FA7
:102B9000660F680F660F620F82E40E949413909193
:102BA00001018091EC0120918D02992309F462C00A
:102BB000882349F0822F6AE00E94C62F982F990F30
:102BC000890F880F280F622F84E40E94941380914C
:102BD000EC0120910201622F882349F0822F6AE0E4
:102BE0000E94C62F682F660F680F660F620F86E47B
:102BF0000E9494138091EC0120910301622F88239D
:102C000049F0822F6AE00E94C62F682F660F680F76
:102C1000660F620F87E40E9494138091EC0120916B
:102C20008E02622F882349F0822F6AE00E94C62F0D
:102C3000682F660F680F660F620F88E40E94941376
:102C40002091EC0180918F029091900264E670E0F7
:102C50000E94902F682F222351F0282F862F6AE0A0
:102C60000E94C62F682F660F680F660F620F89E4F7
:102C70000C949413882329F02D3008F49BCF2CE872
:102C800099CF2D3008F49FCF2CE89DCF805C0C9419
:102C900094130F931F93CF93DF93D0E0C0E004E62B
:102CA00010E0CE3008F008C1EC2FF0E0E65AF94E03
:102CB0000C94D22F681684169616A816BA16DA1631
:102CC000FA160C171E17301747174F1756175917B4
:102CD00020918B028091EC01882349F0822F6AE0D9
:102CE0000E94C62F982F990F890F880F280F622FE7
:102CF00080E00E9446162196C034D10591F6DF91FE
:102D0000CF911F910F91089520917B018091EC014B
:102D1000882349F0822F6AE00E94C62F982F990FCE
:102D2000890F880F280F622F81E0E3CF20918C025A
:102D30008091EC01882349F0822F6AE00E94C62F1F
:102D4000982F990F890F880F280F622F82E0D1CF1B
:102D500020917A018091EC01882349F0822F6AE06A
:102D60000E94C62F982F990F890F880F280F622F66
:102D700083E0BFCF8091EC0120918D029091010101
:102D8000992371F0882349F0822F6AE00E94C62FB0
:102D9000982F990F890F880F280F622F84E0A9CFF1
:102DA000882321F02D3080F32CE8EECF2D30A8F3CE
:102DB0002CE8F3CF8091EC012091790190910101F1
:102DC000992371F0882349F0822F6AE00E94C62F70
:102DD000982F990F890F880F280F622F85E089CFD0
:102DE000882321F02D3080F32CE8EECF2D30A8F38E
:102DF0002CE8F3CF209102018091EC01882349F067
:102E0000822F6AE00E94C62F982F990F890F880F92
:102E1000280F622F86E06DCF209103018091EC0195
:102E2000882349F0822F6AE00E94C62F982F990FBD
:102E3000890F880F280F622F87E05BCF20918E02C9
:102E40008091EC01882349F0822F6AE00E94C62F0E
:102E5000982F990F890F880F280F622F88E049CF8C
:102E600080918F0290919002B8010E94902F282F9C
:102E70009091EC01992341F06AE00E94C62F982FAF
:102E8000880F890F880F820F682F89E032CF8AE17F
:102E900090E00E949213682F6F778AE02ACF8BE12F
:102EA00090E00E949213682F8BE023CF60E08CE0CB
:102EB00020CF60E88DE01DCFCE0140960E94921396
:102EC000682F8C2F16CF8F929F92AF92BF92CF9286
:102ED000DF92EF92FF920F931F93CF9307EB12E0D5
:102EE000C0E0C12CD12C7601C394F80190E080E0C1
:102EF00060E0219146015701082E04C0880C991CFE
:102F0000AA1CBB1C0A94D2F72223C9F06829019697
:102F10008830910571F7CF5F8C2F0E949413085F62
:102F20001F4FC93011F7CF911F910F91FF90EF9074
:102F3000DF90CF90BF90AF909F908F900895809436
:102F40006821E5CFCF93DF9389E290E00E94CF0F15
:102F5000C7EBD2E081E08BA70E94631764E670E0C4
:102F600080E090E00E94D50689E290E00E94CF0FB9
:102F70001BA6DF91CF910C946317CF93DF9389E267
:102F800090E00E94CF0FC7EBD2E081E089A70E94BA
:102F9000631764E670E080E090E00E94D50689E265
:102FA00090E00E94CF0F19A6DF91CF910C94631788
:102FB000FF920F931F93CF93DF93C82F89E290E086
:102FC0000E94CF0F0E94631764E170E080E090E000
:102FD0000E94D50607EB12E0FF24F394F801F0827B
:102FE0000E94631764E170E080E090E00E94D506E3
:102FF000F801F7860E94631764E170E080E090E0DA
:103000000E94D506F80117860E94631764E170E0FC
:1030100080E090E00E94D506D0E0C954DD4FF882F0
:103020000E94631764E170E080E090E00E94D506A2
:10303000F801108218820E94631764E170E080E05A
:1030400090E0DF91CF911F910F91FF900C94D506E6
:10305000FF920F931F93CF93DF93EC01F62E08811D
:103060001981C8010E94662FF81621F06F2DC80142
:103070000E946E2FCE01DF91CF911F910F91FF9093
:103080000895CF93DF9300D0CDB7DEB761110CC0A8
:1030900064E19A838983CE0101960E9428180F90DB
:1030A0000F90DF91CF9108956AE0F3CFEF92FF92F6
:1030B0001F93CF93DF9300D0CDB7DEB77C01162FDF
:1030C0000E9492138A3011F0843169F411E08A3041
:1030D00009F010E0812F0F900F90DF91CF911F9199
:1030E000FF90EF90089564E111116AE0FA82E9829D
:1030F000CE0101960E942818EDCFDF92EF92FF9249
:103100000F931F93CF93DF9300D0CDB7DEB78A0123
:103110009B01692F661F6627661F609376011092D8
:1031200075016093E302482F441F4427441F4093D6
:10313000EE02FC01FF27E6FB442740F94093ED0235
:10314000E5FB442740F94093EC02E4FB442740F9B7
:103150004093EB02E3FB442740F94093EA02E2FB91
:10316000442740F94093E902E1FB442740F94093AA
:10317000E8024E2F41704093E70291110C94F62221
:10318000863011F00C94F6228091750291E0892727
:10319000809375028093E4020E94710E0F900F904D
:1031A000DF91CF911F910F91FF90EF90DF900895E5
:1031B0008091750291E08927809375028093E402E3
:1031C0000E94710E80917501882341F080916C01FD
:1031D00090916D01892B11F41092B70280916C01CE
:1031E00090916D01181619061CF481E08093B702C6
:1031F000809177028823C1F0809176028823A1F024
:1032000080917301882381F01092770210927602E8
:1032100010927301109274011092750110926D0159
:1032200010926C010E94BD1780917702882309F4E7
:10323000B5CF80917602882309F4B0CF80916E01DA
:10324000882309F4ABCF1092770210927602109285
:103250006E01109274011092750110926D0110921E
:103260006C0189E290E00E94CF0F11E01093E00220
:103270000E9463171093C0020E94631764EF71E00D
:1032800080E090E00E94D5061092E0020E94631751
:1032900064EF71E080E090E00E94D5061092C002D9
:1032A0007DCF20910001222371F02FE030E0892FA3
:1032B0008095881F8827881F29543D4FF9018083F6
:1032C000809374017FCF30E020E0F1CF20910001A6
:1032D000222371F030E020E0892F8095881F882715
:1032E000881F29543D4FF9018083809377026ACF6C
:1032F0002FE030E0F1CF192F1095111F1127111F6A
:103300001093C6022091000186E090E0211102C0D6
:1033100090E080E089549D4FFC011083211104C08E
:103320008AE090E00E94D90F109376024BCF192FBC
:103330001095111F1127111F1093C6022091000133
:1033400087E090E0211102C090E080E089549D4F19
:10335000FC011083211104C08BE090E00E94D90F82
:10336000109376022FCF2091740121112BCF892F3A
:103370008095982F991F9927991F2091000122234A
:1033800051F09093BC029093DF02881F8827881F1A
:103390008093730117CF9093C6029093CF02F5CF1D
:1033A000892F8095881F8827881F809378020ACFED
:1033B000892F8095881F8827881F8093790202CFE4
:1033C000209174012111FECE892F8095881F8827B6
:1033D000881F90910001992329F08093C402809363
:1033E000DF02F0CE8093C6028093B802EBCE20912C
:1033F00074012111E7CE892F8095881F8827881FA7
:103400008093B7028093D30287E190E00E94D90FA6
:10341000D9CE209174012111D5CE892F8095881F96
:103420008827881F8093B7028093DB0288E190E0B1
:103430000E94D90FC7CE209174012111C3CE892FCC
:103440008095881F8827881F8093B7028093DA02AF
:1034500085E190E00E94D90FB5CE20917401211131
:10346000B1CE892F8095881F8827881F8093B70247
:103470008093CB0286E190E00E94D90FA3CE4091C9
:10348000790241110EC04091780241110AC0409169
:103490007702442309F435C240917602442309F4AB
:1034A00030C261118FCE1092B60280916F0190915F
:1034B0007001A0917101B0917201B901A801481B7E
:1034C000590B6A0B7B0BDB01CA01893C9105A105F5
:1034D000B10508F477CE8091B10291E089278093FD
:1034E000B1028093FA0200936F0110937001209350
:1034F000710130937201882309F464CE8FE0E82EC5
:10350000E0927A0510927B050E94590E0E94970F57
:1035100015E010937A0510927B0510927C051093AC
:103520007D056BE771E086E795E00E944F090E94F8
:10353000740F07E000937A0510927B0594E1F92E51
:10354000F0927C0510937D0560E771E086E795E0D9
:103550000E944F0910937A0510927B0510927C050A
:1035600026E0D22ED0927D0566E671E086E795E0F2
:103570000E944F090E945D0F00937A0510927B050F
:10358000F0927C05D0927D056EE571E086E795E0CE
:103590000E944F0910937A0510927B0510927C05CA
:1035A00000937D0567E571E086E795E00E944F098D
:1035B0000E94460F00937A0510927B05F0927C05DD
:1035C00000937D056FE471E086E795E00E944F0966
:1035D00010937A0510927B0510927C0538E0D32E6B
:1035E000D0927D0567E471E086E795E00E944F097F
:1035F0000E94270F00937A0510927B05F0927C05BC
:10360000D0927D056FE371E086E795E00E944F0957
:1036100010937A0510927B0510927C0549E0D42E18
:10362000D0927D0565E371E086E795E00E944F0941
:103630000E94100F00937A0510927B05F0927C0592
:10364000D0927D056DE271E086E795E00E944F091A
:1036500010937A0510927B0510927C055AE0D52EC6
:10366000D0927D0566E271E086E795E00E944F0901
:103670000E94FA0E00937A0510927B05F0927C0569
:10368000D0927D056EE171E086E795E00E944F09DA
:1036900010937A0510927B0510927C056BE0D62E74
:1036A000D0927D0567E171E086E795E00E944F09C1
:1036B0000E94E40E00937A0510927B05F0927C053F
:1036C000D0927D056EE071E086E795E00E944F099B
:1036D00010937A0510927B0510927C057CE0D72E22
:1036E000D0927D0567E071E086E795E00E944F0982
:1036F0000E94CD0E00937A0510927B05F0927C0516
:10370000D0927D056EEF70E086E795E00E944F094C
:1037100010937A0510927B0510927C05EDE0DE2E69
:10372000D0927D0564EF70E086E795E00E944F0936
:103730000E94B60E00937A0510927B05F0927C05EC
:10374000D0927D056BEE70E086E795E00E944F0910
:1037500010937A0510927B0510927C05FEE0DF2E17
:10376000D0927D0561EE70E086E795E00E944F09FA
:103770000E949F0E00937A0510927B05F0927C05C3
:10378000D0927D056AED70E086E795E00E944F09D2
:1037900010937A0510927B0510927C05E0927D05CE
:1037A00060ED70E086E795E00E944F090E94880E68
:1037B00000937A0510927B05F0927C05E0927D05DE
:1037C00069EC70E086E795E00E944F0910937A0556
:1037D00010927B0510927C05A0E1DA2ED0927D0537
:1037E00062EC70E086E795E00E944F090E94710E3E
:1037F00000937A0510927B05F0927C05D0927D05AE
:103800006CEB70E086E795E00E944F0910937A0513
:1038100010927B0510927C0582E180937D0562EB1E
:1038200070E086E795E00E944F0990E080E00E94FA
:10383000531310937A0510927B0510927C0583E157
:1038400080937D056BEA70E086E795E00E944F0962
:103850000E94001310937A0510927B0510927C054C
:10386000F0927D0566EA70E086E795E00E944F09D8
:103870000E94C212E0927A0510927B0510927C059C
:1038800086E180937D056FE970E086E795E00E9410
:103890004F0900937A0510927B0562E970E086E794
:1038A00095E00E944F09E0927A0510927B0567E847
:1038B00070E086E795E00E944F09E0927A05109249
:1038C0007B0510927C0587E180937D0560E870E0C0
:1038D00086E795E00E944F0900937A0510927B05D8
:1038E00067E770E086E795E00E944F09E0927A056D
:1038F00010927B0568E670E086E795E00E944F092C
:1039000061CC292F2095221F2227221F2093B70246
:1039100080910001882359F083E090E089549D4F05
:10392000FC0120838BE190E00E94D90F4BCC87E013
:1039300090E0F4CF192F1095111F1127111F10932C
:10394000B7021093BB028CE190E00E94D90F109354
:103950006E0138CC892F8095881F8827881F809317
:10396000BD0230CC892F8095881F8827881F8093BF
:10397000BE0228CC892F8095881F8827881F8093B6
:10398000B80220CC892F8095881F8827881F8093B4
:10399000DE0218CC892F8095881F8827881F809386
:1039A000CF0210CC892F8095881F8827881F80938D
:1039B000C80208CC892F8095881F8827881F80938C
:1039C000C90200CC892F8095881F8827881F809383
:1039D000D002F8CB892F8095881F8827881F809375
:1039E000D802F0CB892F8095881F8827881F809365
:1039F000DD02E8CB892F8095881F8827881F809358
:103A0000CC02E0CB2091790221110CC020917802E8
:103A1000211108C0209177022223B9F0209176026B
:103A2000222399F06111CECB6091590481E068277F
:103A3000609359048DE090E00E94411880915904F0
:103A40008093F9020E949F0EBDCB892F8095881F1D
:103A50008827881F8093D502B5CB892F8095881F32
:103A60008827881F8093CD02ADCB892F8095881F32
:103A70008827881F8093C502A5CB892F8095881F32
:103A80008827881F8093CE029DCB892F8095881F21
:103A90008827881F8093D60295CB892F8095881F11
:103AA0008827881F8093C4028DCB892F8095881F1B
:103AB0008827881F8093BC0285CB892F8095881F1B
:103AC0008827881F8093B9027DCB892F8095881F16
:103AD0008827881F8093D10275CB892F8095881FF6
:103AE0008827881F8093C0026DCB892F8095881FFF
:103AF0008827881F8093D90265CB892F8095881FDE
:103B00008827881F8093D4025DCB892F8095881FDA
:103B10008827881F8093D70255CB892F8095881FCF
:103B20008827881F8093C1024DCB892F8095881FDD
:103B30008827881F8093C70245CB892F8095881FCF
:103B40008827881F8093DC023DCB892F8095881FB2
:103B50008827881F8093BF0235CB892F8095881FC7
:103B60008827881F8093BB022DCB892F8095881FC3
:103B70008827881F8093BA0225CB892F8095881FBC
:103B80008827881F8093C2021DCB892F8095881FAC
:103B90008827881F8093CA0215CB892F8095881F9C
:103BA0008827881F8093D2020DCB892F8095881F8C
:103BB0008827881F8093DA0205CB892F8095881F7C
:103BC0008827881F8093DB02FDCA892F8095881F74
:103BD0008827881F8093D302F5CA892F8095881F74
:103BE0008827881F8093CB02EDCA892F8095881F74
:103BF0008827881F8093C302E5CA892F8095881F74
:103C00008827881F8093BB02DDCA892F8095881F73
:103C10008827881F8093BA02D5CA892F8095881F6C
:103C20008827881F8093C202CDCA892F8095881F5C
:103C30008827881F8093CA02C5CA892F8095881F4C
:103C40008827881F8093D202BDCA892F8095881F3C
:103C50008827881F8093DA02B5CA892F8095881F2C
:103C60008827881F8093DB02ADCA892F8095881F23
:103C70008827881F8093D302A5CA892F8095881F23
:103C80008827881F8093CB029DCA892F8095881F23
:103C90008827881F8093C30295CA292F2095221F49
:103CA0002227221F2093C6023091740185E090E004
:103CB000311102C08CE190E089549D4FFC012083BA
:103CC000662321F01092BC021092D302309375014A
:103CD00079CA292F2095221F2227221F2093C6024E
:103CE000309174018AE190E0311102C08FE190E0DF
:103CF00089549D4FFC012083662321F01092D1024C
:103D00001092D602309375015DCA292F2095221F8B
:103D10002227221F2093C6023091740182E290E094
:103D2000311102C087E190E089549D4FFC0120834E
:103D3000662321F01092D9021092CE0230937501C1
:103D400041CA292F2095221F2227221F2093C60215
:103D50003091740188E090E0311102C08DE090E074
:103D600089549D4FFC012083662321F01092BF02ED
:103D70001092C4023093750125CA209100012111CF
:103D80000CC061111FCA80917401882321F089E160
:103D90000E94D81717CA85E2FBCF292F2095221F32
:103DA0002227221F2093C60280917401882371F07C
:103DB00089E190E089549D4FFC012083662309F43A
:103DC00001CA1092D0021092DC02FCC985E290E098
:103DD000F1CF2091000121110CC06111F3C9809134
:103DE0007401882321F081E20E94D817EBC98DE18C
:103DF000FBCF292F2095221F2227221F2093C602A6
:103E000080917401882371F081E290E089549D4F84
:103E1000FC012083662309F4D5C91092D8021092C0
:103E2000D402D0C98DE190E0F1CF292F2095221F37
:103E30002227221F2093C6023091740188E190E06E
:103E4000311102C080E290E089549D4FFC01208333
:103E5000662321F01092CF021092D70230937501A1
:103E6000B1C92091000121110CC06111ABC9809131
:103E70007401882321F089E00E94D817A3C981E149
:103E8000FBCF292F2095221F2227221F2093C60215
:103E900080917401882371F089E090E089549D4FEE
:103EA000FC012083662309F48DC91092C002109290
:103EB000C80288C981E190E0F1CF292F2095221F07
:103EC0002227221F2093C6023091740186E190E0E0
:103ED000311102C08EE090E089549D4FFC01208397
:103EE000662321F01092CD021092C5023093750125
:103EF00069C9292F2095221F2227221F2093C6023D
:103F00003091740184E090E0311102C08EE190E0C4
:103F100089549D4FFC012083662321F01092BB023F
:103F20001092D502309375014DC980917401882398
:103F300029F0611103C081E00E94D81790917401AB
:103F4000911108C08091760121E082278093C602FA
:103F50008093C7029093750135C9892F8095881F7A
:103F60008827881F8093C6028093DE022BC9892F81
:103F70008095881F8827881F8093C6028093D5026A
:103F800021C9892F8095881F8827881F8093C602A2
:103F90008093CD0217C92091790221110CC0209184
:103FA0007802211108C0209177022223B9F02091D4
:103FB0007602222399F0611105C96091DD0181E04B
:103FC00068276093DD018BE090E00E9441188091AA
:103FD000DD018093F8020E94B60EF4C8892F809507
:103FE000881F8827881F8093B7028093CC028DE1B9
:103FF00090E00E94D90FE6C881E08093C6028093CA
:10400000B7020E94631764E670E080E090E00E94CF
:10401000D5061092C6021092B702D4C8209174013E
:104020002111D0C8892F8095881F8827881F9091DB
:104030000001992329F08093CE028093DF02C2C849
:104040008093B7028093CA0283E190E00E94D90F67
:10405000B9C8209174012111B5C8892F8095881F96
:104060008827881F90910001992329F08093D60218
:104070008093DF02A7C88093B7028093D20284E1C5
:1040800090E00E94D90F9EC82091740121119AC816
:10409000892F8095881F8827881F8093CD02809361
:1040A000DF0290C82091740121118CC8892F80955E
:1040B000881F8827881F8093C5028093DF0282C8EB
:1040C0002091790221110CC020917802211108C0A1
:1040D00020917702222321F120917602222301F1FF
:1040E000611170C81092E4011092E30184E090E045
:1040F0009A83898364E1CE0101960E942818609119
:10410000E30185E090E00E9441188091E4018093F2
:10411000F0028091E3018093F1020E94740F52C873
:10412000892F8095881F8827881F8093B8028093E5
:10413000DF0248C82091790221110CC02091780239
:10414000211108C020917702222329F120917602C3
:10415000222309F1611136C881E08093E4011092B5
:10416000E30184E090E09A8389836AE0CE010196BE
:104170000E9428186091E30185E090E00E944118B8
:104180008091E4018093F0028091E3018093F10239
:104190000E94740F17C8892F8095881F8827881F51
:1041A0008093DE028093DF020C94E2182091790262
:1041B00021110CC020917802211108C020917702B2
:1041C000222339F120917602222319F161110C94F6
:1041D000E2181092E40181E08093E30184E090E032
:1041E0009A83898364E1CE0101960E942818609128
:1041F000E30185E090E00E9441188091E401809302
:10420000F0028091E3018093F1020E94740F0C94FC
:10421000E218892F8095881F8827881F8093CF02F6
:104220008093DF020C94E2182091790221110CC0D6
:1042300020917802211108C020917702222339F1C0
:1042400020917602222319F161110C94E21881E089
:104250008093E4018093E30184E090E09A83898372
:104260006AE0CE0101960E9428186091E30185E082
:1042700090E00E9441188091E4018093F0028091C7
:10428000E3018093F1020E94740F0C94E218892FCD
:104290008095881F8827881F8093C8028093DF023B
:1042A0000C94E2182091790221110CC0209178021F
:1042B000211108C0209177022223C9F020917602B3
:1042C0002223A9F061110C94E2186091E20181E0CF
:1042D00068276093E20186E090E00E944118809197
:1042E000E2018093F2020E945D0F0C94E218892F84
:1042F0008095881F8827881F8093C9028093DF02DA
:104300000C94E2182091790221110CC020917802BE
:10431000211108C0209177022223C9F02091760252
:104320002223A9F061110C94E2186091E10181E06F
:1043300068276093E10187E090E00E944118809136
:10434000E1018093F4020E94460F0C94E218892F39
:104350008095881F8827881F8093D0028093DF0272
:104360000C94E2182091790221110CC0209178025E
:10437000211108C0209177022223A9F12091760211
:10438000222389F161110C94E2188091DE018111E0
:1043900025C08091E00181111BC081E08093E00184
:1043A0006091E00188E090E00E9441186091DE0198
:1043B0008AE090E00E9441188091E0018093F5022C
:1043C0008091DE018093F7020E94270F0C94E2187F
:1043D0001092E00181E08093DE01E2CF1092E001D3
:1043E0001092DE01DDCF892F8095881F8827881FD6
:1043F0008093D8028093DF020C94E2182091790216
:10440000211108C0209177022223C9F02091760261
:104410002223A9F061110C94E2186091DF0181E080
:1044200068276093DF0189E090E00E944118809145
:10443000DF018093F6020E94100F0C94E218892F7E
:104440008095881F8827881F8093DD028093DF0274
:104450000C94E2182091790221110CC0209178026D
:10446000211108C0209177022223C9F02091760201
:104470002223A9F061110C94E2186091E60181E019
:1044800068276093E60182E090E00E9441188091E5
:10449000E6018093E5020E94FA0E0C94E218892F3F
:1044A0008095881F8827881F8093CC028093DF0225
:1044B0000C94E2182091790221110CC0209178020D
:1044C000211108C0209177022223C9F020917602A1
:1044D0002223A9F061110C94E2186091E50181E0BA
:1044E00068276093E50183E090E00E944118809185
:1044F000E5018093E6020E94E40E0C94E218892FF5
:104500008095881F8827881F8093D5028093DF02BB
:104510000C94E2182091790221110CC020917802AC
:10452000211108C0209177022223C9F02091760240
:104530002223A9F061110C94E2186091E70181E057
:1045400068276093E70190E080E00E944118809125
:10455000E7018093E1020E94CD0E0C94E218892FAE
:104560008095881F8827881F8093B9028093C60290
:104570000C94E2182091790221110CC0209178024C
:10458000211108C020917702222359F02091760250
:10459000222339F061110C94E2180E94A2170C94A6
:1045A000E218892F8095881F8827881F8093C10271
:1045B0008093C6020C94E2188091740181110C94CE
:1045C000E21861110C94E2186091000181E0682703
:1045D0006093000181E090E00E9441188091000109
:1045E0008093F3020E94880E0C94E2183397EA3607
:1045F000F10510F00C94EE18E050FD4D0C94D22F04
:10460000FC1FDC22D81851195119661966197B193B
:104610009719D019D019D819EE18EE184420522045
:104620000E2029201B1A2D1AF719091AE019B3199F
:104630003F1A9A1CCB1FAA1CB21CFD1D051E0D1E85
:10464000151E1D1E251E2D1E351E3D1E451E851EBA
:10465000AA1CC11FB71FAD1F151FAD1DB51DBD1D68
:10466000C51DCD1DD51DDD1DE51DED1DF51D4D1E09
:10467000691E791F851E151FEE18951FBA1CC21CD6
:10468000CA1CD21CDA1CE21CEA1CF21CFA1C021D19
:104690002D1D351D3D1D451D4D1D551D5D1D651DEA
:1046A0006D1D751D7D1D851D8D1D951D9D1DA51DDA
:1046B000A11E311FBD1EE91E5D1FEE1860209A204D
:1046C000D620142152218221B221FE212A225A22EF
:1046D0008A22BA221F920F920FB60F9211242F93A3
:1046E0003F934F935F936F937F938F939F93AF937A
:1046F000BF93EF93FF938091B900887F803609F4D0
:104700004AC0F0F5883209F4A5C018F5803109F4E3
:1047100099C0B8F4882309F4F5C0883009F492C030
:10472000FF91EF91BF91AF919F918F917F916F9189
:104730005F914F913F912F910F900FBE0F901F905F
:104740001895883109F486C0803251F78093A0040F
:1047500014C0803409F49BC040F48033B9F388332B
:10476000F9F68093A00485ECAEC0803509F483C0CF
:10477000883509F494C0883499F60E940504D0CF96
:10478000883909F48AC038F5883729F050F488361A
:1047900011F0803729F683E08093A40410924E0331
:1047A00055C0883809F479C0803919F0803809F08B
:1047B000B7CF80914E03803208F06FC0E0914E0376
:1047C00081E08E0F80934E038091BB00F0E0E25DAC
:1047D000FC4F80833BC0803B39F0D0F4803A09F431
:1047E00077C0883A09F09CCF84E08093A4041092AB
:1047F0002D0310922C03F0E0E0E0099580912C034A
:1048000081110FC081E080932C0310920C0309C02A
:10481000803C09F4A8CF883C09F4A5CF883B09F077
:104820007FCFE0912D0381E08E0F80932D03F0E088
:10483000E45FFC4F80818093BB0090912D038091B9
:104840002C0329C080917D048093BB0085EC80936C
:10485000BC0066CF90919F0480919E04981758F5F4
:10486000E0919F0481E08E0F80939F04F0E0E25876
:10487000FB4F8081E9CFE0919F0481E08E0F809310
:104880009F048091BB00F0E0E258FB4F8083909141
:104890009F0480919E049817C8F285E8D8CFE091D4
:1048A0009F0481E08E0F80939F048091BB00F0E015
:1048B000E258FB4F80838091A10481115ECF81E09B
:1048C00080937C0484EA8093BC001092A40428CFD7
:1048D00085EC8093BC001092A40480914E0380323A
:1048E00030F4E0914E03F0E0E25DFC4F1082609105
:1048F0004E0370E08EE293E0F0E0E0E00995109264
:104900004E030ECF1092A00438CF1F920F920FB615
:104910000F9211242F933F938F939F93AF93BF9345
:104920008091040390910503A0910603B0910703C1
:104930003091030323E0230F2D3758F50196A11D75
:10494000B11D209303038093040390930503A09368
:104950000603B09307038091080390910903A09187
:104960000A03B0910B030196A11DB11D80930803AA
:1049700090930903A0930A03B0930B03BF91AF91E7
:104980009F918F913F912F910F900FBE0F901F908D
:10499000189526E8230F0296A11DB11DD2CF1F92B4
:1049A0000F920FB60F9211242F933F934F935F9363
:1049B0006F937F938F939F93AF93BF93EF93FF93E7
:1049C000E0910801F09109010995FF91EF91BF91E4
:1049D000AF919F918F917F916F915F914F913F9197
:1049E0002F910F900FBE0F901F9018951F920F924E
:1049F0000FB60F9211242F933F934F935F936F93B2
:104A00007F938F939F93AF93BF93EF93FF93E09127
:104A10000601F09107010995FF91EF91BF91AF91C8
:104A20009F918F917F916F915F914F913F912F91C6
:104A30000F900FBE0F901F9018951F920F920FB6F8
:104A40000F9211242F933F934F935F936F937F9314
:104A50008F939F93AF93BF93EF93FF9387ED94E072
:104A60000E94F109FF91EF91BF91AF919F918F91BA
:104A70007F916F915F914F913F912F910F900FBE5A
:104A80000F901F9018951F920F920FB60F9211243E
:104A90002F938F939F93EF93FF93E091E704F0910F
:104AA000E8048081E091ED04F091EE0482FD1BC0EA
:104AB00090818091F0048F5F8F732091F1048217B1
:104AC00041F0E091F004F0E0E952FB4F958F8093C4
:104AD000F004FF91EF919F918F912F910F900FBE56
:104AE0000F901F9018958081F4CFEBECF4E01382C7
:104AF000128288EE93E0A0E0B0E084839583A683E1
:104B0000B7832EE031E031832083E7EDF4E01382B8
:104B1000128284839583A683B78380E291E0918398
:104B2000808385EC90E09587848784EC90E097877C
:104B3000868780EC90E0918B808B81EC90E0938B6A
:104B4000828B82EC90E0958B848B86EC90E0978B47
:104B5000868B118E128E138E148EE6E7F5E013828B
:104B6000128282E391E09183808316821782E4E7C8
:104B7000F5E081E5808311820895CF93DF93CDB76F
:104B8000DEB728970FB6F894DEBF0FBECDBF78947E
:104B900084B5826084BD84B5816084BD85B5826042
:104BA00085BD85B5816085BD80916E0081608093F3
:104BB0006E0010928100809181008260809381005C
:104BC000809181008160809381008091800081606C
:104BD000809380008091B10084608093B1008091C7
:104BE000B00081608093B00080917A0084608093EF
:104BF0007A0080917A00826080937A0080917A00B6
:104C0000816080937A0080917A00806880937A0036
:104C10001092C100E091E704F091E80482E0808303
:104C2000E091E304F091E4041082E091E504F09156
:104C3000E60480E180831092EF04E091EB04F091B0
:104C4000EC0486E08083E091E904F091EA0480813D
:104C500080618083E091E904F091EA0480818860BA
:104C60008083E091E904F091EA0480818068808388
:104C7000E091E904F091EA0480818F7D808387EDE3
:104C800094E00E94600A61E08AE00E944E0660E0C3
:104C90008AE00E9419051FB7F8948091DC01811108
:104CA00027C0E6EAF5E08491EAEBF5E09491E82F7D
:104CB000F0E0EE0FFF1FE258FA4FA591B491EC918E
:104CC000E92321F461E08AE00E94190561E08AE0AD
:104CD0000E944E068CB580618CBD8CB580648CBD05
:104CE00061E08DE00E944E0661E08BE00E944E067E
:104CF0008091DC018F5F8093DC011FBF80917A007F
:104D0000887F846080937A0061E087E00E944E068D
:104D100061E087E00E94190561E080E10E944E0693
:104D200061E080E10E94190561E08FE00E944E067B
:104D300061E08FE00E94190562E084E10E944E0666
:104D400062E085E10E944E0662E082E00E944E062B
:104D500062E084E00E944E0662E083E00E944E061C
:104D600062E085E00E944E0662E086E00E944E0608
:104D700062E088E00E944E0662E089E00E944E06F2
:104D800062E08EE00E944E0662E081E10E944E06E3
:104D900088E490E00E94CF0F6091E70190E080E00E
:104DA0000E9456188093E7016091000181E090E035
:104DB0000E945618809300016091E60182E090E025
:104DC0000E9456188093E6016091E50183E090E02F
:104DD0000E9456188093E5016091E40184E090E020
:104DE0000E9456188093E4016091E30185E090E011
:104DF0000E9456188093E3016091E20186E090E002
:104E00000E9456188093E2016091E10187E090E0F2
:104E10000E9456188093E1016091E00188E090E0E3
:104E20000E9456188093E0016091DF0189E090E0D4
:104E30000E9456188093DF016091DE018AE090E0C5
:104E40000E9456188093DE016091DD018BE090E0B6
:104E50000E9456188093DD0160917E028CE090E004
:104E60000E94561880937E02609159048DE090E074
:104E70000E945618809359049091E7019093E102A3
:104E80009091E6019093E5029091E5019093E602FE
:104E90009091E4019093F0029091E3019093F102DC
:104EA0009091E2019093F2029091E1019093F402CB
:104EB0009091E0019093F5029091DF019093F602BA
:104EC0009091DE019093F7029091DD019093F802AA
:104ED000909100019093F3028093F90286E694E0AA
:104EE0000E94161288E494E00E9416128091ED014F
:104EF000811105C060E08FEF0E949413F7CF84E921
:104F000093E190937F0580937E058FE080938705E2
:104F100086E08093880588E08093890589E0809306
:104F20008A058AE080938B058EE080938C0581E171
:104F300080938D0510928105109280051092860550
:104F40000E94070760938205709383058093840510
:104F50009093850567E374E087ED94E00E944F0924
:104F60000E94800A84E08093E90182E08093E80156
:104F700062E00E944E0662E084E00E944E0669E70D
:104F80007CE080E00E94B9038EEE0E94950A8BEBD4
:104F90000E94950A892B11F00E94180B66E070E0C0
:104FA00080E090E00E94D5060E94620C8C01992757
:104FB0008E3E910521F08A3A910509F0F4C082E312
:104FC00094E00E94161281E080934F038091540375
:104FD0008F7E809354030E94570B82E090E0909361
:104FE0008A028093890260E074E087ED94E00E9479
:104FF0004F0983E090E090938F0580938E0585E0C4
:1050000090E090939105809390058093EA0110922F
:1050100092050E943B08809388026DE371E087ED62
:1050200094E00E9407126AE371E087ED94E00E9429
:10503000071264EF73E087ED94E00E944F0910922D
:105040007B0410927A041092A8041092CA040E9461
:10505000500588E60E94D5030E94740588E60E94E8
:10506000D50390E080E00E94C2040E9474050E9473
:105070005F100E94F20387FF21C082ED93E00E943F
:10508000161288E60E94D50390E080E00E94C204D8
:105090000E9474050E945F100E94F203182F88E698
:1050A0000E94D50390E080E00E94C204612F6F77D8
:1050B0008BEC94E00E9493040E9474050E94E81116
:1050C0009093900280938F020E94CC1180938E0265
:1050D0000E94B011809303010E94A21180930201EB
:1050E0000E946E1180938D020E94521180938C0257
:1050F0000E94361180938B028BE190E00E94921304
:1051000082FB992790F921E092279093EC018695F4
:105110008170809301010E94A9158DEC93E00E949B
:1051200016128091EB0181110CC063EB73E087EDE7
:1051300094E00E944F090E9449168EEA93E00E9473
:10514000161262EA73E087ED94E00E944F0981E055
:105150008093B1028093B6028093FA020E940707FF
:105160006093B2027093B3028093B4029093B5023D
:105170008FE080937A0510927B050E94590E0E9461
:10518000970F09E088E0F82EF0927C0500937D05EA
:1051900018E0093021F569EC183051F16BEB18314A
:1051A00039F16DEC25C0892B29F488E294E00E9446
:1051B000161213CF6EE074E087ED94E00E944F0961
:1051C000A80170E060E020E187ED94E00E942912E0
:1051D0006AE371E087ED94E00E940712FECE003191
:1051E00009F0D9C468EC183019F06CEB1831C9F625
:1051F00086E795E00E94250E1F5F193151F60F5F7B
:10520000013111F61DE010937A0510927B050BE039
:1052100000937C0500937D056FE773E086E795E0DA
:105220000E944F0910937A0581E080937B050093DB
:105230007C0510937D0563E773E086E795E00E94A7
:105240004F098DE993E00E9416128AE893E00E94CC
:10525000161260E080E10E941905A3EC8A2E912CC1
:10526000212C312C2101239410E0A12E10E0B12E2D
:1052700077247394F8E16F2E0E9407076B017C017D
:105280000E94690B882309F44DC00E94620C8C01B6
:10529000C092FF02D0920003E0920103F092020359
:1052A00061E080E10E941905B701A601C8010E94D2
:1052B0007D1866E775E087ED94E00E944F09A8012C
:1052C00070E060E020E187ED94E00E94291267E63B
:1052D00075E087ED94E00E944F09412F552770E05B
:1052E00060E020E187ED94E00E9429126FE575E00F
:1052F00087ED94E00E944F09A801552770E060E017
:1053000020E187ED94E00E9429126AE371E087EDC5
:1053100094E00E9407128091FA02882319F0C801D4
:105320000E9453138091B6028823F9F08091B20253
:105330009091B302A091B402B091B5029701860199
:10534000081B190B2A0B3B0BD901C801893B9B4059
:10535000A105B10550F01092B6028091B1028823E8
:1053600021F01092B1021092FA020E9463178CB5DC
:105370008F7B8CBD62E08AE00E944E0680915904CA
:10538000811114C486E00E94F00421E0892B09F009
:1053900020E02093AB0288E00E94F00421E0892BFA
:1053A00009F020E02093AC0289E00E94F00421E0A3
:1053B000892B09F020E02093AD028AE00E94F004DE
:1053C00021E0892B09F020E02093AE028EE00E94BC
:1053D000F00421E0892B09F020E02093A90281E16B
:1053E0000E94F00421E0892B09F020E02093AA021A
:1053F0001092AF021092B00261E08AE00E944E0665
:1054000060E08AE00E9419058CB580618CBD8CB586
:1054100080648CBD7091A902E091A1026091AA0202
:105420005091AB024091AC023091AD022091AE029E
:105430009091AF028091B0027E131DC0E091A20254
:105440006E1319C0E091A3025E1315C0E091A4028F
:105450004E1311C0E091A5023E130DC0E091A602CB
:10546000E21309C0E091A7029E1305C0E091A802D3
:105470008E1709F49FC07093A1026093A20250930B
:10548000A3024093A4023093A5022093A602909316
:10549000A7028093A802809159046CE175E08823EB
:1054A000D1F06FE475E087ED94E00E944F098091A0
:1054B000800569E475E080FD02C062E475E087ED77
:1054C00094E00E944F098091860569E375E081119F
:1054D00002C060E375E087ED94E00E944F0968E147
:1054E00075E087ED94E00E944F096091AB0270E097
:1054F00087ED94E00E94751264E175E087ED94E019
:105500000E944F096091AC0270E087ED94E00E9428
:10551000751260E175E087ED94E00E944F0960919B
:10552000AD0270E087ED94E00E9475126CE075E0CA
:1055300087ED94E00E944F096091AE0270E087ED24
:1055400094E00E94751267E075E087ED94E00E9498
:105550004F096091A90270E087ED94E00E947512F6
:1055600062E075E087ED94E00E944F096091AA0225
:1055700070E087ED94E00E9475126EEF74E087EDA5
:1055800094E00E944F096091AF0270E087ED94E0D3
:105590000E9475126AEF74E087ED94E00E944F0953
:1055A0008091B00290E00E94AF128091FA028111C6
:1055B0000E94C212E9EAF2E090E080E060E04191EE
:1055C00092018101082E04C0000F111F221F331FFA
:1055D0000A94D2F7442309F465C4602B01968830FD
:1055E000910569F78DE00E94941380919D0290913E
:1055F0009E02A0919F02B091A002A7019601281BD4
:10560000390B4A0B5B0BDA01C90184369105A10500
:10561000B10508F472C084E10E949E0603977CF5F0
:105620008091990290919A02A0919B02B0919C0264
:1056300097018601081B190B2A0B3B0BD901C801E6
:10564000843F9140A105B105D0F0C0929902D0925B
:105650009A02E0929B02F0929C0281E00E94470530
:105660006BEE74E087ED94E00E944F090E94A21750
:1056700086EE94E00E94161280E00E94470585E1C4
:105680000E949E0603978CF5809195029091960258
:10569000A0919702B0919802A7019601281B390B9F
:1056A0004A0B5B0BDA01C901843F9140A105B105AA
:1056B000E0F0C0929502D0929602E0929702F092AA
:1056C000980261E080E10E94190567ED74E087EDC2
:1056D00094E00E944F090E94BD1782ED94E00E9461
:1056E000161260E080E10E941905C0929D02D092DE
:1056F0009E02E0929F02F092A0028091910290910E
:105700009202A0919302B091940297018601081B26
:10571000190B2A0B3B0BD901C801843F9140A1050D
:10572000B10508F4C0C00E94E811909390028093E4
:105730008F020E94CC1180938E020E94B011809340
:1057400003010E94A211809302010E946E118093B6
:105750008D020E94521180938C020E943611809318
:105760008B020E94A9158091FA02882309F493C044
:105770008DE080937A0510927B0560927C051092F3
:105780007D0580918D028A3030F462E471E086E715
:1057900095E00E94071240918D0250E070E060E0B9
:1057A0002AE086E795E00E94291266E974E086E720
:1057B00095E00E944F0980918C028A3030F462E4B7
:1057C00071E086E795E00E94071240918C0250E05C
:1057D00070E060E02AE086E795E00E94291264E923
:1057E00074E086E795E00E944F0980918B028A3031
:1057F00030F462E471E086E795E00E940712409180
:105800008B0250E070E060E02AE086E795E00E94BD
:10581000291286E180937C0582E080937D0580914A
:1058200003018A3030F462E471E086E795E00E947B
:1058300007124091030150E070E060E02AE086E743
:1058400095E00E94291262E974E086E795E00E94E3
:105850004F0980918E028A3030F462E471E086E76D
:1058600095E00E94071240918E0250E070E060E0E7
:105870002AE086E795E00E94291260E974E086E755
:1058800095E00E944F0960918F027091900286E727
:1058900095E00E947512C0929102D0929202E0921D
:1058A0009302F09294028091890290918A021816D4
:1058B00019060CF041C02091880221113DC0409191
:1058C000840250918502609186027091870297014F
:1058D0008601041B150B260B370BB901A8014536B1
:1058E00051056105710540F1019790938A028093FB
:1058F000890268EA74E087ED94E00E944F09809184
:10590000890290918A020E94AF120E943B08809304
:10591000880268E974E087ED94E00E944F09809165
:10592000880290E00E94AF12C0928402D092850259
:10593000E0928602F092870280916E0290916F024F
:10594000891B87FD805F18160CF078C080916E026D
:1059500090916F02891B87FD805F882309F4A5C29F
:1059600080916F0290916E02891709F49EC28F5F39
:10597000803108F080E080936F0218E0819FC001C1
:10598000112482519E4F28E0FC01DE011196019006
:105990000D922A95E1F7FC01408151816281848159
:1059A0002F813091830237253093830260938202E6
:1059B00080938102E42FE170E0937F02CA01969503
:1059C0008795782F7170CA018470992740917E0263
:1059D000572F411101C05E2F552309F46BC220617E
:1059E0002093800241117E2F20918002772309F4B9
:1059F00063C220622093800220918002892B09F4E7
:105A00005DC220642093800280918002332309F4D8
:105A100057C28068809380028AE00E94941360914C
:105A200081028BE00E949413609180028CE00E94BE
:105A300094138091FA0281110E94001380918802D0
:105A4000882309F45DC080917A0290917B02A09135
:105A50007C02B0917D0297018601081B190B2A0B6D
:105A60003B0BD901C801893E9340A105B10508F45B
:105A700047C08091790281110CC080917802811118
:105A800008C080917702882399F18091760288235B
:105A900079F180917F02882359F160917E02672518
:105AA00060937E028CE090E00E94411861E080E10A
:105AB0000E94190564E670E080E090E00E94D5063F
:105AC00060E080E10E94190564E670E080E090E00B
:105AD0000E94D50661E080E10E94190564E670E04D
