:100000000C946D030C94C92D0C94A22D0C949503A3
:100010000C9495030C9495030C9495030C94950300
:100020000C9495030C9495030C9495030C949503F0
:100030000C9495030C9495030C9495030C949503E0
:100040000C94F02D0C9495030C9495030C9495034B
:100050000C9495030C9495030C9495030C949503C0
:100060000C94872C0C9495038FAEE0E2202331464C
:10007000008CA8E8A00091AAA0ADAAAEA4008DA013
:10008000ABA0A3AEA4A6A5ADADEF0080AFE2A0A942
:10009000AC00928480313534330092A8AF20968032
:1000A0008F0090A5A269A769EF20AFABA0E2A800DE
:1000B00090A5AB69A7208082900090A5AB69A7208E
:1000C0008F8B49910091A8E1E2A5ACADA02069AD6C
:1000D000E4AEE0ACA0E669EF007777772E6B617253
:1000E000616261732E756B0020AAA0E1AFA5E000EC
:1000F00020A4A0ACAFAA69AD0020E5A4A5ACAEE5F4
:100100000020E2A0ADAAE3E8A00020AAA0ABA0AD29
:10011000E2A0A9008EE1AEA1ABA8A2A020AFAEA440
:10012000EFAAA0002049ADE2A5E0ADA5E220E1AE36
:10013000E4E20020AD69E569E0A0E820202000208D
:1001400094ABA5E892E3AB206920948449ACA5A4C4
:10015000A60020AB69AAA0E020ACA0AAE100208FF5
:100160008B49912C20AFABA0E2A00020E1AEABA563
:10017000A3E1E2A0E02000208F8B49912C20808217
:10018000902C20AFABA0E2A00020A5ADA469AAA04E
:10019000E0AFAEA20090AEA7E0AEA1ADA8AAA820A5
:1001A0004B6172616261732050726F008FE0AE200C
:1001B000AFE0AEA5AAE200A4ABEF20ADA0A269A378
:1001C000A0E669CF20AFAE20ACA5ADEE00A4ABEFAA
:1001D00020A7AC69ADA820A7ADA0E7A5ADEC2C2069
:1001E0000082A8AAAEE0A8E1E2AEA2E3A9E2A520BF
:1001F000E1E2E069ABAAA8200084A5ADEC20E2A86A
:10020000A62E009069AA008C69E1EFE6EC0097A8A1
:10021000E1ABAE0091A5AAE3ADA4A80095A2A8AB5E
:10022000A8ADA80083AEA4A8ADA8008DA0ABA0E89F
:10023000E2E3A2A0ADADEF20E7A0E1E30000000003
:1002400000240027002A0000000000250028002BC1
:100250000000000000230026002900040404040418
:100260000404040202020202020303030303030163
:10027000020408102040800102040810200102043A
:10028000081020000000080002010000030407001D
:100290000000000000000020A4ABEF20AFAEA2A53C
:1002A000E0ADA5ADADEF004553430019121814158C
:1002B000BB161117131A40402020080402027701D0
:1002C0007E025803120659071408110A8410761B7F
:1002D000661C0D1D5A1E291F7020692172227A2367
:1002E0006B24732574266C2775287D29712A792C37
:1002F0007B2D7C2E0F3F453016311E3226332534A0
:100300002E3536363D373E384639523A413B4E3C23
:10031000493D4A3E0E401C4132422143234424457C
:100320002B463447334843493B4A424B4B4C3A4DAA
:10033000314E444F4D5015512D521B532C543C55AA
:100340002A561D57225835591A5A4C5B5D5C545D2C
:100350005B5E555F618B0561066204630C64036537
:100360000B6683670A680169096A786B076C086D18
:10037000106E186F20702871307238734074487591
:10038000507657775F786D60519113926A936494B9
:100390006795F296F197639862995FA012BB7C040F
:1003A0001409110B1F0C270D2F0E7E0F6C116912F3
:1003B0007D137A146B157416751772187019711AEB
:1003C0005A2B4A2F4D79157A3B7B347C237D327E24
:1003D000217F508048812B82408310843A85388663
:1003E000308728882089188A378C3F8D5E9020A41A
:1003F000ABEF204F5344008CA5ADEE2B455343008B
:1004000020A4ABEF20E0A5A1E3E2E3004374726C0B
:100410002B416C742B44656C008DA0E2A8E1ADA863
:100420002000A1A0E3E2004100ADE4A020004900CB
:10043000202D2097A0E10053008FA0E3A7A000503B
:100440007274537263008AABA0A2A0008CA5ADEEBB
:100450002B4E004E656D6F20494445008CA5ADEED6
:100460002B44004469764D4D43008CA5ADEE2B56D0
:100470000085AAE0A0AD008CA5ADEE2B4D0091E269
:100480002E20A4A6AEEE008CA5ADEE2B4A0092A8BD
:10049000AF20A4A6AEEE008CA5ADEE2B92A0A100DD
:1004A000838C8420802D3E81008CA5ADEE2B4631BF
:1004B000310092E3E0A1A0008CA5ADEE2B463130D7
:1004C000008AA0A4E0AEA2A0008CA5ADEE2B463918
:1004D000008269A4A5AE008CA5ADEE2B463800972E
:1004E00069AF20A7A2E3AAE3008CA5ADEE2B4637A7
:1004F000008C69AAE8A5E0008CA5ADEE2B4636007D
:100500008AAEA2AEAAE1008CA5ADEE2B46350092D4
:10051000E3E0A1AE20838C84008CA5ADEE2B4631A8
:100520002D46340081A0ADAA208F878F0080829055
:1005300020008F8B4991200090A5A22E00CE00852F
:1005400000849100802D84004644496D61676500F8
:1005500094ABA5E8A5E00050512D444F530084A56D
:10056000E4AEABE2008CAEADAE008096810080813F
:100570009600594D3231343946004159332D3839BE
:10058000313200828680203330AA83E60090838156
:10059000203135AA83E60035302083E6003630204E
:1005A00083E60038780034780032780091858380C3
:1005B0000080E2A0E06900512D412D4F2D502D4DBE
:1005C000008AE3E0E1AEE0009169ADAAABA5E020CE
:1005D00032009169ADAAABA5E02031008AA5ACAF8D
:1005E000E1E2AEAD008AABA0E1A8AAA0008FA5AD64
:1005F000E2A0A3AEAD0091AFA5AAE2E0E3AC008F0C
:10060000E0AEE469205854008D690092A0AA002D44
:100610002D2E2D2D2E2D2D2D2D002E002D2D3A2D54
:100620002D3A2D2D0083E0E3A4A5ADEC008BA8E1CD
:10063000E2AEAFA0A40086AEA2E2A5ADEC0082A51A
:10064000E0A5E1A5ADEC0091A5E0AFA5ADEC008B78
:10065000A8AFA5ADEC0097A5E0A2A5ADEC0092E097
:10066000A0A2A5ADEC008AA269E2A5ADEC0081A52F
:10067000E0A5A7A5ADEC008BEEE2A8A9009169E783
:10068000A5ADEC003F3F3F008DA5A469ABEF009105
:10069000E3A1AEE2A0008F27EFE2ADA8E6EF00975E
:1006A000A5E2A2A5E00091A5E0A5A4A0008269A210
:1006B000E2AEE0AEAA008FAEADA5A469ABAEAA00D3
:1006C00020003A00300020E2A0200020A4A5ADECDC
:1006D0000020A4AD69A200003A2E11241FBECFEF66
:1006E000D8E0DEBFCDBF25E0A0E3B1E001C01D92A0
:1006F000A735B207E1F711E0A0E0B1E0EAE5FFE7D6
:1007000002C005900D92A033B107D9F713E0CDE6F2
:10071000D3E004C02197FE010E94A53FCC36D1074B
:10072000C9F70E94F62E0C94AB3F0C94000088236E
:1007300039F08FE08093F40482E08093F50408950B
:1007400083E08093F4041092F504089591E090936F
:10075000D7038093F9031092D8031092FA030895F7
:100760009091AB038091AA032FEF3FEF981748F4C5
:10077000E92FF0E0E657FC4F208130E09F5F909337
:10078000AB03C90108959091AB038091AA032FEFA9
:100790003FEF981748F4E92FF0E0E657FC4F20812F
:1007A00030E09F5F9093AB03C9010895462FE0911D
:1007B0000704F0910804682F8AEF09948F929F92A2
:1007C000AF92BF92EF92FF920F931F93CF9387E266
:1007D000E82E84E0F82EC0E0812C912C5401839403
:1007E000F70190E080E040E0519195018401082EEE
:1007F00004C0000F111F221F331F0A94D2F7552384
:10080000E1F0402B01968830910571F7CF5FE091C0
:100810002204F09123046C2F81E0099588E0E80E12
:10082000F11CCA30E9F6CF911F910F91FF90EF9024
:10083000BF90AF909F908F90089500954023E2CF96
:100840008230C8F4E82FF0E0EE0FFF1FEF5FFE4F9D
:1008500071836083813041F0809169008C7F826078
:1008600080936900E89A089580916900837F886089
:1008700080936900E99A08952091120480911B04E5
:10088000882349F0822F6AE00E94993F982F990FA0
:10089000890F880F280F622F80E00E94D603809175
:1008A0001B0420911104622F882349F0822F6AE0F3
:1008B0000E94993F682F660F680F660F620F82E0F3
:1008C0000E94D60390911C0480911B042091100477
:1008D000992309F462C0882349F0822F6AE00E94BC
:1008E000993F982F990F890F880F280F622F84E066
:1008F0000E94D60380911B0420911604622F882346
:1009000049F0822F6AE00E94993F682F660F680FB6
:10091000660F620F86E00E94D60380911B0420912F
:100920000F04622F882349F0822F6AE00E94993FCA
:10093000682F660F680F660F620F87E00E94D6036C
:1009400080911B0420910E04622F882349F0822F8E
:100950006AE00E94993F682F660F680F660F620F6A
:1009600088E00E94D60320911B0480910C04909192
:100970000D0464E670E00E94493F682F222351F085
:10098000282F862F6AE00E94993F682F660F680F14
:10099000660F620F89E00C94D603882329F02D306E
:1009A00008F49BCF2CE899CF2D3008F49FCF2CE88A
:1009B0009DCFE1E2F4E0AFE8B4E08C9191E08927CB
:1009C0008C9383AB0380F481E02D70E060E08DE0D8
:1009D0000994CF92DF92EF92FF920F931F93CF93E0
:1009E000DF93CDB7DEB764970FB6F894DEBF0FBEC6
:1009F000CDBF2091B1043091B204611133C0121601
:100A00001306A4F4EDE9F4E050E040E0A191B191C7
:100A10008A179B0709F461E04F5F5F4F4217530746
:100A2000A9F7611110C02A30310569F0F901EE0F04
:100A3000FF1FE356FB4F918380832F5F3F4F30931F
:100A4000B2042093B10464960FB6F894DEBF0FBED3
:100A5000CDBFDF91CF911F910F91FF90EF90DF906D
:100A6000CF900895FE01319644E1DF011D924A9531
:100A7000E9F71216130684F50DE914E0780150E049
:100A800040E070E060E0D701CD90DD907D018C15F5
:100A90009D0549F0DA01AA0FBB1FAE0FBF1FCD9213
:100AA000DC924F5F5F4F6F5F7F4F6217730759F79D
:100AB0004115510589F090E080E021913191D801F4
:100AC0002D933D938D01019684179507B1F75093AF
:100AD000B2044093B104B7CF50E040E0F8CF85EDC9
:100AE0008093BC001092D6031092D5038091BC0075
:100AF00084FF0BC02091D5033091D603809105016E
:100B0000909106012817390718F01092D403089520
:100B10008091D5039091D60301969093D60380934C
:100B2000D503E4CF20915802260F3327331F2132FB
:100B30003105ECF42091D403FC0190E080E02430F6
:100B400069F082E00895A09158022191AC01485CBF
:100B50005D4FA40FB52FB11D2C930196861798F306
:100B600080915802680F6093580280E0089581E0F8
:100B700008950895E091AB038091AA03E81730F43B
:100B8000F0E0E657FC4F808190E008958FEF9FEFF3
:100B900008958091AA039091AB03891B990B089546
:100BA000CF92DF92EF92FF920F931F93CF93DF9339
:100BB0007C01CB018A012091D703222389F0EB012C
:100BC0006B01C40ED51ECC15DD0569F06991D70106
:100BD000ED91FC910190F081E02DC7010995F3CFD3
:100BE000642F0E949205C801DF91CF911F910F9150
:100BF000FF90EF90DF90CF900895CF93DF931F92F7
:100C0000CDB7DEB769832091D7032223F9F0209175
:100C1000FA03203258F021E030E0FC0133832283D4
:100C200090E080E00F90DF91CF9108958091D803FC
:100C3000E82FF0E0E752FC4F998190838F5F80931B
:100C4000D8038093FA0381E090E0ECCF61E0CE011D
:100C500001960E949205F7CF682F8BEF93E00C94DA
:100C6000FD0508950F931F93CF93DF93EC01062F9B
:100C70001C811295107FE885F9854E8160E180E244
:100C80000995E885F9854F8161E180E20995E8855C
:100C9000F985402F62E180E209954D81410FE88599
:100CA000F98563E180E209959F818E818F5F8032B3
:100CB00060F48E839A3110F01F821E8281E090E0F2
:100CC000DF91CF911F910F9108951E8281E0890FCE
:100CD0008F83F0CF0F931F93CF93DF938C01D0E0DE
:100CE000C0E0F801EC0FFD1F6491662341F080EF36
:100CF00094E00E943206892B11F02196F2CFCE01AA
:100D0000DF91CF911F910F910895CF93C8E080ECB0
:100D100096E00E946A06C150D1F7CF910895809164
:100D20000A05813009F03DC090910E05963009F01A
:100D300080E00E9497038AE08093F6048FE080931E
:100D4000F704E0911604E15084E896E0E73070F48F
:100D5000F0E0E355F94F0C94A53FCE06B406BF066C
:100D6000C206C506C806CB0686EB96E00E946A0658
:100D70008FE08093F4041092F5040C9485068DEABC
:100D800096E0F4CF86EA96E0F1CF8FE996E0EECFD9
:100D900086E996E0EBCF8FE896E0E8CF88E896E02A
:100DA000E5CF089580910A05813009F051C09091F6
:100DB0000E05943009F080E00E9497038AE080934A
:100DC000F6048CE08093F704E0910E04E15084E88F
:100DD00096E0EC3098F4F0E0E051F94F0C94A53F28
:100DE000FC0607070A070D07100713071607190760
:100DF0001C071F07220725078DE796E00E946A0659
:100E00008FE08093F4041092F5040C94850687E734
:100E100096E0F4CF8EE696E0F1CF86E696E0EECF50
:100E20008EE596E0EBCF86E596E0E8CF8FE496E09E
:100E3000E5CF87E496E0E2CF8EE396E0DFCF86E36E
:100E400096E0DCCF8DE296E0D9CF85E296E0D6CF72
:100E50000895EEEEF4E02FE0268317820C946A06E4
:100E6000EEEEF4E027E0268317820C946A06809168
:100E70009104811112C080910A05811122C081E084
:100E800090910C059F3009F080E00E9497038AE062
:100E90008093F60484E18093F704809154048823BE
:100EA00069F08BE096E00E946A068FE08093F4047C
:100EB0001092F50480EC96E00C946A0688E096E0C7
:100EC000F2CF0895EEEEF4E02FE0268317820E9421
:100ED0006A0680EC96E00C946A0680919104811178
:100EE00012C080910A05811119C081E090910C0512
:100EF0009E3009F080E00E9497038AE08093F60418
:100F000083E18093F70480917704882321F08FEFA9
:100F100095E00C946A0686EF95E0FBCF08958091EA
:100F20009104811112C080910A05811122C081E0D3
:100F300090910C059D3009F080E00E9497038AE0B3
:100F40008093F60482E18093F70480918E048823D5
:100F500069F08BE096E00E946A068FE08093F404CB
:100F60001092F50480EC96E00C946A0688E096E016
:100F7000F2CF089580919104811112C080910A05E9
:100F8000811122C081E090910C059C3009F080E035
:100F90000E9497038AE08093F60481E18093F7042E
:100FA00080918D04882369F08BE096E00E946A06A8
:100FB0008FE08093F4041092F50480EC96E00C949A
:100FC0006A0688E096E0F2CF08958091910481113D
:100FD00012C080910A05811125C081E090910C0515
:100FE0009B3009F080E00E9497038AE08093F6042A
:100FF00080E18093F70480917A04882319F081308E
:1010000029F008958DEE95E00C946A0685EE95E042
:101010000E946A068FE08093F4041092F50480EC3D
:1010200096E0F2CF089580919104811112C08091D1
:101030000A05811133C081E090910C059A3009F0C6
:1010400080E00E9497038AE08093F6048FE080930B
:10105000F70480918C04823011F128F4882341F048
:10106000813099F008958330E9F0843069F1089572
:101070008CED95E00E946A068FE08093F404109254
:10108000F50480EC96E00C946A0682ED95E00E94EF
:101090006A068FE08093F4041092F504089588ECBA
:1010A00095E0F5CF81EC95E00E946A068FE0809391
:1010B000F4041092F50480EC96E00E946A0680EC3D
:1010C00096E00E946A06DDCF87EB95E0E0CF809145
:1010D0009104811112C080910A05811122C081E022
:1010E00090910C05993009F080E00E9497038AE006
:1010F0008093F6048EE08093F70480918B0488231C
:1011000069F08CEA95E00E946A068FE08093F4040F
:101110001092F50480EC96E00C946A0681EB95E061
:10112000FBCF089580919104811112C080910A052E
:10113000811122C081E090910C05983009F080E087
:101140000E9497038AE08093F6048DE08093F70471
:1011500080918A04882369F08BE096E00E946A06F9
:101160008FE08093F4041092F50480EC96E00C94E8
:101170006A0688E096E0F2CF08958091910481118B
:1011800012C080910A05811119C081E090910C056F
:10119000963009F080E00E9497038AE08093F6047D
:1011A0008BE08093F70480918204882321F08DE9FD
:1011B00095E00C946A0687E995E0FBCF089580914D
:1011C0009104811111C080910A05811118C081E03C
:1011D00090910C05953009F080E00E9497038AE019
:1011E0008093F6048093F70480918104882321F092
:1011F0008DE895E00C946A0683E895E0FBCF0895AE
:1012000080919104811112C080910A05811122C040
:1012100081E090910C05943009F080E00E949703E2
:101220008AE08093F60489E08093F7048091880433
:10123000882321F08AE795E00C946A0682E795E01E
:101240000E946A068FE08093F4041092F50480EC0B
:1012500096E0F2CF089580919104811112C080919F
:101260000A0581112BC081E090910C05933009F0A3
:1012700080E00E9497038AE08093F60488E08093E0
:10128000F7048091870490918904911114C08823F8
:1012900079F0813081F48EE695E00E946A068FE055
:1012A0008093F4041092F50480EC96E00C946A06A6
:1012B0008AE695E0F2CF85E695E0F8CF0895809133
:1012C0009104811112C080910A05811122C081E030
:1012D00090910C05923009F080E00E9497038AE01B
:1012E0008093F60487E08093F70480918604882336
:1012F00069F08BE096E00E946A068FE08093F40428
:101300001092F50480EC96E00C946A0688E096E072
:10131000F2CF089580919104811112C080910A0545
:10132000811122C081E090910C05913009F080E09C
:101330000E9497038AE08093F60486E08093F70486
:1013400080918504882369F08BE096E00E946A060C
:101350008FE08093F4041092F50480EC96E00C94F6
:101360006A0688E096E0F2CF089580919104811199
:1013700011C080910A0581112FC081E090910C0568
:10138000911180E00E9497038AE08093F60485E043
:101390008093F7048091830490918404911182607A
:1013A0008230A1F08330A9F0813069F08EE595E0BC
:1013B0000E946A068FE08093F4041092F50480EC9A
:1013C00096E00C946A0687E595E0F2CF80E595E01B
:1013D000EFCF88E495E0ECCF08958091FB0490E096
:1013E00095958795959587958F70813051F028F068
:1013F000893051F08D3059F0089584E495E00C94D3
:101400006A0681E495E0FBCF8FE395E0F8CF8DE3AA
:1014100095E0F5CFFF920F931F93CF93DF93182F93
:10142000CEEED4E0188689878FE08E831F8260EB32
:1014300080EF94E00E94320661EB80EF94E00E941E
:10144000320662EB80EF94E00E94320663EB80EF9D
:1014500094E00E94320664EB80EF94E00E94320632
:1014600065EB80EF94E00E94320662EB80EF94E03F
:101470000E94320663EB80EF94E00E94320666EB36
:1014800080EF94E00E94320667EB80EF94E00E94C8
:10149000320662EB80EF94E00E94320663EB80EF4D
:1014A00094E00E94320668EB80EF94E00E943206DE
:1014B00069EB80EF94E00E943206188681E0810F8C
:1014C000898760EC80EF94E00E94320661EC80EF47
:1014D00094E00E94320662EC80EF94E00E943206B3
:1014E00063EC80EF94E00E94320664EC80EF94E0BD
:1014F0000E94320665EC80EF94E00E94320662ECB6
:1015000080EF94E00E94320663EC80EF94E00E944A
:10151000320666EC80EF94E00E94320667EC80EFC2
:1015200094E00E94320662EC80EF94E00E94320662
:1015300063EC80EF94E00E94320668EC80EF94E068
:101540000E94320669EC80EF94E00E94320602E0CD
:10155000010F88E0F82EF88609876AEB80EF94E0A7
:101560000E9432066BEB80EF94E00E94320664EB3F
:1015700080EF94E00E94320665EB80EF94E00E94D9
:1015800032066CEB80EF94E00E9432066DEB80EF48
:1015900094E00E9432061D5FF88619876AEC80EF9E
:1015A00094E00E9432066BEC80EF94E00E943206D9
:1015B00064EC80EF94E00E94320665EC80EF94E0EA
:1015C0000E9432066CEC80EF94E00E9432066DECD3
:1015D00080EF94E00E94320681E08887098789E0E5
:1015E0008E831F8266E180EF94E00E9432068DE0D8
:1015F0008E831F8266E180EF94E00E94320685E0D0
:101600008E831F8266E180EF94E00E94320683E0C1
:101610008E831F8266E180EF94E00E9432068EE0A6
:101620008E831F821886198788E395E00E946A06D8
:10163000DF91CF911F910F91FF900C94ED09CF9303
:10164000DF931092F6041092F704CAE1D0E260E052
:1016500080EF94E00E943206D150C9F7C150B1F733
:10166000DF91CF910895CF938FE08093F40410928F
:10167000F5041092F60486E18093F704C0E26FE56A
:1016800080EF94E00E943206C150C9F71092F60430
:1016900087E18093F70489E194E00E94290787EAB3
:1016A00092E00E94300787E992E0CF910C942907DD
:1016B0001092A4011092A3011092A2011092A10114
:1016C00010920703109206031092A0011092850257
:1016D0001092800210929F0108959091A4019F5F43
:1016E000903408F090E02091A301291751F0E92FE0
:1016F000F0E0E15AFE4F80839093A40181E090E0F6
:1017000008958CEF9FEF0895833081F028F48130A5
:1017100099F08230A9F008958730A9F08830C9F097
:101720008430B1F4809180008F7D03C0809180006F
:101730008F7780938000089584B58F7784BD089556
:1017400084B58F7DFBCF8091B0008F778093B00000
:1017500008958091B0008F7DF9CFCF93DF93282F2C
:1017600030E0F901ED57FD4F8491F901E159FD4F4A
:10177000D491F901E55AFD4FC491CC23A1F0811118
:101780000E94840BEC2FF0E0EE0FFF1FEF5AFD4F8D
:10179000A591B491EC91ED2381E090E009F480E013
:1017A000DF91CF91089580E090E0FACF1F93CF931F
:1017B000DF93282F30E0F901ED57FD4F8491F901B7
:1017C000E159FD4FD491F901E55AFD4FC491CC2365
:1017D000A9F0162F81110E94840BEC2FF0E0EE0F80
:1017E000FF1FE95BFD4FA591B4918FB7F894EC9181
:1017F000111108C0D095DE23DC938FBFDF91CF910C
:101800001F910895DE2BF8CF90918B0461E0911128
:1018100001C0682F8FE00C94D60BCF93DF93CCEBF5
:10182000D0E018821092D40381E08093D10310920B
:10183000AC0361E082E10E94D60B61E083E10E948B
:10184000D60BE9EBF0E080818E7F808380818D7FF5
:10185000808388E48093B80085E48883DF91CF910A
:1018600008952091FA0381E0213270F58091F90307
:101870001092D6031092D5039091D403992359F076
:101880006091D5037091D6034091050150910601F6
:101890006417750700F16091D5037091D6034091EC
:1018A0000501509106016417750700F10E946F054C
:1018B0000E940D0C8091D2039091D30301969093D6
:1018C000D3038093D20385E01092D8031092FA03D9
:1018D0001092D70308954091D5035091D6034F5FDE
:1018E0005F4F5093D6034093D503C6CF92E09093B9
:1018F000D40391E09093D1039FEF9093D003109283
:10190000CF032093CE03A9EDB3E0EEEAF3E090E03D
:1019100029136BC01092AD039091AD03880F892BF2
:101920008093AD038091AC03813009F062C01092C6
:10193000AC031092D6031092D5038091AD0380932F
:10194000BB008091D5039091D60301969093D60366
:101950008093D5038091BC0083FF0BC02091D503F9
:101960003091D6038091050190910601281739071F
:1019700020F32091D5033091D603809105019091F9
:1019800006012817390708F091CF85EC8093BC0039
:101990001092D6031092D5038091D403823059F46B
:1019A0002091D5033091D6038091050190910601D5
:1019B0002817390700F12091D5033091D603809183
:1019C0000501909106012817390708F06FCF809123
:1019D000D0038F3FD1F08091D0038032C1F080914D
:1019E000D0038033B1F084E06FCF3D9131939F5F9E
:1019F0008FCF85EECBCF8091D5039091D603019602
:101A00009093D6038093D503C7CF80E05DCF82E06B
:101A10005BCF83E059CFCF93DF93EC0188E60E9440
:101A2000A60386E090E00E942C06CE0164E670E0FA
:101A30000E94353F282F6AE00E94993F682F660F69
:101A4000680F660F620F8BEF93E00E94FD05DF9138
:101A5000CF910C94310CCF93C82F88E60E94A60337
:101A600085E090E00E942C068C2F6AE00E94993F4E
:101A7000682F660F680F660F6C0F8BEF93E00E9464
:101A8000FD05CF910C94310CCF93C82F88E60E94AE
:101A9000A60384E090E00E942C068C2F6AE00E944E
:101AA000993F682F660F680F660F6C0F8BEF93E0FE
:101AB0000E94FD05CF910C94310CCF93C82F88E67E
:101AC0000E94A60383E090E00E942C066C2F8BEF0F
:101AD00093E00E94FD05CF910C94310CCF93C82F59
:101AE00088E60E94A60381E090E00E942C068C2FDD
:101AF0006AE00E94993F682F660F680F660F6C0FAF
:101B00008BEF93E00E94FD05CF910C94310CCF93A5
:101B1000DF9390E0FC01E159FD4F2491855A9D4FE0
:101B2000FC0184918823C9F090E0880F991FFC0183
:101B3000E35CFD4FA591B491FC01E95BFD4FC591BC
:101B4000D49161110DC09FB7F8948C912095822398
:101B50008C938881282328839FBFDF91CF9108959C
:101B6000623051F49FB7F8943C91822F8095832383
:101B70008C93E8812E2BEFCF8FB7F894EC912E2B1E
:101B80002C938FBFEACFCF93C82F60E00E94870DC0
:101B900061E08C2FCF910C94D60BCF93C82F61E0CE
:101BA0000E94870D60E08C2FCF910C94D60BCF93C1
:101BB000DF9380935E0180935D011092A0011092EB
:101BC0005C0180919F01806C80939F018091A201B4
:101BD00087FD0DC08091A20180FF09C08091A10105
:101BE00080935B0180919F01806180939F01809130
:101BF0005A01823009F443C0833061F4E99881E0EE
:101C000090E0880F991FFC01EF5FFE4F81E396E0A3
:101C100091838083D091590161E08D2F0E94D60B72
:101C200061E08D2F0E94870DC0915A0161E08C2FD9
:101C30000E94D60B61E08C2F0E94870D83E290E01A
:101C40000197F1F760E08C2F0E94D60B8BEE90E0AD
:101C50000197F1F760E08D2F0E94D60B62E08C2F88
:101C60000E94870D80E0C23021F08FEFC33009F46D
:101C700081E063E373E1DF91CF910C942004E89855
:101C800090E080E0BECF9091A3018091A4018917DC
:101C900099F18091A20181608093A2018091A201BB
:101CA00087FD2DC080919F0187FD29C01092A10161
:101CB0002FEF3FEF9F5F903408F090E0E92FF0E0C6
:101CC000E15AFE4F2F3F320771F4208130E09093AC
:101CD000A3018091A4018913EDCF822F0E94D70D1B
:101CE00081E090E0089580818B3BB9F78091A1015C
:101CF0008F5F8093A101EBCF8EEF9FEF08958AE76E
:101D00009FEF08950F931F93CF93DF931091890353
:101D100080918803181B17FD105C01E01F3364F5E8
:101D200080910703A09106038A1B87FD805C8823AE
:101D300019F180910703A817F9F0AF5FA03408F0FC
:101D4000A0E0A0930603B0E0AA0FBB1FAA57BD4FA7
:101D5000CD91DC9111978D919C9192FDB0C02C2F6B
:101D6000CA3A20F08C2F815F823010F494FF0AC0B1
:101D7000DD27209709F0A5C0812FDF91CF911F911A
:101D80000F9108958091850295FF18C08068809317
:101D90008502D0E0C0E093FF1EC0FE01E456FC4F78
:101DA000E4912E130DC0C356DC4FFE01C491D0E068
:101DB0002097D1F480918502D82BDBCF8F77E7CFA6
:101DC0002296C235D10549F7D0E0C0E0F3CF229684
:101DD000CE3DD105C9F3FE01E254FD4FE4912E132F
:101DE000F6CFC154DD4FE1CF80918502FE01C330B3
:101DF000D10508F041C0EF57FD4F87FF04C01082A6
:101E0000CBEBD0E026C090819130D1F3008392E0FB
:101E1000C230D10509F491E020918002322F39239C
:101E200039F1909592239093800280688093850287
:101E30008DEE0E946D0B8BEB0E946D0B80918002EA
:101E40000E946D0B8BEB0E946D0B892B11F00E9491
:101E5000430E809185029E012052310921343105C3
:101E600060F1CB38D10549F1816080938502A2CF22
:101E7000922B90938002DCCF3697E830F10560F426
:101E8000EA54FD4FE49187FF05C0E095E823E09315
:101E90008502DFCFE82BFBCFFE01B097EB30F105D9
:101EA000C0F69091800291FF02C086FFD2CFE55527
:101EB000FD4FE491CE2FD0E0CCCF8E7FD6CFC6E0C1
:101EC000D0E0CE0199278B3B910509F427CF892BD0
:101ED00009F424CF809189038F5F80340CF080E077
:101EE000E82FEE0FFF0BE85FFC4FD183C083809398
:101EF00089031F5F13CF8E50806480937C00809194
:101F00007A00806480937A0080917A0086FDFCCF0D
:101F1000809178009091790008953FB7F89480916E
:101F2000500190915101A0915201B091530126B5F9
:101F3000A89B05C02F3F19F00196A11DB11D3FBF01
:101F4000BA2FA92F982F8827BC01CD01620F711DD0
:101F5000811D911D42E0660F771F881F991F4A95CA
:101F6000D1F708958F929F92AF92BF92CF92DF9256
:101F7000EF92FF924B015C010E948D0F6B017C017F
:101F80000E948D0F6C197D098E099F09683E734070
:101F900081059105A8F321E0821A9108A108B108F2
:101FA00088EEC80E83E0D81EE11CF11C8114910458
:101FB000A104B10429F7FF90EF90DF90CF90BF907C
:101FC000AF909F908F900895CF93DF93C7E2D4E0B6
:101FD000FE01119284E0E035F807D9F781E08093A3
:101FE00050040E94DE0364E670E080E090E00E940E
:101FF000B20F199284E0C035D807D9F71092500477
:10200000DF91CF910C94DE03CF93DF93C7E2D4E04E
:10201000FE01119284E0E035F807D9F781E0809362
:1020200052040E94DE0364E670E080E090E00E94CB
:10203000B20F199284E0C035D807D9F71092520434
:10204000DF91CF910C94DE032FB7F89460914C018F
:1020500070914D0180914E0190914F012FBF0895D5
:10206000CF92DF92EF92FF92CF93DF93EC010E9429
:1020700024106B017C010E9424106C197D098E09CB
:102080009F09643671058105910578F480913905C1
:102090000E94AD0B8C179D0771F781E0DF91CF9106
:1020A000FF90EF90DF90CF90089580E0F7CFCF932F
:1020B000DF9390E080E00E94301080913B050E9409
:1020C000AD0BEC0181E090E00E943010CE01DF9179
:1020D000CF910895CF92DF92EF92FF920F931F93CB
:1020E000CF938091390590913A050E94C30D80915C
:1020F0003B0590913C050E94C30D83EC90E0019755
:10210000F1F790E080E00E9430108FE090E00197BE
:10211000F1F781E090E00E943010C0E010E000E0B4
:10212000C12CD12C7601C3940E945710B701A6018F
:10213000002E04C0440F551F661F771F0A94D2F764
:10214000892BC9F0C42B0F5F1F4F0830110561F7B1
:102150000E9457100E9457108091390590913A05BE
:102160000E94CD0D8C2FCF911F910F91FF90EF907A
:10217000DF90CF9008954095C423E5CF20913B0593
:1021800030913C05019759F4C9010E94C30D81E0CB
:1021900090E00E94301090E080E00C943010C90173
:1021A0000E94CD0DF4CFBF92CF92DF92EF92FF92BB
:1021B0000F931F93CF93DF93C82E80913B0590918F
:1021C0003C050E94C30D8091390590913A050E940B
:1021D000C30DCBEAD4E0CE010197F1F78091390528
:1021E00090913A050E94CD0D2197F1F780913B0522
:1021F00090913C050E94CD0D83E290E00197F1F7AC
:102200008091390590913A050E94C30D90E080E0DD
:102210000E943010B82E882309F43FC0EE24E394C6
:10222000F12CD0E0C0E00C2C000CDD0886010C2E57
:1022300002C0159507950A94E2F701701127C801AD
:102240000E94BE10E026F1262196C830D10571F714
:10225000C7010E94BE1080913B0590913C050E94F1
:10226000C30D83EC90E00197F1F790E080E00E94CD
:102270003010809139050E94AD0B892BD1F38091EC
:102280003B050E94AD0B892BA1F3809139059091FC
:102290003A050E94CD0D0E946A108B2DDF91CF91DF
:1022A0001F910F91FF90EF90DF90CF90BF90089516
:1022B0008091390590913A050E94C30D80913B05AC
:1022C00090913C050E94C30D8FEF90E00E94D310C7
:1022D000882321F00E946A100E946A1088EE90E024
:1022E0000E94D31083E090E00E94D31086EE90E02D
:1022F0000E94D31083EF90E00E94D31088E290E018
:102300000E94D3108AEE90E00E94D31084EF90E0F8
:102310000E94D3108BE891E00197F1F78091390585
:1023200090913A0582309105A9F00397A9F08FEFBB
:102330006EEA71E10E9420048091390590913A057E
:102340000E94C30D80913B0590913C050E94C30DF6
:1023500081E0089580E0ECCF81E0EACFCF92DF9278
:10236000EF92FF920F931F93CF93809137020E94B9
:10237000AD0B8C01C1E0892B09F4C0E00E94241050
:10238000C0903302D0903402E0903502F0903602D3
:102390009B01AC012C193D094E095F0969017A01C5
:1023A0003BE0C316D104E104F10430F01092320294
:1023B0001092310210923002609333027093340213
:1023C0008093350290933602809132028F5F809322
:1023D00032028A3048F4823010F58130A1F0109238
:1023E0003202109231020CC08A3059F18B30B9F7A9
:1023F00080912F028D3F78F11092310210923202BB
:102400001092300204C01092300210922F02CF912D
:102410001F910F91FF90EF90DF90CF9008958091E2
:102420002F02C80FC0932F028091300290E0959543
:10243000879520E0012B09F020E8822B8093300261
:10244000E6CF80912F0281708C1719F080932F02B4
:10245000DECF8DEFFBCF809131028130A1F130F1E1
:10246000823061F68091300290E090932C0280934C
:102470002B0210923102809126028F5F803108F08A
:1024800080E090912502981709F4B8CF48E0849F26
:10249000D0011124AB55BE4F98E0E7E2F2E0019085
:1024A0000D929A95E1F780932602A8CF8091300291
:1024B00090E09093280280932702809131028F5FF1
:1024C000809331029BCF8091300290E090932A025A
:1024D00080932902F2CFCF92DF92EF92FF92CF93B7
:1024E000DF939091EB049111B7C0D62FC82F0E94B3
:1024F0002410E091EB0427E02E9FA00111244F5DF2
:102500005B4FDA01AC56BF4F6D937D938D939C93D7
:10251000139714961C9215971C924E565F4FDA0132
:10252000CC9341E04E0F249FA00111244F5D5B4FDF
:10253000DA01AC56BF4F6B017C01FAEFCF0ED11C14
:10254000E11CF11CCD92DD92ED92FC921397149652
:102550001C9215973FE03C934E565F4FDA01CC93A7
:1025600042E04E0F249FA00111244F5D5B4FDA0122
:10257000AC56BF4F6B017C01F4EFCF0EF1E0DF1ED4
:10258000E11CF11CCD92DD92ED92FC921397149612
:10259000F1E0FC9315973C934E565F4FDA01CC93D4
:1025A00043E04E0F249FA00111244F5D5B4FDA01E1
:1025B000AC56BF4F6B017C013EEEC30E32E0D31E22
:1025C000E11CF11CCD92DD92ED92FC9213971496D2
:1025D0001C921597DC934E565F4FDA01CC9344E082
:1025E0004E0F249FA00111244F5D5B4FDA01AC56C2
:1025F000BF4F6B017C0138EEC30E33E0D31EE11CEC
:10260000F11CCD92DD92ED92FC9213971496FC93FF
:102610001597DC934E565F4FDA01CC9335E03E0FB1
:10262000239F900111242F5D3B4FD901AC56BF4F22
:102630006E517B4F8F4F9F4F6D937D938D939C93E6
:1026400013971496FC9315971C922E563F4FD90161
:10265000CC93EA5FE093EB04DF91CF91FF90EF9092
:10266000DF90CF900895CF92DF92EF92FF920F9379
:102670001F93CF9380919F0186FF72C08091A0012C
:102680008F5F8093A0018091A0018A3048F482304E
:1026900098F560E0813009F448C01092A0019DC017
:1026A0008B3009F44DC0E8F18C30B9F780915D01B1
:1026B0008E3E69F080915D018E3F49F080915D0111
:1026C0008093540180919F01826080939F0180914B
:1026D0009F018F7B80939F018091A20187FF3CC067
:1026E0008091A2018F778093A20180919F0184FD48
:1026F000D4CF0E94430ED1CFC0915E01C1706C2F28
:10270000809159010E94D60B80915C01C80FC09343
:102710005C0180915E0190E09595879580935E01C4
:102720005CC060915C016095617080915901CF91AE
:102730001F910F91FF90EF90DF90CF900C94D60BEC
:1027400062E080915901CF911F910F91FF90EF901E
:10275000DF90CF900C94870D8091A2018E7FC3CF24
:10276000809159010E94AD0BC82F0E942410009146
:1027700055011091560120915701309158016B017C
:102780007C01C01AD10AE20AF30A970186010B3FC5
:1027900011052105310520F01092A00110925E0173
:1027A000609355017093560180935701909358019F
:1027B0008091A0018F5F8093A0018091A0018A3059
:1027C000A0F4823020F5813009F067CF10925C01CF
:1027D00080919F01806880939F01CF911F910F91FD
:1027E000FF90EF90DF90CF9008958A3019F18B30F1
:1027F00009F053CF80915C018D3F48F18EEF0E942C
:10280000D70D8091A20180688093A20146CF80916C
:102810005C018C0F80935C0180915E0190E0959546
:10282000879580935E0190E0C11190E880915E01F0
:10283000892B74CF80915C01817080935C018091C1
:102840005C01C813CACF8DEF80935C01C6CF809125
:102850005E018E3F29F090919F019D7F90939F0193
:1028600090919F0194FF02C0803F70F090919F0172
:1028700092FD91C08E3E09F477C0E8F48A3A09F4DB
:102880007FC020F4882359F186E02CC0803E09F4F3
:102890007BC0813EC9F780919F0182FD1AC087E00D
:1028A00080935B0180919F01846080939F01809160
:1028B0009F018F7D0CC08C3F09F44EC060F4803FB7
:1028C00019F781E080935B0180919F018062809382
:1028D0009F0180E007C08E3FA9F18F3FA9F60E94BB
:1028E000580B8CE081FF05C090915B019150909353
:1028F0005B0190915B01191614F482FF1EC0909148
:1029000007039F5F903408F090E020910603291799
:10291000A1F020915E01E92FF0E030E0EE0FFF1F03
:10292000EA57FD4F3183208340919F0120813181FF
:10293000342B3183208390930703807171F1809150
:102940005D015DCF80919F0181FFC3CF80915401D4
:1029500080935D0180E1C6CF10925B0110929F01D0
:102960001092A2018EE0BECF90919F0191FF0AC00C
:10297000909154019E3E31F080935D0184E1B2CF8D
:1029800010925B0184E0AECF81E080935B01809187
:102990009F0188609CCF82E0A5CF80915B011816D3
:1029A0000CF47BCE80919F01837C80939F011092D9
:1029B0005B0180919F018F7780939F019ACEAF92A8
:1029C000BF92CF92DF92EF92FF920F931F93CF931C
:1029D000DF936C017B018B01040F151FEB015E017E
:1029E000AE18BF08C017D10759F06991D601ED9113
:1029F000FC910190F081E02DC6010995892B79F7B2
:102A0000C501DF91CF911F910F91FF90EF90DF9063
:102A1000CF90BF90AF900895089590E080E0089522
:102A20008F929F92AF92BF920F931F93CF93DF939A
:102A3000CDB7DEB7A1970FB6F894DEBF0FBECDBFFE
:102A400019A2423008F44AE08E010F5D1F4F842E18
:102A5000912CB12CA12CA50194010E945D3FE62F81
:102A6000B901CA01EA3044F5E05DD801EE938D0169
:102A7000232B242B252B79F790E080E0109769F029
:102A8000FD0101900020E9F73197AF014A1B5B0B74
:102A9000BD0180EF94E00E94DF14A1960FB6F89478
:102AA000DEBF0FBECDBFDF91CF911F910F91BF90C1
:102AB000AF909F908F900895E95CD7CF462F682FF5
:102AC00070E090E080E00C94101580910A05813050
:102AD000D9F490910E05933009F080E00E9497039D
:102AE0008AE08093F6048BE08093F70480910F04D2
:102AF0008A3020F484EC96E00E946A066AE070E076
:102B000080910F040C945E15089580910A05813020
:102B1000D9F490910E05923009F080E00E9497035D
:102B20008AE08093F60489E08093F7048091120490
:102B30008A3020F484EC96E00E946A066AE070E035
:102B4000809112040C945E15089580910A058130DD
:102B5000D9F490910E05913009F080E00E9497031E
:102B60008AE08093F60488E08093F7048091110452
:102B70008A3020F484EC96E00E946A066AE070E0F5
:102B8000809111040C945E15089580910A0581309E
:102B9000D1F490910E05911180E00E9497038AE094
:102BA0008093F60487E08093F704809110048A30C4
:102BB00020F484EC96E00E946A066AE070E080915E
:102BC00010040C945E1508951F93CF93DF93182F74
:102BD000D62FC42F89E08093F4041092F5048EE080
:102BE0008093F60480E18093F704103120F484ECA4
:102BF00096E00E946A0660E170E0812F0E945E15F7
:102C000080EC96E00E946A06D03120F484EC96E0D5
:102C10000E946A0660E170E08D2F0E945E1580ECD4
:102C200096E00E946A06C03120F484EC96E00E948F
:102C30006A0660E170E08C2FDF91CF911F910C94B8
:102C40005E15CF9380912604882351F18091FA0478
:102C5000882331F1C62F809190048823D1F0809190
:102C60000A058330B1F489E08093F4041092F504EE
:102C70008EE08093F60481E18093F704603120F4C4
:102C800084EC96E00E946A0660E170E08C2F0E945E
:102C90005E1580918C048230D1F120F48130F9F0FE
:102CA000CF910895833009F44AC08430C9F7C3FB3B
:102CB000882780F980932904C2FB882780F98093B4
:102CC0002804C1FB882780F9809334048C2F8170FD
:102CD00080932C04C295C170C0933E04E1CFC1FB28
:102CE000882780F980932A048C2F81708093320486
:102CF000C2FB882780F980933A04C3FB882780F9B8
:102D000080934204C295C170C0934A04C9CFC1FBED
:102D1000882780F980934B048C2F81708093430423
:102D2000C2FB882780F980933B04C3FB882780F986
:102D300080933304C295C170C0932B04B1CFC1FB03
:102D4000882780F980934A04C2FB882780F9809302
:102D50004B04C3FB882780F9809343048C2F817038
:102D600080933B04E7CF009769F0FC0101900020BD
:102D7000E9F73197AF01481B590BBC0180EF94E094
:102D80000C94DF1490E080E008954F925F926F9270
:102D90007F928F929F92AF92BF92CF92DF92EF92EB
:102DA000FF92CF93DF9300D000D0CDB7DEB70E9463
:102DB0002410C0900605D0900705E0900805F0901B
:102DC00009052B013C014C185D086E087F08C30102
:102DD000B20128EE33E040E050E00E945D3F2983DD
:102DE0003A834B835C83C301B20120E63AEE40E0B4
:102DF00050E00E945D3F69017A01C301B20120E801
:102E00003EEE46E350E00E945D3F49015A01C30196
:102E1000B20120E03CE546E255E00E945D3F290119
:102E20003A01ACE3B0E0A70196010E947F3F2981FF
:102E30003A814B815C81261B370B480B590B298348
:102E40003A834B835C83A50194010E947F3FC61A9D
:102E5000D70AE80AF90AA8E1B0E0A30192010E94AA
:102E60007F3F861A970AA80AB90A8EE08093F60473
:102E70008BE08093F7048FE08093F4041092F504C4
:102E80004114510461047104A1F04AE0C301B2018C
:102E90000E94101581ED96E04A944528462847285F
:102EA00011F48BEC96E00E946A0686EC96E00E9494
:102EB0006A064AE084169104A104B10420F484EC6B
:102EC00096E00E946A064AE0C501B4010E9410150E
:102ED00082EC96E00E946A065AE0C516D104E1042D
:102EE000F10420F484EC96E00E946A064AE0C701EF
:102EF000B6010E94101582EC96E00E946A06898154
:102F00009A81AB81BC810A97A105B10520F484ECBC
:102F100096E00E946A064AE069817A818B819C81F1
:102F20000F900F900F900F90DF91CF91FF90EF9047
:102F3000DF90CF90BF90AF909F908F907F906F90D9
:102F40005F904F900C941015CF92DF92EF92FF920A
:102F5000CF93DF936C01990FEE08FF08F7FE19C0BD
:102F60006DE280EF94E00E943206EC01662777273D
:102F7000CB016C197D098E099F094AE00E9410154A
:102F80008C0F9D1FDF91CF91FF90EF90DF90CF903E
:102F900008954AE0C701B601DF91CF91FF90EF900D
:102FA000DF90CF900C94101580910A05813099F52F
:102FB00090910E05953009F080E00E9497038AE019
:102FC0008093F6048DE08093F70480910C04909137
:102FD0000D04883E934024F484EC96E00E946A0637
:102FE00080910C0490910D048436910524F484ECB6
:102FF00096E00E946A0680910C0490910D040A9755
:1030000024F484EC96E00E946A0680910C0490916E
:103010000D040C94A41708958FE08093F40410928B
:10302000F50488E18093F6041092F704809110046F
:103030008831C8F5909111049C33A8F59091120441
:103040009C3388F58A3020F484EC96E00E946A066E
:103050006AE070E0809110040E945E1582EC96E0B8
:103060000E946A06809111048A3020F484EC96E074
:103070000E946A066AE070E0809111040E945E1569
:1030800082EC96E00E946A06809112048A3020F455
:1030900084EC96E00E946A066AE070E08091120477
:1030A0000E945E1507C081E08093F5048CE196E0F4
:1030B0000E946A068FE08093F4041092F50486E182
:1030C0008093F60481E08093F70480910C04909142
:1030D0000D048F30974264F480910E048D3040F4DB
:1030E00080910F04803220F4909116049830F8F00B
:1030F00081E08093F5048FE096E00E946A0680915B
:103100000A05813071F40E94C5150E94A5150E9420
:1031100085150E9465150E94D2060E94D4170E9450
:103120008F0680910A05833059F50C94C5168A30B4
:1031300020F484EC96E00E946A066AE070E08091D8
:103140000F040E945E158AE196E00E946A06809153
:103150000E048A3020F485E291E00E94B3166AE002
:1031600070E080910E040E945E158AE196E00E9454
:103170006A0680910C0490910D040E94A417BFCFA1
:103180000895CF9380E00E940A0ACEE0C093F40431
:103190001092F50483E18093F60482E08093F704B3
:1031A00082E395E00E946A066091FC0480EF94E05F
:1031B0000E9432066091FD0480EF94E00E94320686
:1031C0006091FE0480EF94E00E9432066091FF045B
:1031D00080EF94E00E9432066091000580EF94E059
:1031E0000E9432066091010580EF94E00E94320651
:1031F0006091020580EF94E00E9432066091030521
:1032000080EF94E00E943206C093F4041092F5041B
:1032100084E18093F60483E08093F7048DE295E0E7
:103220000E946A0680910405909105050E94B316DC
:103230008FE08093F4041092F5041092F60484E079
:103240008093F704C0E26FE580EF94E00E943206BD
:10325000C150C9F7CF910C940C1880912604882393
:1032600049F08091FA04882329F08091900481111B
:103270000C940C1808950F931F93CF93DF93EC01D8
:1032800089E08093F4041092F5048EE08093F604B4
:103290008FE08093F7040D2F11270031110520F4E2
:1032A00084EC96E00E946A06B80190E080E040E17C
:1032B0000E94101580EC96E00E946A06DD27C0315E
:1032C000D10520F484EC96E00E946A06BE0190E0ED
:1032D00080E040E1DF91CF911F910F910C94101588
:1032E0001092D6031092D5038091D403882359F00D
:1032F0002091D5033091D60380910501909106016C
:1033000028173907F0F02091D5033091D60380912A
:1033100005019091060128173907E8F00E946F0512
:103320000E940D0C8091D2039091D303019690934B
:10333000D3038093D20380E01092AB038093AA035F
:1033400008958091D5039091D60301969093D6036A
:103350008093D503C9CF81E08093D4038093D103B8
:103360009FEF9093D0031092CF031092CE038093DF
:10337000AD038091AD03806D8093AD038091AC036C
:10338000813009F062C01092AC031092D603109203
:10339000D5038091AD038093BB008091D5039091BC
:1033A000D60301969093D6038093D5038091BC00F9
:1033B00083FF0BC02091D5033091D6038091050186
:1033C000909106012817390720F32091D5033091F9
:1033D000D60380910501909106012817390708F05E
:1033E0009DCF85EC8093BC001092D6031092D5033C
:1033F0008091D403813059F42091D5033091D603C4
:1034000080910501909106012817390700F120915C
:10341000D5033091D60380910501909106012817BC
:10342000390708F07BCF8091CF0381111AC08091BA
:10343000CF03AEEAB3E0EAE8F3E090E0981709F4CE
:103440007BCF2D9121939F5FF9CF85EECBCF8091DC
:10345000D5039091D60301969093D6038093D5031C
:10346000C7CF81E0E6CF88E60E94A60382E090E025
:103470000E942C060E94310C0E9470190E94C30306
:1034800026E0969587952A95E1F781700895CF9368
:10349000DF93C82F0E94331AD82F88E60E94A60314
:1034A00082E090E00E942C068C2FD11110C06AE0BF
:1034B0000E94993F682F660F680F660F6C0F8BEFA5
:1034C00093E00E94FD05DF91CF910C94310CCD303B
:1034D00078F06CE00E94993F292F892F6AE00E94C2
:1034E000993F682F660F680F660F620F6066E7CF1F
:1034F0006AE00E94993F682F660F680F660F6C0F95
:103500006064DDCFCF9388E60E94A60382E090E05E
:103510000E942C060E94310C0E9470190E94C30365
:10352000C82F88E60E94A60382E090E00E942C0645
:103530006C2F6F7B8BEF93E00E94FD05CF910C9475
:10354000310CCF93C82F88E60E94A60390E080E05C
:103550000E942C060E94310C0E9470190E94C30325
:103560008078C82B88E60E94A60390E080E00E9445
:103570002C068C2F6AE00E94993F682F660F680F17
:10358000660F6C0F8BEF93E00E94FD05CF910C94BA
:10359000310C88E60E94A60390E080E00E942C0691
:1035A0000E94310C0E9470190E94C3038F77282F4C
:1035B00030E094E0359527959A95E1F7922F990F91
:1035C000990F291B220F820F089588E60E94A603F7
:1035D00081E090E00E942C060E94310C0E9470193C
:1035E0000E94C3039C0194E0359527959A95E1F7D5
:1035F0002F703327922F990F990F291B220F820FBB
:103600000895CF930E94331AC82F88E60E94A6031C
:1036100082E090E00E942C060E94310C0E947019FA
:103620000E94C303C11110C0AC0194E055954795A9
:103630009A95E1F74F705527942F990F990F491BD1
:10364000440F840FCF910895482F4F79242F30E0F5
:1036500084E0359527958A95E1F7822F880F880FAA
:10366000922F981B892F880FECCF88E60E94A60323
:1036700083E090E00E942C060E94310C0E94701999
:103680000E94C303089588E60E94A60384E090E0A8
:103690000E942C060E94310C0E9470190E94C303E4
:1036A0009C0194E0359527959A95E1F72F70332783
:1036B000922F990F990F291B220F820F089588E6E8
:1036C0000E94A60385E090E00E942C060E94310C27
:1036D0000E9470190E94C3039C0194E035952795C0
:1036E0009A95E1F72F703327922F990F990F291B85
:1036F000220F820F089588E60E94A60386E090E0DC
:103700000E942C060E94310C0E9470190E94C30373
:103710009C0194E0359527959A95E1F72F70332712
:10372000922F990F990F291B220F820F90E080533F
:10373000984F0895CF9388E60E94A60390E080E01A
:103740000E942C060E94310C0E9470190E94C30333
:10375000C82F88E60E94A60390E080E00E942C0615
:103760006C2F6F778BEF93E00E94FD05CF910C9447
:10377000310C88E60E94A60390E080E00E942C06AF
:103780000E94310C0E9470190E94C3038095881F0B
:103790008827881F08950E94821A80910F040E9432
:1037A000440D80910E040E942B0D80910C04909189
:1037B0000D040E940B0D809116040E945D0D8091F6
:1037C00010040E94471A809111040E946E0D80918E
:1037D00012040E94A11A0E94B91B811102C00C940C
:1037E0009A1B08951F93CF93DF93EC01162F0E942D
:1037F0001F3F181739F0612FCE01DF91CF911F9134
:103800000C94273FDF91CF911F910895CF93DF93C1
:10381000C8E7D4E08883682F90E080E00E94F21B24
:103820008881982F91709093510486958170809330
:103830006B04DF91CF91089580919104811112C0A2
:1038400080910A0581113CC081E090910C05973070
:1038500009F080E00E9497038AE08093F6048CE0F0
:103860008093F7048091790490917804891710F47B
:103870000E94061C809178048130C9F038F08230B3
:10388000C9F08330D1F084E896E002C088E096E089
:103890000E946A068FE08093F4041092F50480EC95
:1038A00096E00E946A0680EC96E00C946A0689EA2B
:1038B00095E0EECF86EA95E0EBCF83EA95E0E8CF9E
:1038C00008950F931F93CF93DF9310920A051092E0
:1038D000910410926E041FE01093F4041092F5040A
:1038E0000E941F0B0E94C1181092F604D5E0D093DD
:1038F000F70484E295E00E9462070E94B509C4E1E2
:10390000C093F604D093F70489E195E00E94300754
:103910001092F604D6E0D093F7048FE095E00E9471
:1039200062070E948A09C093F604D093F70487E0E7
:1039300095E00E9430071092F604D7E0D093F70488
:1039400080E095E00E9462070E945F09C093F60440
:10395000D093F70488EF94E00E9430071092F604A9
:1039600008E00093F70481EF94E00E9462070E9450
:103970002B09C093F6040093F70489EE94E00E94AB
:1039800030071092F60409E00093F7048FED94E0FD
:103990000E9462070E940009C093F6040093F70496
:1039A00087ED94E00E9430071092F6040AE000933D
:1039B000F70481ED94E00E9462070E94DF08C09343
:1039C000F6040093F70489EC94E00E94300710920B
:1039D000F6040BE00093F70481EC94E00E94620788
:1039E0000E94BD08C093F6040093F70488EB94E0AE
:1039F0000E9430071092F6040CE00093F70482EB6B
:103A000094E00E9462070E941C1CC093F60400937D
:103A1000F70489EA94E00E9430071092F6040DE062
:103A20000093F70480EA94E00E9462070E949208E3
:103A3000C093F6040093F70487E994E00E943007EE
:103A40001092F6040EE00093F7048EE894E00E94D2
:103A500062070E946708C093F6040093F70487E8A2
:103A600094E00E9430071092F6041093F7048EE75A
:103A700094E00E9462070E941308C093F60410931A
:103A8000F70487E794E00E9430071092F60410E1F3
:103A90001093F70481E794E00E9462070E94E50713
:103AA000C093F6041093F7048AE694E00E9430076E
:103AB0001092F60411E11093F70483E694E00E945B
:103AC00062070E94BA07C093F6041093F7048CE5CE
:103AD00094E00E9430071092F60412E11093F7046C
:103AE00083E594E00E9462070E948F07C093F6046A
:103AF0001093F7048CE494E00E9430071092F604CF
:103B000013E11093F70486E494E00E9462070E9498
:103B10006D07C093F6041093F7048FE394E00E94BE
:103B200030071092F604C093F70489E394E00E94F2
:103B300062070E943707C093F604C093F70489E335
:103B400094E00E9430071092F60486E18093F70417
:103B5000D093F404C1E0C093F50487E394E00E949D
:103B60006A0680E394E00E94290780EC96E00E94B8
:103B70002907D093F404C093F5048EE294E00E94E8
:103B80006A0689E294E00E942907D093F404C09366
:103B9000F50487E294E00E946A0682E294E00E94C3
:103BA00029071092F60487E18093F704C0E26FE5DD
:103BB00080EF94E00E943206C150C9F71092F604DB
:103BC00088E18093F70489E194E00E9429078CE062
:103BD00094E00E94300780E094E00E942907109250
:103BE000F60489E18093F70489E194E00E942907B3
:103BF00087EF93E00E9430078EEE93E0DF91CF9144
:103C00001F910F910C9429070F931F93CF93C82FE7
:103C10008B010E94241060933601709337018093CA
:103C200038019093390161E080E10E94D60B8091C8
:103C3000FA04882309F4E7C080919004882309F4EA
:103C40007DC0C43108F0DFC0EC2FF0E0E65DF14E3E
:103C50000C94A53F3E1E431E4E1E581E5D1E621E46
:103C6000671E6C1E711E761E7B1E031F801E851E26
:103C70008A1E8F1E031F531E941E991ECF911F91E3
:103C80000F910C94611C80910A05833009F0BBC030
:103C9000C801CF911F910F910C943B19CF911F91A7
:103CA0000F910C946708CF911F910F910C941308FA
:103CB000CF911F910F910C949208CF911F910F916A
:103CC0000C94B509CF911F910F910C948A09CF9153
:103CD0001F910F910C945F09CF911F910F910C943C
:103CE0002B09CF911F910F910C940009CF911F9137
:103CF0000F910C94DF08CF911F910F910C94BD0888
:103D0000CF911F910F910C946D07CF911F910F913F
:103D10000C943707CF911F910F910C941C1CCF91DD
:103D20001F910F910C94E507CF911F910F910C9467
:103D3000BA07CF911F910F910C948F07C03108F0F3
:103D40005DC0CC3028F48EEF8C0F893008F05BC05A
:103D50000E942410609332017093330180933401E8
:103D60009093350180919104811107C08FE0809379
:103D7000F4041092F5040E941F0B81E080939104DB
:103D800080936E04E0912404F091250470E060E0DB
:103D900080E109958FE08093F4041092F5040E946D
:103DA0001F0B80E0C03109F485E00E940A0AC0318F
:103DB00051F18FE08093F4041092F5041092F60410
:103DC00085E08093F704C250C23128F5EC2FF0E073
:103DD000E451F14E0C94A53F451F421F071F2D1FB4
:103DE000301F331F361F391F3C1F0B1F541F571F17
:103DF0003F1F4B1F0B1F481F4E1F511F8FEE8C0F75
:103E0000833008F4A5CFCF911F910F91089584E2DC
:103E100095E00E946A060E9485061092F60486E0EC
:103E20008093F704C23108F047C0EC2FF0E0E55E64
:103E3000F04E0C94A53F791F761F5A1F611F641F17
:103E4000671F6A1F6D1F701F5C1F881F8B1F731FEA
:103E50007F1F5C1F7C1F821F851F8FE095E0D9CFDD
:103E600080E095E0D6CF81EF94E0D3CF8FED94E062
:103E7000D0CF81ED94E0CDCF81EC94E0CACF82EB3E
:103E800094E0C7CF80EA94E0C4CF8EE894E0C1CF3D
:103E90008EE794E0BECF81E794E0BBCF83E694E069
:103EA000B8CF83E594E0B5CF86E494E0B2CF89E360
:103EB00094E0AFCF0E94B509CF911F910F910C9460
:103EC00085060E948A09F8CF0E945F09F5CF0E94FB
:103ED0002B09F2CF0E940009EFCF0E94DF08ECCF40
:103EE0000E94BD08E9CF0E941C1CE6CF0E949208E8
:103EF000E3CF0E946708E0CF0E941308DDCF0E9445
:103F0000E507DACF0E94BA07D7CF0E948F07D4CF38
:103F10000E946D07D1CF0E943707CECF611103C039
:103F200064E10C94F21B6AE0FCCF0F931F93CF93D4
:103F3000DF93682F617007E814E0F8016083C9E837
:103F4000D4E086958170888388E090E00E948E1F7F
:103F500068818AE090E00E948E1FF8018081809342
:103F60006504888180936704DF91CF911F910F9141
:103F700008958130F9F0C8F08230F9F0833019F1FA
:103F80006091830484E090E00E948E1F609184041D
:103F900085E090E00E948E1F8091830480936004EE
:103FA0008091840480936104089510928304109298
:103FB0008404E6CF80938304FACF1092830481E0D7
:103FC00080938404DDCF81E080938304F9CF9091C6
:103FD0002604992309F444C09091FA04992309F422
:103FE0003FC0882319F0813059F108956091400550
:103FF00060937C048CE090E00E948E1F61E080E181
:104000000E94D60B64E670E080E090E00E94B20F60
:1040100060E080E10E94D60B64E670E080E090E012
:104020000E94B20F61E080E10E94D60B64E670E06E
:1040300080E090E00E94B20F60E080E10C94D60B2B
:1040400080919004882361F080910A05833041F4C7
:104050004091540560915305809152050C94E415EC
:104060000895CF93C0917B048C1708F4C82FC09398
:104070007A046C2F8EE090E00E94F21B8C2F8170EE
:1040800080936C04C695C170C0936D04CF91089560
:10409000CF93C82F853008F0C4E0C0938C046C2FF8
:1040A0008FE090E00E94F21B8C2F817080936F0450
:1040B000C1FB882780F980937004C2FBCC27C0F92C
:1040C000C0937104CF910895CF92DF92EF92FF9247
:1040D000CF936A017B01692F661F6627661F609375
:1040E0007F0210927E0260935304382F331F3327D0
:1040F000331F30935E04FC01FF27E6FB332730F9C2
:1041000030935D04E5FB332730F930935C04E4FB26
:10411000332730F930935B04E3FB332730F93093D6
:104120005A04E2FB332730F930935904E1FB33277B
:1041300030F9309358043E2F317030935704911169
:104140000C943829863011F00C943829CF91FF90C7
:10415000EF90DF90CF900C94D9040E94D904809105
:104160007E02882341F08091B1049091B204892BA2
:1041700011F4109227048091B1049091B2041816A2
:1041800019061CF481E08093270480917F04882322
:10419000C1F0809180048823A1F080917C02882363
:1041A00081F010927F041092800410927C02109291
:1041B0007D0210927E021092B2041092B1040E940D
:1041C000E40F80917F048823C1F1809180048823CB
:1041D000A1F180917B02882381F110927F041092DB
:1041E000800410927B0210927D0210927E02109247
:1041F000B2041092B104E7E2F4E0119224E0E03559
:10420000F207D9F7C1E0C09350040E94DE03C093C7
:104210002E040E94DE0364EF71E080E090E00E94D3
:10422000B20F109250040E94DE0364EF71E080E050
:1042300090E00E94B20F10922E04CF91FF90EF9069
:10424000DF90CF90089520917704222371F02FE022
:1042500030E0892F8095881F8827881F2F5D3B4F6E
:10426000F901868380937D027ACF30E020E0F1CFA0
:1042700020917704222371F030E020E0892F80958F
:10428000881F8827881F2F5D3B4FF9018683809305
:104290007F0465CF2FE030E0F1CFC92FC095CC1F50
:1042A000CC27CC1F80917F04811114C0C0933604A9
:1042B0002091770486E090E0211102C090E080E038
:1042C0008F5D9B4FFC01C683211104C08AE090E002
:1042D0000E94E904C093800442CFC92FC095CC1F2F
:1042E000CC27CC1F80917F04811114C0C093360469
:1042F0002091770487E090E0211102C090E080E0F7
:104300008F5D9B4FFC01C683211104C08BE090E0C0
:104310000E94E904C093800422CF20917D022111E4
:104320001ECF892F8095982F991F9927991F20912B
:104330007704222351F090932C0490934F04881F0C
:104340008827881F80937C020ACF9093360490932D
:104350003F04F5CF892F8095881F8827881F809379
:104360007E04FDCE892F8095881F8827881F809323
:104370007D04F5CE20917D022111F1CE892F80950B
:10438000881F8827881F90917704992329F08093AC
:10439000340480934F04E3CE809336048093280442
:1043A000DECE20917D022111DACE892F8095881FE3
:1043B0008827881F80939704809327048093430461
:1043C00087E190E00E94E904CACE20917D0221118C
:1043D000C6CE892F8095881F8827881F80939804D0
:1043E0008093270480934B0488E190E00E94E904C5
:1043F000B6CE20917D022111B2CE892F8095881FE3
:104400008827881F809399048093270480934A0407
:1044100085E190E00E94E904A2CE20917D02211165
:104420009ECE892F8095881F8827881F80939A04A5
:104430008093270480933B0486E190E00E94E90486
:104440008ECE20917D0421110CC020917E0421117B
:1044500008C020917F042223B9F1209180042223F7
:1044600099F161117CCE8091920490919304A09176
:104470009404B0919504A7019601281B390B4A0BAF
:104480005B0BDA01C901893C9105A105B10508F46E
:1044900066CE8091900491E0892780939004809368
:1044A0006A04882341F0E0912404F091250470E02F
:1044B00060E080E00995C0929204D0929304E0926B
:1044C0009404F09295044BCE892F8095881F8827FD
:1044D000881F80939C04809327049091770423E0A5
:1044E00030E0911102C027E030E02F5D3B4FF90131
:1044F00086838BE190E00E94E90431CEC92FC095FC
:10450000CC1FCC27CC1FC0932704C0932B048CE175
:1045100090E00E94E904C0937B0221CE892F809510
:10452000881F8827881F80932D0480939B0417CEB3
:10453000892F8095881F8827881F80932E040FCE8F
:10454000892F8095881F8827881F8093280407CE8D
:10455000892F8095881F8827881F80934E04FFCD60
:10456000892F8095881F8827881F80933F04F7CD67
:1045700020917D0421110CC020917E04211108C0DE
:1045800020917F042223E9F0209180042223C9F0A6
:104590006111E5CD60918D0481E0682760938D0401
:1045A00080E190E00E948E1F80918D0480937204C0
:1045B000E0912404F091250470E060E082E1099527
:1045C000CECD892F8095881F8827881F8093380437
:1045D000C6CD892F8095881F8827881F809339042E
:1045E000BECD892F8095881F8827881F809340041F
:1045F000B6CD892F8095881F8827881F809348040F
:10460000AECD892F8095881F8827881F80934D0401
:10461000A6CD892F8095881F8827881F80933C040A
:104620009ECD20917D0421110CC020917E0421118A
:1046300008C020917F042223E9F0209180042223E6
:10464000C9F061118CCD60918B0481E06827609383
:104650008B048DE090E00E948E1F80918B048093EC
:104660006904E0912404F091250470E060E082E0A8
:10467000099575CD892F8095881F8827881F80937D
:1046800045046DCD892F8095881F8827881F8093CA
:104690003D0465CD892F8095881F8827881F8093CA
:1046A00035045DCD20917D0421110CC020917E0444
:1046B000211108C020917F042223E9F02091800479
:1046C0002223C9F061114BCD80918C048F5F85301E
:1046D00078F480938C0480918C040E944820E091AF
:1046E0002404F091250470E060E081E1099537CD64
:1046F00010928C04F0CF892F8095881F8827881FFF
:1047000080933E042CCD20917D0421110CC020917A
:104710007E04211108C020917F042223E9F020911A
:1047200080042223C9F061111ACD60918E0481E0CA
:10473000682760938E0481E190E00E948E1F809133
:104740008E0480937304E0912404F091250470E0BA
:1047500060E083E1099503CD892F8095881F882724
:10476000881F80934604FBCC892F8095881F88275B
:10477000881F80933404F3CC892F8095881F882765
:10478000881F80932C04EBCC892F8095881F882765
:10479000881F80932904E3CC892F8095881F882760
:1047A000881F80934104DBCC892F8095881F882740
:1047B000881F80933004D3CC892F8095881F882749
:1047C000881F80934904CBCC892F8095881F882728
:1047D000881F80934404C3CC20917D0421110CC018
:1047E00020917E04211108C020917F042223F1F042
:1047F000209180042223D1F06111B1CC80917A0400
:104800008F5F80937A0490917B04981710F4109234
:104810007A0480917A040E943120E0912404F0917E
:10482000250470E060E08FE0099599CC892F809590
:10483000881F8827881F8093470491CC892F8095F3
:10484000881F8827881F8093310489CC892F809501
:10485000881F8827881F8093370481CC892F8095F3
:10486000881F8827881F80934C0479CC892F8095D6
:10487000881F8827881F80932F0471CC892F8095EB
:10488000881F8827881F80932B0469CC892F8095E7
:10489000881F8827881F80932A0461CC892F8095E0
:1048A000881F8827881F8093320459CC892F8095D0
:1048B000881F8827881F80933A0451CC892F8095C0
:1048C000881F8827881F8093420449CC892F8095B0
:1048D000881F8827881F80934A0441CC892F8095A0
:1048E000881F8827881F80934B0439CC892F809597
:1048F000881F8827881F8093430431CC892F809597
:10490000881F8827881F80933B0429CC892F809596
:10491000881F8827881F8093330421CC892F809596
:10492000881F8827881F80932B0419CC892F809596
:10493000881F8827881F80932A0411CC892F80958F
:10494000881F8827881F8093320409CC892F80957F
:10495000881F8827881F80933A0401CC892F80956F
:10496000881F8827881F80934204F9CB892F809560
:10497000881F8827881F80934A04F1CB892F809550
:10498000881F8827881F80934B04E9CB892F809547
:10499000881F8827881F80934304E1CB892F809547
:1049A000881F8827881F80933B04D9CB892F809547
:1049B000881F8827881F80933304D1CB292F209507
:1049C000221F2227221F2093360430917D0285E08A
:1049D00090E0311102C08CE190E08F5D9B4FFC01B3
:1049E0002683662321F010922C0410924304309306
:1049F0007E02B5CB292F2095221F2227221F20932C
:104A0000360430917D028AE190E0311102C08FE1DD
:104A100090E08F5D9B4FFC012683662321F010926E
:104A200041041092460430937E0299CB292F2095A1
:104A3000221F2227221F2093360430917D0282E21A
:104A400090E0311102C087E190E08F5D9B4FFC0147
:104A50002683662321F01092490410923E0430937D
:104A60007E027DCB292F2095221F2227221F2093F3
:104A7000360430917D0288E090E0311102C08DE073
:104A800090E08F5D9B4FFC012683662321F01092FE
:104A90002F041092340430937E0261CB209177046E
:104AA00021110BC061115BCB20917D0269E12111C5
:104AB00001C065E20E946B1252CB292F2095221F64
:104AC0002227221F2093360480917D02882371F0D3
:104AD00089E190E08F5D9B4FFC012683662309F4FA
:104AE0003ECB1092400410924C0439CB85E290E00A
:104AF000F1CF2091770421110BC0611130CB2091AF
:104B00007D0261E2211101C06DE10E946B1227CB91
:104B1000292F2095221F2227221F209336048091BF
:104B20007D02882371F081E290E08F5D9B4FFC0154
:104B30002683662309F413CB109248041092440490
:104B40000ECB8DE190E0F1CF292F2095221F222757
:104B5000221F2093360430917D0288E190E03111CC
:104B600002C080E290E08F5D9B4FFC0126836623AC
:104B700021F010923F041092470430937E02EFCA56
:104B80002091770421110BC06111E9CA20917D02A7
:104B900069E0211101C061E10E946B12E0CA292F76
:104BA0002095221F2227221F2093360480917D0208
:104BB000882371F089E090E08F5D9B4FFC01268394
:104BC000662309F4CCCA1092300410923804C7CA84
:104BD00081E190E0F1CF292F2095221F2227221F6B
:104BE0002093360430917D0286E190E0311102C0BD
:104BF0008EE090E08F5D9B4FFC012683662321F0C1
:104C000010923D041092350430937E02A8CA292FD9
:104C10002095221F2227221F2093360430917D02E7
:104C200084E090E0311102C08EE190E08F5D9B4FF7
:104C3000FC012683662321F010922B041092450478
:104C400030937E028CCAC0917D02CC2309F402C34A
:104C5000611103C061E00E946B12C0937E027FCAA3
:104C6000892F8095881F8827881F8093360480931A
:104C70004E0475CA892F8095881F8827881F8093C6
:104C80003604809345046BCA892F8095881F882736
:104C9000881F8093360480933D0461CA20917D046F
:104CA00021110CC020917E04211108C020917F04A5
:104CB0002223E9F0209180042223C9F061114FCA18
:104CC00060918A0481E0682760938A048BE090E019
:104CD0000E948E1F80918A0480936804E0912404CE
:104CE000F091250470E060E083E0099538CA892FCF
:104CF0008095881F8827881F8093270480933C0411
:104D00008DE190E00E94E9042ACA892F8095881FCE
:104D10008827881F809327048093360483E090E0DF
:104D20000E94E9041CCA20917D02211118CA892F12
:104D30008095881F8827881F90917704992329F0F0
:104D400080933E0480934F040ACA80932704809383
:104D50003A0483E190E00E94E90401CA20917D02B7
:104D60002111FDC9892F8095881F8827881F909160
:104D70007704992329F08093460480934F04EFC968
:104D8000809327048093420484E190E00E94E90428
:104D9000E6C920917D022111E2C9892F8095881FE3
:104DA0008827881F80933D0480934F04D8C92091A1
:104DB0007D022111D4C9892F8095881F8827881FDB
:104DC0008093350480934F04CAC920917D0421113A
:104DD0000CC020917E04211108C020917F04222361
:104DE00091F020918004222371F06111B8C980E014
:104DF0000E94B91FE0912404F091250470E060E066
:104E000084E00995ACC9892F8095881F8827881F61
:104E10008093280480934F04A2C920917D0421111E
:104E20000CC020917E04211108C020917F04222310
:104E300091F020918004222371F0611190C981E0EA
:104E40000E94B91FE0912404F091250461E070E014
:104E500084E0099584C9892F8095881F8827881F39
:104E600080934E0480934F047AC920917D042111D0
:104E70000CC020917E04211108C020917F042223C0
:104E800091F020918004222371F0611168C982E0C1
:104E90000E94B91FE0912404F091250462E070E0C3
:104EA00084E009955CC9892F8095881F8827881F11
:104EB00080933F0480934F0452C920917D042111B7
:104EC0000CC020917E04211108C020917F04222370
:104ED00091F020918004222371F0611140C983E098
:104EE0000E94B91FE0912404F091250463E070E072
:104EF00084E0099534C9892F8095881F8827881FE9
:104F00008093380480934F042AC920917D04211195
:104F10000CC020917E04211108C020917F0422231F
:104F2000E9F0209180042223C9F0611118C9609131
:104F3000850481E068276093850486E090E00E9404
:104F40008E1F8091850480936204E0912404F09187
:104F5000250470E060E085E0099501C9892F8095FE
:104F6000881F8827881F8093390480934F04F7C8CF
:104F700020917D0421110CC020917E04211108C0D4
:104F800020917F042223E9F0209180042223C9F09C
:104F90006111E5C86091860481E06827609386040A
:104FA00087E090E00E948E1F8091860480936404C5
:104FB000E0912404F091250470E060E086E009951A
:104FC000CEC8892F8095881F8827881F809340042A
:104FD00080934F04C4C820917D0421110CC02091FE
:104FE0007E04211108C020917F042223C1F020916A
:104FF00080042223A1F06111B2C8809187049091AE
:1050000089048F5F911180E00E94951FE091240434
:10501000F091250470E060E087E00995A0C8892F31
:105020008095881F8827881F8093480480934F04A9
:1050300096C820917D04211108C020917F0422236D
:10504000E9F0209180042223C9F0611188C86091A1
:10505000880481E068276093880489E090E00E94DA
:105060008E1F8091880480936604E0912404F0915F
:10507000250470E060E088E0099571C8892F80956B
:10508000881F8827881F80934D0480934F0467C82A
:1050900020917D0421110CC020917E04211108C0B3
:1050A00020917F042223E9F0209180042223C9F07B
:1050B000611155C86091810481E068276093810483
:1050C00082E090E00E948E1F8091810480935504BD
:1050D000E0912404F091250470E060E089E00995F6
:1050E0003EC8892F8095881F8827881F80933C049D
:1050F00080934F0434C820917D0421110CC020916D
:105100007E04211108C020917F042223F1F0209118
:1051100080042223D1F0611122C86091820481E0D1
:1051200068276093820483E090E00E948E1F809144
:10513000820480935604E0912404F091250470E0E9
:1051400060E08AE009950C94AF20892F8095881F34
:105150008827881F8093450480934F040C94AF20C8
:1051600020917D0421110CC020917E04211108C0E2
:1051700020917F04222309F1209180042223E9F069
:1051800061110C94AF20809178048F5F8093780434
:1051900090917904981710F4109278048091780413
:1051A0000E94061C6091780470E0E0912404F09164
:1051B00025048EE009950C94AF20892F8095881FD7
:1051C0008827881F80932904809336040C94AF208D
:1051D00020917D0421110CC020917E04211108C072
:1051E00020917F04222359F020918004222339F05A
:1051F00061110C94AF200E9404100C94AF20892FF1
:105200008095881F8827881F8093310480933604F7
:105210000C94AF2080917D0281110C94AF2061111C
:105220000C94AF206091770481E068276093770445
:1052300081E090E00E948E1F809177048093630448
:10524000E0912404F091250470E060E08CE0099581
:105250000C94AF202091EB042111FFCC892F809575
:10526000881F8827881F8093360480933704F5CCE5
:105270003397EA36F10510F00C94BB20EE5BF64D47
:105280000C94A53F85260A29AD202321232138210E
:1052900038214D216D21AA21AA21B221BB20BB209A
:1052A000C926D7269326AE26F9210D22D121E52144
:1052B000BA218D2121227E224E268E2298228E24F2
:1052C00096249E24A624AE24B624BE24C624CE242E
:1052D000D62416258E2244263A263026A4253E249E
:1052E00046244E2456245E2466246E2476247E248E
:1052F0008624DE24FA2407261625A425BB2023268F
:10530000A022A822B022B822E922F122F922012308
:105310000923112342234A2352238323B423BC238A
:10532000C423CC23D423DC23E423EC231E2426240F
:105330002E2436243225C0254E257925EB25BB2089
:10534000E5260D2735275D278527B827EB27192860
:1053500048287B28B028E8280C941F3F0F931F9300
:10536000CF93DF93D0E0C0E004E610E0CE30D1056B
:1053700008F008C1FE01E154F64D0C94A53FCD297B
:10538000EA29FC290E2A202A402A602A722A842A25
:10539000962AAD2AB52ABC2ABF2A209112048091F0
:1053A0001B04882349F0822F6AE00E94993F982FBE
:1053B000990F890F880F280F622F80E00E94D60373
:1053C0002196C11581E0D80789F6DF91CF911F9111
:1053D0000F9108952091130480911B04882349F0B4
:1053E000822F6AE00E94993F982F990F890F880FAA
:1053F000280F622F81E0E2CF2091110480911B04DD
:10540000882349F0822F6AE00E94993F982F990FD4
:10541000890F880F280F622F82E0D0CF20911404CB
:1054200080911B04882349F0822F6AE00E94993FF3
:10543000982F990F890F880F280F622F83E0BECF16
:1054400080911B042091100490911C04992371F009
:10545000882349F0822F6AE00E94993F982F990F84
:10546000890F880F280F622F84E0A8CF882321F0AE
:105470002D3080F32CE8EECF2D30A8F32CE8F3CFBD
:1054800080911B042091150490911C04992371F0C4
:10549000882349F0822F6AE00E94993F982F990F44
:1054A000890F880F280F622F85E088CF882321F08D
:1054B0002D3080F32CE8EECF2D30A8F32CE8F3CF7D
:1054C0002091160480911B04882349F0822F6AE002
:1054D0000E94993F982F990F890F880F280F622FEC
:1054E00086E06CCF20910F0480911B04882349F043
:1054F000822F6AE00E94993F982F990F890F880F99
:10550000280F622F87E05ACF20910E0480911B0450
:10551000882349F0822F6AE00E94993F982F990FC3
:10552000890F880F280F622F88E048CF80910C04E4
:1055300090910D04B8010E94493F282F90911B04BF
:10554000992341F06AE00E94993F982F880F890FB4
:10555000880F820F682F89E031CF8AE290E00E94A5
:10556000AC29682F6F778AE029CF8BE290E00E9408
:10557000AC29682F8BE022CF60E08CE01FCF60E881
:105580008DE01CCFCE0180960E94AC29682F8C2F15
:1055900015CF1F93CF93DF93182FD62FC42F909141
:1055A000EC048091ED049CBD8DBD60E087E00E941D
:1055B000D60B1EBD00000DB407FEFDCF1EB5DEBD2F
:1055C00000000DB407FEFDCFDEB5CEBD00000DB46A
:1055D00007FEFDCFCEB561E087E00E94D60B112318
:1055E00019F11D3F29F58091310181111DC081E024
:1055F000809331018C2F90E0D6E095958795DA95D0
:10560000E1F7CF738093790420917804821710F426
:105610000E94061C0E94DE030E94AE290E94AE2951
:105620000E94E40FC093FB04DF91CF911F91089576
:105630001C3F61F480911A048111F6CF81E08093C0
:105640001A04DF91CF911F910C94AE29103F09F0FD
:1056500015C1ED2FF0E0E251FB4FC687E5CF8091F9
:105660001B04882369F08C2F90E0B4E09595879512
:10567000BA95E1F7982F990F990F891B880FC80FDA
:10568000C09312048C2FDF91CF911F910C94A11A1B
:1056900080911B04882369F08C2F90E0A4E09595FD
:1056A0008795AA95E1F7982F990F990F891B880F75
:1056B000C80FC0931304B8CF80911B04882369F0EE
:1056C0008C2F90E0F4E095958795FA95E1F7982F67
:1056D000990F990F891B880FC80FC09311048C2F45
:1056E000DF91CF911F910C946E0D80911B04882344
:1056F00069F08C2F90E0E4E095958795EA95E1F7C5
:10570000982F990F990F891B880FC80FC093140405
:105710008BCF80911B04882369F08C2F90E074E07C
:10572000959587957A95E1F7982F990F990F891B91
:10573000880FC80FC09310040E94821A8091100431
:10574000DF91CF911F910C94471A80911B048823FD
:1057500069F08C2F90E064E0959587956A95E1F764
:10576000982F990F990F891B880FC80FC0931504A4
:105770005BCF80911B04882369F08C2F90E054E06C
:10578000959587955A95E1F7982F990F990F891B51
:10579000880FC80FC09316048C2FDF91CF911F91F3
:1057A0000C945D0D80911B04882369F08C2F90E090
:1057B00044E0959587954A95E1F7982F990F990FB1
:1057C000891B880FC80FC0930F048C2FDF91CF91D6
:1057D0001F910C94440D80911B04882369F08C2F39
:1057E00090E034E0959587953A95E1F7982F990FD9
:1057F000990F891B880FC80FC0930E048C2FDF915F
:10580000CF911F910C942B0D80911B04882369F07C
:105810008C2F90E024E0959587952A95E1F7982FB5
:10582000990F990F891B880FC80F8C2F90E0805318
:10583000984F90930D0480930C04DF91CF911F91AA
:105840000C940B0D6C2F6F778AE290E0DF91CF9173
:105850001F910C94F21BC2FB882780F991E08927E5
:1058600080931B04C1FB882780F980931C046C2F54
:105870008BE290E0EBCF6C2F8096E8CF1A3F09F0D7
:10588000D3CE20911704309118048D2F90E0281763
:10589000390739F420911904C21303C0DE3008F42B
:1058A000C3CE9093180480931704C0931904DE307C
:1058B00010F7825A934DFC010C94A53F2F2B482BD7
:1058C0005C2B752B892BA52BB92BD22BEB2B042C06
:1058D000222C2B2C142B142B0F931F93CF938C0162
:1058E000C62F0E94AC298A3011F0843149F4C1E0FE
:1058F0008A3009F0C0E08C2FCF911F910F9108954D
:1059000064E1C1116AE0C8010E94F21BF4CF1F924A
:105910000F920FB60F9211242F933F934F935F93E3
:105920006F937F938F939F93AF93BF93EF93FF9367
:105930008091B900887F803609F44AC0F0F588323A
:1059400009F4A5C018F5803109F499C0B8F488238A
:1059500009F4F5C0883009F492C0FF91EF91BF912E
:10596000AF919F918F917F916F915F914F913F91F7
:105970002F910F900FBE0F901F901895883109F44A
:1059800086C0803251F78093D00314C0803409F46C
:105990009BC040F48033B9F38833F9F68093D00389
:1059A00085ECAEC0803509F483C0883509F494C015
:1059B000883499F60E946F05D0CF883909F48AC0DF
:1059C00038F5883729F050F4883611F0803729F6F9
:1059D00083E08093D40310927A0255C0883809F48A
:1059E00079C0803919F0803809F0B7CF80917A02F8
:1059F000803208F06FC0E0917A0281E08E0F8093D0
:105A00007A028091BB00F0E0E65AFD4F80833BC0F4
:105A1000803B39F0D0F4803A09F477C0883A09F035
:105A20009CCF84E08093D4031092590210925802C4
:105A3000F0E0E0E009958091580281110FC081E00B
:105A4000809358021092380209C0803C09F4A8CF14
:105A5000883C09F4A5CF883B09F07FCFE09159023B
:105A600081E08E0F80935902F0E0E85CFD4F808169
:105A70008093BB00909159028091580229C0809177
:105A8000AD038093BB0085EC8093BC0066CF909102
:105A9000CF038091CE03981758F5E091CF0381E0B2
:105AA0008E0F8093CF03F0E0E255FC4F8081E9CF69
:105AB000E091CF0381E08E0F8093CF038091BB00F4
:105AC000F0E0E255FC4F80839091CF038091CE03AC
:105AD0009817C8F285E8D8CFE091CF0381E08E0F08
