:100000000C941D030C94862D0C945F2D0C944503C9
:100010000C9445030C9445030C9445030C94450340
:100020000C9445030C9445030C9445030C94450330
:100030000C9445030C9445030C9445030C94450320
:100040000C94AD2D0C9445030C9445030C9445037E
:100050000C9445030C9445030C9445030C94450300
:100060000C94442C0C944503506F72742023314639
:10007000004D6F757365005363616E636F64650057
:10008000446562756720696E666F00557074696DAE
:100090006500544441313534330044414320747980
:1000A000706500504342207265766973696F6E0017
:1000B000415652206275696C640046504741206287
:1000C00075696C640053797374656D20696E666F31
:1000D000007777772E6B6172616261732E756B00AA
:1000E000206B6173706572002064756D706B696E52
:1000F00000207864656D6F78002074616E6B2D75DB
:100100006B00206B616C616E74616A005370656393
:1001100069616C207468616E6B7320746F000020DD
:100120006E69686972617368202000002064725FE4
:100130006D617820202020000020736F6C6567734C
:1001400074617220000020616E64796B6172706F5F
:1001500076004B6172616261732050726F2064653A
:1001600076656C6F70657273206172650041626FB5
:10017000757400746F206E617669676174652062C2
:1001800079206D656E75206974656D7300746F20DC
:100190006368616E67652076616C7565732C2000FD
:1001A000506C6561736520757365206172726F773D
:1001B000732000444F570059656172004D6F6E7493
:1001C0006800446179005365636F6E6473004D6924
:1001D0006E7574657300486F7572730052544320D6
:1001E00053657475700000000000240027002A0089
:1001F00000000000250028002B0000000000230064
:100200002600290004040404040404040202020277
:1002100002020303030303030102040810204080C9
:100220000102040810200102040810200000000848
:1002300000020100000304070000000000000000AD
:1002400020746F2072657475726E004553430019F7
:1002500012181415BB161117131A40402020080459
:10026000020277017E025803120659071408110A88
:100270008410761B661C0D1D5A1E291F70206921D3
:1002800072227A236B24732574266C2775287D29A6
:10029000712A792C7B2D7C2E0F3F453016311E3272
:1002A000263325342E3536363D373E384639523AD8
:1002B000413B4E3C493D4A3E0E401C4132422143A7
:1002C000234424452B463447334843493B4A424B59
:1002D0004B4C3A4D314E444F4D5015512D521B53FE
:1002E0002C543C552A561D57225835591A5A4C5BE6
:1002F0005D5C545D5B5E555F618B05610662046306
:100300000C6403650B6683670A680169096A786B88
:10031000076C086D106E186F20702871307238737A
:1003200040744875507657775F786D60519113929D
:100330006A9364946795F296F197639862995FA0C7
:1003400012BB7C041409110B1F0C270D2F0E7E0FFE
:100350006C1169127D137A146B1574167517721867
:100360007019711A5A2B4A2F4D79157A3B7B347CC0
:10037000237D327E217F508048812B8240831084F0
:100380003A853886308728882089188A378C3F8DAF
:100390005E9020746F20746F67676C65204F5344C4
:1003A000004D656E752B4553430020746F207265B8
:1003B000626F6F74004374726C2B416C742B4465D4
:1003C0006C0050726573732000626F757400410099
:1003D0006E666F20004900657475702052544300AA
:1003E0005300506175736500507274537263004B13
:1003F0006579626F617264004D656E752B4E004EBB
:10040000656D6F20494445004D656E752B44004471
:1004100069764D4D43004D656E752B5600536372E2
:1004200065656E004D656E752B4D004A6F79204DE8
:100430006F6465004D656E752B4A004A6F792054D4
:10044000797065004D656E752B546162005377615C
:100450007020464444004D656E752B463131005482
:100460007572626F004D656E752B463130005653C4
:10047000796E63004D656E752B463900566964656B
:100480006F004D656E752B463800505347207479C8
:100490007065004D656E752B463700505347206DD3
:1004A0006978004D656E752B463600434F564F58A0
:1004B000004D656E752B463500547572626F20468F
:1004C0004443004D656E752B46312D463400524F26
:1004D0004D2042616E6B004156522000465047410C
:1004E00020005265762E00CE004500445300412D79
:1004F00044004644496D61676500466C61736865F8
:10050000720050512D444F530044656661756C7400
:10051000004D6F6E6F004143420041424300594D10
:100520003231343946004159332D38393132005691
:1005300047412033306B487A005247422031356BB7
:10054000487A00353020487A00363020487A003822
:100550007800347800327800534547410041746197
:10056000726900512D412D4F2D502D4D0043757254
:10057000736F720053696E636C6169723200536904
:100580006E636C61697231004B656D7073746F6E70
:1005900000436C61737369630050656E7461676FCB
:1005A0006E00537065637472756D0050726F66698A
:1005B000205854004F6666004F6E002D2D2E2D2DB5
:1005C0002E2D2D2D2D002E002D2D3A2D2D3A2D2D99
:1005D00000446563004E6F76004F6374005365708E
:1005E00000417567004A756C004A756E004D61796F
:1005F00000417072004D617200466562004A616E92
:10060000003F3F3F0053756E0053617400467269AE
:10061000005468750057656400547565004D6F6E31
:100620000020003A00300020616E642000206461E8
:100630007900206461797300F72D11241FBECFEF7C
:10064000D8E0DEBFCDBF25E0AEE2B1E001C01D9233
:10065000AC34B207E1F711E0A0E0B1E0E0E4FEE77E
:1006600002C005900D92AE32B107D9F713E0CDE18B
:10067000D3E004C02197FE010E94183FCC31D1077E
:10068000C9F70E94B32E0C941E3F0C9400008823DF
:1006900039F08FE08093E90482E08093EA040895C2
:1006A00083E08093E9041092EA04089591E0909326
:1006B000CC038093EE031092CD031092EF030895C4
:1006C0009091A00380919F032FEF3FEF981748F47C
:1006D000E92FF0E0E158FC4F208130E09F5F9093DC
:1006E000A003C90108959091A00380919F032FEF6B
:1006F0003FEF981748F4E92FF0E0E158FC4F2081D4
:1007000030E09F5F9093A003C9010895462FE091C8
:10071000FC03F091FD03682F8AEF09948F929F925A
:10072000AF92BF92EF92FF920F931F93CF938CE102
:10073000E82E84E0F82EC0E0812C912C54018394A3
:10074000F70190E080E040E0519195018401082E8E
:1007500004C0000F111F221F331F0A94D2F7552324
:10076000E1F0402B01968830910571F7CF5FE09161
:100770001704F09118046C2F81E0099588E0E80EC9
:10078000F11CCA30E9F6CF911F910F91FF90EF90C5
:10079000BF90AF909F908F90089500954023E2CF37
:1007A0002091070480911004882349F0822F6AE089
:1007B0000E940C3F982F990F890F880F280F622FE6
:1007C00080E00E9486038091100420910604622F2D
:1007D000882349F0822F6AE00E940C3F682F660F41
:1007E000680F660F620F82E00E94860390911104E9
:1007F0008091100420910504992309F462C0882394
:1008000049F0822F6AE00E940C3F982F990F890FC0
:10081000880F280F622F84E00E94860380911004C5
:1008200020910B04622F882349F0822F6AE00E94F6
:100830000C3F682F660F680F660F620F86E00E94FC
:1008400086038091100420910404622F882349F0CC
:10085000822F6AE00E940C3F682F660F680F660FB8
:10086000620F87E00E9486038091100420910304A8
:10087000622F882349F0822F6AE00E940C3F682F84
:10088000660F680F660F620F88E00E948603209152
:100890001004809101049091020464E670E00E94CB
:1008A000BC3E682F222351F0282F862F6AE00E9439
:1008B0000C3F682F660F680F660F620F89E00C947B
:1008C0008603882329F02D3008F49BCF2CE899CF9C
:1008D0002D3008F49FCF2CE89DCF8230C8F4E82F4C
:1008E000F0E0EE0FFF1FEF5FFE4F718360838130FA
:1008F00041F0809169008C7F826080936900E89A62
:10090000089580916900837F886080936900E99AE7
:100910000895E6E1F4E0A4E8B4E08C9191E0892741
:100920008C9383AB0380F481E02D70E060E08DE078
:100930000994CF92DF92EF92FF920F931F93CF9380
:10094000DF93CDB7DEB764970FB6F894DEBF0FBE66
:10095000CDBF2091A6043091A704611133C01216B7
:100960001306A4F4E2E9F4E050E040E0A191B19173
:100970008A179B0709F461E04F5F5F4F42175307E7
:10098000A9F7611110C02A30310569F0F901EE0FA5
:10099000FF1FEE56FB4F918380832F5F3F4F3093B5
:1009A000A7042093A60464960FB6F894DEBF0FBE8A
:1009B000CDBFDF91CF911F910F91FF90EF90DF900E
:1009C000CF900895FE01319644E1DF011D924A95D2
:1009D000E9F71216130684F502E914E0780150E0F5
:1009E00040E070E060E0D701CD90DD907D018C1596
:1009F0009D0549F0DA01AA0FBB1FAE0FBF1FCD92B4
:100A0000DC924F5F5F4F6F5F7F4F6217730759F73D
:100A10004115510589F090E080E021913191D80194
:100A20002D933D938D01019684179507B1F750934F
:100A3000A7044093A604B7CF50E040E0F8CF85ED7F
:100A40008093BC001092CB031092CA038091BC002B
:100A500084FF0BC02091CA033091CB038091050124
:100A6000909106012817390718F01092C9030895CC
:100A70008091CA039091CB0301969093CB0380930E
:100A8000CA03E4CF20914D02260F3327331F2132B2
:100A90003105ECF42091C903FC0190E080E02430A2
:100AA00069F082E00895A0914D022191AC01435D6F
:100AB0005D4FA40FB52FB11D2C930196861798F3A7
:100AC00080914D02680F60934D0280E0089581E0AF
:100AD00008950895E091A00380919F03E81730F4F2
:100AE000F0E0E158FC4F808190E008958FEF9FEF98
:100AF000089580919F039091A003891B990B0895FD
:100B0000CF92DF92EF92FF920F931F93CF93DF93D9
:100B10007C01CB018A012091CC03222389F0EB01D7
:100B20006B01C40ED51ECC15DD0569F06991D701A6
:100B3000ED91FC910190F081E02DC7010995F3CF73
:100B4000642F0E944205C801DF91CF911F910F9140
:100B5000FF90EF90DF90CF900895CF93DF931F9297
:100B6000CDB7DEB769832091CC032223F9F0209121
:100B7000EF03203258F021E030E0FC013383228380
:100B800090E080E00F90DF91CF9108958091CD03A8
:100B9000E82FF0E0E253FC4F998190838F5F8093C0
:100BA000CD038093EF0381E090E0ECCF61E0CE01D4
:100BB00001960E944205F7CF682F80EF93E00C94D6
:100BC000AD0508950F931F93CF93DF93EC01062F8C
:100BD0001C811295107FE885F9854E8160E180E2E5
:100BE0000995E885F9854F8161E180E20995E885FD
:100BF000F985402F62E180E209954D81410FE8853A
:100C0000F98563E180E209959F818E818F5F803253
:100C100060F48E839A3110F01F821E8281E090E092
:100C2000DF91CF911F910F9108951E8281E0890F6E
:100C30008F83F0CF0F931F93CF93DF938C01D0E07E
:100C4000C0E0F801EC0FFD1F6491662341F085EED2
:100C500094E00E94E205892B11F02196F2CFCE019B
:100C6000DF91CF911F910F910895CF93C8E081E25A
:100C700096E00E941A06C150D1F7CF910895809155
:100C8000FF04813009F03DC090910305963009F0D2
:100C900080E00E9447038AE08093EB048FE080931A
:100CA000EC04E0910B04E15081E096E0E73070F451
:100CB000F0E0E35AF94F0C94183F7E0664066F0685
:100CC0007206750678067B068DE196E00E941A068C
:100CD0008FE08093E9041092EA040C94350689E1D0
:100CE00096E0F4CF85E196E0F1CF81E196E0EECF9A
:100CF0008DE096E0EBCF89E096E0E8CF85E096E0E6
:100D0000E5CF08958091FF04813009F051C09091A2
:100D10000305943009F080E00E9447038AE0809345
:100D2000EB048CE08093EC04E0910304E15081E05B
:100D300096E0EC3098F4F0E0E056F94F0C94183F50
:100D4000AC06B706BA06BD06C006C306C606C90687
:100D5000CC06CF06D206D5068DEF95E00E941A0686
:100D60008FE08093E9041092EA040C94350689EF31
:100D700095E0F4CF85EF95E0F1CF81EF95E0EECFF0
:100D80008DEE95E0EBCF89EE95E0E8CF85EE95E02E
:100D9000E5CF81EE95E0E2CF8DED95E0DFCF89EDF7
:100DA00095E0DCCF85ED95E0D9CF81ED95E0D6CF0C
:100DB0000895E3EEF4E02FE0268317820C941A06E0
:100DC000E3EEF4E027E0268317820C941A06809164
:100DD0008604811112C08091FF04811122C081E03C
:100DE000909101059F3009F080E00E9447038AE05E
:100DF0008093EB0484E18093EC0480914904882380
:100E000069F088EB95E00E941A068FE08093E90470
:100E10001092EA0481E296E00C941A0684EB95E0C5
:100E2000F2CF0895E3EEF4E02FE0268317820E94CC
:100E30001A0681E296E00C941A06809186048111CC
:100E400012C08091FF04811119C081E090910105C9
:100E50009E3009F080E00E9447038AE08093EB0413
:100E600083E18093EC0480916C04882321F08BEA69
:100E700095E00C941A0682EA95E0FBCF08958091E4
:100E80008604811112C08091FF04811122C081E08B
:100E9000909101059D3009F080E00E9447038AE0AF
:100EA0008093EB0482E18093EC0480918304882397
:100EB00069F088EB95E00E941A068FE08093E904C0
:100EC0001092EA0481E296E00C941A0684EB95E015
:100ED000F2CF089580918604811112C08091FF04A1
:100EE000811122C081E0909101059C3009F080E0E1
:100EF0000E9447038AE08093EB0481E18093EC0435
:100F000080918204882369F088EB95E00E941A069C
:100F10008FE08093E9041092EA0481E296E00C9459
:100F20001A0684EB95E0F2CF089580918604811132
:100F300012C08091FF04811125C081E090910105CC
:100F40009B3009F080E00E9447038AE08093EB0425
:100F500080E18093EC0480916F04882319F0813044
:100F600029F0089589E995E00C941A0681E995E045
:100F70000E941A068FE08093E9041092EA0481E24D
:100F800096E0F2CF089580918604811112C080917D
:100F9000FF04811133C081E0909101059A3009F07E
:100FA00080E00E9447038AE08093EB048FE0809307
:100FB000EC0480918104823011F128F4882341F0FF
:100FC000813099F008958330E9F0843069F1089513
:100FD00088E895E00E941A068FE08093E904109259
:100FE000EA0481E296E00C941A068EE795E00E94EE
:100FF0001A068FE08093E9041092EA04089584E7CA
:1010000095E0F5CF8DE695E00E941A068FE080937B
:10101000E9041092EA0481E296E00E941A0681E255
:1010200096E00E941A06DDCF83E695E0E0CF80913E
:101030008604811112C08091FF04811122C081E0D9
:1010400090910105993009F080E00E9447038AE001
:101050008093EB048EE08093EC04809180048823DD
:1010600069F088E595E00E941A068FE08093E90414
:101070001092EA0481E296E00C941A068DE595E060
:10108000FBCF089580918604811112C08091FF04E6
:10109000811122C081E090910105983009F080E033
:1010A0000E9447038AE08093EB048DE08093EC0478
:1010B00080917F04882369F088EB95E00E941A06EE
:1010C0008FE08093E9041092EA0481E296E00C94A8
:1010D0001A0684EB95E0F2CF089580918604811181
:1010E00012C08091FF04811119C081E09091010527
:1010F000963009F080E00E9447038AE08093EB0479
:101100008BE08093EC0480917704882321F089E4BC
:1011100095E00C941A0683E495E0FBCF0895809146
:101120008604811111C08091FF04811118C081E0F3
:1011300090910105953009F080E00E9447038AE014
:101140008093EB048093EC0480917604882321F053
:1011500089E395E00C941A068FE295E0FBCF0895A1
:1011600080918604811112C08091FF04811122C0F8
:1011700081E090910105943009F080E00E944703DE
:101180008AE08093EB0489E08093EC0480917D04F5
:10119000882321F086E295E00C941A068EE195E012
:1011A0000E941A068FE08093E9041092EA0481E21B
:1011B00096E0F2CF089580918604811112C080914B
:1011C000FF0481112BC081E090910105933009F05B
:1011D00080E00E9447038AE08093EB0488E08093DC
:1011E000EC0480917C0490917E04911114C08823BA
:1011F00079F0813081F48AE195E00E941A068FE04F
:101200008093E9041092EA0481E296E00C941A06B5
:1012100086E195E0F2CF81E195E0F8CF08958091E5
:101220008604811112C08091FF04811122C081E0E7
:1012300090910105923009F080E00E9447038AE016
:101240008093EB0487E08093EC0480917B048823F7
:1012500069F088EB95E00E941A068FE08093E9041C
:101260001092EA0481E296E00C941A0684EB95E071
:10127000F2CF089580918604811112C08091FF04FD
:10128000811122C081E090910105913009F080E048
:101290000E9447038AE08093EB0486E08093EC048D
:1012A00080917A04882369F088EB95E00E941A0601
:1012B0008FE08093E9041092EA0481E296E00C94B6
:1012C0001A0684EB95E0F2CF08958091860481118F
:1012D00011C08091FF0481112FC081E09091010520
:1012E000911180E00E9447038AE08093EB0485E03F
:1012F0008093EC048091780490917904911182603C
:101300008230A1F08330A9F0813069F089E095E066
:101310000E941A068FE08093E9041092EA0481E2A9
:1013200096E00C941A0682E095E0F2CF8AEF94E002
:10133000EFCF82EF94E0ECCF08958091F00490E03D
:1013400095958795959587958F70813051F028F008
:10135000893051F08D3059F008958EEE94E00C9460
:101360001A068BEE94E0FBCF89EE94E0F8CF87EE7F
:1013700094E0F5CFFF920F931F93CF93DF93182F35
:10138000C3EED4E0188689878FE08E831F8260EBDE
:1013900085EE94E00E94E20561EB85EE94E00E9408
:1013A000E20562EB85EE94E00E94E20563EB85EED8
:1013B00094E00E94E20564EB85EE94E00E94E20571
:1013C00065EB85EE94E00E94E20562EB85EE94E029
:1013D0000E94E20563EB85EE94E00E94E20566EB75
:1013E00085EE94E00E94E20567EB85EE94E00E94B2
:1013F000E20562EB85EE94E00E94E20563EB85EE88
:1014000094E00E94E20568EB85EE94E00E94E2051C
:1014100069EB85EE94E00E94E205188681E0810F79
:10142000898760EC85EE94E00E94E20561EC85EE30
:1014300094E00E94E20562EC85EE94E00E94E205F1
:1014400063EC85EE94E00E94E20564EC85EE94E0A6
:101450000E94E20565EC85EE94E00E94E20562ECF4
:1014600085EE94E00E94E20563EC85EE94E00E9434
:10147000E20566EC85EE94E00E94E20567EC85EEFD
:1014800094E00E94E20562EC85EE94E00E94E205A1
:1014900063EC85EE94E00E94E20568EC85EE94E052
:1014A0000E94E20569EC85EE94E00E94E20502E00C
:1014B000010F88E0F82EF88609876AEB85EE94E044
:1014C0000E94E2056BEB85EE94E00E94E20564EB7E
:1014D00085EE94E00E94E20565EB85EE94E00E94C3
:1014E000E2056CEB85EE94E00E94E2056DEB85EE83
:1014F00094E00E94E2051D5FF88619876AEC85EE8C
:1015000094E00E94E2056BEC85EE94E00E94E20517
:1015100064EC85EE94E00E94E20565EC85EE94E0D3
:101520000E94E2056CEC85EE94E00E94E2056DEC11
:1015300085EE94E00E94E20581E08887098789E0D2
:101540008E831F8266E185EE94E00E94E2058DE0C5
:101550008E831F8266E185EE94E00E94E20585E0BD
:101560008E831F8266E185EE94E00E94E20583E0AF
:101570008E831F8266E185EE94E00E94E2058EE094
:101580008E831F821886198782EE94E00E941A06C5
:10159000DF91CF911F910F91FF900C949D09CF93F4
:1015A000DF931092EB041092EC04CAE1D0E260E009
:1015B00085EE94E00E94E205D150C9F7C150B1F721
:1015C000DF91CF910895CF938FE08093E90410923B
:1015D000EA041092EB0486E18093EC04C0E26FE52C
:1015E00085EE94E00E94E205C150C9F71092EB0429
:1015F00087E18093EC0482EC93E00E94D9068BE4AF
:1016000092E00E94E00680E492E0CF910C94D9062B
:1016100010929901109298011092970110929601E0
:101620001092FC021092FB021092950110927A0225
:1016300010927502109294010895909199019F5F04
:10164000903408F090E020919801291751F0E92F8B
:10165000F0E0EC5AFE4F80839093990181E090E096
:1016600008958CEF9FEF0895833081F028F4813046
:1016700099F08230A9F008958730A9F08830C9F038
:101680008430B1F4809180008F7D03C08091800010
:101690008F7780938000089584B58F7784BD0895F7
:1016A00084B58F7DFBCF8091B0008F778093B000A1
:1016B00008958091B0008F7DF9CFCF93DF93282FCD
:1016C00030E0F901E45DFD4F8491F901E85EFD4FE2
:1016D000D491F901EC5FFD4FC491CC23A1F08111AD
:1016E0000E94340BEC2FF0E0EE0FFF1FE650FE4F90
:1016F000A591B491EC91ED2381E090E009F480E0B4
:10170000DF91CF91089580E090E0FACF1F93CF93BF
:10171000DF93282F30E0F901E45DFD4F8491F9015A
:10172000E85EFD4FD491F901EC5FFD4FC491CC23ED
:10173000A9F0162F81110E94340BEC2FF0E0EE0F70
:10174000FF1FE051FE4FA591B4918FB7F894EC9133
:10175000111108C0D095DE23DC938FBFDF91CF91AC
:101760001F910895DE2BF8CFCF93DF93CCEBD0E021
:1017700018821092C90381E08093C6031092A103DE
:1017800061E082E10E94860B61E083E10E94860BAA
:10179000E9EBF0E080818E7F808380818D7F808384
:1017A00088E48093B80085E48883DF91CF91089521
:1017B0002091EF0381E0213270F58091EE031092C9
:1017C000CB031092CA039091C903992359F06091F9
:1017D000CA037091CB034091050150910601641733
:1017E000750700F16091CA037091CB034091050128
:1017F000509106016417750700F10E941F050E94B1
:10180000B40B8091C7039091C80301969093C803CD
:101810008093C70385E01092CD031092EF031092DE
:10182000CC0308954091CA035091CB034F5F5F4FA3
:101830005093CB034093CA03C6CF92E09093C90361
:1018400091E09093C6039FEF9093C5031092C40359
:101850002093C303AEECB3E0E3EAF3E090E0291396
:101860006BC01092A2039091A203880F892B8093E2
:10187000A2038091A103813009F062C01092A103FC
:101880001092CB031092CA038091A2038093BB00F5
:101890008091CA039091CB0301969093CB038093E0
:1018A000CA038091BC0083FF0BC02091CA03309112
:1018B000CB0380910501909106012817390720F389
:1018C0002091CA033091CB038091050190910601CC
:1018D0002817390708F091CF85EC8093BC0010924F
:1018E000CB031092CA038091C903823059F420912E
:1018F000CA033091CB03809105019091060128170E
:10190000390700F12091CA033091CB038091050182
:10191000909106012817390708F06FCF8091C50311
:101920008F3FD1F08091C5038032C1F08091C50313
:101930008033B1F084E06FCF3D9131939F5F8FCFC3
:1019400085EECBCF8091CA039091CB030196909303
:10195000CB038093CA03C7CF80E05DCF82E05BCF2B
:1019600083E059CFCF93DF93EC0188E60E945603C2
:1019700086E090E00E94DC05CE0164E670E00E9403
:10198000A83E282F6AE00E940C3F682F660F680F60
:10199000660F620F80EF93E00E94AD05DF91CF915B
:1019A0000C94D80BCF93C82F88E60E94560385E08D
:1019B00090E00E94DC058C2F6AE00E940C3F682FAB
:1019C000660F680F660F6C0F80EF93E00E94AD0505
:1019D000CF910C94D80BCF93C82F88E60E94560362
:1019E00084E090E00E94DC058C2F6AE00E940C3FAE
:1019F000682F660F680F660F6C0F80EF93E00E94F0
:101A0000AD05CF910C94D80BCF93C82F88E60E94D8
:101A1000560383E090E00E94DC056C2F80EF93E09A
:101A20000E94AD05CF910C94D80BCF93C82F88E6B8
:101A30000E94560381E090E00E94DC058C2F6AE052
:101A40000E940C3F682F660F680F660F6C0F80EFC7
:101A500093E00E94AD05CF910C94D80BCF93DF9308
:101A600090E0FC01E85EFD4F24918C5F9D4FFC01EE
:101A700084918823C9F090E0880F991FFC01EA51F6
:101A8000FE4FA591B491FC01E051FE4FC591D49158
:101A900061110DC09FB7F8948C91209582238C938F
:101AA0008881282328839FBFDF91CF9108956230DA
:101AB00051F49FB7F8943C91822F809583238C93A7
:101AC000E8812E2BEFCF8FB7F894EC912E2B2C932F
:101AD0008FBFEACFCF93C82F61E00E942E0D60E048
:101AE0008C2FCF910C94860BCF93C82F60E00E946F
:101AF0002E0D61E08C2FCF910C94860BCF93DF934A
:101B000080935301809352011092950110925101DC
:101B100080919401806C809394018091970187FD5E
:101B20000DC08091970180FF09C08091960180933C
:101B300050018091940180618093940180914F01C4
:101B4000823009F443C0833061F4E99881E090E089
:101B5000880F991FFC01EF5FFE4F81EE95E09183A6
:101B60008083D0914E0161E08D2F0E94860B61E051
:101B70008D2F0E942E0DC0914F0161E08C2F0E948D
:101B8000860B61E08C2F0E942E0D83E290E001977E
:101B9000F1F760E08C2F0E94860B8BEE90E00197AE
:101BA000F1F760E08D2F0E94860B62E08C2F0E947F
:101BB0002E0D80E0C23021F08FEFC33009F481E0B8
:101BC0006CEA72E1DF91CF910C946D04E89890E09B
:101BD00080E0BECF9091980180919901891799F189
:101BE000809197018160809397018091970187FD93
:101BF0002DC08091940187FD29C0109296012FEF8E
:101C00003FEF9F5F903408F090E0E92FF0E0EC5A4E
:101C1000FE4F2F3F320771F4208130E090939801FE
:101C2000809199018913EDCF822F0E947E0D81E072
:101C300090E0089580818B3BB9F7809196018F5F8A
:101C400080939601EBCF8EEF9FEF08958AE79FEF89
:101C500008950F931F93CF93DF9310917E0380918C
:101C60007D03181B17FD105C01E01F3364F58091A4
:101C7000FC02A091FB028A1B87FD805C882319F17E
:101C80008091FC02A817F9F0AF5FA03408F0A0E043
:101C9000A093FB02B0E0AA0FBB1FA558BD4FCD918A
:101CA000DC9111978D919C9192FDB0C02C2FCA3A76
:101CB00020F08C2F815F823010F494FF0AC0DD2762
:101CC000209709F0A5C0812FDF91CF911F910F912F
:101CD000089580917A0295FF18C0806880937A02F7
:101CE000D0E0C0E093FF1EC0FE01E05CFC4FE49139
:101CF0002E130DC0CF5BDC4FFE01C491D0E02097C6
:101D0000D1F480917A02D82BDBCF8F77E7CF229660
:101D1000C235D10549F7D0E0C0E0F3CF2296CE3DE1
:101D2000D105C9F3FE01EE59FD4FE4912E13F6CF14
:101D3000CD59DD4FE1CF80917A02FE01C330D1054C
:101D400008F041C0EA58FD4F87FF04C01082CBEB7A
:101D5000D0E026C090819130D1F3008392E0C23070
:101D6000D10509F491E020917502322F392339F120
:101D70009095922390937502806880937A028DEEFD
:101D80000E941D0B8BEB0E941D0B809175020E941F
:101D90001D0B8BEB0E941D0B892B11F00E94EA0D8D
:101DA00080917A029E01205231092134310560F17F
:101DB000CB38D10549F1816080937A02A2CF922B72
:101DC00090937502DCCF3697E830F10560F4E65A5F
:101DD000FD4FE49187FF05C0E095E823E0937A0288
:101DE000DFCFE82BFBCFFE01B097EB30F105C0F65B
:101DF0009091750291FF02C086FFD2CFE15BFD4F4B
:101E0000E491CE2FD0E0CCCF8E7FD6CFC6E0D0E00D
:101E1000CE0199278B3B910509F427CF892B09F433
:101E200024CF80917E038F5F80340CF080E0E82F18
:101E3000EE0FFF0BE350FD4FD183C08380937E03F1
:101E40001F5F13CF3FB7F8948091450190914601F1
:101E5000A0914701B091480126B5A89B05C02F3F2E
:101E600019F00196A11DB11D3FBFBA2FA92F982FC0
:101E70008827BC01CD01620F711D811D911D42E0BB
:101E8000660F771F881F991F4A95D1F708958F9283
:101E90009F92AF92BF92CF92DF92EF92FF924B014F
:101EA0005C010E94220F6B017C010E94220F6C19C1
:101EB0007D098E099F09683E734081059105A8F34D
:101EC00021E0821A9108A108B10888EEC80E83E0CB
:101ED000D81EE11CF11C81149104A104B10429F75E
:101EE000FF90EF90DF90CF90BF90AF909F908F903A
:101EF0000895CF93DF93CCE1D4E0FE01119284E00A
:101F0000E534F807D9F781E0809345040E948E03F9
:101F100064E670E080E090E00E94470F199284E050
:101F2000C534D807D9F710924504DF91CF910C94AE
:101F30008E032FB7F8946091410170914201809116
:101F40004301909144012FBF0895CF92DF92EF9209
:101F5000FF92CF93DF93EC010E94990F6B017C01FC
:101F60000E94990F6C197D098E099F0964367105CD
:101F70008105910578F480912E050E945D0B8C17E8
:101F80009D0771F781E0DF91CF91FF90EF90DF9097
:101F9000CF90089580E0F7CFCF93DF9390E080E07B
:101FA0000E94A50F809130050E945D0BEC0181E03D
:101FB00090E00E94A50FCE01DF91CF910895CF92BE
:101FC000DF92EF92FF920F931F93CF9380912E0594
:101FD00090912F050E94740D8091300590913105EC
:101FE0000E94740D83EC90E00197F1F790E080E09F
:101FF0000E94A50F8FE090E00197F1F781E090E05B
:102000000E94A50FC0E010E000E0C12CD12C7601A9
:10201000C3940E94CC0FB701A601002E04C0440F48
:10202000551F661F771F0A94D2F7892BC9F0C42B5E
:102030000F5F1F4F0830110561F70E94CC0F0E94FF
:10204000CC0F80912E0590912F050E946A0D8C2F48
:10205000CF911F910F91FF90EF90DF90CF90089557
:102060004095C423E5CF209130053091310501978B
:1020700059F4C9010E94740D81E090E00E94A50FFF
:1020800090E080E00C94A50FC9010E946A0DF4CF86
:10209000BF92CF92DF92EF92FF920F931F93CF9355
:1020A000DF93C82E80913005909131050E94740D08
:1020B00080912E0590912F050E94740DCBEAD4E0FB
:1020C000CE010197F1F780912E0590912F050E9486
:1020D0006A0D2197F1F780913005909131050E94AA
:1020E0006A0D83E290E00197F1F780912E059091BF
:1020F0002F050E94740D90E080E00E94A50FB82E7D
:10210000882309F43FC0EE24E394F12CD0E0C0E032
:102110000C2C000CDD0886010C2E02C015950795CD
:102120000A94E2F701701127C8010E943310E026DB
:10213000F1262196C830D10571F7C7010E943310EE
:1021400080913005909131050E94740D83EC90E0F0
:102150000197F1F790E080E00E94A50F80912E0595
:102160000E945D0B892BD1F3809130050E945D0B9D
:10217000892BA1F380912E0590912F050E946A0D65
:102180000E94DF0F8B2DDF91CF911F910F91FF9058
:10219000EF90DF90CF90BF900895CF9380912E0560
:1021A00090912F050E94740D80913005909131051A
:1021B0000E94740D8FEF90E00E944810C82F882372
:1021C00009F43EC00E94DF0F0E94DF0F88EE90E00E
:1021D0000E94481083E090E00E94481086EE90E054
:1021E0000E94481083EF90E00E94481088E290E03F
:1021F0000E9448108AEE90E00E94481084EF90E020
:102200000E9448108BE891E00197F1F780912E052C
:1022100090912F0582309105B1F00397B1F08FEFC7
:1022200067E271E10E946D0480912E0590912F0567
:102230000E94740D80913005909131050E94740DBB
:102240008C2FCF91089580E0EBCF81E0E9CFCF9242
:10225000DF92EF92FF920F931F93CF9380912C0206
:102260000E945D0B8C01C1E0892B09F4C0E00E9443
:10227000990FC0902802D0902902E0902A02F09095
:102280002B029B01AC012C193D094E095F09690124
:102290007A013BE0C316D104E104F10430F010925E
:1022A0002702109226021092250260932802709352
:1022B000290280932A0290932B02809127028F5F3C
:1022C000809327028A3048F4823010F58130A1F0E3
:1022D00010922702109226020CC08A3059F18B30DE
:1022E000B9F7809124028D3F78F110922602109266
:1022F00027021092250204C0109225021092240297
:10230000CF911F910F91FF90EF90DF90CF900895A4
:1023100080912402C80FC09324028091250290E08E
:102320009595879520E0012B09F020E8822B80937A
:102330002502E6CF8091240281708C1719F08093DA
:102340002402DECF8DEFFBCF809126028130A1F1F8
:1023500030F1823061F68091250290E09093210265
:10236000809320021092260280911B028F5F8031A1
:1023700008F080E090911A02981709F4B8CF48E06D
:10238000849FD0011124A656BE4F98E0ECE1F2E004
:1023900001900D929A95E1F780931B02A8CF80914E
:1023A000250290E090931D0280931C0280912602EA
:1023B0008F5F809326029BCF8091250290E09093BF
:1023C0001F0280931E02F2CFCF92DF92EF92FF9214
:1023D000CF93DF939091E0049111B7C0D62FC82F0F
:1023E0000E94990FE091E00427E02E9FA0011124A4
:1023F0004A5E5B4FDA01AC56BF4F6D937D938D9370
:102400009C93139714961C9215971C924E565F4FEF
:10241000DA01CC9341E04E0F249FA00111244A5EC3
:102420005B4FDA01AC56BF4F6B017C01FAEFCF0E68
:10243000D11CE11CF11CCD92DD92ED92FC92139720
:1024400014961C9215973FE03C934E565F4FDA016D
:10245000CC9342E04E0F249FA00111244A5E5B4FB3
:10246000DA01AC56BF4F6B017C01F4EFCF0EF1E007
:10247000DF1EE11CF11CCD92DD92ED92FC921397D0
:102480001496F1E0FC9315973C934E565F4FDA019A
:10249000CC9343E04E0F249FA00111244A5E5B4F72
:1024A000DA01AC56BF4F6B017C013EEEC30E32E049
:1024B000D31EE11CF11CCD92DD92ED92FC9213979C
:1024C00014961C921597DC934E565F4FDA01CC930D
:1024D00044E04E0F249FA00111244A5E5B4FDA01B5
:1024E000AC56BF4F6B017C0138EEC30E33E0D31EF8
:1024F000E11CF11CCD92DD92ED92FC9213971496A3
:10250000FC931597DC934E565F4FDA01CC9335E080
:102510003E0F239F900111242A5E3B4FD901AC56F8
:10252000BF4F6E517B4F8F4F9F4F6D937D938D9318
:102530009C9313971496FC9315971C922E563F4F1D
:10254000D901CC93EA5FE093E004DF91CF91FF9053
:10255000EF90DF90CF900895CF92DF92EF92FF92AD
:102560000F931F93CF938091940186FF72C0809147
:1025700095018F5F80939501809195018A3048F491
:10258000823098F560E0813009F448C010929501DE
:102590009DC08B3009F44DC0E8F18C30B9F78091C3
:1025A00052018E3E69F0809152018E3F49F0809138
:1025B000520180934901809194018260809394013B
:1025C000809194018F7B809394018091970187FF84
:1025D0003CC0809197018F778093970180919401FF
:1025E00084FDD4CF0E94EA0DD1CFC0915301C170B8
:1025F0006C2F80914E010E94860B80915101C80F73
:10260000C09351018091530190E0959587958093F7
:1026100053015CC0609151016095617080914E01E1
:10262000CF911F910F91FF90EF90DF90CF900C947E
:10263000860B62E080914E01CF911F910F91FF9028
:10264000EF90DF90CF900C942E0D809197018E7FAC
:10265000C3CF80914E010E945D0BC82F0E94990F3D
:1026600000914A0110914B0120914C0130914D0194
:102670006B017C01C01AD10AE20AF30A97018601B4
:102680000B3F11052105310520F0109295011092A4
:10269000530160934A0170934B0180934C019093D6
:1026A0004D01809195018F5F8093950180919501F7
:1026B0008A30A0F4823020F5813009F067CF109283
:1026C000510180919401806880939401CF911F9172
:1026D0000F91FF90EF90DF90CF9008958A3019F11D
:1026E0008B3009F053CF809151018D3F48F18EEF2F
:1026F0000E947E0D8091970180688093970146CF5C
:10270000809151018C0F809351018091530190E091
:10271000959587958093530190E0C11190E8809141
:102720005301892B74CF80915101817080935101A5
:1027300080915101C813CACF8DEF80935101C6CF4C
:10274000809153018E3F29F0909194019D7F909349
:1027500094019091940194FF02C0803F70F0909199
:10276000940192FD91C08E3E09F477C0E8F48A3A54
:1027700009F47FC020F4882359F186E02CC0803E04
:1027800009F47BC0813EC9F78091940182FD1AC093
:1027900087E080935001809194018460809394013C
:1027A000809194018F7D0CC08C3F09F44EC060F481
:1027B000803F19F781E080935001809194018062FD
:1027C0008093940180E007C08E3FA9F18F3FA9F666
:1027D0000E94080B8CE081FF05C090915001915040
:1027E0009093500190915001191614F482FF1EC06D
:1027F0009091FC029F5F903408F090E02091FB02E2
:102800002917A1F020915301E92FF0E030E0EE0FFD
:10281000FF1FE558FD4F31832083409194012081B3
:102820003181342B318320839093FC02807171F1CC
:10283000809152015DCF8091940181FFC3CF80913F
:1028400049018093520180E1C6CF1092500110924D
:102850009401109297018EE0BECF9091940191FF68
:102860000AC0909149019E3E31F08093520184E16B
:10287000B2CF1092500184E0AECF81E0809350013E
:102880008091940188609CCF82E0A5CF8091500117
:1028900018160CF47BCE80919401837C8093940174
:1028A00010925001809194018F77809394019ACE79
:1028B000AF92BF92CF92DF92EF92FF920F931F934E
:1028C000CF93DF936C017B018B01040F151FEB018C
:1028D0005E01AE18BF08C017D10759F06991D60143
:1028E000ED91FC910190F081E02DC6010995892BB5
:1028F00079F7C501DF91CF911F910F91FF90EF9074
:10290000DF90CF90BF90AF900895089590E080E061
:1029100008958F929F92AF92BF920F931F93CF9380
:10292000DF93CDB7DEB7A1970FB6F894DEBF0FBE29
:10293000CDBF19A2423008F44AE08E010F5D1F4F4F
:10294000842E912CB12CA12CA50194010E94D03E83
:10295000E62FB901CA01EA3044F5E05DD801EE93F3
:102960008D01232B242B252B79F790E080E0109705
:1029700069F0FD0101900020E9F73197AF014A1B92
:102980005B0BBD0185EE94E00E945814A1960FB632
:10299000F894DEBF0FBECDBFDF91CF911F910F9195
:1029A000BF90AF909F908F900895E95CD7CF462F4E
:1029B000682F70E090E080E00C9489148091FF040F
:1029C0008130D9F490910305933009F080E00E94A2
:1029D00047038AE08093EB048BE08093EC048091C2
:1029E00004048A3020F485E296E00E941A066AE028
:1029F00070E0809104040C94D71408958091FF0432
:102A00008130D9F490910305923009F080E00E9462
:102A100047038AE08093EB0489E08093EC04809183
:102A200007048A3020F485E296E00E941A066AE0E4
:102A300070E0809107040C94D71408958091FF04EE
:102A40008130D9F490910305913009F080E00E9423
:102A500047038AE08093EB0488E08093EC04809144
:102A600006048A3020F485E296E00E941A066AE0A5
:102A700070E0809106040C94D71408958091FF04AF
:102A80008130D1F490910305911180E00E944703B9
:102A90008AE08093EB0487E08093EC048091050446
:102AA0008A3020F485E296E00E941A066AE070E01F
:102AB000809105040C94D71408951F93CF93DF934E
:102AC000182FD62FC42F89E08093E9041092EA04CE
:102AD0008EE08093EB0480E18093EC04103120F4CD
:102AE00085E296E00E941A0660E170E0812F0E9464
:102AF000D71481E296E00E941A06D03120F485E2D4
:102B000096E00E941A0660E170E08D2F0E94D714B3
:102B100081E296E00E941A06C03120F485E296E038
:102B20000E941A0660E170E08C2FDF91CF911F9117
:102B30000C94D714CF9380911B04882351F180917A
:102B4000EF04882331F1C62F809185048823D1F0CA
:102B50008091FF048330B1F489E08093E9041092FE
:102B6000EA048EE08093EB0481E18093EC04603111
:102B700020F485E296E00E941A0660E170E08C2F56
:102B80000E94D714809181048230D1F120F48130E9
:102B9000F9F0CF910895833009F44AC08430C9F721
:102BA000C3FB882780F980931E04C2FB882780F925
:102BB00080931D04C1FB882780F9809329048C2F02
:102BC000817080932104C295C170C0933304E1CF1A
:102BD000C1FB882780F980931F048C2F817080931C
:102BE0002704C2FB882780F980932F04C3FB882722
:102BF00080F980933704C295C170C0933F04C9CF58
:102C0000C1FB882780F9809340048C2F81708093CA
:102C10003804C2FB882780F980933004C3FB8827DF
:102C200080F980932804C295C170C0932004B1CF6D
:102C3000C1FB882780F980933F04C2FB882780F975
:102C400080934004C3FB882780F9809338048C2F3D
:102C5000817080933004E7CF009769F0FC01019008
:102C60000020E9F73197AF01481B590BBC0185EEF5
:102C700094E00C94581490E080E008954F925F9295
:102C80006F927F928F929F92AF92BF92CF92DF927C
:102C9000EF92FF92CF93DF9300D000D0CDB7DEB795
:102CA0000E94990FC090FB04D090FC04E090FD04BA
:102CB000F090FE042B013C014C185D086E087F0863
:102CC000C301B20128EE33E040E050E00E94D03E64
:102CD00029833A834B835C83C301B20120E63AEE39
:102CE00040E050E00E94D03E69017A01C301B20188
:102CF00020E83EEE46E350E00E94D03E49015A01F2
:102D0000C301B20120E03CE546E255E00E94D03E1E
:102D100029013A01ACE3B0E0A70196010E94F23E1E
:102D200029813A814B815C81261B370B480B590B5B
:102D300029833A834B835C83A50194010E94F23E70
:102D4000C61AD70AE80AF90AA8E1B0E0A30192017D
:102D50000E94F23E861A970AA80AB90A8EE080936A
:102D6000EB048BE08093EC048FE08093E9041092F5
:102D7000EA044114510461047104A1F04AE0C30162
:102D8000B2010E94891482E396E04A9445284628BD
:102D9000472811F48DE296E00E941A0687E296E039
:102DA0000E941A064AE084169104A104B10420F49A
:102DB00085E296E00E941A064AE0C501B4010E942D
:102DC000891483E296E00E941A065AE0C516D104DF
:102DD000E104F10420F485E296E00E941A064AE03C
:102DE000C701B6010E94891483E296E00E941A0688
:102DF00089819A81AB81BC810A97A105B10520F434
:102E000085E296E00E941A064AE069817A818B8108
:102E10009C810F900F900F900F90DF91CF91FF90BA
:102E2000EF90DF90CF90BF90AF909F908F907F906A
:102E30006F905F904F900C948914CF92DF92EF9235
:102E4000FF92CF93DF936C01990FEE08FF08F7FE16
:102E500019C06DE285EE94E00E94E205EC01662760
:102E60007727CB016C197D098E099F094AE00E94E2
:102E700089148C0F9D1FDF91CF91FF90EF90DF9011
:102E8000CF9008954AE0C701B601DF91CF91FF903E
:102E9000EF90DF90CF900C9489148091FF048130E3
:102EA00099F590910305953009F080E00E94470361
:102EB0008AE08093EB048DE08093EC048091010420
:102EC00090910204883E934024F485E296E00E94AB
:102ED0001A0680910104909102048436910524F42D
:102EE00085E296E00E941A06809101049091020406
:102EF0000A9724F485E296E00E941A068091010464
:102F0000909102040C941D1708958FE08093E904BA
:102F10001092EA0488E18093EB041092EC04809113
:102F200005048831C8F5909106049C33A8F590916A
:102F300007049C3388F58A3020F485E296E00E94ED
:102F40001A066AE070E0809105040E94D71483E2BB
:102F500096E00E941A06809106048A3020F485E2E9
:102F600096E00E941A066AE070E0809106040E94D2
:102F7000D71483E296E00E941A06809107048A30F3
:102F800020F485E296E00E941A066AE070E08091E3
:102F900007040E94D71407C081E08093EA0488ECFC
:102FA00095E00E941A068FE08093E9041092EA04EB
:102FB00086E18093EB0481E08093EC04809101042E
:102FC000909102048F30974264F4809103048D3015
:102FD00040F480910404803220F490910B049830E6
:102FE000F8F081E08093EA048BEB95E00E941A06EA
:102FF0008091FF04813071F40E943E150E941E15DD
:103000000E94FE140E94DE140E9482060E944D1748
:103010000E943F068091FF04833059F50C943E16C0
:103020008A3020F485E296E00E941A066AE070E099
:10303000809104040E94D71486EC95E00E941A0641
:10304000809103048A3020F48CE291E00E942C16D7
:103050006AE070E0809103040E94D71486EC95E04A
:103060000E941A0680910104909102040E941D178B
:10307000BFCF0895CF9380E00E94BA09CEE0C093FD
:10308000E9041092EA0483E18093EB0482E08093E8
:10309000EC048CED94E00E941A066091F10485EE38
:1030A00094E00E94E2056091F20485EE94E00E94B3
:1030B000E2056091F30485EE94E00E94E2056091E0
:1030C000F40485EE94E00E94E2056091F50485EE3B
:1030D00094E00E94E2056091F60485EE94E00E947F
:1030E000E2056091F70485EE94E00E94E2056091AC
:1030F000F80485EE94E00E94E205C093E904109282
:10310000EA0484E18093EB0483E08093EC0487ED90
:1031100094E00E941A068091F9049091FA040E94AA
:103120002C168FE08093E9041092EA041092EB04CD
:1031300084E08093EC04C0E26FE585EE94E00E94A9
:10314000E205C150C9F7CF910C94851780911B04FB
:10315000882349F08091EF04882329F08091850429
:1031600081110C94851708950F931F93CF93DF93CC
:10317000EC0189E08093E9041092EA048EE08093E8
:10318000EB048FE08093EC040D2F11270031110523
:1031900020F485E296E00E941A06B80190E080E0F3
:1031A00040E10E94891481E296E00E941A06DD2720
:1031B000C031D10520F485E296E00E941A06BE01D6
:1031C00090E080E040E1DF91CF911F910F910C944E
:1031D00089141092CB031092CA038091C9038823EB
:1031E00059F02091CA033091CB0380910501909151
:1031F000060128173907F0F02091CA033091CB035C
:10320000809105019091060128173907E8F00E9486
:103210001F050E94B40B8091C7039091C8030196CB
:103220009093C8038093C70380E01092A00380931B
:103230009F0308958091CA039091CB0301969093C8
:10324000CB038093CA03C9CF81E08093C9038093E5
:10325000C6039FEF9093C5031092C4031092C3035B
:103260008093A2038091A203806D8093A20380913A
:10327000A103813009F062C01092A1031092CB0328
:103280001092CA038091A2038093BB008091CA036D
:103290009091CB0301969093CB038093CA038091C6
:1032A000BC0083FF0BC02091CA033091CB038091F7
:1032B0000501909106012817390720F32091CA03D0
:1032C0003091CB03809105019091060128173907B1
:1032D00008F09DCF85EC8093BC001092CB03109238
:1032E000CA038091C903813059F42091CA033091F7
:1032F000CB0380910501909106012817390700F151
:103300002091CA033091CB03809105019091060171
:103310002817390708F07BCF8091C40381111AC0A8
:103320008091C403A3EAB3E0EFE7F3E090E09817DD
:1033300009F47BCF2D9121939F5FF9CF85EECBCF01
:103340008091CA039091CB0301969093CB03809315
:10335000CA03C7CF81E0E6CF88E60E94560382E029
:1033600090E00E94DC050E94D80B0E94E9180E94A0
:10337000730326E0969587952A95E1F78170089565
:10338000CF93DF93C82F0E94AC19D82F88E60E94F4
:10339000560382E090E00E94DC058C2FD11110C012
:1033A0006AE00E940C3F682F660F680F660F6C0F73
:1033B00080EF93E00E94AD05DF91CF910C94D80B84
:1033C000CD3078F06CE00E940C3F292F892F6AE005
:1033D0000E940C3F682F660F680F660F620F6066D1
:1033E000E7CF6AE00E940C3F682F660F680F660FF8
:1033F0006C0F6064DDCFCF9388E60E94560382E0B5
:1034000090E00E94DC050E94D80B0E94E9180E94FF
:103410007303C82F88E60E94560382E090E00E9462
:10342000DC056C2F6F7B80EF93E00E94AD05CF91A0
:103430000C94D80BCF93C82F88E60E94560390E0D7
:1034400080E00E94DC050E94D80B0E94E9180E94CF
:1034500073038078C82B88E60E94560390E080E0D2
:103460000E94DC058C2F6AE00E940C3F682F660FDB
:10347000680F660F6C0F80EF93E00E94AD05CF914F
:103480000C94D80B88E60E94560390E080E00E94DE
:10349000DC050E94D80B0E94E9180E9473038F7705
:1034A000282F30E094E0359527959A95E1F7922FF3
:1034B000990F990F291B220F820F089588E60E9409
:1034C000560381E090E00E94DC050E94D80B0E9428
:1034D000E9180E9473039C0194E0359527959A950D
:1034E000E1F72F703327922F990F990F291B220F85
:1034F000820F0895CF930E94AC19C82F88E60E94CE
:10350000560382E090E00E94DC050E94D80B0E94E6
:10351000E9180E947303C11110C0AC0194E05595E5
:1035200047959A95E1F74F705527942F990F990F6A
:10353000491B440F840FCF910895482F4F79242FB2
:1035400030E084E0359527958A95E1F7822F880F42
:10355000880F922F981B892F880FECCF88E60E9446
:10356000560383E090E00E94DC050E94D80B0E9485
:10357000E9180E947303089588E60E94560384E0C8
:1035800090E00E94DC050E94D80B0E94E9180E947E
:1035900073039C0194E0359527959A95E1F72F7078
:1035A0003327922F990F990F291B220F820F08950D
:1035B00088E60E94560385E090E00E94DC050E94A8
:1035C000D80B0E94E9180E9473039C0194E0359582
:1035D00027959A95E1F72F703327922F990F990F1E
:1035E000291B220F820F089588E60E94560386E069
:1035F00090E00E94DC050E94D80B0E94E9180E940E
:1036000073039C0194E0359527959A95E1F72F7007
:103610003327922F990F990F291B220F820F90E0C9
:103620008053984F0895CF9388E60E94560390E008
:1036300080E00E94DC050E94D80B0E94E9180E94DD
:103640007303C82F88E60E94560390E080E00E9432
:10365000DC056C2F6F7780EF93E00E94AD05CF9172
:103660000C94D80B88E60E94560390E080E00E94FC
:10367000DC050E94D80B0E94E9180E947303809514
:10368000881F8827881F08950E94FB1980910404D1
:103690000E94EB0C809103040E94D20C80910104E3
:1036A000909102040E94B20C80910B040E94040DC0
:1036B000809105040E94C019809106040E94150D96
:1036C000809107040E941A1A0E94321B811102C0C5
:1036D0000C94131B08951F93CF93DF93EC01162FC7
:1036E0000E94923E181739F0612FCE01DF91CF91E1
:1036F0001F910C949A3EDF91CF911F910895CF9323
:10370000DF93CDE6D4E08883682F90E080E00E94CC
:103710006B1B8881982F91709093460486958170D9
:1037200080936004DF91CF91089580918604811188
:1037300012C08091FF0481113CC081E0909101058D
:10374000973009F080E00E9447038AE08093EB0401
:103750008CE08093EC0480916E0490916D04891745
:1037600010F40E947F1B80916D048130C9F038F005
:103770008230C9F08330D1F081E096E002C084EB62
:1037800095E00E941A068FE08093E9041092EA0403
:1037900081E296E00E941A0681E296E00C941A06F5
:1037A00085E595E0EECF82E595E0EBCF8FE495E0FF
:1037B000E8CF08950F931F93CF93DF931092FF04E8
:1037C00010928604109263041FE01093E904109293
:1037D000EA040E94CF0A0E943A181092EB04D5E046
:1037E000D093EC048EEC94E00E9412070E946509CD
:1037F000C4E1C093EB04D093EC0483EC94E00E940A
:10380000E0061092EB04D6E0D093EC0489EB94E050
:103810000E9412070E943A09C093EB04D093EC0473
:1038200081EB94E00E94E0061092EB04D7E0D09385
:10383000EC048BEA94E00E9412070E940F09C093E7
:10384000EB04D093EC0483EA94E00E94E00610922B
:10385000EB0408E00093EC048BE994E00E9412076B
:103860000E94DB08C093EB040093EC0483E994E02E
:103870000E94E0061092EB0409E00093EC048AE851
:1038800094E00E9412070E94B008C093EB040093DA
:10389000EC0482E894E00E94E0061092EB040AE057
:1038A0000093EC048CE794E00E9412070E948F08BA
:1038B000C093EB040093EC0484E794E00E94E006DC
:1038C0001092EB040BE00093EC048EE694E00E946F
:1038D00012070E946D08C093EB040093EC0485E688
:1038E00094E00E94E0061092EB040CE00093EC04DC
:1038F0008FE594E00E9412070E94951BC093EB0491
:103900000093EC0486E594E00E94E0061092EB043C
:103910000DE00093EC048DE494E00E9412070E94F5
:103920004208C093EB040093EC0484E494E00E940A
:10393000E0061092EB040EE00093EC048BE394E0BD
:103940000E9412070E941708C093EB040093EC0436
:1039500084E394E00E94E0061092EB041093EC04E0
:103960008BE294E00E9412070E94C307C093EB040D
:103970001093EC0484E294E00E94E0061092EB04C1
:1039800010E11093EC048DE194E00E9412070E9474
:103990009507C093EB041093EC0486E194E00E9439
:1039A000E0061092EB0411E11093EC048FE094E038
:1039B0000E9412070E946A07C093EB041093EC0464
:1039C00088E094E00E94E0061092EB0412E110936C
:1039D000EC048FEF93E00E9412070E943F07C09310
:1039E000EB041093EC0488EF93E00E94E006109241
:1039F000EB0413E11093EC048FEE93E00E941207A6
:103A00000E941D07C093EB041093EC0488EE93E032
:103A10000E94E0061092EB04C093EC0482EE93E067
:103A20000E9412070E94E706C093EB04C093EC04C7
:103A300082EE93E00E94E0061092EB0486E1809310
:103A4000EC04D093E904C1E0C093EA0480EE93E073
:103A50000E941A0687ED93E00E94D90681E296E063
:103A60000E94D906D093E904C093EA0485ED93E05F
:103A70000E941A0680ED93E00E94D906D093E904D3
:103A8000C093EA048EEC93E00E941A0689EC93E05E
:103A90000E94D9061092EB0487E18093EC04C0E207
:103AA0006FE585EE94E00E94E205C150C9F71092DF
:103AB000EB0488E18093EC0482EC93E00E94D90649
:103AC00085EB93E00E94E0068AEA93E00E94D90623
:103AD0001092EB0489E18093EC0482EC93E00E9465
:103AE000D90681EA93E00E94E00682E993E0DF9143
:103AF000CF911F910F910C94D9060F931F93CF93E1
:103B0000C82F8B010E94990F80913F01811104C041
:103B100061E080E10E94860B8091EF04882309F424
:103B2000E7C080918504882309F47DC0C43108F082
:103B3000DFC0EC2FF0E0E156F24E0C94183FB31DBD
:103B4000B81DC31DCD1DD21DD71DDC1DE11DE61DF9
:103B5000EB1DF01D781EF51DFA1DFF1D041E781EBD
:103B6000C81D091E0E1ECF911F910F910C94DA1BD8
:103B70008091FF04833009F0BBC0C801CF911F9131
:103B80000F910C94B418CF911F910F910C941708BA
:103B9000CF911F910F910C94C307CF911F910F915B
:103BA0000C944208CF911F910F910C946509CF910D
:103BB0001F910F910C943A09CF911F910F910C9482
:103BC0000F09CF911F910F910C94DB08CF911F919A
:103BD0000F910C94B008CF911F910F910C948F0806
:103BE000CF911F910F910C946D08CF911F910F9160
:103BF0000C941D07CF911F910F910C94E706CF9164
:103C00001F910F910C94951BCF911F910F910C94C4
:103C10009507CF911F910F910C946A07CF911F9137
:103C20000F910C943F07C03108F05DC0CC3028F4F0
:103C30008EEF8C0F893008F05BC00E94990F609363
:103C40003001709331018093320190933301809160
:103C50008604811107C08FE08093E9041092EA0482
:103C60000E94CF0A81E08093860480936304E091F0
:103C70001904F0911A0470E060E080E109958FE08A
:103C80008093E9041092EA040E94CF0A80E0C031D8
:103C900009F485E00E94BA09C03151F18FE08093A8
:103CA000E9041092EA041092EB0485E08093EC049E
:103CB000C250C23128F5EC2FF0E0EF59F14E0C94D0
:103CC000183FBA1EB71E7C1EA21EA51EA81EAB1E44
:103CD000AE1EB11E801EC91ECC1EB41EC01E801E8C
:103CE000BD1EC31EC61E8FEE8C0F833008F4A5CFF9
:103CF000CF911F910F9108958EEC94E00E941A06C7
:103D00000E9435061092EB0486E08093EC04C231E9
:103D100008F047C0EC2FF0E0E057F14E0C94183F4C
:103D2000EE1EEB1ECF1ED61ED91EDC1EDF1EE21EAF
:103D3000E51ED11EFD1E001FE81EF41ED11EF11E41
:103D4000F71EFA1E89EB94E0D9CF8BEA94E0D6CF28
:103D50008BE994E0D3CF8AE894E0D0CF8CE794E06D
:103D6000CDCF8EE694E0CACF8FE594E0C7CF8DE447
:103D700094E0C4CF8BE394E0C1CF8BE294E0BECF5C
:103D80008DE194E0BBCF8FE094E0B8CF8FEF93E06C
:103D9000B5CF8FEE93E0B2CF82EE93E0AFCF0E942B
:103DA0006509CF911F910F910C9435060E943A0935
:103DB000F8CF0E940F09F5CF0E94DB08F2CF0E94D6
:103DC000B008EFCF0E948F08ECCF0E946D08E9CFBA
:103DD0000E94951BE6CF0E944208E3CF0E9417087D
:103DE000E0CF0E94C307DDCF0E949507DACF0E9483
:103DF0006A07D7CF0E943F07D4CF0E941D07D1CFBB
:103E00000E94E706CECF611103C064E10C946B1BE6
:103E10006AE0FCCF0F931F93CF93DF93682F6170FD
:103E20000CE714E0F8016083CEE7D4E0869581705A
:103E3000888388E090E00E94031F68818AE090E018
:103E40000E94031FF801808180935A048881809327
:103E50005C04DF91CF911F910F9108958130F9F0AB
:103E6000C8F08230F9F0833019F16091780484E071
:103E700090E00E94031F6091790485E090E00E9429
:103E8000031F809178048093550480917904809376
:103E9000560408951092780410927904E6CF809326
:103EA0007804FACF1092780481E080937904DDCF12
:103EB00081E080937804F9CF90911B04992309F451
:103EC00044C09091EF04992309F43FC0882319F06E
:103ED000813059F1089560913505609371048CE04B
:103EE00090E00E94031F61E080E10E94860B64E67F
:103EF00070E080E090E00E94470F60E080E10E9467
:103F0000860B64E670E080E090E00E94470F61E07D
:103F100080E10E94860B64E670E080E090E00E9401
:103F2000470F60E080E10C94860B80918504882324
:103F300061F08091FF04833041F440914905609124
:103F40004805809147050C945D150895CF93C09165
:103F500070048C1708F4C82FC0936F046C2F8EE088
:103F600090E00E946B1B8C2F817080936104C6953A
:103F7000C170C0936204CF910895CF93C82F85304C
:103F800008F0C4E0C09381046C2F8FE090E00E94A1
:103F90006B1B8C2F817080936404C1FB882780F990
:103FA00080936504C2FBCC27C0F9C0936604CF910F
:103FB0000895CF92DF92EF92FF920F931F93CF93CA
:103FC000DF936A017B01692F661F6627661F609376
:103FD00074021092730260934804382F331F332702
:103FE000331F30935304FC01FF27E6FB332730F9DE
:103FF00030935204E5FB332730F930935104E4FB4E
:10400000332730F930935004E3FB332730F93093F2
:104010004F04E2FB332730F930934E04E1FB3327A2
:1040200030F930934D043E2F317030934C04911190
:104030000C94DE28863011F00C94DE28DF91CF91AD
:104040001F910F91FF90EF90DF90CF900C94890417
:104050000E94890480917302882341F08091A60414
:104060009091A704892B11F410921C048091A6044E
:104070009091A704181619061CF481E080931C0483
:10408000809174048823C1F0809175048823A1F085
:1040900080917102882381F010927404109275044B
:1040A0001092710210927202109273021092A70481
:1040B0001092A6040E94790F809174048823C1F1A4
:1040C000809175048823A1F180917002882381F189
:1040D0001092740410927504109270021092720281
:1040E000109273021092A7041092A604ECE1F4E07F
:1040F000119224E0E534F207D9F7C1E0C0934504FA
:104100000E948E03C09323040E948E0364EF71E02B
:1041100080E090E00E94470F109245040E948E03B9
:1041200064EF71E080E090E00E94470F109223045A
:10413000DF91CF911F910F91FF90EF90DF90CF9083
:10414000089520916C04222371F02FE030E0892F34
:104150008095881F8827881F2A5E3B4FF901868338
:104160008093720277CF30E020E0F1CF20916C0491
:10417000222371F030E020E0892F8095881F882766
:10418000881F2A5E3B4FF90186838093740462CFB7
:104190002FE030E0F1CF80917404C92FC0958823BF
:1041A00011F06623C1F03C2F331F3327331F3093A8
:1041B0002B0420916C0486E090E0211102C090E075
:1041C00080E08A5E9B4FFC013683211104C08AE0A7
:1041D00090E00E949904CC1FCC27CC1FC09375049B
:1041E00039CF80917404C92FC095882311F06623BC
:1041F000C1F03C2F331F3327331F30932B04209102
:104200006C0487E090E0211102C090E080E08A5EBB
:104210009B4FFC013683211104C08BE090E00E948B
:104220009904CC1FCC27CC1FC093750413CF2091C9
:10423000720221110FCF892F8095982F991F9927EE
:10424000991F20916C04222351F0909321049093A4
:104250004404881F8827881F80937102FBCE9093A7
:104260002B0490933404F5CF892F8095881F8827DD
:10427000881F80937304EECE892F8095881F88272E
:10428000881F80937204E6CE209172022111E2CE43
:10429000892F8095881F8827881F90916C04992307
:1042A00029F08093290480934404D4CE80932B0476
:1042B00080931D04CFCE209172022111CBCE892F85
:1042C0008095881F8827881F80938C0480931C0406
:1042D0008093380487E190E00E949904BBCE20913E
:1042E00072022111B7CE892F8095881F8827881FD9
:1042F00080938D0480931C048093400488E190E0B7
:104300000E949904A7CE209172022111A3CE892F79
:104310008095881F8827881F80938E0480931C04B3
:1043200080933F0485E190E00E94990493CE209110
:10433000720221118FCE892F8095881F8827881FB0
:1043400080938F0480931C048093300486E190E076
:104350000E9499047FCE2091720421110CC02091FB
:104360007304211108C0209174042223B9F1209113
:104370007504222399F161116DCE8091870490918B
:104380008804A0918904B0918A04A7019601281B92
:10439000390B4A0B5B0BDA01C901893C9105A10578
:1043A000B10508F457CE8091850491E08927809368
:1043B000850480935F04882341F0E0911904F09113
:1043C0001A0470E060E080E00995C0928704D09202
:1043D0008804E0928904F0928A043CCE892F80956B
:1043E000881F8827881F8093910480931C049091D4
:1043F0006C0423E030E0911102C027E030E02A5E37
:104400003B4FF90186838BE190E00E94990422CE14
:10441000C92FC095CC1FCC27CC1FC0931C04C093C0
:1044200020048CE190E00E949904C093700212CEA7
:10443000892F8095881F8827881F80932204809366
:10444000900408CE892F8095881F8827881F809325
:10445000230400CE892F8095881F8827881F80938A
:104460001D04F8CD892F8095881F8827881F809389
:104470004304F0CD892F8095881F8827881F80935B
:104480003404E8CD2091720421110CC020917304F2
:10449000211108C0209174042223E9F020917504B1
:1044A0002223C9F06111D6CD6091820481E0682792
:1044B0006093820480E190E00E94031F8091820457
:1044C00080936704E0911904F0911A0470E060E0B1
:1044D00082E10995BFCD892F8095881F8827881F85
:1044E00080932D04B7CD892F8095881F8827881F3A
:1044F00080932E04AFCD892F8095881F8827881F31
:1045000080933504A7CD892F8095881F8827881F21
:1045100080933D049FCD892F8095881F8827881F11
:104520008093420497CD892F8095881F8827881F04
:10453000809331048FCD2091720421110CC0209101
:104540007304211108C0209174042223E9F0209102
:1045500075042223C9F061117DCD6091800481E052
:104560006827609380048DE090E00E94031F809193
:10457000800480935E04E0911904F0911A0470E0C5
:1045800060E082E0099566CD892F8095881F882795
:10459000881F80933A045ECD892F8095881F8827D5
:1045A000881F8093320456CD892F8095881F8827D5
:1045B000881F80932A044ECD2091720421110CC0D3
:1045C00020917304211108C0209174042223E9F082
:1045D000209175042223C9F061113CCD80918104A2
:1045E0008F5F853078F480938104809181040E94EC
:1045F000BD1FE0911904F0911A0470E060E081E1C0
:10460000099528CD10928104F0CF892F8095881FBD
:104610008827881F809333041DCD209172042111B7
:104620000CC020917304211108C02091740422232E
:10463000E9F0209175042223C9F061110BCD60913E
:10464000830481E068276093830481E190E00E9405
:10465000031F8091830480936804E0911904F09112
:104660001A0470E060E083E10995F4CC892F80950D
:10467000881F8827881F80933B04ECCC892F809566
:10468000881F8827881F80932904E4CC892F809570
:10469000881F8827881F80932104DCCC892F809570
:1046A000881F8827881F80931E04D4CC892F80956B
:1046B000881F8827881F80933604CCCC892F80954B
:1046C000881F8827881F80932504C4CC892F809554
:1046D000881F8827881F80933E04BCCC892F809533
:1046E000881F8827881F80933904B4CC20917204D6
:1046F00021110CC020917304211108C02091740471
:104700002223F1F0209175042223D1F06111A2CC73
:1047100080916F048F5F80936F049091700498175D
:1047200010F410926F0480916F040E94A61FE09114
:104730001904F0911A0470E060E08FE009958ACCCA
:10474000892F8095881F8827881F80933C0482CCFE
:10475000892F8095881F8827881F809326047ACC0C
:10476000892F8095881F8827881F80932C0472CCFE
:10477000892F8095881F8827881F809341046ACCE1
:10478000892F8095881F8827881F8093240462CCF6
:10479000892F8095881F8827881F809320045ACCF2
:1047A000892F8095881F8827881F80931F0452CCEB
:1047B000892F8095881F8827881F809327044ACCDB
:1047C000892F8095881F8827881F80932F0442CCCB
:1047D000892F8095881F8827881F809337043ACCBB
:1047E000892F8095881F8827881F80933F0432CCAB
:1047F000892F8095881F8827881F809340042ACCA2
:10480000892F8095881F8827881F8093380422CCA1
:10481000892F8095881F8827881F809330041ACCA1
:10482000892F8095881F8827881F8093280412CCA1
:10483000892F8095881F8827881F809320040ACCA1
:10484000892F8095881F8827881F80931F0402CC9A
:10485000892F8095881F8827881F80932704FACB8B
:10486000892F8095881F8827881F80932F04F2CB7B
:10487000892F8095881F8827881F80933704EACB6B
:10488000892F8095881F8827881F80933F04E2CB5B
:10489000892F8095881F8827881F80934004DACB52
:1048A000892F8095881F8827881F80933804D2CB52
:1048B000892F8095881F8827881F80933004CACB52
:1048C000892F8095881F8827881F80932804C2CB52
:1048D000292F2095221F2227221F20932B0430915D
:1048E000720285E090E0311102C08CE190E08A5EB6
:1048F0009B4FFC012683662321F010922104109225
:10490000380430937302A6CB292F2095221F22272B
:10491000221F20932B04309172028AE190E0311122
:1049200002C08FE190E08A5E9B4FFC0126836623E4
:1049300021F01092360410923B04309373028ACB1C
:10494000292F2095221F2227221F20932B043091EC
:10495000720282E290E0311102C087E190E08A5E4B
:104960009B4FFC012683662321F010923E04109297
:104970003304309373026ECB292F2095221F2227F8
:10498000221F20932B043091720288E090E03111B5
:1049900002C08DE090E08A5E9B4FFC012683662377
:1049A00021F010922404109229043093730252CB08
:1049B00020916C0421110BC061114CCB209172022B
:1049C00069E1211101C065E20E94E41143CB292F66
:1049D0002095221F2227221F20932B0480917202F0
:1049E000882371F089E190E08A5E9B4FFC01268369
:1049F000662309F42FCB10923504109241042ACB80
:104A000085E290E0F1CF20916C0421110BC061117F
:104A100021CB2091720261E2211101C06DE10E945F
:104A2000E41118CB292F2095221F2227221F209323
:104A30002B0480917202882371F081E290E08A5EFB
:104A40009B4FFC012683662309F404CB10923D049E
:104A500010923904FFCA8DE190E0F1CF292F209503
:104A6000221F2227221F20932B043091720288E1FB
:104A700090E0311102C080E290E08A5E9B4FFC0121
:104A80002683662321F01092340410923C04309364
:104A90007302E0CA20916C0421110BC06111DACAC3
:104AA0002091720269E0211101C061E10E94E411CC
:104AB000D1CA292F2095221F2227221F20932B04A1
:104AC00080917202882371F089E090E08A5E9B4FAA
:104AD000FC012683662309F4BDCA109225041092B6
:104AE0002D04B8CA81E190E0F1CF292F2095221F33
:104AF0002227221F20932B043091720286E190E03E
:104B0000311102C08EE090E08A5E9B4FFC0126834B
:104B1000662321F01092320410922A04309373021B
:104B200099CA292F2095221F2227221F20932B0468
:104B30003091720284E090E0311102C08EE190E089
:104B40008A5E9B4FFC012683662321F0109220048D
:104B500010923A04309373027DCAC0917202CC2342
:104B600009F41EC3611103C061E00E94E411C09307
:104B7000730270CA892F8095881F8827881F8093A9
:104B80002B048093430466CA892F8095881F882749
:104B9000881F80932B0480933A045CCA892F8095E8
:104BA000881F8827881F80932B048093320452CA61
:104BB0002091720421110CC020917304211108C0AE
:104BC000209174042223E9F0209175042223C9F076
:104BD000611140CA60917F0481E0682760937F047F
:104BE0008BE090E00E94031F80917F0480935D041E
:104BF000E0911904F0911A0470E060E083E00995F7
:104C000029CA892F8095881F8827881F80931C04B4
:104C1000809331048DE190E00E9499041BCA892F92
:104C20008095881F8827881F80931C0480932B04FD
:104C300083E090E00E9499040DCA20917202211134
:104C400009CA892F8095881F8827881F90916C0436
:104C5000992329F08093330480934404FBC9809303
:104C60001C0480932F0483E190E00E949904F2C910
:104C7000209172022111EEC9892F8095881F882703
:104C8000881F90916C04992329F080933B048093B2
:104C90004404E0C980931C048093370484E190E0CD
:104CA0000E949904D7C9209172022111D3C9892F7A
:104CB0008095881F8827881F80933204809344043E
:104CC000C9C9209172022111C5C9892F8095881FF9
:104CD0008827881F80932A0480934404BBC92091AD
:104CE000720421110CC020917304211108C020917D
:104CF0007404222391F020917504222371F0611134
:104D0000A9C980E00E942E1FE0911904F0911A04B5
:104D100070E060E084E009959DC9892F8095881F27
:104D20008827881F80931D048093440493C9209191
:104D3000720421110CC020917304211108C020912C
:104D40007404222391F020917504222371F06111E3
:104D500081C981E00E942E1FE0911904F0911A048C
:104D600061E070E084E0099575C9892F8095881FFE
:104D70008827881F80934304809344046BC9209143
:104D8000720421110CC020917304211108C02091DC
:104D90007404222391F020917504222371F0611193
:104DA00059C982E00E942E1FE0911904F0911A0463
:104DB00062E070E084E009954DC9892F8095881FD5
:104DC0008827881F809334048093440443C920912A
:104DD000720421110CC020917304211108C020918C
:104DE0007404222391F020917504222371F0611143
:104DF00031C983E00E942E1FE0911904F0911A043A
:104E000063E070E084E0099525C9892F8095881FAB
:104E10008827881F80932D04809344041BC9209108
:104E2000720421110CC020917304211108C020913B
:104E300074042223E9F0209175042223C9F0611142
:104E400009C960917A0481E0682760937A0486E05A
:104E500090E00E94031F80917A0480935704E091B0
:104E60001904F0911A0470E060E085E00995F2C839
:104E7000892F8095881F8827881F80932E04809310
:104E80004404E8C82091720421110CC020917304DD
:104E9000211108C0209174042223E9F020917504A7
:104EA0002223C9F06111D6C860917B0481E0682794
:104EB00060937B0487E090E00E94031F80917B0455
:104EC00080935904E0911904F0911A0470E060E0B5
:104ED00086E00995BFC8892F8095881F8827881F7D
:104EE0008093350480934404B5C820917204211145
:104EF0000CC020917304211108C020917404222356
:104F0000C1F0209175042223A1F06111A3C8809102
:104F10007C0490917E048F5F911180E00E940A1FB3
:104F2000E0911904F0911A0470E060E087E00995BF
:104F300091C8892F8095881F8827881F80933D04FA
:104F40008093440487C820917204211108C02091E5
:104F500074042223E9F0209175042223C9F0611121
:104F600079C860917D0481E0682760937D0489E0C1
:104F700090E00E94031F80917D0480935B04E09188
:104F80001904F0911A0470E060E088E0099562C8A5
:104F9000892F8095881F8827881F809342048093DB
:104FA000440458C82091720421110CC0209173044C
:104FB000211108C0209174042223E9F02091750486
:104FC0002223C9F0611146C86091760481E0682708
:104FD0006093760482E090E00E94031F8091760443
:104FE00080934A04E0911904F0911A0470E060E0A3
:104FF00089E009952FC8892F8095881F8827881FE9
:10500000809331048093440425C8209172042111B7
:105010000CC020917304211108C020917404222334
:10502000F9F0209175042223D9F061110C942A2003
:105030006091770481E068276093770483E090E0D3
:105040000E94031F8091770480934B04E091190420
:10505000F0911A0470E060E08AE009950C942A202F
:10506000892F8095881F8827881F80933A04809312
:1050700044040C942A202091720421110CC0209128
:105080007304211108C020917404222309F1209196
:1050900075042223E9F061110C942A2080916D049B
:1050A0008F5F80936D0490916E04981710F41092A6
:1050B0006D0480916D040E947F1B60916D0470E00F
:1050C000E0911904F0911A048EE009950C942A20BD
:1050D000892F8095881F8827881F80931E048093BE
:1050E0002B040C942A202091720421110CC02091D1
:1050F0007304211108C020917404222331F12091FE
:105100007504222311F161110C942A200CE114E0A2
:10511000E8011992F4E0C534DF07D9F781E0809304
:1051200047040E948E0364E670E080E090E00E94F5
:10513000470FF80111928F01CE17DF07D1F71092B8
:1051400047040E948E030C942A20892F8095881F83
:105150008827881F8093260480932B040C942A2090
:105160008091720281110C942A2061110C942A20E2
:1051700060916C0481E0682760936C0481E090E0AA
:105180000E94031F80916C0480935804E0911904DD
:10519000F0911A0470E060E08CE009950C942A20EC
:1051A0002091E0042111E3CC892F8095881F882766
:1051B000881F80932B0480932C04D9CC3397EA3634
:1051C000F10510F00C943620E851F74D0C94183F7F
:1051D0000F26B0282820A120A120B620B620CB2061
:1051E000F120342134213C213620362053266126FB
:1051F0001D263826832197215B216F214421172109
:10520000AB210822D8251822222218242024282461
:105210003024382440244824502458246024A024D6
:105220001822CE25C425BA252E25C823D023D8235D
:10523000E023E823F023F823002408241024682422
:1052400084249125A0242E253620AD252A22322221
:105250003A22422273227B2283228B2293229B2298
:10526000CC22D422DC220D233E2346234E23562378
:105270005E2366236E237623A823B023B823C0239E
:10528000BC244A25D8240325752536206F26972669
:10529000BF26E7260F2742277527A327D2270528F1
:1052A0003B2873280C94923E0F931F93CF93DF9368
:1052B000D0E0C0E004E610E0CE30D10508F008C12F
:1052C000FE01EB59F64D0C94183F73299029A22941
:1052D000B429C629E629062A182A2A2A3C2A532A4A
:1052E0005B2A622A652A2091070480911004882392
:1052F00049F0822F6AE00E940C3F982F990F890F86
:10530000880F280F622F80E00E9486032196C11526
:1053100081E0D80789F6DF91CF911F910F91089511
:105320002091080480911004882349F0822F6AE0BC
:105330000E940C3F982F990F890F880F280F622F1A
:1053400081E0E2CF2091060480911004882349F087
:10535000822F6AE00E940C3F982F990F890F880FC7
:10536000280F622F82E0D0CF209109048091100491
:10537000882349F0822F6AE00E940C3F982F990FF2
:10538000890F880F280F622F83E0BECF8091100411
:105390002091050490911104992371F0882349F01C
:1053A000822F6AE00E940C3F982F990F890F880F77
:1053B000280F622F84E0A8CF882321F02D3080F3BE
:1053C0002CE8EECF2D30A8F32CE8F3CF8091100419
:1053D00020910A0490911104992371F0882349F0D7
:1053E000822F6AE00E940C3F982F990F890F880F37
:1053F000280F622F85E088CF882321F02D3080F39D
:105400002CE8EECF2D30A8F32CE8F3CF20910B043D
:1054100080911004882349F0822F6AE00E940C3F9B
:10542000982F990F890F880F280F622F86E06CCF75
:105430002091040480911004882349F0822F6AE0AF
:105440000E940C3F982F990F890F880F280F622F09
:1054500087E05ACF2091030480911004882349F0FB
:10546000822F6AE00E940C3F982F990F890F880FB6
:10547000280F622F88E048CF8091010490910204A8
:10548000B8010E94BC3E282F90911004992341F04E
:105490006AE00E940C3F982F880F890F880F820FB7
:1054A000682F89E031CF8AE290E00E945229682F6C
:1054B0006F778AE029CF8BE290E00E945229682F13
:1054C0008BE022CF60E08CE01FCF60E88DE01CCF46
:1054D000CE0180960E945229682F8C2F15CF1F93E2
:1054E000CF93DF93182FD62FC42F9091E104809192
:1054F000E2049CBD8DBD60E087E00E94860B1EBD6E
:1055000000000DB407FEFDCF1EB5DEBD00000DB4DA
:1055100007FEFDCFDEB5CEBD00000DB407FEFDCF0A
:10552000CEB561E087E00E94860B112319F11D3F83
:1055300029F580912F0181111DC081E080932F01F9
:105540008C2F90E0D6E095958795DA95E1F7CF73AB
:1055500080936E0420916D04821710F40E947F1BCB
:105560000E948E030E9454290E9454290E94790FA0
:10557000C093F004DF91CF911F9108951C3F61F417
:1055800080910F048111F6CF81E080930F04DF91A9
:10559000CF911F910C945429103F09F029C1ED2F90
:1055A000F0E0ED51FB4FC687E5CF8C2F81708093E3
:1055B0003E01C1FB882780F980933801C2FB882710
:1055C00080F980933F01C3FBCC27C0F9C093390118
:1055D000D1CF80911004882369F08C2F90E0B4E043
:1055E00095958795BA95E1F7982F990F990F891B93
:1055F000880FC80FC09307048C2FDF91CF911F91A4
:105600000C941A1A80911004882369F08C2F90E072
:10561000A4E095958795AA95E1F7982F990F990F92
:10562000891B880FC80FC0930804A4CF8091100471
:10563000882369F08C2F90E0F4E095958795FA9592
:10564000E1F7982F990F990F891B880FC80FC09306
:1056500006048C2FDF91CF911F910C94150D809132
:105660001004882369F08C2F90E0E4E095958795ED
:10567000EA95E1F7982F990F990F891B880FC80FAA
:10568000C093090477CF80911004882369F08C2F90
:1056900090E074E0959587957A95E1F7982F990FAA
:1056A000990F891B880FC80FC09305040E94FB192E
:1056B00080910504DF91CF911F910C94C0198091C6
:1056C0001004882369F08C2F90E064E0959587950D
:1056D0006A95E1F7982F990F990F891B880FC80FCA
:1056E000C0930A0447CF80911004882369F08C2F5F
:1056F00090E054E0959587955A95E1F7982F990F8A
:10570000990F891B880FC80FC0930B048C2FDF9152
:10571000CF911F910C94040D80911004882369F09F
:105720008C2F90E044E0959587954A95E1F7982F66
:10573000990F990F891B880FC80FC09304048C2FF1
:10574000DF91CF911F910C94EB0C80911004882372
:1057500069F08C2F90E034E0959587953A95E1F7C4
:10576000982F990F990F891B880FC80FC0930304B6
:105770008C2FDF91CF911F910C94D20C809110044B
:10578000882369F08C2F90E024E0959587952A95E1
:10579000E1F7982F990F990F891B880FC80F8C2F4D
:1057A00090E08053984F9093020480930104DF911E
:1057B000CF911F910C94B20C6C2F6F778AE290E01E
:1057C000DF91CF911F910C946B1BC2FB882780F94E
:1057D00091E0892780931004C1FB882780F980938A
:1057E00011046C2F8BE290E0EBCF6C2F8096E8CF0A
:1057F0001E3009F4DACE1A3F09F0BCCE20910C0419
:1058000030910D048D2F90E02817390739F420913D
:105810000E04C21303C0DE3008F4ACCE90930D0426
:1058200080930C04C0930E04DE30F8F6855E934D31
:10583000FC010C94183FE92A022B162B2F2B432B2B
:105840005F2B732B8C2BA52BBE2BDC2BE52BBA2AC5
:10585000BA2A0F931F93CF938C01C62F0E9452290F
:105860008A3011F0843149F4C1E08A3009F0C0E097
:105870008C2FCF911F910F91089564E1C1116AE0BF
:10588000C8010E946B1BF4CF1F920F920FB60F92AC
:1058900011242F933F934F935F936F937F938F9335
:1058A0009F93AF93BF93EF93FF938091B900887F4D
:1058B000803609F44AC0F0F5883209F4A5C018F51D
:1058C000803109F499C0B8F4882309F4F5C0883010
:1058D00009F492C0FF91EF91BF91AF919F918F9189
:1058E0007F916F915F914F913F912F910F900FBEDC
:1058F0000F901F901895883109F486C0803251F7B7
:105900008093C50314C0803409F49BC040F48033F5
:10591000B9F38833F9F68093C50385ECAEC08035C2
:1059200009F483C0883509F494C0883499F60E943C
:105930001F05D0CF883909F48AC038F5883729F097
:1059400050F4883611F0803729F683E08093C9033C
:1059500010926F0255C0883809F479C0803919F067
:10596000803809F0B7CF80916F02803208F06FC0A5
:10597000E0916F0281E08E0F80936F028091BB00F7
:10598000F0E0E15BFD4F80833BC0803B39F0D0F419
:10599000803A09F477C0883A09F09CCF84E080937C
:1059A000C90310924E0210924D02F0E0E0E009951A
:1059B00080914D0281110FC081E080934D021092C1
:1059C0002D0209C0803C09F4A8CF883C09F4A5CF7A
:1059D000883B09F07FCFE0914E0281E08E0F8093EB
:1059E0004E02F0E0E35DFD4F80818093BB0090911B
:1059F0004E0280914D0229C08091A2038093BB008A
:105A000085EC8093BC0066CF9091C4038091C30362
:105A1000981758F5E091C40381E08E0F8093C4037A
:105A2000F0E0ED55FC4F8081E9CFE091C40381E0C7
:105A30008E0F8093C4038091BB00F0E0ED55FC4FC6
:105A400080839091C4038091C3039817C8F285E8BE
:105A5000D8CFE091C40381E08E0F8093C40380917E
:105A6000BB00F0E0ED55FC4F80838091C6038111AF
:105A70005ECF81E08093A10384EA8093BC00109202
:105A8000C90328CF85EC8093BC001092C903809194
:105A90006F02803230F4E0916F02F0E0E15BFD4F85
:105AA000108260916F0270E08FE492E0F0E0E0E03D
:105AB000099510926F020ECF1092C50338CF1F9236
:105AC0000F920FB60F9211242F933F934F935F9332
:105AD0006F937F938F939F93AF93BF93EF93FF93B6
