:100000000C941D030C948A2D0C94632D0C944503C1
:100010000C9445030C9445030C9445030C94450340
:100020000C9445030C9445030C9445030C94450330
:100030000C9445030C9445030C9445030C94450320
:100040000C94B12D0C9445030C9445030C9445037A
:100050000C9445030C9445030C9445030C94450300
:100060000C94482C0C944503506F72742023314635
:10007000004D6F757365005363616E636F64650057
:10008000446562756720696E666F00557074696DAE
:100090006500544441313534330044414320747980
:1000A000706500504342207265766973696F6E0017
:1000B000415652206275696C640046504741206287
:1000C00075696C640053797374656D20696E666F31
:1000D000007777772E6B6172616261732E756B00AA
:1000E000206B6173706572002064756D706B696E52
:1000F00000207864656D6F78002074616E6B2D75DB
:100100006B00206B616C616E74616A005370656393
:1001100069616C207468616E6B7320746F000020DD
:100120006E69686972617368202000002064725FE4
:100130006D617820202020000020736F6C6567734C
:1001400074617220000020616E64796B6172706F5F
:1001500076004B6172616261732050726F2064653A
:1001600076656C6F70657273206172650041626FB5
:10017000757400746F206E617669676174652062C2
:1001800079206D656E75206974656D7300746F20DC
:100190006368616E67652076616C7565732C2000FD
:1001A000506C6561736520757365206172726F773D
:1001B000732000444F570059656172004D6F6E7493
:1001C0006800446179005365636F6E6473004D6924
:1001D0006E7574657300486F7572730052544320D6
:1001E00053657475700000000000240027002A0089
:1001F00000000000250028002B0000000000230064
:100200002600290004040404040404040202020277
:1002100002020303030303030102040810204080C9
:100220000102040810200102040810200000000848
:1002300000020100000304070000000000000000AD
:1002400020746F2072657475726E004553430019F7
:1002500012181415BB161117131A40402020080459
:10026000020277017E025803120659071408110A88
:100270008410761B661C0D1D5A1E291F70206921D3
:1002800072227A236B24732574266C2775287D29A6
:10029000712A792C7B2D7C2E0F3F453016311E3272
:1002A000263325342E3536363D373E384639523AD8
:1002B000413B4E3C493D4A3E0E401C4132422143A7
:1002C000234424452B463447334843493B4A424B59
:1002D0004B4C3A4D314E444F4D5015512D521B53FE
:1002E0002C543C552A561D57225835591A5A4C5BE6
:1002F0005D5C545D5B5E555F618B05610662046306
:100300000C6403650B6683670A680169096A786B88
:10031000076C086D106E186F20702871307238737A
:1003200040744875507657775F786D60519113929D
:100330006A9364946795F296F197639862995FA0C7
:1003400012BB7C041409110B1F0C270D2F0E7E0FFE
:100350006C1169127D137A146B1574167517721867
:100360007019711A5A2B4A2F4D79157A3B7B347CC0
:10037000237D327E217F508048812B8240831084F0
:100380003A853886308728882089188A378C3F8DAF
:100390005E9020746F20746F67676C65204F5344C4
:1003A000004D656E752B4553430020746F207265B8
:1003B000626F6F74004374726C2B416C742B4465D4
:1003C0006C0050726573732000626F757400410099
:1003D0006E666F20004900657475702052544300AA
:1003E0005300506175736500507274537263004B13
:1003F0006579626F617264004D656E752B4E004EBB
:10040000656D6F20494445004D656E752B44004471
:1004100069764D4D43004D656E752B5600536372E2
:1004200065656E004D656E752B4D004A6F79204DE8
:100430006F6465004D656E752B4A004A6F792054D4
:10044000797065004D656E752B546162005377615C
:100450007020464444004D656E752B463131005482
:100460007572626F004D656E752B463130005653C4
:10047000796E63004D656E752B463900566964656B
:100480006F004D656E752B463800505347207479C8
:100490007065004D656E752B463700505347206DD3
:1004A0006978004D656E752B463600434F564F58A0
:1004B000004D656E752B463500547572626F20468F
:1004C0004443004D656E752B46312D463400524F26
:1004D0004D2042616E6B004156522000465047410C
:1004E00020005265762E00CE004500445300412D79
:1004F00044004644496D61676500466C61736865F8
:10050000720050512D444F530044656661756C7400
:10051000004D6F6E6F004143420041424300594D10
:100520003231343946004159332D38393132005691
:1005300047412033306B487A005247422031356BB7
:10054000487A00353020487A00363020487A003822
:100550007800347800327800534547410041746197
:10056000726900512D412D4F2D502D4D0043757254
:10057000736F720053696E636C6169723200536904
:100580006E636C61697231004B656D7073746F6E70
:1005900000436C61737369630050656E7461676FCB
:1005A0006E00537065637472756D0050726F66698A
:1005B000205854004F6666004F6E002D2D2E2D2DB5
:1005C0002E2D2D2D2D002E002D2D3A2D2D3A2D2D99
:1005D00000446563004E6F76004F6374005365708E
:1005E00000417567004A756C004A756E004D61796F
:1005F00000417072004D617200466562004A616E92
:10060000003F3F3F0053756E0053617400467269AE
:10061000005468750057656400547565004D6F6E31
:100620000020003A00300020616E642000206461E8
:100630007900206461797300FB2D11241FBECFEF78
:10064000D8E0DEBFCDBF25E0A0E3B1E001C01D9240
:10065000A735B207E1F711E0A0E0B1E0E8EDFEE771
:1006600002C005900D92A033B107D9F713E0CDE198
:10067000D3E004C02197FE010E94643FCC31D10732
:10068000C9F70E94B72E0C946A3F0C94000088238F
:1006900039F08FE08093F40482E08093F5040895AC
:1006A00083E08093F4041092F504089591E0909310
:1006B000D7038093F9031092D8031092FA03089598
:1006C0009091AB038091AA032FEF3FEF981748F466
:1006D000E92FF0E0E657FC4F208130E09F5F9093D8
:1006E000AB03C90108959091AB038091AA032FEF4A
:1006F0003FEF981748F4E92FF0E0E657FC4F2081D0
:1007000030E09F5F9093AB03C9010895462FE091BD
:100710000704F0910804682F8AEF09948F929F9242
:10072000AF92BF92EF92FF920F931F93CF9387E206
:10073000E82E84E0F82EC0E0812C912C54018394A3
:10074000F70190E080E040E0519195018401082E8E
:1007500004C0000F111F221F331F0A94D2F7552324
:10076000E1F0402B01968830910571F7CF5FE09161
:100770002204F09123046C2F81E0099588E0E80EB3
:10078000F11CCA30E9F6CF911F910F91FF90EF90C5
:10079000BF90AF909F908F90089500954023E2CF37
:1007A0002091120480911B04882349F0822F6AE073
:1007B0000E94583F982F990F890F880F280F622F9A
:1007C00080E00E94860380911B0420911104622F17
:1007D000882349F0822F6AE00E94583F682F660FF5
:1007E000680F660F620F82E00E94860390911C04DE
:1007F00080911B0420911004992309F462C088237E
:1008000049F0822F6AE00E94583F982F990F890F74
:10081000880F280F622F84E00E94860380911B04BA
:1008200020911604622F882349F0822F6AE00E94EB
:10083000583F682F660F680F660F620F86E00E94B0
:10084000860380911B0420910F04622F882349F0B6
:10085000822F6AE00E94583F682F660F680F660F6C
:10086000620F87E00E94860380911B0420910E0492
:10087000622F882349F0822F6AE00E94583F682F38
:10088000660F680F660F620F88E00E948603209152
:100890001B0480910C0490910D0464E670E00E94AA
:1008A000083F682F222351F0282F862F6AE00E94EC
:1008B000583F682F660F680F660F620F89E00C942F
:1008C0008603882329F02D3008F49BCF2CE899CF9C
:1008D0002D3008F49FCF2CE89DCF8230C8F4E82F4C
:1008E000F0E0EE0FFF1FEF5FFE4F718360838130FA
:1008F00041F0809169008C7F826080936900E89A62
:10090000089580916900837F886080936900E99AE7
:100910000895E1E2F4E0AFE8B4E08C9191E089273A
:100920008C9383AB0380F481E02D70E060E08DE078
:100930000994CF92DF92EF92FF920F931F93CF9380
:10094000DF93CDB7DEB764970FB6F894DEBF0FBE66
:10095000CDBF2091B1043091B204611133C01216A1
:100960001306A4F4EDE9F4E050E040E0A191B19168
:100970008A179B0709F461E04F5F5F4F42175307E7
:10098000A9F7611110C02A30310569F0F901EE0FA5
:10099000FF1FE356FB4F918380832F5F3F4F3093C0
:1009A000B2042093B10464960FB6F894DEBF0FBE74
:1009B000CDBFDF91CF911F910F91FF90EF90DF900E
:1009C000CF900895FE01319644E1DF011D924A95D2
:1009D000E9F71216130684F50DE914E0780150E0EA
:1009E00040E070E060E0D701CD90DD907D018C1596
:1009F0009D0549F0DA01AA0FBB1FAE0FBF1FCD92B4
:100A0000DC924F5F5F4F6F5F7F4F6217730759F73D
:100A10004115510589F090E080E021913191D80194
:100A20002D933D938D01019684179507B1F750934F
:100A3000B2044093B104B7CF50E040E0F8CF85ED69
:100A40008093BC001092D6031092D5038091BC0015
:100A500084FF0BC02091D5033091D603809105010E
:100A6000909106012817390718F01092D4030895C1
:100A70008091D5039091D60301969093D6038093ED
:100A8000D503E4CF20915802260F3327331F21329C
:100A90003105ECF42091D403FC0190E080E0243097
:100AA00069F082E00895A09158022191AC01485C60
:100AB0005D4FA40FB52FB11D2C930196861798F3A7
:100AC00080915802680F6093580280E0089581E099
:100AD00008950895E091AB038091AA03E81730F4DC
:100AE000F0E0E657FC4F808190E008958FEF9FEF94
:100AF00008958091AA039091AB03891B990B0895E7
:100B0000CF92DF92EF92FF920F931F93CF93DF93D9
:100B10007C01CB018A012091D703222389F0EB01CC
:100B20006B01C40ED51ECC15DD0569F06991D701A6
:100B3000ED91FC910190F081E02DC7010995F3CF73
:100B4000642F0E944205C801DF91CF911F910F9140
:100B5000FF90EF90DF90CF900895CF93DF931F9297
:100B6000CDB7DEB769832091D7032223F9F0209116
:100B7000FA03203258F021E030E0FC013383228375
:100B800090E080E00F90DF91CF9108958091D8039D
:100B9000E82FF0E0E752FC4F998190838F5F8093BC
:100BA000D8038093FA0381E090E0ECCF61E0CE01BE
:100BB00001960E944205F7CF682F8BEF93E00C94CB
:100BC000AD0508950F931F93CF93DF93EC01062F8C
:100BD0001C811295107FE885F9854E8160E180E2E5
:100BE0000995E885F9854F8161E180E20995E885FD
:100BF000F985402F62E180E209954D81410FE8853A
:100C0000F98563E180E209959F818E818F5F803253
:100C100060F48E839A3110F01F821E8281E090E092
:100C2000DF91CF911F910F9108951E8281E0890F6E
:100C30008F83F0CF0F931F93CF93DF938C01D0E07E
:100C4000C0E0F801EC0FFD1F6491662341F080EFD6
:100C500094E00E94E205892B11F02196F2CFCE019B
:100C6000DF91CF911F910F910895CF93C8E081E25A
:100C700096E00E941A06C150D1F7CF910895809155
:100C80000A05813009F03DC090910E05963009F0BB
:100C900080E00E9447038AE08093F6048FE080930F
:100CA000F704E0911604E15081E096E0E73070F43B
:100CB000F0E0E35AF94F0C94643F7E0664066F0639
:100CC0007206750678067B068DE196E00E941A068C
:100CD0008FE08093F4041092F5040C94350689E1BA
:100CE00096E0F4CF85E196E0F1CF81E196E0EECF9A
:100CF0008DE096E0EBCF89E096E0E8CF85E096E0E6
:100D0000E5CF089580910A05813009F051C0909196
:100D10000E05943009F080E00E9447038AE080933A
:100D2000F6048CE08093F704E0910E04E15081E03A
:100D300096E0EC3098F4F0E0E056F94F0C94643F04
:100D4000AC06B706BA06BD06C006C306C606C90687
:100D5000CC06CF06D206D5068DEF95E00E941A0686
:100D60008FE08093F4041092F5040C94350689EF1B
:100D700095E0F4CF85EF95E0F1CF81EF95E0EECFF0
:100D80008DEE95E0EBCF89EE95E0E8CF85EE95E02E
:100D9000E5CF81EE95E0E2CF8DED95E0DFCF89EDF7
:100DA00095E0DCCF85ED95E0D9CF81ED95E0D6CF0C
:100DB0000895EEEEF4E02FE0268317820C941A06D5
:100DC000EEEEF4E027E0268317820C941A06809159
:100DD0009104811112C080910A05811122C081E025
:100DE00090910C059F3009F080E00E9447038AE053
:100DF0008093F60484E18093F7048091540488235F
:100E000069F088EB95E00E941A068FE08093F40465
:100E10001092F50481E296E00C941A0684EB95E0BA
:100E2000F2CF0895EEEEF4E02FE0268317820E94C1
:100E30001A0681E296E00C941A06809191048111C1
:100E400012C080910A05811119C081E090910C05B2
:100E50009E3009F080E00E9447038AE08093F60408
:100E600083E18093F70480917704882321F08BEA53
:100E700095E00C941A0682EA95E0FBCF08958091E4
:100E80009104811112C080910A05811122C081E074
:100E900090910C059D3009F080E00E9447038AE0A4
:100EA0008093F60482E18093F70480918E04882376
:100EB00069F088EB95E00E941A068FE08093F404B5
:100EC0001092F50481E296E00C941A0684EB95E00A
:100ED000F2CF089580919104811112C080910A058A
:100EE000811122C081E090910C059C3009F080E0D6
:100EF0000E9447038AE08093F60481E18093F7041F
:100F000080918D04882369F088EB95E00E941A0691
:100F10008FE08093F4041092F50481E296E00C9443
:100F20001A0684EB95E0F2CF089580919104811127
:100F300012C080910A05811125C081E090910C05B5
:100F40009B3009F080E00E9447038AE08093F6041A
:100F500080E18093F70480917A04882319F081302E
:100F600029F0089589E995E00C941A0681E995E045
:100F70000E941A068FE08093F4041092F50481E237
:100F800096E0F2CF089580919104811112C0809172
:100F90000A05811133C081E090910C059A3009F067
:100FA00080E00E9447038AE08093F6048FE08093FC
:100FB000F70480918C04823011F128F4882341F0E9
:100FC000813099F008958330E9F0843069F1089513
:100FD00088E895E00E941A068FE08093F40410924E
:100FE000F50481E296E00C941A068EE795E00E94E3
:100FF0001A068FE08093F4041092F504089584E7B4
:1010000095E0F5CF8DE695E00E941A068FE080937B
:10101000F4041092F50481E296E00E941A0681E23F
:1010200096E00E941A06DDCF83E695E0E0CF80913E
:101030009104811112C080910A05811122C081E0C2
:1010400090910C05993009F080E00E9447038AE0F6
:101050008093F6048EE08093F70480918B048823BC
:1010600069F088E595E00E941A068FE08093F40409
:101070001092F50481E296E00C941A068DE595E055
:10108000FBCF089580919104811112C080910A05CF
:10109000811122C081E090910C05983009F080E028
:1010A0000E9447038AE08093F6048DE08093F70462
:1010B00080918A04882369F088EB95E00E941A06E3
:1010C0008FE08093F4041092F50481E296E00C9492
:1010D0001A0684EB95E0F2CF089580919104811176
:1010E00012C080910A05811119C081E090910C0510
:1010F000963009F080E00E9447038AE08093F6046E
:101100008BE08093F70480918204882321F089E4A6
:1011100095E00C941A0683E495E0FBCF0895809146
:101120009104811111C080910A05811118C081E0DC
:1011300090910C05953009F080E00E9447038AE009
:101140008093F6048093F70480918104882321F032
:1011500089E395E00C941A068FE295E0FBCF0895A1
:1011600080919104811112C080910A05811122C0E1
:1011700081E090910C05943009F080E00E944703D3
:101180008AE08093F60489E08093F70480918804D4
:10119000882321F086E295E00C941A068EE195E012
:1011A0000E941A068FE08093F4041092F50481E205
:1011B00096E0F2CF089580919104811112C0809140
:1011C0000A0581112BC081E090910C05933009F044
:1011D00080E00E9447038AE08093F60488E08093D1
:1011E000F7048091870490918904911114C0882399
:1011F00079F0813081F48AE195E00E941A068FE04F
:101200008093F4041092F50481E296E00C941A069F
:1012100086E195E0F2CF81E195E0F8CF08958091E5
:101220009104811112C080910A05811122C081E0D0
:1012300090910C05923009F080E00E9447038AE00B
:101240008093F60487E08093F704809186048823D6
:1012500069F088EB95E00E941A068FE08093F40411
:101260001092F50481E296E00C941A0684EB95E066
:10127000F2CF089580919104811112C080910A05E6
:10128000811122C081E090910C05913009F080E03D
:101290000E9447038AE08093F60486E08093F70477
:1012A00080918504882369F088EB95E00E941A06F6
:1012B0008FE08093F4041092F50481E296E00C94A0
:1012C0001A0684EB95E0F2CF089580919104811184
:1012D00011C080910A0581112FC081E090910C0509
:1012E000911180E00E9447038AE08093F60485E034
:1012F0008093F7048091830490918404911182601B
:101300008230A1F08330A9F0813069F089E095E066
:101310000E941A068FE08093F4041092F50481E293
:1013200096E00C941A0682E095E0F2CF8AEF94E002
:10133000EFCF82EF94E0ECCF08958091FB0490E032
:1013400095958795959587958F70813051F028F008
:10135000893051F08D3059F008958EEE94E00C9460
:101360001A068BEE94E0FBCF89EE94E0F8CF87EE7F
:1013700094E0F5CFFF920F931F93CF93DF93182F35
:10138000CEEED4E0188689878FE08E831F8260EBD3
:1013900080EF94E00E94E20561EB80EF94E00E9410
:1013A000E20562EB80EF94E00E94E20563EB80EFE0
:1013B00094E00E94E20564EB80EF94E00E94E20575
:1013C00065EB80EF94E00E94E20562EB80EF94E031
:1013D0000E94E20563EB80EF94E00E94E20566EB79
:1013E00080EF94E00E94E20567EB80EF94E00E94BA
:1013F000E20562EB80EF94E00E94E20563EB80EF90
:1014000094E00E94E20568EB80EF94E00E94E20520
:1014100069EB80EF94E00E94E205188681E0810F7D
:10142000898760EC80EF94E00E94E20561EC80EF38
:1014300094E00E94E20562EC80EF94E00E94E205F5
:1014400063EC80EF94E00E94E20564EC80EF94E0AE
:101450000E94E20565EC80EF94E00E94E20562ECF8
:1014600080EF94E00E94E20563EC80EF94E00E943C
:10147000E20566EC80EF94E00E94E20567EC80EF05
:1014800094E00E94E20562EC80EF94E00E94E205A5
:1014900063EC80EF94E00E94E20568EC80EF94E05A
:1014A0000E94E20569EC80EF94E00E94E20502E010
:1014B000010F88E0F82EF88609876AEB80EF94E048
:1014C0000E94E2056BEB80EF94E00E94E20564EB82
:1014D00080EF94E00E94E20565EB80EF94E00E94CB
:1014E000E2056CEB80EF94E00E94E2056DEB80EF8B
:1014F00094E00E94E2051D5FF88619876AEC80EF90
:1015000094E00E94E2056BEC80EF94E00E94E2051B
:1015100064EC80EF94E00E94E20565EC80EF94E0DB
:101520000E94E2056CEC80EF94E00E94E2056DEC15
:1015300080EF94E00E94E20581E08887098789E0D6
:101540008E831F8266E180EF94E00E94E2058DE0C9
:101550008E831F8266E180EF94E00E94E20585E0C1
:101560008E831F8266E180EF94E00E94E20583E0B3
:101570008E831F8266E180EF94E00E94E2058EE098
:101580008E831F821886198782EE94E00E941A06C5
:10159000DF91CF911F910F91FF900C949D09CF93F4
:1015A000DF931092F6041092F704CAE1D0E260E0F3
:1015B00080EF94E00E94E205D150C9F7C150B1F725
:1015C000DF91CF910895CF938FE08093F404109230
:1015D000F5041092F60486E18093F704C0E26FE50B
:1015E00080EF94E00E94E205C150C9F71092F60422
:1015F00087E18093F70482EC93E00E94D9068BE4A4
:1016000092E00E94E00680E492E0CF910C94D9062B
:101610001092A4011092A3011092A2011092A101B4
:1016200010920703109206031092A00110928502F7
:101630001092800210929F0108959091A4019F5FE3
:10164000903408F090E02091A301291751F0E92F80
:10165000F0E0E15AFE4F80839093A40181E090E096
:1016600008958CEF9FEF0895833081F028F4813046
:1016700099F08230A9F008958730A9F08830C9F038
:101680008430B1F4809180008F7D03C08091800010
:101690008F7780938000089584B58F7784BD0895F7
:1016A00084B58F7DFBCF8091B0008F778093B000A1
:1016B00008958091B0008F7DF9CFCF93DF93282FCD
:1016C00030E0F901E45DFD4F8491F901E85EFD4FE2
:1016D000D491F901EC5FFD4FC491CC23A1F08111AD
:1016E0000E94340BEC2FF0E0EE0FFF1FE650FE4F90
:1016F000A591B491EC91ED2381E090E009F480E0B4
:10170000DF91CF91089580E090E0FACF1F93CF93BF
:10171000DF93282F30E0F901E45DFD4F8491F9015A
:10172000E85EFD4FD491F901EC5FFD4FC491CC23ED
:10173000A9F0162F81110E94340BEC2FF0E0EE0F70
:10174000FF1FE051FE4FA591B4918FB7F894EC9133
:10175000111108C0D095DE23DC938FBFDF91CF91AC
:101760001F910895DE2BF8CF90918B0461E09111C9
:1017700001C0682F8FE00C94860BCF93DF93CCEBE6
:10178000D0E018821092D40381E08093D1031092AC
:10179000AC0361E082E10E94860B61E083E10E947C
:1017A000860BE9EBF0E080818E7F808380818D7FE6
:1017B000808388E48093B80085E48883DF91CF91AB
:1017C00008952091FA0381E0213270F58091F903A8
:1017D0001092D6031092D5039091D403992359F017
:1017E0006091D5037091D603409105015091060197
:1017F0006417750700F16091D5037091D60340918D
:101800000501509106016417750700F10E941F053C
:101810000E94BD0B8091D2039091D30301969093C7
:10182000D3038093D20385E01092D8031092FA0379
:101830001092D70308954091D5035091D6034F5F7E
:101840005F4F5093D6034093D503C6CF92E0909359
:10185000D40391E09093D1039FEF9093D003109223
:10186000CF032093CE03A9EDB3E0EEEAF3E090E0DE
:1018700029136BC01092AD039091AD03880F892B93
:101880008093AD038091AC03813009F062C0109267
:10189000AC031092D6031092D5038091AD038093D0
:1018A000BB008091D5039091D60301969093D60307
:1018B0008093D5038091BC0083FF0BC02091D5039A
:1018C0003091D603809105019091060128173907C0
:1018D00020F32091D5033091D6038091050190919A
:1018E00006012817390708F091CF85EC8093BC00DA
:1018F0001092D6031092D5038091D403823059F40C
:101900002091D5033091D603809105019091060175
:101910002817390700F12091D5033091D603809123
:101920000501909106012817390708F06FCF8091C3
:10193000D0038F3FD1F08091D0038032C1F08091ED
:10194000D0038033B1F084E06FCF3D9131939F5F3E
:101950008FCF85EECBCF8091D5039091D6030196A2
:101960009093D6038093D503C7CF80E05DCF82E00C
:101970005BCF83E059CFCF93DF93EC0188E60E94E1
:10198000560386E090E00E94DC05CE0164E670E03C
:101990000E94F43E282F6AE00E94583F682F660F8D
:1019A000680F660F620F8BEF93E00E94AD05DF9129
:1019B000CF910C94E10BCF93C82F88E60E94560379
:1019C00085E090E00E94DC058C2F6AE00E94583F81
:1019D000682F660F680F660F6C0F8BEF93E00E9405
:1019E000AD05CF910C94E10BCF93C82F88E60E94F0
:1019F000560384E090E00E94DC058C2F6AE00E9490
:101A0000583F682F660F680F660F6C0F8BEF93E0DF
:101A10000E94AD05CF910C94E10BCF93C82F88E6BF
:101A20000E94560383E090E00E94DC056C2F8BEF50
:101A300093E00E94AD05CF910C94E10BCF93C82F9A
:101A400088E60E94560381E090E00E94DC058C2F1E
:101A50006AE00E94583F682F660F680F660F6C0F90
:101A60008BEF93E00E94AD05CF910C94E10BCF93E7
:101A7000DF9390E0FC01E85EFD4F24918C5F9D4F69
:101A8000FC0184918823C9F090E0880F991FFC0124
:101A9000EA51FE4FA591B491FC01E051FE4FC59172
:101AA000D49161110DC09FB7F8948C912095822339
:101AB0008C938881282328839FBFDF91CF9108953D
:101AC000623051F49FB7F8943C91822F8095832324
:101AD0008C93E8812E2BEFCF8FB7F894EC912E2BBF
:101AE0002C938FBFEACFCF93C82F61E00E94370DB0
:101AF00060E08C2FCF910C94860BCF93C82F60E0C1
:101B00000E94370D61E08C2FCF910C94860BCF9300
:101B1000DF9380935E0180935D011092A00110928B
:101B20005C0180919F01806C80939F018091A20154
:101B300087FD0DC08091A20180FF09C08091A101A5
:101B400080935B0180919F01806180939F018091D0
:101B50005A01823009F443C0833061F4E99881E08E
:101B600090E0880F991FFC01EF5FFE4F81EE95E03A
:101B700091838083D091590161E08D2F0E94860B63
:101B800061E08D2F0E94370DC0915A0161E08C2FCA
:101B90000E94860B61E08C2F0E94370D83E290E05B
:101BA0000197F1F760E08C2F0E94860B8BEE90E09E
:101BB0000197F1F760E08D2F0E94860B62E08C2F79
:101BC0000E94370D80E0C23021F08FEFC33009F45E
:101BD00081E067EE72E1DF91CF910C946D04E8989B
:101BE00090E080E0BECF9091A3018091A40189177D
:101BF00099F18091A20181608093A2018091A2015C
:101C000087FD2DC080919F0187FD29C01092A10101
:101C10002FEF3FEF9F5F903408F090E0E92FF0E066
:101C2000E15AFE4F2F3F320771F4208130E090934C
:101C3000A3018091A4018913EDCF822F0E94870D0B
:101C400081E090E0089580818B3BB9F78091A101FC
:101C50008F5F8093A101EBCF8EEF9FEF08958AE70E
:101C60009FEF08950F931F93CF93DF9310918903F4
:101C700080918803181B17FD105C01E01F3364F589
:101C800080910703A09106038A1B87FD805C88234F
:101C900019F180910703A817F9F0AF5FA03408F09D
:101CA000A0E0A0930603B0E0AA0FBB1FAA57BD4F48
:101CB000CD91DC9111978D919C9192FDB0C02C2F0C
:101CC000CA3A20F08C2F815F823010F494FF0AC052
:101CD000DD27209709F0A5C0812FDF91CF911F91BB
:101CE0000F9108958091850295FF18C080688093B8
:101CF0008502D0E0C0E093FF1EC0FE01E05CFC4F17
:101D0000E4912E130DC0CF5BDC4FFE01C491D0E0F7
:101D10002097D1F480918502D82BDBCF8F77E7CF46
:101D20002296C235D10549F7D0E0C0E0F3CF229624
:101D3000CE3DD105C9F3FE01EE59FD4FE4912E13BE
:101D4000F6CFCD59DD4FE1CF80918502FE01C33042
:101D5000D10508F041C0EF57FD4F87FF04C0108246
:101D6000CBEBD0E026C090819130D1F3008392E09C
:101D7000C230D10509F491E020918002322F39233D
:101D800039F1909592239093800280688093850228
:101D90008DEE0E941D0B8BEB0E941D0B809180022B
:101DA0000E941D0B8BEB0E941D0B892B11F00E94D2
:101DB000F30D809185029E012052310921343105B5
:101DC00060F1CB38D10549F1816080938502A2CFC3
:101DD000922B90938002DCCF3697E830F10560F4C7
:101DE000E65AFD4FE49187FF05C0E095E823E093B4
:101DF0008502DFCFE82BFBCFFE01B097EB30F1057A
:101E0000C0F69091800291FF02C086FFD2CFE15BC5
:101E1000FD4FE491CE2FD0E0CCCF8E7FD6CFC6E061
:101E2000D0E0CE0199278B3B910509F427CF892B70
:101E300009F424CF809189038F5F80340CF080E017
:101E4000E82FEE0FFF0BE85FFC4FD183C083809338
:101E500089031F5F13CF8E50806480937C00809134
:101E60007A00806480937A0080917A0086FDFCCFAE
:101E7000809178009091790008953FB7F89480910F
:101E8000500190915101A0915201B091530126B59A
:101E9000A89B05C02F3F19F00196A11DB11D3FBFA2
:101EA000BA2FA92F982F8827BC01CD01620F711D71
:101EB000811D911D42E0660F771F881F991F4A956B
:101EC000D1F708958F929F92AF92BF92CF92DF92F7
:101ED000EF92FF924B015C010E943D0F6B017C0170
:101EE0000E943D0F6C197D098E099F09683E734061
:101EF00081059105A8F321E0821A9108A108B10893
:101F000088EEC80E83E0D81EE11CF11C81149104F8
:101F1000A104B10429F7FF90EF90DF90CF90BF901C
:101F2000AF909F908F900895CF93DF93C7E2D4E056
:101F3000FE01119284E0E035F807D9F781E0809343
:101F400050040E948E0364E670E080E090E00E94FE
:101F5000620F199284E0C035D807D9F71092500467
:101F6000DF91CF910C948E03CF93DF93C7E2D4E03F
:101F7000FE01119284E0E035F807D9F781E0809303
:101F800052040E948E0364E670E080E090E00E94BC
:101F9000620F199284E0C035D807D9F71092520425
:101FA000DF91CF910C948E032FB7F89460914C0180
:101FB00070914D0180914E0190914F012FBF089576
:101FC000CF92DF92EF92FF92CF93DF93EC010E94CA
:101FD000D40F6B017C010E94D40F6C197D098E090E
:101FE0009F09643671058105910578F48091390562
:101FF0000E945D0B8C179D0771F781E0DF91CF91F7
:10200000FF90EF90DF90CF90089580E0F7CFCF93CF
:10201000DF9390E080E00E94E00F80913B050E94FA
:102020005D0BEC0181E090E00E94E00FCE01DF91BA
:10203000CF910895CF92DF92EF92FF920F931F936B
:10204000CF938091390590913A050E947D0D809142
:102050003B0590913C050E947D0D83EC90E001973B
:10206000F1F790E080E00E94E00F8FE090E00197B0
:10207000F1F781E090E00E94E00FC0E010E000E0A6
:10208000C12CD12C7601C3940E940710B701A60180
:10209000002E04C0440F551F661F771F0A94D2F705
:1020A000892BC9F0C42B0F5F1F4F0830110561F752
:1020B0000E9407100E9407108091390590913A05FF
:1020C0000E94730D8C2FCF911F910F91FF90EF9075
:1020D000DF90CF9008954095C423E5CF20913B0534
:1020E00030913C05019759F4C9010E947D0D81E0B2
:1020F00090E00E94E00F90E080E00C94E00FC901B6
:102100000E94730DF4CFBF92CF92DF92EF92FF92B5
:102110000F931F93CF93DF93C82E80913B0590912F
:102120003C050E947D0D8091390590913A050E94F1
:102130007D0DCBEAD4E0CE010197F1F7809139050E
:1021400090913A050E94730D2197F1F780913B051C
:1021500090913C050E94730D83E290E00197F1F7A6
:102160008091390590913A050E947D0D90E080E0C4
:102170000E94E00FB82E882309F43FC0EE24E394B8
:10218000F12CD0E0C0E00C2C000CDD0886010C2EF8
:1021900002C0159507950A94E2F701701127C8014E
:1021A0000E946E10E026F1262196C830D10571F705
:1021B000C7010E946E1080913B0590913C050E94E2
:1021C0007D0D83EC90E00197F1F790E080E00E94B4
:1021D000E00F809139050E945D0B892BD1F380912E
:1021E0003B050E945D0B892BA1F3809139059091ED
:1021F0003A050E94730D0E941A108B2DDF91CF912A
:102200001F910F91FF90EF90DF90CF90BF900895B6
:10221000CF938091390590913A050E947D0D809170
:102220003B0590913C050E947D0D8FEF90E00E9450
:102230008310C82F882309F43EC00E941A100E9400
:102240001A1088EE90E00E94831083E090E00E94D4
:10225000831086EE90E00E94831083EF90E00E944E
:10226000831088E290E00E9483108AEE90E00E9442
:10227000831084EF90E00E9483108BE891E0019737
:10228000F1F78091390590913A0582309105B1F0CE
:102290000397B1F08FEF62E671E10E946D048091C7
:1022A000390590913A050E947D0D80913B059091F2
:1022B0003C050E947D0D8C2FCF91089580E0EBCFDF
:1022C00081E0E9CFCF92DF92EF92FF920F931F93BD
:1022D000CF93809137020E945D0B8C01C1E0892B66
:1022E00009F4C0E00E94D40FC0903302D0903402B1
:1022F000E0903502F09036029B01AC012C193D09AB
:102300004E095F0969017A013BE0C316D104E1047B
:10231000F10430F010923202109231021092300229
:1023200060933302709334028093350290933602A7
:10233000809132028F5F809332028A3048F482307B
:1023400010F58130A1F010923202109231020CC0CF
:102350008A3059F18B30B9F780912F028D3F78F197
:1023600010923102109232021092300204C0109288
:10237000300210922F02CF911F910F91FF90EF909A
:10238000DF90CF90089580912F02C80FC0932F0245
:102390008091300290E09595879520E0012B09F01F
:1023A00020E8822B80933002E6CF80912F0281704B
:1023B0008C1719F080932F02DECF8DEFFBCF809129
:1023C00031028130A1F130F1823061F6809130022A
:1023D00090E090932C0280932B0210923102809116
:1023E00026028F5F803108F080E0909125029817D7
:1023F00009F4B8CF48E0849FD0011124AB55BE4FFB
:1024000098E0E7E2F2E001900D929A95E1F780936F
:102410002602A8CF8091300290E09093280280930A
:102420002702809131028F5F809331029BCF809190
:10243000300290E090932A0280932902F2CFCF924B
:10244000DF92EF92FF92CF93DF939091EB04911183
:10245000B7C0D62FC82F0E94D40FE091EB0427E01D
:102460002E9FA00111244F5D5B4FDA01AC56BF4F88
:102470006D937D938D939C93139714961C9215974F
:102480001C924E565F4FDA01CC9341E04E0F249FD1
:10249000A00111244F5D5B4FDA01AC56BF4F6B01B9
:1024A0007C01FAEFCF0ED11CE11CF11CCD92DD9224
:1024B000ED92FC92139714961C9215973FE03C9373
:1024C0004E565F4FDA01CC9342E04E0F249FA0019D
:1024D00011244F5D5B4FDA01AC56BF4F6B017C019D
:1024E000F4EFCF0EF1E0DF1EE11CF11CCD92DD9286
:1024F000ED92FC9213971496F1E0FC9315973C93A0
:102500004E565F4FDA01CC9343E04E0F249FA0015B
:1025100011244F5D5B4FDA01AC56BF4F6B017C015C
:102520003EEEC30E32E0D31EE11CF11CCD92DD92D3
:10253000ED92FC92139714961C921597DC934E56CD
:102540005F4FDA01CC9344E04E0F249FA001112489
:102550004F5D5B4FDA01AC56BF4F6B017C0138EE2B
:10256000C30E33E0D31EE11CF11CCD92DD92ED923F
:10257000FC9213971496FC931597DC934E565F4F7D
:10258000DA01CC9335E03E0F239F900111242F5D9B
:102590003B4FD901AC56BF4F6E517B4F8F4F9F4F72
:1025A0006D937D938D939C9313971496FC9315973D
:1025B0001C922E563F4FD901CC93EA5FE093EB0477
:1025C000DF91CF91FF90EF90DF90CF900895CF9261
:1025D000DF92EF92FF920F931F93CF9380919F0111
:1025E00086FF72C08091A0018F5F8093A0018091CF
:1025F000A0018A3048F4823098F560E0813009F417
:1026000048C01092A0019DC08B3009F44DC0E8F184
:102610008C30B9F780915D018E3E69F080915D014B
:102620008E3F49F080915D018093540180919F011C
:10263000826080939F0180919F018F7B80939F0197
:102640008091A20187FF3CC08091A2018F77809387
:10265000A20180919F0184FDD4CF0E94F30DD1CFC0
:10266000C0915E01C1706C2F809159010E94860B50
:1026700080915C01C80FC0935C0180915E0190E085
:102680009595879580935E015CC060915C01609533
:10269000617080915901CF911F910F91FF90EF9040
:1026A000DF90CF900C94860B62E080915901CF911E
:1026B0001F910F91FF90EF90DF90CF900C94370D0A
:1026C0008091A2018E7FC3CF809159010E945D0B42
:1026D000C82F0E94D40F00915501109156012091EE
:1026E0005701309158016B017C01C01AD10AE20AEE
:1026F000F30A970186010B3F11052105310520F0F2
:102700001092A00110925E016093550170935601E2
:1027100080935701909358018091A0018F5F80931F
:10272000A0018091A0018A30A0F4823020F5813090
:1027300009F067CF10925C0180919F0180688093BF
:102740009F01CF911F910F91FF90EF90DF90CF905D
:1027500008958A3019F18B3009F053CF80915C01D4
:102760008D3F48F18EEF0E94870D8091A201806815
:102770008093A20146CF80915C018C0F80935C0115
:1027800080915E0190E09595879580935E0190E041
:10279000C11190E880915E01892B74CF80915C011A
:1027A000817080935C0180915C01C813CACF8DEF6A
:1027B00080935C01C6CF80915E018E3F29F090919D
:1027C0009F019D7F90939F0190919F0194FF02C074
:1027D000803F70F090919F0192FD91C08E3E09F470
:1027E00077C0E8F48A3A09F47FC020F4882359F1CD
:1027F00086E02CC0803E09F47BC0813EC9F7809101
:102800009F0182FD1AC087E080935B0180919F0148
:10281000846080939F0180919F018F7D0CC08C3FCD
:1028200009F44EC060F4803F19F781E080935B01AA
:1028300080919F01806280939F0180E007C08E3F5E
:10284000A9F18F3FA9F60E94080B8CE081FF05C01B
:1028500090915B01915090935B0190915B011916EF
:1028600014F482FF1EC0909107039F5F903408F01C
:1028700090E0209106032917A1F020915E01E92F35
:10288000F0E030E0EE0FFF1FEA57FD4F3183208369
:1028900040919F0120813181342B3183208390939B
:1028A0000703807171F180915D015DCF80919F017F
:1028B00081FFC3CF8091540180935D0180E1C6CF39
:1028C00010925B0110929F011092A2018EE0BECF88
:1028D00090919F0191FF0AC0909154019E3E31F06A
:1028E00080935D0184E1B2CF10925B0184E0AECFB2
:1028F00081E080935B0180919F0188609CCF82E0A2
:10290000A5CF80915B0118160CF47BCE80919F01BE
:10291000837C80939F0110925B0180919F018F7750
:1029200080939F019ACEAF92BF92CF92DF92EF92A7
:10293000FF920F931F93CF93DF936C017B018B0169
:10294000040F151FEB015E01AE18BF08C017D107B9
:1029500059F06991D601ED91FC910190F081E02D43
:10296000C6010995892B79F7C501DF91CF911F9198
:102970000F91FF90EF90DF90CF90BF90AF900895B0
:10298000089590E080E008958F929F92AF92BF9259
:102990000F931F93CF93DF93CDB7DEB7A1970FB6F9
:1029A000F894DEBF0FBECDBF19A2423008F44AE052
:1029B0008E010F5D1F4F842E912CB12CA12CA501EF
:1029C00094010E941C3FE62FB901CA01EA3044F588
:1029D000E05DD801EE938D01232B242B252B79F775
:1029E00090E080E0109769F0FD0101900020E9F788
:1029F0003197AF014A1B5B0BBD0180EF94E00E9451
:102A00009314A1960FB6F894DEBF0FBECDBFDF9131
:102A1000CF911F910F91BF90AF909F908F9008958D
:102A2000E95CD7CF462F682F70E090E080E00C94EF
:102A3000C41480910A058130D9F490910E05933029
:102A400009F080E00E9447038AE08093F6048BE05F
:102A50008093F70480910F048A3020F485E296E099
:102A60000E941A066AE070E080910F040C9412151F
:102A7000089580910A058130D9F490910E05923025
:102A800009F080E00E9447038AE08093F60489E021
:102A90008093F704809112048A3020F485E296E056
:102AA0000E941A066AE070E0809112040C941215DC
:102AB000089580910A058130D9F490910E059130E6
:102AC00009F080E00E9447038AE08093F60488E0E2
:102AD0008093F704809111048A3020F485E296E017
:102AE0000E941A066AE070E0809111040C9412159D
:102AF000089580910A058130D1F490910E059111CD
:102B000080E00E9447038AE08093F60487E0809388
:102B1000F704809110048A3020F485E296E00E9448
:102B20001A066AE070E0809110040C941215089562
:102B30001F93CF93DF93182FD62FC42F89E0809354
:102B4000F4041092F5048EE08093F60480E1809303
:102B5000F704103120F485E296E00E941A0660E145
:102B600070E0812F0E94121581E296E00E941A0601
:102B7000D03120F485E296E00E941A0660E170E010
:102B80008D2F0E94121581E296E00E941A06C03134
:102B900020F485E296E00E941A0660E170E08C2F36
:102BA000DF91CF911F910C941215CF938091260441
:102BB000882351F18091FA04882331F1C62F809146
:102BC00090048823D1F080910A058330B1F489E024
:102BD0008093F4041092F5048EE08093F60481E172
:102BE0008093F704603120F485E296E00E941A0693
:102BF00060E170E08C2F0E94121580918C0482306D
:102C0000D1F120F48130F9F0CF910895833009F4A7
:102C10004AC08430C9F7C3FB882780F98093290410
:102C2000C2FB882780F980932804C1FB882780F99C
:102C3000809334048C2F817080932C04C295C170D2
:102C4000C0933E04E1CFC1FB882780F980932A041A
:102C50008C2F817080933204C2FB882780F9809387
:102C60003A04C3FB882780F980934204C295C1705F
:102C7000C0934A04C9CFC1FB882780F980934B04D5
:102C80008C2F817080934304C2FB882780F9809346
:102C90003B04C3FB882780F980933304C295C1703D
:102CA000C0932B04B1CFC1FB882780F980934A04DD
:102CB000C2FB882780F980934B04C3FB882780F9E7
:102CC000809343048C2F817080933B04E7CF00975F
:102CD00069F0FC0101900020E9F73197AF01481B32
:102CE000590BBC0180EF94E00C94931490E080E0C9
:102CF00008954F925F926F927F928F929F92AF92C0
:102D0000BF92CF92DF92EF92FF92CF93DF9300D0EA
:102D100000D0CDB7DEB70E94D40FC0900605D0908A
:102D20000705E0900805F09009052B013C014C18BF
:102D30005D086E087F08C301B20128EE33E040E071
:102D400050E00E941C3F29833A834B835C83C3017C
:102D5000B20120E63AEE40E050E00E941C3F6901DB
:102D60007A01C301B20120E83EEE46E350E00E9442
:102D70001C3F49015A01C301B20120E03CE546E293
:102D800055E00E941C3F29013A01ACE3B0E0A701E5
:102D900096010E943E3F29813A814B815C81261B2E
:102DA000370B480B590B29833A834B835C83A5016E
:102DB00094010E943E3FC61AD70AE80AF90AA8E120
:102DC000B0E0A30192010E943E3F861A970AA80A2A
:102DD000B90A8EE08093F6048BE08093F7048FE0CD
:102DE0008093F4041092F5044114510461047104B9
:102DF000A1F04AE0C301B2010E94C41482E396E04C
:102E00004A9445284628472811F48DE296E00E940E
:102E10001A0687E296E00E941A064AE08416910498
:102E2000A104B10420F485E296E00E941A064AE06B
:102E3000C501B4010E94C41483E296E00E941A0600
:102E40005AE0C516D104E104F10420F485E296E0CD
:102E50000E941A064AE0C701B6010E94C41483E228
:102E600096E00E941A0689819A81AB81BC810A97FB
:102E7000A105B10520F485E296E00E941A064AE019
:102E800069817A818B819C810F900F900F900F90B8
:102E9000DF91CF91FF90EF90DF90CF90BF90AF90F8
:102EA0009F908F907F906F905F904F900C94C41480
:102EB000CF92DF92EF92FF92CF93DF936C01990F45
:102EC000EE08FF08F7FE19C06DE280EF94E00E9463
:102ED000E205EC0166277727CB016C197D098E0985
:102EE0009F094AE00E94C4148C0F9D1FDF91CF916F
:102EF000FF90EF90DF90CF9008954AE0C701B601B0
:102F0000DF91CF91FF90EF90DF90CF900C94C4149D
:102F100080910A05813099F590910E05953009F060
:102F200080E00E9447038AE08093F6048DE080935E
:102F3000F70480910C0490910D04883E934024F492
:102F400085E296E00E941A0680910C0490910D048F
:102F50008436910524F485E296E00E941A06809159
:102F60000C0490910D040A9724F485E296E00E94E7
:102F70001A0680910C0490910D040C945817089532
:102F80008FE08093F4041092F50488E18093F604B6
:102F90001092F704809110048831C8F590911104C3
:102FA0009C33A8F5909112049C3388F58A3020F464
:102FB00085E296E00E941A066AE070E080911004B3
:102FC0000E94121583E296E00E941A068091110475
:102FD0008A3020F485E296E00E941A066AE070E0EA
:102FE000809111040E94121583E296E00E941A0655
:102FF000809112048A3020F485E296E00E941A063D
:103000006AE070E0809112040E94121507C081E00E
:103010008093F50488EC95E00E941A068FE0809377
:10302000F4041092F50486E18093F60481E0809325
:10303000F70480910C0490910D048F30974264F452
:1030400080910E048D3040F480910F04803220F482
:10305000909116049830F8F081E08093F5048BEBA2
:1030600095E00E941A0680910A05813071F40E9451
:1030700079150E9459150E9439150E9419150E9450
:1030800082060E9488170E943F0680910A058330BD
:1030900059F50C9479168A3020F485E296E00E9466
:1030A0001A066AE070E080910F040E94121586EC07
:1030B00095E00E941A0680910E048A3020F485E281
:1030C00091E00E9467166AE070E080910E040E9411
:1030D000121586EC95E00E941A0680910C049091DE
:1030E0000D040E945817BFCF0895CF9380E00E942F
:1030F000BA09CEE0C093F4041092F50483E1809302
:10310000F60482E08093F7048CED94E00E941A06A6
:103110006091FC0480EF94E00E94E2056091FD0460
:1031200080EF94E00E94E2056091FE0480EF94E05D
:103130000E94E2056091FF0480EF94E00E94E205A6
:103140006091000580EF94E00E94E2056091010526
:1031500080EF94E00E94E2056091020580EF94E028
:103160000E94E2056091030580EF94E00E94E20571
:10317000C093F4041092F50484E18093F60483E094
:103180008093F70487ED94E00E941A06809104056D
:10319000909105050E9467168FE08093F4041092C9
:1031A000F5041092F60484E08093F704C0E26FE522
:1031B00080EF94E00E94E205C150C9F7CF910C94D2
:1031C000C01780912604882349F08091FA0488234F
:1031D00029F08091900481110C94C01708950F93E9
:1031E0001F93CF93DF93EC0189E08093F404109256
:1031F000F5048EE08093F6048FE08093F7040D2FA2
:1032000011270031110520F485E296E00E941A068C
:10321000B80190E080E040E10E94C41481E296E0B1
:103220000E941A06DD27C031D10520F485E296E020
:103230000E941A06BE0190E080E040E1DF91CF914C
:103240001F910F910C94C4141092D6031092D503C1
:103250008091D403882359F02091D5033091D6036F
:10326000809105019091060128173907F0F020910F
:10327000D5033091D603809105019091060128175E
:103280003907E8F00E941F050E94BD0B8091D20310
:103290009091D30301969093D3038093D20380E05F
:1032A0001092AB038093AA0308958091D503909167
:1032B000D60301969093D6038093D503C9CF81E0BE
:1032C0008093D4038093D1039FEF9093D003109207
:1032D000CF031092CE038093AD038091AD03806D38
:1032E0008093AD038091AC03813009F062C01092ED
:1032F000AC031092D6031092D5038091AD03809356
:10330000BB008091D5039091D60301969093D6038C
:103310008093D5038091BC0083FF0BC02091D5031F
:103320003091D60380910501909106012817390745
:1033300020F32091D5033091D6038091050190911F
:1033400006012817390708F09DCF85EC8093BC0053
:103350001092D6031092D5038091D403813059F492
:103360002091D5033091D6038091050190910601FB
:103370002817390700F12091D5033091D6038091A9
:103380000501909106012817390708F07BCF80913D
:10339000CF0381111AC08091CF03AEEAB3E0EAE80F
:1033A000F3E090E0981709F47BCF2D9121939F5F74
:1033B000F9CF85EECBCF8091D5039091D6030196BE
:1033C0009093D6038093D503C7CF81E0E6CF88E6FC
:1033D0000E94560382E090E00E94DC050E94E10B0F
:1033E0000E9424190E94730326E0969587952A95DA
:1033F000E1F781700895CF93DF93C82F0E94E719FA
:10340000D82F88E60E94560382E090E00E94DC05F7
:103410008C2FD11110C06AE00E94583F682F660FB0
:10342000680F660F6C0F8BEF93E00E94AD05DF9184
:10343000CF910C94E10BCD3078F06CE00E94583FB6
:10344000292F892F6AE00E94583F682F660F680F66
:10345000660F620F6066E7CF6AE00E94583F682FF0
:10346000660F680F660F6C0F6064DDCFCF9388E640
:103470000E94560382E090E00E94DC050E94E10B6E
:103480000E9424190E947303C82F88E60E945603E5
:1034900082E090E00E94DC056C2F6F7B8BEF93E065
:1034A0000E94AD05CF910C94E10BCF93C82F88E615
:1034B0000E94560390E080E00E94DC050E94E10B30
:1034C0000E9424190E9473038078C82B88E60E940A
:1034D000560390E080E00E94DC058C2F6AE00E9499
:1034E000583F682F660F680F660F6C0F8BEF93E0E5
:1034F0000E94AD05CF910C94E10B88E60E94560323
:1035000090E080E00E94DC050E94E10B0E942419FB
:103510000E9473038F77282F30E094E0359527952C
:103520009A95E1F7922F990F990F291B220F820F7D
:10353000089588E60E94560381E090E00E94DC0531
:103540000E94E10B0E9424190E9473039C0194E0E5
:10355000359527959A95E1F72F703327922F990F7C
:10356000990F291B220F820F0895CF930E94E7190C
:10357000C82F88E60E94560382E090E00E94DC0596
:103580000E94E10B0E9424190E947303C11110C014
:10359000AC0194E0559547959A95E1F74F70552702
:1035A000942F990F990F491B440F840FCF910895C1
:1035B000482F4F79242F30E084E0359527958A9560
:1035C000E1F7822F880F880F922F981B892F880F81
:1035D000ECCF88E60E94560383E090E00E94DC0571
:1035E0000E94E10B0E9424190E947303089588E64B
:1035F0000E94560384E090E00E94DC050E94E10BEB
:103600000E9424190E9473039C0194E0359527952C
:103610009A95E1F72F703327922F990F990F291B55
:10362000220F820F089588E60E94560385E090E0FD
:103630000E94DC050E94E10B0E9424190E94730382
:103640009C0194E0359527959A95E1F72F703327E3
:10365000922F990F990F291B220F820F089588E648
:103660000E94560386E090E00E94DC050E94E10B78
:103670000E9424190E9473039C0194E035952795BC
:103680009A95E1F72F703327922F990F990F291BE5
:10369000220F820F90E08053984F0895CF9388E6D1
:1036A0000E94560390E080E00E94DC050E94E10B3E
:1036B0000E9424190E947303C82F88E60E945603B3
:1036C00090E080E00E94DC056C2F6F778BEF93E039
:1036D0000E94AD05CF910C94E10B88E60E94560341
:1036E00090E080E00E94DC050E94E10B0E9424191A
:1036F0000E9473038095881F8827881F08950E9461
:10370000361A80910F040E94F40C80910E040E94DE
:10371000DB0C80910C0490910D040E94BB0C8091F5
:1037200016040E940D0D809110040E94FB198091D7
:1037300011040E941E0D809112040E94551A0E94CD
:103740006D1B811102C00C944E1B08951F93CF93E3
:10375000DF93EC01162F0E94DE3E181739F0612F1F
:10376000CE01DF91CF911F910C94E63EDF91CF9176
:103770001F910895CF93DF93C8E7D4E08883682F23
:1037800090E080E00E94A61B8881982F9170909312
:1037900051048695817080936B04DF91CF910895D9
:1037A00080919104811112C080910A0581113CC061
:1037B00081E090910C05973009F080E00E9447036A
:1037C0008AE08093F6048CE08093F704809179047A
:1037D00090917804891710F40E94BA1B80917804A4
:1037E0008130C9F038F08230C9F08330D1F081E007
:1037F00096E002C084EB95E00E941A068FE0809369
:10380000F4041092F50481E296E00E941A0681E227
:1038100096E00C941A0685E595E0EECF82E595E0FA
:10382000EBCF8FE495E0E8CF08950F931F93CF93EC
:10383000DF9310920A051092910410926E041FE01B
:103840001093F4041092F5040E94CF0A0E94751898
:103850001092F604D5E0D093F7048EEC94E00E9429
:1038600012070E946509C4E1C093F604D093F704DF
:1038700083EC94E00E94E0061092F604D6E0D09328
:10388000F70489EB94E00E9412070E943A09C09362
:10389000F604D093F70481EB94E00E94E0061092C6
:1038A000F604D7E0D093F7048BEA94E00E94120765
:1038B0000E940F09C093F604D093F70483EA94E0C2
:1038C0000E94E0061092F60408E00093F7048BE9EA
:1038D00094E00E9412070E94DB08C093F604009354
:1038E000F70483E994E00E94E0061092F60409E0F0
:1038F0000093F7048AE894E00E9412070E94B0083F
:10390000C093F6040093F70482E894E00E94E00676
:103910001092F6040AE00093F7048CE794E00E940A
:1039200012070E948F08C093F6040093F70484E7FF
:1039300094E00E94E0061092F6040BE00093F70476
:103940008EE694E00E9412070E946D08C093F60470
:103950000093F70485E694E00E94E0061092F604D6
:103960000CE00093F7048FE594E00E9412070E9498
:10397000D01BC093F6040093F70486E594E00E9400
:10398000E0061092F6040DE00093F7048DE494E055
:103990000E9412070E944208C093F6040093F704A5
:1039A00084E494E00E94E0061092F6040EE0009396
:1039B000F7048BE394E00E9412070E941708C0935B
:1039C000F6040093F70484E394E00E94E00610926A
:1039D000F6041093F7048BE294E00E9412070E9411
:1039E000C307C093F6041093F70484E294E00E94A6
:1039F000E0061092F60410E11093F7048DE194E0D4
:103A00000E9412070E949507C093F6041093F704D2
:103A100086E194E00E94E0061092F60411E1109312
:103A2000F7048FE094E00E9412070E946A07C09397
:103A3000F6041093F70488E094E00E94E0061092E8
:103A4000F60412E11093F7048FEF93E00E9412073F
:103A50000E943F07C093F6041093F70488EF93E0A9
:103A60000E94E0061092F60413E11093F7048FEE23
:103A700093E00E9412070E941D07C093F604109362
:103A8000F70488EE93E00E94E0061092F604C093DB
:103A9000F70482EE93E00E9412070E94E706C093AB
:103AA000F604C093F70482EE93E00E94E0061092C1
:103AB000F60486E18093F704D093F404C1E0C09348
:103AC000F50480EE93E00E941A0687ED93E00E94D1
:103AD000D90681E296E00E94D906D093F404C093FF
:103AE000F50485ED93E00E941A0680ED93E00E94B4
:103AF000D906D093F404C093F5048EEC93E00E94B1
:103B00001A0689EC93E00E94D9061092F60487E128
:103B10008093F704C0E26FE580EF94E00E94E20535
:103B2000C150C9F71092F60488E18093F70482EC43
:103B300093E00E94D90685EB93E00E94E0068AEAB2
:103B400093E00E94D9061092F60489E18093F7046D
:103B500082EC93E00E94D90681EA93E00E94E0069D
:103B600082E993E0DF91CF911F910F910C94D906D8
:103B70000F931F93CF93C82F8B010E94D40F609394
:103B8000360170933701809338019093390161E0D9
:103B900080E10E94860B8091FA04882309F4E7C033
:103BA00080919004882309F47DC0C43108F0DFC0FF
:103BB000EC2FF0E0E252F24E0C94643FF21DF71D40
:103BC000021E0C1E111E161E1B1E201E251E2A1E46
:103BD0002F1EB71E341E391E3E1E431EB71E071E63
:103BE000481E4D1ECF911F910F910C94151C809172
:103BF0000A05833009F0BBC0C801CF911F910F9116
:103C00000C94EF18CF911F910F910C941708CF913E
:103C10001F910F910C94C307CF911F910F910C949A
:103C20004208CF911F910F910C946509CF911F917C
:103C30000F910C943A09CF911F910F910C940F0999
:103C4000CF911F910F910C94DB08CF911F910F9191
:103C50000C94B008CF911F910F910C948F08CF91C5
:103C60001F910F910C946D08CF911F910F910C949F
:103C70001D07CF911F910F910C94E706CF911F91D3
:103C80000F910C94D01BCF911F910F910C9495071D
:103C9000CF911F910F910C946A07CF911F910F91B3
:103CA0000C943F07C03108F05DC0CC3028F48EEF93
:103CB0008C0F893008F05BC00E94D40F60933201F2
:103CC0007093330180933401909335018091910476
:103CD000811107C08FE08093F4041092F5040E94D4
:103CE000CF0A81E08093910480936E04E0912404D4
:103CF000F091250470E060E080E109958FE0809309
:103D0000F4041092F5040E94CF0A80E0C03109F457
:103D100085E00E94BA09C03151F18FE08093F4042C
:103D20001092F5041092F60485E08093F704C250D7
:103D3000C23128F5EC2FF0E0E056F14E0C94643FD0
:103D4000F91EF61EBB1EE11EE41EE71EEA1EED1E56
:103D5000F01EBF1E081F0B1FF31EFF1EBF1EFC1E02
:103D6000021F051F8FEE8C0F833008F4A5CFCF9173
:103D70001F910F9108958EEC94E00E941A060E9404
:103D800035061092F60486E08093F704C23108F0FD
:103D900047C0EC2FF0E0E153F14E0C94643F2D1F2F
:103DA0002A1F0E1F151F181F1B1F1E1F211F241F38
:103DB000101F3C1F3F1F271F331F101F301F361FB0
:103DC000391F89EB94E0D9CF8BEA94E0D6CF8BE909
:103DD00094E0D3CF8AE894E0D0CF8CE794E0CDCFC5
:103DE0008EE694E0CACF8FE594E0C7CF8DE494E0EF
:103DF000C4CF8BE394E0C1CF8BE294E0BECF8DE1E2
:103E000094E0BBCF8FE094E0B8CF8FEF93E0B5CFD5
:103E10008FEE93E0B2CF82EE93E0AFCF0E946509C0
:103E2000CF911F910F910C9435060E943A09F8CF5B
:103E30000E940F09F5CF0E94DB08F2CF0E94B00864
:103E4000EFCF0E948F08ECCF0E946D08E9CF0E944F
:103E5000D01BE6CF0E944208E3CF0E941708E0CFB4
:103E60000E94C307DDCF0E949507DACF0E946A0740
:103E7000D7CF0E943F07D4CF0E941D07D1CF0E9409
:103E8000E706CECF611103C064E10C94A61B6AE083
:103E9000FCCF0F931F93CF93DF93682F617007E8D8
:103EA00014E0F8016083C9E8D4E0869581708883C6
:103EB00088E090E00E94421F68818AE090E00E94C2
:103EC000421FF80180818093650488818093670494
:103ED000DF91CF911F910F9108958130F9F0C8F0D3
:103EE0008230F9F0833019F16091830484E090E02E
:103EF0000E94421F6091840485E090E00E94421F6E
:103F00008091830480936004809184048093610491
:103F100008951092830410928404E6CF8093830462
:103F2000FACF1092830481E080938404DDCF81E096
:103F300080938304F9CF90912604992309F444C017
:103F40009091FA04992309F43FC0882319F0813035
:103F500059F108956091400560937C048CE090E0F5
:103F60000E94421F61E080E10E94860B64E670E0DF
:103F700080E090E00E94620F60E080E10E94860B8A
:103F800064E670E080E090E00E94620F61E080E112
:103F90000E94860B64E670E080E090E00E94620F71
:103FA00060E080E10C94860B80919004882361F09E
:103FB00080910A05833041F4409154056091530586
:103FC000809152050C9498150895CF93C0917B046D
:103FD0008C1708F4C82FC0937A046C2F8EE090E001
:103FE0000E94A61B8C2F817080936C04C695C170B3
:103FF000C0936D04CF910895CF93C82F853008F0FA
:10400000C4E0C0938C046C2F8FE090E00E94A61B4C
:104010008C2F817080936F04C1FB882780F9809377
:104020007004C2FBCC27C0F9C0937104CF910895EE
:10403000CF92DF92EF92FF92CF936A017B01692FBB
:10404000661F6627661F60937F0210927E02609350
:104050005304382F331F3327331F30935E04FC0182
:10406000FF27E6FB332730F930935D04E5FB332768
:1040700030F930935C04E4FB332730F930935B0470
:10408000E3FB332730F930935A04E2FB332730F94E
:1040900030935904E1FB332730F9309358043E2F15
:1040A00031703093570491110C94F928863011F037
:1040B0000C94F928CF91FF90EF90DF90CF900C9463
:1040C00089040E94890480917E02882341F08091B6
:1040D000B1049091B204892B11F4109227048091BD
:1040E000B1049091B204181619061CF481E0809373
:1040F000270480917F048823C1F080918004882365
:10410000A1F080917C02882381F010927F041092AC
:10411000800410927C0210927D0210927E02109216
:10412000B2041092B1040E94940F80917F048823FE
:10413000C1F1809180048823A1F180917B028823C2
:1041400081F110927F041092800410927B021092F1
:104150007D0210927E021092B2041092B104E7E246
:10416000F4E0119224E0E035F207D9F7C1E0C09302
:1041700050040E948E03C0932E040E948E0364EFAD
:1041800071E080E090E00E94620F109250040E9463
:104190008E0364EF71E080E090E00E94620F109265
:1041A0002E04CF91FF90EF90DF90CF900895209153
:1041B0007704222371F02FE030E0892F8095881F4B
:1041C0008827881F2F5D3B4FF901868380937D02EE
:1041D0007ACF30E020E0F1CF20917704222371F0F4
:1041E00030E020E0892F8095881F8827881F2F5D69
:1041F0003B4FF901868380937F0465CF2FE030E049
:10420000F1CF80917F04C92FC095882311F06623D8
:10421000C1F03C2F331F3327331F309336042091D6
:10422000770486E090E0211102C090E080E08F5D8D
:104230009B4FFC013683211104C08AE090E00E946C
:104240009904CC1FCC27CC1FC09380043CCF809115
:104250007F04C92FC095882311F06623C1F03C2F3D
:10426000331F3327331F309336042091770487E0C0
:1042700090E0211102C090E080E08F5D9B4FFC0137
:104280003683211104C08BE090E00E949904CC1F7A
:10429000CC27CC1FC093800416CF20917D02211122
:1042A00012CF892F8095982F991F9927991F2091B8
:1042B0007704222351F090932C0490934F04881F8D
:1042C0008827881F80937C02FECE909336049093BB
:1042D0003F04F5CF892F8095881F8827881F8093FA
:1042E0007E04F1CE892F8095881F8827881F8093B0
:1042F0007D04E9CE20917D022111E5CE892F8095A4
:10430000881F8827881F90917704992329F080932C
:10431000340480934F04D7CE8093360480932804CE
:10432000D2CE20917D022111CECE892F8095881F7B
:104330008827881F809397048093270480934304E1
:1043400087E190E00E949904BECE20917D02211168
:10435000BACE892F8095881F8827881F809398045C
:104360008093270480934B0488E190E00E94990495
:10437000AACE20917D022111A6CE892F8095881F7B
:104380008827881F809399048093270480934A0488
:1043900085E190E00E94990496CE20917D02211142
:1043A00092CE892F8095881F8827881F80939A0432
:1043B0008093270480933B0486E190E00E94990457
:1043C00082CE20917D0421110CC020917E04211108
:1043D00008C020917F042223B9F120918004222378
:1043E00099F1611170CE8091920490919304A09103
:1043F0009404B0919504A7019601281B390B4A0B30
:104400005B0BDA01C901893C9105A105B10508F4EE
:104410005ACE8091900491E08927809390048093F4
:104420006A04882341F0E0912404F091250470E0AF
:1044300060E080E00995C0929204D0929304E092EB
:104440009404F09295043FCE892F8095881F882789
:10445000881F80939C04809327049091770423E025
:1044600030E0911102C027E030E02F5D3B4FF901B1
:1044700086838BE190E00E94990425CEC92FC095D8
:10448000CC1FCC27CC1FC0932704C0932B048CE1F6
:1044900090E00E949904C0937B0215CE892F8095ED
:1044A000881F8827881F80932D0480939B040BCE40
:1044B000892F8095881F8827881F80932E0403CE1C
:1044C000892F8095881F8827881F80932804FBCD1B
:1044D000892F8095881F8827881F80934E04F3CDED
:1044E000892F8095881F8827881F80933F04EBCDF4
:1044F00020917D0421110CC020917E04211108C05F
:1045000020917F042223E9F0209180042223C9F026
:104510006111D9CD60918D0481E0682760938D048D
:1045200080E190E00E94421F80918D04809372048C
:10453000E0912404F091250470E060E082E10995A7
:10454000C2CD892F8095881F8827881F80933804C3
:10455000BACD892F8095881F8827881F80933904BA
:10456000B2CD892F8095881F8827881F80934004AB
:10457000AACD892F8095881F8827881F809348049B
:10458000A2CD892F8095881F8827881F80934D048E
:104590009ACD892F8095881F8827881F80933C0497
:1045A00092CD20917D0421110CC020917E04211117
:1045B00008C020917F042223E9F020918004222367
:1045C000C9F0611180CD60918B0481E06827609310
:1045D0008B048DE090E00E94421F80918B048093B9
:1045E0006904E0912404F091250470E060E082E029
:1045F000099569CD892F8095881F8827881F80930A
:10460000450461CD892F8095881F8827881F809356
:104610003D0459CD892F8095881F8827881F809356
:10462000350451CD20917D0421110CC020917E04D0
:10463000211108C020917F042223E9F020918004F9
:104640002223C9F061113FCD80918C048F5F8530AA
:1046500078F480938C0480918C040E94FC1FE0917C
:104660002404F091250470E060E081E109952BCDF0
:1046700010928C04F0CF892F8095881F8827881F7F
:1046800080933E0420CD20917D0421110CC0209107
:104690007E04211108C020917F042223E9F020919B
:1046A00080042223C9F061110ECD60918E0481E057
:1046B000682760938E0481E190E00E94421F809100
:1046C0008E0480937304E0912404F091250470E03B
:1046D00060E083E10995F7CC892F8095881F8827B2
:1046E000881F80934604EFCC892F8095881F8827E8
:1046F000881F80933404E7CC892F8095881F8827F2
:10470000881F80932C04DFCC892F8095881F8827F1
:10471000881F80932904D7CC892F8095881F8827EC
:10472000881F80934104CFCC892F8095881F8827CC
:10473000881F80933004C7CC892F8095881F8827D5
:10474000881F80934904BFCC892F8095881F8827B4
:10475000881F80934404B7CC20917D0421110CC0A4
:1047600020917E04211108C020917F042223F1F0C2
:10477000209180042223D1F06111A5CC80917A048C
:104780008F5F80937A0490917B04981710F41092B5
:104790007A0480917A040E94E51FE0912404F0914C
:1047A000250470E060E08FE009958DCC892F80951D
:1047B000881F8827881F8093470485CC892F809580
:1047C000881F8827881F809331047DCC892F80958E
:1047D000881F8827881F8093370475CC892F809580
:1047E000881F8827881F80934C046DCC892F809563
:1047F000881F8827881F80932F0465CC892F809578
:10480000881F8827881F80932B045DCC892F809573
:10481000881F8827881F80932A0455CC892F80956C
:10482000881F8827881F809332044DCC892F80955C
:10483000881F8827881F80933A0445CC892F80954C
:10484000881F8827881F809342043DCC892F80953C
:10485000881F8827881F80934A0435CC892F80952C
:10486000881F8827881F80934B042DCC892F809523
:10487000881F8827881F8093430425CC892F809523
:10488000881F8827881F80933B041DCC892F809523
:10489000881F8827881F8093330415CC892F809523
:1048A000881F8827881F80932B040DCC892F809523
:1048B000881F8827881F80932A0405CC892F80951C
:1048C000881F8827881F80933204FDCB892F80950D
:1048D000881F8827881F80933A04F5CB892F8095FD
:1048E000881F8827881F80934204EDCB892F8095ED
:1048F000881F8827881F80934A04E5CB892F8095DD
:10490000881F8827881F80934B04DDCB892F8095D3
:10491000881F8827881F80934304D5CB892F8095D3
:10492000881F8827881F80933B04CDCB892F8095D3
:10493000881F8827881F80933304C5CB292F209593
:10494000221F2227221F2093360430917D0285E00A
:1049500090E0311102C08CE190E08F5D9B4FFC0133
:104960002683662321F010922C0410924304309386
:104970007E02A9CB292F2095221F2227221F2093B8
:10498000360430917D028AE190E0311102C08FE15E
:1049900090E08F5D9B4FFC012683662321F01092EF
:1049A00041041092460430937E028DCB292F20952E
:1049B000221F2227221F2093360430917D0282E29B
:1049C00090E0311102C087E190E08F5D9B4FFC01C8
:1049D0002683662321F01092490410923E043093FE
:1049E0007E0271CB292F2095221F2227221F209380
:1049F000360430917D0288E090E0311102C08DE0F4
:104A000090E08F5D9B4FFC012683662321F010927E
:104A10002F041092340430937E0255CB20917704FA
:104A200021110BC061114FCB20917D0269E1211151
:104A300001C065E20E941F1246CB292F2095221F3C
:104A40002227221F2093360480917D02882371F053
:104A500089E190E08F5D9B4FFC012683662309F47A
:104A600032CB1092400410924C042DCB85E290E0A2
:104A7000F1CF2091770421110BC0611124CB20913B
:104A80007D0261E2211101C06DE10E941F121BCB6A
:104A9000292F2095221F2227221F20933604809140
:104AA0007D02882371F081E290E08F5D9B4FFC01D5
:104AB0002683662309F407CB10924804109244041D
:104AC00002CB8DE190E0F1CF292F2095221F2227E4
:104AD000221F2093360430917D0288E190E031114D
:104AE00002C080E290E08F5D9B4FFC01268366232D
:104AF00021F010923F041092470430937E02E3CAE3
:104B00002091770421110BC06111DDCA20917D0233
:104B100069E0211101C061E10E941F12D4CA292F4E
:104B20002095221F2227221F2093360480917D0288
:104B3000882371F089E090E08F5D9B4FFC01268314
:104B4000662309F4C0CA1092300410923804BBCA1C
:104B500081E190E0F1CF292F2095221F2227221FEB
:104B60002093360430917D0286E190E0311102C03D
:104B70008EE090E08F5D9B4FFC012683662321F041
:104B800010923D041092350430937E029CCA292F66
:104B90002095221F2227221F2093360430917D0268
:104BA00084E090E0311102C08EE190E08F5D9B4F78
:104BB000FC012683662321F010922B0410924504F9
:104BC00030937E0280CAC0917D02CC2309F403C3D6
:104BD000611103C061E00E941F12C0937E0273CA7C
:104BE000892F8095881F8827881F8093360480939B
:104BF0004E0469CA892F8095881F8827881F809353
:104C00003604809345045FCA892F8095881F8827C2
:104C1000881F8093360480933D0455CA20917D04FB
:104C200021110CC020917E04211108C020917F0425
:104C30002223E9F0209180042223C9F0611143CAA4
:104C400060918A0481E0682760938A048BE090E099
:104C50000E94421F80918A0480936804E09124049A
:104C6000F091250470E060E083E009952CCA892F5B
:104C70008095881F8827881F8093270480933C0491
:104C80008DE190E00E9499041ECA892F8095881FAB
:104C90008827881F809327048093360483E090E060
:104CA0000E94990410CA20917D0221110CCA892FFB
:104CB0008095881F8827881F90917704992329F071
:104CC00080933E0480934F04FEC980932704809311
:104CD0003A0483E190E00E949904F5C920917D0295
:104CE0002111F1C9892F8095881F8827881F9091ED
:104CF0007704992329F08093460480934F04E3C9F5
:104D0000809327048093420484E190E00E949904F8
:104D1000DAC920917D022111D6C9892F8095881F7B
:104D20008827881F80933D0480934F04CCC920912D
:104D30007D022111C8C9892F8095881F8827881F67
:104D40008093350480934F04BEC920917D042111C6
:104D50000CC020917E04211108C020917F042223E1
:104D600091F020918004222371F06111ACC980E0A0
:104D70000E946D1FE0912404F091250470E060E032
:104D800084E00995A0C9892F8095881F8827881FEE
:104D90008093280480934F0496C920917D042111AB
:104DA0000CC020917E04211108C020917F04222391
:104DB00091F020918004222371F0611184C981E077
:104DC0000E946D1FE0912404F091250461E070E0E1
:104DD00084E0099578C9892F8095881F8827881FC6
:104DE00080934E0480934F046EC920917D0421115D
:104DF0000CC020917E04211108C020917F04222341
:104E000091F020918004222371F061115CC982E04D
:104E10000E946D1FE0912404F091250462E070E08F
:104E200084E0099550C9892F8095881F8827881F9D
:104E300080933F0480934F0446C920917D04211143
:104E40000CC020917E04211108C020917F042223F0
:104E500091F020918004222371F0611134C983E024
:104E60000E946D1FE0912404F091250463E070E03E
:104E700084E0099528C9892F8095881F8827881F75
:104E80008093380480934F041EC920917D04211122
:104E90000CC020917E04211108C020917F042223A0
:104EA000E9F0209180042223C9F061110CC96091BE
:104EB000850481E068276093850486E090E00E9485
:104EC000421F8091850480936204E0912404F09154
:104ED000250470E060E085E00995F5C8892F80958C
:104EE000881F8827881F8093390480934F04EBC85C
:104EF00020917D0421110CC020917E04211108C055
:104F000020917F042223E9F0209180042223C9F01C
:104F10006111D9C86091860481E068276093860496
:104F200087E090E00E94421F809186048093640491
:104F3000E0912404F091250470E060E086E009959A
:104F4000C2C8892F8095881F8827881F80934004B6
:104F500080934F04B8C820917D0421110CC020918A
:104F60007E04211108C020917F042223C1F02091EA
:104F700080042223A1F06111A6C88091870490913A
:104F800089048F5F911180E00E94491FE091240401
:104F9000F091250470E060E087E0099594C8892FBE
:104FA0008095881F8827881F8093480480934F042A
:104FB0008AC820917D04211108C020917F042223FA
:104FC000E9F0209180042223C9F061117CC860912E
:104FD000880481E068276093880489E090E00E945B
:104FE000421F8091880480936604E0912404F0912C
:104FF000250470E060E088E0099565C8892F8095F8
:10500000881F8827881F80934D0480934F045BC8B6
:1050100020917D0421110CC020917E04211108C033
:1050200020917F042223E9F0209180042223C9F0FB
:10503000611149C86091810481E06827609381040F
:1050400082E090E00E94421F809181048093550489
:10505000E0912404F091250470E060E089E0099576
:1050600032C8892F8095881F8827881F80933C0429
:1050700080934F0428C820917D0421110CC02091F9
:105080007E04211108C020917F042223F9F0209191
:1050900080042223D9F061110C9463206091820472
:1050A00081E068276093820483E090E00E94421FC1
:1050B0008091820480935604E0912404F0912504A9
:1050C00070E060E08AE009950C946320892F809558
:1050D000881F8827881F8093450480934F040C9471
:1050E000632020917D0421110CC020917E042111A8
:1050F00008C020917F04222309F1209180042223FB
:10510000E9F061110C946320809178048F5F8093A3
:10511000780490917904981710F410927804809193
:1051200078040E94BA1B6091780470E0E091240436
:10513000F09125048EE009950C946320892F8095C9
:10514000881F8827881F80932904809336040C9435
:10515000632020917D0421110CC020917E04211137
:1051600008C020917F04222359F02091800422233B
:1051700039F061110C9463200E94B40F0C946320E9
:10518000892F8095881F8827881F809331048093FA
:1051900036040C94632080917D0281110C9463206D
:1051A00061110C9463206091770481E0682760931B
:1051B000770481E090E00E94421F80917704809301
:1051C0006304E0912404F091250470E060E08CE039
:1051D00009950C9463202091EB042111FECC892FBA
:1051E0008095881F8827881F809336048093370412
:1051F000F4CC3397EA36F10510F00C946F20ED5F94
:10520000F64D0C94643F4526CB286120D720D7204B
:10521000EC20EC20012127216A216A2172216F20D4
:105220006F208926972653266E26B921CD219121FC
:10523000A5217A214D21E1213E220E264E2258221F
:105240004E2456245E2466246E2476247E248624EE
:105250008E249624D6244E220426FA25F025642591
:10526000FE2306240E2416241E2426242E2436244F
:105270003E2446249E24BA24C725D62464256F20C4
:10528000E3256022682270227822A922B122B92265
:10529000C122C922D12202230A23122343237423C9
:1052A0007C2384238C2394239C23A423AC23DE23FC
:1052B000E623EE23F623F22480250E253925AB259F
:1052C0006F20A526CD26F5261D2745277827AB2755
:1052D000D92708283B287128A9280C94DE3E0F9373
:1052E0001F93CF93DF93D0E0C0E004E610E0CE3010
:1052F000D10508F008C1FE01E058F64D0C94643F5A
:105300008E29AB29BD29CF29E129012A212A332A57
:10531000452A572A6E2A762A7D2A802A209112044D
:1053200080911B04882349F0822F6AE00E94583F35
:10533000982F990F890F880F280F622F80E00E9405
:1053400086032196C11581E0D80789F6DF91CF91B8
:105350001F910F9108952091130480911B048823BD
:1053600049F0822F6AE00E94583F982F990F890FC9
:10537000880F280F622F81E0E2CF209111048091E5
:105380001B04882349F0822F6AE00E94583F982F1F
:10539000990F890F880F280F622F82E0D0CF2091BC
:1053A000140480911B04882349F0822F6AE00E9434
:1053B000583F982F990F890F880F280F622F83E08D
:1053C000BECF80911B042091100490911C0499235E
:1053D00071F0882349F0822F6AE00E94583F982F8D
:1053E000990F890F880F280F622F84E0A8CF882398
:1053F00021F02D3080F32CE8EECF2D30A8F32CE8EF
:10540000F3CF80911B042091150490911C049923E3
:1054100071F0882349F0822F6AE00E94583F982F4C
:10542000990F890F880F280F622F85E088CF882376
:1054300021F02D3080F32CE8EECF2D30A8F32CE8AE
:10544000F3CF2091160480911B04882349F0822F0A
:105450006AE00E94583F982F990F890F880F280FF4
:10546000622F86E06CCF20910F0480911B0488236B
:1054700049F0822F6AE00E94583F982F990F890FB8
:10548000880F280F622F87E05ACF20910E04809159
:105490001B04882349F0822F6AE00E94583F982F0E
:1054A000990F890F880F280F622F88E048CF8091CD
:1054B0000C0490910D04B8010E94083F282F909190
:1054C0001B04992341F06AE00E94583F982F880FEF
:1054D000890F880F820F682F89E031CF8AE290E030
:1054E0000E946D29682F6F778AE029CF8BE290E0C8
:1054F0000E946D29682F8BE022CF60E08CE01FCFE7
:1055000060E88DE01CCFCE0180960E946D29682F47
:105510008C2F15CF1F93CF93DF93182FD62FC42F27
:105520009091EC048091ED049CBD8DBD60E087E01E
:105530000E94860B1EBD00000DB407FEFDCF1EB5F8
:10554000DEBD00000DB407FEFDCFDEB5CEBD000010
:105550000DB407FEFDCFCEB561E087E00E94860B5B
:10556000112319F11D3F29F58091310181111DC0D1
:1055700081E0809331018C2F90E0D6E0959587955E
:10558000DA95E1F7CF73809379042091780482173C
:1055900010F40E94BA1B0E948E030E946F290E9481
:1055A0006F290E94940FC093FB04DF91CF911F914C
:1055B00008951C3F61F480911A048111F6CF81E0B7
:1055C00080931A04DF91CF911F910C946F29103FA3
:1055D00009F015C1ED2FF0E0E251FB4FC687E5CF92
:1055E00080911B04882369F08C2F90E0B4E095959E
:1055F0008795BA95E1F7982F990F990F891B880F16
:10560000C80FC09312048C2FDF91CF911F910C947F
:10561000551A80911B04882369F08C2F90E0A4E038
:1056200095958795AA95E1F7982F990F990F891B62
:10563000880FC80FC0931304B8CF80911B04882330
:1056400069F08C2F90E0F4E095958795FA95E1F755
:10565000982F990F990F891B880FC80FC0931104B9
:105660008C2FDF91CF911F910C941E0D80911B0404
:10567000882369F08C2F90E0E4E095958795EA9572
:10568000E1F7982F990F990F891B880FC80FC093C6
:1056900014048BCF80911B04882369F08C2F90E039
:1056A00074E0959587957A95E1F7982F990F990F62
:1056B000891B880FC80FC09310040E94361A80916E
:1056C0001004DF91CF911F910C94FB1980911B0462
:1056D000882369F08C2F90E064E0959587956A9512
:1056E000E1F7982F990F990F891B880FC80FC09366
:1056F00015045BCF80911B04882369F08C2F90E008
:1057000054E0959587955A95E1F7982F990F990F41
:10571000891B880FC80FC09316048C2FDF91CF917F
:105720001F910C940D0D80911B04882369F08C2F20
:1057300090E044E0959587954A95E1F7982F990F69
:10574000990F891B880FC80FC0930F048C2FDF910E
:10575000CF911F910C94F40C80911B04882369F065
:105760008C2F90E034E0959587953A95E1F7982F46
:10577000990F990F891B880FC80FC0930E048C2FA7
:10578000DF91CF911F910C94DB0C80911B04882337
:1057900069F08C2F90E024E0959587952A95E1F7A4
:1057A000982F990F990F891B880FC80F8C2F90E0A5
:1057B0008053984F90930D0480930C04DF91CF9108
:1057C0001F910C94BB0C6C2F6F778AE290E0DF91F5
:1057D000CF911F910C94A61BC2FB882780F991E002
:1057E000892780931B04C1FB882780F980931C04C0
:1057F0006C2F8BE290E0EBCF6C2F8096E8CF1A3FB6
:1058000009F0D3CE20911704309118048D2F90E029
:105810002817390739F420911904C21303C0DE3068
:1058200008F4C3CE9093180480931704C09319040E
:10583000DE3010F7815E934DFC010C94643FF02A3A
:10584000092B1D2B362B4A2B662B7A2B932BAC2B3B
:10585000C52BE32BEC2BD52AD52A0F931F93CF937F
:105860008C01C62F0E946D298A3011F0843149F4D1
:10587000C1E08A3009F0C0E08C2FCF911F910F91C9
:10588000089564E1C1116AE0C8010E94A61BF4CF2B
:105890001F920F920FB60F9211242F933F934F93A5
:1058A0005F936F937F938F939F93AF93BF93EF9388
:1058B000FF938091B900887F803609F44AC0F0F5E3
:1058C000883209F4A5C018F5803109F499C0B8F4FC
:1058D000882309F4F5C0883009F492C0FF91EF9154
:1058E000BF91AF919F918F917F916F915F914F91F8
:1058F0003F912F910F900FBE0F901F9018958831F8
:1059000009F486C0803251F78093D00314C08034EC
:1059100009F49BC040F48033B9F38833F9F68093DF
:10592000D00385ECAEC0803509F483C0883509F416
:1059300094C0883499F60E941F05D0CF883909F4A5
:105940008AC038F5883729F050F4883611F080374E
:1059500029F683E08093D40310927A0255C08838E8
:1059600009F479C0803919F0803809F0B7CF8091F7
:105970007A02803208F06FC0E0917A0281E08E0FE7
:1059800080937A028091BB00F0E0E65AFD4F80835D
:105990003BC0803B39F0D0F4803A09F477C0883AB4
:1059A00009F09CCF84E08093D403109259021092A6
:1059B0005802F0E0E0E009958091580281110FC093
:1059C00081E0809358021092380209C0803C09F4AB
:1059D000A8CF883C09F4A5CF883B09F07FCFE091A0
:1059E000590281E08E0F80935902F0E0E85CFD4F90
:1059F00080818093BB00909159028091580229C008
:105A00008091AD038093BB0085EC8093BC0066CF92
:105A10009091CF038091CE03981758F5E091CF0372
:105A200081E08E0F8093CF03F0E0E255FC4F808140
:105A3000E9CFE091CF0381E08E0F8093CF03809177
:105A4000BB00F0E0E255FC4F80839091CF03809142
:105A5000CE039817C8F285E8D8CFE091CF0381E054
:105A60008E0F8093CF038091BB00F0E0E255FC4F96
:105A700080838091D10381115ECF81E08093AC035C
:105A800084EA8093BC001092D40328CF85EC8093E5
:105A9000BC001092D40380917A02803230F4E091FD
:105AA0007A02F0E0E65AFD4F108260917A0270E0CF
:105AB0008AE592E0F0E0E0E0099510927A020ECFDC
:105AC0001092D00338CF1F920F920FB60F9211246D
:105AD0002F933F934F935F936F937F938F939F93F6
