:100000000C94F0020C94F52D0C94CE2D0C94180346
:100010000C9418030C9418030C9418030C941803F4
:100020000C9418030C9418030C9418030C941803E4
:100030000C9418030C9418030C9418030C941803D4
:100040000C941C2E0C9418030C9418030C94180395
:100050000C9418030C9418030C9418030C941803B4
:100060000C94B32C0C941803202020202020202056
:10007000005041555345004B4559424F41524400B1
:1000800053435245454E004A4F59535449434B0040
:10009000535741502046444400545552424F005655
:1000A00053594E4300564944454F0050534720543E
:1000B00059504500505347204D495800434F564F23
:1000C0005800545552424F2046444300524F4D2051
:1000D00042414E4B00557074696D653A00410054C1
:1000E0004441313534330044414320547970653AFA
:1000F000004500445300412D4400504342207265A6
:10010000766973696F6E3A00415652206275696C68
:10011000643A0046504741206275696C643A005366
:10012000797374656D20496E666F3A00436F6C6F2A
:100130007220746573743A00444F573A00596561F0
:10014000723A004D6F6E74683A004461793A005318
:1001500065636F6E64733A004D696E757465733ACA
:1001600000486F7572733A0052544320736574757A
:10017000703A0000000000240027002A0000000060
:1001800000250028002B0000000000230026002985
:100190000004040404040404040202020202020330
:1001A000030303030301020408102040800102043A
:1001B00008102001020408102000000008000201BD
:1001C0000000030407000000000000000020746F1E
:1001D0002072657475726E004553430050726573EA
:1001E0007320001912181415BB161117131A40406A
:1001F00020200804020277017E02580312065907E4
:100200001408110A8410761B661C0D1D5A1E291F26
:100210007020692172227A236B24732574266C273F
:1002200075287D29712A792C7B2D7C2E0F3F453036
:1002300016311E32263325342E3536363D373E38BC
:100240004639523A413B4E3C493D4A3E0E401C41E4
:1002500032422143234424452B4634473348434903
:100260003B4A424B4B4C3A4D314E444F4D50155149
:100270002D521B532C543C552A561D572258355984
:100280001A5A4C5B5D5C545D5B5E555F618B05612A
:10029000066204630C6403650B6683670A68016980
:1002A000096A786B076C086D106E186F20702871E2
:1002B0003072387340744875507657775F786D6048
:1002C000519113926A9364946795F296F1976398AB
:1002D00062995FA012BB7C041409110B1F0C270D3F
:1002E0002F0E7E0F6C1169127D137A146B15741624
:1002F000751772187019711A5A2B4A2F4D79157A81
:100300003B7B347C237D327E217F508048812B8251
:10031000408310843A853886308728882089188A57
:10032000378C3F8D5E90300020746F20746F67674C
:100330006C65204F5344004D656E752B455343004B
:100340005072657373200020746F207265626F6F46
:1003500074004374726C2B416C742B44656C0050B8
:100360007265737320006E666F20004900657374B8
:10037000005400436F6C6F7220006574207570200C
:10038000525443005300506F7274202331463A0098
:100390004D6F7573653A005363616E636F64653AC0
:1003A0000050617573650050617573653A00507255
:1003B00074536372004B6579626F6172643A004DE9
:1003C000656E752B560053637265656E3A004D6518
:1003D0006E752B4A004A6F7920747970653A004D2A
:1003E000656E752B546162005377617020464444FA
:1003F0003A004D656E752B46313100547572626F4F
:100400003A004D656E752B463130005653796E6358
:100410003A004D656E752B463900566964656F3A32
:10042000004D656E752B4638005053472074797027
:10043000653A004D656E752B463700505347206D69
:1004400069783A004D656E752B463600436F766FBE
:10045000783A004D656E752B463500547572626FA3
:100460004644433A004D656E752B46312D463400A7
:10047000524F4D2042616E6B3A0041565220004669
:1004800050474120004644496D61676500466C61F4
:100490007368657200200050512D444F530044652D
:1004A0006661756C740020004F6E004F6666002018
:1004B000004F6E004F6666004D6F6E6F002000416A
:1004C0004342002000414243002000594D32313464
:1004D0003946004159332D383931320056474120D1
:1004E00033306B487A005247422031356B487A00EE
:1004F000353020487A00363020487A003F3F3F00B0
:100500002000387800200034780020003278002065
:10051000004F66660020004F6E004F6666002000A8
:1005200053454741004174617269002000436C618A
:10053000737369630050656E7461676F6E0053700A
:1005400065637472756D0050726F6669205854004F
:1005500020004F6E004F66660030002000300030F3
:100560000020003000200030002E002E003A003A1B
:100570000030003000300030005F5F5F0044656392
:10058000004E6F76004F63740053657000417567CD
:10059000004A756C004A756E004D617900417072B9
:1005A000004D617200466562004A616E00300030A5
:1005B0000030005F5F5F0053756E0053617400464A
:1005C0007269005468750057656400547565004D84
:1005D0006F6E002026200073002064617900662E73
:1005E00011241FBECFEFD8E0DEBFCDBF25E0A2E3D0
:1005F000B1E001C01D92A834B207E1F711E0A0E01C
:10060000B1E0ECE7FEE702C005900D92A233B1071E
:10061000D9F712E0C0EFD2E004C02197FE010E949A
:10062000363FCF3ED107C9F70E941B2F0C943C3FA9
:100630000C94000091E09093D0038093F203109209
:10064000D1031092F30308959091A4038091A30322
:100650002FEF3FEF981748F4E92FF0E0ED57FC4FEC
:10066000208130E09F5F9093A403C9010895909189
:10067000A4038091A3032FEF3FEF981748F4E92FCD
:10068000F0E0ED57FC4F208130E09F5F9093A40392
:10069000C9010895E0912804F0912904805C09942F
:1006A0008F929F92AF92BF92CF92DF92EF92FF9282
:1006B0000F931F93CF930EE814E0C0E0C12CD12C10
:1006C0007601C394F80190E080E060E0219146015A
:1006D0005701082E04C0880C991CAA1CBB1C0A9444
:1006E000D2F72223E1F0682901968830910571F74D
:1006F000CF5FE0918904F0918A048C2F0995085FFF
:100700001F4FC930F9F6CF911F910F91FF90EF90D5
:10071000DF90CF90BF90AF909F908F90089580947E
:100720006821E2CF8230C8F4E82FF0E0EE0FFF1F1F
:10073000E050FF4F71836083813041F08091690008
:100740008C7F826080936900E89A089580916900A7
:10075000837F886080936900E99A0895209133042B
:1007600080913B04882349F0822F6AE00E942A3F4F
:10077000982F990F890F880F280F622F80E00E9411
:100780004A0380913B0420913204622F882349F070
:10079000822F6AE00E942A3F682F660F680F660F5B
:1007A000620F82E00E944A0390913C0480913B04D6
:1007B00020913104992309F462C0882349F0822FE3
:1007C0006AE00E942A3F982F990F890F880F280FFF
:1007D000622F84E00E944A0380913B0420913704F9
:1007E000622F882349F0822F6AE00E942A3F682FF7
:1007F000660F680F660F620F86E00E944A038091C1
:100800003B0420913004622F882349F0822F6AE054
:100810000E942A3F682F660F680F660F620F87E0FD
:100820000E944A0380913B0420912F04622F882369
:1008300049F0822F6AE00E942A3F682F660F680FF6
:10084000660F620F88E00E944A0320913B0480916A
:100850002D0490912E0464E670E00E94DA3E682F29
:10086000222351F0282F862F6AE00E942A3F682F0A
:10087000660F680F660F620F89E00C944A038823A5
:1008800029F02D3008F49BCF2CE899CF2D3008F4B7
:100890009FCF2CE89DCFCF92DF92EF92FF920F93E4
:1008A0001F93CF93DF93CDB7DEB764970FB6F8945D
:1008B000DEBF0FBECDBF20910D0530910E05611139
:1008C00033C012161306A4F4E9EFF4E050E040E060
:1008D000A191B1918A179B0709F461E04F5F5F4FC7
:1008E00042175307A9F7611110C02A30310569F08A
:1008F000F901EE0FFF1FE750FB4F918380832F5FBD
:100900003F4F30930E0520930D0564960FB6F89473
:10091000DEBF0FBECDBFDF91CF911F910F91FF9032
:10092000EF90DF90CF900895FE01319644E1DF0112
:100930001D924A95E9F71216130684F509EF14E0A3
:10094000780150E040E070E060E0D701CD90DD90AC
:100950007D018C159D0549F0DA01AA0FBB1FAE0F72
:10096000BF1FCD92DC924F5F5F4F6F5F7F4F62176B
:10097000730759F74115510589F090E080E0219106
:100980003191D8012D933D938D01019684179507E0
:10099000B1F750930E0540930D05B7CF50E040E0FE
:1009A000F8CF85ED8093BC001092CF031092CE0358
:1009B0008091BC0084FF0BC02091CE033091CF0307
:1009C00080910401909105012817390718F01092C1
:1009D000CD0308958091CE039091CF03019690931B
:1009E000CF038093CE03E4CF20915102260F33270B
:1009F000331F21323105ECF42091CD03FC0190E04E
:100A000080E0243069F082E00895A09151022191A4
:100A1000AC014F5C5D4FA40FB52FB11D2C93019617
:100A2000861798F380915102680F6093510280E01D
:100A3000089581E008950895E091A4038091A303AF
:100A4000E81730F4F0E0ED57FC4F808190E0089516
:100A50008FEF9FEF08958091A3039091A403891BCA
:100A6000990B0895CF92DF92EF92FF920F931F930D
:100A7000CF93DF937C01CB018A012091D003222305
:100A800089F0EB016B01C40ED51ECC15DD0569F0B4
:100A90006991D701ED91FC910190F081E02DC701A2
:100AA0000995F3CF642F0E94F404C801DF91CF9120
:100AB0001F910F91FF90EF90DF90CF900895CF930B
:100AC000DF931F92CDB7DEB769832091D003222335
:100AD000F9F02091F303203258F021E030E0FC01DE
:100AE0003383228390E080E00F90DF91CF910895CF
:100AF0008091D103E82FF0E0EE52FC4F9981908372
:100B00008F5F8093D1038093F30381E090E0ECCF7B
:100B100061E0CE0101960E94F404F7CF682F84EFC4
:100B200093E00C945F0508950F931F93CF93DF9389
:100B3000EC01062F1C811295107FE885F9856E81E6
:100B400080E10995E885F9856F8181E10995E8855E
:100B5000F985602F82E109956D81610FE885F9853E
:100B600083E109959F818E818F5F803260F48E834F
:100B7000983110F01F821E8281E090E0DF91CF91CA
:100B80001F910F9108951E8281E0890F8F83F0CF0E
:100B90000F931F93CF93DF938C01D0E0C0E0F80157
:100BA000EC0FFD1F6491662341F084E094E00E9405
:100BB0009405892B11F02196F2CFCE01DF91CF91D0
:100BC0001F910F91089580912204813009F041C056
:100BD00080912604863009F5109208048BE08093FA
:100BE00009048AE080930A048FE080930B04E0916B
:100BF0001004F0911104E785E15083EB95E0E730B4
:100C0000A0F4F0E0EA5FF94F0C94363F2606130695
:100C100017061A061D06200623068BE0809308049B
:100C200010920904DECF8FEC95E00C94C8058BEC94
:100C300095E0FBCF87EC95E0F8CF83EC95E0F5CF1E
:100C40008FEB95E0F2CF8BEB95E0EFCF87EB95E064
:100C5000ECCF089580912204813009F055C0809135
:100C60002604843031F5109208048BE08093090447
:100C70008AE080930A048CE080930B04E0911004D6
:100C8000F0911104E781E15089E795E0EC30C8F478
:100C9000F0E0E35BF94F0C94363F5F0663066606AF
:100CA00069066C066F067206750678067B067E0678
:100CB00081068BE08093080410920904D9CF89EA59
:100CC00095E00C94C80585EA95E0FBCF81EA95E0B4
:100CD000F8CF8DE995E0F5CF89E995E0F2CF85E988
:100CE00095E0EFCF81E995E0ECCF8DE895E0E9CF95
:100CF00089E895E0E6CF85E895E0E3CF81E895E0E7
:100D0000E0CF8DE795E0DDCF0895E0910E04F091FE
:100D10000F04DF01AB59BF4F8C91811113C080913B
:100D20002204811128C0809124048C30D9F41092BF
:100D300008048BE0809309048AE080930A0481E12F
:100D400080930B0483A9882399F082E595E00E94A3
:100D5000C8058FE0809308041092090480E595E0AF
:100D60000C94C8058BE08093080410920904E4CF2A
:100D700085E595E0F5CF089580910E0490910F04DC
:100D8000FC01EB59FF4F2081211112C02091220458
:100D9000211121C0209124042B30A1F410920804C9
:100DA000209309042AE020930A0420E120930B04F5
:100DB000825B9F4FFC018081882351F087E495E09E
:100DC0000C94C8052BE02093080410920904EACF84
:100DD0008EE395E0F5CF089580910E0490910F0475
:100DE000FC01EB59FF4F2081211113C020912204F7
:100DF00021112EC0209124042A30A1F4109208045D
:100E00002BE0209309042AE020930A042FE020938A
:100E10000B048F5A9F4FFC018081882349F0813059
:100E200059F008952BE02093080410920904EBCFA9
:100E300085E395E00C94C8058DE295E00E94C80515
:100E40008FE080930804109209048BE295E0F2CFC2
:100E5000089580910E0490910F04FC01EB59FF4F0F
:100E60002081211113C02091220421112BC0209137
:100E700024042930F1F4109208042BE02093090493
:100E80002AE020930A042EE020930B048E599F4FF2
:100E9000FC018081882399F080E295E00E94C805DA
:100EA0008FE080930804109209048EE195E00C9481
:100EB000C8052BE02093080410920904E1CF85E2D5
:100EC00095E0F5CF089580910E0490910F04FC01F8
:100ED000EB59FF4F2081211113C0209122042111D1
:100EE0002BC0209124042830F1F4109208042BE048
:100EF000209309042AE020930A042DE020930B0498
:100F00008F599F4FFC018081882399F087E195E0FC
:100F10000E94C8058FE0809308041092090485E1BF
:100F200095E00C94C8052BE0209308041092090466
:100F3000E1CF8AE195E0F5CF089580910E0490917C
:100F40000F04FC01EB59FF4F2081211113C02091A8
:100F50002204211122C0209124042630A9F41092E9
:100F600008042BE0209309042AE020930A042BE0D4
:100F700020930B04875A9F4FFC018081882351F0F6
:100F800086EF94E00C94C8052BE02093080410929F
:100F90000904EACF80EF94E0F5CF089580910E0424
:100FA00090910F04FC01EB59FF4F2081211112C0D9
:100FB00020912204211121C0209124042530A1F484
:100FC000109208042BE0209309042AE020930A04DD
:100FD00020930B04885A9F4FFC018081882351F095
:100FE00086EE94E00C94C8052BE020930804109240
:100FF0000904EBCF8CED94E0F5CF089580910E04B9
:1010000090910F04FC01EB59FF4F2081211113C077
:101010002091220421112BC0209124042430A9F412
:10102000109208042BE0209309042AE020930A047C
:1010300029E020930B04815A9F4FFC018081882373
:1010400051F083ED94E00C94C8052BE02093080444
:1010500010920904EACF8BEC94E00E94C8058FE05F
:10106000809308041092090489EC94E0ECCF089571
:1010700080910E0490910F04FC01EB59FF4F2081E9
:10108000211113C02091220421113FC0209124047A
:10109000233031F5109208042BE0209309042AE054
:1010A00020930A0428E020930B04FC01E25AFF4F2E
:1010B0002081805A9F4FFC018081811123C022230F
:1010C000A9F02130F9F485EC94E00E94C8058FE086
:1010D000809308041092090483EC94E00C94C805F2
:1010E0002BE02093080410920904D9CF8FEB94E0F1
:1010F0000E94C8058FE080930804109209048DEBCC
:1011000094E0ECCF88EB94E0E9CF089580910E0451
:1011100090910F04FC01EB59FF4F2081211113C066
:101120002091220421112BC0209124042230F1F4BB
:10113000109208042BE0209309042AE020930A046B
:1011400027E020930B04835A9F4FFC018081882362
:1011500099F081EB94E00E94C8058FE08093080429
:10116000109209048FEA94E00C94C8052BE02093B8
:10117000080410920904E1CF84EB94E0F5CF0895C0
:1011800080910E0490910F04FC01EB59FF4F2081D8
:10119000211113C02091220421112BC0209124047D
:1011A0002130F1F4109208042BE0209309042AE086
:1011B00020930A0426E020930B04845A9F4FFC01DD
:1011C0008081882399F088EA94E00E94C8058FE026
:1011D000809308041092090486EA94E00C94C805F0
:1011E0002BE02093080410920904E1CF8BEA94E0ED
:1011F000F5CF089520910E0430910F04F901EB59B9
:10120000FF4F8081811113C08091220481113BC066
:101210008091240481111FC0109208048BE08093F8
:1012200009048AE080930A0485E080930B04F901A5
:10123000E65AFF4F8081255A3F4FF9019081911165
:1012400082608230D1F08330D9F0813051F08EE964
:1012500094E00C94C8058BE0809308041092090474
:10126000E0CF87E994E00E94C8058FE080930804EE
:101270001092090485E994E0ECCF8DE894E0E9CF81
:1012800085E894E0E6CF0895CF93DF9310920A04A7
:1012900010920B04C8E1D0E260E084E094E00E9488
:1012A0009405D150C9F7C150B1F7DF91CF9108959E
:1012B000CF938FE0809308041092090410920A04DF
:1012C00086E180930B04C0E264EC84E094E00E9429
:1012D0009405C150C9F7CFE0C093080410920904E7
:1012E00010920A0487E180930B048CED91E00E9438
:1012F000C80587E0809308041092090488ED91E006
:101300000E94C805C0930804109209048DEC91E076
:10131000CF910C94C80510929D0110929C011092DF
:101320009B0110929A01109200031092FF021092FA
:10133000990110927E0210927902109298010895FC
:1013400090919D019F5F903408F090E020919C0166
:10135000291751F0E92FF0E0E85AFE4F808390936F
:101360009D0181E090E008958CEF9FEF0895833018
:1013700081F028F4813099F08230A9F00895873007
:10138000A9F08830C9F08430B1F4809180008F7D5D
:1013900003C0809180008F7780938000089584B58A
:1013A0008F7784BD089584B58F7DFBCF8091B00089
:1013B0008F778093B00008958091B0008F7DF9CF32
:1013C000CF93DF93282F30E0F901E754FE4F84914B
:1013D000F901EB55FE4FD491F901EF56FE4FC49140
:1013E000CC23A1F081110E94B709EC2FF0E0EE0FA1
:1013F000FF1FE957FE4FA591B491EC91ED2381E0D9
:1014000090E009F480E0DF91CF91089580E090E0D2
:10141000FACF1F93CF93DF93282F30E0F901E754E1
:10142000FE4F8491F901EB55FE4FD491F901EF562F
:10143000FE4FC491CC23A9F0162F81110E94B70949
:10144000EC2FF0E0EE0FFF1FE358FE4FA591B49193
:101450008FB7F894EC91111108C0D095DE23DC937E
:101460008FBFDF91CF911F910895DE2BF8CFCF93DF
:10147000DF93CCEBD0E018821092CD0381E0809313
:10148000CA031092A50361E082E10E94090A61E0AB
:1014900083E10E94090AE9EBF0E080818E7F80837E
:1014A00080818D7F808388E48093B80085E4888381
:1014B000DF91CF9108952091F30381E0213270F5FF
:1014C0008091F2031092CF031092CE039091CD033E
:1014D000992359F06091CE037091CF03409104019C
:1014E000509105016417750700F16091CE0370916A
:1014F000CF0340910401509105016417750700F175
:101500000E94D1040E94370A8091CB039091CC03B2
:1015100001969093CC038093CB0385E01092D10386
:101520001092F3031092D00308954091CE0350918E
:10153000CF034F5F5F4F5093CF034093CE03C6CF8F
:1015400092E09093CD0391E09093CA039FEF909324
:10155000C9031092C8032093C703A2EDB3E0E7EAE2
:10156000F3E090E029136BC01092A6039091A603BC
:10157000880F892B8093A6038091A503813009F001
:1015800062C01092A5031092CF031092CE038091F7
:10159000A6038093BB008091CE039091CF03019668
:1015A0009093CF038093CE038091BC0083FF0BC048
:1015B0002091CE033091CF038091040190910501D9
:1015C0002817390720F32091CE033091CF03809163
:1015D0000401909105012817390708F091CF85EC97
:1015E0008093BC001092CF031092CE038091CD0364
:1015F000823059F42091CE033091CF0380910401C1
:10160000909105012817390700F12091CE03309100
:10161000CF0380910401909105012817390708F044
:101620006FCF8091C9038F3FD1F08091C903803281
:10163000C1F08091C9038033B1F084E06FCF3D9158
:1016400031939F5F8FCF85EECBCF8091CE0390916A
:10165000CF0301969093CF038093CE03C7CF80E052
:101660005DCF82E05BCF83E059CFCF93DF93EC0176
:1016700088E60E941A0386E090E00E948E05CE0163
:1016800064E670E00E94C63E282F6AE00E942A3F6E
:10169000682F660F680F660F620F84EF93E00E9459
:1016A0005F05DF91CF910C945B0ACF93C82F88E63A
:1016B0000E941A0385E090E00E948E058C2F6AE05C
:1016C0000E942A3F682F660F680F660F6C0F84EF29
:1016D00093E00E945F05CF910C945B0ACF93C82FD3
:1016E00088E60E941A0384E090E00E948E058C2F09
:1016F0006AE00E942A3F682F660F680F660F6C0F22
:1017000084EF93E00E945F05CF910C945B0ACF9326
:10171000C82F88E60E941A0383E090E00E948E059D
:101720006C2F84EF93E00E945F05CF910C945B0ACD
:10173000CF93C82F88E60E941A0381E090E00E94B0
:101740008E058C2F6AE00E942A3F682F660F680F73
:10175000660F6C0F84EF93E00E945F05CF910C94AD
:101760005B0ACF93DF9390E0FC01EB55FE4F249191
:101770008F569E4FFC0184918823C9F090E0880F1A
:10178000991FFC01ED58FE4FA591B491FC01E3585F
:10179000FE4FC591D49161110DC09FB7F8948C9103
:1017A000209582238C938881282328839FBFDF91F3
:1017B000CF910895623051F49FB7F8943C91822FF5
:1017C000809583238C93E8812E2BEFCF8FB7F894ED
:1017D000EC912E2B2C938FBFEACFCF93C82F60E0D4
:1017E0000E94B10B61E08C2FCF910C94090ACF932A
:1017F000C82F61E00E94B10B60E08C2FCF910C9458
:10180000090ACF93DF93809357018093560110927A
:1018100099011092550180919801806C80939801F4
:1018200080919B0187FD0DC080919B0180FF09C0C5
:1018300080919A01809354018091980180618093F6
:10184000980180915301823009F443C0833061F4E0
:10185000E99881E090E0880F991FFC01E050FF4F6C
:1018600083E995E091838083D091520161E08D2FCF
:101870000E94090A61E08D2F0E94B10BC0915301B3
:1018800061E08C2F0E94090A61E08C2F0E94B10B4D
:1018900083E290E00197F1F760E08C2F0E94090A43
:1018A0008BEE90E00197F1F760E08D2F0E94090A1E
:1018B00062E08C2F0E94B10B80E0C23021F08FEFEC
:1018C000C33009F481E060EC71E1DF91CF910C94B9
:1018D0009203E89890E080E0BECF90919C018091C7
:1018E0009D01891799F180919B01816080939B01F3
:1018F00080919B0187FD2DC08091980187FD29C0B3
:1019000010929A012FEF3FEF9F5F903408F090E024
:10191000E92FF0E0E85AFE4F2F3F320771F42081A3
:1019200030E090939C0180919D018913EDCF822F2F
:101930000E94010C81E090E0089580818B3BB9F713
:1019400080919A018F5F80939A01EBCF8EEF9FEF8A
:1019500008958AE79FEF08958DEE0E94A0098BEB12
:101960000E94A009809179020E94A0098BEB0E943D
:10197000A009892B11F00C946D0C08950F931F93FF
:10198000CF93DF931091820380918103181B17FD81
:10199000105C01E01F3364F580910003A091FF0209
:1019A0008A1B87FD805C882319F180910003A817AA
:1019B000F9F0AF5FA03408F0A0E0A093FF02B0E020
:1019C000AA0FBB1FA158BD4FCD91DC9111978D91EE
:1019D0009C9192FDB0C02C2FCA3A20F08C2F815FD1
:1019E000823010F494FF0AC0DD27209709F0A5C0CB
:1019F000812FDF91CF911F910F91089580917E02E9
:101A000095FF18C0806880937E02D0E0C0E093FF0D
:101A10001EC0FE01EC52FD4FE4912E130DC0CB52BF
:101A2000DD4FFE01C491D0E02097D1F480917E0279
:101A3000D82BDBCF8F77E7CF2296C235D10549F778
:101A4000D0E0C0E0F3CF2296CE3DD105C9F3FE0130
:101A5000EA50FE4FE4912E13F6CFC950DE4FE1CF8E
:101A600080917E02FE01C430D10508F041C0E658E5
:101A7000FD4F87FF04C01082CBEBD0E01BC09081EC
:101A80009130D1F30083C230D10561F1C330D1056B
:101A900001F182E090917902292F282329F12091E8
:101AA0007E028095892380937902206820937E02AC
:101AB0000E94AC0C80917E029E012052310921349B
:101AC0003105B8F1CB38D105A1F1816080937E0258
:101AD000ADCF84FF05C08F7E80937E0284E0DACF95
:101AE0008061FACF81E0D6CF892B80937902E0CF55
:101AF0003697E830F10560F4E251FE4FE49187FF3C
:101B000005C0E095E823E0937E02D4CFE82BFBCF1D
:101B1000FE01B097EB30F10568F69091790291FFE4
:101B200002C086FFC7CFED51FE4FE491CE2FD0E02B
:101B3000C1CF8E7FCBCFC6E0D0E0CE0199278B3BC3
:101B4000910509F427CF892B09F424CF80918203D2
:101B50008F5F80340CF080E0E82FEE0FFF0BEF5F1B
:101B6000FC4FD183C083809382031F5F13CF0E94F9
:101B7000BE0C882381F0E0918103EF5FE03408F030
:101B8000E0E0E0938103F0E0EE0FFF1FEF5FFC4F1A
:101B900080819181089590E080E008953FB7F894A6
:101BA0008091490190914A01A0914B01B0914C0163
:101BB00026B5A89B05C02F3F19F00196A11DB11DA8
:101BC0003FBFBA2FA92F982F8827BC01CD01620FE4
:101BD000711D811D911D42E0660F771F881F991F9F
:101BE0004A95D1F708958F929F92AF92BF92CF926C
:101BF000DF92EF92FF924B015C010E94CE0D6B01D0
:101C00007C010E94CE0D6C197D098E099F09683EEA
:101C1000734081059105A8F321E0821A9108A1087B
:101C2000B10888EEC80E83E0D81EE11CF11C8114B7
:101C30009104A104B10429F7FF90EF90DF90CF90B9
:101C4000BF90AF909F908F900895CF93DF93CEE891
:101C5000D4E0FE01119284E0E73BF807D9F781E078
:101C60008093B7040E94500364E670E080E090E047
:101C70000E94F30D199284E0C73BD807D9F7109260
:101C8000B704DF91CF910C9450032FB7F894609173
:101C900045017091460180914701909148012FBF05
:101CA0000895CF92DF92EF92FF92CF93DF93EC01F2
:101CB0000E94450E6B017C010E94450E6C197D0946
:101CC0008E099F09643671058105910578F480912C
:101CD0006A040E94E0098C179D0771F781E0DF918B
:101CE000CF91FF90EF90DF90CF90089580E0F7CFF5
:101CF000CF93DF9390E080E00E94510E80916C04BE
:101D00000E94E009EC0181E090E00E94510ECE01BA
:101D1000DF91CF910895CF92DF92EF92FF920F93D0
:101D20001F93CF9380916A0490916B040E94ED0BF6
:101D300080916C0490916D040E94ED0B83EC90E017
:101D40000197F1F790E080E00E94510E8FE090E063
:101D50000197F1F781E090E00E94510EC0E010E0A1
:101D600000E0C12CD12C7601C3940E94780EB701FB
:101D7000A601002E04C0440F551F661F771F0A944A
:101D8000D2F7892BC9F0C42B0F5F1F4F0830110504
:101D900061F70E94780E0E94780E80916A049091FB
:101DA0006B040E94F70B8C2FCF911F910F91FF9026
:101DB000EF90DF90CF9008954095C423E5CF209118
:101DC0006C0430916D04019759F4C9010E94ED0B28
:101DD00081E090E00E94510E90E080E00C94510E62
:101DE000C9010E94F70BF4CFBF92CF92DF92EF921E
:101DF000FF920F931F93CF93DF93C82E80916C04B3
:101E000090916D040E94ED0B80916A0490916B0497
:101E10000E94ED0BCBEAD4E0CE010197F1F780915F
:101E20006A0490916B040E94F70B2197F1F780915F
:101E30006C0490916D040E94F70B83E290E001978F
:101E4000F1F780916A0490916B040E94ED0B90E091
:101E500080E00E94510EB82E882309F43FC0EE2482
:101E6000E394F12CD0E0C0E00C2C000CDD088601DE
:101E70000C2E02C0159507950A94E2F70170112700
:101E8000C8010E94DF0EE026F1262196C830D10558
:101E900071F7C7010E94DF0E80916C0490916D0470
:101EA0000E94ED0B83EC90E00197F1F790E080E069
:101EB0000E94510E80916A040E94E009892BD1F39F
:101EC00080916C040E94E009892BA1F380916A043F
:101ED00090916B040E94F70B0E948B0E8B2DDF916B
:101EE000CF911F910F91FF90EF90DF90CF90BF9017
:101EF000089580916A0490916B040E94ED0B80918B
:101F00006C0490916D040E94ED0B8FEF90E00E94A5
:101F1000F40E882321F00E948B0E0E948B0E88EE17
:101F200090E00E94F40E83E090E00E94F40E86EEB2
:101F300090E00E94F40E83EF90E00E94F40E88E29D
:101F400090E00E94F40E8AEE90E00E94F40E84EF7E
:101F500090E00E94F40E8BE891E00197F1F78091F8
:101F60006A0490916B0482309105A9F00397A9F05F
:101F70008FEF6FEC7FE00E94920380916A04909152
:101F80006B040E94ED0B80916C0490916D040E9493
:101F9000ED0B81E0089580E0ECCF81E0EACFCF92B5
:101FA000DF92EF92FF920F931F93CF9380913002B5
:101FB0000E94E0098C01C1E0892B09F4C0E00E9475
:101FC000450EC0902C02D0902D02E0902E02F09091
:101FD0002F029B01AC012C193D094E095F096901D3
:101FE0007A013BE0C316D104E104F10430F0109211
:101FF0002B0210922A021092290260932C027093F5
:102000002D0280932E0290932F0280912B028F5FDE
:1020100080932B028A3048F4823010F58130A1F091
:1020200010922B0210922A020CC08A3059F18B3088
:10203000B9F7809128028D3F78F110922A02109210
:102040002B021092290204C0109229021092280239
:10205000CF911F910F91FF90EF90DF90CF90089557
:1020600080912802C80FC09328028091290290E035
:102070009595879520E0012B09F020E8822B80932D
:102080002902E6CF8091280281708C1719F0809385
:102090002802DECF8DEFFBCF80912A028130A1F1A3
:1020A00030F1823061F68091290290E09093250210
:1020B0008093240210922A0280911F028F5F803148
:1020C00008F080E090911E02981709F4B8CF48E01C
:1020D000849FD0011124A256BE4F98E0E0E2F2E0C6
:1020E00001900D929A95E1F780931F02A8CF8091FD
:1020F000290290E0909321028093200280912A028D
:102100008F5F80932A029BCF8091290290E0909369
:10211000230280932202F2CFCF92DF92EF92FF92BE
:10212000CF93DF93909147059111B7C0D62FC82F59
:102130000E94450EE091470527E02E9FA001112443
:1021400048575B4FDA01A757BF4F6D937D938D932F
:102150009C93139714961C9215971C9249575F4FA6
:10216000DA01CC9341E04E0F249FA001112448577F
:102170005B4FDA01A757BF4F6B017C01FAEFCF0E1F
:10218000D11CE11CF11CCD92DD92ED92FC921397D3
:1021900014961C9215973FE03C9349575F4FDA0124
:1021A000CC9342E04E0F249FA001112448575B4F6F
:1021B000DA01A757BF4F6B017C01F4EFCF0EF1E0BE
:1021C000DF1EE11CF11CCD92DD92ED92FC92139783
:1021D0001496F1E0FC9315973C9349575F4FDA0151
:1021E000CC9343E04E0F249FA001112448575B4F2E
:1021F000DA01A757BF4F6B017C013EEEC30E32E000
:10220000D31EE11CF11CCD92DD92ED92FC9213974E
:1022100014961C921597DC9349575F4FDA01CC93C3
:1022200044E04E0F249FA001112448575B4FDA0170
:10223000A757BF4F6B017C0138EEC30E33E0D31EAE
:10224000E11CF11CCD92DD92ED92FC921397149655
:10225000FC931597DC9349575F4FDA01CC9335E037
:102260003E0F239F9001112428573B4FD901A757B8
:10227000BF4F6E517B4F8F4F9F4F6D937D938D93CB
:102280009C9313971496FC9315971C9229573F4FD4
:10229000D901CC93EA5FE0934705DF91CF91FF909E
:1022A000EF90DF90CF900895CF92DF92EF92FF9260
:1022B0000F931F93CF93DF93D82FF62EC42F0E9436
:1022C000450EE090470528E02E1508F450C000E0C8
:1022D00010E09801CC2321F00AE010E020E030E08B
:1022E00047E0E49EF0011124E857FB4FAF01475748
:1022F0005F4F060F171F281F391FDA010D931D931B
:102300002D933C9313979F0123573F4FD901CC93B3
:1023100025503109D9011C92E957FF4FD08341E084
:102320004E0D0AE010E020E030E0CC2319F000E090
:1023300010E09801B7E04B9FA0011124FA01E85783
:10234000FB4FE757FF4FAB01BC01400F511F621F0E
:10235000731F40835183628373833496C0833597A0
:10236000F0823197D08382E08E0D80934705DF9114
:10237000CF911F910F91FF90EF90DF90CF90089534
:10238000CF92DF92EF92FF920F931F93CF938091A2
:10239000980186FF72C0809199018F5F80939901A7
:1023A000809199018A3048F4823098F560E081305C
:1023B00009F448C0109299019DC08B3009F44DC0BA
:1023C000E8F18C30B9F7809156018E3E69F080912A
:1023D00056018E3F49F08091560180934D018091C6
:1023E0009801826080939801809198018F7B8093FF
:1023F000980180919B0187FF3CC080919B018F7762
:1024000080939B018091980184FDD4CF0E946D0C34
:10241000D1CFC0915701C1706C2F809152010E94A1
:10242000090A80915501C80FC09355018091570149
:1024300090E095958795809357015CC06091550118
:102440006095617080915201CF911F910F91FF9023
:10245000EF90DF90CF900C94090A62E080915201D6
:10246000CF911F910F91FF90EF90DF90CF900C9440
:10247000B10B80919B018E7FC3CF809152010E944E
:10248000E009C82F0E94450E00914E0110914F01A6
:1024900020915001309151016B017C01C01AD10A89
:1024A000E20AF30A970186010B3F11052105310568
:1024B00020F0109299011092570160934E01709391
:1024C0004F018093500190935101809199018F5F4A
:1024D00080939901809199018A30A0F4823020F58F
:1024E000813009F067CF1092550180919801806882
:1024F00080939801CF911F910F91FF90EF90DF9003
:10250000CF9008958A3019F18B3009F053CF809124
:1025100055018D3F48F18EEF0E94010C80919B0187
:10252000806880939B0146CF809155018C0F8093EA
:1025300055018091570190E09595879580935701BB
:1025400090E0C11190E880915701892B74CF809160
:10255000550181708093550180915501C813CACFF0
:102560008DEF80935501C6CF809157018E3F29F0A2
:10257000909198019D7F909398019091980194FF7C
:1025800002C0803F70F09091980192FD91C08E3E04
:1025900009F477C0E8F48A3A09F47FC020F488236C
:1025A00059F186E02CC0803E09F47BC0813EC9F71A
:1025B0008091980182FD1AC087E080935401809138
:1025C0009801846080939801809198018F7D0CC060
:1025D0008C3F09F44EC060F4803F19F781E080938E
:1025E00054018091980180628093980180E007C037
:1025F0008E3FA9F18F3FA9F60E948B098CE081FFE5
:1026000005C09091540191509093540190915401C0
:10261000191614F482FF1EC0909100039F5F90343E
:1026200008F090E02091FF022917A1F020915701B6
:10263000E92FF0E030E0EE0FFF1FE158FD4F31834E
:1026400020834091980120813181342B3183208374
:1026500090930003807171F1809156015DCF80915C
:10266000980181FFC3CF80914D018093560180E195
:10267000C6CF109254011092980110929B018EE0E7
:10268000BECF9091980191FF0AC090914D019E3E5E
:1026900031F08093560184E1B2CF1092540184E06E
:1026A000AECF81E0809354018091980188609CCFE7
:1026B00082E0A5CF8091540118160CF47BCE809156
:1026C0009801837C80939801109254018091980125
:1026D0008F77809398019ACEAF92BF92CF92DF927C
:1026E000EF92FF920F931F93CF93DF936C017B01C7
:1026F0008B01040F151FEB015E01AE18BF08C01758
:10270000D10759F06991D601ED91FC910190F081CA
:10271000E02DC6010995892B79F7C501DF91CF918D
:102720001F910F91FF90EF90DF90CF90BF90AF90EF
:102730000895089590E080E00895FC01DC01AD5912
:10274000BF4F9C9181E098279C9393AB0380F481C9
:10275000E02D70E060E08DE009948F929F92AF923F
:10276000BF920F931F93CF93DF93CDB7DEB7A1979F
:102770000FB6F894DEBF0FBECDBF19A2423008F4E9
:102780004AE08E010F5D1F4F842E912CB12CA12C9D
:10279000A50194010E94EE3EE62FB901CA01EA307C
:1027A00044F5E05DD801EE938D01232B242B252BDE
:1027B00079F790E080E0109769F0FD01019000202A
:1027C000E9F73197AF014A1B5B0BBD0184E094E050
:1027D0000E946C13A1960FB6F894DEBF0FBECDBF5A
:1027E000DF91CF911F910F91BF90AF909F908F90ED
:1027F0000895E95CD7CF462F682F70E090E080E025
:102800000C94AD1380912204813049F58091260407
:102810008330F9F4109208048BE0809309048AE075
:1028200080930A048BE080930B04E0911004F091F4
:10283000110480858A3020F487E795E00E94C8055E
:10284000E0911004F09111046AE070E080850C942E
:10285000FB138BE08093080410920904E0CF0895E5
:1028600080912204813049F5809126048230F9F468
:10287000109208048BE0809309048AE080930A0494
:1028800089E080930B04E0911004F091110483859A
:102890008A3020F485E795E00E94C805E091100495
:1028A000F09111046AE070E083850C94FB138BE0D7
:1028B0008093080410920904E0CF089580912204C7
:1028C000813049F5809126048130F9F41092080492
:1028D0008BE0809309048AE080930A0488E0809367
:1028E0000B04E0911004F091110482858A3020F4E9
:1028F00083E795E00E94C805E0911004F09111046F
:102900006AE070E082850C94FB138BE080930804EE
:1029100010920904E0CF089580912204813049F596
:102920008091260481111FC0109208048BE08093CF
:1029300009048AE080930A0487E080930B04E09105
:102940001004F091110481858A3020F481E795E02C
:102950000E94C805E0911004F09111046AE070E053
:1029600081850C94FB138BE080930804109209047A
:10297000E0CF08951F93CF93DF93182FD62FC42F46
:1029800089E080930804109209048AE080930A0485
:1029900083E180930B04103120F487E695E00E94D8
:1029A000C80560E170E0812F0E94FB1385E695E089
:1029B0000E94C805D03120F483E695E00E94C80546
:1029C00060E170E08D2F0E94FB1381E695E00E948C
:1029D000C805C03120F48FE595E00E94C80560E18C
:1029E00070E08C2FDF91CF911F910C94FB13CF934C
:1029F00080918D04882321F180911204882301F1B4
:102A00008091EC048823E1F080912204811118C0A8
:102A1000C62F89E080930804109209048AE080930D
:102A20000A0484E180930B04603120F486E293E091
:102A30000E94C80560E170E08C2FCF910C94FB13CD
:102A4000CF910895009769F0FC0101900020E9F70B
:102A50003197AF01481B590BBC0184E094E00C9402
:102A60006C1390E080E00895CF92DF92EF92FF9296
:102A7000CF93DF936C01990FEE08FF08F7FE19C0A2
:102A80006DE284E094E00E949405EC0166277727CC
:102A9000CB016C197D098E099F094AE00E94AD1394
:102AA0008C0F9D1FDF91CF91FF90EF90DF90CF9023
:102AB00008954AE0C701B601DF91CF91FF90EF90F2
:102AC000DF90CF900C94AD1380912204813009F0F7
:102AD00043C0809126048530C9F5109208048BE02C
:102AE000809309048AE080930A048DE080930B04AC
:102AF000E0911004F091110485819681883E934005
:102B000024F481EB95E00E94C805E0911004F09157
:102B10001104858196818436910524F48FEA95E02D
:102B20000E94C805E0911004F091110485819681FE
:102B30000A9724F48DEA95E00E94C805E0911004FC
:102B4000F0911104858196810C9434158BE080936B
:102B5000080410920904C6CF08954F925F926F92B5
:102B60007F928F929F92AF92BF92CF92DF92EF921D
:102B7000FF92CF93DF9300D000D0CDB7DEB70E9495
:102B8000450EC0901E04D0901F04E0902004F090E9
:102B900021042B013C014C185D086E087F08C3011D
:102BA000B20128EE33E040E050E00E94EE3E29837F
:102BB0003A834B835C83C301B20120E63AEE40E0E6
:102BC00050E00E94EE3E69017A01C301B20120E8A3
:102BD0003EEE46E350E00E94EE3E49015A01C30139
:102BE000B20120E03CE546E255E00E94EE3E2901BC
:102BF0003A01ACE3B0E0A70196010E94103F2981A1
:102C00003A814B815C81261B370B480B590B29837A
:102C10003A834B835C83A50194010E94103FC61A3E
:102C2000D70AE80AF90AA8E1B0E0A30192010E94DC
:102C3000103F861A970AA80AB90A8EE080930A0400
:102C40008BE080930B048FE08093080410920904BA
:102C50004114510461047104B1F04AE0C301B201AE
:102C60000E94AD1389ED95E00E94C8054A9445285D
:102C70004628472821F087ED95E00E94C80583ED9E
:102C800095E00E94C8054AE084169104A104B104AD
:102C900020F490E080E00E9434154AE0C501B401C0
:102CA0000E94AD1384E291E00E9422155AE0C516FD
:102CB000D104E104F10420F490E080E00E94341596
:102CC0004AE0C701B6010E94AD1384E291E00E9480
:102CD000221589819A81AB81BC810A97A105B10532
:102CE00020F490E080E00E9434154AE069817A8106
:102CF0008B819C810F900F900F900F90DF91CF915F
:102D0000FF90EF90DF90CF90BF90AF909F908F900B
:102D10007F906F905F904F900C94AD1387E08093FD
:102D200008041092090488E180930A0410920B04AD
:102D3000E0911004F091110481858A3020F486E23C
:102D400091E00E942215E0911004F09111046AE0D4
:102D500070E081850E94FB138FE695E00E94C80514
:102D6000E0911004F091110482858A3020F486E20B
:102D700091E00E942215E0911004F09111046AE0A4
:102D800070E082850E94FB138DE695E00E94C805E5
:102D9000E0911004F091110483858A3020F486E2DA
:102DA00091E00E942215E0911004F09111046AE074
:102DB00070E083850E94FB1387E0809308041092E3
:102DC000090486E180930A0481E080930B04E0917A
:102DD0001004F091110480858A3020F486E291E09D
:102DE0000E942215E0911004F09111046AE070E055
:102DF00080850E94FB138BE695E00E94C805E09158
:102E00001004F091110487818A3020F486E291E069
:102E10000E942215E0911004F09111046AE070E024
:102E200087810E94FB1389E695E00E94C805E09126
:102E30001004F0911104858196810E9434158091CF
:102E40002204813071F40E948C140E945E140E944E
:102E500030140E9402140E942A060E9464150E94E7
:102E6000E30580912204843011F40C94AD1508958B
:102E70000F931F93CF93DF9310920A0410920B04C9
:102E80001FE0109308041092090460E884E094E0C5
:102E90000E94940561E884E094E00E94940562E851
:102EA00084E094E00E94940563E884E094E00E944A
:102EB000940564E884E094E00E94940565E884E069
:102EC00094E00E94940562E884E094E00E949405F6
:102ED00063E884E094E00E94940566E884E094E06E
:102EE0000E94940567E884E094E00E94940562E8FB
:102EF00084E094E00E94940563E884E094E00E94FA
:102F0000940568E884E094E00E94940569E884E010
:102F100094E00E94940510920A0401E000930B04CF
:102F200060E984E094E00E94940561E984E094E023
:102F30000E94940562E984E094E00E94940563E9AC
:102F400084E094E00E94940564E984E094E00E94A7
:102F5000940565E984E094E00E94940562E984E0C8
:102F600094E00E94940563E984E094E00E94940553
:102F700066E984E094E00E94940567E984E094E0C7
:102F80000E94940562E984E094E00E94940563E95C
:102F900084E094E00E94940568E984E094E00E9453
:102FA000940569E984E094E00E949405C8E0C09328
:102FB0000A04D2E0D0930B046AE884E094E00E9413
:102FC00094056BE884E094E00E94940564E884E052
:102FD00094E00E94940565E884E094E00E949405E2
:102FE0006CE884E094E00E9494056DE884E094E04D
:102FF0000E949405C0930A04C3E0C0930B046AE9DD
:1030000084E094E00E9494056BE984E094E00E94DF
:10301000940564E984E094E00E94940565E984E005
:1030200094E00E9494056CE984E094E00E94940589
:103030006DE984E094E00E94940500930A04D09323
:103040000B0489E0809308041092090466E184E08F
:1030500094E00E9494058DE0809308041092090486
:1030600066E184E094E00E94940585E08093080482
:103070001092090466E184E094E00E949405C093F4
:1030800008041092090466E184E094E00E9494052B
:103090000EE0009308041092090483E180930A046F
:1030A000D0930B048FE794E00E94C805609114044C
:1030B00084E094E00E9494056091150484E094E01B
:1030C0000E9494056091160484E094E00E949405A7
:1030D0006091170484E094E00E94940560911804C4
:1030E00084E094E00E9494056091190484E094E0E7
:1030F0000E94940560911A0484E094E00E94940573
:1031000060911B0484E094E00E94940500930804FD
:103110001092090484E180930A04C0930B048AE7A7
:1031200094E00E94C80580911C0490911D040E94A7
:103130002215109308041092090410920A0484E0E6
:1031400080930B04C0E264EC84E094E00E94940558
:10315000C150C9F7DF91CF911F910F910C948E163A
:1031600080918D04882349F080911204882329F0EE
:103170008091EC0481110C948E1608950F931F9387
:10318000CF93DF93EC0189E0809308041092090447
:103190008AE080930A0482E180930B040D2F1127AB
:1031A0000031110520F48DE595E00E94C805B801B5
:1031B00090E080E040E10E94AD138BE595E00E9435
:1031C000C805DD27C031D10520F489E595E00E94CE
:1031D000C805BE0190E080E040E1DF91CF911F91F2
:1031E0000F910C94AD131092CF031092CE038091E7
:1031F000CD03882359F02091CE033091CF038091E5
:1032000004019091050128173907F0F02091CE03B1
:103210003091CF038091040190910501281739075F
:10322000E8F00E94D1040E94370A8091CB0390916C
:10323000CC0301969093CC038093CB0380E0109253
:10324000A4038093A30308958091CE039091CF03AC
:1032500001969093CF038093CE03C9CF81E08093F2
:10326000CD038093CA039FEF9093C9031092C803C4
:103270001092C7038093A6038091A603806D80936C
:10328000A6038091A503813009F062C01092A503C6
:103290001092CF031092CE038091A6038093BB00BF
:1032A0008091CE039091CF0301969093CF038093AA
:1032B000CE038091BC0083FF0BC02091CE033091E0
:1032C000CF0380910401909105012817390720F35D
:1032D0002091CE033091CF0380910401909105019C
:1032E0002817390708F09DCF85EC8093BC00109219
:1032F000CF031092CE038091CD03813059F42091F9
:10330000CE033091CF0380910401909105012817DD
:10331000390700F12091CE033091CF038091040151
:10332000909105012817390708F07BCF8091C803D9
:1033300081111AC08091C803A7EAB3E0E3E8F3E083
:1033400090E0981709F47BCF2D9121939F5FF9CFDF
:1033500085EECBCF8091CE039091CF0301969093D1
:10336000CF038093CE03C7CF81E0E6CF88E60E94EB
:103370001A0382E090E00E948E050E945B0A0E9480
:10338000F3180E94370326E0969587952A95E1F772
:1033900081700895CF93DF93C82F0E94B619D82F5C
:1033A00088E60E941A0382E090E00E948E058C2F2E
:1033B000D11110C06AE00E942A3F682F660F680F83
:1033C000660F6C0F84EF93E00E945F05DF91CF9151
:1033D0000C945B0ACD3078F06CE00E942A3F292FD4
:1033E000892F6AE00E942A3F682F660F680F660FD8
:1033F000620F6066E7CF6AE00E942A3F682F660F7F
:10340000680F660F6C0F6064DDCFCF9388E60E9473
:103410001A0382E090E00E948E050E945B0A0E94DF
:10342000F3180E943703C82F88E60E941A0382E02F
:1034300090E00E948E056C2F6F7B84EF93E00E94DA
:103440005F05CF910C945B0ACF93C82F88E60E944A
:103450001A0390E080E00E948E050E945B0A0E94A1
:10346000F3180E9437038078C82B88E60E941A035D
:1034700090E080E00E948E058C2F6AE00E942A3F37
:10348000682F660F680F660F6C0F84EF93E00E9441
:103490005F05CF910C945B0A88E60E941A0390E0C6
:1034A00080E00E948E050E945B0A0E94F3180E9431
:1034B00037038F77282F30E094E0359527959A953C
:1034C000E1F7922F990F990F291B220F820F089570
:1034D00088E60E941A0381E090E00E948E050E9417
:1034E0005B0A0E94F3180E9437039C0194E0359513
:1034F00027959A95E1F72F703327922F990F990FFF
:10350000291B220F820F0895CF930E94B619C82F4E
:1035100088E60E941A0382E090E00E948E050E94D5
:103520005B0A0E94F3180E943703C11110C0AC015E
:1035300094E0559547959A95E1F74F705527942F4C
:10354000990F990F491B440F840FCF910895482F6D
:103550004F79242F30E084E0359527958A95E1F75F
:10356000822F880F880F922F981B892F880FECCFFE
:1035700088E60E941A0383E090E00E948E050E9474
:103580005B0A0E94F3180E943703089588E60E94A0
:103590001A0384E090E00E948E050E945B0A0E945C
:1035A000F3180E9437039C0194E0359527959A956E
:1035B000E1F72F703327922F990F990F291B220FB4
:1035C000820F089588E60E941A0385E090E00E9429
:1035D0008E050E945B0A0E94F3180E9437039C012B
:1035E00094E0359527959A95E1F72F703327922F20
:1035F000990F990F291B220F820F089588E60E94C8
:103600001A0386E090E00E948E050E945B0A0E94E9
:10361000F3180E9437039C0194E0359527959A95FD
:10362000E1F72F703327922F990F990F291B220F43
:10363000820F90E08053984F0895CF9388E60E94C0
:103640001A0390E080E00E948E050E945B0A0E94AF
:10365000F3180E943703C82F88E60E941A0390E0EF
:1036600080E00E948E056C2F6F7784EF93E00E94BC
:103670005F05CF910C945B0A88E60E941A0390E0E4
:1036800080E00E948E050E945B0A0E94F3180E944F
:1036900037038095881F8827881F0895CF93DF936D
:1036A000EC010E94051A88850E946E0B8F810E9492
:1036B000550B8D819E810E94350B8F850E94870B53
:1036C00089850E94CA198A850E94980B8B850E9461
:1036D000241A0E943C1B811104C0DF91CF910C94ED
:1036E0001D1BDF91CF9108950C94B03E0F931F9353
:1036F000CF93DF93D0E0C0E004E610E0CE3008F0D6
:1037000008C1EC2FF0E0E957F44E0C94363F951BBE
:10371000B11BC31BD51BE71B071C271C391C4B1CEB
:103720005D1C741C7C1C831C861C209133048091BE
:103730003B04882349F0822F6AE00E942A3F982F99
:10374000990F890F880F280F622F80E00E944A038B
:103750002196C034D10591F6DF91CF911F910F9141
:1037600008952091340480913B04882349F0822FEE
:103770006AE00E942A3F982F990F890F880F280F1F
:10378000622F81E0E3CF2091320480913B048823B3
:1037900049F0822F6AE00E942A3F982F990F890FE3
:1037A000880F280F622F82E0D1CF209135048091BD
:1037B0003B04882349F0822F6AE00E942A3F982F19
:1037C000990F890F880F280F622F83E0BFCF809158
:1037D0003B042091310490913C04992371F088239B
:1037E00049F0822F6AE00E942A3F982F990F890F93
:1037F000880F280F622F84E0A9CF882321F02D3075
:1038000080F32CE8EECF2D30A8F32CE8F3CF809195
:103810003B042091360490913C04992371F0882355
:1038200049F0822F6AE00E942A3F982F990F890F52
:10383000880F280F622F85E089CF882321F02D3053
:1038400080F32CE8EECF2D30A8F32CE8F3CF2091B5
:10385000370480913B04882349F0822F6AE00E945C
:103860002A3F982F990F890F880F280F622F86E023
:103870006DCF2091300480913B04882349F0822F42
:103880006AE00E942A3F982F990F890F880F280F0E
:10389000622F87E05BCF20912F0480913B04882327
:1038A00049F0822F6AE00E942A3F982F990F890FD2
:1038B000880F280F622F88E049CF80912D049091C6
:1038C0002E04B8010E94DA3E282F90913B049923E0
:1038D00041F06AE00E942A3F982F880F890F880FD5
:1038E000820F682F89E032CF8AE190E00E94741B3A
:1038F000682F6F778AE02ACF8BE190E00E94741BDB
:10390000682F8BE023CF60E08CE020CF60E88DE073
:103910001DCFCE0140960E94741B682F8C2F16CFAE
:10392000FF920F931F93CF93DF93EC01F62E088144
:103930001981C8010E94B03EF81621F06F2DC80110
:103940000E94B83ECE01DF91CF911F910F91FF9061
:103950000895CF93DF9300D0CDB7DEB761110CC0CF
:1039600064E19A838983CE0101960E94901C0F9096
:103970000F90DF91CF9108956AE0F3CFEF92FF921D
:103980000F931F93CF93DF93EC01962F91707E01DD
:103990008EE5E80EF11CD7019C938E01005A1F4F53
:1039A00061FB882780F9F8018083692F88E090E027
:1039B0000E94A91CD8016C918AE090E00E94A91C89
:1039C000FE01EC5BFF4FD7018C918083CA5BDF4F18
:1039D000F80180818883DF91CF911F910F91FF9033
:1039E000EF900895EF92FF920F931F93CF93DF9381
:1039F000EC01865A9F4F7C018E01055A1F4F6130A2
:103A000029F1F8F0623029F1633049F1F701608162
:103A100084E090E00E94A91CF801608185E090E0BC
:103A20000E94A91CF70180818FAFC05CDF4FF801B5
:103A300080818883DF91CF911F910F91FF90EF904C
:103A40000895FC011082F8011082E0CFFC01608330
:103A5000FACFFC01108281E0F8018083D7CF81E0AA
:103A6000F7018083F9CF90918D04992309F444C024
:103A700090911204992309F43FC0882319F08130F2
:103A800059F10895609171046093DB048CE090E03B
:103A90000E94A91C61E080E10E94090A64E670E0CE
:103AA00080E090E00E94F30D60E080E10E94090A4E
:103AB00064E670E080E090E00E94F30D61E080E158
:103AC0000E94090A64E670E080E090E00E94F30D35
:103AD00060E080E10C94090A8091EC04882361F095
:103AE00080912204811108C0409185046091840472
:103AF000809183040C94BA140895EF92FF921F935F
:103B0000CF93DF9300D0CDB7DEB77C01162F0E9494
:103B1000741B8A3011F0843169F411E08A3009F0A5
:103B200010E0812F0F900F90DF91CF911F91FF90A8
:103B3000EF90089564E111116AE0FA82E982CE0102
:103B400001960E94901CEDCFEF92FF921F93CF93AE
:103B5000DF9300D0CDB7DEB77C01FC01EE5AFF4FFA
:103B60001081611708F4162FF701EF5AFF4F1083E9
:103B70008EE090E09A838983612FCE0101960E94A6
:103B8000901CF701E55BFF4F812F81708083319698
:103B90001695117010830F900F90DF91CF911F91A8
:103BA000FF90EF900895EF92FF920F931F93CF93A2
:103BB000DF9300D0CDB7DEB78C017C018FE4E80E37
:103BC000F11CF70160831A821982CE0101960E94CE
:103BD000901CF7018081982F9170F80190ABE65B03
:103BE000FF4F8695817080830F900F90DF91CF916A
:103BF0001F910F91FF90EF900895CF93DF938091E5
:103C00000E0490910F04FC01EB59FF4F208121110C
:103C100013C02091220421115FC020912404273079
:103C200011F5109208042BE0209309042AE0209358
:103C30000A042CE020930B04FC01E05BFF4F608141
:103C4000EC01C15BDF4F2881621710F40E94D31D85
:103C500088818130E9F068F0823031F1833081F180
:103C60008CEF94E011C02BE020930804109209041B
:103C7000DDCF81E195E00E94C8058FE080930804C4
:103C8000109209048FE095E0DF91CF910C94C80564
:103C90008CE095E00E94C8058FE0809308041092A4
:103CA00009048AE095E0F0CF87E095E00E94C8051E
:103CB0008FE0809308041092090485E095E0E4CF3A
:103CC00082E095E00E94C8058FE08093080410927E
:103CD000090480E095E0D8CFDF91CF910895FF925D
:103CE0000F931F93CF93DF931092220480910E04C1
:103CF00090910F04FC01EB59FF4F1082835B9F4FA3
:103D0000FC0110820FE000930804109209040E9445
:103D100044090E943817C5E0C093080410920904B2
:103D200010920A04C0930B0480E794E00E94C80537
:103D30000E94FA08D7E0D09308041092090414E115
:103D400010930A04C0930B0485E694E00E94C80512
:103D5000C09308041092090410920A0486E0F82E19
:103D6000F0920B048BE594E00E94C8050E94C00805
:103D7000D09308041092090410930A04F0920B04E3
:103D800083E594E00E94C805C093080410920904DA
:103D900010920A04D0930B048CE494E00E94C805AE
:103DA0000E948608D09308041092090410930A0414
:103DB000D0930B0484E494E00E94C805C0930804E7
:103DC0001092090410920A0498E0F92EF0920B0464
:103DD0008BE394E00E94C8050E943808D093080441
:103DE0001092090410930A04F0920B0483E394E008
:103DF0000E94C805C09308041092090410920A0496
:103E000029E0F22EF0920B0489E294E00E94C805AA
:103E10000E94FE07D09308041092090410930A042C
:103E2000F0920B0481E294E00E94C805C09308045C
:103E30001092090410920A043AE0F32EF0920B0457
:103E40008AE194E00E94C8050E94CE07D09308043E
:103E50001092090410930A04F0920B0482E194E09A
:103E60000E94C805C09308041092090410920A0425
:103E70004BE0F42EF0920B048BE094E00E94C80516
:103E80000E949D07D09308041092090410930A041D
:103E9000F0920B0482E094E00E94C805C0930804ED
:103EA0001092090410920A045CE0F52EF0920B04C3
:103EB0008BEF93E00E94C8050E94FD1DD09308047B
:103EC0001092090410930A04F0920B0482EF93E01D
:103ED0000E94C805C09308041092090410920A04B5
:103EE0006DE0F62EF0920B0488EE93E00E94C80578
:103EF0000E946307D09308041092090410930A04E7
:103F0000F0920B048FED93E00E94C805C093080463
:103F10001092090410920A047EE0F72EF0920B042E
:103F200085ED93E00E94C8050E942907D0930804FC
:103F30001092090410930A04F0920B048EEC93E0A3
:103F40000E94C805C09308041092090410920A0444
:103F500000930B0486EC93E00E94C8050E94EC06D7
:103F6000D09308041092090410930A0400930B04E0
:103F70008FEB93E00E94C805C093080410920904D7
:103F800010920A0400E100930B0485EB93E00E9479
:103F9000C8050E94BC06D09308041092090410932F
:103FA0000A0400930B048EEA93E00E94C805C093B4
:103FB00008041092090410920A0401E100930B0412
:103FC00087EA93E00E94C8050E948506D093080402
:103FD0001092090410930A0400930B0481EA93E001
:103FE0000E94C80510920904C093080410920A04A4
:103FF00082E180930B0487E993E00E94C8058091D9
:104000002204811104C090E080E00E94BE1885E087
:10401000809308041092090410920A0483E18093AB
:104020000B0480E993E00E94C8058091220481116D
:1040300004C040E060E00E94BA1485E08093080468
:104040001092090410920A04C4E1C0930B0486E89C
:1040500093E00E94C80580912204811113C089E079
:1040600080930804109209048AE080930A04C093A4
:104070000B0486E293E00E94C80560E170E080E0F6
:104080000E94FB13D4E1D0930A0482E180930B04D5
:1040900007E00093080411E01093090484E893E01A
:1040A0000E94C805CFE0C0930804109209048AE773
:1040B00093E00E94C805C093080410920904D093AD
:1040C0000A0483E180930B0483E793E00E94C80510
:1040D000009308041093090481E793E00E94C80547
:1040E000C0930804109209048DE693E00E94C8056D
:1040F000D0930A04D0930B0400930804109309048E
:104100008BE693E00E94C805C0930804109209044E
:1041100086E693E00E94C80510920A0485E1809328
:104120000B04C0E264EC84E094E00E949405C1506A
:10413000C9F7CFE0C09308041092090410920A0452
:1041400086E180930B048FE593E00E94C805D7E0D9
:10415000D09308041092090482E593E00E94C805F8
:10416000C09308041092090487E493E00E94C805F4
:10417000C09308041092090410920A0487E1809306
:104180000B0480E493E00E94C805D09308041092C9
:10419000090487E393E00E94C805C09308041092C5
:1041A000090488E293E0DF91CF911F910F91FF9076
:1041B0000C94C8050F931F93CF93C82F8B010E94B7
:1041C000450E80914301811104C061E080E10E94AD
:1041D000090A80911204882309F42FC18091EC040C
:1041E000882309F469C0C03108F027C1EC2FF0E042
:1041F000E450FF4D0C94363F0C2111211B2120214E
:1042000025212A212F21342139213E2143211D221C
:1042100048214D2152215721CF911F910F910C948C
:104220006F1E80912204811108C1C801CF911F9196
:104230000F910C94BE18CF911F910F910C942907E8
:10424000CF911F910F910C946307CF911F910F9104
:104250000C94FA08CF911F910F910C94C008CF9144
:104260001F910F910C948608CF911F910F910C9480
:104270003808CF911F910F910C94FE07CF911F9199
:104280000F910C94CE07CF911F910F910C949D0725
:10429000CF911F910F910C94BC06CF911F910F915C
:1042A0000C948506CF911F910F910C94FD1DCF9119
:1042B0001F910F910C94EC06C23008F4BEC0CB30B5
:1042C00028F084EF8C0F843008F0B7C00E94450EB0
:1042D00060933401709335018093360190933701D8
:1042E0008091ED04811107C08FE080930804109243
:1042F00009040E94440981E08093ED048093D50471
:10430000E0918B04F0918C0470E060E080E109950D
:1043100085E0809308041092090410920A04109218
:104320000B04C250CE30C0F4EC2FF0E0E656FE4D48
:104330000C94363FE421E121A821CC21CF21D221C8
:10434000D521D821DB21AC21EA21ED21DE21E72195
:104350008CEC90E00E94C80588E690E00E94C805B9
:1043600010920A0481E080930B04CE3008F03AC02A
:10437000EC2FF0E0E254FE4D0C94363F11220E2259
:10438000F021F921FC21FF21022205220822F2213D
:1043900017221A220B22142282EC90E0DBCF8CEB46
:1043A00090E0D8CF84EB90E0D5CF8BEA90E0D2CFED
:1043B00085EA90E0CFCF8FE990E0CCCF89E990E01B
:1043C000C9CF80E990E0C6CF87E890E0C3CF80E80E
:1043D00090E0C0CF87E790E0BDCF81E790E0BACF13
:1043E0000E94FA0888E690E0CF911F910F910C94FB
:1043F000C8050E94C008F6CF0E948608F3CF0E942D
:104400003808F0CF0E94FE07EDCF0E94CE07EACF1A
:104410000E949D07E7CF0E94FD1DE4CF0E94630725
:10442000E1CF0E942907DECF0E94EC06DBCF0E947D
:10443000BC06D8CF0E948506D5CFCF911F910F9192
:104440000895CF92DF92EF92FF920F931F93CF9335
:10445000DF936A017B01692F661F6627661F6093E1
:104460007802109277026093BA04382F331F3327F3
:10447000331F3093C504FC01FF27E6FB332730F9D7
:104480003093C404E5FB332730F93093C304E4FBD5
:10449000332730F93093C204E3FB332730F93093EC
:1044A000C104E2FB332730F93093C004E1FB33272A
:1044B00030F93093BF043E2F31703093BE04911118
:1044C0000C94902A863011F00C94902A88E894E09D
:1044D000DF91CF911F910F91FF90EF90DF90CF90E0
:1044E0000C949D1388E894E00E949D1380917702BC
:1044F000882341F080910D0590910E05892B11F4D0
:1045000010928E0480910D0590910E0518161906D3
:104510001CF481E080938E048091DE048823C1F036
:104520008091DF048823A1F080917502882381F0B7
:104530001092DE041092DF0410927502109276023F
:104540001092770210920E0510920D050E94250E12
:104550008091DE048823C1F18091DF048823A1F1DA
:1045600080917402882381F11092DE041092DF049E
:1045700010927402109276021092770210920E0539
:1045800010920D05EEE8F4E0119224E0E73BF2070B
:10459000D9F7C1E0C093B7040E945003C0939704B9
:1045A0000E94500364EF71E080E090E00E94F30D00
:1045B0001092B7040E94500364EF71E080E090E035
:1045C0000E94F30D10929704DF91CF911F910F91EC
:1045D000FF90EF90DF90CF9008952091D604222392
:1045E00071F02FE030E0892F8095881F8827881F81
:1045F00028573B4FF90186838093760277CF30E0CE
:1046000020E0F1CF2091D604222371F030E020E0A9
:10461000892F8095881F8827881F28573B4FF901CD
:1046200086838093DE0462CF2FE030E0F1CFC92F84
:10463000C095CC1FCC27CC1FC0939D042091D604DD
:1046400086E090E0211102C090E080E088579B4F07
:10465000FC01C683211104C08AE090E00E944B0453
:10466000C093DF0443CFC92FC095CC1FCC27CC1FEC
:10467000C0939D042091D60487E090E0211102C0F0
:1046800090E080E088579B4FFC01C683211104C055
:104690008BE090E00E944B04C093DF0427CF209171
:1046A0007602211123CF892F8095982F991F992762
:1046B000991F2091D604222351F090939304909354
:1046C000B604881F8827881F809375020FCF9093A8
:1046D0009D049093A604F5CF892F8095881F882785
:1046E000881F8093DD0402CF892F8095881F88273B
:1046F000881F8093DC04FACE209176022111F6CE39
:10470000892F8095881F8827881F9091D604992328
:1047100029F080939B048093B604E8CE80939D0497
:1047200080938F04E3CE209176022111DFCE909505
:10473000991F9927991F9093F304462F6CE10E94CB
:104740005411D4CE209176022111D0CE9095991F8C
:104750009927991F9093F404462F64E20E94541104
:10476000C5CE209176022111C1CE9095991F99272F
:10477000991F9093F504462F63E20E945411B6CE20
:10478000209176022111B2CE9095991F9927991FF9
:104790009093F604462F64E10E945411A7CE209115
:1047A000DC0421110CC02091DD04211108C02091EE
:1047B000DE042223B9F12091DF04222399F1611153
:1047C00095CE8091EE049091EF04A091F004B09109
:1047D000F104A7019601281B390B4A0B5B0BDA0188
:1047E000C901893C9105A105B10508F47FCE8091EE
:1047F000EC0491E089278093EC048093D104882312
:1048000041F0E0918B04F0918C0470E060E080E076
:104810000995C092EE04D092EF04E092F004F09279
:10482000F10464CE892F8095881F8827881F809384
:10483000F80480938E049091D60423E030E0911127
:1048400002C027E030E028573B4FF90186838BE117
:1048500090E00E944B044ACEC92FC095CC1FCC27B4
:10486000CC1FC0938E04C09392048CE190E00E9410
:104870004B04C09374023ACE892F8095881F8827F5
:10488000881F809394048093F70430CE892F8095FD
:10489000881F8827881F8093950428CE892F8095AC
:1048A000881F8827881F80938F0420CE892F8095AA
:1048B000881F8827881F8093B50418CE892F80957C
:1048C000881F8827881F8093A60410CE892F809583
:1048D000881F8827881F80939F0408CE892F809582
:1048E000881F8827881F8093A00400CE892F809579
:1048F000881F8827881F8093A704F8CD892F80956B
:10490000881F8827881F8093AF04F0CD892F80955A
:10491000881F8827881F8093B404E8CD892F80954D
:10492000881F8827881F8093A304E0CD2091DC0492
:1049300021110CC02091DD04211108C02091DE045A
:104940002223E9F02091DF042223C9F06111CECDAA
:104950006091EA0481E068276093EA048DE090E0CA
:104960000E94A91C8091EA048093D004E0918B04FA
:10497000F0918C0470E060E082E00995B7CD892F5A
:104980008095881F8827881F8093AC04AFCD892F1E
:104990008095881F8827881F8093A404A7CD892F1E
:1049A0008095881F8827881F80939C049FCD892F1E
:1049B0008095881F8827881F8093A50497CD892F0D
:1049C0008095881F8827881F8093AD048FCD892FFD
:1049D0008095881F8827881F80939B0487CD892F07
:1049E0008095881F8827881F809393047FCD892F07
:1049F0008095881F8827881F8093900477CD892F02
:104A00008095881F8827881F8093A8046FCD892FE1
:104A10008095881F8827881F8093970467CD892FEA
:104A20008095881F8827881F8093B0045FCD892FC9
:104A30008095881F8827881F8093AB0457CD2091CD
:104A4000DC0421110CC02091DD04211108C020914B
:104A5000DE04222301F12091DF042223E1F0611121
:104A600045CD8091D9048F5F8093D9049091DA0469
:104A7000981710F41092D9046091D90488E894E052
:104A80000E94A41DE0918B04F0918C0470E060E022
:104A90008FE009952BCD892F8095881F8827881F47
:104AA0008093AE0423CD892F8095881F8827881F87
:104AB000809398041BCD892F8095881F8827881F95
:104AC00080939E0413CD892F8095881F8827881F87
:104AD0008093B3040BCD892F8095881F8827881F6A
:104AE0008093960403CD892F8095881F8827881F7F
:104AF00080939204FBCC892F8095881F8827881F7C
:104B000080939104F3CC892F8095881F8827881F74
:104B100080939904EBCC892F8095881F8827881F64
:104B20008093A104E3CC892F8095881F8827881F54
:104B30008093A904DBCC892F8095881F8827881F44
:104B40008093B104D3CC892F8095881F8827881F34
:104B50008093B204CBCC892F8095881F8827881F2B
:104B60008093AA04C3CC892F8095881F8827881F2B
:104B70008093A204BBCC892F8095881F8827881F2B
:104B800080939A04B3CC892F8095881F8827881F2B
:104B900080939204ABCC892F8095881F8827881F2B
:104BA00080939104A3CC892F8095881F8827881F24
:104BB000809399049BCC892F8095881F8827881F14
:104BC0008093A10493CC892F8095881F8827881F04
:104BD0008093A9048BCC892F8095881F8827881FF4
:104BE0008093B10483CC892F8095881F8827881FE4
:104BF0008093B2047BCC892F8095881F8827881FDB
:104C00008093AA0473CC892F8095881F8827881FDA
:104C10008093A2046BCC892F8095881F8827881FDA
:104C200080939A0463CC292F2095221F2227221FCC
:104C300020939D043091760285E090E0311102C00E
:104C40008CE190E088579B4FFC012683662321F07E
:104C5000109293041092AA043093770247CC292F24
:104C60002095221F2227221F20939D043091760237
:104C70008AE190E0311102C08FE190E088579B4FAC
:104C8000FC012683662321F01092A8041092AD0443
:104C9000309377022BCC292F2095221F2227221F09
:104CA00020939D043091760282E290E0311102C09F
:104CB00087E190E088579B4FFC012683662321F013
:104CC0001092B0041092A504309377020FCC292FD4
:104CD0002095221F2227221F20939D0430917602C7
:104CE00088E090E0311102C08DE090E088579B4F42
:104CF000FC012683662321F01092960410929B04F7
:104D000030937702F3CB2091D60421110BC06111AF
:104D1000EDCB2091760269E1211101C065E20E948C
:104D20008C10E4CB292F2095221F2227221F2093AD
:104D30009D0480917602882371F089E190E0885784
:104D40009B4FFC012683662309F4D0CB1092A70465
:104D50001092B304CBCB85E290E0F1CF2091D60442
:104D600021110BC06111C2CB2091760261E22111A9
:104D700001C06DE10E948C10B9CB292F2095221F14
:104D80002227221F20939D0480917602882371F0B0
:104D900081E290E088579B4FFC012683662309F44B
:104DA000A5CB1092AF041092AB04A0CB8DE190E0A4
:104DB000F1CF292F2095221F2227221F20939D0407
:104DC0003091760288E190E0311102C080E290E0FB
:104DD00088579B4FFC012683662321F01092A6047E
:104DE0001092AE043093770281CB2091D60421112A
:104DF0000BC061117BCB2091760269E0211101C0CB
:104E000061E10E948C1072CB292F2095221F22274E
:104E1000221F20939D0480917602882371F089E0FF
:104E200090E088579B4FFC012683662309F45ECBF4
:104E30001092970410929F0459CB81E190E0F1CF3A
:104E4000292F2095221F2227221F20939D04309175
:104E5000760286E190E0311102C08EE090E0885742
:104E60009B4FFC012683662321F01092A40410922C
:104E70009C04309377023ACB292F2095221F2227BA
:104E8000221F20939D043091760284E090E031113E
:104E900002C08EE190E088579B4FFC012683662379
:104EA00021F0109292041092AC04309377021ECB42
:104EB000C0917602CC2309F425C3611103C061E0DF
:104EC0000E948C10C093770211CB892F8095881F88
:104ED0008827881F80939D048093B50407CB892F72
:104EE0008095881F8827881F80939D048093AC0439
:104EF000FDCA892F8095881F8827881F80939D046D
:104F00008093A404F3CA2091DC0421110CC02091E9
:104F1000DD04211108C02091DE042223E9F0209154
:104F2000DF042223C9F06111E1CA6091E90481E044
:104F300068276093E9048BE090E00E94A91C8091AF
:104F4000E9048093CF04E0918B04F0918C0470E02D
:104F500060E083E00995CACA892F8095881F882759
:104F6000881F80938E048093A3048DE190E00E94BB
:104F70004B04BCCA81E080939D0480938E040E9400
:104F8000500364E670E080E090E00E94F30D109220
:104F90009D0410928E04AACA209176022111A6CAFD
:104FA000892F8095881F8827881F9091D604992380
:104FB00029F08093A5048093B60498CA80938E0448
:104FC0008093A10483E190E00E944B048FCA20915A
:104FD000760221118BCA892F8095881F8827881F08
:104FE0009091D604992329F08093AD048093B60460
:104FF0007DCA80938E048093A90484E190E00E948E
:105000004B0474CA20917602211170CA892F8095B1
:10501000881F8827881F8093A4048093B60466CADB
:1050200020917602211162CA892F8095881F8827D6
:10503000881F80939C048093B60458CA2091DC0496
:1050400021110CC02091DD04211108C02091DE0443
:10505000222399F02091DF04222379F0611146CABE
:1050600088E894E00E94F21CE0918B04F0918C049B
:1050700070E060E084E0099539CA892F8095881F27
:105080008827881F80938F048093B6042FCA2091AD
:10509000DC0421110CC02091DD04211108C02091F5
:1050A000DE042223A1F02091DF04222381F061118C
:1050B0001DCA61E088E894E00E94F21CE0918B0434
:1050C000F0918C0461E070E084E009950FCA892FAB
:1050D0008095881F8827881F8093B5048093B60425
:1050E00005CA2091DC0421110CC02091DD0421119E
:1050F00008C02091DE042223A1F02091DF042223A6
:1051000081F06111F3C962E088E894E00E94F21C2A
:10511000E0918B04F0918C0462E070E084E00995EA
:10512000E5C9892F8095881F8827881F8093A6044A
:105130008093B604DBC92091DC0421110CC02091BE
:10514000DD04211108C02091DE042223A1F020916A
:10515000DF04222381F06111C9C963E088E894E08B
:105160000E94F21CE0918B04F0918C0463E070E0EB
:1051700084E00995BBC9892F8095881F8827881FDF
:1051800080939F048093B604B1C92091DC0421115F
:105190000CC02091DD04211108C02091DE042223DF
:1051A000E9F02091DF042223C9F061119FC96091C9
:1051B000E40481E068276093E40486E090E00E94C4
:1051C000A91C8091E4048093C904E0918B04F091C0
:1051D0008C0470E060E085E0099588C9892F80958E
:1051E000881F8827881F8093A0048093B6047EC9F7
:1051F0002091DC0421110CC02091DD04211108C094
:105200002091DE042223E9F02091DF042223C9F05B
:1052100061116CC96091E50481E068276093E50441
:1052200087E090E00E94A91C8091E5048093CB0464
:10523000E0918B04F0918C0470E060E086E00995C9
:1052400055C9892F8095881F8827881F8093A704B8
:105250008093B6044BC92091DC0421110CC020912D
:10526000DD04211108C02091DE042223D1F0209119
:10527000DF042223B1F0611139C96091E604809105
:10528000E8046F5F811160E088E894E00E94BE1C32
:10529000E0918B04F0918C0470E060E087E0099568
:1052A00025C9892F8095881F8827881F8093AF0480
:1052B0008093B6041BC92091DC04211108C0209101
:1052C000DE042223E9F02091DF042223C9F06111DA
:1052D0000DC96091E70481E068276093E70489E0E5
:1052E00090E00E94A91C8091E7048093CD04E09196
:1052F0008B04F0918C0470E060E088E00995F6C8BA
:10530000892F8095881F8827881F8093B4048093F5
:10531000B604ECC82091DC0421110CC02091DD04FE
:10532000211108C02091DE042223E9F02091DF043E
:105330002223C9F06111DAC86091E00481E0682796
:105340006093E00482E090E00E94A91C8091E00458
:105350008093BC04E0918B04F0918C0470E060E0D9
:1053600089E00995C3C8892F8095881F8827881FE1
:105370008093A3048093B604B9C82091DC04211162
:105380000CC02091DD04211108C02091DE042223ED
:10539000E9F02091DF042223C9F06111A7C86091D0
:1053A000E10481E068276093E10483E090E00E94DB
:1053B000A91C8091E1048093BD04E0918B04F091DD
:1053C0008C0470E060E08AE0099590C8892F809590
:1053D000881F8827881F8093AC048093B60486C8F2
:1053E0002091DC0421110CC02091DD04211108C0A2
:1053F0002091DE04222309F12091DF042223E9F029
:10540000611174C88091D7048F5F8093D704909105
:10541000D804981710F41092D7046091D70488E844
:1054200094E00E94D31D6091D70470E0E0918B045A
:10543000F0918C048EE0099559C8892F8095881FBA
:105440008827881F8093900480939D044FC82091E3
:10545000DC0421110CC02091DD04211108C0209131
:10546000DE04222321F12091DF04222301F16111C6
:105470003DC80EE814E0E8011992F4E0C73BDF07ED
:10548000D9F781E08093B9040E94500364E670E08C
:1054900080E090E00E94F30DF80111928F01CE1789
:1054A000DF07D1F71092B9040E9450031FC8892F5B
:1054B0008095881F8827881F8093980480939D0477
:1054C0000C9476228091760281110C9476226111DF
:1054D0000C9476226091D60481E068276093D6040C
:1054E00081E090E00E94A91C8091D6048093CA04B8
:1054F000E0918B04F0918C0470E060E08CE0099501
:105500000C947622209147052111DCCC892F8095BF
:10551000881F8827881F80939D0480939E04D2CC87
:105520003397EA36F10510F00C948222E656F54DD9
:105530000C94363FBA27622A7222ED22ED22022312
:105540000223172333236C236C23742382228222A9
:1055500002281028CC27E727B123C0239323A223B6
:105560007C234F23CF232C2483273C244624C3258C
:10557000CB25D325DB25E325EB25F325FB250326CA
:105580000B264B263C2479276F276527D9267325C0
:105590007B2583258B2593259B25A325AB25B3252B
:1055A000BB2513262F263C274B26D9268222582797
:1055B0004E2456245E2466246E2476247E2486247B
:1055C0008E249624C724CF24D724DF24E724EF2475
:1055D000F724FF2407250F2517251F2553255B25B5
:1055E00063256B256726F5268326AE262027822293
:1055F0001E28472871289B28C528F8282B295B29B5
:105600008A29BD29F029272A1F93CF93DF93D82F0A
:10561000C62F90910004809101049CBD8DBD60E077
:1056200087E00E94090ADEBD00000DB407FEFDCF31
:10563000DEB5CEBD00000DB407FEFDCFCEB561E0F6
:1056400087E00E94090ADD2309F4A7C0DD3F09F0C5
:1056500054C08091330181111EC081E080933301D9
:105660006C2F70E016E0759567951A95E1F71C2F81
:105670001F736093D8048091D704681720F488E8DA
:1056800094E00E94D31D0E9450030E94761B0E944A
:10569000250E10931304E0E1ED0FE83008F03AC056
:1056A000F0E0EE5FFB4FC28BD058D03408F075C0ED
:1056B00080913804D81305C080913904C81709F4C3
:1056C0006CC0D0933804C09339048D2F90E0DE3045
:1056D00008F046C18159944DFC010C94363FA12B32
:1056E000BA2BD12BEA2BFE2B1A2C2E2C472C602CFC
:1056F000792C972CA02CCD2BCD2BDC3F09F0CBCFD8
:1057000080913A048111C7CF81E080933A040E94CE
:10571000761BC1CFDE3009F0C7CF8C2F817080930C
:105720004201C1FB882780F980933C01C2FB882796
:1057300080F980934301C3FB882780F980933D0162
:10574000B3CF80913B04882369F08C2F90E0B4E0C4
:1057500095958795BA95E1F7982F990F990F891B21
:10576000880FC80FC09333048C2FDF91CF911F9106
:105770000C94241A80913B04882369F08C2F90E0CC
:10578000A4E095958795AA95E1F7982F990F990F21
:10579000891B880FC80FC0933404DF91CF911F91EC
:1057A000089580913B04882369F08C2F90E0F4E009
:1057B00095958795FA95E1F7982F990F990F891B81
:1057C000880FC80FC09332048C2FDF91CF911F91A7
:1057D0000C94980B80913B04882369F08C2F90E007
:1057E000E4E095958795EA95E1F7982F990F990F41
:1057F000891B880FC80FC0933504CFCF80913B041D
:10580000882369F08C2F90E074E0959587957A95C0
:10581000E1F7982F990F990F891B880FC80FC09334
:1058200031040E94051A80913104DF91CF911F91BC
:105830000C94CA1980913B04882369F08C2F90E066
:1058400064E0959587956A95E1F7982F990F990FE0
:10585000891B880FC80FC09336049FCF80913B04EB
:10586000882369F08C2F90E054E0959587955A95A0
:10587000E1F7982F990F990F891B880FC80FC093D4
:1058800037048C2FDF91CF911F910C94870B80915F
:105890003B04882369F08C2F90E044E09595879530
:1058A0004A95E1F7982F990F990F891B880FC80F18
:1058B000C09330048C2FDF91CF911F910C946E0B0D
:1058C00080913B04882369F08C2F90E034E095951B
:1058D00087953A95E1F7982F990F990F891B880FB3
:1058E000C80FC0932F048C2FDF91CF911F910C9480
:1058F000550B80913B04882369F08C2F90E024E0C5
:10590000959587952A95E1F7982F990F990F891BFF
:10591000880FC80F8C2F90E08053984F90932E04DF
:1059200080932D04DF91CF911F910C94350B6C2F38
:105930006F778AE190E0DF91CF911F910C94B83E90
:10594000C2FB882780F991E0892780933B04C1FB43
:10595000882780F980933C046C2F8BE190E0EBCF9B
:105960006C2F4096E8CF1F920F920FB60F92112422
:105970002F933F934F935F936F937F938F939F9357
:10598000AF93BF93EF93FF938091B900887F8036E8
:1059900009F44AC0F0F5883209F4A5C018F5803141
:1059A00009F499C0B8F4882309F4F5C0883009F4E3
:1059B00092C0FF91EF91BF91AF919F918F917F9195
:1059C0006F915F914F913F912F910F900FBE0F906C
:1059D0001F901895883109F486C0803251F7809362
:1059E000C90314C0803409F49BC040F48033B9F378
:1059F0008833F9F68093C90385ECAEC0803509F48D
:105A000083C0883509F494C0883499F60E94D10483
:105A1000D0CF883909F48AC038F5883729F050F496
:105A2000883611F0803729F683E08093CD031092F9
:105A3000730255C0883809F479C0803919F080386C
:105A400009F0B7CF80917302803208F06FC0E09107
:105A5000730281E08E0F809373028091BB00F0E0AF
:105A6000ED5AFD4F80833BC0803B39F0D0F4803A43
:105A700009F477C0883A09F09CCF84E08093CD0385
:105A80001092520210925102F0E0E0E009958091EC
:105A9000510281110FC081E08093510210923102B6
:105AA00009C0803C09F4A8CF883C09F4A5CF883B05
:105AB00009F07FCFE091520281E08E0F8093520275
:105AC000F0E0EF5CFD4F80818093BB00909152022B
:105AD0008091510229C08091A6038093BB0085EC80
