:100000000C943D030C94762D0C944F2D0C946503A9
:100010000C9465030C9465030C9465030C946503C0
:100020000C9465030C9465030C9465030C946503B0
:100030000C9465030C9465030C9465030C946503A0
:100040000C949D2D0C9465030C9465030C9465032E
:100050000C9465030C9465030C9465030C94650380
:100060000C94342C0C946503557074696D653A00DA
:100070005444413135343300444143207479706530
:100080003A00504342207265766973696F6E3A0098
:10009000415652206275696C643A004650474120CF
:1000A0006275696C643A0053797374656D20696E8A
:1000B000666F3A007777772E6B6172616261732E9B
:1000C000756B002064756D706B696E0020786465D7
:1000D0006D6F78002074616E6B2D756B00206B6105
:1000E0006C616E74616A005370656369616C207441
:1000F00068616E6B7320746F3A0020496E7465728C
:100100006E657420736F66747761726500206E6926
:1001100068697261736820200020466C61736854BE
:100120006F6F6C2026204644496D6167650020642E
:10013000725F6D6178202020200020465047412CBE
:10014000205043420020736F6C65677374617220A6
:100150000020465047412C204156522C205043420B
:100160000020616E64796B6172706F76004B617212
:10017000616261732050726F20646576656C6F7088
:10018000657273206172653A0041626F75743A005E
:10019000436F6C6F7220546573743A00746F206EF5
:1001A00061766967617465206279206D656E75207E
:1001B0006974656D7300746F206368616E67652094
:1001C00076616C7565732C2000506C6561736520D9
:1001D000757365206172726F77732000444F57000A
:1001E00059656172004D6F6E746800446179005307
:1001F00065636F6E6473004D696E75746573004856
:100200006F757273005254432053657475703A00D1
:1002100000000000240027002A0000000000250044
:1002200028002B0000000000230026002900040401
:10023000040404040404020202020202030303038E
:10024000030301020408102040800102040810206A
:100250000102040810200000000800020100000351
:100260000407000000000000000020746F20726589
:100270007475726E00455343001912181415BB169D
:100280001117131A404020200804020277017E0251
:100290005803120659071408110A8410761B661CAD
:1002A0000D1D5A1E291F7020692172227A236B248A
:1002B000732574266C2775287D29712A792C7B2D4E
:1002C0007C2E0F3F453016311E32263325342E3515
:1002D00036363D373E384639523A413B4E3C493D31
:1002E0004A3E0E401C4132422143234424452B46C2
:1002F0003447334843493B4A424B4B4C3A4D314ECD
:10030000444F4D5015512D521B532C543C552A56D9
:100310001D57225835591A5A4C5B5D5C545D5B5E23
:10032000555F618B0561066204630C6403650B66AF
:1003300083670A680169096A786B076C086D106E3B
:10034000186F207028713072387340744875507679
:1003500057775F786D60519113926A9364946795B3
:10036000F296F197639862995FA012BB7C0414091E
:10037000110B1F0C270D2F0E7E0F6C1169127D13B0
:100380007A146B157416751772187019711A5A2B26
:100390004A2F4D79157A3B7B347C237D327E217F39
:1003A000508048812B82408310843A85388630877C
:1003B00028882089188A378C3F8D5E9020746F20A2
:1003C000746F67676C65204F5344004D656E752BE5
:1003D0004553430020746F207265626F6F74004351
:1003E00074726C2B416C742B44656C005072657395
:1003F000732000626F75740041006E666F200049C3
:1004000000657374005400436F6C6F722000657454
:10041000757020525443005300506F727420233182
:1004200046004D6F757365005363616E636F64655D
:1004300000506175736500507274537263004B65B0
:1004400079626F617264004D656E752B440044697A
:10045000764D4D43004D656E752B560053637265A6
:10046000656E004D656E752B4D004A6F79204D6F9E
:100470006465004D656E752B4A004A6F792054798A
:100480007065004D656E752B546162005377617025
:1004900020464444004D656E752B4631310054753D
:1004A00072626F004D656E752B4631300056537980
:1004B0006E63004D656E752B463900566964656F35
:1004C000004D656E752B4638005053472074797087
:1004D00065004D656E752B463700505347206D699A
:1004E00078004D656E752B463600434F564F5800C9
:1004F0004D656E752B463500547572626F2046440B
:1005000043004D656E752B46312D463400524F4DDC
:100510002042616E6B0041565220004650474120F8
:10052000005265762E00CE004500445300412D4414
:10053000004644496D61676500466C617368657289
:100540000050512D444F530044656661756C740032
:100550004D6F6E6F004143420041424300594D329E
:1005600031343946004159332D383931320056473C
:10057000412033306B487A005247422031356B4876
:100580007A00353020487A00363020487A003878B2
:10059000003478003278005345474100417461725D
:1005A0006900512D412D4F2D502D4D004375727313
:1005B0006F720053696E636C616972320053696EC9
:1005C000636C61697231004B656D7073746F6E009E
:1005D000436C61737369630050656E7461676F6E1D
:1005E00000537065637472756D0050726F66692098
:1005F0005854004F6666004F6E002D2D2E2D2D2E67
:100600002D2D2D2D002E002D2D3A2D2D3A2D2D0086
:10061000446563004E6F76004F637400536570004D
:10062000417567004A756C004A756E004D6179002E
:10063000417072004D617200466562004A616E0051
:100640003F3F3F0053756E0053617400467269006E
:100650005468750057656400547565004D6F6E00F1
:1006600020003A00300020616E642000206461792F
:100670000020646179730000E72D11241FBECFEFC5
:10068000D8E0DEBFCDBF25E0A0E3B1E001C01D9200
:10069000A535B207E1F711E0A0E0B1E0EEE0FFE739
:1006A00002C005900D92A033B107D9F713E0CDE356
:1006B000D3E004C02197FE010E947F3FCC33D107D5
:1006C000C9F70E94A12E0C94853F0C94000088234A
:1006D00031F01092F2048BE08093F30408958BE0E4
:1006E0008093F2041092F304089591E09093DA035A
:1006F0008093FC031092DB031092FD030895909108
:10070000AE038091AD032FEF3FEF981748F4E92F28
:10071000F0E0E357FC4F208130E09F5F9093AE0301
:10072000C90108959091AE038091AD032FEF3FEF83
:10073000981748F4E92FF0E0E357FC4F208130E0B0
:100740009F5F9093AE03C9010895462FE0910A047C
:10075000F0910B04682F8AEF09948F929F92AF92C9
:10076000BF92EF92FF920F931F93CF938AE2E82EEE
:1007700084E0F82EC0E0812C912C54018394F70181
:1007800090E080E040E0519195018401082E04C082
:10079000000F111F221F331F0A94D2F75523E1F0D7
:1007A000402B01968830910571F7CF5FE0912504C9
:1007B000F09126046C2F81E0099588E0E80EF11C89
:1007C000C930E9F6CF911F910F91FF90EF90BF9044
:1007D000AF909F908F90089500954023E2CF823094
:1007E000C8F4E82FF0E0EE0FFF1FEF5FFE4F7183BC
:1007F0006083813041F0809169008C7F82608093BA
:100800006900E89A089580916900837F88608093E9
:100810006900E99A08952091150480911E048823A7
:1008200049F0822F6AE00E94733F982F990F890F39
:10083000880F280F622F80E00E94A50380911E047C
:1008400020911404622F882349F0822F6AE00E94CD
:10085000733F682F660F680F660F620F82E00E9479
:10086000A50390911F0480911E04209113049923E5
:1008700009F462C0882349F0822F6AE00E94733F26
:10088000982F990F890F880F280F622F84E00E94FC
:10089000A50380911E0420911904622F882349F03A
:1008A000822F6AE00E94733F682F660F680F660F01
:1008B000620F86E00E94A50380911E04209112041D
:1008C000622F882349F0822F6AE00E94733F682FCD
:1008D000660F680F660F620F87E00E94A503809184
:1008E0001E0420911104622F882349F0822F6AE0B0
:1008F0000E94733F682F660F680F660F620F88E0D3
:100900000E94A50320911E0480910F049091100471
:1009100064E670E00E94233F682F222351F0282FC5
:10092000862F6AE00E94733F682F660F680F660F7C
:10093000620F89E00C94A503882329F02D3008F478
:100940009BCF2CE899CF2D3008F49FCF2CE89DCF7A
:10095000E4E2F4E0ADE8B4E08C9191E089278C9377
:1009600083AB0380F481E02D70E060E08DE00994BA
:10097000CF92DF92EF92FF920F931F93CF93DF936B
:10098000CDB7DEB764970FB6F894DEBF0FBECDBF0C
:100990002091AF043091B004611133C012161306D8
:1009A000A4F4EBE9F4E050E040E0A191B1918A17A2
:1009B0009B0709F461E04F5F5F4F42175307A9F7A8
:1009C000611110C02A30310569F0F901EE0FFF1FE7
:1009D000E556FB4F918380832F5F3F4F3093B004E8
:1009E0002093AF0464960FB6F894DEBF0FBECDBF60
:1009F000DF91CF911F910F91FF90EF90DF90CF90FB
:100A00000895FE01319644E1DF011D924A95E9F710
:100A10001216130684F50BE914E0780150E040E06B
:100A200070E060E0D701CD90DD907D018C159D05D3
:100A300049F0DA01AA0FBB1FAE0FBF1FCD92DC92A7
:100A40004F5F5F4F6F5F7F4F6217730759F7411515
:100A5000510589F090E080E021913191D8012D93EA
:100A60003D938D01019684179507B1F75093B0041B
:100A70004093AF04B7CF50E040E0F8CF85ED8093CE
:100A8000BC001092D9031092D8038091BC0084FF5F
:100A90000BC02091D8033091D9038091050190912A
:100AA00006012817390718F01092D703089580918E
:100AB000D8039091D90301969093D9038093D803DA
:100AC000E4CF20915B02260F3327331F21323105FB
:100AD000ECF42091D703FC0190E080E0243069F031
:100AE00082E00895A0915B022191AC01455C5D4FCD
:100AF000A40FB52FB11D2C930196861798F3809102
:100B00005B02680F60935B0280E0089581E00895C6
:100B10000895E091AE038091AD03E81730F4F0E062
:100B2000E357FC4F808190E008958FEF9FEF089589
:100B30008091AD039091AE03891B990B0895CF92DC
:100B4000DF92EF92FF920F931F93CF93DF937C017D
:100B5000CB018A012091DA03222389F0EB016B019A
:100B6000C40ED51ECC15DD0569F06991D701ED9154
:100B7000FC910190F081E02DC7010995F3CF642F1E
:100B80000E946105C801DF91CF911F910F91FF90E5
:100B9000EF90DF90CF900895CF93DF931F92CDB762
:100BA000DEB769832091DA032223F9F02091FD0357
:100BB000203258F021E030E0FC013383228390E0C2
:100BC00080E00F90DF91CF9108958091DB03E82FB3
:100BD000F0E0E452FC4F998190838F5F8093DB03B8
:100BE0008093FD0381E090E0ECCF61E0CE010196BF
:100BF0000E946105F7CF682F8EEF93E00C94CC052F
:100C000008950F931F93CF93DF93EC01062F1C8160
:100C10001295107FE885F9854E8160E180E20995A3
:100C2000E885F9854F8161E180E20995E885F985DC
:100C3000402F62E180E209954D81410FE885F985F9
:100C400063E180E209959F818E818F5F803260F43D
:100C50008E839A3110F01F821E8281E090E0DF9136
:100C6000CF911F910F9108951E8281E0890F8F838C
:100C7000F0CF0F931F93CF93DF938C01D0E0C0E0B0
:100C8000F801EC0FFD1F6491662341F08EEE94E0B5
:100C90000E940106892B11F02196F2CFCE01DF913F
:100CA000CF911F910F910895CF93C8E080E696E011
:100CB0000E943906C150D1F7CF910895809108055F
:100CC000813009F03DC090910C05963009F080E02C
:100CD0000E9467038AE08093F4048FE08093F50418
:100CE000E0911904E15080E496E0E73070F4F0E020
:100CF000E458F94F0C947F3F9D0683068E069106BB
:100D0000940697069A068CE596E00E9439068FE0D5
:100D10008093F2041092F3040C94540688E596E054
:100D2000F4CF84E596E0F1CF80E596E0EECF8CE459
:100D300096E0EBCF88E496E0E8CF84E496E0E5CF58
:100D4000089580910805813009F051C090910C05FB
:100D5000943009F080E00E9467038AE08093F404F5
:100D60008CE08093F504E0911104E15080E496E07A
:100D7000EC3098F4F0E0E154F94F0C947F3FCB064F
:100D8000D606D906DC06DF06E206E506E806EB062F
:100D9000EE06F106F4068CE396E00E9439068FE039
:100DA0008093F2041092F3040C94540688E396E0C6
:100DB000F4CF84E396E0F1CF80E396E0EECF8CE2CF
:100DC00096E0EBCF88E296E0E8CF84E296E0E5CFCC
:100DD00080E296E0E2CF8CE196E0DFCF88E196E01A
:100DE000DCCF84E196E0D9CF80E196E0D6CF0895BC
:100DF000ECEEF4E02FE0268317820C943906ECEE3B
:100E0000F4E027E0268317820C943906ECEEF4E038
:100E100025E0268317820E94390682E696E00C942C
:100E2000390680918F04811112C0809108058111CB
:100E300022C081E090910A059E3009F080E00E9476
:100E400067038AE08093F40483E18093F504809142
:100E50005704882369F087EF95E00E9439068FE0F8
:100E60008093F2041092F30480E696E00C94390625
:100E700083EF95E0F2CF089580918F04811112C025
:100E800080910805811119C081E090910A059D307B
:100E900009F080E00E9467038AE08093F40482E115
:100EA0008093F50480917604882321F08AEE95E002
:100EB0000C94390681EE95E0FBCF089580918F0464
:100EC000811112C080910805811122C081E09091AA
:100ED0000A059C3009F080E00E9467038AE0809355
:100EE000F40481E18093F50480918C04882369F0F7
:100EF00087EF95E00E9439068FE08093F20410920C
:100F0000F30480E696E00C94390683EF95E0F2CF87
:100F1000089580918F04811112C08091080581117C
:100F200025C081E090910A059B3009F080E00E9485
:100F300067038AE08093F40480E18093F504809154
:100F40007904882319F0813029F0089588ED95E01F
:100F50000C94390680ED95E00E9439068FE080936D
:100F6000F2041092F30480E696E0F2CF08958091A7
:100F70008F04811112C080910805811133C081E076
:100F800090910A059A3009F080E00E9467038AE098
:100F90008093F4048FE08093F50480918B04823079
:100FA00011F128F4882341F0813099F008958330BD
:100FB000E9F0843069F1089587EC95E00E943906E4
:100FC0008FE08093F2041092F30480E696E00C9494
:100FD00039068DEB95E00E9439068FE08093F2048C
:100FE0001092F304089583EB95E0F5CF8CEA95E039
:100FF0000E9439068FE08093F2041092F30480E699
:1010000096E00E94390680E696E00E943906DDCF20
:1010100082EA95E0E0CF80918F04811112C0809127
:101020000805811122C081E090910A05993009F0EC
:1010300080E00E9467038AE08093F4048EE080934E
:10104000F50480918A04882369F087E995E00E947D
:1010500039068FE08093F2041092F30480E696E064
:101060000C9439068CE995E0FBCF089580918F04AC
:10107000811112C080910805811122C081E09091F8
:101080000A05983009F080E00E9467038AE08093A7
:10109000F4048DE08093F50480918904882369F03D
:1010A00087EF95E00E9439068FE08093F20410925A
:1010B000F30480E696E00C94390683EF95E0F2CFD6
:1010C000089580918F04811112C0809108058111CB
:1010D00019C081E090910A05963009F080E00E94E5
:1010E00067038AE08093F4048BE08093F504809199
:1010F0008104882321F088E895E00C94390682E881
:1011000095E0FBCF089580918F04811111C08091EB
:101110000805811118C081E090910A05953009F009
:1011200080E00E9467038AE08093F4048093F504D2
:1011300080918004882321F088E795E00C9439069B
:101140008EE695E0FBCF089580918F04811112C047
:1011500080910805811122C081E090910A059430A8
:1011600009F080E00E9467038AE08093F40489E03C
:101170008093F50480918704882321F085E695E02B
:101180000C9439068DE595E00E9439068FE0809336
:10119000F2041092F30480E696E0F2CF0895809175
:1011A0008F04811112C08091080581112BC081E04C
:1011B00090910A05933009F080E00E9467038AE06D
:1011C0008093F40488E08093F504809186049091E4
:1011D0008804911114C0882379F0813081F489E565
:1011E00095E00E9439068FE08093F2041092F30498
:1011F00080E696E00C94390685E595E0F2CF80E52F
:1012000095E0F8CF089580918F04811112C08091EC
:101210000805811122C081E090910A05923009F001
:1012200080E00E9467038AE08093F40487E0809363
:10123000F50480918504882369F087EF95E00E948A
:1012400039068FE08093F2041092F30480E696E072
:101250000C94390683EF95E0F2CF089580918F04C6
:10126000811112C080910805811122C081E0909106
:101270000A05913009F080E00E9467038AE08093BC
:10128000F40486E08093F50480918404882369F057
:1012900087EF95E00E9439068FE08093F204109268
:1012A000F30480E696E00C94390683EF95E0F2CFE4
:1012B000089580918F04811111C0809108058111DA
:1012C0002FC081E090910A05911180E00E94670390
:1012D0008AE08093F40485E08093F5048091820491
:1012E00090918304911182608230A1F08330A9F043
:1012F000813069F088E495E00E9439068FE08093A0
:10130000F2041092F30480E696E00C94390681E42E
:1013100095E0F2CF89E395E0EFCF81E395E0ECCF64
:1013200008958091F90490E0959587959595879516
:101330008F70813051F028F0893051F08D3059F0A4
:1013400008958DE295E00C9439068AE295E0FBCF92
:1013500088E295E0F8CF86E295E0F5CFFF920F9313
:101360001F93CF93DF93182FCCEED4E01886898794
:101370008FE08E831F8260EB8EEE94E00E94010668
:1013800061EB8EEE94E00E94010662EB8EEE94E03B
:101390000E94010663EB8EEE94E00E94010664EB6E
:1013A0008EEE94E00E94010665EB8EEE94E00E94C2
:1013B000010662EB8EEE94E00E94010663EB8EEE76
:1013C00094E00E94010666EB8EEE94E00E94010616
:1013D00067EB8EEE94E00E94010662EB8EEE94E0E5
:1013E0000E94010663EB8EEE94E00E94010668EB1A
:1013F0008EEE94E00E94010669EB8EEE94E00E946E
:101400000106188681E0810F898760EC8EEE94E0FA
:101410000E94010661EC8EEE94E00E94010662ECEF
:101420008EEE94E00E94010663EC8EEE94E00E9442
:10143000010664EC8EEE94E00E94010665EC8EEEEF
:1014400094E00E94010662EC8EEE94E00E94010698
:1014500063EC8EEE94E00E94010666EC8EEE94E062
:101460000E94010667EC8EEE94E00E94010662EC99
:101470008EEE94E00E94010663EC8EEE94E00E94F2
:10148000010668EC8EEE94E00E94010669EC8EEE97
:1014900094E00E94010602E0010F88E0F82EF88631
:1014A00009876AEB8EEE94E00E9401066BEB8EEEEC
:1014B00094E00E94010664EB8EEE94E00E94010627
:1014C00065EB8EEE94E00E9401066CEB8EEE94E0EC
:1014D0000E9401066DEB8EEE94E00E9401061D5FF6
:1014E000F88619876AEC8EEE94E00E9401066BEC98
:1014F0008EEE94E00E94010664EC8EEE94E00E9471
:10150000010665EC8EEE94E00E9401066CEC8EEE16
:1015100094E00E9401066DEC8EEE94E00E940106BC
:1015200081E08887098789E08E831F8266E18EEEDD
:1015300094E00E9401068DE08E831F8266E18EEEAC
:1015400094E00E94010685E08E831F8266E18EEEA4
:1015500094E00E94010683E08E831F8266E18EEE96
:1015600094E00E9401068EE08E831F821886198700
:1015700081E295E00E943906DF91CF911F910F9192
:10158000FF900C949109CF93DF931092F404109282
:10159000F504CAE1D0E260E08EEE94E00E9401061C
:1015A000D150C9F7C150B1F7DF91CF910895CF93D2
:1015B0008FE08093F2041092F3041092F40486E119
:1015C0008093F504C0E26FE58EEE94E00E94010680
:1015D000C150C9F71092F40487E18093F5048CEEB2
:1015E00093E00E94F80685E792E00E94FF068AE6F3
:1015F00092E0CF910C94F8061092A7011092A601E8
:101600001092A5011092A40110920A0310920903EE
:101610001092A30110928802109283021092A201EC
:1016200008959091A7019F5F903408F090E0209179
:10163000A601291751F0E92FF0E0EE59FE4F808303
:101640009093A70181E090E008958CEF9FEF0895BB
:10165000833081F028F4813099F08230A9F0089528
:101660008730A9F08830C9F08430B1F480918000CF
:101670008F7D03C0809180008F77809380000895D4
:1016800084B58F7784BD089584B58F7DFBCF80911D
:10169000B0008F778093B00008958091B0008F7D67
:1016A000F9CFCF93DF93282F30E0F901EA5AFD4FAD
:1016B0008491F901EE5BFD4FD491F901E25DFD4F9C
:1016C000C491CC23A1F081110E94280BEC2FF0E0F3
:1016D000EE0FFF1FEC5DFD4FA591B491EC91ED2352
:1016E00081E090E009F480E0DF91CF91089580E0FF
:1016F00090E0FACF1F93CF93DF93282F30E0F901CA
:10170000EA5AFD4F8491F901EE5BFD4FD491F90146
:10171000E25DFD4FC491CC23A9F0162F81110E94E8
:10172000280BEC2FF0E0EE0FFF1FE65EFD4FA591BA
:10173000B4918FB7F894EC91111108C0D095DE23C5
:10174000DC938FBFDF91CF911F910895DE2BF8CFEF
:1017500090918A0461E0911101C0682F8FE00C9490
:101760007A0BCF93DF93CCEBD0E018821092D703A3
:1017700081E08093D4031092AF0361E082E10E9484
:101780007A0B61E083E10E947A0BE9EBF0E0808163
:101790008E7F808380818D7F808388E48093B800F2
:1017A00085E48883DF91CF9108952091FD0381E046
:1017B000213270F58091FC031092D9031092D80366
:1017C0009091D703992359F06091D8037091D90370
:1017D00040910501509106016417750700F1609171
:1017E000D8037091D9034091050150910601641707
:1017F000750700F10E943E050E94B10B8091D50350
:101800009091D60301969093D6038093D50385E0FB
:101810001092DB031092FD031092DA0308954091B9
:10182000D8035091D9034F5F5F4F5093D903409332
:10183000D803C6CF92E09093D70391E09093D4035E
:101840009FEF9093D3031092D2032093D103ACED7A
:10185000B3E0E1EBF3E090E029136BC01092B0032A
:101860009091B003880F892B8093B0038091AF03D0
:10187000813009F062C01092AF031092D903109228
:10188000D8038091B0038093BB008091D8039091DE
:10189000D90301969093D9038093D8038091BC001B
:1018A00083FF0BC02091D8033091D90380910501AB
:1018B000909106012817390720F32091D803309121
:1018C000D90380910501909106012817390708F086
:1018D00091CF85EC8093BC001092D9031092D8036D
:1018E0008091D703823059F42091D8033091D903E5
:1018F00080910501909106012817390700F1209188
:10190000D8033091D90380910501909106012817E1
:10191000390708F06FCF8091D3038F3FD1F08091CA
:10192000D3038032C1F08091D3038033B1F084E0DF
:101930006FCF3D9131939F5F8FCF85EECBCF80915D
:10194000D8039091D90301969093D9038093D8033B
:10195000C7CF80E05DCF82E05BCF83E059CFCF93EC
:10196000DF93EC0188E60E94750386E090E00E9418
:10197000FB05CE0164E670E00E940F3F282F6AE06D
:101980000E94733F682F660F680F660F620F8EEF1D
:1019900093E00E94CC05DF91CF910C94D50BCF93AF
:1019A000C82F88E60E94750385E090E00E94FB0541
:1019B0008C2F6AE00E94733F682F660F680F660FD6
:1019C0006C0F8EEF93E00E94CC05CF910C94D50B59
:1019D000CF93C82F88E60E94750384E090E00E94B0
:1019E000FB058C2F6AE00E94733F682F660F680F1B
:1019F000660F6C0F8EEF93E00E94CC05CF910C9494
:101A0000D50BCF93C82F88E60E94750383E090E042
:101A10000E94FB056C2F8EEF93E00E94CC05CF91C6
:101A20000C94D50BCF93C82F88E60E94750381E0F4
:101A300090E00E94FB058C2F6AE00E94733F682FA4
:101A4000660F680F660F6C0F8EEF93E00E94CC0557
:101A5000CF910C94D50BCF93DF9390E0FC01EE5B1C
:101A6000FD4F2491825D9D4FFC0184918823C9F034
:101A700090E0880F991FFC01E05FFD4FA591B491A4
:101A8000FC01E65EFD4FC591D49161110DC09FB779
:101A9000F8948C91209582238C9388812823288325
:101AA0009FBFDF91CF910895623051F49FB7F894B2
:101AB0003C91822F809583238C93E8812E2BEFCF4E
:101AC0008FB7F894EC912E2B2C938FBFEACFCF9346
:101AD000C82F60E00E942B0D61E08C2FCF910C94F9
:101AE0007A0BCF93C82F61E00E942B0D60E08C2F02
:101AF000CF910C947A0BCF93DF9380936101809305
:101B000060011092A30110925F018091A201806C8C
:101B10008093A2018091A50187FD0DC08091A50150
:101B200080FF09C08091A40180935E018091A20191
:101B300080618093A20180915D01823009F443C0ED
:101B4000833061F4E99881E090E0880F991FFC01EF
:101B5000EF5FFE4F80E096E091838083D0915C013F
:101B600061E08D2F0E947A0B61E08D2F0E942B0D7A
:101B7000C0915D0161E08C2F0E947A0B61E08C2F97
:101B80000E942B0D83E290E00197F1F760E08C2F2B
:101B90000E947A0B8BEE90E00197F1F760E08D2FB9
:101BA0000E947A0B62E08C2F0E942B0D80E0C230E5
:101BB00021F08FEFC33009F481E067ED72E1DF912E
:101BC000CF910C94EF03E89890E080E0BECF909125
:101BD000A6018091A701891799F18091A5018160E3
:101BE0008093A5018091A50187FD2DC08091A20160
:101BF00087FD29C01092A4012FEF3FEF9F5F903423
:101C000008F090E0E92FF0E0EE59FE4F2F3F320749
:101C100071F4208130E09093A6018091A70189138F
:101C2000EDCF822F0E947B0D81E090E008958081AE
:101C30008B3BB9F78091A4018F5F8093A401EBCF18
:101C40008EEF9FEF08958AE79FEF08950F931F93FC
:101C5000CF93DF9310918C0380918B03181B17FD9A
:101C6000105C01E01F3364F580910A03A091090321
:101C70008A1B87FD805C882319F180910A03A817CD
:101C8000F9F0AF5FA03408F0A0E0A0930903B0E042
:101C9000AA0FBB1FA757BD4FCD91DC9111978D9116
:101CA0009C9192FDB0C02C2FCA3A20F08C2F815FFE
:101CB000823010F494FF0AC0DD27209709F0A5C0F8
:101CC000812FDF91CF911F910F910895809188020C
:101CD00095FF18C0806880938802D0E0C0E093FF31
:101CE0001EC0FE01E659FC4FE4912E130DC0C559EC
:101CF000DC4FFE01C491D0E02097D1F4809188029E
:101D0000D82BDBCF8F77E7CF2296C235D10549F7A5
:101D1000D0E0C0E0F3CF2296CE3DD105C9F3FE015D
:101D2000E457FD4FE4912E13F6CFC357DD4FE1CFBB
:101D300080918802FE01C330D10508F041C0EC5704
:101D4000FD4F87FF04C01082CBEBD0E026C090810E
:101D50009130D1F3008392E0C230D10509F491E0D3
:101D600020918302322F392339F190959223909359
:101D700083028068809388028DEE0E94110B8BEBAA
:101D80000E94110B809183020E94110B8BEB0E9429
:101D9000110B892B11F00E94E70D809188029E01A2
:101DA000205231092134310560F1CB38D10549F198
:101DB000816080938802A2CF922B90938302DCCF24
:101DC0003697E830F10560F4EC57FD4FE49187FF5A
:101DD00005C0E095E823E0938802DFCFE82BFBCF36
:101DE000FE01B097EB30F105C0F69091830291FFB0
:101DF00002C086FFD2CFE758FD4FE491CE2FD0E04E
:101E0000CCCF8E7FD6CFC6E0D0E0CE0199278B3BDA
:101E1000910509F427CF892B09F424CF80918C03F5
:101E20008F5F80340CF080E0E82FEE0FFF0BE55F52
:101E3000FC4FD183C08380938C031F5F13CF8E50E0
:101E4000806480937C0080917A00806480937A0023
:101E500080917A0086FDFCCF809178009091790086
:101E600008953FB7F8948091530190915401A09147
:101E70005501B091560126B5A89B05C02F3F19F01A
:101E80000196A11DB11D3FBFBA2FA92F982F8827FA
:101E9000BC01CD01620F711D811D911D42E0660FD5
:101EA000771F881F991F4A95D1F708958F929F92A7
:101EB000AF92BF92CF92DF92EF92FF924B015C0103
:101EC0000E94310F6B017C010E94310F6C197D095A
:101ED0008E099F09683E734081059105A8F321E0B2
:101EE000821A9108A108B10888EEC80E83E0D81EB6
:101EF000E11CF11C81149104A104B10429F7FF90A5
:101F0000EF90DF90CF90BF90AF909F908F9008950B
:101F1000CF93DF93CAE2D4E0FE01119284E0E3356F
:101F2000F807D9F781E0809353040E94AD0364E67B
:101F300070E080E090E00E94560F199284E0C33573
:101F4000D807D9F710925304DF91CF910C94AD03C9
:101F5000CF93DF93CAE2D4E0FE01119284E0E3352F
:101F6000F807D9F781E0809355040E94AD0364E639
:101F700070E080E090E00E94560F199284E0C33533
:101F8000D807D9F710925504DF91CF910C94AD0387
:101F90002FB7F89460914F017091500180915101D9
:101FA000909152012FBF0895CF92DF92EF92FF924E
:101FB000CF93DF93EC010E94C80F6B017C010E945C
:101FC000C80F6C197D098E099F096436710581055A
:101FD000910578F4809137050E94510B8C179D076D
:101FE00071F781E0DF91CF91FF90EF90DF90CF907C
:101FF000089580E0F7CFCF93DF9390E080E00E94D8
:10200000D40F809139050E94510BEC0181E090E0E2
:102010000E94D40FCE01DF91CF910895CF92DF922D
:10202000EF92FF920F931F93CF938091370590917A
:1020300038050E94670D8091390590913A050E94FC
:10204000670D83EC90E00197F1F790E080E00E944B
:10205000D40F8FE090E00197F1F781E090E00E94CB
:10206000D40FC0E010E000E0C12CD12C7601C39465
:102070000E94FB0FB701A601002E04C0440F551F9C
:10208000661F771F0A94D2F7892BC9F0C42B0F5F04
:102090001F4F0830110561F70E94FB0F0E94FB0FD4
:1020A00080913705909138050E94710D8C2FCF914A
:1020B0001F910F91FF90EF90DF90CF900895409582
:1020C000C423E5CF2091390530913A05019759F4A1
:1020D000C9010E94670D81E090E00E94D40F90E05A
:1020E00080E00C94D40FC9010E94710DF4CFBF920F
:1020F000CF92DF92EF92FF920F931F93CF93DF93D4
:10210000C82E8091390590913A050E94670D809103
:102110003705909138050E94670DCBEAD4E0CE01D7
:102120000197F1F780913705909138050E94710D64
:102130002197F1F78091390590913A050E94710D30
:1021400083E290E00197F1F780913705909138058F
:102150000E94670D90E080E00E94D40FB82E882383
:1021600009F43FC0EE24E394F12CD0E0C0E00C2C45
:10217000000CDD0886010C2E02C0159507950A9407
:10218000E2F701701127C8010E946210E026F126D3
:102190002196C830D10571F7C7010E946210809165
:1021A000390590913A050E94670D83EC90E0019704
:1021B000F1F790E080E00E94D40F809137050E94F3
:1021C000510B892BD1F3809139050E94510B892B3A
:1021D000A1F380913705909138050E94710D0E94FE
:1021E0000E108B2DDF91CF911F910F91FF90EF90EB
:1021F000DF90CF90BF90089580913705909138057A
:102200000E94670D8091390590913A050E94670DF3
:102210008FEF90E00E947710882321F00E940E102B
:102220000E940E1088EE90E00E94771083E090E00C
:102230000E94771086EE90E00E94771083EF90E086
:102240000E94771088E290E00E9477108AEE90E07A
:102250000E94771084EF90E00E9477108BE891E065
:102260000197F1F7809137059091380582309105FB
:10227000A9F00397A9F08FEF62E571E10E94EF03E7
:1022800080913705909138050E94670D809139053E
:1022900090913A050E94670D81E0089580E0ECCFAF
:1022A00081E0EACFCF92DF92EF92FF920F931F93DC
:1022B000CF9380913A020E94510B8C01C1E0892B8F
:1022C00009F4C0E00E94C80FC0903602D0903702D7
:1022D000E0903802F09039029B01AC012C193D09C5
:1022E0004E095F0969017A013BE0C316D104E1049C
:1022F000F10430F010923502109234021092330241
:1023000060933602709337028093380290933902BB
:10231000809135028F5F809335028A3048F4823095
:1023200010F58130A1F010923502109234020CC0E9
:102330008A3059F18B30B9F7809132028D3F78F1B4
:1023400010923402109235021092330204C010929F
:10235000330210923202CF911F910F91FF90EF90B4
:10236000DF90CF90089580913202C80FC09332025F
:102370008091330290E09595879520E0012B09F03C
:1023800020E8822B80933302E6CF80913202817065
:102390008C1719F080933202DECF8DEFFBCF809146
:1023A00034028130A1F130F1823061F68091330244
:1023B00090E090932F0280932E021092340280912D
:1023C00029028F5F803108F080E0909128029817F1
:1023D00009F4B8CF48E0849FD0011124A855BE4F1E
:1023E00098E0EAE2F2E001900D929A95E1F780938D
:1023F0002902A8CF8091330290E090932B02809322
:102400002A02809134028F5F809334029BCF8091A7
:10241000330290E090932D0280932C02F2CFCF9262
:10242000DF92EF92FF92CF93DF939091E9049111A5
:10243000B7C0D62FC82F0E94C80FE091E90427E04B
:102440002E9FA00111244C5D5B4FDA01A157BF4FB5
:102450006D937D938D939C93139714961C9215976F
:102460001C9243575F4FDA01CC9341E04E0F249FFB
:10247000A00111244C5D5B4FDA01A157BF4F6B01E6
:102480007C01FAEFCF0ED11CE11CF11CCD92DD9244
:10249000ED92FC92139714961C9215973FE03C9393
:1024A00043575F4FDA01CC9342E04E0F249FA001C7
:1024B00011244C5D5B4FDA01A157BF4F6B017C01CA
:1024C000F4EFCF0EF1E0DF1EE11CF11CCD92DD92A6
:1024D000ED92FC9213971496F1E0FC9315973C93C0
:1024E00043575F4FDA01CC9343E04E0F249FA00186
:1024F00011244C5D5B4FDA01A157BF4F6B017C018A
:102500003EEEC30E32E0D31EE11CF11CCD92DD92F3
:10251000ED92FC92139714961C921597DC934357F7
:102520005F4FDA01CC9344E04E0F249FA0011124A9
:102530004C5D5B4FDA01A157BF4F6B017C0138EE58
:10254000C30E33E0D31EE11CF11CCD92DD92ED925F
:10255000FC9213971496FC931597DC9343575F4FA7
:10256000DA01CC9335E03E0F239F900111242C5DBE
:102570003B4FD901A157BF4F6E517B4F8F4F9F4F9C
:102580006D937D938D939C9313971496FC9315975D
:102590001C9223573F4FD901CC93EA5FE093E904A3
:1025A000DF91CF91FF90EF90DF90CF900895CF9281
:1025B000DF92EF92FF920F931F93CF938091A2012E
:1025C00086FF72C08091A3018F5F8093A3018091E9
:1025D000A3018A3048F4823098F560E0813009F434
:1025E00048C01092A3019DC08B3009F44DC0E8F1A2
:1025F0008C30B9F7809160018E3E69F08091600166
:102600008E3F49F080916001809357018091A20133
:1026100082608093A2018091A2018F7B8093A201AE
:102620008091A50187FF3CC08091A5018F778093A1
:10263000A5018091A20184FDD4CF0E94E70DD1CFE6
:10264000C0916101C1706C2F80915C010E947A0B76
:1026500080915F01C80FC0935F018091610190E09C
:1026600095958795809361015CC060915F0160954D
:10267000617080915C01CF911F910F91FF90EF905D
:10268000DF90CF900C947A0B62E080915C01CF9147
:102690001F910F91FF90EF90DF90CF900C942B0D36
:1026A0008091A5018E7FC3CF80915C010E94510B68
:1026B000C82F0E94C80F0091580110915901209114
:1026C0005A0130915B016B017C01C01AD10AE20A08
:1026D000F30A970186010B3F11052105310520F012
:1026E0001092A301109261016093580170935901F7
:1026F00080935A0190935B018091A3018F5F809337
:10270000A3018091A3018A30A0F4823020F58130AA
:1027100009F067CF10925F018091A20180688093D9
:10272000A201CF911F910F91FF90EF90DF90CF907A
:1027300008958A3019F18B3009F053CF80915F01F1
:102740008D3F48F18EEF0E947B0D8091A50180683E
:102750008093A50146CF80915F018C0F80935F012C
:102760008091610190E0959587958093610190E05B
:10277000C11190E880916101892B74CF80915F0134
:10278000817080935F0180915F01C813CACF8DEF84
:1027900080935F01C6CF809161018E3F29F09091B7
:1027A000A2019D7F9093A2019091A20194FF02C08B
:1027B000803F70F09091A20192FD91C08E3E09F48D
:1027C00077C0E8F48A3A09F47FC020F4882359F1ED
:1027D00086E02CC0803E09F47BC0813EC9F7809121
:1027E000A20182FD1AC087E080935E018091A20160
:1027F00084608093A2018091A2018F7D0CC08C3FE8
:1028000009F44EC060F4803F19F781E080935E01C7
:102810008091A20180628093A20180E007C08E3F78
:10282000A9F18F3FA9F60E94FC0A8CE081FF05C048
:1028300090915E01915090935E0190915E01191606
:1028400014F482FF1EC090910A039F5F903408F039
:1028500090E0209109032917A1F020916101E92F4F
:10286000F0E030E0EE0FFF1FE757FD4F318320838C
:102870004091A20120813181342B318320839093B8
:102880000A03807171F1809160015DCF8091A20196
:1028900081FFC3CF809157018093600180E1C6CF53
:1028A00010925E011092A2011092A5018EE0BECF9F
:1028B0009091A20191FF0AC0909157019E3E31F084
:1028C0008093600184E1B2CF10925E0184E0AECFCC
:1028D00081E080935E018091A20188609CCF82E0BC
:1028E000A5CF80915E0118160CF47BCE8091A201D9
:1028F000837C8093A20110925E018091A2018F7768
:102900008093A2019ACEAF92BF92CF92DF92EF92C4
:10291000FF920F931F93CF93DF936C017B018B0189
:10292000040F151FEB015E01AE18BF08C017D107D9
:1029300059F06991D601ED91FC910190F081E02D63
:10294000C6010995892B79F7C501DF91CF911F91B8
:102950000F91FF90EF90DF90CF90BF90AF900895D0
:10296000089590E080E008958F929F92AF92BF9279
:102970000F931F93CF93DF93CDB7DEB7A1970FB619
:10298000F894DEBF0FBECDBF19A2423008F44AE072
:102990008E010F5D1F4F842E912CB12CA12CA5010F
:1029A00094010E94373FE62FB901CA01EA3044F58D
:1029B000E05DD801EE938D01232B242B252B79F795
:1029C00090E080E0109769F0FD0101900020E9F7A8
:1029D0003197AF014A1B5B0BBD018EEE94E00E9464
:1029E0008314A1960FB6F894DEBF0FBECDBFDF9162
:1029F000CF911F910F91BF90AF909F908F900895AE
:102A0000E95CD7CF462F682F70E090E080E00C940F
:102A1000B414809108058130D9F490910C0593305D
:102A200009F080E00E9467038AE08093F4048BE061
:102A30008093F504809112048A3020F484E696E0B5
:102A40000E9439066AE070E0809112040C9402152D
:102A50000895809108058130D9F490910C05923049
:102A600009F080E00E9467038AE08093F40489E023
:102A70008093F504809115048A3020F484E696E072
:102A80000E9439066AE070E0809115040C940215EA
:102A90000895809108058130D9F490910C0591300A
:102AA00009F080E00E9467038AE08093F40488E0E4
:102AB0008093F504809114048A3020F484E696E033
:102AC0000E9439066AE070E0809114040C940215AB
:102AD0000895809108058130D1F490910C059111F1
:102AE00080E00E9467038AE08093F40487E080938B
:102AF000F504809113048A3020F484E696E00E9465
:102B000039066AE070E0809113040C940215089570
:102B1000CF9390910805911118C0C82F89E0809338
:102B2000F2041092F3048AE08093F40486E1809327
:102B3000F504C03120F484E696E00E94390660E195
:102B400070E08C2FCF910C940215CF910895CF9304
:102B500080912904882399F08091F804882379F0E2
:102B6000C62F80918E04882319F0862F0E94881525
:102B700080918B048230D1F120F48130F9F0CF9133
:102B80000895833009F44AC08430C9F7C3FB88270D
:102B900080F980932C04C2FB882780F980932B0452
:102BA000C1FB882780F9809337048C2F8170809334
:102BB0002F04C295C170C0934104E1CFC1FB8827A7
:102BC00080F980932D048C2F817080933504C2FB93
:102BD000882780F980933D04C3FB882780F9809380
:102BE0004504C295C170C0934D04C9CFC1FB88276D
:102BF00080F980934E048C2F817080934604C2FB31
:102C0000882780F980933E04C3FB882780F980934E
:102C10003604C295C170C0932E04B1CFC1FB882782
:102C200080F980934D04C2FB882780F980934E047D
:102C3000C3FB882780F9809346048C2F8170809392
:102C40003E04E7CF1F93CF93DF93182FD62FC42FC7
:102C500089E08093F2041092F3048AE08093F404F4
:102C600085E18093F504103120F484E696E00E941B
:102C7000390660E170E0812F0E94021580E696E03F
:102C80000E943906D03120F484E696E00E9439068D
:102C900060E170E08D2F0E94021580E696E00E94B0
:102CA0003906C03120F484E696E00E94390660E1DE
:102CB00070E08C2FDF91CF911F910C94021500973B
:102CC00069F0FC0101900020E9F73197AF01481B42
:102CD000590BBC018EEE94E00C94831490E080E0DC
:102CE00008954F925F926F927F928F929F92AF92D0
:102CF000BF92CF92DF92EF92FF92CF93DF9300D0FB
:102D000000D0CDB7DEB70E94C80FC0900405D090A8
:102D10000505E0900605F09007052B013C014C18D5
:102D20005D086E087F08C301B20128EE33E040E081
:102D300050E00E94373F29833A834B835C83C30171
:102D4000B20120E63AEE40E050E00E94373F6901D0
:102D50007A01C301B20120E83EEE46E350E00E9452
:102D6000373F49015A01C301B20120E03CE546E288
:102D700055E00E94373F29013A01ACE3B0E0A701DA
:102D800096010E94593F29813A814B815C81261B23
:102D9000370B480B590B29833A834B835C83A5017E
:102DA00094010E94593FC61AD70AE80AF90AA8E115
:102DB000B0E0A30192010E94593F861A970AA80A1F
:102DC000B90A8EE08093F4048BE08093F5048FE0E1
:102DD0008093F2041092F3044114510461047104CD
:102DE000A1F04AE0C301B2010E94B41481E796E069
:102DF0004A9445284628472811F48CE696E00E941C
:102E0000390686E696E00E9439064AE08416910467
:102E1000A104B10420F484E696E00E9439064AE059
:102E2000C501B4010E94B41482E696E00E943906FE
:102E30005AE0C516D104E104F10420F484E696E0DA
:102E40000E9439064AE0C701B6010E94B41482E626
:102E500096E00E94390689819A81AB81BC810A97EC
:102E6000A105B10520F484E696E00E9439064AE007
:102E700069817A818B819C810F900F900F900F90C8
:102E8000DF91CF91FF90EF90DF90CF90BF90AF9008
:102E90009F908F907F906F905F904F900C94B414A0
:102EA000CF92DF92EF92FF92CF93DF936C01990F55
:102EB000EE08FF08F7FE19C06DE28EEE94E00E9466
:102EC0000106EC0166277727CB016C197D098E0975
:102ED0009F094AE00E94B4148C0F9D1FDF91CF918F
:102EE000FF90EF90DF90CF9008954AE0C701B601C0
:102EF000DF91CF91FF90EF90DF90CF900C94B414BE
:102F000080910805813099F590910C05953009F074
:102F100080E00E9467038AE08093F4048DE0809350
:102F2000F50480910F0490911004883E934024F49E
:102F300084E696E00E94390680910F049091100477
:102F40008436910524F484E696E00E943906809147
:102F50000F04909110040A9724F484E696E00E94EE
:102F6000390680910F04909110040C945017089525
:102F700087E08093F2041092F30488E18093F404D4
:102F80001092F504809113048831C8F590911404CF
:102F90009C33A8F5909115049C3388F58A3020F471
:102FA00084E696E00E9439066AE070E0809113049E
:102FB0000E94021582E696E00E9439068091140470
:102FC0008A3020F484E696E00E9439066AE070E0D8
:102FD000809114040E94021582E696E00E94390650
:102FE000809115048A3020F484E696E00E94390628
:102FF0006AE070E0809115040E94021507C081E02C
:103000008093F30487E096E00E94390687E080937E
:10301000F2041092F30486E18093F40481E080933B
:10302000F50480910F04909110048F30974264F45E
:10303000809111048D3040F480911204803220F48C
:10304000909119049830F8F081E08093F3048AEFAE
:1030500095E00E94390680910805813071F40E9444
:1030600069150E9449150E9429150E9409150E94A0
:10307000A1060E9480170E945E0680910805843098
:1030800059F50C9471168A3020F484E696E00E947B
:1030900039066AE070E0809112040E94021585E012
:1030A00096E00E943906809111048A3020F485E26E
:1030B00091E00E945F166AE070E0809111040E9426
:1030C000021585E096E00E94390680910F049091E8
:1030D00010040E945017BFCF0895CF9380E00E9444
:1030E000AE09CEE0C093F2041092F30483E1809322
:1030F000F40482E08093F5048BE195E00E943906A8
:103100006091FA048EEE94E00E9401066091FB0447
:103110008EEE94E00E9401066091FC048EEE94E035
:103120000E9401066091FD048EEE94E00E9401066B
:103130006091FE048EEE94E00E9401066091FF040F
:103140008EEE94E00E940106609100058EEE94E000
:103150000E940106609101058EEE94E00E94010636
:10316000C093F2041092F30484E18093F40483E0AA
:103170008093F50486E195E00E943906809102056E
:10318000909103050E945F168FE08093F2041092E5
:10319000F3041092F40484E08093F504C0E26FE538
:1031A0008EEE94E00E940106C150C9F7CF910C94B5
:1031B000B81780912904882349F08091F804882366
:1031C00029F080918E0481110C94B81708950F9303
:1031D0001F93CF93DF93EC0189E08093F204109268
:1031E000F3048AE08093F40484E18093F5040D2FC6
:1031F00011270031110520F484E696E00E9439067B
:10320000B80190E080E040E10E94B41480E696E0CE
:103210000E943906DD27C031D10520F484E696E00E
:103220000E943906BE0190E080E040E1DF91CF913D
:103230001F910F910C94B4141092D9031092D803DB
:103240008091D703882359F02091D8033091D90376
:10325000809105019091060128173907F0F020911F
:10326000D8033091D9038091050190910601281768
:103270003907E8F00E943E050E94B10B8091D5030A
:103280009091D60301969093D6038093D50380E066
:103290001092AE038093AD0308958091D80390916E
:1032A000D90301969093D9038093D803C9CF81E0C5
:1032B0008093D7038093D4039FEF9093D30310920E
:1032C000D2031092D1038093B0038091B003806D3C
:1032D0008093B0038091AF03813009F062C01092F7
:1032E000AF031092D9031092D8038091B00380935A
:1032F000BB008091D8039091D90301969093D90394
:103300008093D8038091BC0083FF0BC02091D80329
:103310003091D90380910501909106012817390752
:1033200020F32091D8033091D90380910501909129
:1033300006012817390708F09DCF85EC8093BC0063
:103340001092D9031092D8038091D703813059F499
:103350002091D8033091D903809105019091060105
:103360002817390700F12091D8033091D9038091B3
:103370000501909106012817390708F07BCF80914D
:10338000D20381111AC08091D203A1EBB3E0EDE822
:10339000F3E090E0981709F47BCF2D9121939F5F84
:1033A000F9CF85EECBCF8091D8039091D9030196C8
:1033B0009093D9038093D803C7CF81E0E6CF88E606
:1033C0000E94750382E090E00E94FB050E94D50BED
:1033D0000E941C190E94920326E0969587952A95D3
:1033E000E1F781700895CF93DF93C82F0E94DF1912
:1033F000D82F88E60E94750382E090E00E94FB05CA
:103400008C2FD11110C06AE00E94733F682F660FA5
:10341000680F660F6C0F8EEF93E00E94CC05DF9172
:10342000CF910C94D50BCD3078F06CE00E94733FB7
:10343000292F892F6AE00E94733F682F660F680F5B
:10344000660F620F6066E7CF6AE00E94733F682FE5
:10345000660F680F660F6C0F6064DDCFCF9388E650
:103460000E94750382E090E00E94FB050E94D50B4C
:103470000E941C190E949203C82F88E60E947503BF
:1034800082E090E00E94FB056C2F6F7B8EEF93E053
:103490000E94CC05CF910C94D50BCF93C82F88E612
:1034A0000E94750390E080E00E94FB050E94D50B0E
:1034B0000E941C190E9492038078C82B88E60E9403
:1034C000750390E080E00E94FB058C2F6AE00E946B
:1034D000733F682F660F680F660F6C0F8EEF93E0D7
:1034E0000E94CC05CF910C94D50B88E60E94750301
:1034F00090E080E00E94FB050E94D50B0E941C1901
:103500000E9492038F77282F30E094E0359527951D
:103510009A95E1F7922F990F990F291B220F820F8D
:10352000089588E60E94750381E090E00E94FB0503
:103530000E94D50B0E941C190E9492039C0194E0EA
:10354000359527959A95E1F72F703327922F990F8C
:10355000990F291B220F820F0895CF930E94DF1924
:10356000C82F88E60E94750382E090E00E94FB0568
:103570000E94D50B0E941C190E949203C11110C019
:10358000AC0194E0559547959A95E1F74F70552712
:10359000942F990F990F491B440F840FCF910895D1
:1035A000482F4F79242F30E084E0359527958A9570
:1035B000E1F7822F880F880F922F981B892F880F91
:1035C000ECCF88E60E94750383E090E00E94FB0543
:1035D0000E94D50B0E941C190E949203089588E650
:1035E0000E94750384E090E00E94FB050E94D50BC9
:1035F0000E941C190E9492039C0194E03595279526
:103600009A95E1F72F703327922F990F990F291B65
:10361000220F820F089588E60E94750385E090E0EE
:103620000E94FB050E94D50B0E941C190E94920368
:103630009C0194E0359527959A95E1F72F703327F3
:10364000922F990F990F291B220F820F089588E658
:103650000E94750386E090E00E94FB050E94D50B56
:103660000E941C190E9492039C0194E035952795B5
:103670009A95E1F72F703327922F990F990F291BF5
:10368000220F820F90E08053984F0895CF9388E6E1
:103690000E94750390E080E00E94FB050E94D50B1C
:1036A0000E941C190E949203C82F88E60E9475038D
:1036B00090E080E00E94FB056C2F6F778EEF93E027
:1036C0000E94CC05CF910C94D50B88E60E9475031F
:1036D00090E080E00E94FB050E94D50B0E941C191F
:1036E0000E9492038095881F8827881F08950E9452
:1036F0002E1A809112040E94E80C809111040E94FD
:10370000CF0C80910F04909110040E94AF0C809117
:1037100019040E94010D809113040E94F3198091F5
:1037200014040E94120D809115040E944D1A0E94EB
:10373000651B811102C00C94461B08951F93CF9303
:10374000DF93EC01162F0E94F93E181739F0612F14
:10375000CE01DF91CF911F910C94013FDF91CF916A
:103760001F910895CF93DF93C7E7D4E08883682F34
:1037700090E080E00E949E1B8881982F917090932A
:1037800054048695817080936E04DF91CF910895E3
:1037900080918F04811112C08091080581113CC075
:1037A00081E090910A05973009F080E00E9467035C
:1037B0008AE08093F4048CE08093F504809178048F
:1037C00090917704891710F40E94B21B80917704BE
:1037D0008130C9F038F08230C9F08330D1F080E414
:1037E00096E002C083EF95E00E9439068FE0809357
:1037F000F2041092F30480E696E00E94390680E617
:1038000096E00C94390684E995E0EECF81E995E0E5
:10381000EBCF8EE895E0E8CF08950F931F93CF93F9
:10382000DF931092080510928F0410927104DFE06C
:10383000D093F2041092F3040E94C30A0E946D1800
:103840001092F40415E01093F5048DE095E00E94C9
:1038500006070E945909C4E1C093F4041093F504CB
:1038600082E095E00E94FF061092F40416E01093A7
:10387000F50488EF94E00E9406070E942E09C09389
:10388000F4041093F50480EF94E00E94FF06109278
:10389000F40417E01093F5048AEE94E00E94060702
:1038A0000E940309C093F4041093F50482EE94E09F
:1038B0000E94FF061092F40418E01093F5048AEDBC
:1038C00094E00E9406070E94CF08C093F40410936E
:1038D000F50482ED94E00E94FF061092F40419E0D2
:1038E0001093F50489EC94E00E9406070E94A40856
:1038F000C093F4041093F50481EC94E00E94FF0659
:103900001092F4041AE01093F5048BEB94E00E94FB
:1039100006070E948308C093F4041093F50483EB18
:1039200094E00E94FF061092F4041BE01093F5044B
:103930008DEA94E00E9406070E946108C093F40497
:103940001093F50484EA94E00E94FF061092F404B8
:103950001CE01093F5048EE994E00E9406070E9493
:10396000C81BC093F4041093F50485E994E00E9409
:10397000FF061092F4041DE01093F5048CE894E027
:103980000E9406070E943608C093F4041093F504C1
:1039900083E894E00E94FF061092F4041EE0109366
:1039A000F5048AE794E00E9406070E940B08C09382
:1039B000F4041093F50483E794E00E94FF0610924C
:1039C000F404D093F5048AE694E00E9406070E946E
:1039D000B707C093F404D093F50483E694E00E9403
:1039E000FF061092F404D0E1D093F5048CE594E046
:1039F0000E9406070E948907C093F404D093F5043F
:103A000085E594E00E94FF061092F404D1E1D09382
:103A1000F5048EE494E00E9406070E945E07C093BE
:103A2000F404D093F50487E494E00E94FF0610921A
:103A3000F404D2E1D093F5048EE394E00E940607EB
:103A40000E943C07C093F404D093F50487E394E00C
:103A50000E94FF061092F404D3E1D093F50481E3B1
:103A600094E00E9406070E941107C093F404D093CB
:103A7000F50481E394E00E94FF061092F404C093E1
:103A8000F50488E294E00E94060780910805811100
:103A900004C090E080E00E94E7181092F40485E1F1
:103AA0008093F50482E294E00E9406078091080565
:103AB000811104C040E060E00E9422161092F404DC
:103AC00006E10093F50489E194E00E94060780E096
:103AD0000E94881514E11093F4041093F504D7E0C4
:103AE000D093F204C1E0C093F30487E194E00E9414
:103AF00039068EE094E00E94F8061093F40485E104
:103B00008093F50487E094E00E94F806D093F204D5
:103B1000C093F30485E094E00E94390681E094E0CC
:103B20000E94F8061093F4040093F504D093F20475
:103B3000C093F3048FEF93E00E9439068AEF93E07D
:103B40000E94F806D093F204C093F30488EF93E048
:103B50000E94390683EF93E00E94F8061092F40465
:103B600087E18093F504C0E26FE58EEE94E00E9459
:103B70000106C150C9F71092F40488E18093F5045E
:103B80008CEE93E00E94F8068FED93E00E94FF0612
:103B900084ED93E00E94F8061092F40489E180938A
:103BA000F5048CEE93E00E94F8068BEC93E00E9403
:103BB000FF068CEB93E0DF91CF911F910F910C9456
:103BC000F8060F931F93CF93C82F8B010E94C80F45
:103BD00080914101811104C061E080E10E947A0B73
:103BE0008091F804882309F4DFC080918E04882333
:103BF00009F476C0C33108F0D7C0EC2FF0E0ED5FD8
:103C0000F14E0C947F3F161E1B1E251E2F1E341EC8
:103C1000391E3E1E431E481E4D1E521ED41E571EE8
:103C20005C1E611E661ED41E2A1E6B1ECF911F9144
:103C30000F910C940D1C809108058111B5C0C8012D
:103C4000CF911F910F910C94E718CF911F910F9175
:103C50000C940B08CF911F910F910C94B707CF9143
:103C60001F910F910C943608CF911F910F910C94D6
:103C70005909CF911F910F910C942E09CF911F914B
:103C80000F910C940309CF911F910F910C94CF08C1
:103C9000CF911F910F910C94A408CF911F910F9178
:103CA0000C948308CF911F910F910C946108CF91D0
:103CB0001F910F910C943C07CF911F910F910C9481
:103CC0001107CF911F910F910C94C81BCF911F9199
:103CD0000F910C948907CF911F910F910C945E075F
:103CE000C03108F05CC0CC3028F48EEF8C0F8930E6
:103CF00008F05AC00E94C80F6093320170933301DC
:103D0000809334019093350180918F04811107C015
:103D10008FE08093F2041092F3040E94C30A81E0C2
:103D200080938F0480937104E0912704F09128041C
:103D300070E060E080E109958FE08093F2041092DA
:103D4000F3040E94C30A80E0C03109F485E00E94B8
:103D5000AE09C03149F18FE08093F2041092F30470
:103D60001092F40485E08093F504C250C13120F52F
:103D7000EC2FF0E0E254F14E0C947F3F151F121F20
:103D8000D81EFD1E001F031F061F091F0C1FDC1E6F
:103D9000211F241F0F1F1B1FDC1E181F1E1F8FEE4D
:103DA0008C0F823008F4A6CFCF911F910F91089508
:103DB0008DE095E00E9439060E9454061092F404AA
:103DC00086E08093F504C13108F043C0EC2FF0E0A9
:103DD000E451F14E0C947F3F461F431F271F2E1FB7
:103DE000311F341F371F3A1F3D1F291F521F551FF8
:103DF000401F4C1F291F491F4F1F88EF94E0DACF47
:103E00008AEE94E0D7CF8AED94E0D4CF89EC94E0A9
:103E1000D1CF8BEB94E0CECF8DEA94E0CBCF8EE97F
:103E200094E0C8CF8CE894E0C5CF8AE794E0C2CF95
:103E30008AE694E0BFCF8CE594E0BCCF8EE494E0BA
:103E4000B9CF8EE394E0B6CF81E394E0B3CF0E9484
:103E50005909CF911F910F910C9454060E942E097D
:103E6000F8CF0E940309F5CF0E94CF08F2CF0E943D
:103E7000A408EFCF0E948308ECCF0E946108E9CF2D
:103E80000E94C81BE6CF0E943608E3CF0E940B08B1
:103E9000E0CF0E94B707DDCF0E948907DACF0E94EA
:103EA0005E07D7CF0E943C07D4CF0E941107D1CF25
:103EB000611103C064E10C949E1B6AE0FCCF0F9378
:103EC0001F93CF93DF93682F617006E814E0F80129
:103ED0006083C8E8D4E086958170888388E090E0AC
:103EE0000E94581F68818AE090E00E94581FF801E4
:103EF000808180936804888180936A04DF91CF91E8
:103F00001F910F9108958130F9F0C8F08230F9F0D7
:103F1000833019F16091820484E090E00E94581F80
:103F20006091830485E090E00E94581F8091820494
:103F300080936304809183048093640408951092B5
:103F4000820410928304E6CF80938204FACF109209
:103F5000820481E080938304DDCF81E0809382043A
:103F6000F9CF90912904992309F444C09091F80461
:103F7000992309F43FC0882319F0813059F108953D
:103F800060913E0560937B048CE090E00E94581F96
:103F900061E080E10E947A0B64E670E080E090E0EE
:103FA0000E94560F60E080E10E947A0B64E670E0A8
:103FB00080E090E00E94560F61E080E10E947A0B61
:103FC00064E670E080E090E00E94560F60E080E1DF
:103FD0000C947A0B80918E04882361F080910805FF
:103FE000811108C0409152056091510580915005A2
:103FF0000C9422160895CF93C0917A048C1708F47C
:10400000C82FC09379046C2F8EE090E00E949E1B15
:104010008C2F817080936F04C695C170C09370041B
:10402000CF910895CF93C82F853008F0C4E0C09396
:104030008B046C2F8FE090E00E949E1B8C2F817070
:1040400080937204C1FB882780F980937304C2FBBC
:10405000CC27C0F9C0937404CF910895CF92DF921A
:10406000EF92FF92CF936A017B01692F661F66274B
:10407000661F609382021092810260935604382F6B
:10408000331F3327331F30936104FC01FF27E6FB06
:10409000332730F930936004E5FB332730F9309350
:1040A0005F04E4FB332730F930935E04E3FB3327EE
:1040B00030F930935D04E2FB332730F930935C0430
:1040C000E1FB332730F930935B043E2F317030939E
:1040D0005A0491110C94CE28863011F00C94CE28FD
:1040E000CF91FF90EF90DF90CF900C94A8040E94A6
:1040F000A80480918102882341F08091AF049091BF
:10410000B004892B11F410922A048091AF0490918D
:10411000B004181619061CF481E080932A048091DB
:104120007E048823C1F080917F048823A1F08091D0
:104130007F02882381F010927E0410927F041092F7
:104140007F0210928002109281021092B0041092AD
:10415000AF040E94880F80917E048823C1F1809172
:104160007F048823A1F180917E02882381F110923F
:104170007E0410927F0410927E02109280021092B0
:1041800081021092B0041092AF04EAE2F4E01192BE
:1041900024E0E335F207D9F7C1E0C09353040E944D
:1041A000AD03C09333040E94AD0364EF71E080E07F
:1041B00090E00E94560F109253040E94AD0364EFEA
:1041C00071E080E090E00E94560F10923304CF918E
:1041D000FF90EF90DF90CF900895209176042223F6
:1041E00071F02FE030E0892F8095881F8827881F85
:1041F0002C5D3B4FF9018683809380027ACF30E0BB
:1042000020E0F1CF20917604222371F030E020E00D
:10421000892F8095881F8827881F2C5D3B4FF901C7
:10422000868380937E0465CF2FE030E0F1CFC92FE5
:10423000C095CC1FCC27CC1FC093390420917604A5
:1042400086E090E0211102C090E080E08C5D9B4F01
:10425000FC01C683211104C08AE090E00E94B804EA
:10426000C0937F0446CFC92FC095CC1FCC27CC1F4D
:10427000C09339042091760487E090E0211102C0B8
:1042800090E080E08C5D9B4FFC01C683211104C04F
:104290008BE090E00E94B804C0937F042ACF209165
:1042A0008002211126CF892F8095982F991F992759
:1042B000991F20917604222351F090932F0490931C
:1042C0005204881F8827881F80937F0212CF909303
:1042D000390490934204F5CF892F8095881F882751
:1042E000881F80937D0405CF892F8095881F88279C
:1042F000881F80937C04FDCE209180022111F9CE8D
:10430000892F8095881F8827881F9091760499238C
:1043100029F08093370480935204EBCE80933904C4
:1043200080932B04E6CE209180022111E2CE892FCA
:104330008095881F8827881F8093950480932A047E
:104340008093460487E190E00E94B804D2CE209189
:1043500080022111CECE892F8095881F8827881F43
:104360008093960480932A0480934E0488E190E021
:104370000E94B804BECE209180022111BACE892FAE
:104380008095881F8827881F8093970480932A042C
:1043900080934D0485E190E00E94B804AACE20915C
:1043A00080022111A6CE892F8095881F8827881F1B
:1043B0008093980480932A0480933E0486E190E0E1
:1043C0000E94B80496CE20917C0421110CC020914B
:1043D0007D04211108C020917E042223B9F120918F
:1043E0007F04222399F1611184CE809190049091F1
:1043F0009104A0919204B0919304A7019601281B07
:10440000390B4A0B5B0BDA01C901893C9105A10507
:10441000B10508F46ECE80918E0491E089278093D7
:104420008E0480936D04882341F0E0912704F0917D
:10443000280470E060E080E00995C0929004D0927A
:104440009104E0929204F092930453CE892F8095C8
:10445000881F8827881F80939A0480932A0490914C
:10446000760423E030E0911102C027E030E02C5DBB
:104470003B4FF90186838BE190E00E94B80439CE6E
:10448000C92FC095CC1FCC27CC1FC0932A04C09342
:104490002E048CE190E00E94B804C0937E0229CEE5
:1044A000892F8095881F8827881F809330048093E8
:1044B00099041FCE892F8095881F8827881F809395
:1044C000310417CE892F8095881F8827881F8093F5
:1044D0002B040FCE892F8095881F8827881F8093F3
:1044E000510407CE892F8095881F8827881F8093C5
:1044F0004204FFCD20917C0421110CC020917D0449
:10450000211108C020917E042223E9F020917F042C
:104510002223C9F06111EDCD60918C0481E0682700
:1045200060938C0480E190E00E94581F80918C047D
:1045300080937504E0912704F091280470E060E016
:1045400082E10995D6CD892F8095881F8827881FFD
:1045500080933B04CECD892F8095881F8827881FA4
:1045600080933C04C6CD892F8095881F8827881F9B
:1045700080934304BECD892F8095881F8827881F8C
:1045800080934B04B6CD892F8095881F8827881F7C
:1045900080935004AECD892F8095881F8827881F6F
:1045A00080933F04A6CD20917C0421110CC0209162
:1045B0007D04211108C020917E042223E9F020917E
:1045C0007F042223C9F0611194CD60918A0481E0B7
:1045D000682760938A048DE090E00E94581F8091C4
:1045E0008A0480936C04E0912704F091280470E021
:1045F00060E082E009957DCD892F8095881F88270E
:10460000881F8093480475CD892F8095881F88273F
:10461000881F809340046DCD892F8095881F88273F
:10462000881F8093380465CD20917C0421110CC033
:1046300020917D04211108C020917E042223E9F0FD
:1046400020917F042223C9F0611153CD80918B0406
:104650008F5F853078F480938B0480918B040E9467
:104660001220E0912704F091280470E060E081E1DD
:1046700009953FCD10928B04F0CF892F8095881F2C
:104680008827881F8093410434CD892F8095881F07
:104690008827881F809349042CCD892F8095881FF7
:1046A0008827881F8093370424CD892F8095881F01
:1046B0008827881F80932F041CCD892F8095881F01
:1046C0008827881F80932C0414CD892F8095881FFC
:1046D0008827881F809344040CCD892F8095881FDC
:1046E0008827881F8093330404CD892F8095881FE5
:1046F0008827881F80934C04FCCC892F8095881FC5
:104700008827881F80934704F4CC20917C042111D2
:104710000CC020917D04211108C020917E04222329
:10472000F1F020917F042223D1F06111E2CC80913D
:1047300079048F5F8093790490917A04981710F42C
:1047400010927904809179040E94FB1FE091270464
:10475000F091280470E060E08FE00995CACC892FC1
:104760008095881F8827881F80934A04C2CC892F90
:104770008095881F8827881F80933404BACC892F9E
:104780008095881F8827881F80933A04B2CC892F90
:104790008095881F8827881F80934F04AACC892F73
:1047A0008095881F8827881F80933204A2CC892F88
:1047B0008095881F8827881F80932E049ACC892F84
:1047C0008095881F8827881F80932D0492CC892F7D
:1047D0008095881F8827881F809335048ACC892F6D
:1047E0008095881F8827881F80933D0482CC892F5D
:1047F0008095881F8827881F809345047ACC892F4D
:104800008095881F8827881F80934D0472CC892F3C
:104810008095881F8827881F80934E046ACC892F33
:104820008095881F8827881F8093460462CC892F33
:104830008095881F8827881F80933E045ACC892F33
:104840008095881F8827881F8093360452CC892F33
:104850008095881F8827881F80932E044ACC892F33
:104860008095881F8827881F80932D0442CC892F2C
:104870008095881F8827881F809335043ACC892F1C
:104880008095881F8827881F80933D0432CC892F0C
:104890008095881F8827881F809345042ACC892FFC
:1048A0008095881F8827881F80934D0422CC892FEC
:1048B0008095881F8827881F80934E041ACC892FE3
:1048C0008095881F8827881F8093460412CC892FE3
:1048D0008095881F8827881F80933E040ACC892FE3
:1048E0008095881F8827881F8093360402CC292F43
:1048F0002095221F2227221F209339043091800205
:1049000085E090E0311102C08CE190E08C5D9B4F1E
:10491000FC012683662321F010922F041092460496
:1049200030938102E6CB292F2095221F2227221FB8
:1049300020933904309180028AE190E0311102C065
:104940008FE190E08C5D9B4FFC012683662321F074
:10495000109244041092490430938102CACB292F4B
:104960002095221F2227221F209339043091800294
:1049700082E290E0311102C087E190E08C5D9B4FB4
:10498000FC012683662321F010924C04109241040E
:1049900030938102AECB292F2095221F2227221F80
:1049A000209339043091800288E090E0311102C0F8
:1049B0008DE090E08C5D9B4FFC012683662321F007
:1049C00010923204109237043093810292CB2091DE
:1049D000760421110BC061118CCB2091800269E11A
:1049E000211101C065E20E940F1283CB292F20956F
:1049F000221F2227221F20933904809180028823BE
:104A000071F089E190E08C5D9B4FFC012683662369
:104A100009F46FCB1092430410924F046ACB85E2E5
:104A200090E0F1CF2091760421110BC0611161CB90
:104A30002091800261E2211101C06DE10E940F12FC
:104A400058CB292F2095221F2227221F209339047B
:104A500080918002882371F081E290E08C5D9B4F11
:104A6000FC012683662309F444CB10924B04109278
:104A700047043FCB8DE190E0F1CF292F2095221FF5
:104A80002227221F209339043091800288E190E090
:104A9000311102C080E290E08C5D9B4FFC012683C7
:104AA000662321F01092420410924A04309381024E
:104AB00020CB2091760421110BC061111ACB2091DB
:104AC000800269E0211101C061E10E940F1211CB47
:104AD000292F2095221F2227221F209339048091FD
:104AE0008002882371F089E090E08C5D9B4FFC018F
:104AF0002683662309F4FDCA1092330410923B0406
:104B0000F8CA81E190E0F1CF292F2095221F2227BA
:104B1000221F209339043091800286E190E0311108
:104B200002C08EE090E08C5D9B4FFC0126836623E3
:104B300021F0109240041092380430938102D9CAB7
:104B4000292F2095221F2227221F209339043091DC
:104B5000800284E090E0311102C08EE190E08C5D33
:104B60009B4FFC012683662321F010922E041092A5
:104B7000480430938102BDCAC0918002CC2309F45D
:104B8000FFC2611103C061E00E940F12C093810255
:104B9000B0CA892F8095881F8827881F8093390481
:104BA00080935104A6CA892F8095881F8827881F63
:104BB00080933904809348049CCA892F8095881F6C
:104BC0008827881F809339048093400492CA2091DB
:104BD0007C0421110CC020917D04211108C020917A
:104BE0007E042223E9F020917F042223C9F0611181
:104BF00080CA6091890481E06827609389048BE012
:104C000090E00E94581F8091890480936B04E0918A
:104C10002704F091280470E060E083E0099569CAF8
:104C2000892F8095881F8827881F80932A04809366
:104C30003F048DE190E00E94B8045BCA892F809503
:104C4000881F8827881F80932A048093390483E073
:104C500090E00E94B8044DCA20918002211149CAF7
:104C6000892F8095881F8827881F90917604992323
:104C700029F080934104809352043BCA80932A0414
:104C800080933D0483E190E00E94B80432CA2091F1
:104C9000800221112ECA892F8095881F8827881F9E
:104CA00090917604992329F08093490480935204CB
:104CB00020CA80932A048093450484E190E00E94F6
:104CC000B80417CA20918002211113CA892F809538
:104CD000881F8827881F809340048093520409CA44
:104CE00020918002211105CA892F8095881F88276D
:104CF000881F8093380480935204FBC920917C0460
:104D000021110CC020917D04211108C020917E0446
:104D1000222391F020917F04222371F06111E9C9CF
:104D200080E00E94831FE0912704F091280470E046
:104D300060E084E00995DDC9892F8095881F882768
:104D4000881F80932B0480935204D3C920917C0444
:104D500021110CC020917D04211108C020917E04F6
:104D6000222391F020917F04222371F06111C1C9A7
:104D700081E00E94831FE0912704F091280461E004
:104D800070E084E00995B5C9892F8095881F882730
:104D9000881F8093510480935204ABC920917C04F6
:104DA00021110CC020917D04211108C020917E04A6
:104DB000222391F020917F04222371F0611199C97F
:104DC00082E00E94831FE0912704F091280462E0B2
:104DD00070E084E009958DC9892F8095881F882708
:104DE000881F809342048093520483C920917C04DD
:104DF00021110CC020917D04211108C020917E0456
:104E0000222391F020917F04222371F0611171C956
:104E100083E00E94831FE0912704F091280463E05F
:104E200070E084E0099565C9892F8095881F8827DF
:104E3000881F80933B04809352045BC920917C04BB
:104E400021110CC020917D04211108C020917E0405
:104E50002223E9F020917F042223C9F0611149C97E
:104E60006091840481E068276093840486E090E088
:104E70000E94581F8091840480936504E091270468
:104E8000F091280470E060E085E0099532C9892F2F
:104E90008095881F8827881F80933C048093520444
:104EA00028C920917C0421110CC020917D0421117E
:104EB00008C020917E042223E9F020917F04222360
:104EC000C9F0611116C96091850481E0682760937B
:104ED000850487E090E00E94581F809185048093AC
:104EE0006704E0912704F091280470E060E086E018
:104EF0000995FFC8892F8095881F8827881F809370
:104F0000430480935204F5C820917C0421110CC005
:104F100020917D04211108C020917E042223C1F03C
:104F200020917F042223A1F06111E3C880918604BF
:104F3000909188048F5F911180E00E945F1FE09143
:104F40002704F091280470E060E087E00995D1C85B
:104F5000892F8095881F8827881F80934B04809312
:104F60005204C7C820917C04211108C020917E04FE
:104F70002223E9F020917F042223C9F06111B9C8EE
:104F80006091870481E068276093870489E090E05E
:104F90000E94581F8091870480936904E091270440
:104FA000F091280470E060E088E00995A2C8892F9C
:104FB0008095881F8827881F80935004809352040F
:104FC00098C820917C0421110CC020917D042111EE
:104FD00008C020917E042223E9F020917F0422233F
:104FE000C9F0611186C86091800481E068276093F0
:104FF000800482E090E00E94581F8091800480939A
:105000005804E0912704F091280470E060E089E002
:1050100009956FC8892F8095881F8827881F8093DE
:105020003F048093520465C820917C0421110CC078
:1050300020917D04211108C020917E042223E9F0F3
:1050400020917F042223C9F0611153C8609181042B
:1050500081E068276093810483E090E00E94581FFC
:105060008091810480935904E0912704F0912804F1
:1050700070E060E08AE009953CC8892F8095881F20
:105080008827881F809348048093520432C8209157
:105090007C0421110CC020917D04211108C02091B5
:1050A0007E04222301F120917F042223E1F061118B
:1050B00020C8809177048F5F809377049091780463
:1050C000981710F410927704809177040E94B21B15
:1050D0006091770470E0E0912704F09128048EE05D
:1050E00009950C947920892F8095881F8827881F1F
:1050F00080932C04809339040C94792020917C04B3
:1051000021110CC020917D04211108C020917E0442
:10511000222359F020917F04222339F061110C944D
:1051200079200E94A80F0C947920892F8095881FE0
:105130008827881F80933404809339040C94792045
:105140008091800281110C94792061110C94792056
:105150006091760481E068276093760481E090E0B6
:105160000E94581F8091760480936604E091270482
:10517000F091280470E060E08CE009950C947920AF
:105180002091E904211102CD892F8095881F88275D
:10519000881F8093390480933A04F8CC3397EA3619
:1051A000F10510F00C948520E852F74D0C947F3FE8
:1051B0001E26A0287720ED20ED20022102211721B4
:1051C00033216C216C217421852085206226702674
:1051D0002C264726BB21CF219321A7217C214F21BB
:1051E000E3214022E72550225A2227242F24372466
:1051F0003F2447244F2457245F2467246F24AF247F
:105200005022DD25D325C9253D25D723DF23E723DC
:10521000EF23F723FF2307240F2417241F247724C9
:105220009324A025AF243D258520BC2562226A2237
:1052300072227A22AB22B322BB22C322CB22D322F8
:1052400004230C23142345234D2355235D23652379
:105250006D2375237D238523B723BF23C723CF2346
:10526000CB245925E7241225842585207E26A626D1
:10527000CE26F6261E2751278427B227E127142899
:1052800047287E280C94F93E0F931F93CF93DF930A
:10529000D0E0C0E004E610E0CE30D10508F008C14F
:1052A000FE01EB5AF64D0C947F3F63298029922929
:1052B000A429B629D629F629082A1A2A2C2A432AEB
:1052C0004B2A522A552A2091150480911E048823C6
:1052D00049F0822F6AE00E94733F982F990F890F3F
:1052E000880F280F622F80E00E94A5032196C11528
:1052F00081E0D80789F6DF91CF911F910F91089532
:105300002091160480911E04882349F0822F6AE0C0
:105310000E94733F982F990F890F880F280F622FD3
:1053200081E0E2CF2091140480911E04882349F08B
:10533000822F6AE00E94733F982F990F890F880F80
:10534000280F622F82E0D0CF2091170480911E0495
:10535000882349F0822F6AE00E94733F982F990FAB
:10536000890F880F280F622F83E0BECF80911E0423
:105370002091130490911F04992371F0882349F020
:10538000822F6AE00E94733F982F990F890F880F30
:10539000280F622F84E0A8CF882321F02D3080F3DE
:1053A0002CE8EECF2D30A8F32CE8F3CF80911E042B
:1053B0002091180490911F04992371F0882349F0DB
:1053C000822F6AE00E94733F982F990F890F880FF0
:1053D000280F622F85E088CF882321F02D3080F3BD
:1053E0002CE8EECF2D30A8F32CE8F3CF2091190450
:1053F00080911E04882349F0822F6AE00E94733F47
:10540000982F990F890F880F280F622F86E06CCF95
:105410002091120480911E04882349F0822F6AE0B3
:105420000E94733F982F990F890F880F280F622FC2
:1054300087E05ACF2091110480911E04882349F0FF
:10544000822F6AE00E94733F982F990F890F880F6F
:10545000280F622F88E048CF80910F0490911004AC
:10546000B8010E94233F282F90911E04992341F0F8
:105470006AE00E94733F982F880F890F880F820F70
:10548000682F89E031CF8AE290E00E944229682F9C
:105490006F778AE029CF8BE290E00E944229682F43
:1054A0008BE022CF60E08CE01FCF60E88DE01CCF66
:1054B000CE0180960E944229682F8C2F15CF1F9312
:1054C000CF93DF93182FD62FC42F9091EA048091A9
:1054D000EB049CBD8DBD60E087E00E947A0B1EBD91
:1054E00000000DB407FEFDCF1EB5DEBD00000DB4FB
:1054F00007FEFDCFDEB5CEBD00000DB407FEFDCF2B
:10550000CEB561E087E00E947A0B112319F11D3FAF
:1055100029F58091310181111DC081E08093310115
:105520008C2F90E0D6E095958795DA95E1F7CF73CB
:105530008093780420917704821710F40E94B21BA4
:105540000E94AD030E9444290E9444290E94880FB2
:10555000C093F904DF91CF911F9108951C3F61F42E
:1055600080911D048111F6CF81E080931D04DF91AD
:10557000CF911F910C944429103F09F029C1ED2FC0
:10558000F0E0E451FB4FC687E5CF8C2F817080930C
:105590004001C1FB882780F980933A01C2FB88272C
:1055A00080F980934101C3FBCC27C0F9C0933B0134
:1055B000D1CF80911E04882369F08C2F90E0B4E055
:1055C00095958795BA95E1F7982F990F990F891BB3
:1055D000880FC80FC09315048C2FDF91CF911F91B6
:1055E0000C944D1A80911E04882369F08C2F90E052
:1055F000A4E095958795AA95E1F7982F990F990FB3
:10560000891B880FC80FC0931604A4CF80911E0475
:10561000882369F08C2F90E0F4E095958795FA95B2
:10562000E1F7982F990F990F891B880FC80FC09326
:1056300014048C2FDF91CF911F910C94120D809147
:105640001E04882369F08C2F90E0E4E095958795FF
:10565000EA95E1F7982F990F990F891B880FC80FCA
:10566000C093170477CF80911E04882369F08C2F94
:1056700090E074E0959587957A95E1F7982F990FCA
:10568000990F891B880FC80FC09313040E942E1A0C
:1056900080911304DF91CF911F910C94F3198091A5
:1056A0001E04882369F08C2F90E064E0959587951F
:1056B0006A95E1F7982F990F990F891B880FC80FEA
:1056C000C093180447CF80911E04882369F08C2F63
:1056D00090E054E0959587955A95E1F7982F990FAA
:1056E000990F891B880FC80FC09319048C2FDF9165
:1056F000CF911F910C94010D80911E04882369F0B5
:105700008C2F90E044E0959587954A95E1F7982F86
:10571000990F990F891B880FC80FC09312048C2F03
:10572000DF91CF911F910C94E80C80911E04882387
:1057300069F08C2F90E034E0959587953A95E1F7E4
:10574000982F990F990F891B880FC80FC0931104C8
:105750008C2FDF91CF911F910C94CF0C80911E0460
:10576000882369F08C2F90E024E0959587952A9501
:10577000E1F7982F990F990F891B880FC80F8C2F6D
:1057800090E08053984F9093100480930F04DF9122
:10579000CF911F910C94AF0C6C2F6F778AE290E041
:1057A000DF91CF911F910C949E1BC2FB882780F93B
:1057B00091E0892780931E04C1FB882780F980939C
:1057C0001F046C2F8BE290E0EBCF6C2F8096E8CF1C
:1057D0001E3009F4DACE1A3F09F0BCCE20911A042B
:1057E00030911B048D2F90E02817390739F4209150
:1057F0001C04C21303C0DE3008F4ACCE90931B042B
:1058000080931A04C0931C04DE30F8F6855F934D34
:10581000FC010C947F3FD92AF22A062B1F2B332B35
:105820004F2B632B7C2B952BAE2BCC2BD52BAA2A65
:10583000AA2A0F931F93CF938C01C62F0E9442294F
:105840008A3011F0843149F4C1E08A3009F0C0E0B7
:105850008C2FCF911F910F91089564E1C1116AE0DF
:10586000C8010E949E1BF4CF1F920F920FB60F9299
:1058700011242F933F934F935F936F937F938F9355
:105880009F93AF93BF93EF93FF938091B900887F6D
:10589000803609F44AC0F0F5883209F4A5C018F53D
:1058A000803109F499C0B8F4882309F4F5C0883030
:1058B00009F492C0FF91EF91BF91AF919F918F91A9
:1058C0007F916F915F914F913F912F910F900FBEFC
:1058D0000F901F901895883109F486C0803251F7D7
:1058E0008093D30314C0803409F49BC040F4803308
:1058F000B9F38833F9F68093D30385ECAEC08035D5
:1059000009F483C0883509F494C0883499F60E945C
:105910003E05D0CF883909F48AC038F5883729F098
:1059200050F4883611F0803729F683E08093D7034E
:1059300010927D0255C0883809F479C0803919F079
:10594000803809F0B7CF80917D02803208F06FC0B7
:10595000E0917D0281E08E0F80937D028091BB00FB
:10596000F0E0E35AFD4F80833BC0803B39F0D0F438
:10597000803A09F477C0883A09F09CCF84E080939C
:10598000D70310925C0210925B02F0E0E0E0099510
:1059900080915B0281110FC081E080935B021092C5
:1059A0003B0209C0803C09F4A8CF883C09F4A5CF8C
:1059B000883B09F07FCFE0915C0281E08E0F8093FD
:1059C0005C02F0E0E55CFD4F80818093BB0090912C
:1059D0005C0280915B0229C08091B0038093BB0080
:1059E00085EC8093BC0066CF9091D2038091D10367
:1059F000981758F5E091D20381E08E0F8093D2037F
:105A0000F0E0EF54FC4F8081E9CFE091D20381E0D8
:105A10008E0F8093D2038091BB00F0E0EF54FC4FD7
:105A200080839091D2038091D1039817C8F285E8C2
:105A3000D8CFE091D20381E08E0F8093D203809182
:105A4000BB00F0E0EF54FC4F80838091D4038111C0
:105A50005ECF81E08093AF0384EA8093BC00109214
:105A6000D70328CF85EC8093BC001092D703809198
:105A70007D02803230F4E0917D02F0E0E35AFD4F88
:105A8000108260917D0270E08DE592E0F0E0E0E050
:105A9000099510927D020ECF1092D30338CF1F923A
:105AA0000F920FB60F9211242F933F934F935F9352
:105AB0006F937F938F939F93AF93BF93EF93FF93D6
:105AC000E0910301F09104010995FF91EF91BF91DD
:105AD000AF919F918F917F916F915F914F913F9186
