:100000000C946C030C94C72D0C94A02D0C949403A9
:100010000C9494030C9494030C9494030C94940304
:100020000C9494030C9494030C9494030C949403F4
:100030000C9494030C9494030C9494030C949403E4
:100040000C94EE2D0C9494030C9494030C94940350
:100050000C9494030C9494030C9494030C949403C4
:100060000C94852C0C9494038FAEE0E2202331464F
:10007000008CEBE8EC0091AAA0ADAAAEA4008EE241
:10008000ABA0A4AAA03A0080AFE2A0A9AC3A00922B
:100090008480313534330092A8AF2096808F3A00A7
:1000A00090A5A2A8A7A8EF20AFABA0E2EB3A0091E1
:1000B000A1AEE0AAA0208082903A0091A1AEE0AA71
:1000C000A0208F8B88913A0091A8E1E2A5ACADA069
:1000D000EF20A8ADE4AEE0ACA0E6A8EF3A00777759
:1000E000772E6B6172616261732E756B0020AAA01E
:1000F000E1AFA5E00020A4A0ACAFAAA8AD0020E528
:10010000A4A5ACAEE50020E2A0ADAAE3E8A00020E3
:10011000AAA0ABA0ADE2A0A4A6008EE1AEA1A0EF84
:1001200020A1ABA0A3AEA4A0E0ADAEE1E2EC3A000A
:100130002088ADE2A5E0ADA5E220E1AEE4E200203A
:10014000ADA8E5A8E0A0E8202020002094ABA5E819
:1001500092E3AB20A820948488ACA0A3A50020A49F
:10016000E02E20ACA0AAE1202000208F8B88912CCB
:1001700020AFABA0E2A00020E1AEABA5A3E1E2A0DE
:10018000E02000208F8B88912C208082902C20AF43
:10019000ABA0E2A00020EDADA4A8AAA0E0AFAEA263
:1001A0000090A0A7E0A0A1AEE2E7A8AAA8204B611A
:1001B00072616261732050726F3A008E20AFE0AEC0
:1001C000A5AAE2A53A00A4ABEF20ADA0A2A8A3A0E7
:1001D000E6A8A820AFAE20ACA5ADEE00A4ABEF2002
:1001E000E1ACA5ADEB20A7ADA0E7A5ADA8A92C205B
:1001F0000088E1AFAEABECA7E3A9E2A520E1E2E025
:10020000A5ABAAA8200084A5ADEC20ADA5A42E0026
:1002100083AEA4008CA5E1EFE60097A8E1ABAE00A9
:1002200091A5AAE3ADA4EB008CA8ADE3E2EB0097A7
:10023000A0E1EB008DA0E1E2E0AEA9AAA020E7A03A
:10024000E1AEA23A0000000000240027002A0000CE
:10025000000000250028002B0000000000230026DD
:10026000002900040404040404040402020202023B
:10027000020303030303030102040810204080016A
:1002800002040810200102040810200000000800E9
:10029000020100000304070000000000000000202D
:1002A000A4ABEF20A2AEA7A2E0A0E2A0004553437A
:1002B000001912181415BB161117131A40402020EC
:1002C0000804020277017E02580312065907140837
:1002D000110A8410761B661C0D1D5A1E291F7020E2
:1002E000692172227A236B24732574266C27752862
:1002F0007D29712A792C7B2D7C2E0F3F45301631BC
:100300001E32263325342E3536363D373E384639B3
:10031000523A413B4E3C493D4A3E0E401C4132421E
:100320002143234424452B463447334843493B4A21
:10033000424B4B4C3A4D314E444F4D5015512D527E
:100340001B532C543C552A561D57225835591A5ABE
:100350004C5B5D5C545D5B5E555F618B0561066265
:1003600004630C6403650B6683670A680169096AA4
:10037000786B076C086D106E186F207028713072E2
:10038000387340744875507657775F786D60519137
:1003900013926A9364946795F296F19763986299C1
:1003A0005FA012BB7C041409110B1F0C270D2F0E2C
:1003B0007E0F6C1169127D137A146B157416751704
:1003C00072187019711A5A2B4A2F4D79157A3B7B86
:1003D000347C237D327E217F508048812B82408374
:1003E00010843A853886308728882089188A378C87
:1003F0003F8D5E9020A4ABEF204F5344008CA5AD01
:10040000EE2B4553430020A4ABEF20E0A5A1E3E28F
:10041000A0004374726C2B416C742B44656C008D8E
:10042000A0A6ACA8E2A52000A1A0E3E2004100AD97
:10043000E4A020004900202D2097A0E1EB0053000C
:100440008FA0E3A7A000507274537263008AABA020
:10045000A2A0008CA5ADEE2B4E004E656D6F20491D
:100460004445008CA5ADEE2B44004469764D4D43C8
:10047000008CA5ADEE2B56009DAAE0A0AD008CA58A
:10048000ADEE2B4D0091E22E20A4A6AEEF008CA580
:10049000ADEE2B4A0092A8AF20A4A6AEEF008CA52B
:1004A000ADEE2B92A0A100838C8420802D3E810094
:1004B0008CA5ADEE2B4631310092E3E0A1A0008C7B
:1004C000A5ADEE2B463130008AA0A4E0AEA2A0EF8D
:1004D000008CA5ADEE2B46390082A8A4A5AE008CF9
:1004E000A5ADEE2B46380097A8AF20A7A2E3AAA09F
:1004F000008CA5ADEE2B4637008CA8AAE8A5E0003D
:100500008CA5ADEE2B4636008AAEA2AEAAE1008CD9
:10051000A5ADEE2B46350092E3E0A1AE20838C849E
:10052000008CA5ADEE2B46312D46340081A0ADAA3E
:10053000208F87930080829020008F8B88912000ED
:1005400090A5A22E00CE008500849100802D84000D
:100550004644496D6167650094ABA5E8A5E000508D
:10056000512D444F530084A5E4AEABE2008CAEADF8
:10057000AE008096810080819600594D3231343929
:1005800046004159332D383931320082868020337C
:1005900030AA83E600908381203135AA83E60035B6
:1005A000302083E60036302083E600387800347847
:1005B00000327800918583800080E2A0E0A800519D
:1005C0002D412D4F2D502D4D008AE3E0E1AEE0008E
:1005D00091A8ADAAABA5E020320091A8ADAAABA529
:1005E000E02031008AA5ACAFE1E2AEAD008AABA05D
:1005F000E1E1A8AAA0008FA5ADE2A0A3AEAD009155
:10060000AFA5AAE2E0E3AC008FE0AEE4A820585426
:10061000008DA5E20084A0002D2D2E2D2D2E2D2D38
:100620002D2D002E002D2D3A2D2D3A2D2D0084A597
:10063000AAA0A1E0EC008DAEEFA1E0EC008EAAE252
:10064000EFA1E0EC0091A5ADE2EFA1E0EC0080A20B
:10065000A3E3E1E20088EEABEC0088EEADEC008CA9
:10066000A0A90080AFE0A5ABEC008CA0E0E2009474
:10067000A5A2E0A0ABEC009FADA2A0E0EC003F3F44
:100680003F0082AEE1AAE0A5E1A5ADECA50091E3B3
:10069000A1A1AEE2A0008FEFE2ADA8E6A00097A571
:1006A000E2A2A5E0A30091E0A5A4A00082E2AEE052
:1006B000ADA8AA008FAEADA5A4A5ABECADA8AA00CD
:1006C00020003A00300020A8200020A4A5ADEC00B6
:1006D00020A4ADA5A900382E11241FBECFEFD8E06D
:1006E000DEBFCDBF25E0A0E3B1E001C01D92A7357C
:1006F000B207E1F711E0A0E0B1E0E4E5FFE702C0F6
:1007000005900D92A033B107D9F713E0CCE6D3E002
:1007100004C02197FE010E94A23FCB36D107C9F742
:100720000E94F42E0C94A83F0C940000882331F012
:100730001092F4048BE08093F50408958BE080938D
:10074000F4041092F504089591E09093D7038093F8
:10075000F9031092D8031092FA0308959091AB0315
:100760008091AA032FEF3FEF981748F4E92FF0E0AC
:10077000E657FC4F208130E09F5F9093AB03C901A7
:1007800008959091AB038091AA032FEF3FEF981744
:1007900048F4E92FF0E0E657FC4F208130E09F5FFE
:1007A0009093AB03C9010895462FE0910704F0919F
:1007B0000804682F8AEF09948F929F92AF92BF929C
:1007C000EF92FF920F931F93CF9387E2E82E84E07E
:1007D000F82EC0E0812C912C54018394F70190E015
:1007E00080E040E0519195018401082E04C0000F83
:1007F000111F221F331F0A94D2F75523E1F0402B1B
:1008000001968830910571F7CF5FE0912204F09155
:1008100023046C2F81E0099588E0E80EF11CCA30B2
:10082000E9F6CF911F910F91FF90EF90BF90AF909D
:100830009F908F90089500954023E2CF8230C8F4B6
:10084000E82FF0E0EE0FFF1FEF5FFE4F7183608334
:10085000813041F0809169008C7F826080936900D3
:10086000E89A089580916900837F88608093690089
:10087000E99A08952091120480911B04882349F07D
:10088000822F6AE00E94963F982F990F890F880F58
:10089000280F622F80E00E94D40380911B042091D6
:1008A0001104622F882349F0822F6AE00E94963F4C
:1008B000682F660F680F660F620F82E00E94D403F4
:1008C00090911C0480911B0420911004992309F439
:1008D00062C0882349F0822F6AE00E94963F982FD9
:1008E000990F890F880F280F622F84E00E94D4038C
:1008F00080911B0420911604622F882349F0822FD7
:100900006AE00E94963F682F660F680F660F620FBD
:1009100086E00E94D40380911B0420910F04622F73
:10092000882349F0822F6AE00E94963F682F660F65
:10093000680F660F620F87E00E94D40380911B044A
:1009400020910E04622F882349F0822F6AE00E94D2
:10095000963F682F660F680F660F620F88E00E944F
:10096000D40320911B0480910C0490910D0464E643
:1009700070E00E94463F682F222351F0282F862FD7
:100980006AE00E94963F682F660F680F660F620F3D
:1009900089E00C94D403882329F02D3008F49BCFF0
:1009A0002CE899CF2D3008F49FCF2CE89DCFE1E2C1
:1009B000F4E0AFE8B4E08C9191E089278C9383ABAD
:1009C0000380F481E02D70E060E08DE00994CF9227
:1009D000DF92EF92FF920F931F93CF93DF93CDB7E8
:1009E000DEB764970FB6F894DEBF0FBECDBF20917F
:1009F000B1043091B204611133C012161306A4F48D
:100A0000EDE9F4E050E040E0A191B1918A179B0735
:100A100009F461E04F5F5F4F42175307A9F7611177
:100A200010C02A30310569F0F901EE0FFF1FE356BF
:100A3000FB4F918380832F5F3F4F3093B20420930D
:100A4000B10464960FB6F894DEBF0FBECDBFDF9140
:100A5000CF911F910F91FF90EF90DF90CF9008956D
:100A6000FE01319644E1DF011D924A95E9F7121625
:100A7000130684F50DE914E0780150E040E070E0E1
:100A800060E0D701CD90DD907D018C159D0549F08A
:100A9000DA01AA0FBB1FAE0FBF1FCD92DC924F5FD2
:100AA0005F4F6F5F7F4F6217730759F7411551050D
:100AB00089F090E080E021913191D8012D933D9310
:100AC0008D01019684179507B1F75093B2044093B6
:100AD000B104B7CF50E040E0F8CF85ED8093BC0083
:100AE0001092D6031092D5038091BC0084FF0BC0F6
:100AF0002091D5033091D603809105019091060194
:100B00002817390718F01092D40308958091D5035F
:100B10009091D60301969093D6038093D503E4CFAA
:100B200020915802260F3327331F21323105ECF470
:100B30002091D403FC0190E080E0243069F082E051
:100B40000895A09158022191AC01485C5D4FA40F1B
:100B5000B52FB11D2C930196861798F380915802FA
:100B6000680F6093580280E0089581E00895089529
:100B7000E091AB038091AA03E81730F4F0E0E65768
:100B8000FC4F808190E008958FEF9FEF0895809152
:100B9000AA039091AB03891B990B0895CF92DF9222
:100BA000EF92FF920F931F93CF93DF937C01CB01C2
:100BB0008A012091D703222389F0EB016B01C40E37
:100BC000D51ECC15DD0569F06991D701ED91FC9139
:100BD0000190F081E02DC7010995F3CF642F0E94A9
:100BE0009005C801DF91CF911F910F91FF90EF9079
:100BF000DF90CF900895CF93DF931F92CDB7DEB7EC
:100C000069832091D7032223F9F02091FA0320323F
:100C100058F021E030E0FC013383228390E080E053
:100C20000F90DF91CF9108958091D803E82FF0E0E5
:100C3000E752FC4F998190838F5F8093D803809314
:100C4000FA0381E090E0ECCF61E0CE0101960E94D2
:100C50009005F7CF682F8BEF93E00C94FB05089578
:100C60000F931F93CF93DF93EC01062F1C811295F6
:100C7000107FE885F9854E8160E180E20995E8857D
:100C8000F9854F8161E180E20995E885F985402F7A
:100C900062E180E209954D81410FE885F98563E1C4
:100CA00080E209959F818E818F5F803260F48E8310
:100CB0009A3110F01F821E8281E090E0DF91CF9187
:100CC0001F910F9108951E8281E0890F8F83F0CFCD
:100CD0000F931F93CF93DF938C01D0E0C0E0F80116
:100CE000EC0FFD1F6491662341F080EF94E00E94B9
:100CF0003006892B11F02196F2CFCE01DF91CF91F2
:100D00001F910F910895CF93C8E080EC96E00E9468
:100D10006806C150D1F7CF91089580910A058130BE
:100D200009F03DC090910E05963009F080E00E94D8
:100D300096038AE08093F6048FE08093F704E091B5
:100D40001604E1508EE796E0E73070F4F0E0E555E8
:100D5000F94F0C94A23FCC06B206BD06C006C306EE
:100D6000C606C90684EB96E00E9468068FE0809371
:100D7000F4041092F5040C9483068CEA96E0F4CF08
:100D800086EA96E0F1CF8EE996E0EECF86E996E02E
:100D9000EBCF8EE896E0E8CF82E896E0E5CF0895C5
:100DA00080910A05813009F051C090910E05943070
:100DB00009F080E00E9496038AE08093F6048CE0BC
:100DC0008093F704E0910E04E1508EE796E0EC305A
:100DD00098F4F0E0E251F94F0C94A23FFA060507AF
:100DE00008070B070E071107140717071A071D0737
:100DF0002007230787E796E00E9468068FE080932C
:100E0000F4041092F5040C9483068FE696E0F4CF78
:100E10008AE696E0F1CF83E696E0EECF8FE596E0A6
:100E2000EBCF8AE596E0E8CF85E596E0E5CF8EE466
:100E300096E0E2CF85E496E0DFCF8DE396E0DCCF6D
:100E400086E396E0D9CF8EE296E0D6CF0895EEEE17
:100E5000F4E02FE0268317820C946806EEEEF4E0AF
:100E600027E0268317820C946806809191048111F3
:100E700012C080910A05811122C081E090910C0579
:100E80009F3009F080E00E9496038AE08093F60488
:100E900084E18093F70480915404882369F085E10C
:100EA00096E00E9468068FE08093F4041092F504A7
:100EB00080EC96E00C94680681E196E0F2CF08950C
:100EC000EEEEF4E025E0268317820E94680682ECAD
:100ED00096E00C94680680919104811112C0809173
:100EE0000A05811119C081E090910C059E3009F02E
:100EF00080E00E9496038AE08093F60483E1809369
:100F0000F70480917704882321F088E096E00C9420
:100F100068068FEF95E0FBCF0895809191048111D1
:100F200012C080910A05811122C081E090910C05C8
:100F30009D3009F080E00E9496038AE08093F604D9
:100F400082E18093F70480918E04882369F085E123
:100F500096E00E9468068FE08093F4041092F504F6
:100F600080EC96E00C94680681E196E0F2CF08955B
:100F700080919104811112C080910A05811122C0D3
:100F800081E090910C059C3009F080E00E9496036E
:100F90008AE08093F60481E18093F70480918D04C8
:100FA000882369F085E196E00E9468068FE08093CF
:100FB000F4041092F50480EC96E00C94680681E14C
:100FC00096E0F2CF089580919104811112C0809132
:100FD0000A05811125C081E090910C059B3009F034
:100FE00080E00E9496038AE08093F60480E180937B
:100FF000F70480917A04882319F0813029F008954C
:1010000086EF95E00C9468068DEE95E00E946806E8
:101010008FE08093F4041092F50480EC96E0F2CF18
:10102000089580919104811112C080910A05811167
:1010300033C081E090910C059A3009F080E00E9465
:1010400096038AE08093F6048FE08093F704809102
:101050008C04823011F128F4882341F0813099F01A
:1010600008958330E9F0843069F1089584EE95E0C5
:101070000E9468068FE08093F4041092F50480ECDF
:1010800096E00C9468068AED95E00E9468068FE071
:101090008093F4041092F504089580ED95E0F5CF67
:1010A00089EC95E00E9468068FE08093F40410922A
:1010B000F50480EC96E00E94680680EC96E00E94C1
:1010C0006806DDCF8FEB95E0E0CF80919104811130
:1010D00012C080910A05811122C081E090910C0517
:1010E000993009F080E00E9496038AE08093F6042C
:1010F0008EE08093F70480918B04882369F084EB61
:1011000095E00E9468068FE08093F4041092F50445
:1011100080EC96E00C94680689EB95E0FBCF08958F
:1011200080919104811112C080910A05811122C021
:1011300081E090910C05983009F080E00E949603C0
:101140008AE08093F6048DE08093F70480918A040E
:10115000882369F085E196E00E9468068FE080931D
:10116000F4041092F50480EC96E00C94680681E19A
:1011700096E0F2CF089580919104811112C0809180
:101180000A05811119C081E090910C05963009F093
:1011900080E00E9496038AE08093F6048BE08093BF
:1011A000F70480918204882321F085EA95E00C946D
:1011B00068068FE995E0FBCF089580919104811135
:1011C00011C080910A05811118C081E090910C0531
:1011D000953009F080E00E9496038AE08093F6043F
:1011E0008093F70480918104882321F085E995E0BC
:1011F0000C9468068BE895E0FBCF089580919104EC
:10120000811112C080910A05811122C081E0909164
:101210000C05943009F080E00E9496038AE08093E8
:10122000F60489E08093F70480918804882321F0F4
:1012300082E895E00C9468068AE795E00E946806CB
:101240008FE08093F4041092F50480EC96E0F2CFE6
:10125000089580919104811112C080910A05811135
:101260002BC081E090910C05933009F080E00E9442
:1012700096038AE08093F60488E08093F7048091D7
:10128000870490918904911114C0882379F08130EA
:1012900081F486E795E00E9468068FE08093F4046D
:1012A0001092F50480EC96E00C94680682E795E0D5
:1012B000F2CF8DE695E0F8CF0895809191048111E9
:1012C00012C080910A05811122C081E090910C0525
:1012D000923009F080E00E9496038AE08093F60441
:1012E00087E08093F70480918604882369F085E184
:1012F00096E00E9468068FE08093F4041092F50453
:1013000080EC96E00C94680681E196E0F2CF0895B7
:1013100080919104811112C080910A05811122C02F
:1013200081E090910C05913009F080E00E949603D5
:101330008AE08093F60486E08093F7048091850428
:10134000882369F085E196E00E9468068FE080932B
:10135000F4041092F50480EC96E00C94680681E1A8
:1013600096E0F2CF089580919104811111C080918F
:101370000A0581112FC081E090910C05911180E048
:101380000E9496038AE08093F60485E08093F70438
:101390008091830490918404911182608230A1F045
:1013A0008330A9F0813069F086E695E00E946806F6
:1013B0008FE08093F4041092F50480EC96E00C9496
:1013C00068068FE595E0F2CF88E595E0EFCF80E500
:1013D00095E0ECCF08958091FB0490E0959587957A
:1013E000959587958F70813051F028F0893051F0B4
:1013F0008D3059F008958CE495E00C94680689E4EA
:1014000095E0FBCF87E495E0F8CF85E495E0F5CF54
:10141000FF920F931F93CF93DF93182FCEEED4E05C
:10142000188689878FE08E831F8260EB80EF94E0BF
:101430000E94300661EB80EF94E00E94300662EB80
:1014400080EF94E00E94300663EB80EF94E00E940E
:10145000300664EB80EF94E00E94300665EB80EF8D
:1014600094E00E94300662EB80EF94E00E94300628
:1014700063EB80EF94E00E94300666EB80EF94E02F
:101480000E94300667EB80EF94E00E94300662EB2A
:1014900080EF94E00E94300663EB80EF94E00E94BE
:1014A000300668EB80EF94E00E94300669EB80EF35
:1014B00094E00E943006188681E0810F898760ECF5
:1014C00080EF94E00E94300661EC80EF94E00E948F
:1014D000300662EC80EF94E00E94300663EC80EF0F
:1014E00094E00E94300664EC80EF94E00E943006A5
:1014F00065EC80EF94E00E94300662EC80EF94E0AF
:101500000E94300663EC80EF94E00E94300666ECA7
:1015100080EF94E00E94300667EC80EF94E00E9438
:10152000300662EC80EF94E00E94300663EC80EFBE
:1015300094E00E94300668EC80EF94E00E94300650
:1015400069EC80EF94E00E94300602E0010F88E031
:10155000F82EF88609876AEB80EF94E00E94300647
:101560006BEB80EF94E00E94300664EB80EF94E038
:101570000E94300665EB80EF94E00E9430066CEB31
:1015800080EF94E00E9430066DEB80EF94E00E94C3
:1015900030061D5FF88619876AEC80EF94E00E94A0
:1015A00030066BEC80EF94E00E94300664EC80EF34
:1015B00094E00E94300665EC80EF94E00E943006D3
:1015C0006CEC80EF94E00E9430066DEC80EF94E0CC
:1015D0000E94300681E08887098789E08E831F8218
:1015E00066E180EF94E00E9430068DE08E831F82DA
:1015F00066E180EF94E00E94300685E08E831F82D2
:1016000066E180EF94E00E94300683E08E831F82C3
:1016100066E180EF94E00E9430068EE08E831F82A8
:101620001886198780E495E00E946806DF91CF91C3
:101630001F910F91FF900C94EB09CF93DF931092C1
:10164000F6041092F704CAE1D0E260E080EF94E083
:101650000E943006D150C9F7C150B1F7DF91CF9148
:101660000895CF938FE08093F4041092F5041092C4
:10167000F60486E18093F704C0E26FE580EF94E022
:101680000E943006C150C9F71092F60487E180939A
:10169000F7048FE194E00E9427078DEA92E00E9410
:1016A0002E078FE992E0CF910C9427071092A401A6
:1016B0001092A3011092A2011092A10110920703AF
:1016C000109206031092A0011092850210928002DF
:1016D00010929F0108959091A4019F5F903408F0AB
:1016E00090E02091A301291751F0E92FF0E0E15A91
:1016F000FE4F80839093A40181E090E008958CEFE9
:101700009FEF0895833081F028F4813099F0823082
:10171000A9F008958730A9F08830C9F08430B1F479
:10172000809180008F7D03C0809180008F778093AF
:101730008000089584B58F7784BD089584B58F7D2A
:10174000FBCF8091B0008F778093B0000895809197
:10175000B0008F7DF9CFCF93DF93282F30E0F901D0
:10176000E557FD4F8491F901E958FD4FD491F901F6
:10177000ED59FD4FC491CC23A1F081110E94820B41
:10178000EC2FF0E0EE0FFF1FE75AFD4FA591B4914B
:10179000EC91ED2381E090E009F480E0DF91CF91BE
:1017A000089580E090E0FACF1F93CF93DF93282F26
:1017B00030E0F901E557FD4F8491F901E958FD4FFB
:1017C000D491F901ED59FD4FC491CC23A9F0162F06
:1017D00081110E94820BEC2FF0E0EE0FFF1FE15B06
:1017E000FD4FA591B4918FB7F894EC91111108C0F9
:1017F000D095DE23DC938FBFDF91CF911F910895A9
:10180000DE2BF8CF90918B0461E0911101C0682F1D
:101810008FE00C94D40BCF93DF93CCEBD0E0188205
:101820001092D40381E08093D1031092AC0361E065
:1018300082E10E94D40B61E083E10E94D40BE9EBCA
:10184000F0E080818E7F808380818D7F808388E43B
:101850008093B80085E48883DF91CF91089520912B
:10186000FA0381E0213270F58091F9031092D603DA
:101870001092D5039091D403992359F06091D50328
:101880007091D603409105015091060164177507C8
:1018900000F16091D5037091D603409105015091FC
:1018A00006016417750700F10E946D050E940B0C7C
:1018B0008091D2039091D30301969093D3038093A8
:1018C000D20385E01092D8031092FA031092D70346
:1018D00008954091D5035091D6034F5F5F4F5093C9
:1018E000D6034093D503C6CF92E09093D40391E002
:1018F0009093D1039FEF9093D0031092CF03209346
:10190000CE03A9EDB3E0EEEAF3E090E029136BC05B
:101910001092AD039091AD03880F892B8093AD0396
:101920008091AC03813009F062C01092AC03109238
:10193000D6031092D5038091AD038093BB008091B4
:10194000D5039091D60301969093D6038093D50347
:101950008091BC0083FF0BC02091D5033091D6034A
:1019600080910501909106012817390720F32091F5
:10197000D5033091D6038091050190910601281777
:10198000390708F091CF85EC8093BC001092D60304
:101990001092D5038091D403823059F42091D5035D
:1019A0003091D603809105019091060128173907DF
:1019B00000F12091D5033091D603809105019091DB
:1019C00006012817390708F06FCF8091D0038F3FA9
:1019D000D1F08091D0038032C1F08091D003803368
:1019E000B1F084E06FCF3D9131939F5F8FCF85EE53
:1019F000CBCF8091D5039091D60301969093D603D7
:101A00008093D503C7CF80E05DCF82E05BCF83E0DA
:101A100059CFCF93DF93EC0188E60E94A40386E0C0
:101A200090E00E942A06CE0164E670E00E94323FF8
:101A3000282F6AE00E94963F682F660F680F660F96
:101A4000620F8BEF93E00E94FB05DF91CF910C9426
:101A50002F0CCF93C82F88E60E94A40385E090E066
:101A60000E942A068C2F6AE00E94963F682F660F1C
:101A7000680F660F6C0F8BEF93E00E94FB05CF9110
:101A80000C942F0CCF93C82F88E60E94A40384E007
:101A900090E00E942A068C2F6AE00E94963F682FF1
:101AA000660F680F660F6C0F8BEF93E00E94FB05CB
:101AB000CF910C942F0CCF93C82F88E60E94A403DB
:101AC00083E090E00E942A066C2F8BEF93E00E9447
:101AD000FB05CF910C942F0CCF93C82F88E60E9462
:101AE000A40381E090E00E942A068C2F6AE00E9405
:101AF000963F682F660F680F660F6C0F8BEF93E0B1
:101B00000E94FB05CF910C942F0CCF93DF9390E0B4
:101B1000FC01E958FD4F24918D599D4FFC018491A2
:101B20008823C9F090E0880F991FFC01EB5BFD4F03
:101B3000A591B491FC01E15BFD4FC591D491611178
:101B40000DC09FB7F8948C91209582238C93888147
:101B5000282328839FBFDF91CF910895623051F4ED
:101B60009FB7F8943C91822F809583238C93E881D2
:101B70002E2BEFCF8FB7F894EC912E2B2C938FBF99
:101B8000EACFCF93C82F60E00E94850D61E08C2FD3
:101B9000CF910C94D40BCF93C82F61E00E94850D98
:101BA00060E08C2FCF910C94D40BCF93DF93809374
:101BB0005E0180935D011092A00110925C01809102
:101BC0009F01806C80939F018091A20187FD0DC0D1
:101BD0008091A20180FF09C08091A10180935B01E7
:101BE00080919F01806180939F0180915A01823092
:101BF00009F443C0833061F4E99881E090E0880FF4
:101C0000991FFC01EF5FFE4F8FE296E09183808386
:101C1000D091590161E08D2F0E94D40B61E08D2F8E
:101C20000E94850DC0915A0161E08C2F0E94D40B57
:101C300061E08C2F0E94850D83E290E00197F1F71F
:101C400060E08C2F0E94D40B8BEE90E00197F1F7AF
:101C500060E08D2F0E94D40B62E08C2F0E94850DD6
:101C600080E0C23021F08FEFC33009F481E061E3FE
:101C700073E1DF91CF910C941E04E89890E080E02E
:101C8000BECF9091A3018091A401891799F1809111
:101C9000A20181608093A2018091A20187FD2DC0E5
:101CA00080919F0187FD29C01092A1012FEF3FEF86
:101CB0009F5F903408F090E0E92FF0E0E15AFE4F8A
:101CC0002F3F320771F4208130E09093A30180917F
:101CD000A4018913EDCF822F0E94D50D81E090E001
:101CE000089580818B3BB9F78091A1018F5F80932C
:101CF000A101EBCF8EEF9FEF08958AE79FEF089544
:101D00000F931F93CF93DF931091890380918803E2
:101D1000181B17FD105C01E01F3364F58091070369
:101D2000A09106038A1B87FD805C882319F18091AE
:101D30000703A817F9F0AF5FA03408F0A0E0A09364
:101D40000603B0E0AA0FBB1FAA57BD4FCD91DC918F
:101D500011978D919C9192FDB0C02C2FCA3A20F022
:101D60008C2F815F823010F494FF0AC0DD2720970A
:101D700009F0A5C0812FDF91CF911F910F91089598
:101D80008091850295FF18C0806880938502D0E01D
:101D9000C0E093FF1EC0FE01EE55FC4FE4912E13F0
:101DA0000DC0CD55DC4FFE01C491D0E02097D1F499
:101DB00080918502D82BDBCF8F77E7CF2296C23573
:101DC000D10549F7D0E0C0E0F3CF2296CE3DD10552
:101DD000C9F3FE01EC53FD4FE4912E13F6CFCB5324
:101DE000DD4FE1CF80918502FE01C330D10508F0BF
:101DF00041C0EF57FD4F87FF04C01082CBEBD0E00E
:101E000026C090819130D1F3008392E0C230D10599
:101E100009F491E020918002322F392339F1909515
:101E20009223909380028068809385028DEE0E94B9
:101E30006B0B8BEB0E946B0B809180020E946B0BF3
:101E40008BEB0E946B0B892B11F00E94410E80914D
:101E500085029E01205231092134310560F1CB38D1
:101E6000D10549F1816080938502A2CF922B909396
:101E70008002DCCF3697E830F10560F4E454FD4F82
:101E8000E49187FF05C0E095E823E0938502DFCF6A
:101E9000E82BFBCFFE01B097EB30F105C0F6909137
:101EA000800291FF02C086FFD2CFEF54FD4FE49134
:101EB000CE2FD0E0CCCF8E7FD6CFC6E0D0E0CE0103
:101EC00099278B3B910509F427CF892B09F424CF5F
:101ED000809189038F5F80340CF080E0E82FEE0F53
:101EE000FF0BE85FFC4FD183C083809389031F5FA2
:101EF00013CF8E50806480937C0080917A00806440
:101F000080937A0080917A0086FDFCCF80917800E2
:101F10009091790008953FB7F89480915001909185
:101F20005101A0915201B091530126B5A89B05C063
:101F30002F3F19F00196A11DB11D3FBFBA2FA92F48
:101F4000982F8827BC01CD01620F711D811D911D45
:101F500042E0660F771F881F991F4A95D1F70895B1
:101F60008F929F92AF92BF92CF92DF92EF92FF92A9
:101F70004B015C010E948B0F6B017C010E948B0F57
:101F80006C197D098E099F09683E73408105910592
:101F9000A8F321E0821A9108A108B10888EEC80EC2
:101FA00083E0D81EE11CF11C81149104A104B1044A
:101FB00029F7FF90EF90DF90CF90BF90AF909F9068
:101FC0008F900895CF93DF93C7E2D4E0FE01119282
:101FD00084E0E035F807D9F781E0809350040E944F
:101FE000DC0364E670E080E090E00E94B00F19929C
:101FF00084E0C035D807D9F710925004DF91CF9113
:102000000C94DC03CF93DF93C7E2D4E0FE0111927E
:1020100084E0E035F807D9F781E0809352040E940C
:10202000DC0364E670E080E090E00E94B00F19925B
:1020300084E0C035D807D9F710925204DF91CF91D0
:102040000C94DC032FB7F89460914C0170914D0112
:1020500080914E0190914F012FBF0895CF92DF9252
:10206000EF92FF92CF93DF93EC010E9422106B015D
:102070007C010E9422106C197D098E099F0964362B
:1020800071058105910578F4809139050E94AB0BAB
:102090008C179D0771F781E0DF91CF91FF90EF9052
:1020A000DF90CF90089580E0F7CFCF93DF9390E05B
:1020B00080E00E942E1080913B050E94AB0BEC014A
:1020C00081E090E00E942E10CE01DF91CF91089523
:1020D000CF92DF92EF92FF920F931F93CF93809155
:1020E000390590913A050E94C10D80913B05909170
:1020F0003C050E94C10D83EC90E00197F1F790E060
:1021000080E00E942E108FE090E00197F1F781E0CF
:1021100090E00E942E10C0E010E000E0C12CD12C15
:102120007601C3940E945510B701A601002E04C089
:10213000440F551F661F771F0A94D2F7892BC9F0E9
:10214000C42B0F5F1F4F0830110561F70E94551017
:102150000E9455108091390590913A050E94CB0D4F
:102160008C2FCF911F910F91FF90EF90DF90CF9028
:1021700008954095C423E5CF20913B0530913C055F
:10218000019759F4C9010E94C10D81E090E00E94BD
:102190002E1090E080E00C942E10C9010E94CB0D0F
:1021A000F4CFBF92CF92DF92EF92FF920F931F93E3
:1021B000CF93DF93C82E80913B0590913C050E9400
:1021C000C10D8091390590913A050E94C10DCBEA6D
:1021D000D4E0CE010197F1F78091390590913A054D
:1021E0000E94CB0D2197F1F780913B0590913C0522
:1021F0000E94CB0D83E290E00197F1F780913905C1
:1022000090913A050E94C10D90E080E00E942E104E
:10221000B82E882309F43FC0EE24E394F12CD0E0DB
:10222000C0E00C2C000CDD0886010C2E02C01595B8
:1022300007950A94E2F701701127C8010E94BC10AB
:10224000E026F1262196C830D10571F7C7010E941A
:10225000BC1080913B0590913C050E94C10D83EC20
:1022600090E00197F1F790E080E00E942E108091BD
:1022700039050E94AB0B892BD1F380913B050E945D
:10228000AB0B892BA1F38091390590913A050E94FF
:10229000CB0D0E9468108B2DDF91CF911F910F9174
:1022A000FF90EF90DF90CF90BF9008958091390517
:1022B00090913A050E94C10D80913B0590913C059B
:1022C0000E94C10D8FEF90E00E94D110882321F071
:1022D0000E9468100E94681088EE90E00E94D11061
:1022E00083E090E00E94D11086EE90E00E94D11031
:1022F00083EF90E00E94D11088E290E00E94D1101C
:102300008AEE90E00E94D11084EF90E00E94D110FC
:102310008BE891E00197F1F78091390590913A05AA
:1023200082309105A9F00397A9F08FEF6CEA71E173
:102330000E941E048091390590913A050E94C10DBA
:1023400080913B0590913C050E94C10D81E008956C
:1023500080E0ECCF81E0EACFCF92DF92EF92FF9264
:102360000F931F93CF93809137020E94AB0B8C0188
:10237000C1E0892B09F4C0E00E942210C090330212
:10238000D0903402E0903502F09036029B01AC010F
:102390002C193D094E095F0969017A013BE0C3161A
:1023A000D104E104F10430F01092320210923102B3
:1023B000109230026093330270933402809335029E
:1023C00090933602809132028F5F809332028A307E
:1023D00048F4823010F58130A1F010923202109250
:1023E00031020CC08A3059F18B30B9F780912F023D
:1023F0008D3F78F110923102109232021092300229
:1024000004C01092300210922F02CF911F910F91B1
:10241000FF90EF90DF90CF90089580912F02C80F2A
:10242000C0932F028091300290E09595879520E02F
:10243000012B09F020E8822B80933002E6CF8091B7
:102440002F0281708C1719F080932F02DECF8DEF51
:10245000FBCF809131028130A1F130F1823061F601
:102460008091300290E090932C0280932B02109286
:102470003102809126028F5F803108F080E09091D8
:102480002502981709F4B8CF48E0849FD0011124A1
:10249000AB55BE4F98E0E7E2F2E001900D929A95BD
:1024A000E1F780932602A8CF8091300290E09093CC
:1024B000280280932702809131028F5F809331023E
:1024C0009BCF8091300290E090932A028093290262
:1024D000F2CFCF92DF92EF92FF92CF93DF93909162
:1024E000EB049111B7C0D62FC82F0E942210E091A3
:1024F000EB0427E02E9FA00111244F5D5B4FDA0112
:10250000AC56BF4F6D937D938D939C931397149608
:102510001C9215971C924E565F4FDA01CC9341E006
:102520004E0F249FA00111244F5D5B4FDA01AC5682
:10253000BF4F6B017C01FAEFCF0ED11CE11CF11CE7
:10254000CD92DD92ED92FC92139714961C92159702
:102550003FE03C934E565F4FDA01CC9342E04E0F82
:10256000249FA00111244F5D5B4FDA01AC56BF4F91
:102570006B017C01F4EFCF0EF1E0DF1EE11CF11CDA
:10258000CD92DD92ED92FC9213971496F1E0FC93BC
:1025900015973C934E565F4FDA01CC9343E04E0FB4
:1025A000249FA00111244F5D5B4FDA01AC56BF4F51
:1025B0006B017C013EEEC30E32E0D31EE11CF11C28
:1025C000CD92DD92ED92FC92139714961C92159782
:1025D000DC934E565F4FDA01CC9344E04E0F249FBC
:1025E000A00111244F5D5B4FDA01AC56BF4F6B0168
:1025F0007C0138EEC30E33E0D31EE11CF11CCD92FA
:10260000DD92ED92FC9213971496FC931597DC9350
:102610004E565F4FDA01CC9335E03E0F239F900179
:1026200011242F5D3B4FD901AC56BF4F6E517B4FEC
:102630008F4F9F4F6D937D938D939C93139714961B
:10264000FC9315971C922E563F4FD901CC93EA5F0D
:10265000E093EB04DF91CF91FF90EF90DF90CF906C
:102660000895CF92DF92EF92FF920F931F93CF9333
:1026700080919F0186FF72C08091A0018F5F80933F
:10268000A0018091A0018A3048F4823098F560E082
:10269000813009F448C01092A0019DC08B3009F42C
:1026A0004DC0E8F18C30B9F780915D018E3E69F044
:1026B00080915D018E3F49F080915D0180935401CE
:1026C00080919F01826080939F0180919F018F7B09
:1026D00080939F018091A20187FF3CC08091A2015D
:1026E0008F778093A20180919F0184FDD4CF0E94B7
:1026F000410ED1CFC0915E01C1706C2F8091590104
:102700000E94D40B80915C01C80FC0935C01809142
:102710005E0190E09595879580935E015CC0609125
:102720005C016095617080915901CF911F910F916B
:10273000FF90EF90DF90CF900C94D40B62E08091EB
:102740005901CF911F910F91FF90EF90DF90CF90A3
:102750000C94850D8091A2018E7FC3CF8091590189
:102760000E94AB0BC82F0E942210009155011091BE
:10277000560120915701309158016B017C01C01A1C
:10278000D10AE20AF30A970186010B3F11052105E0
:10279000310520F01092A00110925E016093550166
:1027A0007093560180935701909358018091A00136
:1027B0008F5F8093A0018091A0018A30A0F48230C5
:1027C00020F5813009F067CF10925C0180919F0164
:1027D000806880939F01CF911F910F91FF90EF90A0
:1027E000DF90CF9008958A3019F18B3009F053CFE4
:1027F00080915C018D3F48F18EEF0E94D50D809154
:10280000A20180688093A20146CF80915C018C0F69
:1028100080935C0180915E0190E09595879580930F
:102820005E0190E0C11190E880915E01892B74CF28
:1028300080915C01817080935C0180915C01C81380
:10284000CACF8DEF80935C01C6CF80915E018E3F31
:1028500029F090919F019D7F90939F0190919F01FE
:1028600094FF02C0803F70F090919F0192FD91C053
:102870008E3E09F477C0E8F48A3A09F47FC020F468
:10288000882359F186E02CC0803E09F47BC0813E4C
:10289000C9F780919F0182FD1AC087E080935B0198
:1028A00080919F01846080939F0180919F018F7D23
:1028B0000CC08C3F09F44EC060F4803F19F781E0F2
:1028C00080935B0180919F01806280939F0180E0F3
:1028D00007C08E3FA9F18F3FA9F60E94560B8CE0EE
:1028E00081FF05C090915B01915090935B019091A5
:1028F0005B01191614F482FF1EC0909107039F5FBD
:10290000903408F090E0209106032917A1F020915F
:102910005E01E92FF0E030E0EE0FFF1FEA57FD4FB8
:102920003183208340919F0120813181342B318379
:10293000208390930703807171F180915D015DCFD9
:1029400080919F0181FFC3CF8091540180935D01ED
:1029500080E1C6CF10925B0110929F011092A201FC
:102960008EE0BECF90919F0191FF0AC090915401DB
:102970009E3E31F080935D0184E1B2CF10925B0105
:1029800084E0AECF81E080935B0180919F018860FD
:102990009CCF82E0A5CF80915B0118160CF47BCE12
:1029A00080919F01837C80939F0110925B018091B5
:1029B0009F018F7780939F019ACEAF92BF92CF9263
:1029C000DF92EF92FF920F931F93CF93DF936C01EF
:1029D0007B018B01040F151FEB015E01AE18BF08D0
:1029E000C017D10759F06991D601ED91FC91019082
:1029F000F081E02DC6010995892B79F7C501DF919A
:102A0000CF911F910F91FF90EF90DF90CF90BF90EB
:102A1000AF900895089590E080E008958F929F927E
:102A2000AF92BF920F931F93CF93DF93CDB7DEB7D3
:102A3000A1970FB6F894DEBF0FBECDBF19A24230EA
:102A400008F44AE08E010F5D1F4F842E912CB12CAB
:102A5000A12CA50194010E945A3FE62FB901CA0199
:102A6000EA3044F5E05DD801EE938D01232B242B51
:102A7000252B79F790E080E0109769F0FD01019037
:102A80000020E9F73197AF014A1B5B0BBD0180EFD6
:102A900094E00E94DD14A1960FB6F894DEBF0FBE3D
:102AA000CDBFDF91CF911F910F91BF90AF909F90BD
:102AB0008F900895E95CD7CF462F682F70E090E0A3
:102AC00080E00C940E1580910A058130D9F4909124
:102AD0000E05933009F080E00E9496038AE080930F
:102AE000F6048BE08093F70480910F048A3020F481
:102AF00084EC96E00E9468066AE070E080910F0422
:102B00000C945C15089580910A058130D9F4909158
:102B10000E05923009F080E00E9496038AE08093CF
:102B2000F60489E08093F704809112048A3020F43F
:102B300084EC96E00E9468066AE070E080911204DE
:102B40000C945C15089580910A058130D9F4909118
:102B50000E05913009F080E00E9496038AE0809390
:102B6000F60488E08093F704809111048A3020F401
:102B700084EC96E00E9468066AE070E0809111049F
:102B80000C945C15089580910A058130D1F49091E0
:102B90000E05911180E00E9496038AE08093F6046E
:102BA00087E08093F704809110048A3020F484EC4D
:102BB00096E00E9468066AE070E0809110040C9430
:102BC0005C1508951F93CF93DF93182FD62FC42F32
:102BD00089E08093F4041092F5048EE08093F6046B
:102BE00080E18093F704103120F484EC96E00E9499
:102BF000680660E170E0812F0E945C1580EC96E031
:102C00000E946806D03120F484EC96E00E946806A9
:102C100060E170E08D2F0E945C1580EC96E00E94D0
:102C20006806C03120F484EC96E00E94680660E1FA
:102C300070E08C2FDF91CF911F910C945C15CF9396
:102C400080912604882351F18091FA04882331F180
:102C5000C62F809190048823D1F080910A0583309B
:102C6000B1F489E08093F4041092F5048EE080932F
:102C7000F60481E18093F704603120F484EC96E05F
:102C80000E94680660E170E08C2F0E945C158091C4
:102C90008C048230D1F120F48130F9F0CF91089585
:102CA000833009F44AC08430C9F7C3FB882780F910
:102CB00080932904C2FB882780F980932804C1FBF4
:102CC000882780F9809334048C2F817080932C04A2
:102CD000C295C170C0933E04E1CFC1FB882780F943
:102CE00080932A048C2F817080933204C2FB882742
:102CF00080F980933A04C3FB882780F980934204CB
:102D0000C295C170C0934A04C9CFC1FB882780F91E
:102D100080934B048C2F817080934304C2FB8827DF
:102D200080F980933B04C3FB882780F980933304A8
:102D3000C295C170C0932B04B1CFC1FB882780F925
:102D400080934A04C2FB882780F980934B04C3FB1D
:102D5000882780F9809343048C2F817080933B04F3
:102D6000E7CF009769F0FC0101900020E9F7319767
:102D7000AF01481B590BBC0180EF94E00C94DD14AB
:102D800090E080E008954F925F926F927F928F92D1
:102D90009F92AF92BF92CF92DF92EF92FF92CF932A
:102DA000DF9300D000D0CDB7DEB70E942210C090D4
:102DB0000605D0900705E0900805F09009052B0165
:102DC0003C014C185D086E087F08C301B20128EE73
:102DD00033E040E050E00E945A3F29833A834B831E
:102DE0005C83C301B20120E63AEE40E050E00E946D
:102DF0005A3F69017A01C301B20120E83EEE46E381
:102E000050E00E945A3F49015A01C301B20120E03B
:102E10003CE546E255E00E945A3F29013A01ACE305
:102E2000B0E0A70196010E947C3F29813A814B8145
:102E30005C81261B370B480B590B29833A834B8344
:102E40005C83A50194010E947C3FC61AD70AE80A58
:102E5000F90AA8E1B0E0A30192010E947C3F861A22
:102E6000970AA80AB90A8EE08093F6048BE0809353
:102E7000F7048FE08093F4041092F5044114510498
:102E800061047104A1F04AE0C301B2010E940E1571
:102E900080ED96E04A9445284628472811F48AECAC
:102EA00096E00E94680686EC96E00E9468064AE07A
:102EB00084169104A104B10420F484EC96E00E94ED
:102EC00068064AE0C501B4010E940E1582EC96E046
:102ED0000E9468065AE0C516D104E104F10420F40A
:102EE00084EC96E00E9468064AE0C701B6010E94A1
:102EF0000E1582EC96E00E94680689819A81AB816A
:102F0000BC810A97A105B10520F484EC96E00E94EB
:102F100068064AE069817A818B819C810F900F90CD
:102F20000F900F90DF91CF91FF90EF90DF90CF90B7
:102F3000BF90AF909F908F907F906F905F904F90D9
:102F40000C940E15CF92DF92EF92FF92CF93DF9306
:102F50006C01990FEE08FF08F7FE19C06DE280EFD3
:102F600094E00E943006EC0166277727CB016C19AC
:102F70007D098E099F094AE00E940E158C0F9D1F46
:102F8000DF91CF91FF90EF90DF90CF9008954AE0CE
:102F9000C701B601DF91CF91FF90EF90DF90CF9006
:102FA0000C940E1580910A05813099F590910E05CB
:102FB000953009F080E00E9496038AE08093F60441
:102FC0008DE08093F70480910C0490910D04883E6D
:102FD000934024F484EC96E00E94680680910C04EF
:102FE00090910D048436910524F484EC96E00E94BF
:102FF000680680910C0490910D040A9724F484ECE7
:1030000096E00E94680680910C0490910D040C9447
:10301000A217089587E08093F4041092F50488E1E4
:103020008093F6041092F704809110048831C8F55B
:10303000909111049C33A8F5909112049C3388F56B
:103040008A3020F484EC96E00E9468066AE070E022
:10305000809110040E945C1582EC96E00E94680644
:10306000809111048A3020F484EC96E00E94680676
:103070006AE070E0809111040E945C1582EC96E099
:103080000E946806809112048A3020F484EC96E055
:103090000E9468066AE070E0809112040E945C154C
:1030A00007C081E08093F50485E296E00E946806FF
:1030B00087E08093F4041092F50486E18093F6048F
:1030C00081E08093F70480910C0490910D048F307F
:1030D000974264F480910E048D3040F480910F0487
:1030E000803220F4909116049830F8F081E08093BB
:1030F000F50488E196E00E94680680910A05813017
:1031000071F40E94C3150E94A3150E9483150E94AA
:1031100063150E94D0060E94D2170E948D068091EE
:103120000A05833059F50C94C3168A3020F484ECD8
:1031300096E00E9468066AE070E080910F040E94A9
:103140005C1583E296E00E94680680910E048A3046
:1031500020F485E291E00E94B1166AE070E080916F
:103160000E040E945C1583E296E00E94680680913E
:103170000C0490910D040E94A217BFCF0895CF9325
:1031800080E00E94080ACEE0C093F4041092F50497
:1031900083E18093F60482E08093F7048AE395E06C
:1031A0000E9468066091FC0480EF94E00E94300663
:1031B0006091FD0480EF94E00E9430066091FE046F
:1031C00080EF94E00E9430066091FF0480EF94E06D
:1031D0000E9430066091000580EF94E00E94300666
:1031E0006091010580EF94E00E9430066091020535
:1031F00080EF94E00E9430066091030580EF94E038
:103200000E943006C093F4041092F50484E1809388
:10321000F60483E08093F70485E395E00E94680656
:1032200080910405909105050E94B1168FE080936E
:10323000F4041092F5041092F60484E08093F704ED
:10324000C0E26FE580EF94E00E943006C150C9F7FC
:10325000CF910C940A1880912604882349F080911C
:10326000FA04882329F08091900481110C940A18A3
:1032700008950F931F93CF93DF93EC0189E0809320
:10328000F4041092F5048EE08093F6048FE08093AE
:10329000F7040D2F11270031110520F484EC96E07E
:1032A0000E946806B80190E080E040E10E940E159F
:1032B00080EC96E00E946806DD27C031D10520F43D
:1032C00084EC96E00E946806BE0190E080E040E158
:1032D000DF91CF911F910F910C940E151092D60390
:1032E0001092D5038091D403882359F02091D503FF
:1032F0003091D60380910501909106012817390776
:10330000F0F02091D5033091D60380910501909182
:10331000060128173907E8F00E946D050E940B0C82
:103320008091D2039091D30301969093D30380931D
:10333000D20380E01092AB038093AA03089580919A
:10334000D5039091D60301969093D6038093D5032D
:10335000C9CF81E08093D4038093D1039FEF9093F2
:10336000D0031092CF031092CE038093AD038091CF
:10337000AD03806D8093AD038091AC03813009F083
:1033800062C01092AC031092D6031092D5038091C4
:10339000AD038093BB008091D5039091D603019635
:1033A0009093D6038093D5038091BC0083FF0BC01C
:1033B0002091D5033091D6038091050190910601AB
:1033C0002817390720F32091D5033091D603809137
:1033D0000501909106012817390708F09DCF85EC6B
:1033E0008093BC001092D6031092D5038091D40331
:1033F000813059F42091D5033091D6038091050195
:10340000909106012817390700F12091D5033091DA
:10341000D60380910501909106012817390708F01D
:103420007BCF8091CF0381111AC08091CF03AEEA88
:10343000B3E0EAE8F3E090E0981709F47BCF2D9130
:1034400021939F5FF9CF85EECBCF8091D5039091EB
:10345000D60301969093D6038093D503C7CF81E01E
:10346000E6CF88E60E94A40382E090E00E942A064C
:103470000E942F0C0E946E190E94C10326E09695AF
:1034800087952A95E1F781700895CF93DF93C82F30
:103490000E94311AD82F88E60E94A40382E090E0AF
:1034A0000E942A068C2FD11110C06AE00E94963F1C
:1034B000682F660F680F660F6C0F8BEF93E00E940A
:1034C000FB05DF91CF910C942F0CCD3078F06CE0A0
:1034D0000E94963F292F892F6AE00E94963F682F0D
:1034E000660F680F660F620F6066E7CF6AE00E94A2
:1034F000963F682F660F680F660F6C0F6064DDCF14
:10350000CF9388E60E94A40382E090E00E942A06FE
:103510000E942F0C0E946E190E94C103C82F88E6DA
:103520000E94A40382E090E00E942A066C2F6F7B29
:103530008BEF93E00E94FB05CF910C942F0CCF935F
:10354000C82F88E60E94A40390E080E00E942A062B
:103550000E942F0C0E946E190E94C1038078C82B14
:1035600088E60E94A40390E080E00E942A068C2F47
:103570006AE00E94963F682F660F680F660F6C0F17
:103580008BEF93E00E94FB05CF910C942F0C88E603
:103590000E94A40390E080E00E942A060E942F0C63
:1035A0000E946E190E94C1038F77282F30E094E0AB
:1035B000359527959A95E1F7922F990F990F291B29
:1035C000220F820F089588E60E94A40381E090E014
:1035D0000E942A060E942F0C0E946E190E94C103AD
:1035E0009C0194E0359527959A95E1F72F70332744
:1035F000922F990F990F291B220F820F0895CF93B5
:103600000E94311AC82F88E60E94A40382E090E04D
:103610000E942A060E942F0C0E946E190E94C1036C
:10362000C11110C0AC0194E0559547959A95E1F70A
:103630004F705527942F990F990F491B440F840FF2
:10364000CF910895482F4F79242F30E084E03595AD
:1036500027958A95E1F7822F880F880F922F981B64
:10366000892F880FECCF88E60E94A40383E090E0C6
:103670000E942A060E942F0C0E946E190E94C1030C
:10368000089588E60E94A40384E090E00E942A0640
:103690000E942F0C0E946E190E94C1039C0194E0AD
:1036A000359527959A95E1F72F703327922F990F2B
:1036B000990F291B220F820F089588E60E94A40308
:1036C00085E090E00E942A060E942F0C0E946E194D
:1036D0000E94C1039C0194E0359527959A95E1F7E6
:1036E0002F703327922F990F990F291B220F820FCA
:1036F000089588E60E94A40386E090E00E942A06CE
:103700000E942F0C0E946E190E94C1039C0194E03C
:10371000359527959A95E1F72F703327922F990FBA
:10372000990F291B220F820F90E08053984F089524
:10373000CF9388E60E94A40390E080E00E942A06CE
:103740000E942F0C0E946E190E94C103C82F88E6A8
:103750000E94A40390E080E00E942A066C2F6F77FD
:103760008BEF93E00E94FB05CF910C942F0C88E621
:103770000E94A40390E080E00E942A060E942F0C81
:103780000E946E190E94C1038095881F8827881F98
:1037900008950E94801A80910F040E94420D80912A
:1037A0000E040E94290D80910C0490910D040E943A
:1037B000090D809116040E945B0D809110040E94F7
:1037C000451A809111040E946C0D809112040E9490
:1037D0009F1A0E94B71B811102C00C94981B089578
:1037E0001F93CF93DF93EC01162F0E941C3F1817F5
:1037F00039F0612FCE01DF91CF911F910C94243FBE
:10380000DF91CF911F910895CF93DF93C8E7D4E064
:103810008883682F90E080E00E94F01B8881982FB9
:103820009170909351048695817080936B04DF9121
:10383000CF91089580919104811112C080910A0561
:1038400081113CC081E090910C05973009F080E037
:103850000E9496038AE08093F6048CE08093F7043C
:103860008091790490917804891710F40E94041CC7
:10387000809178048130C9F038F08230C9F083300B
:10388000D1F08EE796E002C081E196E00E946806E2
:103890008FE08093F4041092F50480EC96E00E948F
:1038A000680680EC96E00C94680681EB95E0EECF1C
:1038B0008EEA95E0EBCF8BEA95E0E8CF08950F9381
:1038C0001F93CF93DF9310920A05109291041092E8
:1038D0006E041FE01093F4041092F5040E941D0B77
:1038E0000E94BF181092F604D5E0D093F7048CE242
:1038F00095E00E9460070E94B309C4E1C093F604FA
:10390000D093F70481E295E00E942E071092F6040E
:10391000D6E0D093F70487E195E00E9460070E940B
:103920008809C093F604D093F7048FE095E00E94D5
:103930002E071092F604D7E0D093F70488E095E0C4
:103940000E9460070E945D09C093F604D093F704BB
:1039500080E095E00E942E071092F60408E00093A4
:10396000F70489EF94E00E9460070E942909C09340
:10397000F6040093F70481EF94E00E942E07109262
:10398000F60409E00093F70487EE94E00E946007D4
:103990000E94FE08C093F6040093F7048FED94E0B4
:1039A0000E942E071092F6040AE00093F70489EDB6
:1039B00094E00E9460070E94DD08C093F604009323
:1039C000F70481ED94E00E942E071092F6040BE0BC
:1039D0000093F70488EC94E00E9460070E94BB0803
:1039E000C093F6040093F7048FEB94E00E942E0737
:1039F0001092F6040CE00093F70489EB94E00E9427
:103A000060070E941A1CC093F6040093F70480EB31
:103A100094E00E942E071092F6040DE00093F70444
:103A200087EA94E00E9460070E949008C093F60421
:103A30000093F7048EE994E00E942E071092F6049A
:103A40000EE00093F70485E994E00E9460070E946D
:103A50006508C093F6040093F7048EE894E00E9492
:103A60002E071092F6041093F70485E894E00E9464
:103A700060070E941108C093F6041093F7048EE7C4
:103A800094E00E942E071092F60410E11093F704C0
:103A900088E794E00E9460070E94E307C093F60461
:103AA0001093F70481E794E00E942E071092F60429
:103AB00011E11093F7048AE694E00E9460070E94E7
:103AC000B807C093F6041093F70483E694E00E94CD
:103AD0002E071092F60412E11093F7048AE594E0A1
:103AE0000E9460070E948D07C093F6041093F704AC
:103AF00083E594E00E942E071092F60413E11093E0
:103B0000F7048DE494E00E9460070E946B07C09365
:103B1000F6041093F70486E494E00E942E071092B6
:103B2000F604C093F70480E494E00E9460070E94CA
:103B30003507C093F604C093F70480E494E00E9434
:103B40002E071092F60485E18093F704D093F404D5
:103B5000C1E0C093F5048EE394E00E94680686E31A
:103B600094E00E94270780EC96E00E942707D093FC
:103B7000F404C093F50484E394E00E9468068FE2A5
:103B800094E00E942707D093F404C093F5048DE2DB
:103B900094E00E94680688E294E00E942707109251
:103BA000F60486E18093F704C0E26FE580EF94E0CD
:103BB0000E943006C150C9F71092F60487E1809345
:103BC000F7048FE194E00E94270782E194E00E94CD
:103BD0002E0786E094E00E9427071092F60488E101
:103BE0008093F7048FE194E00E9427078DEF93E024
:103BF0000E942E0784EF93E0DF91CF911F910F91E8
:103C00000C9427070F931F93CF93C82F8B010E940B
:103C1000221060933601709337018093380190939E
:103C2000390161E080E10E94D40B8091FA0488237D
:103C300009F4E7C080919004882309F47DC0C43161
:103C400008F0DFC0EC2FF0E0E85DF14E0C94A23FED
:103C50003C1E411E4C1E561E5B1E601E651E6A1ECB
:103C60006F1E741E791E011F7E1E831E881E8D1EF0
:103C7000011F511E921E971ECF911F910F910C9400
:103C80005F1C80910A05833009F0BBC0C801CF9149
:103C90001F910F910C943919CF911F910F910C9492
:103CA0006508CF911F910F910C941108CF911F912E
:103CB0000F910C949008CF911F910F910C94B30920
:103CC000CF911F910F910C948809CF911F910F9163
:103CD0000C945D09CF911F910F910C942909CF91FC
:103CE0001F910F910C94FE08CF911F910F910C948E
:103CF000DD08CF911F910F910C94BB08CF911F91BC
:103D00000F910C946B07CF911F910F910C94350775
:103D1000CF911F910F910C941A1CCF911F910F916D
:103D20000C94E307CF911F910F910C94B807CF919A
:103D30001F910F910C948D07C03108F05DC0CC30FD
:103D400028F48EEF8C0F893008F05BC00E9422109F
:103D50006093320170933301809334019093350165
:103D600080919104811107C08FE08093F404109238
:103D7000F5040E941D0B81E08093910480936E04F2
:103D8000E0912404F091250470E060E080E1099561
:103D90008FE08093F4041092F5040E941D0B80E0E4
:103DA000C03109F485E00E94080AC03151F18FE06A
:103DB0008093F4041092F5041092F60485E0809349
:103DC000F704C250C23128F5EC2FF0E0E651F14E75
:103DD0000C94A23F431F401F051F2B1F2E1F311F96
:103DE000341F371F3A1F091F521F551F3D1F491F00
:103DF000091F461F4C1F4F1F8FEE8C0F833008F496
:103E0000A5CFCF911F910F9108958CE295E00E946C
:103E100068060E9483061092F60486E08093F704F9
:103E2000C23108F047C0EC2FF0E0E75EF04E0C9492
:103E3000A23F771F741F581F5F1F621F651F681FF7
:103E40006B1F6E1F5A1F861F891F711F7D1F5A1FF0
:103E50007A1F801F831F87E195E0D9CF88E095E026
:103E6000D6CF89EF94E0D3CF87EE94E0D0CF89ED21
:103E700094E0CDCF88EC94E0CACF89EB94E0C7CF33
:103E800087EA94E0C4CF85E994E0C1CF85E894E067
:103E9000BECF88E794E0BBCF8AE694E0B8CF8AE54E
:103EA00094E0B5CF8DE494E0B2CF80E494E0AFCF5E
:103EB0000E94B309CF911F910F910C9483060E9429
:103EC0008809F8CF0E945D09F5CF0E942909F2CF39
:103ED0000E94FE08EFCF0E94DD08ECCF0E94BB08D5
:103EE000E9CF0E941A1CE6CF0E949008E3CF0E94FF
:103EF0006508E0CF0E941108DDCF0E94E307DACF0A
:103F00000E94B807D7CF0E948D07D4CF0E946B07BD
:103F1000D1CF0E943507CECF611103C064E10C946C
:103F2000F01B6AE0FCCF0F931F93CF93DF93682FB2
:103F3000617007E814E0F8016083C9E8D4E0869571
:103F40008170888388E090E00E948C1F68818AE0FD
:103F500090E00E948C1FF801808180936504888125
:103F600080936704DF91CF911F910F910895813065
:103F7000F9F0C8F08230F9F0833019F160918304D0
:103F800084E090E00E948C1F6091840485E090E0C2
:103F90000E948C1F8091830480936004809184042C
:103FA0008093610408951092830410928404E6CFF4
:103FB00080938304FACF1092830481E08093840479
:103FC000DDCF81E080938304F9CF9091260499237B
:103FD00009F444C09091FA04992309F43FC088235E
:103FE00019F0813059F108956091400560937C0487
:103FF0008CE090E00E948C1F61E080E10E94D40B75
:1040000064E670E080E090E00E94B00F60E080E144
:104010000E94D40B64E670E080E090E00E94B00F54
:1040200061E080E10E94D40B64E670E080E090E003
:104030000E94B00F60E080E10C94D40B809190045A
:10404000882361F080910A05833041F44091540542
:1040500060915305809152050C94E2150895CF9319
:10406000C0917B048C1708F4C82FC0937A046C2F7E
:104070008EE090E00E94F01B8C2F817080936C0486
:10408000C695C170C0936D04CF910895CF93C82F8A
:10409000853008F0C4E0C0938C046C2F8FE090E072
:1040A0000E94F01B8C2F817080936F04C1FB8827C6
:1040B00080F980937004C2FBCC27C0F9C0937104CF
:1040C000CF910895CF92DF92EF92FF92CF936A0142
:1040D0007B01692F661F6627661F60937F0210921F
:1040E0007E0260935304382F331F3327331F3093DE
:1040F0005E04FC01FF27E6FB332730F930935D04B3
:10410000E5FB332730F930935C04E4FB332730F9C7
:1041100030935B04E3FB332730F930935A04E2FB1E
:10412000332730F930935904E1FB332730F93093CA
:1041300058043E2F31703093570491110C94362956
:10414000863011F00C943629CF91FF90EF90DF90DC
:10415000CF900C94D7040E94D70480917E028823CC
:1041600041F08091B1049091B204892B11F4109226
:1041700027048091B1049091B204181619061CF41A
:1041800081E08093270480917F048823C1F080918F
:1041900080048823A1F080917C02882381F0109212
:1041A0007F041092800410927C0210927D02109283
:1041B0007E021092B2041092B1040E94E20F80912C
:1041C0007F048823C1F1809180048823A1F180912C
:1041D0007B02882381F110927F0410928004109258
:1041E0007B0210927D0210927E021092B204109215
:1041F000B104E7E2F4E0119224E0E035F207D9F7E8
:10420000C1E0C09350040E94DC03C0932E040E94BE
:10421000DC0364EF71E080E090E00E94B00F109248
:1042200050040E94DC0364EF71E080E090E00E94A3
:10423000B00F10922E04CF91FF90EF90DF90CF90AF
:10424000089520917704222371F02FE030E0892F28
:104250008095881F8827881F2F5D3B4FF901868333
:1042600080937D027ACF30E020E0F1CF2091770477
:10427000222371F030E020E0892F8095881F882765
:10428000881F2F5D3B4FF901868380937F0465CFA4
:104290002FE030E0F1CFC92FC095CC1FCC27CC1F29
:1042A00080917F04811114C0C0933604209177045B
:1042B00086E090E0211102C090E080E08F5D9B4F8E
:1042C000FC01C683211104C08AE090E00E94E7044B
:1042D000C093800442CFC92FC095CC1FCC27CC1FE0
:1042E00080917F04811114C0C0933604209177041B
:1042F00087E090E0211102C090E080E08F5D9B4F4D
:10430000FC01C683211104C08BE090E00E94E70409
:10431000C093800422CF20917D0221111ECF892FCE
:104320008095982F991F9927991F20917704222310
:1043300051F090932C0490934F04881F8827881F76
:1043400080937C020ACF9093360490933F04F5CF7C
:10435000892F8095881F8827881F80937E04FDCE33
:10436000892F8095881F8827881F80937D04F5CE2C
:1043700020917D022111F1CE892F8095881F8827F9
:10438000881F90917704992329F0809334048093B7
:104390004F04E3CE8093360480932804DECE209130
:1043A0007D022111DACE892F8095881F8827881FEA
:1043B00080939704809327048093430487E190E0DF
:1043C0000E94E704CACE20917D022111C6CE892F1A
:1043D0008095881F8827881F8093980480932704DE
:1043E00080934B0488E190E00E94E704B6CE2091D0
:1043F0007D022111B2CE892F8095881F8827881FC2
:10440000809399048093270480934A0485E190E087
:104410000E94E704A2CE20917D0221119ECE892F19
:104420008095881F8827881F80939A04809327048B
:1044300080933B0486E190E00E94E7048ECE2091B9
:104440007D0421110CC020917E04211108C020910F
:104450007F042223B9F120918004222399F1611174
:104460007CCE8091920490919304A0919404B09199
:104470009504A7019601281B390B4A0B5B0BDA0147
:10448000C901893C9105A105B10508F466CE80916A
:10449000900491E089278093900480936A04882394
:1044A00041F0E0912404F091250470E060E080E0A8
:1044B0000995C0929204D0929304E0929404F092F1
:1044C00095044BCE892F8095881F8827881F80935D
:1044D0009C04809327049091770423E030E09111AD
:1044E00002C027E030E02F5D3B4FF90186838BE16E
:1044F00090E00E94E70431CEC92FC095CC1FCC2795
:10450000CC1FC0932704C0932B048CE190E00E9441
:10451000E704C0937B0221CE892F8095881F8827CE
:10452000881F80932D0480939B0417CE892F80953C
:10453000881F8827881F80932E040FCE892F80958F
:10454000881F8827881F8093280407CE892F80958D
:10455000881F8827881F80934E04FFCD892F809560
:10456000881F8827881F80933F04F7CD20917D0402
:1045700021110CC020917E04211108C020917F04DC
:104580002223E9F0209180042223C9F06111E5CDB6
:1045900060918D0481E0682760938D0480E190E054
:1045A0000E948C1F80918D0480937204E0912404FA
:1045B000F091250470E060E082E10995CECD892F6D
:1045C0008095881F8827881F80933804C6CD892F3F
:1045D0008095881F8827881F80933904BECD892F36
:1045E0008095881F8827881F80934004B6CD892F27
:1045F0008095881F8827881F80934804AECD892F17
:104600008095881F8827881F80934D04A6CD892F09
:104610008095881F8827881F80933C049ECD209119
:104620007D0421110CC020917E04211108C020912D
:104630007F042223E9F0209180042223C9F0611134
:104640008CCD60918B0481E0682760938B048DE0B2
:1046500090E00E948C1F80918B0480936904E0910C
:104660002404F091250470E060E082E0099575CDA6
:10467000892F8095881F8827881F809345046DCDDA
:10468000892F8095881F8827881F80933D0465CDDA
:10469000892F8095881F8827881F809335045DCDDA
:1046A00020917D0421110CC020917E04211108C0AD
:1046B00020917F042223E9F0209180042223C9F075
:1046C00061114BCD80918C048F5F853078F480939D
:1046D0008C0480918C040E944620E0912404F09187
:1046E000250470E060E081E1099537CD10928C04DB
:1046F000F0CF892F8095881F8827881F80933E04DC
:104700002CCD20917D0421110CC020917E0421111B
:1047100008C020917F042223E9F020918004222305
:10472000C9F061111ACD60918E0481E06827609311
:104730008E0481E190E00E948C1F80918E04809312
:104740007304E0912404F091250470E060E083E1BB
:10475000099503CD892F8095881F8827881F80930E
:104760004604FBCC892F8095881F8827881F80935B
:104770003404F3CC892F8095881F8827881F809365
:104780002C04EBCC892F8095881F8827881F809365
:104790002904E3CC892F8095881F8827881F809360
:1047A0004104DBCC892F8095881F8827881F809340
:1047B0003004D3CC892F8095881F8827881F809349
:1047C0004904CBCC892F8095881F8827881F809328
:1047D0004404C3CC20917D0421110CC020917E049F
:1047E000211108C020917F042223F1F02091800440
:1047F0002223D1F06111B1CC80917A048F5F809334
:104800007A0490917B04981710F410927A048091A6
:104810007A040E942F20E0912404F091250470E096
:1048200060E08FE0099599CC892F8095881F8827B3
:10483000881F8093470491CC892F8095881F8827F3
:10484000881F8093310489CC892F8095881F882701
:10485000881F8093370481CC892F8095881F8827F3
:10486000881F80934C0479CC892F8095881F8827D6
:10487000881F80932F0471CC892F8095881F8827EB
:10488000881F80932B0469CC892F8095881F8827E7
:10489000881F80932A0461CC892F8095881F8827E0
:1048A000881F8093320459CC892F8095881F8827D0
:1048B000881F80933A0451CC892F8095881F8827C0
:1048C000881F8093420449CC892F8095881F8827B0
:1048D000881F80934A0441CC892F8095881F8827A0
:1048E000881F80934B0439CC892F8095881F882797
:1048F000881F8093430431CC892F8095881F882797
:10490000881F80933B0429CC892F8095881F882796
:10491000881F8093330421CC892F8095881F882796
:10492000881F80932B0419CC892F8095881F882796
:10493000881F80932A0411CC892F8095881F88278F
:10494000881F8093320409CC892F8095881F88277F
:10495000881F80933A0401CC892F8095881F88276F
:10496000881F80934204F9CB892F8095881F882760
:10497000881F80934A04F1CB892F8095881F882750
:10498000881F80934B04E9CB892F8095881F882747
:10499000881F80934304E1CB892F8095881F882747
:1049A000881F80933B04D9CB892F8095881F882747
:1049B000881F80933304D1CB292F2095221F2227D3
:1049C000221F2093360430917D0285E090E0311162
:1049D00002C08CE190E08F5D9B4FFC012683662333
:1049E00021F010922C041092430430937E02B5CB38
:1049F000292F2095221F2227221F20933604309131
:104A00007D028AE190E0311102C08FE190E08F5D7C
:104A10009B4FFC012683662321F0109241041092E3
:104A2000460430937E0299CB292F2095221F2227FE
:104A3000221F2093360430917D0282E290E03111F2
:104A400002C087E190E08F5D9B4FFC0126836623C7
:104A500021F01092490410923E0430937E027DCBE7
:104A6000292F2095221F2227221F209336043091C0
:104A70007D0288E090E0311102C08DE090E08F5D12
:104A80009B4FFC012683662321F010922F04109285
:104A9000340430937E0261CB2091770421110BC046
:104AA00061115BCB20917D0269E1211101C065E2BA
:104AB0000E94691252CB292F2095221F2227221FE4
:104AC0002093360480917D02882371F089E190E083
:104AD0008F5D9B4FFC012683662309F43ECB109229
:104AE000400410924C0439CB85E290E0F1CF209144
:104AF000770421110BC0611130CB20917D0261E25E
:104B0000211101C06DE10E94691227CB292F209548
:104B1000221F2227221F2093360480917D028823A2
:104B200071F081E290E08F5D9B4FFC01268366234C
:104B300009F413CB10924804109244040ECB8DE17B
:104B400090E0F1CF292F2095221F2227221F2093AA
:104B5000360430917D0288E190E0311102C080E29C
:104B600090E08F5D9B4FFC012683662321F010921D
:104B70003F041092470430937E02EFCA20917704DD
:104B800021110BC06111E9CA20917D0269E0211158
:104B900001C061E10E946912E0CA292F2095221FFD
:104BA0002227221F2093360480917D02882371F0F2
:104BB00089E090E08F5D9B4FFC012683662309F41A
:104BC000CCCA1092300410923804C7CA81E190E038
:104BD000F1CF292F2095221F2227221F2093360450
:104BE00030917D0286E190E0311102C08EE090E0CC
:104BF0008F5D9B4FFC012683662321F010923D04BC
:104C00001092350430937E02A8CA292F2095221FC6
:104C10002227221F2093360430917D0284E090E009
:104C2000311102C08EE190E08F5D9B4FFC01268325
:104C3000662321F010922B041092450430937E02DB
:104C40008CCAC0917D02CC2309F402C3611103C058
:104C500061E00E946912C0937E027FCA892F80950D
:104C6000881F8827881F8093360480934E0475CA56
:104C7000892F8095881F8827881F8093360480930A
:104C800045046BCA892F8095881F8827881F8093C9
:104C9000360480933D0461CA20917D0421110CC02B
:104CA00020917E04211108C020917F042223E9F085
:104CB000209180042223C9F061114FCA60918A04B7
:104CC00081E0682760938A048BE090E00E948C1F4B
:104CD00080918A0480936804E0912404F091250473
:104CE00070E060E083E0099538CA892F8095881FBD
:104CF0008827881F8093270480933C048DE190E0EF
:104D00000E94E7042ACA892F8095881F8827881F58
:104D1000809327048093360483E090E00E94E704A8
:104D20001CCA20917D02211118CA892F8095881FE5
:104D30008827881F90917704992329F080933E0457
:104D400080934F040ACA8093270480933A0483E136
:104D500090E00E94E70401CA20917D022111FDC963
:104D6000892F8095881F8827881F90917704992321
:104D700029F08093460480934F04EFC98093270461
:104D80008093420484E190E00E94E704E6C9209108
:104D90007D022111E2C9892F8095881F8827881FED
:104DA00080933D0480934F04D8C920917D02211146
:104DB000D4C9892F8095881F8827881F8093350440
:104DC00080934F04CAC920917D0421110CC0209109
:104DD0007E04211108C020917F04222391F02091AC
:104DE0008004222371F06111B8C980E00E94B71FCE
:104DF000E0912404F091250470E060E084E00995DE
:104E0000ACC9892F8095881F8827881F8093280424
:104E100080934F04A2C920917D0421110CC02091E0
:104E20007E04211108C020917F04222391F020915B
:104E30008004222371F0611190C981E00E94B71FA4
:104E4000E0912404F091250461E070E084E009958C
:104E500084C9892F8095881F8827881F80934E04D6
:104E600080934F047AC920917D0421110CC02091B8
:104E70007E04211108C020917F04222391F020910B
:104E80008004222371F0611168C982E00E94B71F7B
:104E9000E0912404F091250462E070E084E009953B
:104EA0005CC9892F8095881F8827881F80933F04BD
:104EB00080934F0452C920917D0421110CC0209190
:104EC0007E04211108C020917F04222391F02091BB
:104ED0008004222371F0611140C983E00E94B71F52
:104EE000E0912404F091250463E070E084E00995EA
:104EF00034C9892F8095881F8827881F809338049C
:104F000080934F042AC920917D0421110CC0209167
:104F10007E04211108C020917F042223E9F0209112
:104F200080042223C9F0611118C96091850481E0D1
:104F300068276093850486E090E00E948C1F809132
:104F4000850480936204E0912404F091250470E0CC
:104F500060E085E0099501C9892F8095881F882721
:104F6000881F8093390480934F04F7C820917D04F3
:104F700021110CC020917E04211108C020917F04D2
:104F80002223E9F0209180042223C9F06111E5C8B1
:104F90006091860481E068276093860487E090E052
:104FA0000E948C1F8091860480936404E091240405
:104FB000F091250470E060E086E00995CEC8892F65
:104FC0008095881F8827881F8093400480934F0412
:104FD000C4C820917D0421110CC020917E042111B0
:104FE00008C020917F042223C1F020918004222355
:104FF000A1F06111B2C880918704909189048F5FFC
:10500000911180E00E94931FE0912404F091250407
:1050100070E060E087E00995A0C8892F8095881F1F
:105020008827881F8093480480934F0496C8209156
:105030007D04211108C020917F042223E9F02091F2
:1050400080042223C9F0611188C86091880481E03E
:1050500068276093880489E090E00E948C1F80910B
:10506000880480936604E0912404F091250470E0A4
:1050700060E088E0099571C8892F8095881F88278E
:10508000881F80934D0480934F0467C820917D044E
:1050900021110CC020917E04211108C020917F04B1
:1050A0002223E9F0209180042223C9F0611155C820
:1050B0006091810481E068276093810482E090E040
:1050C0000E948C1F8091810480935504E0912404F8
:1050D000F091250470E060E089E009953EC8892FD1
:1050E0008095881F8827881F80933C0480934F04F5
:1050F00034C820917D0421110CC020917E0421111F
:1051000008C020917F042223F1F020918004222303
:10511000D1F0611122C86091820481E06827609318
:10512000820483E090E00E948C1F8091820480932F
:105130005604E0912404F091250470E060E08AE0D8
:1051400009950C94AD20892F8095881F8827881F8A
:105150008093450480934F040C94AD2020917D04EE
:1051600021110CC020917E04211108C020917F04E0
:10517000222309F1209180042223E9F061110C948B
:10518000AD20809178048F5F8093780490917904AA
:10519000981710F410927804809178040E94041CEF
:1051A0006091780470E0E0912404F09125048EE091
:1051B00009950C94AD20892F8095881F8827881F1A
:1051C00080932904809336040C94AD2020917D04B3
:1051D00021110CC020917E04211108C020917F0470
:1051E000222359F020918004222339F061110C947C
:1051F000AD200E9402100C94AD20892F8095881F4D
:105200008827881F80933104809336040C94AD2046
:1052100080917D0281110C94AD2061110C94AD2020
:105220006091770481E068276093770481E090E0E3
:105230000E948C1F8091770480936304E091240482
:10524000F091250470E060E08CE009950C94AD20AD
:105250002091EB042111FFCC892F8095881F88278E
:10526000881F8093360480933704F5CC3397EA3651
:10527000F10510F00C94B920E05CF64D0C94A23FBF
:1052800083260829AB2021212121362136214B21DB
:105290006B21A821A821B021B920B920C726D52685
:1052A0009126AC26F7210B22CF21E321B8218B21B7
:1052B0001F227C224C268C2296228C2494249C240F
:1052C000A424AC24B424BC24C424CC24D424142585
:1052D0008C22422638262E26A2253C2444244C2407
:1052E00054245C2464246C2474247C248424DC24CE
:1052F000F82405261425A225B92021269E22A622BF
:10530000AE22B622E722EF22F722FF2207230F2345
:105310004023482350238123B223BA23C223CA2324
:10532000D223DA23E223EA231C2424242C24342449
:105330003025BE254C257725E925B920E3260B2706
:1053400033275B278327B627E9271728462879289C
:10535000AE28E6280C941C3F0F931F93CF93DF9346
:10536000D0E0C0E004E610E0CE30D10508F008C17E
:10537000FE01E354F64D0C94A23FCB29E829FA290B
:105380000C2A1E2A3E2A5E2A702A822A942AAB2AD6
:10539000B32ABA2ABD2A2091120480911B048823C3
:1053A00049F0822F6AE00E94963F982F990F890F4B
:1053B000880F280F622F80E00E94D4032196C11528
:1053C00081E0D80789F6DF91CF911F910F91089561
:1053D0002091130480911B04882349F0822F6AE0F6
:1053E0000E94963F982F990F890F880F280F622FE0
:1053F00081E0E2CF2091110480911B04882349F0C1
:10540000822F6AE00E94963F982F990F890F880F8C
:10541000280F622F82E0D0CF2091140480911B04CA
:10542000882349F0822F6AE00E94963F982F990FB7
:10543000890F880F280F622F83E0BECF80911B0455
:105440002091100490911C04992371F0882349F055
:10545000822F6AE00E94963F982F990F890F880F3C
:10546000280F622F84E0A8CF882321F02D3080F30D
:105470002CE8EECF2D30A8F32CE8F3CF80911B045D
:105480002091150490911C04992371F0882349F010
:10549000822F6AE00E94963F982F990F890F880FFC
:1054A000280F622F85E088CF882321F02D3080F3EC
:1054B0002CE8EECF2D30A8F32CE8F3CF2091160482
:1054C00080911B04882349F0822F6AE00E94963F56
:1054D000982F990F890F880F280F622F86E06CCFC5
:1054E00020910F0480911B04882349F0822F6AE0E9
:1054F0000E94963F982F990F890F880F280F622FCF
:1055000087E05ACF20910E0480911B04882349F034
:10551000822F6AE00E94963F982F990F890F880F7B
:10552000280F622F88E048CF80910C0490910D04E1
:10553000B8010E94463F282F90911B04992341F007
:105540006AE00E94963F982F880F890F880F820F7C
:10555000682F89E031CF8AE290E00E94AA29682F63
:105560006F778AE029CF8BE290E00E94AA29682F0A
:105570008BE022CF60E08CE01FCF60E88DE01CCF95
:10558000CE0180960E94AA29682F8C2F15CF1F93D9
:10559000CF93DF93182FD62FC42F9091EC048091D6
:1055A000ED049CBD8DBD60E087E00E94D40B1EBD64
:1055B00000000DB407FEFDCF1EB5DEBD00000DB42A
:1055C00007FEFDCFDEB5CEBD00000DB407FEFDCF5A
:1055D000CEB561E087E00E94D40B112319F11D3F85
:1055E00029F58091310181111DC081E08093310145
:1055F0008C2F90E0D6E095958795DA95E1F7CF73FB
:105600008093790420917804821710F40E94041C7E
:105610000E94DC030E94AC290E94AC290E94E20F88
:10562000C093FB04DF91CF911F9108951C3F61F45B
:1056300080911A048111F6CF81E080931A04DF91E2
:10564000CF911F910C94AC29103F09F015C1ED2F9B
:10565000F0E0E251FB4FC687E5CF80911B04882321
:1056600069F08C2F90E0B4E095958795BA95E1F7B5
:10567000982F990F990F891B880FC80FC093120498
:105680008C2FDF91CF911F910C949F1A80911B0456
:10569000882369F08C2F90E0A4E095958795AA95D2
:1056A000E1F7982F990F990F891B880FC80FC093A6
:1056B0001304B8CF80911B04882369F08C2F90E0ED
:1056C000F4E095958795FA95E1F7982F990F990F42
:1056D000891B880FC80FC09311048C2FDF91CF91C5
:1056E0001F910C946C0D80911B04882369F08C2F02
:1056F00090E0E4E095958795EA95E1F7982F990F6A
:10570000990F891B880FC80FC09314048BCF809109
:105710001B04882369F08C2F90E074E095958795A1
:105720007A95E1F7982F990F990F891B880FC80F69
:10573000C09310040E94801A80911004DF91CF91D1
:105740001F910C94451A80911B04882369F08C2FBB
:1057500090E064E0959587956A95E1F7982F990F09
:10576000990F891B880FC80FC09315045BCF8091D8
:105770001B04882369F08C2F90E054E09595879561
:105780005A95E1F7982F990F990F891B880FC80F29
:10579000C09316048C2FDF91CF911F910C945B0D59
:1057A00080911B04882369F08C2F90E044E095954C
:1057B00087954A95E1F7982F990F990F891B880FC4
:1057C000C80FC0930F048C2FDF91CF911F910C94C1
:1057D000420D80911B04882369F08C2F90E034E007
:1057E000959587953A95E1F7982F990F990F891B11
:1057F000880FC80FC0930E048C2FDF91CF911F919B
:105800000C94290D80911B04882369F08C2F90E063
:1058100024E0959587952A95E1F7982F990F990F90
:10582000891B880FC80F8C2F90E08053984F90935E
:105830000D0480930C04DF91CF911F910C94090DFE
:105840006C2F6F778AE290E0DF91CF911F910C94DB
:10585000F01BC2FB882780F991E0892780931B0405
:10586000C1FB882780F980931C046C2F8BE290E0A9
:10587000EBCF6C2F8096E8CF1A3F09F0D3CE209162
:105880001704309118048D2F90E02817390739F448
:1058900020911904C21303C0DE3008F4C3CE9093E4
:1058A000180480931704C0931904DE3010F7845A4B
:1058B000934DFC010C94A23F2D2B462B5A2B732B9E
:1058C000872BA32BB72BD02BE92B022C202C292C98
:1058D000122B122B0F931F93CF938C01C62F0E9474
:1058E000AA298A3011F0843149F4C1E08A3009F0E4
:1058F000C0E08C2FCF911F910F91089564E1C111E9
:105900006AE0C8010E94F01BF4CF1F920F920FB6FD
:105910000F9211242F933F934F935F936F937F9335
:105920008F939F93AF93BF93EF93FF938091B900B1
:10593000887F803609F44AC0F0F5883209F4A5C0A2
:1059400018F5803109F499C0B8F4882309F4F5C03A
:10595000883009F492C0FF91EF91BF91AF919F9170
:105960008F917F916F915F914F913F912F910F9008
:105970000FBE0F901F901895883109F486C08032B1
:1059800051F78093D00314C0803409F49BC040F4D5
:105990008033B9F38833F9F68093D00385ECAEC039
:1059A000803509F483C0883509F494C0883499F6A9
:1059B0000E946D05D0CF883909F48AC038F5883740
:1059C00029F050F4883611F0803729F683E080936F
:1059D000D40310927A0255C0883809F479C080390E
:1059E00019F0803809F0B7CF80917A02803208F040
:1059F0006FC0E0917A0281E08E0F80937A028091ED
:105A0000BB00F0E0E65AFD4F80833BC0803B39F09D
:105A1000D0F4803A09F477C0883A09F09CCF84E04A
:105A20008093D4031092590210925802F0E0E0E003
:105A300009958091580281110FC081E0809358022E
:105A40001092380209C0803C09F4A8CF883C09F4C0
:105A5000A5CF883B09F07FCFE091590281E08E0FFE
:105A600080935902F0E0E85CFD4F80818093BB0099
:105A7000909159028091580229C08091AD03809382
:105A8000BB0085EC8093BC0066CF9091CF038091E2
:105A9000CE03981758F5E091CF0381E08E0F8093E5
:105AA000CF03F0E0E255FC4F8081E9CFE091CF03D6
:105AB00081E08E0F8093CF038091BB00F0E0E25530
:105AC000FC4F80839091CF038091CE039817C8F24A
:105AD00085E8D8CFE091CF0381E08E0F8093CF038C
