:100000000C942B040C943C2A0C94152A0C94530445
:100010000C9453040C9453040C9453040C94530404
:100020000C9453040C9453040C9453040C945304F4
:100030000C9453040C9453040C9453040C945304E4
:100040000C94CB290C9453040C94892A0C94632AA5
:100050000C9453040C9453040C9453040C945304C4
:100060000C94B0280C945304646F6E650052544392
:1000700020696E697420726571756573742E2E2EF9
:1000800000556E6B6E6F776E005265762E4453206E
:1000900077697468205444413135343341204441F8
:1000A00043005265762E4453207769746820544487
:1000B000413135343320444143005265762E412F7F
:1000C000422F432F442077697468205444413135CE
:1000D00034334120444143005265762E412F422F54
:1000E000432F4420776974682054444131353433B8
:1000F00020444143004650474120626F61726420B2
:100100007265766973696F6E2069733A2000646F57
:100110006E65004650474120696E697420726571B2
:10012000756573742E2E2E004275696C6420200054
:100130005444413135343341005444413135343332
:1001400020005265762E445320005265762E4120C1
:1001500020005F004B6172616261732050726F001A
:1001600020746F20746F67676C65204F5344004D97
:10017000656E752B455343005072657373200020E4
:10018000746F207265626F6F74004374726C2B41E0
:100190006C742B44656C005072657373200073653A
:1001A00074207570205254430020746F2000450065
:1001B00050726573732000506F7274202331463A79
:1001C000004D6F7573653A005363616E636F6465CC
:1001D0003A0050617573650050617573653A00505F
:1001E0007274536372004B6579626F6172643A0096
:1001F0004D656E752B4A004A6F7920747970653AA7
:10020000004D656E752B5461620053776170204616
:1002100044443A004D656E752B4631310054757279
:10022000626F2032783A004D656E752B4631300092
:100230005653796E633A004D656E752B46390056FC
:100240006964656F3A004D656E752B4638005053F2
:100250004720747970653A004D656E752B463700FE
:10026000505347206D69783A004D656E752B4636C0
:1002700000436F766F783A004D656E752B463500FA
:10028000547572626F4644433A004D656E752B4655
:10029000312D463400524F4D2042616E6B3A00467C
:1002A00044496D61676500466C6173686572002042
:1002B0000050512D444F530044656661756C7400C5
:1002C00020004F6E004F66660020004F6E004F66A4
:1002D00066004D6F6E6F00200041434200200041D8
:1002E0004243004159332D38393132002000594DF5
:1002F0003231343946005247422031356B487A005A
:100300005647412033306B487A00363020487A0017
:10031000353020487A0020004F6E004F666600207E
:10032000004F6E004F666600200053454741004174
:10033000746172690050726F66692058540053707E
:1003400065637472756D0020004F6E004F66660025
:1003500030003000300030005F5F5F0020004465F7
:1003600063656D6265720020004E6F76656D626533
:1003700072002020004F63746F62657200536570D5
:1003800074656D6265720020202000417567757389
:1003900074002020202020004A756C790020202045
:1003A0002020004A756E6500202020202020004D6E
:1003B0006179002020202000417072696C002020AB
:1003C0002020004D617263680020004665627275EE
:1003D000617279002020004A616E75617279003087
:1003E00000300030005F5F5F0053756E0053617432
:1003F000004672690054687500576564005475655D
:10040000004D6F6E003000200030003000200030C2
:1004100000200030005374617274696E67206D6152
:10042000696E206C6F6F7000646F6E65005254438C
:100430002073656E6420616C6C20726567697374EB
:100440006572732E2E2E00646F6E65005254432029
:100450006973206E6F742072756E6E696E672E20E0
:1004600053746172696E672069742E2E2E00525487
:100470004320696E69742E2E2E004D6F75736520B2
:10048000696E69742E2E2E00696E76616C69642027
:10049000636F6465207265636569766564206F6665
:1004A00020006E6F7420666F756E6400646F6E65F9
:1004B000004B6579626F61726420696E69742E2EDB
:1004C0002E0057616974696E6720666F722046500E
:1004D000474120696E697420726571756573740097
:1004E0005A58204B6579626F617264202F206D6FBE
:1004F000757365202F2072746320636F6E74726F42
:100500006C6C65722076312E300020746F2072651D
:100510007475726E0045534300507265737320000A
:10052000746F206E61766967617465206279206DF1
:10053000656E75206974656D730020616E642000BE
:10054000746F206368616E67652076616C75657392
:100550002C200020616E642000506C656173652062
:10056000757365206172726F77732000444F573A3C
:1005700000596561723A004D6F6E74683A004461CB
:10058000793A005365636F6E64733A004D696E7516
:100590007465733A00486F7572733A005254432081
:1005A00073657475703A0020746F2072657475728B
:1005B0006E004553430050726573732000436F6CA7
:1005C0006F7220746573743A002E002E003A003A60
:1005D000004D6F7573652070726573656E743A2097
:1005E000004D6F757365206E6F7420707265736552
:1005F0006E742E20547279696E6720746F20696E54
:100600006974206D6F7573653A2000646F6E6500C4
:1006100042544E323A2052657365742E2E2E006479
:100620006F6E650042544E313A204D616769632E0A
:100630002E2E0020503A00204A3A002046323A003E
:100640002046313A0020523A00204C3A0020443AE9
:100650000020553A004B656D7073746F6E204A6FC1
:1006600079737469636B3A200028332062746E29B1
:10067000200028362062746E292000284F46462923
:100680002000284F4E29200053454741204A6F79CA
:10069000737469636B3A200020436F64653A2000ED
:1006A0002053746174757320626974733A20005624
:1006B000616C75653A200000000000240027002AC4
:1006C0000000000000250028002B0000000000238F
:1006D00000260029000404040404040404020202A5
:1006E0000202020303030303030102040810204073
:1006F00080010204081020010204081020000000FC
:1007000008000201000003040700000000000000D0
:10071000001912181415BB161117131A4040202087
:100720000804020277017E025803120659071408D2
:10073000110A8410761B661C0D1D5A1E291F70207D
:10074000692172227A236B24732574266C277528FD
:100750007D29712A792C7B2D7C2E0F3F4530163157
:100760001E32263325342E3536363D373E3846394F
:10077000523A413B4E3C493D4A3E0E401C413242BA
:100780002143234424452B463447334843493B4ABD
:10079000424B4B4C3A4D314E444F4D5015512D521A
:1007A0001B532C543C552A561D57225835591A5A5A
:1007B0004C5B5D5C545D5B5E555F618B0561066201
:1007C00004630C6403650B6683670A680169096A40
:1007D000786B076C086D106E186F2070287130727E
:1007E000387340744875507657775F786D605191D3
:1007F00013926A9364946795F296F197639862995D
:100800005FA012BB7C041409110B1F0C270D2F0EC7
:100810007E0F6C1169127D137A146B15741675179F
:1008200072187019711A5A2B4A2F4D79157A3B7B21
:10083000347C237D327E217F508048812B8240830F
:1008400010843A853886308728882089188A378C22
:100850003F8D5E90BB2A11241FBECFEFD8E0DEBFD4
:10086000CDBF25E0A6E4B1E001C01D92AE3DB207C8
:10087000E1F711E0A0E0B1E0E6E8F5E702C005909D
:100880000D92A634B107D9F714E0CBE2D4E004C04E
:100890002197FE010E94BB3ACA32D107C9F70E94D4
:1008A000032B0C94C13A0C94000091E09093B9048E
:1008B0008093DB041092BA041092DC0408959091A6
:1008C0008D0480918C042FEF3FEF981748F4E92FA7
:1008D000F0E0E459FB4F208130E09F5F90938D045E
:1008E000C901089590918D0480918C042FEF3FEF02
:1008F000981748F4E92FF0E0E459FB4F208130E0ED
:100900009F5F90938D04C90108958230C8F4E82F49
:10091000F0E0EE0FFF1FEA5FFE4F718360838130CE
:1009200041F0809169008C7F826080936900E89A31
:10093000089580916900837F886080936900E99AB7
:10094000089585ED8093BC001092B8041092B7040E
:100950008091BC0084FF0BC02091B7043091B80493
:1009600080910A0190910B012817390718F0109215
:10097000B60408958091B7049091B80401969093BD
:10098000B8048093B704E4CF20913E03260F3327A9
:10099000331F21323105ECF42091B604FC0190E0C4
:1009A00080E0243069F082E00895A0913E03219117
:1009B000AC01425E5C4FA40FB52FB11D2C93019684
:1009C000861798F380913E03680F60933E0380E0A2
:1009D000089581E008950895E0918D0480918C043C
:1009E000E81730F4F0E0E459FB4F808190E008957F
:1009F0008FEF9FEF089580918C0490918D04891B57
:100A0000990B0895CF92DF92EF92FF920F931F936D
:100A1000CF93DF937C01CB018A012091B90422237B
:100A200089F0EB016B01C40ED51ECC15DD0569F014
:100A30006991D701ED91FC910190F081E02DC70102
:100A40000995F3CF642F0E94C404C801DF91CF91B0
:100A50001F910F91FF90EF90DF90CF900895CF936B
:100A6000DF931F92CDB7DEB769832091B9042223AB
:100A7000F9F02091DC04203258F021E030E0FC0154
:100A80003383228390E080E00F90DF91CF9108952F
:100A90008091BA04E82FF0E0E554FB4F99819083F0
:100AA0008F5F8093BA048093DC0481E090E0ECCF08
:100AB00061E0CE0101960E94C404F7CF682F86E161
:100AC00095E00C942F05833081F028F4813099F063
:100AD0008230A9F008958730A9F08830C9F08430B9
:100AE000B1F4809180008F7D03C0809180008F776A
:100AF00080938000089584B58F7784BD089584B570
:100B00008F7DFBCF8091B0008F778093B0000895E8
:100B10008091B0008F7DF9CFCF93DF93282F30E005
:100B2000F901E350F94F8491F901E751F94FD4915C
:100B3000F901EB52F94FC491CC23A1F081110E942D
:100B40006305EC2FF0E0EE0FFF1FE553F94FA59181
:100B5000B491EC91ED2381E090E009F480E0DF9125
:100B6000CF91089580E090E0FACF1F93CF93DF9369
:100B7000282F30E0F901E350F94F8491F901E75152
:100B8000F94FD491F901EB52F94FC491CC23A9F05C
:100B9000162F81110E946305EC2FF0E0EE0FFF1F6E
:100BA000EF53F94FA591B4918FB7F894EC911111CF
:100BB00008C0D095DE23DC938FBFDF91CF911F91CA
:100BC0000895DE2BF8CF90916B0461E0911101C084
:100BD000682F8FE00C94B505CF93DF93CCEBD0E07A
:100BE00018821092B60481E08093B30410928E04B0
:100BF00061E082E10E94B50561E083E10E94B505F4
:100C0000E9EBF0E080818E7F808380818D7F80831F
:100C100088E48093B80085E48883DF91CF910895BC
:100C20002091DC0481E0213270F58091DB04109288
:100C3000B8041092B7049091B604992359F06091CA
:100C4000B7047091B80440910A0150910B016417E8
:100C5000750700F16091B7047091B80440910A01E2
:100C600050910B016417750700F10E94A1040E94C6
:100C7000EC058091B4049091B50401969093B5046D
:100C80008093B40485E01092BA041092DC041092B0
:100C9000B90408954091B7045091B8044F5F5F4F75
:100CA0005093B8044093B704C6CF92E09093B60433
:100CB00091E09093B3049FEF9093B2041092B1042B
:100CC0002093B004ABEBB4E0E0E9F4E090E029134A
:100CD0006BC010928F0490918F04880F892B8093A2
:100CE0008F0480918E04813009F062C010928E04CE
:100CF0001092B8041092B70480918F048093BB00C7
:100D00008091B7049091B80401969093B8048093B1
:100D1000B7048091BC0083FF0BC02091B7043091D1
:100D2000B80480910A0190910B012817390720F32C
:100D30002091B7043091B80480910A0190910B0181
:100D40002817390708F091CF85EC8093BC001092EA
:100D5000B8041092B7048091B604823059F42091FF
:100D6000B7043091B80480910A0190910B012817C3
:100D7000390700F12091B7043091B80480910A013D
:100D800090910B012817390708F06FCF8091B204BA
:100D90008F3FD1F08091B2048032C1F08091B204D3
:100DA0008033B1F084E06FCF3D9131939F5F8FCF5F
:100DB00085EECBCF8091B7049091B80401969093C3
:100DC000B8048093B704C7CF80E05DCF82E05BCFEB
:100DD00083E059CFCF93C82F88E60E94550481E065
:100DE00090E00E945E058C2F6AE00E94AF3A682F67
:100DF000660F680F660F6C0F86E195E00E942F0565
:100E0000CF910C941006CF93C82F88E60E9455040A
:100E100083E090E00E945E056C2F86E195E00E94E1
:100E20002F05CF910C941006CF93DF93EC0188E649
:100E30000E94550486E090E00E945E05CE0164E6C3
:100E400070E00E94653A282F6AE00E94AF3A682F4E
:100E5000660F680F660F620F86E195E00E942F050E
:100E6000DF91CF910C941006CF93C82F88E60E9493
:100E7000550485E090E00E945E058C2F6AE00E9498
:100E8000AF3A682F660F680F660F6C0F86E195E02A
:100E90000E942F05CF910C941006CF93C82F88E69F
:100EA0000E94550484E090E00E945E058C2F6AE069
:100EB0000E94AF3A682F660F680F660F6C0F86E1CD
:100EC00095E00E942F05CF910C941006CF93DF93ED
:100ED00090E0FC01E751F94F24918B52994FFC01AE
:100EE00084918823C9F090E0880F991FFC01E95490
:100EF000F94FA591B491FC01EF53F94FC591D491ED
:100F000061110DC09FB7F8948C91209582238C932A
:100F10008881282328839FBFDF91CF910895623075
:100F200051F49FB7F8943C91822F809583238C9342
:100F3000E8812E2BEFCF8FB7F894EC912E2B2C93CA
:100F40008FBFEACFCF93C82F60E00E94660761E0B1
:100F50008C2FCF910C94B505CF93C82F61E00E94E0
:100F6000660760E08C2FCF910C94B5058E5080649D
:100F700080937C0080917A00806480937A008091D5
:100F80007A0086FDFCCF80917800909179000895D9
:100F90003FB7F89480911A0390911B03A0911C0312
:100FA000B0911D0326B5A89B05C02F3F19F00196EF
:100FB000A11DB11D3FBFBA2FA92F982F8827BC01B3
:100FC000CD01620F711D811D911D42E0660F771FDB
:100FD000881F991F4A95D1F708958F929F92AF92DB
:100FE000BF92CF92DF92EF92FF924B015C010E9481
:100FF000C8076B017C010E94C8076C197D098E0926
:101000009F09683E734081059105A8F321E0821A8B
:101010009108A108B10888EEC80E83E0D81EE11C33
:10102000F11C81149104A104B10429F7FF90EF9001
:10103000DF90CF90BF90AF909F908F9008952FB783
:10104000F8946091160370911703809118039091A2
:1010500019032FBF08951F93CF93DF93D82F162F17
:10106000C42F0E941F08DC01CB01209115052930F7
:10107000D0F540E050E0BA01CC2321F04AE050E046
:1010800060E070E037E0239FF0011124E352FB4F52
:10109000480F591F6A1F7B1F4283538364837583E4
:1010A000C6831182D083E1E0E20F4AE050E060E0C5
:1010B00070E0CC2319F040E050E0BA0137E0E39F44
:1010C000F0011124E352FB4F840F951FA61FB71F99
:1010D00082839383A483B583C6831183D08382E004
:1010E000820F80931505DF91CF911F910895CF92C4
:1010F000DF92EF92FF92CF93DF93EC010E941F08E3
:101100006B017C010E941F086C197D098E099F09E3
:10111000643671058105910578F48091D9050E94A6
:101120008C058C179D0771F781E0DF91CF91FF90BF
:10113000EF90DF90CF90089580E0F7CFCF93DF93CB
:1011400090E080E00E9477088091DB050E948C058A
:10115000EC0181E090E00E947708CE01DF91CF9111
:101160000895CF92DF92EF92FF920F931F93CF9348
:101170008091D9059091DA050E94A2078091DB0544
:101180009091DC050E94A20783EC90E00197F1F7B3
:1011900090E080E00E9477088FE090E00197F1F7FF
:1011A00081E090E00E947708C0E010E000E0C12CF0
:1011B000D12C7601C3940E949E08B701A601002E8F
:1011C00004C0440F551F661F771F0A94D2F7892B5E
:1011D000C9F0C42B0F5F1F4F0830110561F70E9443
:1011E0009E080E949E088091D9059091DA050E9480
:1011F000AC078C2FCF911F910F91FF90EF90DF9054
:10120000CF9008954095C423E5CF2091DB05309120
:10121000DC05019759F4C9010E94A20781E090E022
:101220000E94770890E080E00C947708C9010E9442
:10123000AC07F4CFBF92CF92DF92EF92FF920F9361
:101240001F93CF93DF93C82E8091DB059091DC052F
:101250000E94A2078091D9059091DA050E94A20709
:10126000CBEAD4E0CE010197F1F78091D9059091B6
:10127000DA050E94AC072197F1F78091DB05909188
:10128000DC050E94AC0783E290E00197F1F78091C2
:10129000D9059091DA050E94A20790E080E00E94B3
:1012A0007708B82E882309F43FC0EE24E394F12C8C
:1012B000D0E0C0E00C2C000CDD0886010C2E02C032
:1012C000159507950A94E2F701701127C8010E944D
:1012D0000509E026F1262196C830D10571F7C7012E
:1012E0000E9405098091DB059091DC050E94A20710
:1012F00083EC90E00197F1F790E080E00E9477089E
:101300008091D9050E948C05892BD1F38091DB0552
:101310000E948C05892BA1F38091D9059091DA0563
:101320000E94AC070E94B1088B2DDF91CF911F91D5
:101330000F91FF90EF90DF90CF90BF900895809134
:10134000D9059091DA050E94A2078091DB05909162
:10135000DC050E94A2078FEF90E00E941A09882303
:1013600021F00E94B1080E94B10888EE90E00E942E
:101370001A0983E090E00E941A0986EE90E00E942C
:101380001A0983EF90E00E941A0988E290E00E9417
:101390001A098AEE90E00E941A0984EF90E00E94F8
:1013A0001A098BE891E00197F1F78091D9059091A6
:1013B000DA0582309105A9F00397A9F08FEF65EF68
:1013C00079E00E9485048091D9059091DA050E9408
:1013D000A2078091DB059091DC050E94A20781E0C5
:1013E000089580E0ECCF81E0EACFCF92DF92EF92D8
:1013F000FF920F931F93CF938091EF010E948C0572
:101400008C01C1E0892B09F4C0E00E941F08C09044
:10141000E101D090E201E090E301F090E4019B0152
:10142000AC012C193D094E095F0969017A013BE0C5
:10143000C316D104E104F10430F01092E0011092DF
:10144000DF011092DE016093E1017093E20180936D
:10145000E3019093E4018091E0018F5F8093E001CC
:101460008A3048F4823010F58130A1F01092E0010A
:101470001092DF010CC08A3059F18B30B9F780919E
:10148000DD018D3F78F11092DF011092E0011092A2
:10149000DE0104C01092DE011092DD01CF911F9198
:1014A0000F91FF90EF90DF90CF9008958091DD0134
:1014B000C80FC093DD018091DE0190E0959587957E
:1014C00020E0012B09F020E8822B8093DE01E6CF9B
:1014D0008091DD0181708C1719F08093DD01DECFE2
:1014E0008DEFFBCF8091DF018130A1F130F18230AF
:1014F00061F68091DE0190E09093DA018093D9014A
:101500001092DF01809179028F5F803108F080E0D6
:1015100090917A02981709F4B8CF48E0849FD001DF
:101520001124A750BE4F98E0E5EDF1E001900D9237
:101530009A95E1F780937902A8CF8091DE0190E03F
:101540009093D6018093D5018091DF018F5F8093C6
:10155000DF019BCF8091DE0190E09093D8018093D2
:10156000D701F2CF0895EF92FF920F931F93CF937D
:10157000DF938C017B01D0E0C0E0F701EC0FFD1F91
:101580006491662361F0D801ED91FC910190F081A6
:10159000E02DC8010995892B11F02196EECFCE01DF
:1015A000DF91CF911F910F91FF90EF900895AF922F
:1015B000BF92CF92DF92EF92FF920F931F93CF9340
:1015C000DF936C017B018B01040F151FEB015E01A2
:1015D000AE18BF08C017D10759F06991D601ED9137
:1015E000FC910190F081E02DC6010995892B79F7D6
:1015F000C501DF91CF911F910F91FF90EF90DF9088
:10160000CF90BF90AF900895FC01538D448D252F4E
:1016100030E0842F90E0821B930B541710F0CF968C
:10162000089501970895FC01918D828D981761F0BE
:10163000A28DAE0FBF2FB11D5D968C91928D9F5FD5
:101640009F73928F90E008958FEF9FEF0895FC01B4
:10165000918D828D981731F0828DE80FF11D858D67
:1016600090E008958FEF9FEF0895FC01918D228DFA
:10167000892F90E0805C9F4F821B91098F7399277F
:10168000089582E295E00E94350B21E0892B09F450
:1016900020E0822F089580E090E0892B29F00E94BD
:1016A000410B81110C9400000895FC01A48DA80F3A
:1016B000B92FB11DA35ABF4F2C91848D90E0019694
:1016C0008F739927848FA689B7892C93A089B189B4
:1016D0008C91837080648C93938D848D981306C055
:1016E0000288F389E02D80818F7D80830895EF92B9
:1016F000FF920F931F93CF93DF93EC0181E0888FCC
:101700009B8D8C8D98131AC0E889F989808185FF9B
:1017100015C09FB7F894EE89FF896083E889F9893D
:1017200080818370806480839FBF81E090E0DF913F
:10173000CF911F910F91FF90EF900895F62E0B8D92
:1017400010E00F5F1F4F0F731127E02E8C8D8E114D
:101750000CC00FB607FCFACFE889F989808185FFB4
:10176000F5CFCE010E94550BF1CFEB8DEC0FFD2F85
:10177000F11DE35AFF4FF0829FB7F8940B8FEA896F
:10178000FB8980818062CFCFCF93DF93EC01888D7E
:101790008823B9F0AA89BB89E889F9898C9185FDEC
:1017A00003C0808186FD0DC00FB607FCF7CF8C917A
:1017B00085FFF2CF808185FFEDCFCE010E94550BD2
:1017C000E9CFDF91CF9108951092D4011092D30107
:1017D0001092D2011092D1011092E8031092E70307
:1017E0001092D00110926603109261031092CF0103
:1017F00008959091D4019F5F903408F090E020917B
:10180000D301291751F0E92FF0E0E157FE4F808313
:101810009093D40181E090E008958CEF9FEF0895BC
:10182000CF93DF9380938E0180938D011092D0012E
:1018300010928C018091CF01806C8093CF018091B8
:10184000D20187FD0DC08091D20180FF09C0809137
:10185000D10180938B018091CF0180618093CF0172
:101860008091ED01823009F443C0833061F4E9983E
:1018700081E090E0880F991FFC01EA5FFE4F82EB48
:101880009AE091838083D091EE0161E08D2F0E94D8
:10189000B50561E08D2F0E946607C091ED0161E002
:1018A0008C2F0E94B50561E08C2F0E94660783E2B1
:1018B00090E00197F1F760E08C2F0E94B5058BEE68
:1018C00090E00197F1F760E08D2F0E94B50562E08E
:1018D0008C2F0E94660780E0C23021F08FEFC3306A
:1018E00009F481E06DED7DE0DF91CF910C948504EA
:1018F000E89890E080E0BECF9091D3018091D40130
:10190000891799F18091D20181608093D2018091F1
:10191000D20187FD2DC08091CF0187FD29C0109293
:10192000D1012FEF3FEF9F5F903408F090E0E92F57
:10193000F0E0E157FE4F2F3F320771F4208130E095
:101940009093D3018091D4018913EDCF822F0E940F
:10195000100C81E090E0089580818B3BB9F7809175
:10196000D1018F5F8093D101EBCF8EEF9FEF089570
:101970008AE79FEF08958DEE0E94F90B8BEB0E9492
:10198000F90B809161030E94F90B8BEB0E94F90B1C
:10199000892B11F00C947C0C08950F931F93CF9317
:1019A000DF9310916A0480916904181B17FD105C85
:1019B00001E01F3364F58091E803A091E7038A1BDF
:1019C00087FD805C882319F18091E803A817F9F05E
:1019D000AF5FA03408F0A0E0A093E703B0E0AA0F47
:1019E000BB1FA959BC4FCD91DC9111978D919C9152
:1019F00092FDB0C02C2FCA3A20F08C2F815F82302C
:101A000010F494FF0AC0DD27209709F0A5C0812FAC
:101A1000DF91CF911F910F9108958091660395FFFB
:101A200018C0806880936603D0E0C0E093FF1EC0BA
:101A3000FE01EE5FF74FE4912E130DC0CD5FD74F3F
:101A4000FE01C491D0E02097D1F480916603D82B99
:101A5000DBCF8F77E7CF2296C235D10549F7D0E0AB
:101A6000C0E0F3CF2296CE3DD105C9F3FE01EC5D77
:101A7000F84FE4912E13F6CFCB5DD84FE1CF809194
:101A80006603FE01C430D10508F041C0EE59FC4F99
:101A900087FF04C01082CBEBD0E01BC09081913057
:101AA000D1F30083C230D10561F1C330D10501F11A
:101AB00082E090916103292F282329F12091660368
:101AC00080958923809361032068209366030E9498
:101AD000BB0C809166039E012052310921343105EF
:101AE000B8F1CB38D105A1F1816080936603ADCF09
:101AF00084FF05C08F7E8093660384E0DACF806127
:101B0000FACF81E0D6CF892B80936103E0CF36975F
:101B1000E830F10560F4E45EF84FE49187FF05C01A
:101B2000E095E823E0936603D4CFE82BFBCFFE01DA
:101B3000B097EB30F10568F69091610391FF02C018
:101B400086FFC7CFEF5EF84FE491CE2FD0E0C1CF34
:101B50008E7FCBCFC6E0D0E0CE0199278B3B91059D
:101B600009F427CF892B09F424CF80916A048F5F71
:101B700080340CF080E0E82FEE0FFF0BE751FC4FB4
:101B8000D183C08380936A041F5F13CF0E94CD0C62
:101B9000882381F0E0916904EF5FE03408F0E0E031
:101BA000E0936904F0E0EE0FFF1FE751FC4F8081E6
:101BB0009181089590E080E00895CF92DF92EF92B6
:101BC000FF920F931F93CF938091CF0186FF72C036
:101BD0008091D0018F5F8093D0018091D0018A30B5
:101BE00048F4823098F560E0813009F448C01092E2
:101BF000D0019DC08B3009F44DC0E8F18C30B9F7AD
:101C000080918D018E3E69F080918D018E3F49F06B
:101C100080918D01809386018091CF0182608093B5
:101C2000CF018091CF018F7B8093CF018091D20132
:101C300087FF3CC08091D2018F778093D201809141
:101C4000CF0184FDD4CF0E947C0CD1CFC0918E01F6
:101C5000C1706C2F8091EE010E94B50580918C01BE
:101C6000C80FC0938C0180918E0190E09595879567
:101C700080938E015CC060918C0160956170809151
:101C8000EE01CF911F910F91FF90EF90DF90CF90D9
:101C90000C94B50562E08091EE01CF911F910F91F8
:101CA000FF90EF90DF90CF900C9466078091D20167
:101CB0008E7FC3CF8091EE010E948C05C82F0E94B9
:101CC0001F080091870110918801209189013091AE
:101CD0008A016B017C01C01AD10AE20AF30A97015A
:101CE00086010B3F11052105310520F01092D0012E
:101CF00010928E016093870170938801809389010F
:101D000090938A018091D0018F5F8093D001809160
:101D1000D0018A30A0F4823020F5813009F067CFFD
:101D200010928C018091CF0180688093CF01CF9178
:101D30001F910F91FF90EF90DF90CF9008958A3020
:101D400019F18B3009F053CF80918C018D3F48F110
:101D50008EEF0E94100C8091D20180688093D20196
:101D600046CF80918C018C0F80938C0180918E01E5
:101D700090E09595879580938E0190E0C11190E851
:101D800080918E01892B74CF80918C01817080931A
:101D90008C0180918C01C813CACF8DEF80938C0188
:101DA000C6CF80918E018E3F29F09091CF019D7F0B
:101DB0009093CF019091CF0194FF02C0803F70F0CB
:101DC0009091CF0192FD91C08E3E09F477C0E8F466
:101DD0008A3A09F47FC020F4882359F186E02CC0A8
:101DE000803E09F47BC0813EC9F78091CF0182FD1E
:101DF0001AC087E080938B018091CF01846080932B
:101E0000CF018091CF018F7D0CC08C3F09F44EC073
:101E100060F4803F19F781E080938B018091CF01BE
:101E200080628093CF0180E007C08E3FA9F18F3F91
:101E3000A9F60E94E40B8CE081FF05C090918B0114
:101E4000915090938B0190918B01191614F482FF9D
:101E50001EC09091E8039F5F903408F090E02091BD
:101E6000E7032917A1F020918E01E92FF0E030E07F
:101E7000EE0FFF1FE959FC4F318320834091CF01C2
:101E800020813181342B318320839093E80380714A
:101E900071F180918D015DCF8091CF0181FFC3CF22
:101EA0008091860180938D0180E1C6CF10928B01D5
:101EB0001092CF011092D2018EE0BECF9091CF014F
:101EC00091FF0AC0909186019E3E31F080938D0172
:101ED00084E1B2CF10928B0184E0AECF81E0809399
:101EE0008B018091CF0188609CCF82E0A5CF80914B
:101EF0008B0118160CF47BCE8091CF01837C8093EC
:101F0000CF0110928B018091CF018F778093CF0109
:101F10009ACE0F931F93CF93DF93EC01062F1C8172
:101F20001295107FE885F9856E8180E10995E88535
:101F3000F9856F8181E10995E885F985602F82E156
:101F400009956D81610FE885F98583E109959F8188
:101F50008E818F5F803260F48E83983110F01F8203
:101F60001E8281E090E0DF91CF911F910F91089543
:101F70001E8281E0890F8F83F0CFCF93DF93109281
:101F8000C7051092C805C8E1D0E260E081EC95E099
:101F90000E94890FD150C9F7C150B1F7DF91CF919D
:101FA0000895089590E080E00895809112038130B3
:101FB00009F040C0809105018630F1F41092C5050A
:101FC0008BE08093C6058AE08093C7058FE08093FD
:101FD000C805E0910201E15065EE73E0E730A0F43E
:101FE000F0E0EB50F04F0C94BB3A171002100810C1
:101FF0000B100E10111014108BE08093C505109279
:10200000C605E1CF61E074E081EC95E00C94B30A81
:102010006DEF73E0F9CF69EF73E0F6CF65EF73E032
:10202000F3CF61EF73E0F0CF6DEE73E0EDCF69EECB
:1020300073E0EACF089580911203813009F0CDC09A
:1020400080910501843019F51092C5058BE08093CD
:10205000C6058AE08093C7058CE08093C805E091AF
:10206000A102E15068E573E0EC3020F5F0E0E55CBA
:10207000FF4E0C94BB3A4D105E106C107A10881015
:102080009610A410B210C010C310D110DF108BE056
:102090008093C5051092C605DCCF67ED73E081EC37
:1020A00095E00E94B30A8FE08093C5051092C605A3
:1020B00064ED73E081EC95E00C94B30A6BEC73E093
:1020C00081EC95E00E94B30A8FE08093C5051092E1
:1020D000C60569EC73E0EECF63EC73E081EC95E04C
:1020E0000E94B30A8FE08093C5051092C6056EEB7F
:1020F00073E0E0CF68EB73E081EC95E00E94B30AF7
:102100008FE08093C5051092C60563EB73E0D2CFD4
:102110006FEA73E081EC95E00E94B30A8FE0809350
:10212000C5051092C60568EA73E0C4CF63EA73E0A0
:1021300081EC95E00E94B30A8FE08093C505109270
:10214000C6056DE973E0B6CF68E973E081EC95E010
:102150000E94B30A8FE08093C5051092C60562E91C
:1021600073E0A8CF6BE873E081EC95E00E94B30ABE
:102170008FE08093C5051092C60567E873E09ACF9B
:102180006DE773E097CF65E773E081EC95E00E941F
:10219000B30A8FE08093C5051092C60562E773E02D
:1021A00089CF69E673E081EC95E00E94B30A8FE085
:1021B0008093C5051092C60567E673E07BCF6EE598
:1021C00073E081EC95E00E94B30A8FE08093C5052F
:1021D0001092C6056CE573E06DCF089580911203EF
:1021E00081112BC0809110038B3009F51092C50529
:1021F0008093C6058AE08093C70580E18093C80577
:10220000809185016CE473E0882369F069E473E0F0
:1022100081EC95E00E94B30A8FE08093C50510928F
:10222000C60567E473E081EC95E00C94B30A8BE09B
:102230008093C5051092C605DDCF089580911203E5
:10224000811121C0809110038A30B9F41092C50524
:102250008BE08093C6058AE08093C7058FE080936A
:10226000C8058091000165E373E0811102C06EE34F
:1022700073E081EC95E00C94B30A8BE08093C50584
:102280001092C605E8CF08958091120381112CC0E9
:1022900080911003893011F51092C5058BE0809371
:1022A000C6058AE08093C7058EE08093C8058091BB
:1022B0006B046FE273E0882369F06AE273E081ECFB
:1022C00095E00E94B30A8FE08093C5051092C60581
:1022D00068E273E081EC95E00C94B30A8BE08093A4
:1022E000C5051092C605DDCF0895809112038111B6
:1022F0002CC080911003883011F51092C5058BE039
:102300008093C6058AE08093C7058DE08093C80559
:102310008091E60164E273E0882369F061E273E092
:1023200081EC95E00E94B30A8FE08093C50510927E
:10233000C6056FE173E081EC95E00C94B30A8BE085
:102340008093C5051092C605DDCF089580911203D4
:1023500081112CC080911003873011F51092C505B2
:102360008BE08093C6058AE08093C7058CE080935C
:10237000C8058091EC016BE173E0882369F068E1A6
:1023800073E081EC95E00E94B30A8FE08093C5056D
:102390001092C60566E173E081EC95E00C94B30AF7
:1023A0008BE08093C5051092C605DDCF089580911E
:1023B0001203811121C0809110038630B9F410926C
:1023C000C5058BE08093C6058AE08093C7058BE046
:1023D0008093C8058091EA016AE073E0811102C030
:1023E00060E173E081EC95E00C94B30A8BE080939C
:1023F000C5051092C605E8CF08958091120381119A
:1024000020C0809110038530B1F41092C5058BE097
:102410008093C6058AE08093C7058093C8058091A4
:10242000EB0166EF72E0811102C060E073E081ECC5
:1024300095E00C94B30A8BE08093C5051092C60515
:10244000E9CF08958091120381112CC0809110036F
:10245000843011F51092C5058BE08093C6058AE0A3
:102460008093C70589E08093C8058091E70163EEFA
:1024700072E081110DC06EEE72E081EC95E00E9479
:10248000B30A8FE08093C5051092C6056CEE72E02A
:1024900081EC95E00C94B30A8BE08093C505109213
:1024A000C605DDCF089580911203811141C080914E
:1024B0001003833031F51092C5058BE08093C6057B
:1024C0008AE08093C70588E08093C8058091F60173
:1024D0009091F501911129C08823C9F0813029F527
:1024E0006FED72E081EC95E00E94B30A8FE080937B
:1024F000C5051092C6056DED72E081EC95E00C9477
:10250000B30A8BE08093C5051092C605D9CF69ED5B
:1025100072E081EC95E00E94B30A8FE08093C505DC
:102520001092C60567ED72E0E8CF62ED72E0E5CF8C
:1025300008958091120381112CC080911003823084
:1025400011F51092C5058BE08093C6058AE0809353
:10255000C70587E08093C8058091E8016EEC72E0C2
:10256000882369F06BEC72E081EC95E00E94B30A7D
:102570008FE08093C5051092C60569EC72E081EC8E
:1025800095E00C94B30A8BE08093C5051092C605C4
:10259000DDCF08958091120381112CC0809110032A
:1025A000813011F51092C5058BE08093C6058AE055
:1025B0008093C70586E08093C8058091E90165ECAA
:1025C00072E0882369F062EC72E081EC95E00E9491
:1025D000B30A8FE08093C5051092C60560EC72E0E7
:1025E00081EC95E00C94B30A8BE08093C5051092C2
:1025F000C605DDCF089580911203811138C0809106
:10260000F4019091F3019111826090911003911166
:1026100028C01092C5059BE09093C6059AE0909360
:10262000C70595E09093C80567EA72E08230A9F08B
:102630006FE972E0833089F068EB72E0813069F411
:1026400061EB72E081EC95E00E94B30A8FE0809329
:10265000C5051092C6056FEA72E081EC95E00C9416
:10266000B30A9BE09093C5051092C605D7CF089595
:10267000CF931092C7051092C8058FE08093C505CF
:102680001092C60564E571E081EC95E00E94B30A02
:102690001092C70581E08093C805C0E262E571E051
:1026A00081EC95E00E94B30AC150C1F71092C705B2
:1026B00082E08093C80580918401823030F084509C
:1026C000823048F462E471E002C06AE471E081ECB7
:1026D00095E00E94B30A80918401813029F038F09E
:1026E000843029F0853049F460E371E002C069E389
:1026F00071E081EC95E00E94B30A1092C70583E077
:102700008093C80568E271E081EC95E00E94B30A0D
:1027100060917C0181EC95E00E94890F60917D01C0
:1027200081EC95E00E94890F60917E0181EC95E03B
:102730000E94890F60917F0181EC95E00E94890FD2
:102740006091800181EC95E00E94890F6091810188
:1027500081EC95E00E94890F6091820181EC95E007
:102760000E94890F6091830181EC95E0CF910C94D8
:10277000890FE5ECF2E011929F01255C32402817A9
:102780003907CCF308958091850191E089278093E2
:1027900085018093F2020C94EE10CF92DF92EF92BB
:1027A000FF920F931F93CF93DF93CDB7DEB7A89718
:1027B0000FB6F894DEBF0FBECDBF2091F701309168
:1027C000F801611133C012161306A4F4E6E4F1E037
:1027D00050E040E0A191B1918A179B0709F461E0B4
:1027E0004F5F5F4F42175307A9F7611110C02431A3
:1027F000310569F0F901EE0FFF1FEA5BFE4F91838F
:1028000080832F5F3F4F3093F8012093F701A89604
:102810000FB6F894DEBF0FBECDBFDF91CF911F91F1
:102820000F91FF90EF90DF90CF900895FE013196C9
:1028300048E2DF011D924A95E9F71216130684F566
:1028400006E411E0780150E040E070E060E0D7017C
:10285000CD90DD907D018C159D0549F0DA01AA0F20
:10286000BB1FAE0FBF1FCD92DC924F5F5F4F6F5FFC
:102870007F4F6217730759F74115510589F090E0B2
:1028800080E021913191D8012D933D938D010196E6
:1028900084179507B1F75093F8014093F701B7CF2C
:1028A00050E040E0F8CF1092B8041092B704809145
:1028B000B604882359F02091B7043091B804809170
:1028C0000A0190910B0128173907F0F02091B70405
:1028D0003091B80480910A0190910B0128173907B3
:1028E000E8F00E94A1040E94EC058091B40490914C
:1028F000B50401969093B5048093B40480E01092DF
:102900008D0480938C0408958091B7049091B8044D
:1029100001969093B8048093B704C9CF81E0809367
:10292000B6048093B3049FEF9093B2041092B10465
:102930001092B00480938F0480918F04806D8093F7
:102940008F0480918E04813009F062C010928E0451
:102950001092B8041092B70480918F048093BB004A
:102960008091B7049091B80401969093B804809335
:10297000B7048091BC0083FF0BC02091B704309155
:10298000B80480910A0190910B012817390720F3B0
:102990002091B7043091B80480910A0190910B0105
:1029A0002817390708F09DCF85EC8093BC00109262
:1029B000B8041092B7048091B604813059F4209184
:1029C000B7043091B80480910A0190910B01281747
:1029D000390700F12091B7043091B80480910A01C1
:1029E00090910B012817390708F07BCF8091B10433
:1029F00081111AC08091B104A0E9B4E0ECE6F4E0E2
:102A000090E0981709F47BCF2D9121939F5FF9CF28
:102A100085EECBCF8091B7049091B8040196909346
:102A2000B8048093B704C7CF81E0E6CFCF9388E6A0
:102A30000E94550490E080E00E945E050E9410060E
:102A40000E9453140E947204C82F88E60E94550405
:102A500090E080E00E945E056C2F6F7786E195E044
:102A60000E942F05CF910C94100688E60E94550411
:102A700090E080E00E945E050E9410060E945314C0
:102A80000E9472048095881F8827881F0895CF931D
:102A9000C82F88E60E94550490E080E00E945E0501
:102AA0000E9410060E9453140E9472048078C82B62
:102AB00088E60E94550490E080E00E945E058C2F1D
:102AC0006AE00E94AF3A682F660F680F660F6C0FBE
:102AD00086E195E00E942F05CF910C94100688E6C0
:102AE0000E94550482E090E00E945E050E9410065C
:102AF0000E9453140E94720426E0969587952A95A9
:102B0000E1F781700895CF93DF93C82F0E946F156E
:102B1000D82F88E60E94550482E090E00E945E056E
:102B20008C2FD11110C06AE00E94AF3A682F660F57
:102B3000680F660F6C0F86E195E00E942F05DF910C
:102B4000CF910C941006CD3078F06CE00E94AF3A33
:102B5000292F892F6AE00E94AF3A682F660F680F0D
:102B6000660F620F6066E7CF6AE00E94AF3A682F97
:102B7000660F680F660F6C0F6064DDCFCF9388E639
:102B80000E94550482E090E00E945E050E941006BB
:102B90000E9453140E947204C82F88E60E945504B4
:102BA00082E090E00E945E056C2F6F7B86E195E0ED
:102BB0000E942F05CF910C9410060E94BE158091A3
:102BC00003010E944D078091A1020E943407809169
:102BD000A2029091A3020E941407809102010E9418
:102BE00003078091A0020E94831580919F020E949A
:102BF000EA0680919E020E9447150E9435158111B8
:102C000002C00C941615089588E60E94550490E0C1
:102C100080E00E945E050E9410060E9453140E94EC
:102C200072048F77282F30E094E0359527959A9598
:102C3000E1F7922F990F990F291B220F820F089508
:102C400088E60E94550481E090E00E945E050E94A3
:102C500010060E9453140E9472049C0194E0359562
:102C600027959A95E1F72F703327922F990F990F97
:102C7000291B220F820F0895CF930E946F15C82F32
:102C800088E60E94550482E090E00E945E050E9462
:102C900010060E9453140E947204C11110C0AC01AE
:102CA00094E0559547959A95E1F74F705527942FE5
:102CB000990F990F491B440F840FCF910895482F06
:102CC0004F79242F30E084E0359527958A95E1F7F8
:102CD000822F880F880F922F981B892F880FECCF97
:102CE00088E60E94550483E090E00E945E050E9401
:102CF00010060E9453140E947204089588E60E94F0
:102D0000550484E090E00E945E050E9410060E9437
:102D100053140E9472049C0194E0359527959A956E
:102D2000E1F72F703327922F990F990F291B220F4C
:102D3000820F089588E60E94550485E090E00E9485
:102D40005E050E9410060E9453140E9472049C01AA
:102D500094E0359527959A95E1F72F703327922FB8
:102D6000990F990F291B220F820F089588E60E9460
:102D7000550486E090E00E945E050E9410060E94C5
:102D800053140E9472049C0194E0359527959A95FE
:102D9000E1F72F703327922F990F990F291B220FDC
:102DA000820F90E08053984F0895FB01019000201E
:102DB000E9F73197AF01461B570BDC01ED91FC9110
:102DC0000280F381E02D0994CF93DF93BC0182E26E
:102DD00095E00E94B30AEC016CE371E082E295E0B9
:102DE0000E94D5168C0F9D1FDF91CF9108958F9271
:102DF0009F92AF92BF92EF92FF920F931F93CF9348
:102E0000DF93CDB7DEB7A1970FB6F894DEBF0FBE44
:102E1000CDBF7C01FA01CB0119A2223008F42AE0CF
:102E20008E010F5D1F4F822E912CB12CA12CBF0162
:102E3000A50194010E948D3AF901CA016A300CF58E
:102E4000605DD8016E938D01232B242B252B79F700
:102E500090E080E0109721F0BD01C7010E94D516D7
:102E6000A1960FB6F894DEBF0FBECDBFDF91CF9114
:102E70001F910F91FF90EF90BF90AF909F908F9018
:102E80000895695CDECF262F482F50E070E060E0A7
:102E900081EC95E00C94F71689E08093C5051092BB
:102EA000C6058AE08093C70583E18093C8058091B9
:102EB0009502803130F463E174E081EC95E00E948A
:102EC000B30A60E170E0809195020E94431761E1CE
:102ED00074E081EC95E00E94B30A80919402803105
:102EE00030F46FE074E081EC95E00E94B30A60E199
:102EF00070E0809194020E9443176DE074E081ECD1
:102F000095E00E94B30A80919302803130F46BE027
:102F100074E081EC95E00E94B30A60E170E080917A
:102F200093020C94431780911203813029F580910C
:102F300005018330D9F41092C5058BE08093C60556
:102F40008AE08093C7058BE08093C80580910301D8
:102F50008A3030F466E573E081EC95E00E94B30AB4
:102F60006AE070E0809103010C9443178BE080933A
:102F7000C5051092C605E4CF0895809112038130F3
:102F800029F5809105018230D9F41092C5058BE0B6
:102F90008093C6058AE08093C70589E08093C805C1
:102FA00080919E028A3030F464E573E081EC95E014
:102FB0000E94B30A6AE070E080919E020C9443176D
:102FC0008BE08093C5051092C605E4CF08958091EB
:102FD0001203813029F5809105018130D9F41092D6
:102FE000C5058BE08093C6058AE08093C70588E01D
:102FF0008093C80580919F028A3030F462E573E0C7
:1030000081EC95E00E94B30A6AE070E080919F0233
:103010000C9443178BE08093C5051092C605E4CF4E
:10302000089580911203813029F580910501811165
:103030001BC01092C5058BE08093C6058AE0809383
:10304000C70587E08093C8058091A0028A3030F4DC
:1030500060E573E081EC95E00E94B30A6AE070E0FD
:103060008091A0020C9443178BE08093C5051092C9
:10307000C605E4CF0895CF92DF92EF92FF920F93AF
:103080001F93CF93DF936B01770FEE08FF08F7FED6
:103090001FC0EC01E881F9810190F081E02D6DE223
:1030A00009958C0144275527BA014C195D096E0911
:1030B0007F092AE0CE010E94F716800F911FDF9151
:1030C000CF911F910F91FF90EF90DF90CF900895D7
:1030D0002AE0B701A601DF91CF911F910F91FF90D8
:1030E000EF90DF90CF900C94F716CF93DF93BC0155
:1030F00082E295E00E943B18EC016CE371E082E211
:1031000095E00E94D5168C0F9D1FDF91CF910895F9
:10311000CF93DF93E1ECF5E089E0848315828AE0C8
:10312000868384E18783CCEBD2E06F8170E0CF01AE
:103130000E943B186E8170E081EC95E00E943B1884
:10314000698170E081EC95E00E943B18688170E035
:1031500081EC95E00E943B186A8170E081EC95E07B
:103160000E943B186B8170E081EC95E00E943B1857
:103170006C8170E081EC95E00E943B186D8170E0FD
:1031800081EC95E0DF91CF910C943B188091120374
:10319000813009F043C0809105018530C9F5109256
:1031A000C5058BE08093C6058AE08093C7058DE056
:1031B0008093C8058091A2029091A302883E93401B
:1031C00034F463EE73E081EC95E00E94B30A8091E1
:1031D000A2029091A3028436910534F461EE73E06B
:1031E00081EC95E00E94B30A8091A2029091A30223
:1031F0000A9734F46FED73E081EC95E00E94B30A16
:103200006091A2027091A30281EC95E00C943B18AE
:103210008BE08093C5051092C605C6CF08950F9325
:103220001F93CF93DF93EC0189E08093C505109243
:10323000C6058AE08093C70582E18093C8050D2FFB
:1032400011270031110530F469E074E081EC95E05C
:103250000E94B30AA80170E060E020E181EC95E0F3
:103260000E94F71667E074E081EC95E00E94B30AD3
:10327000DD27C031D10530F465E074E081EC95E0E4
:103280000E94B30AAE0170E060E020E181EC95E0BD
:10329000DF91CF911F910F910C94F716FF920F932E
:1032A0001F93CF93DF930FE00093C5051092C605DF
:1032B0000E94BD0F0E943813C5E0C093C50510924F
:1032C000C6051092C705C093C80565E972E081EC98
:1032D00095E00E94B30A0E94FB12D7E0D093C50587
:1032E0001092C60514E11093C705C093C8056AE89B
:1032F00072E081EC95E00E94B30AC093C50510927C
:10330000C6051092C70586E0F82EF092C80560E861
:1033100072E081EC95E00E94B30A0E94CA12D09339
:10332000C5051092C6051093C705F092C80568E759
:1033300072E081EC95E00E94B30AC093C50510923B
:10334000C6051092C705D093C80561E772E081EC0D
:1033500095E00E94B30A0E949912D093C50510927D
:10336000C6051093C705D093C80569E672E081ECE5
:1033700095E00E94B30AC093C5051092C60510924D
:10338000C70598E0F92EF092C80560E672E081EC7E
:1033900095E00E94B30A0E945312D093C505109283
:1033A000C6051093C705F092C80568E572E081EC88
:1033B00095E00E94B30AC093C5051092C60510920D
:1033C000C70529E0F22EF092C8056EE472E081ECA8
:1033D00095E00E94B30A0E942212D093C505109274
:1033E000C6051093C705F092C80566E472E081EC4B
:1033F00095E00E94B30AC093C5051092C6051092CD
:10340000C7053AE0F32EF092C8056FE372E081EC55
:1034100095E00E94B30A0E94FD11D093C505109259
:10342000C6051093C705F092C80567E372E081EC0A
:1034300095E00E94B30AC093C5051092C60510928C
:10344000C7054BE0F42EF092C80560E372E081EC12
:1034500095E00E94B30A0E94D711D093C50510923F
:10346000C6051093C705F092C80567E272E081ECCB
:1034700095E00E94B30AC093C5051092C60510924C
:10348000C7055CE0F52EF092C8056DE172E081ECB5
:1034900095E00E94B30A0E94A611D093C505109230
:1034A000C6051093C705F092C80564E172E081EC8F
:1034B00095E00E94B30AC093C5051092C60510920C
:1034C000C7056DE0F62EF092C8056AE072E081EC67
:1034D00095E00E94B30A0E947511D093C505109221
:1034E000C6051093C705F092C80561E072E081EC53
:1034F00095E00E94B30AC093C5051092C6051092CC
:10350000C7057EE0F72EF092C80567EF71E081EC09
:1035100095E00E94B30A0E944411D093C505109211
:10352000C6051093C705F092C80560EF71E081EC05
:1035300095E00E94B30AC093C5051092C60510928B
:10354000C7050093C80566EE71E081EC95E00E9426
:10355000B30A0E941E11D093C5051092C6051093A0
:10356000C7050093C8056FED71E081EC95E00E94FE
:10357000B30AC093C5051092C6051092C70500E1B5
:103580000093C80568ED71E081EC95E00E94B30AF4
:103590000E94EE10D093C5051092C6051093C70582
:1035A0000093C80562ED71E081EC95E00E94B30ADA
:1035B000C093C5051092C6051092C70582E180939D
:1035C000C80568EC71E081EC95E00E94B30A809137
:1035D0001203811104C090E080E00E940F1985E081
:1035E0008093C5051092C6051092C70583E18093AC
:1035F000C80561EC71E081EC95E00E94B30A80910E
:103600001203811102C00E944C1785E08093C5050A
:103610001092C6051092C70584E18093C80567EB38
:1036200071E081EC95E00E94B30A80911203811150
:1036300002C00E948818CFE0C093C5051092C6054D
:1036400014E11093C70583E18093C80560EB71E036
:1036500081EC95E00E94B30AD7E0D093C50581E0E4
:103660008093C6056EEA71E081EC95E00E94B30A92
:10367000C093C5051092C60569EA71E081EC95E03A
:103680000E94B30A1093C7051093C8056EE971E054
:1036900081EC95E00E94B30AC093C5051092C6055F
:1036A0001092C70586E18093C80567E971E081EC57
:1036B00095E00E94B30AD093C5051092C6056AE84A
:1036C00071E081EC95E00E94B30AC093C5051092A9
:1036D000C6056FE771E081EC95E00E94B30AC093E4
:1036E000C5051092C6051092C70587E18093C805ED
:1036F00068E771E081EC95E00E94B30AD093C505BC
:103700001092C6056FE671E081EC95E00E94B30A65
:10371000C093C5051092C60560E671E081EC95E0A6
:10372000DF91CF911F910F91FF900C94B30A0C94ED
:103730004F3A0F931F93CF93DF938C01C62F0E94B4
:10374000971B8A3011F0843151F4C1E08A3009F0BE
:10375000C0E08C2FDF91CF911F910F910895D4E19C
:10376000C111DAE0C8010E944F3AD81791F36D2FCA
:10377000C8010E94573AEDCF0F931F93CF938C014E
:10378000C4E16111CAE0C8010E944F3AC81739F07C
:103790006C2FC801CF911F910F910C94573ACF9184
:1037A0001F910F9108956091000181E06827609357
:1037B000000181E090E00E94BC1B80910001809399
:1037C0000103089560916B0481E0682760936B04A6
:1037D0008DE090E00E94BC1B80916B0480930703F6
:1037E00008956091E60181E068276093E6018BE02F
:1037F00090E00E94BC1B8091E6018093060308952F
:103800006091EC0181E068276093EC0190E080E03A
:103810000E94BC1B8091EC018093EF02089560919F
:10382000EA0181E068276093EA0183E090E00E946A
:10383000BC1B8091EA018093F40208956091EB0132
:1038400081E068276093EB0182E090E00E94BC1B5E
:103850008091EB018093F30208956091E70181E08C
:1038600068276093E70189E090E00E94BC1B80918B
:10387000E701809304030895682F61706093F60157
:10388000869581708093F50188E090E00E94BC1BD2
:103890006091F5018AE090E00E94BC1B8091F601E6
:1038A000809303038091F50180930503089560914F
:1038B000E80181E068276093E80187E090E00E94DA
:1038C000BC1B8091E8018093020308956091E90197
:1038D00081E068276093E90186E090E00E94BC1BCC
:1038E0008091E9018093000308958130F9F0C8F0D8
:1038F0008230F9F0833019F16091F40184E090E0B6
:103900000E94BC1B6091F30185E090E00E94BC1B0B
:103910008091F4018093FE028091F3018093FF0275
:1039200008951092F4011092F301E6CF8093F40110
:10393000FACF1092F40181E08093F301DDCF81E0B2
:103940008093F401F9CFCF93DF93D82FC62F9091B6
:10395000BF058091C0059CBD8DBD60E087E00E94E1
:10396000B505DEBD00000DB407FEFDCFDEB5CEBD52
:1039700000000DB407FEFDCFCEB561E087E00E94E8
:10398000B505DD2309F4E1C0DD3F09F048C08091B1
:10399000F20181112FC063E171E082E295E00E94A3
:1039A000B30A81E08093F2010E943C200E94221F12
:1039B0000E9496208EE091E00E94E416C09384015C
:1039C00065EF70E082E295E00E94B30A8AEB90E036
:1039D000C13071F088ED90E0C13050F082EA90E0A3
:1039E000C43031F089E890E0C53011F081E890E012
:1039F0000E94E41680E18D0F883008F064C0EFE08B
:103A0000ED0FE73000F5F0E0E85FF24E0C94BB3AC2
:103A10004E1D511D541D571D5A1D5D1D601DDC3F5F
:103A200049F78091F0018111E5CF6DE670E082E207
:103A300095E00E94B30A81E08093F0010E94221F6A
:103A400088E690E0D5CFC0937C01D058D03408F000
:103A50007CC080917801D81305C080917701C81788
:103A600009F473C0D0937801C09377018D2F90E053
:103A7000DE3008F044C1805C924EFC010C94BB3AED
:103A80007A1D921DA81DC01DD41DEE1D021E1A1EFA
:103A9000321E4A1E671E6F1EA51DA51DC0937D0107
:103AA000D4CFC0937E01D1CFC0937F01CECFC0933E
:103AB0008001CBCFC0938101C8CFC0938201C5CF15
:103AC000C0938301C2CFDE3009F0BFCF8C2F81704D
:103AD00080938802C1FB882780F980938202C2FB11
:103AE000882780F980931403C3FB882780F980938B
:103AF0008302ABCF8091F101882369F08C2F90E095
:103B0000B4E095958795BA95E1F7982F990F990F9D
:103B1000891B880FC80FC0939E028C2FDF91CF9115
:103B20000C9447158091F101882369F08C2F90E067
:103B3000A4E095958795AA95E1F7982F990F990F8D
:103B4000891B880FC80FC0937B01DF91CF91089527
:103B50008091F101882369F08C2F90E0F4E0959535
:103B60008795FA95E1F7982F990F990F891B880F80
:103B7000C80FC0939F028C2FDF91CF910C94EA065F
:103B80008091F101882369F08C2F90E0E4E0959515
:103B90008795EA95E1F7982F990F990F891B880F60
:103BA000C80FC0937A01D1CF8091F101882369F0C9
:103BB0008C2F90E074E0959587957A95E1F7982F92
:103BC000990F990F891B880FC80FC093A0020E94FC
:103BD000BE158C2FDF91CF910C9483158091F1014C
:103BE000882369F08C2F90E064E0959587956A951D
:103BF000E1F7982F990F990F891B880FC80FC09371
:103C00007901A3CF8091F101882369F08C2F90E096
:103C100054E0959587955A95E1F7982F990F990F4C
:103C2000891B880FC80FC09302018C2FDF91CF91A1
:103C30000C9403078091F101882369F08C2F90E0A8
:103C400044E0959587954A95E1F7982F990F990F3C
:103C5000891B880FC80FC09303018C2FDF91CF9170
:103C60000C944D078091F101882369F08C2F90E02E
:103C700034E0959587953A95E1F7982F990F990F2C
:103C8000891B880FC80FC093A1028C2FDF91CF91A1
:103C90000C9434078091F101882369F08C2F90E017
:103CA00024E0959587952A95E1F7982F990F990F1C
:103CB000891B880FC80F8C2F90E08053984F9093EA
:103CC000A3028093A202DF91CF910C9414076C2F72
:103CD0006F778AE190E0DF91CF910C94573AC2FB65
:103CE000882780F991E089278093F101C1FB88271B
:103CF00080F9809301016C2F8BE190E0ECCF6C2F69
:103D00004096E9CF20919E028091F101882349F0ED
:103D1000822F6AE00E94AF3A982F990F890F880F7F
:103D2000280F622F80E40E94A31C8091F101209152
:103D30009F02622F882349F0822F6AE00E94AF3AE7
:103D4000682F660F680F660F620F82E40E94A31C43
:103D5000909101018091F1012091A002992309F431
:103D600062C0882349F0822F6AE00E94AF3A982F00
:103D7000990F890F880F280F622F84E40E94A31CDB
:103D80008091F10120910201622F882349F0822F56
:103D90006AE00E94AF3A682F660F680F660F620FE5
:103DA00086E40E94A31C8091F10120910301622FFF
:103DB000882349F0822F6AE00E94AF3A682F660F8D
:103DC000680F660F620F87E40E94A31C8091F101C7
:103DD0002091A102622F882349F0822F6AE00E947D
:103DE000AF3A682F660F680F660F620F88E40E9473
:103DF000A31C2091F1018091A2029091A30264E69C
:103E000070E00E94793A682F222351F0282F862FE4
:103E10006AE00E94AF3A682F660F680F660F620F64
:103E200089E40C94A31C882329F02D3008F49BCF3F
:103E30002CE899CF2D3008F49FCF2CE89DCF805CE3
:103E40000C94A31C0F931F93CF93DF93D0E0C0E09B
:103E500004E610E0CE3008F008C1EC2FF0E0ED5C95
:103E6000F04E0C94BB3A411F5D1F6F1F811F931FC3
:103E7000B31FD31FE51FF71F0920202028202F2064
:103E8000322020919E028091F101882349F0822FF7
:103E90006AE00E94AF3A982F990F890F880F280F78
:103EA000622F80E00E941F1F2196C034D10591F639
:103EB000DF91CF911F910F91089520917B01809107
:103EC000F101882349F0822F6AE00E94AF3A982FCF
:103ED000990F890F880F280F622F81E0E3CF20917F
:103EE0009F028091F101882349F0822F6AE00E94AD
:103EF000AF3A982F990F890F880F280F622F82E011
:103F0000D1CF20917A018091F101882349F0822F4D
:103F10006AE00E94AF3A982F990F890F880F280FF7
:103F2000622F83E0BFCF8091F1012091A002909198
:103F30000101992371F0882349F0822F6AE00E94E1
:103F4000AF3A982F990F890F880F280F622F84E0BE
:103F5000A9CF882321F02D3080F32CE8EECF2D302F
:103F6000A8F32CE8F3CF8091F10120917901909191
:103F70000101992371F0882349F0822F6AE00E94A1
:103F8000AF3A982F990F890F880F280F622F85E07D
:103F900089CF882321F02D3080F32CE8EECF2D300F
:103FA000A8F32CE8F3CF209102018091F10188233E
:103FB00049F0822F6AE00E94AF3A982F990F890F3B
:103FC000880F280F622F86E06DCF2091030180912A
:103FD000F101882349F0822F6AE00E94AF3A982FBE
:103FE000990F890F880F280F622F87E05BCF2091F0
:103FF000A1028091F101882349F0822F6AE00E949A
:10400000AF3A982F990F890F880F280F622F88E0F9
:1040100049CF8091A2029091A302B8010E94793AFF
:10402000282F9091F101992341F06AE00E94AF3A64
:10403000982F880F890F880F820F682F89E032CF61
:104040008AE190E00E94971B682F6F778AE02ACF61
:104050008BE190E00E94971B682F8BE023CF60E0FC
:104060008CE020CF60E88DE01DCFCE0140960E940D
:10407000971B682F8C2F16CF8F929F92AF92BF9273
:10408000CF92DF92EF92FF920F931F93CF9305ECA5
:1040900012E0C0E0C12CD12C7601C394F80190E06D
:1040A00080E060E0219146015701082E04C0880C91
:1040B000991CAA1CBB1C0A94D2F72223C9F06829B8
:1040C00001968830910571F7CF5F8C2F0E94A31C59
:1040D000085F1F4FC93011F7CF911F910F91FF90CB
:1040E000EF90DF90CF90BF90AF909F908F9008950A
:1040F00080946821E5CFCF93DF9389E290E00E941E
:10410000B913C5ECD2E081E08BA70E943C2064E6A5
:1041100070E080E090E00E94ED0789E290E00E946C
:10412000B9131BA6DF91CF910C943C20CF93DF9362
:1041300089E290E00E94B913C5ECD2E081E089A742
:104140000E943C2064E670E080E090E00E94ED0771
:1041500089E290E00E94B91319A6DF91CF910C94E7
:104160003C20FF920F931F93CF93DF93C82F89E2D8
:1041700090E00E94B9130E943C2064E170E080E06E
:1041800090E00E94ED0705EC12E0FF24F394F801A3
:10419000F0820E943C2064E170E080E090E00E94A8
:1041A000ED07F801F7860E943C2064E170E080E0B2
:1041B00090E00E94ED07F80117860E943C2064E120
:1041C00070E080E090E00E94ED07D0E0CB53DD4F3F
:1041D000F8820E943C2064E170E080E090E00E9460
:1041E000ED07F801108218820E943C2064E170E023
:1041F00080E090E0DF91CF911F910F91FF900C94A0
:10420000ED070F931F93CF938A019B01692F661FC0
:104210006627661F60937601109275016093F10224
:10422000582F551F5527551F5093FC02FC01FF279F
:10423000E6FB552750F95093FB02E5FB552750F953
:104240005093FA02E4FB552750F95093F902E3FB2F
:10425000552750F95093F802E2FB552750F9509337
:10426000F702E1FB552750F95093F6025E2F51708B
:104270005093F502911101C7863009F0FEC6CF9127
:104280001F910F910C94C3130E94C3138091750169
:10429000882341F08091F7019091F801892B11F466
:1042A0001092C5028091F7019091F8011816190635
:1042B0001CF481E08093C50280918A028823C1F0BA
:1042C000809189028823A1F080917301882381F075
:1042D00010928A0210928902109273011092740156
:1042E000109275011092F8011092F7010E94962029
:1042F00080918A028823A9F180918902882389F11B
:1043000080916E01882369F110928A0210928902CD
:1043100010926E0110927401109275011092F801C2
:104320001092F70189E290E00E94B913C1E0C093B6
:10433000EE020E943C20C093CE020E943C2064EF1B
:1043400071E080E090E00E94ED071092EE020E9482
:104350003C2064EF71E080E090E00E94ED07109255
:10436000CE02CF911F910F91089520910001222339
:1043700071F02FE030E0892F8095881F8827881FF3
:104380002B533D4FF9018083809374017FCF30E040
:1043900020E0F1CF20910001222371F030E020E0F5
:1043A000892F8095881F8827881F2B533D4FF9013F
:1043B000808380938A026ACF2FE030E0F1CFC92F4B
:1043C000C095CC1FCC27CC1FC093D40220910001F4
:1043D00086E090E0211102C090E080E08B539D4F79
:1043E000FC01C083211104C08AE090E00E94CD133B
:1043F000C09389024BCFC92FC095CC1FCC27CC1FAF
:10440000C093D4022091000187E090E0211102C006
:1044100090E080E08B539D4FFC01C083211104C0CC
:104420008BE090E00E94CD13C09389022FCF2091A2
:10443000740121112BCF892F8095982F991F9927CF
:10444000991F20910001222351F09093CA0290936A
:10445000ED02881F8827881F8093730117CF9093E0
:10446000D4029093DD02F5CF892F8095881F88278D
:10447000881F80938B020ACF892F8095881F8827F9
:10448000881F80938C0202CF209174012111FECEEF
:10449000892F8095881F8827881F90910001992374
:1044A00029F08093D2028093ED02F0CE8093D40263
:1044B0008093C602EBCE209174012111E7CE909536
:1044C000991F9927991F90930D03462F6CE10E9425
:1044D0002B08DCCE209174012111D8CE9095991F24
:1044E0009927991F90930E03462F64E20E942B0890
:1044F000CDCE209174012111C9CE9095991F992795
:10450000991F90937D02462F63E20E942B08BECE36
:10451000209174012111BACE9095991F9927991F66
:1045200090937C02462F64E10E942B08AFCE40910D
:104530008C0241110CC040918B02411108C0409186
:104540008A024423A1F140918902442381F161113F
:104550009DCE80916F0190917001A0917101B091F9
:104560007201B901A801481B590B6A0B7B0BDB01D7
:10457000CA01893C9105A105B10508F487CE809157
:10458000130391E08927809313038093080300931A
:104590006F01109370012093710130937201882391
:1045A00009F474CE109212030E944E196FCE892F17
:1045B0008095881F8827881F8093C4028093C50236
:1045C0009091000123E030E0911102C027E030E03B
:1045D0002B533D4FF90180838BE190E00E94CD1376
:1045E00055CEC92FC095CC1FCC27CC1FC093C50278
:1045F000C093C9028CE190E00E94CD13C0936E017C
:1046000045CE892F8095881F8827881F8093CB02ED
:1046100080937B023BCE892F8095881F8827881F37
:104620008093CC0233CE892F8095881F8827881FDE
:104630008093C6022BCE892F8095881F8827881FDC
:104640008093EC0223CE892F8095881F8827881FAE
:104650008093DD021BCE892F8095881F8827881FB5
:104660008093D60213CE892F8095881F8827881FB4
:104670008093D7020BCE892F8095881F8827881FAB
:104680008093DE0203CE892F8095881F8827881F9C
:104690008093E602FBCD892F8095881F8827881F8D
:1046A0008093EB02F3CD892F8095881F8827881F80
:1046B0008093DA02EBCD20918C0221110CC0209165
:1046C0008B02211108C020918A02222359F02091E7
:1046D0008902222339F06111D9CD0E94E21B0E9488
:1046E0004411D4CD892F8095881F8827881F8093F7
:1046F000E302CCCD892F8095881F8827881F80935F
:10470000DB02C4CD892F8095881F8827881F80935E
:10471000D302BCCD892F8095881F8827881F80935E
:10472000DC02B4CD892F8095881F8827881F80934D
:10473000E402ACCD892F8095881F8827881F80933D
:10474000D202A4CD892F8095881F8827881F809347
:10475000CA029CCD892F8095881F8827881F809347
:10476000C70294CD892F8095881F8827881F809342
:10477000DF028CCD892F8095881F8827881F809322
:10478000CE0284CD892F8095881F8827881F80932B
:10479000E7027CCD892F8095881F8827881F80930A
:1047A000E20274CD892F8095881F8827881F809307
:1047B000E5026CCD892F8095881F8827881F8093FC
:1047C000CF0264CD892F8095881F8827881F80930A
:1047D000D5025CCD892F8095881F8827881F8093FC
:1047E000EA0254CD892F8095881F8827881F8093DF
:1047F000CD024CCD892F8095881F8827881F8093F4
:10480000C90244CD892F8095881F8827881F8093EF
:10481000C8023CCD892F8095881F8827881F8093E8
:10482000D00234CD892F8095881F8827881F8093D8
:10483000D8022CCD892F8095881F8827881F8093C8
:10484000E00224CD892F8095881F8827881F8093B8
:10485000E8021CCD892F8095881F8827881F8093A8
:10486000E90214CD892F8095881F8827881F80939F
:10487000E1020CCD892F8095881F8827881F80939F
:10488000D90204CD892F8095881F8827881F80939F
:10489000D102FCCC892F8095881F8827881F8093A0
:1048A000C902F4CC892F8095881F8827881F8093A0
:1048B000C802ECCC892F8095881F8827881F809399
:1048C000D002E4CC892F8095881F8827881F809389
:1048D000D802DCCC892F8095881F8827881F809379
:1048E000E002D4CC892F8095881F8827881F809369
:1048F000E802CCCC892F8095881F8827881F809359
:10490000E902C4CC892F8095881F8827881F80934F
:10491000E102BCCC892F8095881F8827881F80934F
:10492000D902B4CC892F8095881F8827881F80934F
:10493000D102ACCC292F2095221F2227221F2093A1
:10494000D4023091740185E090E0311102C08CE115
:1049500090E08B539D4FFC012083662321F0109241
:10496000CA021092E1023093750190CC292F209554
:10497000221F2227221F2093D402309174018AE142
:1049800090E0311102C08FE190E08B539D4FFC010C
:104990002083662321F01092DF021092E40230930C
:1049A000750174CC292F2095221F2227221F2093C6
:1049B000D4023091740182E290E0311102C087E1AB
:1049C00090E08B539D4FFC012083662321F01092D1
:1049D000E7021092DC023093750158CC292F209504
:1049E000221F2227221F2093D4023091740188E0D5
:1049F00090E0311102C08DE090E08B539D4FFC019F
:104A00002083662321F01092CD021092D2023093BF
:104A100075013CCC2091000121110CC0611136CCF4
:104A200080917401882321F089E10E94B1202ECC6D
:104A300085E2FBCF292F2095221F2227221F2093BA
:104A4000D40280917401882371F089E190E08B5346
:104A50009D4FFC012083662309F418CC1092DE02DE
:104A60001092EA0213CC85E290E0F1CF2091000190
:104A700021110CC061110ACC80917401882321F0AE
:104A800081E20E94B12002CC8DE1FBCF292F20953D
:104A9000221F2227221F2093D40280917401882391
:104AA00071F081E290E08B539D4FFC0120836623DF
:104AB00009F4ECCB1092E6021092E202E7CB8DE112
:104AC00090E0F1CF292F2095221F2227221F20932B
:104AD000D4023091740188E190E0311102C080E28B
:104AE00090E08B539D4FFC012083662321F01092B0
:104AF000DD021092E50230937501C8CB20910001D0
:104B000021110CC06111C2CB80917401882321F066
:104B100089E00E94B120BACB81E1FBCF292F2095FB
:104B2000221F2227221F2093D40280917401882300
:104B300071F089E090E08B539D4FFC012083662348
:104B400009F4A4CB1092CE021092D6029FCB81E141
:104B500090E0F1CF292F2095221F2227221F20939A
:104B6000D4023091740186E190E0311102C08EE0F0
:104B700090E08B539D4FFC012083662321F010921F
:104B8000DB021092D3023093750180CB292F209540
:104B9000221F2227221F2093D4023091740184E027
:104BA00090E0311102C08EE190E08B539D4FFC01EB
:104BB0002083662321F01092C9021092E302309301
:104BC000750164CB80917401882329F0611103C0C1
:104BD00081E00E94B12090917401911108C08091F0
:104BE000760121E082278093D4028093D5029093AE
:104BF00075014CCB892F8095881F8827881F80934B
:104C0000D4028093EC0242CB892F8095881F88279D
:104C1000881F8093D4028093E30238CB892F80953C
:104C2000881F8827881F8093D4028093DB022ECBB5
:104C300020918C0221110CC020918B02211108C0FF
:104C400020918A02222359F020918902222339F0EF
:104C500061111CCB0E94F11B0E94751117CB892F8B
:104C60008095881F8827881F8093C5028093DA0269
:104C70008DE190E00E94CD1309CB81E08093D402B6
:104C80008093C5020E943C2064E670E080E090E0E2
:104C90000E94ED071092D4021092C502F7CA20912B
:104CA00074012111F3CA892F8095881F8827881FD6
:104CB00090910001992329F08093DC028093ED020A
:104CC000E5CA8093C5028093D80283E190E00E94F8
:104CD000CD13DCCA209174012111D8CA892F809587
:104CE000881F8827881F90910001992329F08093BD
:104CF000E4028093ED02CACA8093C5028093E00269
:104D000084E190E00E94CD13C1CA20917401211169
:104D1000BDCA892F8095881F8827881F8093DB0252
:104D20008093ED02B3CA209174012111AFCA892F7B
:104D30008095881F8827881F8093D3028093ED0277
:104D4000A5CA20918C0221110CC020918B02211147
:104D500008C020918A02222361F020918902222337
:104D600041F0611193CA80E00E94751C0E94FB1201
:104D70008DCA892F8095881F8827881F8093C60237
:104D80008093ED0283CA20918C0221110CC02091E6
:104D90008B02211108C020918A02222361F0209108
:104DA0008902222341F0611171CA81E00E94751CC1
:104DB0000E94FB126BCA892F8095881F8827881F45
:104DC0008093EC028093ED0261CA20918C02211144
:104DD0000CC020918B02211108C020918A0222234D
:104DE00061F020918902222341F061114FCA82E0D3
:104DF0000E94751C0E94FB1249CA892F8095881F4A
:104E00008827881F8093DD028093ED023FCA20919E
:104E10008C0221110CC020918B02211108C020911D
:104E20008A02222361F020918902222341F061113C
:104E30002DCA83E00E94751C0E94FB1227CA892F8D
:104E40008095881F8827881F8093D6028093ED0263
:104E50001DCA20918C0221110CC020918B022111BE
:104E600008C020918A02222359F02091890222232E
:104E700039F061110BCA0E94661C0E94CA1206CA50
:104E8000892F8095881F8827881F8093D702809359
:104E9000ED02FCC920918C0221110CC020918B02E3
:104EA000211108C020918A02222359F02091890201
:104EB000222339F06111EAC90E94571C0E949912FD
:104EC000E5C9892F8095881F8827881F8093DE0277
:104ED0008093ED02DBC920918C0221110CC020913E
:104EE0008B02211108C020918A02222391F0209187
:104EF0008902222371F06111C9C98091F601909154
:104F0000F5018F5F911180E00E943C1C0E945312BA
:104F1000BDC9892F8095881F8827881F8093E60246
:104F20008093ED02B3C920918C02211108C0209119
:104F30008A02222359F020918902222339F061113B
:104F4000A5C90E942D1C0E942212A0C9892F8095FC
:104F5000881F8827881F8093EB028093ED0296C9F3
:104F600020918C0221110CC020918B02211108C0CC
:104F700020918A02222359F020918902222339F0BC
:104F8000611184C90E941E1C0E94FD117FC9892FD6
:104F90008095881F8827881F8093DA028093ED020E
:104FA00075C920918C0221110CC020918B02211116
:104FB00008C020918A02222359F0209189022223DD
:104FC00039F0611163C90E940F1C0E94D7115EC99C
:104FD000892F8095881F8827881F8093E3028093FC
:104FE000ED0254C920918C0221110CC020918B023A
:104FF000211108C020918A02222359F020918902B0
:10500000222339F0611142C90E94001C0E94A6119E
:105010003DC9892F8095881F8827881F8093C702E4
:105020008093D40233C920918C0221110CC02091AD
:105030008B02211108C020918A02222349F020917D
:105040008902222329F0611121C90E947B201EC9F7
:10505000892F8095881F8827881F8093CF0280938F
:10506000D40214C980917401811110C961110EC953
:105070000E94D31B0E941E1109C93397EA36F1051D
:1050800008F010C9EA5BF74D0C94BB3A3D26322874
:105090004421B521B521CA21CA21DF21FB213422B7
:1050A00034223C2252215221852693264F266A26FD
:1050B000792288225B226A22442217229722F12237
:1050C000182601230B234A2452245A2462246A24DA
:1050D00072247A2482248A249224D22401230E2644
:1050E0000426FA256225FA2302240A2412241A240B
:1050F00022242A2432243A2442249A24B624C6257F
:10510000D22462255221E22513231B2323232B23A0
:1051100033233B2343234B2353235B237A238223D1
:105120008A2392239A23A223AA23B223BA23C22337
:10513000CA23D223DA23E223EA23F223EE247E25B4
:105140000A253625AA255221A126C326E5260727AA
:1051500029274A276B279327B027D127F22713281F
:105160001F920F920FB60F9211242F933F934F93DC
:105170005F936F937F938F939F93AF93BF93EF93BF
:10518000FF938091B900887F803609F44AC0F0F51A
:10519000883209F4A5C018F5803109F499C0B8F433
:1051A000882309F4F5C0883009F492C0FF91EF918B
:1051B000BF91AF919F918F917F916F915F914F912F
:1051C0003F912F910F900FBE0F901F90189588312F
:1051D00009F486C0803251F78093B20414C0803441
:1051E00009F49BC040F48033B9F38833F9F6809317
:1051F000B20485ECAEC0803509F483C0883509F46B
:1052000094C0883499F60E94A104D0CF883909F45B
:105210008AC038F5883729F050F4883611F0803785
:1052200029F683E08093B6041092600355C0883855
:1052300009F479C0803919F0803809F0B7CF80912E
:105240006003803208F06FC0E091600381E08E0F50
:10525000809360038091BB00F0E0E05CFC4F8083B2
:105260003BC0803B39F0D0F4803A09F477C0883AEB
:1052700009F09CCF84E08093B60410923F03109213
:105280003E03F0E0E0E0099580913E0381110FC0FC
:1052900081E080933E0310921E0309C0803C09F414
:1052A000A8CF883C09F4A5CF883B09F07FCFE091D7
:1052B0003F0381E08E0F80933F03F0E0E25EFC4FFE
:1052C00080818093BB0090913F0380913E0329C071
:1052D00080918F048093BB0085EC8093BC0066CFE7
:1052E0009091B1048091B004981758F5E091B10401
:1052F00081E08E0F8093B104F0E0E057FB4F808196
:10530000E9CFE091B10481E08E0F8093B1048091E8
:10531000BB00F0E0E057FB4F80839091B104809197
:10532000B0049817C8F285E8D8CFE091B10481E0C5
:105330008E0F8093B1048091BB00F0E0E057FB4FEB
:1053400080838091B30481115ECF81E080938E04CD
:1053500084EA8093BC001092B60428CF85EC809339
:10536000BC001092B60480916003803230F4E0916A
:105370006003F0E0E05CFC4F10826091600370E03D
:1053800080E493E0F0E0E0E00995109260030ECF36
:105390001092B20438CF1F920F920FB60F921124C1
:1053A0002F933F938F939F93AF93BF938091160357
:1053B00090911703A0911803B09119033091150330
:1053C00023E0230F2D3758F50196A11DB11D209321
:1053D00015038093160390931703A0931803B093BB
:1053E000190380911A0390911B03A0911C03B091A3
:1053F0001D030196A11DB11D80931A0390931B03F9
:10540000A0931C03B0931D03BF91AF919F918F9107
:105410003F912F910F900FBE0F901F90189526E887
:10542000230F0296A11DB11DD2CF1F920F920FB66E
:105430000F9211242F933F934F935F936F937F931A
:105440008F939F93AF93BF93EF93FF93E0910801E6
:10545000F09109010995FF91EF91BF91AF919F9153
:105460008F917F916F915F914F913F912F910F900D
:105470000FBE0F901F9018951F920F920FB60F92AC
:1054800011242F933F934F935F936F937F938F9349
:105490009F93AF93BF93EF93FF93E0910601F09139
:1054A00007010995FF91EF91BF91AF919F918F9166
:1054B0007F916F915F914F913F912F910F900FBE10
:1054C0000F901F9018951F920F920FB60F921124F4
:1054D0002F933F934F935F936F937F938F939F93FC
:1054E000AF93BF93EF93FF9382E295E00E94550B39
:1054F000FF91EF91BF91AF919F918F917F916F91AC
:105500005F914F913F912F910F900FBE0F901F9081
:1055100018951F920F920FB60F9211242F938F930D
:105520009F93EF93FF93E0913205F09133058081D3
:10553000E0913805F091390582FD1BC09081809182
:105540003B058F5F8F7320913C05821741F0E091FE
:105550003B05F0E0EE5DFA4F958F80933B05FF91A0
:10556000EF919F918F912F910F900FBE0F901F90F1
:1055700018958081F4CFE6E1F5E01382128288EE7F
:1055800093E0A0E0B0E084839583A683B78320E115
:1055900031E031832083E2E2F5E0138212828483DA
:1055A0009583A683B78382E291E09183808385EC23
:1055B00090E09587848784EC90E09787868780ECDD
:1055C00090E0918B808B81EC90E0938B828B82ECCE
:1055D00090E0958B848B86EC90E0978B868B118E78
:1055E000128E138E148EE1ECF5E01382128284E3A6
:1055F00091E09183808316821782EFEBF5E081E5DD
:10560000808311820895CF93DF93CDB7DEB7C8545E
:10561000D1090FB6F894DEBF0FBECDBF789484B524
:10562000826084BD84B5816084BD85B5826085BD9E
:1056300085B5816085BD80916E00816080936E002C
:10564000109281008091810082608093810080911E
:1056500081008160809381008091800081608093CF
:1056600080008091B10084608093B1008091B0008F
:1056700081608093B00080917A00846080937A008A
:1056800080917A00826080937A0080917A008160B4
:1056900080937A0080917A00806880937A001092DB
:1056A000C100E0913205F091330582E08083E09102
:1056B0002E05F0912F051082E0913005F091310513
:1056C00080E1808310923A05E0913605F09137052C
:1056D00086E08083E0913405F0913505808180611A
:1056E0008083E0913405F091350580818860808366
:1056F000E0913405F0913505808180688083E091E8
:105700003405F091350580818F7D808382E295E0BC
:105710000E94C40B61E08AE00E94660760E08AE0B4
:105720000E94B5051FB7F8948091E501811127C04B
:10573000EFEDF6E08491E3EFF6E09491E82FF0E0EE
:10574000EE0FFF1FE954F94FA591B491EC91E923B5
:1057500021F461E08AE00E94B50561E08AE00E94E0
:1057600066078CB580618CBD8CB580648CBD61E0B2
:105770008DE00E94660761E08BE00E9466078091E1
:10578000E5018F5F8093E5011FBF80917A00887FDC
:10579000846080937A0061E087E00E94660761E0A0
:1057A00087E00E94B50561E080E10E94660761E044
:1057B00080E10E94B50561E08FE00E94660761E02C
:1057C0008FE00E94B50562E084E10E94660762E016
:1057D00085E10E94660762E082E00E94660762E05F
:1057E00084E00E94660762E083E00E94660762E050
:1057F00085E00E94660762E086E00E94660762E03C
:1058000088E00E94660762E089E00E94660762E025
:105810008EE00E94660762E081E10E94660788E4EC
:1058200090E00E94B9136091EC0190E080E00E944A
:10583000991B8093EC016091000181E090E00E944F
:10584000991B809300016091EB0182E090E00E943F
:10585000991B8093EB016091EA0183E090E00E9444
:10586000991B8093EA016091F40184E090E00E942A
:10587000991B8093F4016091F30185E090E00E9410
:10588000991B8093F3016091E90186E090E00E940A
:10589000991B8093E9016091E80187E090E00E9404
:1058A000991B8093E8016091F60188E090E00E94E6
:1058B000991B8093F6016091E70189E090E00E94D6
:1058C000991B8093E7016091F5018AE090E00E94C6
:1058D000991B8093F5016091E6018BE090E00E94B6
:1058E000991B8093E601609191028CE090E00E9408
:1058F000991B8093910260916B048DE090E00E946F
:10590000991B80936B049091EC019093EF0290911E
:10591000EB019093F3029091EA019093F40290913D
:10592000F4019093FE029091F3019093FF02909105
:10593000E901909300039091E80190930203909104
:10594000F601909303039091E701909304039091E3
:10595000F501909305039091E601909306039091D1
:105960000001909301038093070380EE94E00E946E
:10597000E41682EC94E00E94E4168091F20160E06B
:10598000811104C08FEF0E94A31CF7CF80EF0E940B
:10599000A31C60E081EF0E94A31C60E082EF0E94E4
:1059A000A31C60E083EF0E94A31C60E084EF0E94D0
:1059B000A31C60E085EF0E94A31C60E086EF0E94BC
:1059C000A31C60E087EF0E94A31C83EA9CE19093F4
:1059D000CA058093C9058FE08093D20586E0809345
:1059E000D30588E08093D40589E08093D5058AE0CB
:1059F0008093D6058EE08093D70581E18093D8050A
:105A00001092CC051092CB051092D1050E941F0870
:105A10006093CD057093CE058093CF059093D0050C
:105A200061EB74E082E295E00E94B30A0E94E40B0D
:105A300084E08093EE0182E08093ED0162E00E94B9
:105A4000660762E084E00E9466076DED7DE080E01D
:105A50000E9485048EEE0E94F90B8BEB0E94F90BDD
:105A6000892B11F00E947C0C66E070E080E090E0F1
:105A70000E94ED070E94C60D8C0199278E3E91056C
:105A800021F08A3A910509F07DC18CEA94E00E94E8
:105A9000E41681E080936103809166038F7E80939A
:105AA00066030E94BB0C82E090E090939D0280937D
:105AB0009C026AE774E082E295E00E94B30A83E008
:105AC00090E09093DA058093D90585E090E090937B
:105AD000DC058093DB058093EF011092DD050E94C9
